{"abi":[{"type":"constructor","inputs":[],"stateMutability":"nonpayable"},{"type":"function","name":"batcherHash","inputs":[],"outputs":[{"name":"","type":"address","internalType":"address"}],"stateMutability":"view"},{"type":"function","name":"gasLimit","inputs":[],"outputs":[{"name":"","type":"uint64","internalType":"uint64"}],"stateMutability":"view"},{"type":"function","name":"overhead","inputs":[],"outputs":[{"name":"","type":"uint256","internalType":"uint256"}],"stateMutability":"view"},{"type":"function","name":"owner","inputs":[],"outputs":[{"name":"","type":"address","internalType":"address"}],"stateMutability":"view"},{"type":"function","name":"resourceConfig","inputs":[],"outputs":[{"name":"maxResourceLimit","type":"uint32","internalType":"uint32"},{"name":"elasticityMultiplier","type":"uint8","internalType":"uint8"},{"name":"baseFeeMaxChangeDenominator","type":"uint8","internalType":"uint8"},{"name":"minimumBaseFee","type":"uint32","internalType":"uint32"},{"name":"systemTxMaxGas","type":"uint32","internalType":"uint32"},{"name":"maximumBaseFee","type":"uint128","internalType":"uint128"}],"stateMutability":"view"},{"type":"function","name":"scalar","inputs":[],"outputs":[{"name":"","type":"uint256","internalType":"uint256"}],"stateMutability":"view"},{"type":"function","name":"setBatcherHash","inputs":[{"name":"_batcher","type":"address","internalType":"address"}],"outputs":[],"stateMutability":"nonpayable"},{"type":"function","name":"setGasConfig","inputs":[{"name":"_overhead","type":"uint256","internalType":"uint256"},{"name":"_scalar","type":"uint256","internalType":"uint256"}],"outputs":[],"stateMutability":"nonpayable"},{"type":"function","name":"setGasLimit","inputs":[{"name":"_gasLimit","type":"uint64","internalType":"uint64"}],"outputs":[],"stateMutability":"nonpayable"},{"type":"function","name":"setUBIFee","inputs":[{"name":"_feeBps","type":"uint256","internalType":"uint256"}],"outputs":[],"stateMutability":"nonpayable"},{"type":"function","name":"setUnsafeBlockSigner","inputs":[{"name":"_signer","type":"address","internalType":"address"}],"outputs":[],"stateMutability":"nonpayable"},{"type":"function","name":"transferOwnership","inputs":[{"name":"_newOwner","type":"address","internalType":"address"}],"outputs":[],"stateMutability":"nonpayable"},{"type":"function","name":"ubiFeeBps","inputs":[],"outputs":[{"name":"","type":"uint256","internalType":"uint256"}],"stateMutability":"view"},{"type":"function","name":"unsafeBlockSigner","inputs":[],"outputs":[{"name":"","type":"address","internalType":"address"}],"stateMutability":"view"},{"type":"event","name":"ConfigUpdate","inputs":[{"name":"version","type":"uint256","indexed":true,"internalType":"uint256"},{"name":"updateType","type":"uint8","indexed":true,"internalType":"uint8"},{"name":"data","type":"bytes","indexed":false,"internalType":"bytes"}],"anonymous":false}],"bytecode":{"object":"0x60803460ec575f80546001600160a01b03199081163390811790925560bc600155620a6fe060025560038054610ce46006556001600160e01b03191683176203938760a71b17905560048054909116909117905560c081016001600160401b0381118282101760d85760409081526301312d00825260066020830152603282820152633b9aca006060830152620f424060808301526001600160801b0360a090920191909152600580546001600160f01b0319166dfff0bdbfc46535ffcdf9feced300600160f01b031790555161060d90816100f18239f35b634e487b7160e01b5f52604160045260245ffd5b5f80fdfe60806040526004361015610011575f80fd5b5f3560e01c80630a2ca2a91461049e5780630c18c1621461048157806318d139181461042b5780631fd19ee1146104035780636b882f3d146103e65780638da5cb5b146103bf578063935f029e1461035c578063b40a817c14610288578063c6d0fbf8146101e5578063cc731b0214610171578063e81b2c6d14610149578063f2fde38b146100fe578063f45e65d8146100e15763f68016b7146100b3575f80fd5b346100dd575f3660031901126100dd57602067ffffffffffffffff60035460a01c16604051908152f35b5f80fd5b346100dd575f3660031901126100dd576020600254604051908152f35b346100dd5760203660031901126100dd576004356001600160a01b038116908190036100dd575f5461013a336001600160a01b0383161461051e565b6001600160a01b031916175f55005b346100dd575f3660031901126100dd576003546040516001600160a01b039091168152602090f35b346100dd575f3660031901126100dd5760c06005546fffffffffffffffffffffffffffffffff6040519163ffffffff8116835260ff8160201c16602084015260ff8160281c16604084015263ffffffff8160301c16606084015263ffffffff8160501c16608084015260701c1660a0820152f35b346100dd5760203660031901126100dd5760043561020d60018060a01b035f5416331461051e565b6127108111610258575f5f5160206105b85f395f51905f526102538360649460065560405190602082015260208152610247604082610557565b6040519182918261058d565b0390a3005b60405162461bcd60e51b81526020600482015260086024820152676d6178203130302560c01b6044820152606490fd5b346100dd5760203660031901126100dd5760043567ffffffffffffffff8116908181036100dd576102c360018060a01b035f5416331461051e565b620f42408210610323575f5160206105b85f395f51905f526102536001935f936003549067ffffffffffffffff60a01b9060a01b169067ffffffffffffffff60a01b19161760035560405190602082015260208152610247604082610557565b60405162461bcd60e51b8152602060048201526011602482015270676173206c696d697420746f6f206c6f7760781b6044820152606490fd5b346100dd5760403660031901126100dd575f805f5160206105b85f395f51905f5261025360043560243561039a60018060a01b03865416331461051e565b8160015580600255604051916020830152604082015260408152610247606082610557565b346100dd575f3660031901126100dd575f546040516001600160a01b039091168152602090f35b346100dd575f3660031901126100dd576020600654604051908152f35b346100dd575f3660031901126100dd576004546040516001600160a01b039091168152602090f35b346100dd5760203660031901126100dd576004356001600160a01b038116908190036100dd5761046560018060a01b035f5416331461051e565b6bffffffffffffffffffffffff60a01b60045416176004555f80f35b346100dd575f3660031901126100dd576020600154604051908152f35b346100dd5760203660031901126100dd576004356001600160a01b038116908190036100dd575f5f5160206105b85f395f51905f526102536002936104ed60018060a01b03855416331461051e565b806bffffffffffffffffffffffff60a01b600354161760035560405190602082015260208152610247604082610557565b1561052557565b60405162461bcd60e51b815260206004820152600a60248201526937b7363c9037bbb732b960b11b6044820152606490fd5b90601f8019910116810190811067ffffffffffffffff82111761057957604052565b634e487b7160e01b5f52604160045260245ffd5b602060409281835280519182918282860152018484015e5f828201840152601f01601f191601019056fe1d2b0bda21d56b8bd12d4f94ebacffdfb35f5e226f84b461103bb8beab6353bea26469706673582212204563263ee50298ef6a69f3d832e03d8e65ba65507d1b5432bc8ca00db3b43a6e64736f6c63430008210033","linkReferences":{}},"methodIdentifiers":{"batcherHash()":"e81b2c6d","gasLimit()":"f68016b7","overhead()":"0c18c162","owner()":"8da5cb5b","resourceConfig()":"cc731b02","scalar()":"f45e65d8","setBatcherHash(address)":"0a2ca2a9","setGasConfig(uint256,uint256)":"935f029e","setGasLimit(uint64)":"b40a817c","setUBIFee(uint256)":"c6d0fbf8","setUnsafeBlockSigner(address)":"18d13918","transferOwnership(address)":"f2fde38b","ubiFeeBps()":"6b882f3d","unsafeBlockSigner()":"1fd19ee1"},"id":20}