{"abi":[{"type":"constructor","inputs":[{"name":"_gd","type":"address","internalType":"address"},{"name":"_ubiTreasury","type":"address","internalType":"address"},{"name":"_admin","type":"address","internalType":"address"}],"stateMutability":"nonpayable"},{"type":"function","name":"EARLY_UNLOCK_PENALTY_BPS","inputs":[],"outputs":[{"name":"","type":"uint256","internalType":"uint256"}],"stateMutability":"view"},{"type":"function","name":"MAX_LOCK","inputs":[],"outputs":[{"name":"","type":"uint256","internalType":"uint256"}],"stateMutability":"view"},{"type":"function","name":"MIN_LOCK","inputs":[],"outputs":[{"name":"","type":"uint256","internalType":"uint256"}],"stateMutability":"view"},{"type":"function","name":"UBI_PENALTY_SHARE_BPS","inputs":[],"outputs":[{"name":"","type":"uint256","internalType":"uint256"}],"stateMutability":"view"},{"type":"function","name":"admin","inputs":[],"outputs":[{"name":"","type":"address","internalType":"address"}],"stateMutability":"view"},{"type":"function","name":"decimals","inputs":[],"outputs":[{"name":"","type":"uint8","internalType":"uint8"}],"stateMutability":"view"},{"type":"function","name":"delegate","inputs":[{"name":"delegatee","type":"address","internalType":"address"}],"outputs":[],"stateMutability":"nonpayable"},{"type":"function","name":"delegates","inputs":[{"name":"","type":"address","internalType":"address"}],"outputs":[{"name":"","type":"address","internalType":"address"}],"stateMutability":"view"},{"type":"function","name":"earlyUnlock","inputs":[],"outputs":[],"stateMutability":"nonpayable"},{"type":"function","name":"extendLock","inputs":[{"name":"newEnd","type":"uint256","internalType":"uint256"}],"outputs":[],"stateMutability":"nonpayable"},{"type":"function","name":"gd","inputs":[],"outputs":[{"name":"","type":"address","internalType":"contract IERC20"}],"stateMutability":"view"},{"type":"function","name":"getPastVotes","inputs":[{"name":"account","type":"address","internalType":"address"},{"name":"timestamp","type":"uint256","internalType":"uint256"}],"outputs":[{"name":"","type":"uint256","internalType":"uint256"}],"stateMutability":"view"},{"type":"function","name":"getVotes","inputs":[{"name":"account","type":"address","internalType":"address"}],"outputs":[{"name":"","type":"uint256","internalType":"uint256"}],"stateMutability":"view"},{"type":"function","name":"increaseLock","inputs":[{"name":"addedAmount","type":"uint256","internalType":"uint256"}],"outputs":[],"stateMutability":"nonpayable"},{"type":"function","name":"lock","inputs":[{"name":"amount","type":"uint256","internalType":"uint256"},{"name":"duration","type":"uint256","internalType":"uint256"}],"outputs":[],"stateMutability":"nonpayable"},{"type":"function","name":"locks","inputs":[{"name":"","type":"address","internalType":"address"}],"outputs":[{"name":"amount","type":"uint128","internalType":"uint128"},{"name":"end","type":"uint128","internalType":"uint128"}],"stateMutability":"view"},{"type":"function","name":"name","inputs":[],"outputs":[{"name":"","type":"string","internalType":"string"}],"stateMutability":"view"},{"type":"function","name":"setUbiTreasury","inputs":[{"name":"_ubiTreasury","type":"address","internalType":"address"}],"outputs":[],"stateMutability":"nonpayable"},{"type":"function","name":"symbol","inputs":[],"outputs":[{"name":"","type":"string","internalType":"string"}],"stateMutability":"view"},{"type":"function","name":"totalLocked","inputs":[],"outputs":[{"name":"","type":"uint256","internalType":"uint256"}],"stateMutability":"view"},{"type":"function","name":"totalVotingPower","inputs":[],"outputs":[{"name":"","type":"uint256","internalType":"uint256"}],"stateMutability":"view"},{"type":"function","name":"ubiTreasury","inputs":[],"outputs":[{"name":"","type":"address","internalType":"address"}],"stateMutability":"view"},{"type":"function","name":"votingPowerOf","inputs":[{"name":"account","type":"address","internalType":"address"}],"outputs":[{"name":"","type":"uint256","internalType":"uint256"}],"stateMutability":"view"},{"type":"function","name":"withdraw","inputs":[],"outputs":[],"stateMutability":"nonpayable"},{"type":"event","name":"DelegateChanged","inputs":[{"name":"delegator","type":"address","indexed":true,"internalType":"address"},{"name":"fromDelegate","type":"address","indexed":true,"internalType":"address"},{"name":"toDelegate","type":"address","indexed":true,"internalType":"address"}],"anonymous":false},{"type":"event","name":"EarlyUnlocked","inputs":[{"name":"user","type":"address","indexed":true,"internalType":"address"},{"name":"received","type":"uint256","indexed":false,"internalType":"uint256"},{"name":"penalty","type":"uint256","indexed":false,"internalType":"uint256"},{"name":"toUBI","type":"uint256","indexed":false,"internalType":"uint256"}],"anonymous":false},{"type":"event","name":"Extended","inputs":[{"name":"user","type":"address","indexed":true,"internalType":"address"},{"name":"newUnlockTime","type":"uint256","indexed":false,"internalType":"uint256"}],"anonymous":false},{"type":"event","name":"Increased","inputs":[{"name":"user","type":"address","indexed":true,"internalType":"address"},{"name":"addedAmount","type":"uint256","indexed":false,"internalType":"uint256"}],"anonymous":false},{"type":"event","name":"Locked","inputs":[{"name":"user","type":"address","indexed":true,"internalType":"address"},{"name":"amount","type":"uint256","indexed":false,"internalType":"uint256"},{"name":"unlockTime","type":"uint256","indexed":false,"internalType":"uint256"}],"anonymous":false},{"type":"event","name":"UbiTreasuryUpdated","inputs":[{"name":"newTreasury","type":"address","indexed":true,"internalType":"address"}],"anonymous":false},{"type":"event","name":"Withdrawn","inputs":[{"name":"user","type":"address","indexed":true,"internalType":"address"},{"name":"amount","type":"uint256","indexed":false,"internalType":"uint256"}],"anonymous":false},{"type":"error","name":"CannotShortenLock","inputs":[]},{"type":"error","name":"LockExpired","inputs":[]},{"type":"error","name":"LockNotExpired","inputs":[]},{"type":"error","name":"LockTooLong","inputs":[]},{"type":"error","name":"LockTooShort","inputs":[]},{"type":"error","name":"NoLock","inputs":[]},{"type":"error","name":"NotAdmin","inputs":[]},{"type":"error","name":"ZeroAmount","inputs":[]}],"bytecode":{"object":"0x60a0346100c957601f6118e638819003918201601f19168301916001600160401b038311848410176100cd578084926060946040528339810103126100c957610047816100e1565b906100606040610059602084016100e1565b92016100e1565b60015f8190556001600160a01b0393841660805280549284166001600160a01b0319938416179055600280549190931691161790556040516117f090816100f6823960805181818161022e0152818161059e01528181610b8801528181610e5a01526110310152f35b5f80fd5b634e487b7160e01b5f52604160045260245ffd5b51906001600160a01b03821682036100c95756fe60806040526004361015610011575f80fd5b5f5f3560e01c806306fdde031461116b57806309f63de61461114f5780631338736f14610f425780631c5a091414610d89578063313ce56714610d6e5780633a46b1a814610d345780633ccfd60b14610a7b5780633ed1f5b714610a5e57806344ee3a1c1461092357806347640f6d146104ac578063568914121461048e578063587cde1e1461044d5780635c19a95c146103725780635de9a1371461032857806361e944f9146102ff57806365a5d5f0146102e0578063671b3793146102c557806395d89b41146102815780639ab24eb01461025d578063a5e598fc14610218578063b95a78df14610197578063bcc3f3bd1461016b578063f851a440146101425763f8764cec14610122575f80fd5b3461013f578060031936011261013f57602060405162093a808152f35b80fd5b503461013f578060031936011261013f576002546040516001600160a01b039091168152602090f35b503461013f57602036600319011261013f57602061018f61018a61123e565b6113be565b604051908152f35b503461013f57602036600319011261013f576101b161123e565b6002546001600160a01b0316330361020957600180546001600160a01b0319166001600160a01b039290921691821790557fc2c3ef4bf38fcd298154821ff709f996b69b0925d244c318ce9948846bbead3d8280a280f35b637bfa4b9f60e01b8252600482fd5b503461013f578060031936011261013f576040517f00000000000000000000000000000000000000000000000000000000000000006001600160a01b03168152602090f35b503461013f57602036600319011261013f57602061018f61027c61123e565b61137e565b503461013f578060031936011261013f57506102c16040516102a46040826111f2565b60048152631d9951c960e21b602082015260405191829182611214565b0390f35b503461013f578060031936011261013f57602061018f61132f565b503461013f578060031936011261013f576020604051630784ce008152f35b503461013f578060031936011261013f576001546040516001600160a01b039091168152602090f35b503461013f57602036600319011261013f5760409081906001600160a01b0361034f61123e565b168152600360205220548151906001600160801b038116825260801c6020820152f35b503461013f57602036600319011261013f5761038c61123e565b338083526005602081815260408086205484875292909152842080546001600160a01b0319166001600160a01b03858116919091179091551691906103d0906113be565b80610409575b506001600160a01b031690337f3134e8a2e6d97e929a7e54011ea5485d7d196dd5f0ba4d4ef95803e8e3fc257f8480a480f35b61042d9083610433575b6001600160a01b0383168552600660205260408520611491565b5f6103d6565b8385526006602052610448816040872061167e565b610413565b503461013f57602036600319011261013f576020906001600160a01b0361047261123e565b16815260058252604060018060a01b0391205416604051908152f35b503461013f578060031936011261013f576020600454604051908152f35b503461013f578060031936011261013f576104c561143d565b338152600360205260408120546001600160801b0381169081156109145760801c42101561090557610bb88102818104610bb8036108f1576127109004610d058102818104610d0514821517156108dd5761271090049061052682826112bb565b5061053181846112bb565b9261053b336113be565b338652600560205260408620546001600160a01b031681610717575b50506105739033865260036020528560408120556004546112bb565b600490815560405163a9059cbb60e01b81523391810191909152602481018490526001600160a01b037f00000000000000000000000000000000000000000000000000000000000000001660208260448189855af191821561070c5784926105e29188916106ed575b506112c8565b81610627575b5050604051928352602083015260408201527f6c542a1e9735ac902c5166d7d2c26d4b25644dc1b4a2330757d5208cc741283660603392a26001815580f35b60015460405163a9059cbb60e01b81526001600160a01b03909116600482015260248101929092526020908290604490829089905af19081156106e25785916106b3575b501561067857815f6105e8565b60405162461bcd60e51b8152602060048201526013602482015272155092481d1c985b9cd9995c8819985a5b1959606a1b6044820152606490fd5b6106d5915060203d6020116106db575b6106cd81836111f2565b810190611261565b5f61066b565b503d6106c3565b6040513d87823e3d90fd5b610706915060203d6020116106db576106cd81836111f2565b5f6105dc565b6040513d88823e3d90fd5b8652600660205261072b816040882061167e565b6007548015801592906108d7575f1982018281116108c35761074e906007611306565b505460301c5b6001600160d01b031690808211156108ba5761076f916112bb565b915b80610876575b156107d7575f1981019081116107c357610573929161079a6107bc926007611306565b50805465ffffffffffff1660309290921b65ffffffffffff1916919091179055565b905f610557565b634e487b7160e01b87526011600452602487fd5b90604051916107e5836111c2565b4265ffffffffffff1683526001600160d01b039091166020830190815290600160401b8110156108625780600161082192016007556007611306565b92909261084e5751905160301b65ffffffffffff191665ffffffffffff91909116179055610573906107bc565b634e487b7160e01b88526004889052602488fd5b634e487b7160e01b88526041600452602488fd5b505f1981018181116108a65761089465ffffffffffff916007611306565b50541665ffffffffffff421614610777565b634e487b7160e01b88526011600452602488fd5b50508691610771565b634e487b7160e01b89526011600452602489fd5b87610754565b634e487b7160e01b84526011600452602484fd5b634e487b7160e01b83526011600452602483fd5b6307b7d7dd60e51b8252600482fd5b63ba112c9360e01b8352600483fd5b503461013f57602036600319011261013f5760043533825260036020526040822080546001600160801b03811615610a4f5760801c821115610a4057630784ce0042018042116108dd578211610a315761099f61097f336113be565b82546001600160801b0316608085901b6001600160801b03191617909255565b6109a8336113be565b90338452600560205260018060a01b03604085205416908083116109f9575b5050506040519081527fa29fc12cda82ff659de006abb10fa5ee256d922af1661e395e5f2fb6b004387e60203392a280f35b610a2992610a249286526006602052610a1f60408720610a1984846112bb565b90611491565b6112bb565b6115ae565b5f80806109c7565b63d6946a4360e01b8352600483fd5b634421098d60e11b8352600483fd5b63ba112c9360e01b8452600484fd5b503461013f578060031936011261013f576020604051610d058152f35b5034610d30575f366003190112610d3057610a9461143d565b335f52600360205260405f20546001600160801b038116908115610d215760801c4210610d1257335f52600560205260018060a01b0360405f2054165f52600660205260405f20805480151591825f14610d0c575f198201828111610cf857610afd9082611306565b505460301c5b6001600160d01b0316948515610cef57505f94925b80610cac575b15610c12575f198201918211610bfe57610b3c929161079a91611306565b3382526003602052816040812055610b56816004546112bb565b600490815560405163a9059cbb60e01b8152339181019190915260248101829052602081604481866001600160a01b037f0000000000000000000000000000000000000000000000000000000000000000165af18015610bf357610bc09184916106ed57506112c8565b6040519081527f7084f5476618d8e60b11ef0d7d3f06914655adb8793e28ff7f018d4c76d505d560203392a26001815580f35b6040513d85823e3d90fd5b634e487b7160e01b85526011600452602485fd5b919060405192610c21846111c2565b4265ffffffffffff1684526001600160d01b039092166020840190815291600160401b821015610c985790610c5b91600182018155611306565b929092610c845751905160301b65ffffffffffff191665ffffffffffff91909116179055610b3c565b634e487b7160e01b85526004859052602485fd5b634e487b7160e01b86526041600452602486fd5b505f198201828111610cdb57610cc965ffffffffffff9183611306565b50541665ffffffffffff421614610b1e565b634e487b7160e01b86526011600452602486fd5b94505f92610b18565b634e487b7160e01b5f52601160045260245ffd5b5f610b03565b63342ad40160e11b5f5260045ffd5b63ba112c9360e01b5f5260045ffd5b5f80fd5b34610d30576040366003190112610d30576001600160a01b03610d5561123e565b165f526006602052602061018f60243560405f206116f3565b34610d30575f366003190112610d3057602060405160128152f35b34610d30576020366003190112610d3057600435610da561143d565b8015610f3357335f52600360205260405f208054906001600160801b038216918215610d215760801c421015610f2457610dde336113be565b916001600160801b038416016001600160801b038111610cf8576001600160801b03166001600160801b0319825416179055610e1c82600454611254565b600455610e28336113be565b6040516323b872dd60e01b815233600482015230602482015260448101849052916020836064815f6001600160a01b037f0000000000000000000000000000000000000000000000000000000000000000165af1918215610f1957610e9b610a2493610ec8955f91610efa575b50611279565b335f52600560205260018060a01b0360405f2054165f526006602052610a1f60405f20610a1984846112bb565b6040519081527f071c8af8707bfeb7b8186295479bbffcaff15c8cca8e9727046e8b0215c01fcb60203392a260015f55005b610f13915060203d6020116106db576106cd81836111f2565b87610e95565b6040513d5f823e3d90fd5b6307b7d7dd60e51b5f5260045ffd5b631f2a200560e01b5f5260045ffd5b34610d30576040366003190112610d3057600435602435610f6161143d565b8115610f335762093a80811061114057630784ce00811161113157335f5260036020526001600160801b0360405f205416610d1257610fa09042611254565b610fed604051610faf816111c2565b6001600160801b0384811682528381166020808401918252335f9081526003909152604090209251905160801b6001600160801b0319169116179055565b610ff982600454611254565b60049081556040516323b872dd60e01b81523391810191909152306024820152604481018390526020816064815f6001600160a01b037f0000000000000000000000000000000000000000000000000000000000000000165af18015610f1957611069915f916111125750611279565b335f908152600560205260409020546001600160a01b031680156110ee575b6001600160a01b03165f9081526006602052604090206110ab90610a19336113be565b6110b7610a24336113be565b60405191825260208201527fd4665e3049283582ba6f9eba07a5b3e12dab49e02da99e8927a47af5d134bea560403392a260015f55005b50335f81815260056020526040902080546001600160a01b03191682179055611088565b61112b915060203d6020116106db576106cd81836111f2565b84610e95565b63d6946a4360e01b5f5260045ffd5b63d400571560e01b5f5260045ffd5b34610d30575f366003190112610d30576020604051610bb88152f35b34610d30575f366003190112610d30576102c160405161118c6040826111f2565b601881527f566f74652d457363726f77656420476f6f64446f6c6c61720000000000000000602082015260405191829182611214565b6040810190811067ffffffffffffffff8211176111de57604052565b634e487b7160e01b5f52604160045260245ffd5b90601f8019910116810190811067ffffffffffffffff8211176111de57604052565b602060409281835280519182918282860152018484015e5f828201840152601f01601f1916010190565b600435906001600160a01b0382168203610d3057565b91908201809211610cf857565b90816020910312610d3057518015158103610d305790565b1561128057565b60405162461bcd60e51b81526020600482015260136024820152721d1c985b9cd9995c919c9bdb4819985a5b1959606a1b6044820152606490fd5b91908203918211610cf857565b156112cf57565b60405162461bcd60e51b815260206004820152600f60248201526e1d1c985b9cd9995c8819985a5b1959608a1b6044820152606490fd5b805482101561131b575f5260205f2001905f90565b634e487b7160e01b5f52603260045260245ffd5b6007548015611379575f198101818111610cf857600754111561131b5760075f527fa66cc928b5edb82af9bd49922954155ab7b0942694bea4ce44661d9a8736c687015460301c90565b505f90565b6001600160a01b03165f908152600660205260409020805480156113b8575f198101908111610cf8576113b091611306565b505460301c90565b50505f90565b60018060a01b03165f52600360205260405f20604051906113de826111c2565b546001600160801b0381169081835260801c90816020840152158015611433575b6113b8576114166001600160801b039142906112bb565b915116818102918183041490151715610cf857630784ce00900490565b50804210156113ff565b60025f541461144c5760025f55565b60405162461bcd60e51b815260206004820152601f60248201527f5265656e7472616e637947756172643a207265656e7472616e742063616c6c006044820152606490fd5b805491821580159291906115a4575f19840190848211610cf8576114b86114cc9284611306565b505460301c5b6001600160d01b0316611254565b9180611575575b156114f2575f198301928311610cf8576114f09261079a91611306565b565b604051926114ff846111c2565b4265ffffffffffff1684526001600160d01b039092166020840190815291600160401b8110156111de5761153891600182018155611306565b919091611562579151915160301b65ffffffffffff191665ffffffffffff92909216919091179055565b634e487b7160e01b5f525f60045260245ffd5b505f198301838111610cf85761159265ffffffffffff9183611306565b50541665ffffffffffff4216146114d3565b6114cc905f6114be565b60075490811580159190611674575f19830190838211610cf8576114b86115d6926007611306565b9080611644575b156115fb575f198201918211610cf85761079a6114f0926007611306565b60405191611608836111c2565b4265ffffffffffff1683526001600160d01b039091166020830190815290600160401b8110156111de5780600161153892016007556007611306565b505f198201828111610cf85761166265ffffffffffff916007611306565b50541665ffffffffffff4216146115dd565b6115d6905f6114be565b805491821580159291906116ed575f198401848111610cf8576116a19083611306565b505460301c5b6001600160d01b031690808211156116e4576114cc916112bb565b8061157557156114f2575f198301928311610cf8576114f09261079a91611306565b50505f916116c2565b5f6116a7565b9081549081156117a7575f198201828111610cf8578165ffffffffffff61171a8387611306565b50541611156117ae575082541561131b57825f528065ffffffffffff60205f205416116117a7575f91905b8183106117625750505f198101908111610cf8576113b091611306565b909161176e8382611254565b60011c908265ffffffffffff6117848488611306565b505416116117a0575060018101809111610cf857915b90611745565b925061179a565b5050505f90565b9150506113b09161130656fea2646970667358221220bfa75d4ffb86b56c56c9ce7c7531f76ef8e90add0e5ba194eb0b2298d091427f64736f6c63430008210033","linkReferences":{}},"methodIdentifiers":{"EARLY_UNLOCK_PENALTY_BPS()":"09f63de6","MAX_LOCK()":"65a5d5f0","MIN_LOCK()":"f8764cec","UBI_PENALTY_SHARE_BPS()":"3ed1f5b7","admin()":"f851a440","decimals()":"313ce567","delegate(address)":"5c19a95c","delegates(address)":"587cde1e","earlyUnlock()":"47640f6d","extendLock(uint256)":"44ee3a1c","gd()":"a5e598fc","getPastVotes(address,uint256)":"3a46b1a8","getVotes(address)":"9ab24eb0","increaseLock(uint256)":"1c5a0914","lock(uint256,uint256)":"1338736f","locks(address)":"5de9a137","name()":"06fdde03","setUbiTreasury(address)":"b95a78df","symbol()":"95d89b41","totalLocked()":"56891412","totalVotingPower()":"671b3793","ubiTreasury()":"61e944f9","votingPowerOf(address)":"bcc3f3bd","withdraw()":"3ccfd60b"},"id":23}