{"abi":[{"type":"constructor","inputs":[{"name":"_gd","type":"address","internalType":"address"},{"name":"_ubiTreasury","type":"address","internalType":"address"},{"name":"_admin","type":"address","internalType":"address"}],"stateMutability":"nonpayable"},{"type":"function","name":"EARLY_UNLOCK_PENALTY_BPS","inputs":[],"outputs":[{"name":"","type":"uint256","internalType":"uint256"}],"stateMutability":"view"},{"type":"function","name":"MAX_LOCK","inputs":[],"outputs":[{"name":"","type":"uint256","internalType":"uint256"}],"stateMutability":"view"},{"type":"function","name":"MIN_LOCK","inputs":[],"outputs":[{"name":"","type":"uint256","internalType":"uint256"}],"stateMutability":"view"},{"type":"function","name":"UBI_PENALTY_SHARE_BPS","inputs":[],"outputs":[{"name":"","type":"uint256","internalType":"uint256"}],"stateMutability":"view"},{"type":"function","name":"admin","inputs":[],"outputs":[{"name":"","type":"address","internalType":"address"}],"stateMutability":"view"},{"type":"function","name":"decimals","inputs":[],"outputs":[{"name":"","type":"uint8","internalType":"uint8"}],"stateMutability":"view"},{"type":"function","name":"delegate","inputs":[{"name":"delegatee","type":"address","internalType":"address"}],"outputs":[],"stateMutability":"nonpayable"},{"type":"function","name":"delegates","inputs":[{"name":"","type":"address","internalType":"address"}],"outputs":[{"name":"","type":"address","internalType":"address"}],"stateMutability":"view"},{"type":"function","name":"earlyUnlock","inputs":[],"outputs":[],"stateMutability":"nonpayable"},{"type":"function","name":"extendLock","inputs":[{"name":"newEnd","type":"uint256","internalType":"uint256"}],"outputs":[],"stateMutability":"nonpayable"},{"type":"function","name":"gd","inputs":[],"outputs":[{"name":"","type":"address","internalType":"contract IERC20"}],"stateMutability":"view"},{"type":"function","name":"getPastVotes","inputs":[{"name":"account","type":"address","internalType":"address"},{"name":"timestamp","type":"uint256","internalType":"uint256"}],"outputs":[{"name":"","type":"uint256","internalType":"uint256"}],"stateMutability":"view"},{"type":"function","name":"getVotes","inputs":[{"name":"account","type":"address","internalType":"address"}],"outputs":[{"name":"","type":"uint256","internalType":"uint256"}],"stateMutability":"view"},{"type":"function","name":"increaseLock","inputs":[{"name":"addedAmount","type":"uint256","internalType":"uint256"}],"outputs":[],"stateMutability":"nonpayable"},{"type":"function","name":"lock","inputs":[{"name":"amount","type":"uint256","internalType":"uint256"},{"name":"duration","type":"uint256","internalType":"uint256"}],"outputs":[],"stateMutability":"nonpayable"},{"type":"function","name":"locks","inputs":[{"name":"","type":"address","internalType":"address"}],"outputs":[{"name":"amount","type":"uint128","internalType":"uint128"},{"name":"end","type":"uint128","internalType":"uint128"}],"stateMutability":"view"},{"type":"function","name":"name","inputs":[],"outputs":[{"name":"","type":"string","internalType":"string"}],"stateMutability":"view"},{"type":"function","name":"setUbiTreasury","inputs":[{"name":"_ubiTreasury","type":"address","internalType":"address"}],"outputs":[],"stateMutability":"nonpayable"},{"type":"function","name":"symbol","inputs":[],"outputs":[{"name":"","type":"string","internalType":"string"}],"stateMutability":"view"},{"type":"function","name":"totalLocked","inputs":[],"outputs":[{"name":"","type":"uint256","internalType":"uint256"}],"stateMutability":"view"},{"type":"function","name":"totalVotingPower","inputs":[],"outputs":[{"name":"","type":"uint256","internalType":"uint256"}],"stateMutability":"view"},{"type":"function","name":"ubiTreasury","inputs":[],"outputs":[{"name":"","type":"address","internalType":"address"}],"stateMutability":"view"},{"type":"function","name":"votingPowerOf","inputs":[{"name":"account","type":"address","internalType":"address"}],"outputs":[{"name":"","type":"uint256","internalType":"uint256"}],"stateMutability":"view"},{"type":"function","name":"withdraw","inputs":[],"outputs":[],"stateMutability":"nonpayable"},{"type":"event","name":"DelegateChanged","inputs":[{"name":"delegator","type":"address","indexed":true,"internalType":"address"},{"name":"fromDelegate","type":"address","indexed":true,"internalType":"address"},{"name":"toDelegate","type":"address","indexed":true,"internalType":"address"}],"anonymous":false},{"type":"event","name":"EarlyUnlocked","inputs":[{"name":"user","type":"address","indexed":true,"internalType":"address"},{"name":"received","type":"uint256","indexed":false,"internalType":"uint256"},{"name":"penalty","type":"uint256","indexed":false,"internalType":"uint256"},{"name":"toUBI","type":"uint256","indexed":false,"internalType":"uint256"}],"anonymous":false},{"type":"event","name":"Extended","inputs":[{"name":"user","type":"address","indexed":true,"internalType":"address"},{"name":"newUnlockTime","type":"uint256","indexed":false,"internalType":"uint256"}],"anonymous":false},{"type":"event","name":"Increased","inputs":[{"name":"user","type":"address","indexed":true,"internalType":"address"},{"name":"addedAmount","type":"uint256","indexed":false,"internalType":"uint256"}],"anonymous":false},{"type":"event","name":"Locked","inputs":[{"name":"user","type":"address","indexed":true,"internalType":"address"},{"name":"amount","type":"uint256","indexed":false,"internalType":"uint256"},{"name":"unlockTime","type":"uint256","indexed":false,"internalType":"uint256"}],"anonymous":false},{"type":"event","name":"UbiTreasuryUpdated","inputs":[{"name":"newTreasury","type":"address","indexed":true,"internalType":"address"}],"anonymous":false},{"type":"event","name":"Withdrawn","inputs":[{"name":"user","type":"address","indexed":true,"internalType":"address"},{"name":"amount","type":"uint256","indexed":false,"internalType":"uint256"}],"anonymous":false},{"type":"error","name":"CannotShortenLock","inputs":[]},{"type":"error","name":"LockExpired","inputs":[]},{"type":"error","name":"LockNotExpired","inputs":[]},{"type":"error","name":"LockTooLong","inputs":[]},{"type":"error","name":"LockTooShort","inputs":[]},{"type":"error","name":"NoLock","inputs":[]},{"type":"error","name":"NotAdmin","inputs":[]},{"type":"error","name":"ZeroAmount","inputs":[]}],"bytecode":{"object":"0x60a0346100c457601f61177638819003918201601f19168301916001600160401b038311848410176100c8578084926060946040528339810103126100c457610047816100dc565b906100606040610059602084016100dc565b92016100dc565b6001600160a01b039283166080525f80549284166001600160a01b03199384161790556001805491909316911617905560405161168590816100f1823960805181818161022c0152818161058e01528181610b1601528181610def0152610faa0152f35b5f80fd5b634e487b7160e01b5f52604160045260245ffd5b51906001600160a01b03821682036100c45756fe60806040526004361015610011575f80fd5b5f5f3560e01c806306fdde03146110d457806309f63de6146110b85780631338736f14610ec75780631c5a091414610d26578063313ce56714610d0b5780633a46b1a814610cd15780633ccfd60b14610a155780633ed1f5b7146109f857806344ee3a1c146108bd57806347640f6d146104a8578063568914121461048a578063587cde1e146104495780635c19a95c1461036e5780635de9a1371461032457806361e944f9146102fd57806365a5d5f0146102de578063671b3793146102c357806395d89b411461027f5780639ab24eb01461025b578063a5e598fc14610216578063b95a78df14610197578063bcc3f3bd1461016b578063f851a440146101425763f8764cec14610122575f80fd5b3461013f578060031936011261013f57602060405162093a808152f35b80fd5b503461013f578060031936011261013f576001546040516001600160a01b039091168152602090f35b503461013f57602036600319011261013f57602061018f61018a6111a7565b6112a7565b604051908152f35b503461013f57602036600319011261013f576101b16111a7565b6001546001600160a01b031633036102075781546001600160a01b0319166001600160a01b039190911690811782557fc2c3ef4bf38fcd298154821ff709f996b69b0925d244c318ce9948846bbead3d8280a280f35b637bfa4b9f60e01b8252600482fd5b503461013f578060031936011261013f576040517f00000000000000000000000000000000000000000000000000000000000000006001600160a01b03168152602090f35b503461013f57602036600319011261013f57602061018f61027a6111a7565b611267565b503461013f578060031936011261013f57506102bf6040516102a260408261115b565b60048152631d9951c960e21b60208201526040519182918261117d565b0390f35b503461013f578060031936011261013f57602061018f611218565b503461013f578060031936011261013f576020604051630784ce008152f35b503461013f578060031936011261013f57546040516001600160a01b039091168152602090f35b503461013f57602036600319011261013f5760409081906001600160a01b0361034b6111a7565b168152600260205220548151906001600160801b038116825260801c6020820152f35b503461013f57602036600319011261013f576103886111a7565b338083526004602081815260408086205484875292909152842080546001600160a01b0319166001600160a01b03858116919091179091551691906103cc906112a7565b80610405575b506001600160a01b031690337f3134e8a2e6d97e929a7e54011ea5485d7d196dd5f0ba4d4ef95803e8e3fc257f8480a480f35b610429908361042f575b6001600160a01b0383168552600560205260408520611326565b5f6103d2565b83855260056020526104448160408720611513565b61040f565b503461013f57602036600319011261013f576020906001600160a01b0361046e6111a7565b16815260048252604060018060a01b0391205416604051908152f35b503461013f578060031936011261013f576020600354604051908152f35b503461013f578060031936011261013f57338152600260205260408120546001600160801b0381169081156108ae5760801c42101561089f57610bb88102818104610bb80361088b576127109004610d058102818104610d0514821517156108775761271090049061051a82826111e2565b5061052581846111e2565b9261052f336112a7565b338652600460205260408620546001600160a01b0316816106b1575b50506105679033865260026020528560408120556003546111e2565b60035560405163a9059cbb60e01b8152336004820152602481018490526001600160a01b037f00000000000000000000000000000000000000000000000000000000000000001660208260448189855af19182156106a6578492610689575b5081610608575b5050604051928352602083015260408201527f6c542a1e9735ac902c5166d7d2c26d4b25644dc1b4a2330757d5208cc741283660603392a280f35b855460405163a9059cbb60e01b81526001600160a01b03909116600482015260248101929092526020908290604490829089905af1801561067e5761064f575b82906105cd565b6106709060203d602011610677575b610668818361115b565b8101906111ca565b505f610648565b503d61065e565b6040513d87823e3d90fd5b6106a19060203d60201161067757610668818361115b565b6105c6565b6040513d88823e3d90fd5b865260056020526106c58160408820611513565b600654801580159290610871575f19820182811161085d576106e89060066111ef565b505460301c5b6001600160d01b0316908082111561085457610709916111e2565b915b80610810575b15610771575f19810190811161075d5761056792916107346107569260066111ef565b50805465ffffffffffff1660309290921b65ffffffffffff1916919091179055565b905f61054b565b634e487b7160e01b87526011600452602487fd5b906040519161077f8361112b565b4265ffffffffffff1683526001600160d01b039091166020830190815290600160401b8110156107fc578060016107bb920160065560066111ef565b9290926107e85751905160301b65ffffffffffff191665ffffffffffff9190911617905561056790610756565b634e487b7160e01b88526004889052602488fd5b634e487b7160e01b88526041600452602488fd5b505f1981018181116108405761082e65ffffffffffff9160066111ef565b50541665ffffffffffff421614610711565b634e487b7160e01b88526011600452602488fd5b5050869161070b565b634e487b7160e01b89526011600452602489fd5b876106ee565b634e487b7160e01b84526011600452602484fd5b634e487b7160e01b83526011600452602483fd5b6307b7d7dd60e51b8252600482fd5b63ba112c9360e01b8352600483fd5b503461013f57602036600319011261013f5760043533825260026020526040822080546001600160801b038116156109e95760801c8211156109da57630784ce0042018042116108775782116109cb57610939610919336112a7565b82546001600160801b0316608085901b6001600160801b03191617909255565b610942336112a7565b90338452600460205260018060a01b0360408520541690808311610993575b5050506040519081527fa29fc12cda82ff659de006abb10fa5ee256d922af1661e395e5f2fb6b004387e60203392a280f35b6109c3926109be92865260056020526109b9604087206109b384846111e2565b90611326565b6111e2565b611443565b5f8080610961565b63d6946a4360e01b8352600483fd5b634421098d60e11b8352600483fd5b63ba112c9360e01b8452600484fd5b503461013f578060031936011261013f576020604051610d058152f35b5034610ccd575f366003190112610ccd57335f52600260205260405f20546001600160801b038116908115610cbe5760801c4210610caf57335f52600460205260018060a01b0360405f2054165f52600560205260405f20805480151591825f14610ca9575f198201828111610c9557610a8f90826111ef565b505460301c5b6001600160d01b0316948515610c8c57505f94925b80610c49575b15610baf575f198201918211610b9b57610ace9291610734916111ef565b3382526002602052816040812055610ae8816003546111e2565b60035560405163a9059cbb60e01b815233600482015260248101829052602081604481866001600160a01b037f0000000000000000000000000000000000000000000000000000000000000000165af18015610b9057610b73575b506040519081527f7084f5476618d8e60b11ef0d7d3f06914655adb8793e28ff7f018d4c76d505d560203392a280f35b610b8b9060203d60201161067757610668818361115b565b610b43565b6040513d85823e3d90fd5b634e487b7160e01b85526011600452602485fd5b919060405192610bbe8461112b565b4265ffffffffffff1684526001600160d01b039092166020840190815291600160401b821015610c355790610bf8916001820181556111ef565b929092610c215751905160301b65ffffffffffff191665ffffffffffff91909116179055610ace565b634e487b7160e01b85526004859052602485fd5b634e487b7160e01b86526041600452602486fd5b505f198201828111610c7857610c6665ffffffffffff91836111ef565b50541665ffffffffffff421614610ab0565b634e487b7160e01b86526011600452602486fd5b94505f92610aaa565b634e487b7160e01b5f52601160045260245ffd5b5f610a95565b63342ad40160e11b5f5260045ffd5b63ba112c9360e01b5f5260045ffd5b5f80fd5b34610ccd576040366003190112610ccd576001600160a01b03610cf26111a7565b165f526005602052602061018f60243560405f20611588565b34610ccd575f366003190112610ccd57602060405160128152f35b34610ccd576020366003190112610ccd576004358015610eb857335f52600260205260405f208054906001600160801b038216918215610cbe5760801c421015610ea957610d73336112a7565b916001600160801b038416016001600160801b038111610c95576001600160801b03166001600160801b0319825416179055610db1826003546111bd565b600355610dbd336112a7565b6040516323b872dd60e01b815233600482015230602482015260448101849052916020836064815f6001600160a01b037f0000000000000000000000000000000000000000000000000000000000000000165af1918215610e9e57610e53936109be93610e81575b50335f52600460205260018060a01b0360405f2054165f5260056020526109b960405f206109b384846111e2565b6040519081527f071c8af8707bfeb7b8186295479bbffcaff15c8cca8e9727046e8b0215c01fcb60203392a2005b610e999060203d60201161067757610668818361115b565b610e25565b6040513d5f823e3d90fd5b6307b7d7dd60e51b5f5260045ffd5b631f2a200560e01b5f5260045ffd5b34610ccd576040366003190112610ccd576004356024358115610eb85762093a8081106110a957630784ce00811161109a57335f5260026020526001600160801b0360405f205416610caf57610f1d90426111bd565b610f6a604051610f2c8161112b565b6001600160801b0384811682528381166020808401918252335f9081526002909152604090209251905160801b6001600160801b0319169116179055565b610f76826003546111bd565b6003556040516323b872dd60e01b8152336004820152306024820152604481018390526020816064815f6001600160a01b037f0000000000000000000000000000000000000000000000000000000000000000165af18015610e9e5761107d575b50335f908152600460205260409020546001600160a01b03168015611059575b6001600160a01b03165f90815260056020526040902061101a906109b3336112a7565b6110266109be336112a7565b60405191825260208201527fd4665e3049283582ba6f9eba07a5b3e12dab49e02da99e8927a47af5d134bea560403392a2005b50335f81815260046020526040902080546001600160a01b03191682179055610ff7565b6110959060203d60201161067757610668818361115b565b610fd7565b63d6946a4360e01b5f5260045ffd5b63d400571560e01b5f5260045ffd5b34610ccd575f366003190112610ccd576020604051610bb88152f35b34610ccd575f366003190112610ccd576102bf6040516110f560408261115b565b601881527f566f74652d457363726f77656420476f6f64446f6c6c6172000000000000000060208201526040519182918261117d565b6040810190811067ffffffffffffffff82111761114757604052565b634e487b7160e01b5f52604160045260245ffd5b90601f8019910116810190811067ffffffffffffffff82111761114757604052565b602060409281835280519182918282860152018484015e5f828201840152601f01601f1916010190565b600435906001600160a01b0382168203610ccd57565b91908201809211610c9557565b90816020910312610ccd57518015158103610ccd5790565b91908203918211610c9557565b8054821015611204575f5260205f2001905f90565b634e487b7160e01b5f52603260045260245ffd5b6006548015611262575f198101818111610c955760065411156112045760065f527ff652222313e28459528d920b65115c16c04f3efc82aaedc97be59f3f377c0d3e015460301c90565b505f90565b6001600160a01b03165f908152600560205260409020805480156112a1575f198101908111610c9557611299916111ef565b505460301c90565b50505f90565b60018060a01b03165f52600260205260405f20604051906112c78261112b565b546001600160801b0381169081835260801c9081602084015215801561131c575b6112a1576112ff6001600160801b039142906111e2565b915116818102918183041490151715610c9557630784ce00900490565b50804210156112e8565b80549182158015929190611439575f19840190848211610c955761134d61136192846111ef565b505460301c5b6001600160d01b03166111bd565b918061140a575b15611387575f198301928311610c955761138592610734916111ef565b565b604051926113948461112b565b4265ffffffffffff1684526001600160d01b039092166020840190815291600160401b811015611147576113cd916001820181556111ef565b9190916113f7579151915160301b65ffffffffffff191665ffffffffffff92909216919091179055565b634e487b7160e01b5f525f60045260245ffd5b505f198301838111610c955761142765ffffffffffff91836111ef565b50541665ffffffffffff421614611368565b611361905f611353565b60065490811580159190611509575f19830190838211610c955761134d61146b9260066111ef565b90806114d9575b15611490575f198201918211610c95576107346113859260066111ef565b6040519161149d8361112b565b4265ffffffffffff1683526001600160d01b039091166020830190815290600160401b811015611147578060016113cd920160065560066111ef565b505f198201828111610c95576114f765ffffffffffff9160066111ef565b50541665ffffffffffff421614611472565b61146b905f611353565b80549182158015929190611582575f198401848111610c955761153690836111ef565b505460301c5b6001600160d01b0316908082111561157957611361916111e2565b8061140a5715611387575f198301928311610c955761138592610734916111ef565b50505f91611557565b5f61153c565b90815490811561163c575f198201828111610c95578165ffffffffffff6115af83876111ef565b5054161115611643575082541561120457825f528065ffffffffffff60205f2054161161163c575f91905b8183106115f75750505f198101908111610c9557611299916111ef565b909161160383826111bd565b60011c908265ffffffffffff61161984886111ef565b50541611611635575060018101809111610c9557915b906115da565b925061162f565b5050505f90565b915050611299916111ef56fea26469706673582212201f1a6aec6c2a3bbaf0c16303d819baf8de3526a8ac95478b575c11b9ccfbeec364736f6c63430008210033","linkReferences":{}},"methodIdentifiers":{"EARLY_UNLOCK_PENALTY_BPS()":"09f63de6","MAX_LOCK()":"65a5d5f0","MIN_LOCK()":"f8764cec","UBI_PENALTY_SHARE_BPS()":"3ed1f5b7","admin()":"f851a440","decimals()":"313ce567","delegate(address)":"5c19a95c","delegates(address)":"587cde1e","earlyUnlock()":"47640f6d","extendLock(uint256)":"44ee3a1c","gd()":"a5e598fc","getPastVotes(address,uint256)":"3a46b1a8","getVotes(address)":"9ab24eb0","increaseLock(uint256)":"1c5a0914","lock(uint256,uint256)":"1338736f","locks(address)":"5de9a137","name()":"06fdde03","setUbiTreasury(address)":"b95a78df","symbol()":"95d89b41","totalLocked()":"56891412","totalVotingPower()":"671b3793","ubiTreasury()":"61e944f9","votingPowerOf(address)":"bcc3f3bd","withdraw()":"3ccfd60b"},"id":20}