{"abi":[{"type":"constructor","inputs":[{"name":"_admin","type":"address","internalType":"address"}],"stateMutability":"nonpayable"},{"type":"function","name":"admin","inputs":[],"outputs":[{"name":"","type":"address","internalType":"address"}],"stateMutability":"view"},{"type":"function","name":"assets","inputs":[{"name":"","type":"bytes32","internalType":"bytes32"}],"outputs":[{"name":"","type":"address","internalType":"address"}],"stateMutability":"view"},{"type":"function","name":"delistAsset","inputs":[{"name":"ticker","type":"string","internalType":"string"}],"outputs":[],"stateMutability":"nonpayable"},{"type":"function","name":"getAsset","inputs":[{"name":"ticker","type":"string","internalType":"string"}],"outputs":[{"name":"","type":"address","internalType":"address"}],"stateMutability":"view"},{"type":"function","name":"implementation","inputs":[],"outputs":[{"name":"","type":"address","internalType":"address"}],"stateMutability":"view"},{"type":"function","name":"keyToTicker","inputs":[{"name":"","type":"bytes32","internalType":"bytes32"}],"outputs":[{"name":"","type":"string","internalType":"string"}],"stateMutability":"view"},{"type":"function","name":"listAsset","inputs":[{"name":"ticker","type":"string","internalType":"string"},{"name":"assetName","type":"string","internalType":"string"},{"name":"vault","type":"address","internalType":"address"}],"outputs":[{"name":"asset","type":"address","internalType":"address"}],"stateMutability":"nonpayable"},{"type":"function","name":"listedCount","inputs":[],"outputs":[{"name":"","type":"uint256","internalType":"uint256"}],"stateMutability":"view"},{"type":"function","name":"listedKeys","inputs":[{"name":"","type":"uint256","internalType":"uint256"}],"outputs":[{"name":"","type":"bytes32","internalType":"bytes32"}],"stateMutability":"view"},{"type":"function","name":"setAdmin","inputs":[{"name":"newAdmin","type":"address","internalType":"address"}],"outputs":[],"stateMutability":"nonpayable"},{"type":"event","name":"AssetDelisted","inputs":[{"name":"ticker","type":"string","indexed":true,"internalType":"string"},{"name":"asset","type":"address","indexed":false,"internalType":"address"}],"anonymous":false},{"type":"event","name":"AssetListed","inputs":[{"name":"ticker","type":"string","indexed":true,"internalType":"string"},{"name":"asset","type":"address","indexed":false,"internalType":"address"},{"name":"vault","type":"address","indexed":false,"internalType":"address"}],"anonymous":false},{"type":"error","name":"AlreadyListed","inputs":[{"name":"ticker","type":"string","internalType":"string"}]},{"type":"error","name":"CloneFailed","inputs":[]},{"type":"error","name":"NotAdmin","inputs":[]},{"type":"error","name":"NotListed","inputs":[{"name":"ticker","type":"string","internalType":"string"}]},{"type":"error","name":"ZeroAddress","inputs":[]}],"bytecode":{"object":"0x60a03461011257601f611a7538819003918201601f19168301916001600160401b038311848410176100ef5780849260209460405283398101031261011257516001600160a01b03811690819003610112578015610103575f80546001600160a01b031916919091179055604051610efd808201906001600160401b038211838310176100ef5760a0918391610b788339606081525f6060820152608060208201525f6080820152600160408201520301905ff080156100e4576001600160a01b0316608052604051610a6190816101178239608051818181610266015261062c0152f35b6040513d5f823e3d90fd5b634e487b7160e01b5f52604160045260245ffd5b63d92e233d60e01b5f5260045ffd5b5f80fdfe6080806040526004361015610012575f80fd5b5f905f3560e01c9081630b2262c61461081d575080630f56add41461065b5780635c60da1b14610617578063704b6c02146105ca5780639b7fd1541461019d5780639fda5b661461016a578063ccceb56914610130578063cd5286d0146100d3578063f36065b3146100b55763f851a4401461008c575f80fd5b346100b257806003193601126100b257546040516001600160a01b039091168152602090f35b80fd5b50346100b257806003193601126100b2576020600254604051908152f35b50346100b25760203660031901126100b25760043567ffffffffffffffff811161012c579061011161010b6020933690600401610983565b906109fd565b815260018252604060018060a01b0391205416604051908152f35b5080fd5b50346100b25760203660031901126100b257600435906002548210156100b257602061015b836109b1565b90549060031b1c604051908152f35b50346100b25760203660031901126100b257602090600435815260018252604060018060a01b0391205416604051908152f35b50346105725760603660031901126105725760043567ffffffffffffffff8111610572576101cf903690600401610983565b60243567ffffffffffffffff8111610572576101ef903690600401610983565b90926044356001600160a01b038116939290849003610572575f546001600160a01b031633036105bb5783156105ac5761022983836109fd565b5f818152600160205260409020549091906001600160a01b031661058557604051733d602d80600a3d3981f3363d3d373d3d3d363d7360601b81527f000000000000000000000000000000000000000000000000000000000000000060601b60148201526e5af43d82803e903d91602b57fd5bf360881b60288201526001600160a01b03906037905ff0169586156105765760405190607360f81b6020830152858560218401376102ed6021838881015f838201520301601f198101845283610929565b873b1561057257610320926103325f9360405195869485946303bf912560e11b86526060600487015260648601916109dd565b8381036003190160248501529061095f565b8860448301520381838a5af1801561056757610552575b5080865260016020526040862080546001600160a01b031916861790556002546801000000000000000081101561053e576103a461038e8260018594016002556109b1565b819391549060031b91821b915f19901b19161790565b9055855260036020526040852067ffffffffffffffff831161052a576103ca81546108f1565b95601f87116104da575b6020965080601f8511600114610455579184604094927fe5f9c5663822b3882e2fa8f5fcbc56db18ccc15ec0ad63010c1e27bff6eb926996949161044a575b508360011b905f198560031b1c19161790555b818351928392833781015f81520390209281519085825286820152a2604051908152f35b90508201355f610413565b90601f198516838352888320925b8181106104c35750918593917fe5f9c5663822b3882e2fa8f5fcbc56db18ccc15ec0ad63010c1e27bff6eb92699660409694106104aa575b5050600183811b019055610426565b8301355f19600386901b60f8161c191690555f8061049b565b919289600181928689013581550194019201610463565b838711156103d45781815260208120601f850160051c9060208610610522575b810197601f0160051c03815b8181106105145750506103d4565b60019083818b015501610506565b8291506104fa565b634e487b7160e01b86526041600452602486fd5b634e487b7160e01b87526041600452602487fd5b61055f9196505f90610929565b5f945f610349565b6040513d5f823e3d90fd5b5f80fd5b6342bcb05b60e11b5f5260045ffd5b604051630fd208c960e11b815260206004820152806105a86024820187876109dd565b0390fd5b63d92e233d60e01b5f5260045ffd5b637bfa4b9f60e01b5f5260045ffd5b34610572576020366003190112610572576004356001600160a01b03811690819003610572575f546001600160a01b03811633036105bb5781156105ac576001600160a01b031916175f55005b34610572575f366003190112610572576040517f00000000000000000000000000000000000000000000000000000000000000006001600160a01b03168152602090f35b346105725760203660031901126105725760043567ffffffffffffffff81116105725761068c903690600401610983565b5f546001600160a01b031633036105bb576106a781836109fd565b5f818152600160205260409020546001600160a01b0316929083156107f7575f81815260016020526040812080546001600160a01b0319169055600254905b81811061072f575b857f5bfa22150d2c3165c86da018685d9bd9dea01a28670324e4b6055b7b1edfde0d6020878781604051928392833781015f815203902092604051908152a2005b82610739826109b1565b90549060031b1c1461074d576001016106e6565b92939291505f1981019081116107e35761038e61076c610779926109b1565b90549060031b1c926109b1565b90556002549081156107cf577f5bfa22150d2c3165c86da018685d9bd9dea01a28670324e4b6055b7b1edfde0d926020925f19016107b6816109b1565b8154905f199060031b1b191690556002559181936106ee565b634e487b7160e01b5f52603160045260245ffd5b634e487b7160e01b5f52601160045260245ffd5b5060405163654c681360e11b8152602060048201529182916105a89160248401916109dd565b34610572576020366003190112610572576004355f52600360205260405f205f9080549061084a826108f1565b80855291600181169081156108ca575060011461088a575b6108868461087281860382610929565b60405191829160208352602083019061095f565b0390f35b5f90815260208120939250905b8082106108b05750909150810160200161087282610862565b919260018160209254838588010152019101909291610897565b60ff191660208087019190915292151560051b850190920192506108729150839050610862565b90600182811c9216801561091f575b602083101461090b57565b634e487b7160e01b5f52602260045260245ffd5b91607f1691610900565b90601f8019910116810190811067ffffffffffffffff82111761094b57604052565b634e487b7160e01b5f52604160045260245ffd5b805180835260209291819084018484015e5f828201840152601f01601f1916010190565b9181601f840112156105725782359167ffffffffffffffff8311610572576020838186019501011161057257565b6002548110156109c95760025f5260205f2001905f90565b634e487b7160e01b5f52603260045260245ffd5b908060209392818452848401375f828201840152601f01601f1916010190565b90610a25602060405183819483830196873781015f838201520301601f198101835282610929565b5190209056fea2646970667358221220db4bf2f471d67180f636ba5956c234e88d0534f6eeb340b2e97023eae43641a064736f6c6343000821003360806040523461036657610efd803803806100198161036a565b9283398101906060818303126103665780516001600160401b038111610366578261004591830161038f565b60208201519092906001600160401b0381116103665760409161006991840161038f565b9101516001600160a01b038116908190036103665780156103575782516001600160401b038111610260575f54600181811c9116801561034d575b602082101461024257601f81116102e0575b506020601f821160011461027f57819293945f92610274575b50508160011b915f199060031b1c1916175f555b81516001600160401b03811161026057600154600181811c91168015610256575b602082101461024257601f81116101d4575b50602092601f821160011461017357928192935f92610168575b50508160011b915f199060031b1c1916176001555b600580546001600160a01b031916919091179055604051610b1c90816103e18239f35b015190505f80610130565b601f1982169360015f52805f20915f5b8681106101bc57508360019596106101a4575b505050811b01600155610145565b01515f1960f88460031b161c191690555f8080610196565b91926020600181928685015181550194019201610183565b818111156101165760015f52601f820160051c7fb10e2d527612073b26eecdfd717e6a320cf44b4afac2b0732d9fcbe2b7fa0cf66020841061023a575b81601f9101920160051c03905f5b82811061022d575050610116565b5f8282015560010161021f565b5f9150610211565b634e487b7160e01b5f52602260045260245ffd5b90607f1690610104565b634e487b7160e01b5f52604160045260245ffd5b015190505f806100cf565b601f198216905f8052805f20915f5b8181106102c8575095836001959697106102b0575b505050811b015f556100e3565b01515f1960f88460031b161c191690555f80806102a3565b9192602060018192868b01518155019401920161028e565b818111156100b6575f8052601f820160051c7f290decd9548b62a8d60345a988386fc84ba6bc95484008f6362f93160ef3e56360208410610345575b81601f9101920160051c03905f5b8281106103385750506100b6565b5f8282015560010161032a565b5f915061031c565b90607f16906100a4565b63d92e233d60e01b5f5260045ffd5b5f80fd5b6040519190601f01601f191682016001600160401b0381118382101761026057604052565b81601f82011215610366578051906001600160401b038211610260576103be601f8301601f191660200161036a565b928284526020838301011161036657815f9260208093018386015e830101529056fe60806040526004361015610011575f80fd5b5f3560e01c806306fdde03146108f057806307546172146108c8578063077f224a1461057a578063095ea7b31461050157806318160ddd146104e457806323b872dd146103e9578063313ce567146103ce57806340c10f191461035e57806370a082311461032657806395d89b411461024c5780639dc29fac146101ae578063a9059cbb146100fc5763dd62ed3e146100a8575f80fd5b346100f85760403660031901126100f8576100c1610a6c565b6100c9610a82565b6001600160a01b039182165f908152600460209081526040808320949093168252928352819020549051908152f35b5f80fd5b346100f85760403660031901126100f857610115610a6c565b6001600160a01b0316602435811561019f57335f5260036020528060405f20541061019057335f52600360205260405f20610151828254610a98565b9055815f52600360205260405f2061016a828254610ab9565b90556040519081525f516020610ac75f395f51905f5260203392a3602060405160018152f35b631e9acf1760e31b5f5260045ffd5b63d92e233d60e01b5f5260045ffd5b346100f85760403660031901126100f8576101c7610a6c565b60055460243591906001600160a01b0316330361023d576001600160a01b03165f818152600360205260409020548211610190575f516020610ac75f395f51905f526020836102195f95600254610a98565b6002558385526003825260408520610232828254610a98565b9055604051908152a3005b633e34a41b60e21b5f5260045ffd5b346100f8575f3660031901126100f8576040515f60015461026c81610992565b808452906001811690811561030257506001146102a4575b6102a083610294818503826109ca565b604051918291826109ec565b0390f35b60015f9081527fb10e2d527612073b26eecdfd717e6a320cf44b4afac2b0732d9fcbe2b7fa0cf6939250905b8082106102e857509091508101602001610294610284565b9192600181602092548385880101520191019092916102d0565b60ff191660208086019190915291151560051b840190910191506102949050610284565b346100f85760203660031901126100f8576001600160a01b03610347610a6c565b165f526003602052602060405f2054604051908152f35b346100f85760403660031901126100f857610377610a6c565b60055460243591906001600160a01b0316330361023d575f516020610ac75f395f51905f5260205f926103ac85600254610ab9565b60025560018060a01b0316938484526003825260408420610232828254610ab9565b346100f8575f3660031901126100f857602060405160128152f35b346100f85760603660031901126100f857610402610a6c565b61040a610a82565b6001600160a01b03169060443590821561019f5760018060a01b031690815f5260036020528060405f205410610190575f82815260046020908152604080832033845290915290205481116104d55760205f516020610ac75f395f51905f5291835f526004825260405f2060018060a01b0333165f52825260405f20610491828254610a98565b9055835f526003825260405f206104a9828254610a98565b9055845f526003825260405f206104c1828254610ab9565b9055604051908152a3602060405160018152f35b6313be252b60e01b5f5260045ffd5b346100f8575f3660031901126100f8576020600254604051908152f35b346100f85760403660031901126100f85761051a610a6c565b335f8181526004602090815260408083206001600160a01b03909516808452948252918290206024359081905591519182527f8c5be1e5ebec7d5bd14f71427d1e84f3dd0314c0f7b2291e5b200ac8c7c3b92591a3602060405160018152f35b346100f85760603660031901126100f85760043567ffffffffffffffff81116100f8576105ab903690600401610a16565b60243567ffffffffffffffff81116100f8576105cb903690600401610a16565b6044356001600160a01b038116908190036100f8576005546001600160a01b03166108ba57801561019f57825167ffffffffffffffff81116107af576106115f54610992565b601f811161084d575b506020601f82116001146107ce57819293945f926107c3575b50508160011b915f199060031b1c1916175f555b815167ffffffffffffffff81116107af57610663600154610992565b601f8111610741575b50602092601f82116001146106c257928192935f926106b7575b50508160011b915f199060031b1c1916176001555b6bffffffffffffffffffffffff60a01b60055416176005555f80f35b015190508380610686565b601f1982169360015f527fb10e2d527612073b26eecdfd717e6a320cf44b4afac2b0732d9fcbe2b7fa0cf6915f5b8681106107295750836001959610610711575b505050811b0160015561069b565b01515f1960f88460031b161c19169055838080610703565b919260206001819286850151815501940192016106f0565b8181111561066c5760015f52601f820160051c90602083106107a7575b601f82910160051c03905f5b82811061077857505061066c565b5f8282017fb10e2d527612073b26eecdfd717e6a320cf44b4afac2b0732d9fcbe2b7fa0cf6015560010161076a565b5f915061075e565b634e487b7160e01b5f52604160045260245ffd5b015190508480610633565b601f198216905f80527f290decd9548b62a8d60345a988386fc84ba6bc95484008f6362f93160ef3e563915f5b8181106108355750958360019596971061081d575b505050811b015f55610647565b01515f1960f88460031b161c19169055848080610810565b9192602060018192868b0151815501940192016107fb565b8181111561061a575f8052601f820160051c90602083106108b2575b601f82910160051c03905f5b82811061088357505061061a565b5f8282017f290decd9548b62a8d60345a988386fc84ba6bc95484008f6362f93160ef3e5630155600101610875565b5f9150610869565b62dc149f60e41b5f5260045ffd5b346100f8575f3660031901126100f8576005546040516001600160a01b039091168152602090f35b346100f8575f3660031901126100f8576040515f5f5461090f81610992565b80845290600181169081156103025750600114610936576102a083610294818503826109ca565b5f8080527f290decd9548b62a8d60345a988386fc84ba6bc95484008f6362f93160ef3e563939250905b80821061097857509091508101602001610294610284565b919260018160209254838588010152019101909291610960565b90600182811c921680156109c0575b60208310146109ac57565b634e487b7160e01b5f52602260045260245ffd5b91607f16916109a1565b90601f8019910116810190811067ffffffffffffffff8211176107af57604052565b602060409281835280519182918282860152018484015e5f828201840152601f01601f1916010190565b81601f820112156100f85780359067ffffffffffffffff82116107af5760405192610a4b601f8401601f1916602001856109ca565b828452602083830101116100f857815f926020809301838601378301015290565b600435906001600160a01b03821682036100f857565b602435906001600160a01b03821682036100f857565b91908203918211610aa557565b634e487b7160e01b5f52601160045260245ffd5b91908201809211610aa55756feddf252ad1be2c89b69c2b068fc378daa952ba7f163c4a11628f55a4df523b3efa2646970667358221220f80a095582e5e49e1985850c61f67ffa9ae719fd65ba650512c68ed92e025b9064736f6c63430008210033","linkReferences":{}},"methodIdentifiers":{"admin()":"f851a440","assets(bytes32)":"9fda5b66","delistAsset(string)":"0f56add4","getAsset(string)":"cd5286d0","implementation()":"5c60da1b","keyToTicker(bytes32)":"0b2262c6","listAsset(string,string,address)":"9b7fd154","listedCount()":"f36065b3","listedKeys(uint256)":"ccceb569","setAdmin(address)":"704b6c02"},"id":46}