{"abi":[{"type":"constructor","inputs":[{"name":"_goodDollar","type":"address","internalType":"address"},{"name":"_treasury","type":"address","internalType":"address"},{"name":"_admin","type":"address","internalType":"address"}],"stateMutability":"nonpayable"},{"type":"function","name":"activeLiquidators","inputs":[{"name":"","type":"uint256","internalType":"uint256"}],"outputs":[{"name":"","type":"address","internalType":"address"}],"stateMutability":"view"},{"type":"function","name":"admin","inputs":[],"outputs":[{"name":"","type":"address","internalType":"address"}],"stateMutability":"view"},{"type":"function","name":"dailyDerivativesUBI","inputs":[],"outputs":[{"name":"","type":"uint256","internalType":"uint256"}],"stateMutability":"view"},{"type":"function","name":"getActiveLiquidatorsCount","inputs":[],"outputs":[{"name":"","type":"uint256","internalType":"uint256"}],"stateMutability":"view"},{"type":"function","name":"getDerivativesSocialImpactRate","inputs":[],"outputs":[{"name":"","type":"uint256","internalType":"uint256"}],"stateMutability":"view"},{"type":"function","name":"getMonthlyUBIEstimate","inputs":[],"outputs":[{"name":"estimated","type":"uint256","internalType":"uint256"},{"name":"target","type":"uint256","internalType":"uint256"},{"name":"progress","type":"uint256","internalType":"uint256"}],"stateMutability":"view"},{"type":"function","name":"getPerpsUBIStats","inputs":[],"outputs":[{"name":"tradingFees","type":"uint256","internalType":"uint256"},{"name":"fundingFees","type":"uint256","internalType":"uint256"},{"name":"liquidationFees","type":"uint256","internalType":"uint256"},{"name":"ubiFromTrading","type":"uint256","internalType":"uint256"},{"name":"ubiFromFunding","type":"uint256","internalType":"uint256"},{"name":"ubiFromLiquidations","type":"uint256","internalType":"uint256"},{"name":"totalUBI","type":"uint256","internalType":"uint256"}],"stateMutability":"view"},{"type":"function","name":"getTodayDerivativesImpact","inputs":[],"outputs":[{"name":"currentDay","type":"uint256","internalType":"uint256"},{"name":"ubiAmount","type":"uint256","internalType":"uint256"}],"stateMutability":"view"},{"type":"function","name":"getTopLiquidators","inputs":[{"name":"limit","type":"uint256","internalType":"uint256"}],"outputs":[{"name":"liquidators","type":"address[]","internalType":"address[]"},{"name":"contributions","type":"uint256[]","internalType":"uint256[]"}],"stateMutability":"view"},{"type":"function","name":"goodDollar","inputs":[],"outputs":[{"name":"","type":"address","internalType":"address"}],"stateMutability":"view"},{"type":"function","name":"goodDollarToken","inputs":[],"outputs":[{"name":"","type":"address","internalType":"contract IGoodDollarToken"}],"stateMutability":"view"},{"type":"function","name":"lastDayTimestamp","inputs":[],"outputs":[{"name":"","type":"uint256","internalType":"uint256"}],"stateMutability":"view"},{"type":"function","name":"liquidatorContributions","inputs":[{"name":"","type":"address","internalType":"address"}],"outputs":[{"name":"","type":"uint256","internalType":"uint256"}],"stateMutability":"view"},{"type":"function","name":"marketMakerContributions","inputs":[{"name":"","type":"address","internalType":"address"}],"outputs":[{"name":"","type":"uint256","internalType":"uint256"}],"stateMutability":"view"},{"type":"function","name":"monthlyTargetUBI","inputs":[],"outputs":[{"name":"","type":"uint256","internalType":"uint256"}],"stateMutability":"view"},{"type":"function","name":"protocolBPS","inputs":[],"outputs":[{"name":"","type":"uint256","internalType":"uint256"}],"stateMutability":"view"},{"type":"function","name":"protocolTreasury","inputs":[],"outputs":[{"name":"","type":"address","internalType":"address"}],"stateMutability":"view"},{"type":"function","name":"setFeeSplit","inputs":[{"name":"_ubiBPS","type":"uint256","internalType":"uint256"},{"name":"_protocolBPS","type":"uint256","internalType":"uint256"}],"outputs":[],"stateMutability":"nonpayable"},{"type":"function","name":"setGoodDollar","inputs":[{"name":"_goodDollar","type":"address","internalType":"address"}],"outputs":[],"stateMutability":"nonpayable"},{"type":"function","name":"setMonthlyTarget","inputs":[{"name":"_target","type":"uint256","internalType":"uint256"}],"outputs":[],"stateMutability":"nonpayable"},{"type":"function","name":"setTreasury","inputs":[{"name":"_treasury","type":"address","internalType":"address"}],"outputs":[],"stateMutability":"nonpayable"},{"type":"function","name":"splitFee","inputs":[{"name":"totalFee","type":"uint256","internalType":"uint256"},{"name":"dAppRecipient","type":"address","internalType":"address"}],"outputs":[{"name":"ubiShare","type":"uint256","internalType":"uint256"},{"name":"protocolShare","type":"uint256","internalType":"uint256"},{"name":"dAppShare","type":"uint256","internalType":"uint256"}],"stateMutability":"nonpayable"},{"type":"function","name":"splitFundingFee","inputs":[{"name":"totalFee","type":"uint256","internalType":"uint256"},{"name":"dAppRecipient","type":"address","internalType":"address"},{"name":"marketId","type":"uint256","internalType":"uint256"}],"outputs":[{"name":"ubiShare","type":"uint256","internalType":"uint256"},{"name":"protocolShare","type":"uint256","internalType":"uint256"},{"name":"dAppShare","type":"uint256","internalType":"uint256"}],"stateMutability":"nonpayable"},{"type":"function","name":"splitLiquidationFee","inputs":[{"name":"totalFee","type":"uint256","internalType":"uint256"},{"name":"dAppRecipient","type":"address","internalType":"address"},{"name":"liquidator","type":"address","internalType":"address"},{"name":"liquidatedTrader","type":"address","internalType":"address"}],"outputs":[{"name":"ubiShare","type":"uint256","internalType":"uint256"},{"name":"protocolShare","type":"uint256","internalType":"uint256"},{"name":"dAppShare","type":"uint256","internalType":"uint256"}],"stateMutability":"nonpayable"},{"type":"function","name":"splitTradingFee","inputs":[{"name":"totalFee","type":"uint256","internalType":"uint256"},{"name":"dAppRecipient","type":"address","internalType":"address"},{"name":"trader","type":"address","internalType":"address"},{"name":"marketId","type":"uint256","internalType":"uint256"},{"name":"positionSize","type":"uint256","internalType":"uint256"}],"outputs":[{"name":"ubiShare","type":"uint256","internalType":"uint256"},{"name":"protocolShare","type":"uint256","internalType":"uint256"},{"name":"dAppShare","type":"uint256","internalType":"uint256"}],"stateMutability":"nonpayable"},{"type":"function","name":"totalFundingFees","inputs":[],"outputs":[{"name":"","type":"uint256","internalType":"uint256"}],"stateMutability":"view"},{"type":"function","name":"totalLiquidationFees","inputs":[],"outputs":[{"name":"","type":"uint256","internalType":"uint256"}],"stateMutability":"view"},{"type":"function","name":"totalTradingFees","inputs":[],"outputs":[{"name":"","type":"uint256","internalType":"uint256"}],"stateMutability":"view"},{"type":"function","name":"totalUBIFromFunding","inputs":[],"outputs":[{"name":"","type":"uint256","internalType":"uint256"}],"stateMutability":"view"},{"type":"function","name":"totalUBIFromLiquidations","inputs":[],"outputs":[{"name":"","type":"uint256","internalType":"uint256"}],"stateMutability":"view"},{"type":"function","name":"totalUBIFromTrading","inputs":[],"outputs":[{"name":"","type":"uint256","internalType":"uint256"}],"stateMutability":"view"},{"type":"function","name":"ubiBPS","inputs":[],"outputs":[{"name":"","type":"uint256","internalType":"uint256"}],"stateMutability":"view"},{"type":"event","name":"DailyDerivativesImpact","inputs":[{"name":"date","type":"uint256","indexed":false,"internalType":"uint256"},{"name":"ubiAmount","type":"uint256","indexed":false,"internalType":"uint256"}],"anonymous":false},{"type":"event","name":"FeeSplit","inputs":[{"name":"source","type":"address","indexed":true,"internalType":"address"},{"name":"feeType","type":"string","indexed":true,"internalType":"string"},{"name":"totalFee","type":"uint256","indexed":false,"internalType":"uint256"},{"name":"ubiShare","type":"uint256","indexed":false,"internalType":"uint256"},{"name":"protocolShare","type":"uint256","indexed":false,"internalType":"uint256"},{"name":"dAppShare","type":"uint256","indexed":false,"internalType":"uint256"}],"anonymous":false},{"type":"event","name":"FundingFeeSplit","inputs":[{"name":"marketId","type":"uint256","indexed":true,"internalType":"uint256"},{"name":"fundingAmount","type":"uint256","indexed":false,"internalType":"uint256"},{"name":"ubiShare","type":"uint256","indexed":false,"internalType":"uint256"}],"anonymous":false},{"type":"event","name":"LiquidationUBI","inputs":[{"name":"liquidator","type":"address","indexed":true,"internalType":"address"},{"name":"liquidatedTrader","type":"address","indexed":true,"internalType":"address"},{"name":"liquidationBonus","type":"uint256","indexed":false,"internalType":"uint256"},{"name":"ubiShare","type":"uint256","indexed":false,"internalType":"uint256"}],"anonymous":false},{"type":"event","name":"MonthlyTargetUpdated","inputs":[{"name":"oldTarget","type":"uint256","indexed":false,"internalType":"uint256"},{"name":"newTarget","type":"uint256","indexed":false,"internalType":"uint256"}],"anonymous":false},{"type":"event","name":"TradingFeeSplit","inputs":[{"name":"trader","type":"address","indexed":true,"internalType":"address"},{"name":"marketId","type":"uint256","indexed":false,"internalType":"uint256"},{"name":"positionSize","type":"uint256","indexed":false,"internalType":"uint256"},{"name":"ubiShare","type":"uint256","indexed":false,"internalType":"uint256"}],"anonymous":false}],"bytecode":{"object":"0x60803460c557601f61126738819003918201601f19168301916001600160401b0383118484101760c95780849260609460405283398101031260c55760428160dd565b906057604060516020840160dd565b920160dd565b610d0560015561068360025569021e19e0c9bab2400000600d555f80546001600160a01b039485166001600160a01b031991821617909155600380549385169382169390931790925560048054919093169116179055620151804204600c5560405161117690816100f18239f35b5f80fd5b634e487b7160e01b5f52604160045260245ffd5b51906001600160a01b038216820360c55756fe6080806040526004361015610012575f80fd5b5f3560e01c9081630326d75a14610af75750806308ca27bf14610ada5780630bc1325414610a00578063119e5bf31461072157806314dd92a614610889578063207177c71461086257806327da17e71461082a57806328031e8f1461074857806328c026a3146107215780632dacc22a146106c157806349a65938146106a45780634eb8daee146106875780634f9375451461066a57806364d6def91461062657806366521893146106095780637c393cfd146105ec5780637e6335c7146105715780637f1150bf1461054f578063803db96d14610527578063840ad8371461050a57806394b1b1aa1461046f5780639a8c7e7514610452578063b710e39a14610394578063c370bebc14610377578063c698d2a71461033f578063c7888a6d146102e3578063cdea85f7146102c6578063ee897d64146102a9578063ef44e80914610248578063f04cab7214610206578063f0f44260146101a85763f851a4401461017c575f80fd5b346101a4575f3660031901126101a4576004546040516001600160a01b039091168152602090f35b5f80fd5b346101a45760203660031901126101a4576101c1610b11565b6101d660018060a01b03600454163314610fef565b6001600160a01b03166101ea811515611081565b6bffffffffffffffffffffffff60a01b60035416176003555f80f35b346101a45760203660031901126101a4576004356010548110156101a45761022f602091610b53565b905460405160039290921b1c6001600160a01b03168152f35b346101a45760203660031901126101a4577f7099dfe316ad8496795089a037eda8c64e5a6a7e140083ce87c004fc4fdb7bce604060043561029460018060a01b03600454163314610fef565b600d549080600d5582519182526020820152a1005b346101a4575f3660031901126101a4576020600754604051908152f35b346101a4575f3660031901126101a4576020600b54604051908152f35b346101a45760203660031901126101a4576102fc610b11565b61031160018060a01b03600454163314610fef565b6001600160a01b0316610325811515611081565b6bffffffffffffffffffffffff60a01b5f5416175f555f80f35b346101a45760203660031901126101a4576001600160a01b03610360610b11565b165f52600e602052602060405f2054604051908152f35b346101a4575f3660031901126101a4576020600654604051908152f35b346101a45760a03660031901126101a4576004356103d561044e6103b6610b27565b6103c86103c1610b3d565b9185610c44565b9291949095600554610b7f565b6005556103e484600854610b7f565b60085560408051606435815260843560208201529081018590526001600160a01b0391909116907fe51ed7f1055ec8295a7c4d3aa7e1e9c405571a96ec82a20f8bfec8c5301dae3290606090a2604051938493846040919493926060820195825260208201520152565b0390f35b346101a4575f3660031901126101a4576020600854604051908152f35b346101a45760603660031901126101a45761044e600435610497610491610b27565b82610c44565b909391926104a781600654610b7f565b6006556104b684600954610b7f565b6009556040519081528360208201527f85da25fdd17804a960fc18d208d012780f3a5be91b204774c8a1a95e0f7c04d6604060443592a2604051938493846040919493926060820195825260208201520152565b346101a4575f3660031901126101a4576020600a54604051908152f35b346101a4575f3660031901126101a4576003546040516001600160a01b039091168152602090f35b346101a4575f3660031901126101a4576020610569611027565b604051908152f35b346101a45760403660031901126101a4576004356024359061059e60018060a01b03600454163314610fef565b6127106105ab8383610b7f565b116105b857600155600255005b60405162461bcd60e51b815260206004820152600c60248201526b45786365656473203130302560a01b6044820152606490fd5b346101a4575f3660031901126101a4576020600254604051908152f35b346101a4575f3660031901126101a4576020600154604051908152f35b346101a45760403660031901126101a45761044e61064d610645610b27565b600435610c44565b604080519384526020840192909252908201529081906060820190565b346101a4575f3660031901126101a4576020601054604051908152f35b346101a4575f3660031901126101a4576020600954604051908152f35b346101a4575f3660031901126101a4576020600554604051908152f35b346101a4575f3660031901126101a45760e060055460065460075460085460095490600a54926106fa846106f58585610b7f565b610b7f565b94604051968752602087015260408601526060850152608084015260a083015260c0820152f35b346101a4575f3660031901126101a4575f546040516001600160a01b039091168152602090f35b346101a45760803660031901126101a457600435610764610b27565b61076c610b3d565b6064356001600160a01b03811692908390036101a45760409261044e926107b47f08acc47cf71c89e6c22b1d4d5f8ff4534597e3fd3ce984a7c416ffe5cad62d5b9387610c44565b94919690976107c581600754610b7f565b6007556107d488600a54610b7f565b600a5561080160018060a01b03851694855f52600f602052835f206107fa8b8254610b7f565b90556110bc565b8151908152876020820152a3604051938493846040919493926060820195825260208201520152565b346101a45760203660031901126101a4576001600160a01b0361084b610b11565b165f52600f602052602060405f2054604051908152f35b346101a4575f3660031901126101a4576040600b5481519062015180420482526020820152f35b346101a45760203660031901126101a4576010546004358082116109f8575b506108b281610c00565b6108bf6040519182610bca565b8181526108cb82610c00565b602082019290601f19013684376108e181610c00565b926108ef6040519485610bca565b8184526108fb82610c00565b602085019290601f19013684375f5b818110610995575050604051938493604085019060408652518091526060850192905f5b818110610973575050506020908483038286015251918281520191905f5b81811061095a575050500390f35b825184528594506020938401939092019160010161094c565b82516001600160a01b031685528796506020948501949092019160010161092e565b806109a66001929794959697610b53565b838060a01b0391549060031b1c166109be8289610c18565b526109c881610b53565b838060a01b0391549060031b1c165f52600f60205260405f20546109ec8286610c18565b5201949392919461090a565b9050816108a8565b346101a4575f3660031901126101a4575f610a2c610a2360085460095490610b7f565b600a5490610b7f565b610a3d600c54620151804204610baa565b9060018201809211610a995781610ab6575b5050600d54908115610aad5761271081028181046127101482151715610a9957610a7c8361044e92610b8c565b604051938493846040919493926060820195825260208201520152565b634e487b7160e01b5f52601160045260245ffd5b61044e5f610a7c565b610ac09250610b8c565b601e810290808204601e1490151715610a99578180610a4f565b346101a4575f3660031901126101a4576020600c54604051908152f35b346101a4575f3660031901126101a457602090600d548152f35b600435906001600160a01b03821682036101a457565b602435906001600160a01b03821682036101a457565b604435906001600160a01b03821682036101a457565b601054811015610b6b5760105f5260205f2001905f90565b634e487b7160e01b5f52603260045260245ffd5b91908201809211610a9957565b8115610b96570490565b634e487b7160e01b5f52601260045260245ffd5b91908203918211610a9957565b81810292918115918404141715610a9957565b90601f8019910116810190811067ffffffffffffffff821117610bec57604052565b634e487b7160e01b5f52604160045260245ffd5b67ffffffffffffffff8111610bec5760051b60200190565b8051821015610b6b5760209160051b010190565b908160209103126101a4575180151581036101a45790565b91905f918315610fbf57612710610c5d60015486610bb7565b0493612710610c6e60025483610bb7565b0493610c8385610c7e8885610baa565b610baa565b935f602060018060a01b038254166064604051809481936323b872dd60e01b83523360048401523060248401528960448401525af1908115610f5e575f91610fa0575b5015610f69575f546001600160a01b0316803b156101a4575f80916024604051809481936383adc2ff60e01b83528d60048401525af18015610f5e57610f49575b50815460035460405163a9059cbb60e01b81526001600160a01b0391821660048201526024810189905291602091839160449183918891165af1908115610f3e578391610f1f575b5015610eda57815460405163a9059cbb60e01b81526001600160a01b0392831660048201526024810187905291602091839160449183918791165af1918215610ece5791610e9f575b5015610e6357620151804204600c5481115f14610e4e57600b5480610e15575b5085600b55600c555b60076040516674726164696e6760c81b815220906040519081528560208201528460408201528360608201527ff8f449ed6ff79644d8e4e873d43862bed27d3d68aca8a0b36c94de61645df71f60803392a3565b60407f0c2d9f0e9c336ef1494b3eb0b7ba4b1eedcf3e4f7d96597d926908e4144ad6d191600c549082519182526020820152a15f610db8565b50610e5b85600b54610b7f565b600b55610dc1565b60405162461bcd60e51b815260206004820152601460248201527319185c1c081d1c985b9cd9995c8819985a5b195960621b6044820152606490fd5b610ec1915060203d602011610ec7575b610eb98183610bca565b810190610c2c565b5f610d98565b503d610eaf565b604051903d90823e3d90fd5b60405162461bcd60e51b815260206004820152601860248201527f7472656173757279207472616e73666572206661696c656400000000000000006044820152606490fd5b610f38915060203d602011610ec757610eb98183610bca565b5f610d4f565b6040513d85823e3d90fd5b610f569192505f90610bca565b5f905f610d07565b6040513d5f823e3d90fd5b60405162461bcd60e51b815260206004820152600f60248201526e1d1c985b9cd9995c8819985a5b1959608a1b6044820152606490fd5b610fb9915060203d602011610ec757610eb98183610bca565b5f610cc6565b60405162461bcd60e51b81526020600482015260086024820152675a65726f2066656560c01b6044820152606490fd5b15610ff657565b60405162461bcd60e51b81526020600482015260096024820152682737ba1030b236b4b760b91b6044820152606490fd5b61104261103960055460065490610b7f565b60075490610b7f565b801561107c5761105a610a2360085460095490610b7f565b906127108202918083046127101490151715610a995761107991610b8c565b90565b505f90565b1561108857565b60405162461bcd60e51b815260206004820152600c60248201526b7a65726f206164647265737360a01b6044820152606490fd5b6010545f5b81811061110e575068010000000000000000811015610bec578060016110ea9201601055610b53565b81546001600160a01b0393841660039290921b91821b9390911b1916919091179055565b61111781610b53565b905460039190911b1c6001600160a01b039081169084161461113b576001016110c1565b50505056fea2646970667358221220c1360cd03b45adfe7f54785b56ad81c3076cba6c08be2bd978ab2341f55cd16364736f6c63430008210033","linkReferences":{}},"methodIdentifiers":{"activeLiquidators(uint256)":"f04cab72","admin()":"f851a440","dailyDerivativesUBI()":"cdea85f7","getActiveLiquidatorsCount()":"4f937545","getDerivativesSocialImpactRate()":"7f1150bf","getMonthlyUBIEstimate()":"0bc13254","getPerpsUBIStats()":"2dacc22a","getTodayDerivativesImpact()":"207177c7","getTopLiquidators(uint256)":"14dd92a6","goodDollar()":"119e5bf3","goodDollarToken()":"28c026a3","lastDayTimestamp()":"08ca27bf","liquidatorContributions(address)":"27da17e7","marketMakerContributions(address)":"c698d2a7","monthlyTargetUBI()":"0326d75a","protocolBPS()":"7c393cfd","protocolTreasury()":"803db96d","setFeeSplit(uint256,uint256)":"7e6335c7","setGoodDollar(address)":"c7888a6d","setMonthlyTarget(uint256)":"ef44e809","setTreasury(address)":"f0f44260","splitFee(uint256,address)":"64d6def9","splitFundingFee(uint256,address,uint256)":"94b1b1aa","splitLiquidationFee(uint256,address,address,address)":"28031e8f","splitTradingFee(uint256,address,address,uint256,uint256)":"b710e39a","totalFundingFees()":"c370bebc","totalLiquidationFees()":"ee897d64","totalTradingFees()":"49a65938","totalUBIFromFunding()":"4eb8daee","totalUBIFromLiquidations()":"840ad837","totalUBIFromTrading()":"9a8c7e75","ubiBPS()":"66521893"},"id":1}