{"abi":[{"type":"constructor","inputs":[{"name":"_goodDollar","type":"address","internalType":"address"},{"name":"_treasury","type":"address","internalType":"address"},{"name":"_admin","type":"address","internalType":"address"}],"stateMutability":"nonpayable"},{"type":"function","name":"activeLiquidators","inputs":[{"name":"","type":"uint256","internalType":"uint256"}],"outputs":[{"name":"","type":"address","internalType":"address"}],"stateMutability":"view"},{"type":"function","name":"admin","inputs":[],"outputs":[{"name":"","type":"address","internalType":"address"}],"stateMutability":"view"},{"type":"function","name":"dailyDerivativesUBI","inputs":[],"outputs":[{"name":"","type":"uint256","internalType":"uint256"}],"stateMutability":"view"},{"type":"function","name":"getActiveLiquidatorsCount","inputs":[],"outputs":[{"name":"","type":"uint256","internalType":"uint256"}],"stateMutability":"view"},{"type":"function","name":"getDerivativesSocialImpactRate","inputs":[],"outputs":[{"name":"","type":"uint256","internalType":"uint256"}],"stateMutability":"view"},{"type":"function","name":"getMonthlyUBIEstimate","inputs":[],"outputs":[{"name":"estimated","type":"uint256","internalType":"uint256"},{"name":"target","type":"uint256","internalType":"uint256"},{"name":"progress","type":"uint256","internalType":"uint256"}],"stateMutability":"view"},{"type":"function","name":"getPerpsUBIStats","inputs":[],"outputs":[{"name":"tradingFees","type":"uint256","internalType":"uint256"},{"name":"fundingFees","type":"uint256","internalType":"uint256"},{"name":"liquidationFees","type":"uint256","internalType":"uint256"},{"name":"ubiFromTrading","type":"uint256","internalType":"uint256"},{"name":"ubiFromFunding","type":"uint256","internalType":"uint256"},{"name":"ubiFromLiquidations","type":"uint256","internalType":"uint256"},{"name":"totalUBI","type":"uint256","internalType":"uint256"}],"stateMutability":"view"},{"type":"function","name":"getTodayDerivativesImpact","inputs":[],"outputs":[{"name":"currentDay","type":"uint256","internalType":"uint256"},{"name":"ubiAmount","type":"uint256","internalType":"uint256"}],"stateMutability":"view"},{"type":"function","name":"getTopLiquidators","inputs":[{"name":"limit","type":"uint256","internalType":"uint256"}],"outputs":[{"name":"liquidators","type":"address[]","internalType":"address[]"},{"name":"contributions","type":"uint256[]","internalType":"uint256[]"}],"stateMutability":"view"},{"type":"function","name":"goodDollar","inputs":[],"outputs":[{"name":"","type":"address","internalType":"address"}],"stateMutability":"view"},{"type":"function","name":"goodDollarToken","inputs":[],"outputs":[{"name":"","type":"address","internalType":"contract IGoodDollarToken"}],"stateMutability":"view"},{"type":"function","name":"lastDayTimestamp","inputs":[],"outputs":[{"name":"","type":"uint256","internalType":"uint256"}],"stateMutability":"view"},{"type":"function","name":"liquidatorContributions","inputs":[{"name":"","type":"address","internalType":"address"}],"outputs":[{"name":"","type":"uint256","internalType":"uint256"}],"stateMutability":"view"},{"type":"function","name":"marketMakerContributions","inputs":[{"name":"","type":"address","internalType":"address"}],"outputs":[{"name":"","type":"uint256","internalType":"uint256"}],"stateMutability":"view"},{"type":"function","name":"monthlyTargetUBI","inputs":[],"outputs":[{"name":"","type":"uint256","internalType":"uint256"}],"stateMutability":"view"},{"type":"function","name":"protocolBPS","inputs":[],"outputs":[{"name":"","type":"uint256","internalType":"uint256"}],"stateMutability":"view"},{"type":"function","name":"protocolTreasury","inputs":[],"outputs":[{"name":"","type":"address","internalType":"address"}],"stateMutability":"view"},{"type":"function","name":"setFeeSplit","inputs":[{"name":"_ubiBPS","type":"uint256","internalType":"uint256"},{"name":"_protocolBPS","type":"uint256","internalType":"uint256"}],"outputs":[],"stateMutability":"nonpayable"},{"type":"function","name":"setGoodDollar","inputs":[{"name":"_goodDollar","type":"address","internalType":"address"}],"outputs":[],"stateMutability":"nonpayable"},{"type":"function","name":"setMonthlyTarget","inputs":[{"name":"_target","type":"uint256","internalType":"uint256"}],"outputs":[],"stateMutability":"nonpayable"},{"type":"function","name":"setTreasury","inputs":[{"name":"_treasury","type":"address","internalType":"address"}],"outputs":[],"stateMutability":"nonpayable"},{"type":"function","name":"splitFee","inputs":[{"name":"totalFee","type":"uint256","internalType":"uint256"},{"name":"dAppRecipient","type":"address","internalType":"address"}],"outputs":[{"name":"ubiShare","type":"uint256","internalType":"uint256"},{"name":"protocolShare","type":"uint256","internalType":"uint256"},{"name":"dAppShare","type":"uint256","internalType":"uint256"}],"stateMutability":"nonpayable"},{"type":"function","name":"splitFundingFee","inputs":[{"name":"totalFee","type":"uint256","internalType":"uint256"},{"name":"dAppRecipient","type":"address","internalType":"address"},{"name":"marketId","type":"uint256","internalType":"uint256"}],"outputs":[{"name":"ubiShare","type":"uint256","internalType":"uint256"},{"name":"protocolShare","type":"uint256","internalType":"uint256"},{"name":"dAppShare","type":"uint256","internalType":"uint256"}],"stateMutability":"nonpayable"},{"type":"function","name":"splitLiquidationFee","inputs":[{"name":"totalFee","type":"uint256","internalType":"uint256"},{"name":"dAppRecipient","type":"address","internalType":"address"},{"name":"liquidator","type":"address","internalType":"address"},{"name":"liquidatedTrader","type":"address","internalType":"address"}],"outputs":[{"name":"ubiShare","type":"uint256","internalType":"uint256"},{"name":"protocolShare","type":"uint256","internalType":"uint256"},{"name":"dAppShare","type":"uint256","internalType":"uint256"}],"stateMutability":"nonpayable"},{"type":"function","name":"splitTradingFee","inputs":[{"name":"totalFee","type":"uint256","internalType":"uint256"},{"name":"dAppRecipient","type":"address","internalType":"address"},{"name":"trader","type":"address","internalType":"address"},{"name":"marketId","type":"uint256","internalType":"uint256"},{"name":"positionSize","type":"uint256","internalType":"uint256"}],"outputs":[{"name":"ubiShare","type":"uint256","internalType":"uint256"},{"name":"protocolShare","type":"uint256","internalType":"uint256"},{"name":"dAppShare","type":"uint256","internalType":"uint256"}],"stateMutability":"nonpayable"},{"type":"function","name":"totalFundingFees","inputs":[],"outputs":[{"name":"","type":"uint256","internalType":"uint256"}],"stateMutability":"view"},{"type":"function","name":"totalLiquidationFees","inputs":[],"outputs":[{"name":"","type":"uint256","internalType":"uint256"}],"stateMutability":"view"},{"type":"function","name":"totalTradingFees","inputs":[],"outputs":[{"name":"","type":"uint256","internalType":"uint256"}],"stateMutability":"view"},{"type":"function","name":"totalUBIFromFunding","inputs":[],"outputs":[{"name":"","type":"uint256","internalType":"uint256"}],"stateMutability":"view"},{"type":"function","name":"totalUBIFromLiquidations","inputs":[],"outputs":[{"name":"","type":"uint256","internalType":"uint256"}],"stateMutability":"view"},{"type":"function","name":"totalUBIFromTrading","inputs":[],"outputs":[{"name":"","type":"uint256","internalType":"uint256"}],"stateMutability":"view"},{"type":"function","name":"ubiBPS","inputs":[],"outputs":[{"name":"","type":"uint256","internalType":"uint256"}],"stateMutability":"view"},{"type":"event","name":"DailyDerivativesImpact","inputs":[{"name":"date","type":"uint256","indexed":false,"internalType":"uint256"},{"name":"ubiAmount","type":"uint256","indexed":false,"internalType":"uint256"}],"anonymous":false},{"type":"event","name":"FeeSplit","inputs":[{"name":"source","type":"address","indexed":true,"internalType":"address"},{"name":"feeType","type":"string","indexed":true,"internalType":"string"},{"name":"totalFee","type":"uint256","indexed":false,"internalType":"uint256"},{"name":"ubiShare","type":"uint256","indexed":false,"internalType":"uint256"},{"name":"protocolShare","type":"uint256","indexed":false,"internalType":"uint256"},{"name":"dAppShare","type":"uint256","indexed":false,"internalType":"uint256"}],"anonymous":false},{"type":"event","name":"FundingFeeSplit","inputs":[{"name":"marketId","type":"uint256","indexed":true,"internalType":"uint256"},{"name":"fundingAmount","type":"uint256","indexed":false,"internalType":"uint256"},{"name":"ubiShare","type":"uint256","indexed":false,"internalType":"uint256"}],"anonymous":false},{"type":"event","name":"LiquidationUBI","inputs":[{"name":"liquidator","type":"address","indexed":true,"internalType":"address"},{"name":"liquidatedTrader","type":"address","indexed":true,"internalType":"address"},{"name":"liquidationBonus","type":"uint256","indexed":false,"internalType":"uint256"},{"name":"ubiShare","type":"uint256","indexed":false,"internalType":"uint256"}],"anonymous":false},{"type":"event","name":"MonthlyTargetUpdated","inputs":[{"name":"oldTarget","type":"uint256","indexed":false,"internalType":"uint256"},{"name":"newTarget","type":"uint256","indexed":false,"internalType":"uint256"}],"anonymous":false},{"type":"event","name":"TradingFeeSplit","inputs":[{"name":"trader","type":"address","indexed":true,"internalType":"address"},{"name":"marketId","type":"uint256","indexed":false,"internalType":"uint256"},{"name":"positionSize","type":"uint256","indexed":false,"internalType":"uint256"},{"name":"ubiShare","type":"uint256","indexed":false,"internalType":"uint256"}],"anonymous":false}],"bytecode":{"object":"0x6080346100d357601f611aa338819003918201601f19168301916001600160401b038311848410176100d7578084926060946040528339810103126100d357610047816100eb565b906100606040610059602084016100eb565b92016100eb565b60015f8190556107d060025561068360035569021e19e0c9bab2400000600e5580546001600160a01b039485166001600160a01b031991821617909155600480549385169382169390931790925560058054919093169116179055620151804204600d556040516119a390816101008239f35b5f80fd5b634e487b7160e01b5f52604160045260245ffd5b51906001600160a01b03821682036100d35756fe6080806040526004361015610012575f80fd5b5f905f3560e01c9081630326d75a1461168f5750806308ca27bf146116725780630bc1325414611598578063119e5bf31461157057806314dd92a6146113f9578063207177c7146113d257806327da17e71461139a57806328031e8f1461103e57806328c026a3146110155780632dacc22a14610fb457806349a6593814610f965780634eb8daee14610f785780634f93754514610f5a57806364d6def914610c9c5780636652189314610c7e5780637c393cfd14610c605780637e6335c714610be35780637f1150bf14610bc0578063803db96d14610b97578063840ad83714610b7957806394b1b1aa1461084d5780639a8c7e751461082f578063b710e39a1461039f578063c370bebc14610381578063c698d2a714610348578063c7888a6d146102ea578063cdea85f7146102cc578063ee897d64146102ae578063ef44e8091461024b578063f04cab7214610207578063f0f44260146101a95763f851a4401461017e575f80fd5b346101a657806003193601126101a6576005546040516001600160a01b039091168152602090f35b80fd5b50346101a65760203660031901126101a6576101c36116a9565b6101d860018060a01b036005541633146117dc565b6001600160a01b03166101ec81151561186e565b6bffffffffffffffffffffffff60a01b600454161760045580f35b50346101a65760203660031901126101a657600435906011548210156101a6576020610232836116eb565b905460405160039290921b1c6001600160a01b03168152f35b50346101a65760203660031901126101a6577f7099dfe316ad8496795089a037eda8c64e5a6a7e140083ce87c004fc4fdb7bce604060043561029860018060a01b036005541633146117dc565b600e549080600e5582519182526020820152a180f35b50346101a657806003193601126101a6576020600854604051908152f35b50346101a657806003193601126101a6576020600c54604051908152f35b50346101a65760203660031901126101a6576103046116a9565b61031960018060a01b036005541633146117dc565b6001600160a01b031661032d81151561186e565b6bffffffffffffffffffffffff60a01b600154161760015580f35b50346101a65760203660031901126101a6576020906040906001600160a01b036103706116a9565b168152600f83522054604051908152f35b50346101a657806003193601126101a6576020600754604051908152f35b50346101a65760a03660031901126101a6576004356103bc6116bf565b906103c56116d5565b9160028454146107ea576002845581156107ba576127106103e86002548461174f565b04926127106103f96003548561174f565b049461040e866104098787611742565b611742565b9281602060018060a01b03600154166064604051809481936323b872dd60e01b83523360048401523060248401528b60448401525af190811561073c57839161079b575b5015610764576001546001600160a01b0316803b15610760578280916024604051809481936383adc2ff60e01b83528c60048401525af1801561073c57908391610747575b50506001546004805460405163a9059cbb60e01b81526001600160a01b0391821692810192909252602482018a90529091602091839160449183918891165af190811561073c57839161071d575b50156106d85760015460405163a9059cbb60e01b81526001600160a01b0392831660048201526024810186905291602091839160449183918791165af19081156106cd57829161069e575b5015610662576106239360016105aa92620151804204600d5481115f1461064d57600c5480610627575b5088600c55600d555b60076040516674726164696e6760c81b8152206040518481528960208201528a60408201528760608201525f51602061192e5f395f51905f5260803392a355600654611717565b6006556105b984600954611717565b60095560408051606435815260843560208201529081018590526001600160a01b0391909116907fe51ed7f1055ec8295a7c4d3aa7e1e9c405571a96ec82a20f8bfec8c5301dae3290606090a2604051938493846040919493926060820195825260208201520152565b0390f35b60405f51602061194e5f395f51905f5291600d549082519182526020820152a15f61055a565b5061065a88600c54611717565b600c55610563565b60405162461bcd60e51b815260206004820152601460248201527319185c1c081d1c985b9cd9995c8819985a5b195960621b6044820152606490fd5b6106c0915060203d6020116106c6575b6106b88183611762565b8101906117c4565b5f610530565b503d6106ae565b6040513d84823e3d90fd5b60405162461bcd60e51b815260206004820152601860248201527f7472656173757279207472616e73666572206661696c656400000000000000006044820152606490fd5b610736915060203d6020116106c6576106b88183611762565b5f6104e5565b6040513d85823e3d90fd5b8161075191611762565b61075c57815f610497565b5080fd5b8280fd5b60405162461bcd60e51b815260206004820152600f60248201526e1d1c985b9cd9995c8819985a5b1959608a1b6044820152606490fd5b6107b4915060203d6020116106c6576106b88183611762565b5f610452565b60405162461bcd60e51b81526020600482015260086024820152675a65726f2066656560c01b6044820152606490fd5b60405162461bcd60e51b815260206004820152601f60248201527f5265656e7472616e637947756172643a207265656e7472616e742063616c6c006044820152606490fd5b50346101a657806003193601126101a6576020600954604051908152f35b50346101a65760603660031901126101a6576004359061086b6116bf565b9060028154146107ea576002815582156107ba5761271061088e6002548561174f565b049161271061089f6003548661174f565b04936108af856104098684611742565b9183602060018060a01b03600154166064604051809481936323b872dd60e01b83523360048401523060248401528860448401525af1908115610b32578591610b5a575b5015610764576001546001600160a01b0316803b15610b56578480916024604051809481936383adc2ff60e01b83528b60048401525af18015610b3257908591610b3d575b50506001546004805460405163a9059cbb60e01b81526001600160a01b0391821692810192909252602482018990529091602091839160449183918a91165af1908115610b32578591610b13575b50156106d85760015460405163a9059cbb60e01b81526001600160a01b0392831660048201526024810185905291602091839160449183918991165af1908115610b08578491610ae9575b501561066257600161062393620151804204600d5481115f14610ad457600c5480610aae575b5086600c55600d555b60076040516674726164696e6760c81b8152206040518481528760208201528860408201528560608201525f51602061192e5f395f51905f5260803392a355610a4b81600754611717565b600755610a5a84600a54611717565b600a556040519081528360208201527f85da25fdd17804a960fc18d208d012780f3a5be91b204774c8a1a95e0f7c04d6604060443592a2604051938493846040919493926060820195825260208201520152565b60405f51602061194e5f395f51905f5291600d549082519182526020820152a15f6109f7565b50610ae186600c54611717565b600c55610a00565b610b02915060203d6020116106c6576106b88183611762565b5f6109d1565b6040513d86823e3d90fd5b610b2c915060203d6020116106c6576106b88183611762565b5f610986565b6040513d87823e3d90fd5b81610b4791611762565b610b5257835f610938565b8380fd5b8480fd5b610b73915060203d6020116106c6576106b88183611762565b5f6108f3565b50346101a657806003193601126101a6576020600b54604051908152f35b50346101a657806003193601126101a6576004546040516001600160a01b039091168152602090f35b50346101a657806003193601126101a6576020610bdb611814565b604051908152f35b50346101a65760403660031901126101a65760043560243590610c1160018060a01b036005541633146117dc565b612710610c1e8383611717565b11610c2c5760025560035580f35b60405162461bcd60e51b815260206004820152600c60248201526b45786365656473203130302560a01b6044820152606490fd5b50346101a657806003193601126101a6576020600354604051908152f35b50346101a657806003193601126101a6576020600254604051908152f35b50346101a65760403660031901126101a65760043590610cba6116bf565b9060028154146107ea576002815582156107ba57612710610cdd6002548561174f565b0491612710610cee6003548661174f565b0493610cfe856104098684611742565b9183602060018060a01b03600154166064604051809481936323b872dd60e01b83523360048401523060248401528860448401525af1908115610b32578591610f3b575b5015610764576001546001600160a01b0316803b15610b56578480916024604051809481936383adc2ff60e01b83528b60048401525af18015610b3257908591610f26575b50506001546004805460405163a9059cbb60e01b81526001600160a01b0391821692810192909252602482018990529091602091839160449183918a91165af1908115610b32578591610f07575b50156106d85760015460405163a9059cbb60e01b81526001600160a01b0392831660048201526024810185905291602091839160449183918991165af1908115610b08578491610ee8575b50156106625761062392600191620151804204600d5481115f14610ed357600c5480610ead575b5086600c55600d555b60076040516674726164696e6760c81b815220906040519081528660208201528760408201528460608201525f51602061192e5f395f51905f5260803392a355604051938493846040919493926060820195825260208201520152565b60405f51602061194e5f395f51905f5291600d549082519182526020820152a15f610e47565b50610ee086600c54611717565b600c55610e50565b610f01915060203d6020116106c6576106b88183611762565b5f610e20565b610f20915060203d6020116106c6576106b88183611762565b5f610dd5565b81610f3091611762565b610b5257835f610d87565b610f54915060203d6020116106c6576106b88183611762565b5f610d42565b50346101a657806003193601126101a6576020601154604051908152f35b50346101a657806003193601126101a6576020600a54604051908152f35b50346101a657806003193601126101a6576020600654604051908152f35b50346101a657806003193601126101a65760e0600654600754600854600954600a5490600b5492610fee84610fe98585611717565b611717565b94604051968752602087015260408601526060850152608084015260a083015260c0820152f35b50346101a657806003193601126101a6576001546040516001600160a01b039091168152602090f35b5034611377576080366003190112611377576004359061105c6116bf565b6110646116d5565b906064356001600160a01b038116908190036113775760025f54146107ea5760025f5584156107ba5761271061109c6002548761174f565b04936127106110ad6003548861174f565b04956110bd876104098884611742565b935f602060018060a01b03600154166064604051809481936323b872dd60e01b83523360048401523060248401528860448401525af190811561136c575f9161137b575b5015610764576001546001600160a01b0316803b15611377575f80916024604051809481936383adc2ff60e01b83528d60048401525af1801561136c57611357575b506001546004805460405163a9059cbb60e01b81526001600160a01b0391821692810192909252602482018b90529091602091839160449183918991165af1908115610b08578491611338575b50156106d85760015460405163a9059cbb60e01b81526001600160a01b0392831660048201526024810187905291602091839160449183918891165af190811561073c578391611319575b50156106625760407f08acc47cf71c89e6c22b1d4d5f8ff4534597e3fd3ce984a7c416ffe5cad62d5b916112b661062397620151804204600d5481115f1461130457600c54806112df575b508a600c55600d555b600784516674726164696e6760c81b81522084518481528b60208201528c868201528960608201525f51602061192e5f395f51905f5260803392a36001865561127a83600854611717565b6008556112898a600b54611717565b600b556001600160a01b03811680875260106020529584902080546112af908c90611717565b90556118a9565b8151908152876020820152a3604051938493846040919493926060820195825260208201520152565b855f51602061194e5f395f51905f5291600d549082519182526020820152a15f611226565b506113118a600c54611717565b600c5561122f565b611332915060203d6020116106c6576106b88183611762565b5f6111db565b611351915060203d6020116106c6576106b88183611762565b5f611190565b6113649193505f90611762565b5f915f611143565b6040513d5f823e3d90fd5b5f80fd5b611394915060203d6020116106c6576106b88183611762565b5f611101565b34611377576020366003190112611377576001600160a01b036113bb6116a9565b165f526010602052602060405f2054604051908152f35b34611377575f366003190112611377576040600c5481519062015180420482526020820152f35b3461137757602036600319011261137757601154600435808211611568575b5061142281611798565b61142f6040519182611762565b81815261143b82611798565b602082019290601f190136843761145181611798565b9261145f6040519485611762565b81845261146b82611798565b602085019290601f19013684375f5b818110611505575050604051938493604085019060408652518091526060850192905f5b8181106114e3575050506020908483038286015251918281520191905f5b8181106114ca575050500390f35b82518452859450602093840193909201916001016114bc565b82516001600160a01b031685528796506020948501949092019160010161149e565b8061151660019297949596976116eb565b838060a01b0391549060031b1c1661152e82896117b0565b52611538816116eb565b838060a01b0391549060031b1c165f52601060205260405f205461155c82866117b0565b5201949392919461147a565b905081611418565b34611377575f366003190112611377576001546040516001600160a01b039091168152602090f35b34611377575f366003190112611377575f6115c46115bb600954600a5490611717565b600b5490611717565b6115d5600d54620151804204611742565b9060018201809211611631578161164e575b5050600e549081156116455761271081028181046127101482151715611631576116148361062392611724565b604051938493846040919493926060820195825260208201520152565b634e487b7160e01b5f52601160045260245ffd5b6106235f611614565b6116589250611724565b601e810290808204601e14901517156116315781806115e7565b34611377575f366003190112611377576020600d54604051908152f35b34611377575f36600319011261137757602090600e548152f35b600435906001600160a01b038216820361137757565b602435906001600160a01b038216820361137757565b604435906001600160a01b038216820361137757565b6011548110156117035760115f5260205f2001905f90565b634e487b7160e01b5f52603260045260245ffd5b9190820180921161163157565b811561172e570490565b634e487b7160e01b5f52601260045260245ffd5b9190820391821161163157565b8181029291811591840414171561163157565b90601f8019910116810190811067ffffffffffffffff82111761178457604052565b634e487b7160e01b5f52604160045260245ffd5b67ffffffffffffffff81116117845760051b60200190565b80518210156117035760209160051b010190565b90816020910312611377575180151581036113775790565b156117e357565b60405162461bcd60e51b81526020600482015260096024820152682737ba1030b236b4b760b91b6044820152606490fd5b61182f61182660065460075490611717565b60085490611717565b8015611869576118476115bb600954600a5490611717565b9061271082029180830461271014901517156116315761186691611724565b90565b505f90565b1561187557565b60405162461bcd60e51b815260206004820152600c60248201526b7a65726f206164647265737360a01b6044820152606490fd5b6011545f5b8181106118fb575068010000000000000000811015611784578060016118d792016011556116eb565b81546001600160a01b0393841660039290921b91821b9390911b1916919091179055565b611904816116eb565b905460039190911b1c6001600160a01b0390811690841614611928576001016118ae565b50505056fef8f449ed6ff79644d8e4e873d43862bed27d3d68aca8a0b36c94de61645df71f0c2d9f0e9c336ef1494b3eb0b7ba4b1eedcf3e4f7d96597d926908e4144ad6d1a264697066735822122048d068bba06615def1c70e2156dda957a93d8e53fc853847342a43f28e7a459864736f6c63430008210033","linkReferences":{}},"methodIdentifiers":{"activeLiquidators(uint256)":"f04cab72","admin()":"f851a440","dailyDerivativesUBI()":"cdea85f7","getActiveLiquidatorsCount()":"4f937545","getDerivativesSocialImpactRate()":"7f1150bf","getMonthlyUBIEstimate()":"0bc13254","getPerpsUBIStats()":"2dacc22a","getTodayDerivativesImpact()":"207177c7","getTopLiquidators(uint256)":"14dd92a6","goodDollar()":"119e5bf3","goodDollarToken()":"28c026a3","lastDayTimestamp()":"08ca27bf","liquidatorContributions(address)":"27da17e7","marketMakerContributions(address)":"c698d2a7","monthlyTargetUBI()":"0326d75a","protocolBPS()":"7c393cfd","protocolTreasury()":"803db96d","setFeeSplit(uint256,uint256)":"7e6335c7","setGoodDollar(address)":"c7888a6d","setMonthlyTarget(uint256)":"ef44e809","setTreasury(address)":"f0f44260","splitFee(uint256,address)":"64d6def9","splitFundingFee(uint256,address,uint256)":"94b1b1aa","splitLiquidationFee(uint256,address,address,address)":"28031e8f","splitTradingFee(uint256,address,address,uint256,uint256)":"b710e39a","totalFundingFees()":"c370bebc","totalLiquidationFees()":"ee897d64","totalTradingFees()":"49a65938","totalUBIFromFunding()":"4eb8daee","totalUBIFromLiquidations()":"840ad837","totalUBIFromTrading()":"9a8c7e75","ubiBPS()":"66521893"},"id":70}