{"abi":[{"type":"constructor","inputs":[{"name":"_asset","type":"address","internalType":"address"},{"name":"_strategy","type":"address","internalType":"address"},{"name":"_ubiFee","type":"address","internalType":"address"},{"name":"_name","type":"string","internalType":"string"},{"name":"_symbol","type":"string","internalType":"string"},{"name":"_depositCap","type":"uint256","internalType":"uint256"}],"stateMutability":"nonpayable"},{"type":"function","name":"acceptAdmin","inputs":[],"outputs":[],"stateMutability":"nonpayable"},{"type":"function","name":"admin","inputs":[],"outputs":[{"name":"","type":"address","internalType":"address"}],"stateMutability":"view"},{"type":"function","name":"allowance","inputs":[{"name":"","type":"address","internalType":"address"},{"name":"","type":"address","internalType":"address"}],"outputs":[{"name":"","type":"uint256","internalType":"uint256"}],"stateMutability":"view"},{"type":"function","name":"approve","inputs":[{"name":"spender","type":"address","internalType":"address"},{"name":"amount","type":"uint256","internalType":"uint256"}],"outputs":[{"name":"","type":"bool","internalType":"bool"}],"stateMutability":"nonpayable"},{"type":"function","name":"asset","inputs":[],"outputs":[{"name":"","type":"address","internalType":"contract IERC20"}],"stateMutability":"view"},{"type":"function","name":"balanceOf","inputs":[{"name":"","type":"address","internalType":"address"}],"outputs":[{"name":"","type":"uint256","internalType":"uint256"}],"stateMutability":"view"},{"type":"function","name":"convertToAssets","inputs":[{"name":"shares","type":"uint256","internalType":"uint256"}],"outputs":[{"name":"","type":"uint256","internalType":"uint256"}],"stateMutability":"view"},{"type":"function","name":"convertToShares","inputs":[{"name":"assets","type":"uint256","internalType":"uint256"}],"outputs":[{"name":"","type":"uint256","internalType":"uint256"}],"stateMutability":"view"},{"type":"function","name":"decimals","inputs":[],"outputs":[{"name":"","type":"uint8","internalType":"uint8"}],"stateMutability":"view"},{"type":"function","name":"deposit","inputs":[{"name":"assets","type":"uint256","internalType":"uint256"},{"name":"receiver","type":"address","internalType":"address"}],"outputs":[{"name":"shares","type":"uint256","internalType":"uint256"}],"stateMutability":"nonpayable"},{"type":"function","name":"depositCap","inputs":[],"outputs":[{"name":"","type":"uint256","internalType":"uint256"}],"stateMutability":"view"},{"type":"function","name":"emergencyShutdown","inputs":[],"outputs":[],"stateMutability":"nonpayable"},{"type":"function","name":"harvest","inputs":[],"outputs":[{"name":"profit","type":"uint256","internalType":"uint256"},{"name":"loss","type":"uint256","internalType":"uint256"}],"stateMutability":"nonpayable"},{"type":"function","name":"lastReport","inputs":[],"outputs":[{"name":"","type":"uint256","internalType":"uint256"}],"stateMutability":"view"},{"type":"function","name":"managementFeeBPS","inputs":[],"outputs":[{"name":"","type":"uint256","internalType":"uint256"}],"stateMutability":"view"},{"type":"function","name":"maxDeposit","inputs":[{"name":"","type":"address","internalType":"address"}],"outputs":[{"name":"","type":"uint256","internalType":"uint256"}],"stateMutability":"view"},{"type":"function","name":"maxWithdraw","inputs":[{"name":"owner","type":"address","internalType":"address"}],"outputs":[{"name":"","type":"uint256","internalType":"uint256"}],"stateMutability":"view"},{"type":"function","name":"migrateStrategy","inputs":[{"name":"newStrategy","type":"address","internalType":"address"}],"outputs":[],"stateMutability":"nonpayable"},{"type":"function","name":"name","inputs":[],"outputs":[{"name":"","type":"string","internalType":"string"}],"stateMutability":"view"},{"type":"function","name":"paused","inputs":[],"outputs":[{"name":"","type":"bool","internalType":"bool"}],"stateMutability":"view"},{"type":"function","name":"pendingAdmin","inputs":[],"outputs":[{"name":"","type":"address","internalType":"address"}],"stateMutability":"view"},{"type":"function","name":"performanceFeeBPS","inputs":[],"outputs":[{"name":"","type":"uint256","internalType":"uint256"}],"stateMutability":"view"},{"type":"function","name":"previewDeposit","inputs":[{"name":"assets","type":"uint256","internalType":"uint256"}],"outputs":[{"name":"","type":"uint256","internalType":"uint256"}],"stateMutability":"view"},{"type":"function","name":"previewRedeem","inputs":[{"name":"shares","type":"uint256","internalType":"uint256"}],"outputs":[{"name":"","type":"uint256","internalType":"uint256"}],"stateMutability":"view"},{"type":"function","name":"previewWithdraw","inputs":[{"name":"assets","type":"uint256","internalType":"uint256"}],"outputs":[{"name":"","type":"uint256","internalType":"uint256"}],"stateMutability":"view"},{"type":"function","name":"redeem","inputs":[{"name":"shares","type":"uint256","internalType":"uint256"},{"name":"receiver","type":"address","internalType":"address"},{"name":"owner","type":"address","internalType":"address"}],"outputs":[{"name":"assets","type":"uint256","internalType":"uint256"}],"stateMutability":"nonpayable"},{"type":"function","name":"setDepositCap","inputs":[{"name":"_cap","type":"uint256","internalType":"uint256"}],"outputs":[],"stateMutability":"nonpayable"},{"type":"function","name":"setFees","inputs":[{"name":"_perfBPS","type":"uint256","internalType":"uint256"},{"name":"_mgmtBPS","type":"uint256","internalType":"uint256"}],"outputs":[],"stateMutability":"nonpayable"},{"type":"function","name":"strategy","inputs":[],"outputs":[{"name":"","type":"address","internalType":"address"}],"stateMutability":"view"},{"type":"function","name":"symbol","inputs":[],"outputs":[{"name":"","type":"string","internalType":"string"}],"stateMutability":"view"},{"type":"function","name":"totalAssets","inputs":[],"outputs":[{"name":"","type":"uint256","internalType":"uint256"}],"stateMutability":"view"},{"type":"function","name":"totalDebt","inputs":[],"outputs":[{"name":"","type":"uint256","internalType":"uint256"}],"stateMutability":"view"},{"type":"function","name":"totalGainSinceInception","inputs":[],"outputs":[{"name":"","type":"uint256","internalType":"uint256"}],"stateMutability":"view"},{"type":"function","name":"totalSupply","inputs":[],"outputs":[{"name":"","type":"uint256","internalType":"uint256"}],"stateMutability":"view"},{"type":"function","name":"totalUBIFunded","inputs":[],"outputs":[{"name":"","type":"uint256","internalType":"uint256"}],"stateMutability":"view"},{"type":"function","name":"transfer","inputs":[{"name":"to","type":"address","internalType":"address"},{"name":"amount","type":"uint256","internalType":"uint256"}],"outputs":[{"name":"","type":"bool","internalType":"bool"}],"stateMutability":"nonpayable"},{"type":"function","name":"transferAdmin","inputs":[{"name":"newAdmin","type":"address","internalType":"address"}],"outputs":[],"stateMutability":"nonpayable"},{"type":"function","name":"transferFrom","inputs":[{"name":"from","type":"address","internalType":"address"},{"name":"to","type":"address","internalType":"address"},{"name":"amount","type":"uint256","internalType":"uint256"}],"outputs":[{"name":"","type":"bool","internalType":"bool"}],"stateMutability":"nonpayable"},{"type":"function","name":"ubiFee","inputs":[],"outputs":[{"name":"","type":"address","internalType":"contract IUBIFeeSplitter"}],"stateMutability":"view"},{"type":"function","name":"unpause","inputs":[],"outputs":[],"stateMutability":"nonpayable"},{"type":"function","name":"withdraw","inputs":[{"name":"assets","type":"uint256","internalType":"uint256"},{"name":"receiver","type":"address","internalType":"address"},{"name":"owner","type":"address","internalType":"address"}],"outputs":[{"name":"shares","type":"uint256","internalType":"uint256"}],"stateMutability":"nonpayable"},{"type":"event","name":"Approval","inputs":[{"name":"owner","type":"address","indexed":true,"internalType":"address"},{"name":"spender","type":"address","indexed":true,"internalType":"address"},{"name":"value","type":"uint256","indexed":false,"internalType":"uint256"}],"anonymous":false},{"type":"event","name":"Deposit","inputs":[{"name":"sender","type":"address","indexed":true,"internalType":"address"},{"name":"owner","type":"address","indexed":true,"internalType":"address"},{"name":"assets","type":"uint256","indexed":false,"internalType":"uint256"},{"name":"shares","type":"uint256","indexed":false,"internalType":"uint256"}],"anonymous":false},{"type":"event","name":"EmergencyShutdown","inputs":[{"name":"returned","type":"uint256","indexed":false,"internalType":"uint256"}],"anonymous":false},{"type":"event","name":"Harvested","inputs":[{"name":"profit","type":"uint256","indexed":false,"internalType":"uint256"},{"name":"loss","type":"uint256","indexed":false,"internalType":"uint256"},{"name":"ubiFee","type":"uint256","indexed":false,"internalType":"uint256"},{"name":"mgmtFee","type":"uint256","indexed":false,"internalType":"uint256"}],"anonymous":false},{"type":"event","name":"StrategyMigrated","inputs":[{"name":"oldStrategy","type":"address","indexed":true,"internalType":"address"},{"name":"newStrategy","type":"address","indexed":true,"internalType":"address"}],"anonymous":false},{"type":"event","name":"Transfer","inputs":[{"name":"from","type":"address","indexed":true,"internalType":"address"},{"name":"to","type":"address","indexed":true,"internalType":"address"},{"name":"value","type":"uint256","indexed":false,"internalType":"uint256"}],"anonymous":false},{"type":"event","name":"Withdraw","inputs":[{"name":"sender","type":"address","indexed":true,"internalType":"address"},{"name":"receiver","type":"address","indexed":true,"internalType":"address"},{"name":"owner","type":"address","indexed":true,"internalType":"address"},{"name":"assets","type":"uint256","indexed":false,"internalType":"uint256"},{"name":"shares","type":"uint256","indexed":false,"internalType":"uint256"}],"anonymous":false},{"type":"error","name":"DepositCapExceeded","inputs":[]},{"type":"error","name":"InsufficientAllowance","inputs":[]},{"type":"error","name":"InsufficientBalance","inputs":[]},{"type":"error","name":"NotAdmin","inputs":[]},{"type":"error","name":"Paused","inputs":[]},{"type":"error","name":"Reentrant","inputs":[]},{"type":"error","name":"StrategyAssetMismatch","inputs":[]},{"type":"error","name":"TransferFailed","inputs":[]},{"type":"error","name":"ZeroAssets","inputs":[]},{"type":"error","name":"ZeroShares","inputs":[]}],"bytecode":{"object":"0x60a0806040523461028257612488803803809161001c828561049c565b8339810160c08282031261028257610033826104bf565b90610040602084016104bf565b9161004d604085016104bf565b60608501519092906001600160401b038111610282578161006f9187016104d3565b60808601519091906001600160401b0381116102825760a0916100939188016104d3565b9501516107d060095560c8600a556001600160a01b039283166080819052600680546001600160a01b03199081169786169788179091556005805490911695909416949094179092558051929392906001600160401b03821161039b575f5490600182811c92168015610492575b602083101461037d5781601f84931161041d575b50602090601f83116001146103ba575f926103af575b50508160011b915f199060031b1c1916175f555b83516001600160401b03811161039b57600154600181811c91168015610391575b602082101461037d57601f811161030f575b506020601f82116001146102a45790806020949392600496975f92610299575b50508160011b915f199060031b1c1916176001555b600b55600780546001600160a01b0319163317905542600d556040516338d52e0f60e01b815292839182905afa90811561028e575f91610250575b506001600160a01b03160361024157604051611f5f9081610529823960805181818161027f015281816105d00152818161081c01528181610c9b0152818161105d01528181611321015281816119d201528181611bbe0152611db10152f35b636bda787360e11b5f5260045ffd5b90506020813d602011610286575b8161026b6020938361049c565b810103126102825761027c906104bf565b5f6101e2565b5f80fd5b3d915061025e565b6040513d5f823e3d90fd5b015190505f80610192565b601f1982169560015f52815f20965f5b8181106102f7575096600192849260209796956004999a106102df575b505050811b016001556101a7565b01515f1960f88460031b161c191690555f80806102d1565b838301518955600190980197602093840193016102b4565b818111156101725760015f52601f820160051c7fb10e2d527612073b26eecdfd717e6a320cf44b4afac2b0732d9fcbe2b7fa0cf660208410610375575b81601f9101920160051c03905f5b828110610368575050610172565b5f8282015560010161035a565b5f915061034c565b634e487b7160e01b5f52602260045260245ffd5b90607f1690610160565b634e487b7160e01b5f52604160045260245ffd5b015190505f8061012b565b5f8080528281209350601f198516905b81811061040557509084600195949392106103ed575b505050811b015f5561013f565b01515f1960f88460031b161c191690555f80806103e0565b929360206001819287860151815501950193016103ca565b82811115610115575f8052909150601f830160051c7f290decd9548b62a8d60345a988386fc84ba6bc95484008f6362f93160ef3e5636020851061048a575b849392601f0160051c82900391015f5b82811061047a575050610115565b5f8183015585945060010161046c565b5f915061045c565b91607f1691610101565b601f909101601f19168101906001600160401b0382119082101761039b57604052565b51906001600160a01b038216820361028257565b81601f82011215610282578051906001600160401b03821161039b5760405192610507601f8401601f19166020018561049c565b8284526020838301011161028257815f9260208093018386015e830101529056fe60806040526004361015610011575f80fd5b5f5f3560e01c806301e1d114146118ca57806306fdde03146117d957806307a2d13a146117bb578063095ea7b3146117425780630a28a477146116d55780630b78f9c0146116335780630e18b681146115bf57806314424a58146115a257806318160ddd1461158557806323b872dd14611485578063267822471461145d578063313ce567146114425780633403c2fc1461135057806338d52e0f1461130c5780633f4ba83a146112cf578063402d267d146112ab57806343fda031146112835780634641257d14610e2a5780634cdad50614610e0b5780635c975abb14610de85780636e553f6514610c0857806370a0823114610bcf57806375829def14610b805780638581ddf514610b625780638665120314610b2657806395d89b4114610a1d578063a8c62e76146109f4578063a9059cbb14610953578063ac32416614610935578063b460af941461073b578063ba08765214610525578063c3535b5214610507578063c6e6f59214610417578063ce96cb77146104cd578063d7c16b80146104af578063dbd5edc714610491578063dd62ed3e1461043e578063ef8b30f714610417578063f851a440146103ee578063fafa6c69146101fd5763fc7b9c18146101dd575f80fd5b346101fa57806003193601126101fa576020600c54604051908152f35b80fd5b50346101fa5760203660031901126101fa57610217611944565b6007546001600160a01b031633036103df5760105460ff8160081c166103d05761ff001916610100176010556040516338d52e0f60e01b81526001600160a01b039190911690602081600481855afa9081156103c557839161037f575b506001600160a01b037f000000000000000000000000000000000000000000000000000000000000000081169116036103705760018060a01b0360065416600c54610306575b600680546001600160a01b031916831790556102d4611ba8565b7f100b69bb6b504e1252e36b375233158edee64d071b399e2f81473a695fd1b0218380a361ff00196010541660105580f35b6040516336cb886f60e21b815260208160048187865af1801561036557610332575b5082600c556102ba565b6020813d60201161035d575b8161034b602093836118e4565b810103126103595751610328565b5f80fd5b3d915061033e565b6040513d86823e3d90fd5b636bda787360e11b8252600482fd5b90506020813d6020116103bd575b8161039a602093836118e4565b810103126103b957516001600160a01b03811681036103b9575f610274565b8280fd5b3d915061038d565b6040513d85823e3d90fd5b63769dd35360e11b8352600483fd5b637bfa4b9f60e01b8252600482fd5b50346101fa57806003193601126101fa576007546040516001600160a01b039091168152602090f35b50346101fa5760203660031901126101fa576020610436600435611b75565b604051908152f35b50346101fa5760403660031901126101fa57604061045a611944565b9161046361195a565b9260018060a01b031681526004602052209060018060a01b03165f52602052602060405f2054604051908152f35b50346101fa57806003193601126101fa576020600b54604051908152f35b50346101fa57806003193601126101fa576020600e54604051908152f35b50346101fa5760203660031901126101fa57602090610436906040906001600160a01b036104f9611944565b168152600384522054611aed565b50346101fa57806003193601126101fa576020600d54604051908152f35b50346101fa5761053436611970565b909160105460ff8160081c1661072c5761ff00191661010017601055801561071d5761055f81611aed565b92831561070e576001600160a01b03831692338490036106b7575b8386526003602052826040872054106106a857826105a09161059b87611d96565b611ebd565b60405163a9059cbb60e01b81526001600160a01b03821660048201526024810185905260208180604481010381897f00000000000000000000000000000000000000000000000000000000000000006001600160a01b03165af190811561069d57869161066e575b501561065f5760209450604051918483528583015260018060a01b0316907ffbde797d201c681b91056529119e0b02407c7bb96a4a2c75c01fc9667232c8db60403392a461ff001960105416601055604051908152f35b6312171d8360e31b8552600485fd5b610690915060203d602011610696575b61068881836118e4565b810190611b5d565b5f610608565b503d61067e565b6040513d88823e3d90fd5b631e9acf1760e31b8652600486fd5b838652600460209081526040808820335f90815292529020548381106106ff57836106e191611b20565b848752600460209081526040808920335f908152925290205561057a565b6313be252b60e01b8752600487fd5b630cb65c7760e21b8552600485fd5b639811e0c760e01b8452600484fd5b63769dd35360e11b8552600485fd5b50346101fa5761074a36611970565b909160105460ff8160081c1661072c5761ff001916610100176010558015610926576002546107776119b7565b90600182018092116109125760018101809111610912578161079c6107a19285611abc565b6119aa565b5f19810190811161091257906107b691611acf565b926001600160a01b03831692338490036108ca575b8386526003602052846040872054106106a857846107ec9161059b85611d96565b60405163a9059cbb60e01b81526001600160a01b03821660048201526024810183905260208180604481010381897f00000000000000000000000000000000000000000000000000000000000000006001600160a01b03165af190811561069d5786916108ab575b501561065f5760209450604051918252838583015260018060a01b0316907ffbde797d201c681b91056529119e0b02407c7bb96a4a2c75c01fc9667232c8db60403392a461ff001960105416601055604051908152f35b6108c4915060203d6020116106965761068881836118e4565b5f610854565b838652600460209081526040808820335f90815292529020548581106106ff57856108f491611b20565b848752600460209081526040808920335f90815292529020556107cb565b634e487b7160e01b86526011600452602486fd5b630cb65c7760e21b8452600484fd5b50346101fa57806003193601126101fa576020600954604051908152f35b50346101fa5760403660031901126101fa5761096d611944565b602435903383526003602052816040842054106109e557604090338452600360205281842061099d848254611b20565b90556001600160a01b03168084526003602052922080546109bf9083906119aa565b90556040519081525f516020611f0a5f395f51905f5260203392a3602060405160018152f35b631e9acf1760e31b8352600483fd5b50346101fa57806003193601126101fa576006546040516001600160a01b039091168152602090f35b50346101fa57806003193601126101fa576040519080600154908160011c91600181168015610b1c575b602084108114610b0857838652908115610ae15750600114610a84575b610a8084610a74818603826118e4565b6040519182918261191a565b0390f35b600181527fb10e2d527612073b26eecdfd717e6a320cf44b4afac2b0732d9fcbe2b7fa0cf6939250905b808210610ac757509091508101602001610a7482610a64565b919260018160209254838588010152019101909291610aae565b60ff191660208087019190915292151560051b85019092019250610a749150839050610a64565b634e487b7160e01b83526022600452602483fd5b92607f1692610a47565b50346101fa5760203660031901126101fa576007546001600160a01b03163303610b5357600435600b5580f35b637bfa4b9f60e01b8152600490fd5b50346101fa57806003193601126101fa576020600f54604051908152f35b50346101fa5760203660031901126101fa57610b9a611944565b6007546001600160a01b031633036103df5760018060a01b03166bffffffffffffffffffffffff60a01b600854161760085580f35b50346101fa5760203660031901126101fa576020906040906001600160a01b03610bf7611944565b168152600383522054604051908152f35b50346101fa5760403660031901126101fa57600435610c2561195a565b9160105460ff8116610dd95760ff8160081c16610dca5761ff001916610100176010558115610dbb57610c5782611b75565b918215610dac57610c6a8161079c6119b7565b600b5410610d9d576040516323b872dd60e01b815233600482015230602482015260448101829052602081606481867f00000000000000000000000000000000000000000000000000000000000000006001600160a01b03165af19081156103c5578391610d7e575b5015610d6f57602093610ce8846002546119aa565b60025560018060a01b031682818094526003865260408120610d0b8682546119aa565b90555f516020611f0a5f395f51905f5286604051878152a3610d2b611ba8565b60405190815282848201527fdcbc1c05240f31ff3ad067ef1ee35ce4997762752e3a095284754544f4c709d760403392a361ff001960105416601055604051908152f35b6312171d8360e31b8252600482fd5b610d97915060203d6020116106965761068881836118e4565b5f610cd3565b6324d758c360e21b8252600482fd5b639811e0c760e01b8252600482fd5b630cb65c7760e21b8152600490fd5b63769dd35360e11b8252600482fd5b6313d0ff5960e31b8252600482fd5b50346101fa57806003193601126101fa57602060ff601054166040519015158152f35b50346101fa5760203660031901126101fa576020610436600435611aed565b5034610359575f3660031901126103595760105460ff8160081c166112745761ff0019166101001760105560065460408051634641257d60e01b815291829060049082905f906001600160a01b03165af180156111c6575f915f9161123b575b505f5f83151580610f1e575b507f4c0f499ffe6befa0ca7c826b0916cf87bea98de658013e76938489368d60d5099160809160409685610ef7575b5042600d55865191868352856020840152878301526060820152a161ff00196010541660105582519182526020820152f35b600c548690808210610f0f5750505b600c555f610ec5565b610f199250611b20565b610f06565b915050612710610f3060095485611abc565b049064496cebb800610f5b610f47600d5442611b20565b610f56600c54600a5490611abc565b611abc565b0490610f6782846119aa565b90858211611233575b81610fda575b91604096610fb9610fb17f4c0f499ffe6befa0ca7c826b0916cf87bea98de658013e76938489368d60d5099694608096610fc6575b89611b20565b600e546119aa565b600e559650915091610e96565b610fd28a600c546119aa565b600c55610fab565b600654604051632e1a7d4d60e01b81526004810193909352602090839060249082905f906001600160a01b03165af19182156111c6575f926111ff575b5061102482600c54611b20565b600c558180611034575b50610f76565b60055460405163095ea7b360e01b81526001600160a01b039182166004820152602481018390527f0000000000000000000000000000000000000000000000000000000000000000909116906020816044815f865af19081156111c6575f916111e0575b50156111d1576005546001600160a01b0316803b15610359575f8091606460405180948193633e5a775160e11b83528860048401523060248401528760448401525af180156111c6576111b1575b5060208991604460018060a01b0360055416604051948593849263095ea7b360e01b845260048401528160248401525af19081156111a6578991611187575b50156111785796610fb9610fb17f4c0f499ffe6befa0ca7c826b0916cf87bea98de658013e76938489368d60d50996946080969461116760409c600f546119aa565b600f5594965094965050509661102e565b6312171d8360e31b8852600488fd5b6111a0915060203d6020116106965761068881836118e4565b5f611125565b6040513d8b823e3d90fd5b602099505f6111bf916118e4565b5f986110e6565b6040513d5f823e3d90fd5b6312171d8360e31b5f5260045ffd5b6111f9915060203d6020116106965761068881836118e4565b5f611098565b9091506020813d60201161122b575b8161121b602093836118e4565b810103126103595751905f611017565b3d915061120e565b859150610f70565b9150506040813d60401161126c575b81611257604093836118e4565b8101031261035957602081519101515f610e8a565b3d915061124a565b63769dd35360e11b5f5260045ffd5b34610359575f366003190112610359576005546040516001600160a01b039091168152602090f35b34610359576020366003190112610359576112c4611944565b506020610436611b2d565b34610359575f366003190112610359576007546001600160a01b031633036112fd576010805460ff19169055005b637bfa4b9f60e01b5f5260045ffd5b34610359575f366003190112610359576040517f00000000000000000000000000000000000000000000000000000000000000006001600160a01b03168152602090f35b34610359575f366003190112610359576007546001600160a01b031633036112fd5760105460ff8160081c166112745761ffff191661010117601055600c545f906113ce575b60207f5107bb6a8ff24e65eb96e6007aa42503de321b5fccfda5ba2eafbbf8ee5fd36091604051908152a16010805461ff0019169055005b506006546040516336cb886f60e21b815290602090829060049082905f906001600160a01b03165af19081156111c6575f9161140f575b505f600c55611396565b90506020813d60201161143a575b8161142a602093836118e4565b8101031261035957516020611405565b3d915061141d565b34610359575f36600319011261035957602060405160128152f35b34610359575f366003190112610359576008546040516001600160a01b039091168152602090f35b346103595760603660031901126103595761149e611944565b6114a661195a565b6001600160a01b039091165f818152600460209081526040808320338452909152902054604435929083811061157657825f5260036020528360405f205410611567575f516020611f0a5f395f51905f529161150485602093611b20565b5f85815260048452604080822033835285528082209290925585815260038452208054611532908790611b20565b905560018060a01b031693845f526003825260405f206115538282546119aa565b9055604051908152a3602060405160018152f35b631e9acf1760e31b5f5260045ffd5b6313be252b60e01b5f5260045ffd5b34610359575f366003190112610359576020600254604051908152f35b34610359575f366003190112610359576020600a54604051908152f35b34610359575f366003190112610359576008546001600160a01b0381163381900361160057600780546001600160a01b031990811692909217905516600855005b60405162461bcd60e51b815260206004820152600b60248201526a6e6f742070656e64696e6760a81b6044820152606490fd5b346103595760403660031901126103595760075460243590600435906001600160a01b031633036112fd5761138881116116a6576101f4821161167857600955600a55005b60405162461bcd60e51b81526020600482015260066024820152656d617820352560d01b6044820152606490fd5b60405162461bcd60e51b81526020600482015260076024820152666d61782035302560c81b6044820152606490fd5b34610359576020366003190112610359576116ee6119b7565b6001810180911161172e576002546001810180911161172e578161079c61171792600435611abc565b5f19810190811161172e5760209161043691611acf565b634e487b7160e01b5f52601160045260245ffd5b346103595760403660031901126103595761175b611944565b335f8181526004602090815260408083206001600160a01b03909516808452948252918290206024359081905591519182527f8c5be1e5ebec7d5bd14f71427d1e84f3dd0314c0f7b2291e5b200ac8c7c3b92591a3602060405160018152f35b34610359576020366003190112610359576020610436600435611aed565b34610359575f366003190112610359576040515f5f548060011c906001811680156118c0575b6020831081146118ac57828552908115611888575060011461182c575b610a8083610a74818503826118e4565b5f8080527f290decd9548b62a8d60345a988386fc84ba6bc95484008f6362f93160ef3e563939250905b80821061186e57509091508101602001610a7461181c565b919260018160209254838588010152019101909291611856565b60ff191660208086019190915291151560051b84019091019150610a74905061181c565b634e487b7160e01b5f52602260045260245ffd5b91607f16916117ff565b34610359575f3660031901126103595760206104366119b7565b90601f8019910116810190811067ffffffffffffffff82111761190657604052565b634e487b7160e01b5f52604160045260245ffd5b602060409281835280519182918282860152018484015e5f828201840152601f01601f1916010190565b600435906001600160a01b038216820361035957565b602435906001600160a01b038216820361035957565b606090600319011261035957600435906024356001600160a01b038116810361035957906044356001600160a01b03811681036103595790565b9190820180921161172e57565b6040516370a0823160e01b81523060048201526020816024817f00000000000000000000000000000000000000000000000000000000000000006001600160a01b03165afa9081156111c6575f91611a8a575b506006546001600160a01b03168015611a8657906020600492604051938480926278744560e21b82525afa9081156111c6575f91611a50575b611a4d92506119aa565b90565b90506020823d602011611a7e575b81611a6b602093836118e4565b8101031261035957611a4d915190611a43565b3d9150611a5e565b5090565b90506020813d602011611ab4575b81611aa5602093836118e4565b8101031261035957515f611a0a565b3d9150611a98565b8181029291811591840414171561172e57565b8115611ad9570490565b634e487b7160e01b5f52601260045260245ffd5b611af56119b7565b6001810180911161172e57611b0991611abc565b6002546001810180911161172e57611a4d91611acf565b9190820391821161172e57565b60ff60105416611b5957611b3f6119b7565b600b5490818110611b505750505f90565b611a4d91611b20565b5f90565b90816020910312610359575180151581036103595790565b6002546001810180911161172e57611b8c91611abc565b611b946119b7565b6001810180911161172e57611a4d91611acf565b6040516370a0823160e01b81523060048201525f7f00000000000000000000000000000000000000000000000000000000000000006001600160a01b0316602083602481845afa9283156111c6575f93611d62575b5082151580611d55575b611c1057505050565b60065460405163095ea7b360e01b81526001600160a01b039091166004820152602481018490526020816044815f865af19081156111c6575f91611d36575b50156111d1576006546001600160a01b0316803b15610359575f809160246040518094819363b6b55f2560e01b83528960048401525af180156111c657611d21575b5060208291604460018060a01b0360065416604051948593849263095ea7b360e01b845260048401528160248401525af1908115611d16578291611cf7575b5015611ce85750611ce390600c546119aa565b600c55565b6312171d8360e31b8152600490fd5b611d10915060203d6020116106965761068881836118e4565b5f611cd0565b6040513d84823e3d90fd5b602092505f611d2f916118e4565b5f91611c91565b611d4f915060203d6020116106965761068881836118e4565b5f611c4f565b5060ff6010541615611c07565b9092506020813d602011611d8e575b81611d7e602093836118e4565b810103126103595751915f611bfd565b3d9150611d71565b6040516370a0823160e01b81523060048201526020816024817f00000000000000000000000000000000000000000000000000000000000000006001600160a01b03165afa9081156111c6575f91611e8b575b50818110611df5575050565b611e026020915f93611b20565b600654604051632e1a7d4d60e01b815260048101929092529092839160249183916001600160a01b03165af19081156111c6575f91611e59575b50600c5490818110611e505750505f600c55565b611ce391611b20565b90506020813d602011611e83575b81611e74602093836118e4565b8101031261035957515f611e3c565b3d9150611e67565b90506020813d602011611eb5575b81611ea6602093836118e4565b8101031261035957515f611de9565b3d9150611e99565b905f516020611f0a5f395f51905f5260205f9360018060a01b0316928385526003825260408520611eef828254611b20565b9055611efd81600254611b20565b600255604051908152a356feddf252ad1be2c89b69c2b068fc378daa952ba7f163c4a11628f55a4df523b3efa26469706673582212201ee7dbb7b389d6353f6ac2749e85e0de6fc6310837c602b457053e3153f6bfba64736f6c63430008210033","linkReferences":{}},"methodIdentifiers":{"acceptAdmin()":"0e18b681","admin()":"f851a440","allowance(address,address)":"dd62ed3e","approve(address,uint256)":"095ea7b3","asset()":"38d52e0f","balanceOf(address)":"70a08231","convertToAssets(uint256)":"07a2d13a","convertToShares(uint256)":"c6e6f592","decimals()":"313ce567","deposit(uint256,address)":"6e553f65","depositCap()":"dbd5edc7","emergencyShutdown()":"3403c2fc","harvest()":"4641257d","lastReport()":"c3535b52","managementFeeBPS()":"14424a58","maxDeposit(address)":"402d267d","maxWithdraw(address)":"ce96cb77","migrateStrategy(address)":"fafa6c69","name()":"06fdde03","paused()":"5c975abb","pendingAdmin()":"26782247","performanceFeeBPS()":"ac324166","previewDeposit(uint256)":"ef8b30f7","previewRedeem(uint256)":"4cdad506","previewWithdraw(uint256)":"0a28a477","redeem(uint256,address,address)":"ba087652","setDepositCap(uint256)":"86651203","setFees(uint256,uint256)":"0b78f9c0","strategy()":"a8c62e76","symbol()":"95d89b41","totalAssets()":"01e1d114","totalDebt()":"fc7b9c18","totalGainSinceInception()":"d7c16b80","totalSupply()":"18160ddd","totalUBIFunded()":"8581ddf5","transfer(address,uint256)":"a9059cbb","transferAdmin(address)":"75829def","transferFrom(address,address,uint256)":"23b872dd","ubiFee()":"43fda031","unpause()":"3f4ba83a","withdraw(uint256,address,address)":"b460af94"},"id":20}