{"abi":[{"type":"constructor","inputs":[{"name":"_asset","type":"address","internalType":"address"},{"name":"_strategy","type":"address","internalType":"address"},{"name":"_ubiFee","type":"address","internalType":"address"},{"name":"_name","type":"string","internalType":"string"},{"name":"_symbol","type":"string","internalType":"string"},{"name":"_depositCap","type":"uint256","internalType":"uint256"},{"name":"_admin","type":"address","internalType":"address"}],"stateMutability":"nonpayable"},{"type":"function","name":"acceptAdmin","inputs":[],"outputs":[],"stateMutability":"nonpayable"},{"type":"function","name":"admin","inputs":[],"outputs":[{"name":"","type":"address","internalType":"address"}],"stateMutability":"view"},{"type":"function","name":"allowance","inputs":[{"name":"","type":"address","internalType":"address"},{"name":"","type":"address","internalType":"address"}],"outputs":[{"name":"","type":"uint256","internalType":"uint256"}],"stateMutability":"view"},{"type":"function","name":"approve","inputs":[{"name":"spender","type":"address","internalType":"address"},{"name":"amount","type":"uint256","internalType":"uint256"}],"outputs":[{"name":"","type":"bool","internalType":"bool"}],"stateMutability":"nonpayable"},{"type":"function","name":"asset","inputs":[],"outputs":[{"name":"","type":"address","internalType":"contract IERC20"}],"stateMutability":"view"},{"type":"function","name":"balanceOf","inputs":[{"name":"","type":"address","internalType":"address"}],"outputs":[{"name":"","type":"uint256","internalType":"uint256"}],"stateMutability":"view"},{"type":"function","name":"convertToAssets","inputs":[{"name":"shares","type":"uint256","internalType":"uint256"}],"outputs":[{"name":"","type":"uint256","internalType":"uint256"}],"stateMutability":"view"},{"type":"function","name":"convertToShares","inputs":[{"name":"assets","type":"uint256","internalType":"uint256"}],"outputs":[{"name":"","type":"uint256","internalType":"uint256"}],"stateMutability":"view"},{"type":"function","name":"decimals","inputs":[],"outputs":[{"name":"","type":"uint8","internalType":"uint8"}],"stateMutability":"view"},{"type":"function","name":"deposit","inputs":[{"name":"assets","type":"uint256","internalType":"uint256"},{"name":"receiver","type":"address","internalType":"address"}],"outputs":[{"name":"shares","type":"uint256","internalType":"uint256"}],"stateMutability":"nonpayable"},{"type":"function","name":"depositCap","inputs":[],"outputs":[{"name":"","type":"uint256","internalType":"uint256"}],"stateMutability":"view"},{"type":"function","name":"emergencyShutdown","inputs":[],"outputs":[],"stateMutability":"nonpayable"},{"type":"function","name":"harvest","inputs":[],"outputs":[{"name":"profit","type":"uint256","internalType":"uint256"},{"name":"loss","type":"uint256","internalType":"uint256"}],"stateMutability":"nonpayable"},{"type":"function","name":"keepers","inputs":[{"name":"","type":"address","internalType":"address"}],"outputs":[{"name":"","type":"bool","internalType":"bool"}],"stateMutability":"view"},{"type":"function","name":"lastReport","inputs":[],"outputs":[{"name":"","type":"uint256","internalType":"uint256"}],"stateMutability":"view"},{"type":"function","name":"managementFeeBPS","inputs":[],"outputs":[{"name":"","type":"uint256","internalType":"uint256"}],"stateMutability":"view"},{"type":"function","name":"maxDeposit","inputs":[{"name":"","type":"address","internalType":"address"}],"outputs":[{"name":"","type":"uint256","internalType":"uint256"}],"stateMutability":"view"},{"type":"function","name":"maxMint","inputs":[{"name":"","type":"address","internalType":"address"}],"outputs":[{"name":"","type":"uint256","internalType":"uint256"}],"stateMutability":"view"},{"type":"function","name":"maxRedeem","inputs":[{"name":"owner","type":"address","internalType":"address"}],"outputs":[{"name":"","type":"uint256","internalType":"uint256"}],"stateMutability":"view"},{"type":"function","name":"maxWithdraw","inputs":[{"name":"owner","type":"address","internalType":"address"}],"outputs":[{"name":"","type":"uint256","internalType":"uint256"}],"stateMutability":"view"},{"type":"function","name":"migrateStrategy","inputs":[{"name":"newStrategy","type":"address","internalType":"address"}],"outputs":[],"stateMutability":"nonpayable"},{"type":"function","name":"mint","inputs":[{"name":"shares","type":"uint256","internalType":"uint256"},{"name":"receiver","type":"address","internalType":"address"}],"outputs":[{"name":"assets","type":"uint256","internalType":"uint256"}],"stateMutability":"nonpayable"},{"type":"function","name":"name","inputs":[],"outputs":[{"name":"","type":"string","internalType":"string"}],"stateMutability":"view"},{"type":"function","name":"paused","inputs":[],"outputs":[{"name":"","type":"bool","internalType":"bool"}],"stateMutability":"view"},{"type":"function","name":"pendingAdmin","inputs":[],"outputs":[{"name":"","type":"address","internalType":"address"}],"stateMutability":"view"},{"type":"function","name":"performanceFeeBPS","inputs":[],"outputs":[{"name":"","type":"uint256","internalType":"uint256"}],"stateMutability":"view"},{"type":"function","name":"previewDeposit","inputs":[{"name":"assets","type":"uint256","internalType":"uint256"}],"outputs":[{"name":"","type":"uint256","internalType":"uint256"}],"stateMutability":"view"},{"type":"function","name":"previewMint","inputs":[{"name":"shares","type":"uint256","internalType":"uint256"}],"outputs":[{"name":"","type":"uint256","internalType":"uint256"}],"stateMutability":"view"},{"type":"function","name":"previewRedeem","inputs":[{"name":"shares","type":"uint256","internalType":"uint256"}],"outputs":[{"name":"","type":"uint256","internalType":"uint256"}],"stateMutability":"view"},{"type":"function","name":"previewWithdraw","inputs":[{"name":"assets","type":"uint256","internalType":"uint256"}],"outputs":[{"name":"","type":"uint256","internalType":"uint256"}],"stateMutability":"view"},{"type":"function","name":"redeem","inputs":[{"name":"shares","type":"uint256","internalType":"uint256"},{"name":"receiver","type":"address","internalType":"address"},{"name":"owner","type":"address","internalType":"address"}],"outputs":[{"name":"assets","type":"uint256","internalType":"uint256"}],"stateMutability":"nonpayable"},{"type":"function","name":"setDepositCap","inputs":[{"name":"_cap","type":"uint256","internalType":"uint256"}],"outputs":[],"stateMutability":"nonpayable"},{"type":"function","name":"setFees","inputs":[{"name":"_perfBPS","type":"uint256","internalType":"uint256"},{"name":"_mgmtBPS","type":"uint256","internalType":"uint256"}],"outputs":[],"stateMutability":"nonpayable"},{"type":"function","name":"setKeeper","inputs":[{"name":"keeper","type":"address","internalType":"address"},{"name":"enabled","type":"bool","internalType":"bool"}],"outputs":[],"stateMutability":"nonpayable"},{"type":"function","name":"strategy","inputs":[],"outputs":[{"name":"","type":"address","internalType":"address"}],"stateMutability":"view"},{"type":"function","name":"sweepStrategyToken","inputs":[{"name":"token","type":"address","internalType":"address"},{"name":"to","type":"address","internalType":"address"}],"outputs":[],"stateMutability":"nonpayable"},{"type":"function","name":"sweepToken","inputs":[{"name":"token","type":"address","internalType":"address"},{"name":"to","type":"address","internalType":"address"}],"outputs":[],"stateMutability":"nonpayable"},{"type":"function","name":"symbol","inputs":[],"outputs":[{"name":"","type":"string","internalType":"string"}],"stateMutability":"view"},{"type":"function","name":"totalAssets","inputs":[],"outputs":[{"name":"","type":"uint256","internalType":"uint256"}],"stateMutability":"view"},{"type":"function","name":"totalDebt","inputs":[],"outputs":[{"name":"","type":"uint256","internalType":"uint256"}],"stateMutability":"view"},{"type":"function","name":"totalGainSinceInception","inputs":[],"outputs":[{"name":"","type":"uint256","internalType":"uint256"}],"stateMutability":"view"},{"type":"function","name":"totalSupply","inputs":[],"outputs":[{"name":"","type":"uint256","internalType":"uint256"}],"stateMutability":"view"},{"type":"function","name":"totalUBIFunded","inputs":[],"outputs":[{"name":"","type":"uint256","internalType":"uint256"}],"stateMutability":"view"},{"type":"function","name":"transfer","inputs":[{"name":"to","type":"address","internalType":"address"},{"name":"amount","type":"uint256","internalType":"uint256"}],"outputs":[{"name":"","type":"bool","internalType":"bool"}],"stateMutability":"nonpayable"},{"type":"function","name":"transferAdmin","inputs":[{"name":"newAdmin","type":"address","internalType":"address"}],"outputs":[],"stateMutability":"nonpayable"},{"type":"function","name":"transferFrom","inputs":[{"name":"from","type":"address","internalType":"address"},{"name":"to","type":"address","internalType":"address"},{"name":"amount","type":"uint256","internalType":"uint256"}],"outputs":[{"name":"","type":"bool","internalType":"bool"}],"stateMutability":"nonpayable"},{"type":"function","name":"ubiFee","inputs":[],"outputs":[{"name":"","type":"address","internalType":"contract IUBIFeeSplitter"}],"stateMutability":"view"},{"type":"function","name":"unpause","inputs":[],"outputs":[],"stateMutability":"nonpayable"},{"type":"function","name":"withdraw","inputs":[{"name":"assets","type":"uint256","internalType":"uint256"},{"name":"receiver","type":"address","internalType":"address"},{"name":"owner","type":"address","internalType":"address"}],"outputs":[{"name":"shares","type":"uint256","internalType":"uint256"}],"stateMutability":"nonpayable"},{"type":"event","name":"AdminTransferInitiated","inputs":[{"name":"previousAdmin","type":"address","indexed":true,"internalType":"address"},{"name":"pendingAdmin","type":"address","indexed":true,"internalType":"address"}],"anonymous":false},{"type":"event","name":"AdminTransferred","inputs":[{"name":"previousAdmin","type":"address","indexed":true,"internalType":"address"},{"name":"newAdmin","type":"address","indexed":true,"internalType":"address"}],"anonymous":false},{"type":"event","name":"Approval","inputs":[{"name":"owner","type":"address","indexed":true,"internalType":"address"},{"name":"spender","type":"address","indexed":true,"internalType":"address"},{"name":"value","type":"uint256","indexed":false,"internalType":"uint256"}],"anonymous":false},{"type":"event","name":"Deposit","inputs":[{"name":"sender","type":"address","indexed":true,"internalType":"address"},{"name":"owner","type":"address","indexed":true,"internalType":"address"},{"name":"assets","type":"uint256","indexed":false,"internalType":"uint256"},{"name":"shares","type":"uint256","indexed":false,"internalType":"uint256"}],"anonymous":false},{"type":"event","name":"EmergencyShutdown","inputs":[{"name":"returned","type":"uint256","indexed":false,"internalType":"uint256"}],"anonymous":false},{"type":"event","name":"Harvested","inputs":[{"name":"profit","type":"uint256","indexed":false,"internalType":"uint256"},{"name":"loss","type":"uint256","indexed":false,"internalType":"uint256"},{"name":"ubiFee","type":"uint256","indexed":false,"internalType":"uint256"},{"name":"mgmtFee","type":"uint256","indexed":false,"internalType":"uint256"}],"anonymous":false},{"type":"event","name":"KeeperSet","inputs":[{"name":"keeper","type":"address","indexed":true,"internalType":"address"},{"name":"enabled","type":"bool","indexed":false,"internalType":"bool"}],"anonymous":false},{"type":"event","name":"StrategyMigrated","inputs":[{"name":"oldStrategy","type":"address","indexed":true,"internalType":"address"},{"name":"newStrategy","type":"address","indexed":true,"internalType":"address"}],"anonymous":false},{"type":"event","name":"TokenSwept","inputs":[{"name":"token","type":"address","indexed":true,"internalType":"address"},{"name":"to","type":"address","indexed":true,"internalType":"address"},{"name":"amount","type":"uint256","indexed":false,"internalType":"uint256"}],"anonymous":false},{"type":"event","name":"Transfer","inputs":[{"name":"from","type":"address","indexed":true,"internalType":"address"},{"name":"to","type":"address","indexed":true,"internalType":"address"},{"name":"value","type":"uint256","indexed":false,"internalType":"uint256"}],"anonymous":false},{"type":"event","name":"Withdraw","inputs":[{"name":"sender","type":"address","indexed":true,"internalType":"address"},{"name":"receiver","type":"address","indexed":true,"internalType":"address"},{"name":"owner","type":"address","indexed":true,"internalType":"address"},{"name":"assets","type":"uint256","indexed":false,"internalType":"uint256"},{"name":"shares","type":"uint256","indexed":false,"internalType":"uint256"}],"anonymous":false},{"type":"error","name":"CannotSweepAsset","inputs":[]},{"type":"error","name":"DepositCapExceeded","inputs":[]},{"type":"error","name":"InsufficientAllowance","inputs":[]},{"type":"error","name":"InsufficientBalance","inputs":[]},{"type":"error","name":"NotAdmin","inputs":[]},{"type":"error","name":"NotKeeper","inputs":[]},{"type":"error","name":"Paused","inputs":[]},{"type":"error","name":"Reentrant","inputs":[]},{"type":"error","name":"StrategyAssetMismatch","inputs":[]},{"type":"error","name":"StrategyDoesNotSupportSweep","inputs":[]},{"type":"error","name":"TransferFailed","inputs":[]},{"type":"error","name":"ZeroAssets","inputs":[]},{"type":"error","name":"ZeroShares","inputs":[]}],"bytecode":{"object":"0x60a080604052346102ba57612c16803803809161001c82856104dc565b8339810160e0828203126102ba57610033826104ff565b61003f602084016104ff565b9261004c604082016104ff565b60608201519093906001600160401b0381116102ba578161006e918401610513565b608083015190916001600160401b0382116102ba5761008e918401610513565b906100a060c060a085015194016104ff565b6107d060095560c8600a556001600160a01b039485166080819052600680546001600160a01b0319908116998816998a179091556005805490911697909616969096179094558051949594906001600160401b0382116103db575f5490600182811c921680156104d2575b60208310146103bd5781601f84931161045d575b50602090601f83116001146103fa575f926103ef575b50508160011b915f199060031b1c1916175f555b8051906001600160401b0382116103db57600154600181811c911680156103d1575b60208210146103bd57601f811161034f575b50602090601f83116001146102e35791806004969492602096945f926102d8575b50508160011b915f199060031b1c1916176001555b600b556001600160a01b038116156102d1575b600780546001600160a01b0319166001600160a01b039290921691909117905542600d556040516338d52e0f60e01b815292839182905afa9081156102c6575f91610288575b506001600160a01b031603610279576040516126ad908161056982396080518181816102d2015281816107ff01528181610a4501528181610e9b01528181611177015281816114d701528181611842015281816119f1015281816120a00152818161230c01526124ff0152f35b636bda787360e11b5f5260045ffd5b90506020813d6020116102be575b816102a3602093836104dc565b810103126102ba576102b4906104ff565b5f61020c565b5f80fd5b3d9150610296565b6040513d5f823e3d90fd5b50336101c6565b015190505f8061019e565b90601f1983169160015f52815f20925f5b81811061033757509260019285926020989660049a98961061031f575b505050811b016001556101b3565b01515f1960f88460031b161c191690555f8080610311565b929360206001819287860151815501950193016102f4565b8281111561017d5760015f52601f830160051c7fb10e2d527612073b26eecdfd717e6a320cf44b4afac2b0732d9fcbe2b7fa0cf6602085106103b5575b81601f9101920160051c03905f5b8281106103a857505061017d565b5f8282015560010161039a565b5f915061038c565b634e487b7160e01b5f52602260045260245ffd5b90607f169061016b565b634e487b7160e01b5f52604160045260245ffd5b015190505f80610135565b5f8080528281209350601f198516905b818110610445575090846001959493921061042d575b505050811b015f55610149565b01515f1960f88460031b161c191690555f8080610420565b9293602060018192878601518155019501930161040a565b8281111561011f575f8052909150601f830160051c7f290decd9548b62a8d60345a988386fc84ba6bc95484008f6362f93160ef3e563602085106104ca575b849392601f0160051c82900391015f5b8281106104ba57505061011f565b5f818301558594506001016104ac565b5f915061049c565b91607f169161010b565b601f909101601f19168101906001600160401b038211908210176103db57604052565b51906001600160a01b03821682036102ba57565b81601f820112156102ba578051906001600160401b0382116103db5760405192610547601f8401601f1916602001856104dc565b828452602083830101116102ba57815f9260208093018386015e830101529056fe60806040526004361015610011575f80fd5b5f5f3560e01c806301e1d11414611f9857806306fdde0314611ea757806307a2d13a14611e89578063095ea7b314611e105780630a28a47714611da35780630b78f9c014611d015780630e18b68114611c5f57806314424a5814611c4257806318160ddd14611c2557806323b872dd14611b25578063258836fe146119ad5780632678224714611985578063313ce5671461196a5780633403c2fc1461187157806338d52e0f1461182d5780633bbd64bc146117f05780633f4ba83a146117b3578063402d267d1461178f57806343fda031146117675780634641257d1461127f5780634cdad506146112605780635c975abb1461123d5780636e553f65146110df57806370a082311461050157806375829def1461102a5780638581ddf51461100c5780638665120314610fd057806394bf804d14610dcd57806395d89b4114610cc4578063a8c62e7614610c9b578063a9059cbb14610bfa578063ac32416614610bdc578063b3d7f6b914610b5d578063b460af9414610969578063ba08765214610759578063c3535b521461073b578063c63d75b614610716578063c6e6f59214610469578063ce96cb77146106dc578063cea8309c146105f0578063d1b9e85314610558578063d7c16b801461053a578063d905777e14610501578063dbd5edc7146104e3578063dd62ed3e14610490578063ef8b30f714610469578063f851a44014610440578063fafa6c69146102555763fc7b9c1814610235575f80fd5b346102525780600319360112610252576020600c54604051908152f35b80fd5b50346102525760203660031901126102525761026f612012565b6007546001600160a01b031633036104315760125460ff81166104225760ff19166001176012556040516338d52e0f60e01b81526001600160a01b039190911690602081600481855afa9081156104175783916103d1575b506001600160a01b037f000000000000000000000000000000000000000000000000000000000000000081169116036103c25760018060a01b0360065416600c54610358575b600680546001600160a01b031916831790556103276122f6565b7f100b69bb6b504e1252e36b375233158edee64d071b399e2f81473a695fd1b0218380a360ff196012541660125580f35b6040516336cb886f60e21b815260208160048187865af180156103b757610384575b5082600c5561030d565b6020813d6020116103af575b8161039d60209383611fb2565b810103126103ab575161037a565b5f80fd5b3d9150610390565b6040513d86823e3d90fd5b636bda787360e11b8252600482fd5b90506020813d60201161040f575b816103ec60209383611fb2565b8101031261040b57516001600160a01b038116810361040b575f6102c7565b8280fd5b3d91506103df565b6040513d85823e3d90fd5b63769dd35360e11b8352600483fd5b637bfa4b9f60e01b8252600482fd5b50346102525780600319360112610252576007546040516001600160a01b039091168152602090f35b5034610252576020366003190112610252576020610488600435612278565b604051908152f35b50346102525760403660031901126102525760406104ac612012565b916104b5612028565b9260018060a01b031681526004602052209060018060a01b03165f52602052602060405f2054604051908152f35b50346102525780600319360112610252576020600b54604051908152f35b5034610252576020366003190112610252576020906040906001600160a01b03610529612012565b168152600383522054604051908152f35b50346102525780600319360112610252576020600e54604051908152f35b503461025257604036600319011261025257610572612012565b6024359081151580920361040b576007546001600160a01b031633036105e15760207f8dd62d4e1f60b96148552898e743aa2b571686baa26f4f1b647565dc3996c1a79160018060a01b031692838552601182526040852060ff1981541660ff8316179055604051908152a280f35b637bfa4b9f60e01b8352600483fd5b50346102525760403660031901126102525761060a612012565b610612612028565b6007549091906001600160a01b031633036105e15760065460405163b57a4b4d60e01b602082019081526001600160a01b03938416602483015293831660448083019190915281528493849390921691908390610670606482611fb2565b51925af13d156106d7573d67ffffffffffffffff81116106c357604051906106a2601f8201601f191660200183611fb2565b81528260203d92013e5b156106b45780f35b63437e513160e11b8152600490fd5b634e487b7160e01b83526041600452602483fd5b6106ac565b503461025257602036600319011261025257602090610488906040906001600160a01b03610708612012565b1681526003845220546121bb565b503461025257602036600319011261025257610730612012565b506020610488612243565b50346102525780600319360112610252576020600d54604051908152f35b5034610252576107683661203e565b909160125460ff811661095a5760ff1916600117601255801561094b5761078e816121bb565b92831561093c576001600160a01b03831692338490036108e5575b8386526003602052826040872054106108d657826107cf916107ca876124e4565b61260b565b60405163a9059cbb60e01b81526001600160a01b03821660048201526024810185905260208180604481010381897f00000000000000000000000000000000000000000000000000000000000000006001600160a01b03165af19081156108cb57869161089c575b501561088d5760209450604051918483528583015260018060a01b0316907ffbde797d201c681b91056529119e0b02407c7bb96a4a2c75c01fc9667232c8db60403392a460ff1960125416601255604051908152f35b6312171d8360e31b8552600485fd5b6108be915060203d6020116108c4575b6108b68183611fb2565b8101906121fb565b5f610837565b503d6108ac565b6040513d88823e3d90fd5b631e9acf1760e31b8652600486fd5b838652600460209081526040808820335f908152925290205483811061092d578361090f916121ee565b848752600460209081526040808920335f90815292529020556107a9565b6313be252b60e01b8752600487fd5b630cb65c7760e21b8552600485fd5b639811e0c760e01b8452600484fd5b63769dd35360e11b8552600485fd5b5034610252576109783661203e565b909160125460ff811661095a5760ff19166001176012558015610b4e576002546109a0612085565b9060018201809211610b3a5760018101809111610b3a57816109c56109ca928561218a565b612078565b5f198101908111610b3a57906109df9161219d565b926001600160a01b0383169233849003610af2575b8386526003602052846040872054106108d65784610a15916107ca856124e4565b60405163a9059cbb60e01b81526001600160a01b03821660048201526024810183905260208180604481010381897f00000000000000000000000000000000000000000000000000000000000000006001600160a01b03165af19081156108cb578691610ad3575b501561088d5760209450604051918252838583015260018060a01b0316907ffbde797d201c681b91056529119e0b02407c7bb96a4a2c75c01fc9667232c8db60403392a460ff1960125416601255604051908152f35b610aec915060203d6020116108c4576108b68183611fb2565b5f610a7d565b838652600460209081526040808820335f908152925290205485811061092d5785610b1c916121ee565b848752600460209081526040808920335f90815292529020556109f4565b634e487b7160e01b86526011600452602486fd5b630cb65c7760e21b8452600484fd5b503461025257602036600319011261025257610b77612085565b60018101809111610bc857610b8e9060043561218a565b90610b9c6002548093612078565b9060018301809311610bb4576020610488848461219d565b634e487b7160e01b81526011600452602490fd5b634e487b7160e01b82526011600452602482fd5b50346102525780600319360112610252576020600954604051908152f35b503461025257604036600319011261025257610c14612012565b60243590338352600360205281604084205410610c8c576040903384526003602052818420610c448482546121ee565b90556001600160a01b0316808452600360205292208054610c66908390612078565b90556040519081525f5160206126585f395f51905f5260203392a3602060405160018152f35b631e9acf1760e31b8352600483fd5b50346102525780600319360112610252576006546040516001600160a01b039091168152602090f35b50346102525780600319360112610252576040519080600154908160011c91600181168015610dc3575b602084108114610daf57838652908115610d885750600114610d2b575b610d2784610d1b81860382611fb2565b60405191829182611fe8565b0390f35b600181527fb10e2d527612073b26eecdfd717e6a320cf44b4afac2b0732d9fcbe2b7fa0cf6939250905b808210610d6e57509091508101602001610d1b82610d0b565b919260018160209254838588010152019101909291610d55565b60ff191660208087019190915292151560051b85019092019250610d1b9150839050610d0b565b634e487b7160e01b83526022600452602483fd5b92607f1692610cee565b503461025257604036600319011261025257600435610dea612028565b9060ff60105416610fc15760125460ff8116610fb25760ff19166001176012558015610fa357610e18612085565b60018101809111610f8f57610e2d908261218a565b610e3a6002548092612078565b60018201809211610f7b5790610e4f9161219d565b918215610b4e57610e62836109c5612085565b600b5410610f6c576040516323b872dd60e01b815233600482015230602482015260448101849052602081606481886001600160a01b037f0000000000000000000000000000000000000000000000000000000000000000165af1908115610f61578591610f42575b5015610f335760209350610edf82826122ab565b610ee76122f6565b604051918383528483015260018060a01b0316907fdcbc1c05240f31ff3ad067ef1ee35ce4997762752e3a095284754544f4c709d760403392a360ff1960125416601255604051908152f35b6312171d8360e31b8452600484fd5b610f5b915060203d6020116108c4576108b68183611fb2565b5f610ecb565b6040513d87823e3d90fd5b6324d758c360e21b8452600484fd5b634e487b7160e01b85526011600452602485fd5b634e487b7160e01b84526011600452602484fd5b639811e0c760e01b8352600483fd5b63769dd35360e11b8452600484fd5b6313d0ff5960e31b8352600483fd5b5034610252576020366003190112610252576007546001600160a01b03163303610ffd57600435600b5580f35b637bfa4b9f60e01b8152600490fd5b50346102525780600319360112610252576020600f54604051908152f35b503461025257602036600319011261025257611044612012565b6007546001600160a01b031690338290036105e1576001600160a01b03169081156110a257600880546001600160a01b031916831790557fb4d7bcb4d9a5d6ef6e827e3b1554e5a2578ad9ca843903d42b05d08bfa3458948380a380f35b60405162461bcd60e51b815260206004820152601560248201527423b7b7b22b30bab63a1d103d32b9379030b236b4b760591b6044820152606490fd5b5034610252576040366003190112610252576004356110fc612028565b9060ff60105416610fc15760125460ff8116610fb25760ff1916600117601255801561122e5761112b81612278565b91821561094b5761113e826109c5612085565b600b5410610f6c576040516323b872dd60e01b815233600482015230602482015260448101839052602081606481886001600160a01b037f0000000000000000000000000000000000000000000000000000000000000000165af1908115610f6157859161120f575b5015610f3357602093506111bb83826122ab565b6111c36122f6565b604051918252828483015260018060a01b0316907fdcbc1c05240f31ff3ad067ef1ee35ce4997762752e3a095284754544f4c709d760403392a360ff1960125416601255604051908152f35b611228915060203d6020116108c4576108b68183611fb2565b5f6111a7565b630cb65c7760e21b8352600483fd5b5034610252578060031936011261025257602060ff601054166040519015158152f35b50346102525760203660031901126102525760206104886004356121bb565b50346103ab575f3660031901126103ab5760125460ff81166117585760ff1916600117601255600754336001600160a01b0391909116141580611741575b6117325760065460408051634641257d60e01b815291829060049082905f906001600160a01b03165af18015611684575f915f916116f9575b505f925f908315158061138b575b506040947f4c0f499ffe6befa0ca7c826b0916cf87bea98de658013e76938489368d60d5099260809285611364575b5042600d55865191868352856020840152878301526060820152a160ff196012541660125582519182526020820152f35b600c54869080821061137c5750505b600c555f611333565b61138692506121ee565b611373565b61271061139a6009548761218a565b049064496cebb8006113c56113b1600d54426121ee565b6113c0600c54600a549061218a565b61218a565b046113d08184612078565b928784116116f1575b83611445575b50509260809261142461141c604099947f4c0f499ffe6befa0ca7c826b0916cf87bea98de658013e76938489368d60d50997611431575b896121ee565b600e54612078565b600e559250925094611304565b61143d8a600c54612078565b600c55611416565b600654604051632e1a7d4d60e01b81526004810195909552919391602090839060249082905f906001600160a01b03165af1918215611684575f926116bd575b5061149282600c546121ee565b600c558193826114a3575b506113df565b60055460405163095ea7b360e01b81526001600160a01b03918216600482015260248101859052969a5092969395919290917f0000000000000000000000000000000000000000000000000000000000000000909116906020816044815f865af1908115611684575f9161169e575b501561168f576005546001600160a01b0316803b156103ab575f8091606460405180948193633e5a775160e11b83528d60048401523060248401528760448401525af180156116845761166f575b5060208a91604460018060a01b0360055416604051948593849263095ea7b360e01b845260048401528160248401525af1908115611664578a91611645575b5015611636579260809492604099926115e988966115e07f4c0f499ffe6befa0ca7c826b0916cf87bea98de658013e76938489368d60d5099a600f54612078565b600f5582612078565b91821561162557509161161561160e61141c93611609611424968a61218a565b61219d565b80976121ee565b945b94975094995082955061149d565b946114249361141c93509150611617565b6312171d8360e31b8952600489fd5b61165e915060203d6020116108c4576108b68183611fb2565b5f61159f565b6040513d8c823e3d90fd5b60209a505f61167d91611fb2565b5f99611560565b6040513d5f823e3d90fd5b6312171d8360e31b5f5260045ffd5b6116b7915060203d6020116108c4576108b68183611fb2565b5f611512565b9091506020813d6020116116e9575b816116d960209383611fb2565b810103126103ab5751905f611485565b3d91506116cc565b8793506113d9565b9150506040813d60401161172a575b8161171560409383611fb2565b810103126103ab57602081519101515f6112f6565b3d9150611708565b631ea2564f60e31b5f5260045ffd5b50335f52601160205260ff60405f205416156112bd565b63769dd35360e11b5f5260045ffd5b346103ab575f3660031901126103ab576005546040516001600160a01b039091168152602090f35b346103ab5760203660031901126103ab576117a8612012565b506020610488612213565b346103ab575f3660031901126103ab576007546001600160a01b031633036117e1576010805460ff19169055005b637bfa4b9f60e01b5f5260045ffd5b346103ab5760203660031901126103ab576001600160a01b03611811612012565b165f526011602052602060ff60405f2054166040519015158152f35b346103ab575f3660031901126103ab576040517f00000000000000000000000000000000000000000000000000000000000000006001600160a01b03168152602090f35b346103ab575f3660031901126103ab576007546001600160a01b031633036117e15760125460ff81166117585760019060ff191617601255600160ff1960105416176010555f600c546118f6575b60207f5107bb6a8ff24e65eb96e6007aa42503de321b5fccfda5ba2eafbbf8ee5fd36091604051908152a16012805460ff19169055005b506006546040516336cb886f60e21b815290602090829060049082905f906001600160a01b03165af1908115611684575f91611937575b505f600c556118bf565b90506020813d602011611962575b8161195260209383611fb2565b810103126103ab5751602061192d565b3d9150611945565b346103ab575f3660031901126103ab57602060405160128152f35b346103ab575f3660031901126103ab576008546040516001600160a01b039091168152602090f35b346103ab5760403660031901126103ab576119c6612012565b6119ce612028565b6007549091906001600160a01b031633036117e1576001600160a01b03908116907f0000000000000000000000000000000000000000000000000000000000000000168114611b16576040516370a0823160e01b815230600482015291602083602481855afa928315611684575f93611ae2575b5082611a4a57005b60405163a9059cbb60e01b81526001600160a01b0382166004820152602481018490526020816044815f875af1908115611684575f91611ac3575b501561168f576040519283526001600160a01b0316917f115d7b5114b5954762cc233b141a7c777a8f79d93f50af7216d645c87fb4883e90602090a3005b611adc915060203d6020116108c4576108b68183611fb2565b84611a85565b9092506020813d602011611b0e575b81611afe60209383611fb2565b810103126103ab57519183611a42565b3d9150611af1565b63a83f6a4360e01b5f5260045ffd5b346103ab5760603660031901126103ab57611b3e612012565b611b46612028565b6001600160a01b039091165f8181526004602090815260408083203384529091529020546044359290838110611c1657825f5260036020528360405f205410611c07575f5160206126585f395f51905f5291611ba4856020936121ee565b5f85815260048452604080822033835285528082209290925585815260038452208054611bd29087906121ee565b905560018060a01b031693845f526003825260405f20611bf3828254612078565b9055604051908152a3602060405160018152f35b631e9acf1760e31b5f5260045ffd5b6313be252b60e01b5f5260045ffd5b346103ab575f3660031901126103ab576020600254604051908152f35b346103ab575f3660031901126103ab576020600a54604051908152f35b346103ab575f3660031901126103ab576008546001600160a01b0381169033829003611cce57600780546001600160a01b0319808216851790925591166008556001600160a01b03167ff8ccb027dfcd135e000e9d45e6cc2d662578a8825d4c45b5e32e0adf67e79ec65f80a3005b60405162461bcd60e51b815260206004820152600b60248201526a6e6f742070656e64696e6760a81b6044820152606490fd5b346103ab5760403660031901126103ab5760075460243590600435906001600160a01b031633036117e1576113888111611d74576101f48211611d4657600955600a55005b60405162461bcd60e51b81526020600482015260066024820152656d617820352560d01b6044820152606490fd5b60405162461bcd60e51b81526020600482015260076024820152666d61782035302560c81b6044820152606490fd5b346103ab5760203660031901126103ab57611dbc612085565b60018101809111611dfc5760025460018101809111611dfc57816109c5611de59260043561218a565b5f198101908111611dfc576020916104889161219d565b634e487b7160e01b5f52601160045260245ffd5b346103ab5760403660031901126103ab57611e29612012565b335f8181526004602090815260408083206001600160a01b03909516808452948252918290206024359081905591519182527f8c5be1e5ebec7d5bd14f71427d1e84f3dd0314c0f7b2291e5b200ac8c7c3b92591a3602060405160018152f35b346103ab5760203660031901126103ab5760206104886004356121bb565b346103ab575f3660031901126103ab576040515f5f548060011c90600181168015611f8e575b602083108114611f7a57828552908115611f565750600114611efa575b610d2783610d1b81850382611fb2565b5f8080527f290decd9548b62a8d60345a988386fc84ba6bc95484008f6362f93160ef3e563939250905b808210611f3c57509091508101602001610d1b611eea565b919260018160209254838588010152019101909291611f24565b60ff191660208086019190915291151560051b84019091019150610d1b9050611eea565b634e487b7160e01b5f52602260045260245ffd5b91607f1691611ecd565b346103ab575f3660031901126103ab576020610488612085565b90601f8019910116810190811067ffffffffffffffff821117611fd457604052565b634e487b7160e01b5f52604160045260245ffd5b602060409281835280519182918282860152018484015e5f828201840152601f01601f1916010190565b600435906001600160a01b03821682036103ab57565b602435906001600160a01b03821682036103ab57565b60609060031901126103ab57600435906024356001600160a01b03811681036103ab57906044356001600160a01b03811681036103ab5790565b91908201809211611dfc57565b6040516370a0823160e01b81523060048201526020816024817f00000000000000000000000000000000000000000000000000000000000000006001600160a01b03165afa908115611684575f91612158575b506006546001600160a01b0316801561215457906020600492604051938480926278744560e21b82525afa908115611684575f9161211e575b61211b9250612078565b90565b90506020823d60201161214c575b8161213960209383611fb2565b810103126103ab5761211b915190612111565b3d915061212c565b5090565b90506020813d602011612182575b8161217360209383611fb2565b810103126103ab57515f6120d8565b3d9150612166565b81810292918115918404141715611dfc57565b81156121a7570490565b634e487b7160e01b5f52601260045260245ffd5b6121c3612085565b60018101809111611dfc576121d79161218a565b60025460018101809111611dfc5761211b9161219d565b91908203918211611dfc57565b908160209103126103ab575180151581036103ab5790565b60ff6010541661223f57612225612085565b600b54908181106122365750505f90565b61211b916121ee565b5f90565b60ff6010541661223f57612255612085565b600b54808210156122725761211b9161226d916121ee565b612278565b50505f90565b60025460018101809111611dfc5761228f9161218a565b612297612085565b60018101809111611dfc5761211b9161219d565b5f5160206126585f395f51905f5260205f926122c985600254612078565b60025560018060a01b03169384845260038252604084206122eb828254612078565b9055604051908152a3565b6040516370a0823160e01b81523060048201525f7f00000000000000000000000000000000000000000000000000000000000000006001600160a01b0316602083602481845afa928315611684575f936124b0575b50821515806124a3575b61235e57505050565b60065460405163095ea7b360e01b81526001600160a01b039091166004820152602481018490526020816044815f865af1908115611684575f91612484575b501561168f576006546001600160a01b0316803b156103ab575f809160246040518094819363b6b55f2560e01b83528960048401525af180156116845761246f575b5060208291604460018060a01b0360065416604051948593849263095ea7b360e01b845260048401528160248401525af1908115612464578291612445575b5015612436575061243190600c54612078565b600c55565b6312171d8360e31b8152600490fd5b61245e915060203d6020116108c4576108b68183611fb2565b5f61241e565b6040513d84823e3d90fd5b602092505f61247d91611fb2565b5f916123df565b61249d915060203d6020116108c4576108b68183611fb2565b5f61239d565b5060ff6010541615612355565b9092506020813d6020116124dc575b816124cc60209383611fb2565b810103126103ab5751915f61234b565b3d91506124bf565b6040516370a0823160e01b81523060048201526020816024817f00000000000000000000000000000000000000000000000000000000000000006001600160a01b03165afa908115611684575f916125d9575b50818110612543575050565b6125506020915f936121ee565b600654604051632e1a7d4d60e01b815260048101929092529092839160249183916001600160a01b03165af1908115611684575f916125a7575b50600c549081811061259e5750505f600c55565b612431916121ee565b90506020813d6020116125d1575b816125c260209383611fb2565b810103126103ab57515f61258a565b3d91506125b5565b90506020813d602011612603575b816125f460209383611fb2565b810103126103ab57515f612537565b3d91506125e7565b905f5160206126585f395f51905f5260205f9360018060a01b031692838552600382526040852061263d8282546121ee565b905561264b816002546121ee565b600255604051908152a356feddf252ad1be2c89b69c2b068fc378daa952ba7f163c4a11628f55a4df523b3efa26469706673582212204881e0222981b63dac562e35c22b80f8c8868c1aa79455ef3efa4e26e1016a2764736f6c63430008210033","linkReferences":{}},"methodIdentifiers":{"acceptAdmin()":"0e18b681","admin()":"f851a440","allowance(address,address)":"dd62ed3e","approve(address,uint256)":"095ea7b3","asset()":"38d52e0f","balanceOf(address)":"70a08231","convertToAssets(uint256)":"07a2d13a","convertToShares(uint256)":"c6e6f592","decimals()":"313ce567","deposit(uint256,address)":"6e553f65","depositCap()":"dbd5edc7","emergencyShutdown()":"3403c2fc","harvest()":"4641257d","keepers(address)":"3bbd64bc","lastReport()":"c3535b52","managementFeeBPS()":"14424a58","maxDeposit(address)":"402d267d","maxMint(address)":"c63d75b6","maxRedeem(address)":"d905777e","maxWithdraw(address)":"ce96cb77","migrateStrategy(address)":"fafa6c69","mint(uint256,address)":"94bf804d","name()":"06fdde03","paused()":"5c975abb","pendingAdmin()":"26782247","performanceFeeBPS()":"ac324166","previewDeposit(uint256)":"ef8b30f7","previewMint(uint256)":"b3d7f6b9","previewRedeem(uint256)":"4cdad506","previewWithdraw(uint256)":"0a28a477","redeem(uint256,address,address)":"ba087652","setDepositCap(uint256)":"86651203","setFees(uint256,uint256)":"0b78f9c0","setKeeper(address,bool)":"d1b9e853","strategy()":"a8c62e76","sweepStrategyToken(address,address)":"cea8309c","sweepToken(address,address)":"258836fe","symbol()":"95d89b41","totalAssets()":"01e1d114","totalDebt()":"fc7b9c18","totalGainSinceInception()":"d7c16b80","totalSupply()":"18160ddd","totalUBIFunded()":"8581ddf5","transfer(address,uint256)":"a9059cbb","transferAdmin(address)":"75829def","transferFrom(address,address,uint256)":"23b872dd","ubiFee()":"43fda031","unpause()":"3f4ba83a","withdraw(uint256,address,address)":"b460af94"},"id":60}