{"abi":[{"type":"constructor","inputs":[{"name":"_goodDollar","type":"address","internalType":"address"},{"name":"_treasury","type":"address","internalType":"address"},{"name":"_admin","type":"address","internalType":"address"}],"stateMutability":"nonpayable"},{"type":"function","name":"activeIlks","inputs":[{"name":"","type":"uint256","internalType":"uint256"}],"outputs":[{"name":"","type":"bytes32","internalType":"bytes32"}],"stateMutability":"view"},{"type":"function","name":"admin","inputs":[],"outputs":[{"name":"","type":"address","internalType":"address"}],"stateMutability":"view"},{"type":"function","name":"dailyStablecoinUBI","inputs":[],"outputs":[{"name":"","type":"uint256","internalType":"uint256"}],"stateMutability":"view"},{"type":"function","name":"getActiveIlkCount","inputs":[],"outputs":[{"name":"","type":"uint256","internalType":"uint256"}],"stateMutability":"view"},{"type":"function","name":"getIlkBreakdown","inputs":[],"outputs":[{"name":"ilks","type":"bytes32[]","internalType":"bytes32[]"},{"name":"fees","type":"uint256[]","internalType":"uint256[]"}],"stateMutability":"view"},{"type":"function","name":"getIlkStabilityFees","inputs":[{"name":"ilk","type":"bytes32","internalType":"bytes32"}],"outputs":[{"name":"","type":"uint256","internalType":"uint256"}],"stateMutability":"view"},{"type":"function","name":"getMonthlyUBIEstimate","inputs":[],"outputs":[{"name":"estimated","type":"uint256","internalType":"uint256"},{"name":"target","type":"uint256","internalType":"uint256"},{"name":"progress","type":"uint256","internalType":"uint256"}],"stateMutability":"view"},{"type":"function","name":"getStablecoinSocialImpactRate","inputs":[],"outputs":[{"name":"","type":"uint256","internalType":"uint256"}],"stateMutability":"view"},{"type":"function","name":"getStablecoinUBIStats","inputs":[],"outputs":[{"name":"stabilityFees","type":"uint256","internalType":"uint256"},{"name":"mintingFees","type":"uint256","internalType":"uint256"},{"name":"liquidationFees","type":"uint256","internalType":"uint256"},{"name":"governanceFees","type":"uint256","internalType":"uint256"},{"name":"ubiFromStability","type":"uint256","internalType":"uint256"},{"name":"ubiFromMinting","type":"uint256","internalType":"uint256"},{"name":"ubiFromLiquidations","type":"uint256","internalType":"uint256"},{"name":"ubiFromGovernance","type":"uint256","internalType":"uint256"},{"name":"totalUBI","type":"uint256","internalType":"uint256"}],"stateMutability":"view"},{"type":"function","name":"getTodayStablecoinImpact","inputs":[],"outputs":[{"name":"currentDay","type":"uint256","internalType":"uint256"},{"name":"ubiAmount","type":"uint256","internalType":"uint256"}],"stateMutability":"view"},{"type":"function","name":"getUserMintingFees","inputs":[{"name":"user","type":"address","internalType":"address"}],"outputs":[{"name":"","type":"uint256","internalType":"uint256"}],"stateMutability":"view"},{"type":"function","name":"goodDollar","inputs":[],"outputs":[{"name":"","type":"address","internalType":"contract IGoodDollarToken"}],"stateMutability":"view"},{"type":"function","name":"ilkExists","inputs":[{"name":"","type":"bytes32","internalType":"bytes32"}],"outputs":[{"name":"","type":"bool","internalType":"bool"}],"stateMutability":"view"},{"type":"function","name":"lastDayTimestamp","inputs":[],"outputs":[{"name":"","type":"uint256","internalType":"uint256"}],"stateMutability":"view"},{"type":"function","name":"mintingFeesByUser","inputs":[{"name":"","type":"address","internalType":"address"}],"outputs":[{"name":"","type":"uint256","internalType":"uint256"}],"stateMutability":"view"},{"type":"function","name":"monthlyTargetUBI","inputs":[],"outputs":[{"name":"","type":"uint256","internalType":"uint256"}],"stateMutability":"view"},{"type":"function","name":"protocolBPS","inputs":[],"outputs":[{"name":"","type":"uint256","internalType":"uint256"}],"stateMutability":"view"},{"type":"function","name":"protocolTreasury","inputs":[],"outputs":[{"name":"","type":"address","internalType":"address"}],"stateMutability":"view"},{"type":"function","name":"psmContributions","inputs":[{"name":"","type":"address","internalType":"address"}],"outputs":[{"name":"","type":"uint256","internalType":"uint256"}],"stateMutability":"view"},{"type":"function","name":"setFeeSplit","inputs":[{"name":"_ubiBPS","type":"uint256","internalType":"uint256"},{"name":"_protocolBPS","type":"uint256","internalType":"uint256"}],"outputs":[],"stateMutability":"nonpayable"},{"type":"function","name":"setGoodDollar","inputs":[{"name":"_goodDollar","type":"address","internalType":"address"}],"outputs":[],"stateMutability":"nonpayable"},{"type":"function","name":"setMonthlyTarget","inputs":[{"name":"_target","type":"uint256","internalType":"uint256"}],"outputs":[],"stateMutability":"nonpayable"},{"type":"function","name":"setTreasury","inputs":[{"name":"_treasury","type":"address","internalType":"address"}],"outputs":[],"stateMutability":"nonpayable"},{"type":"function","name":"setUBIRecipient","inputs":[{"name":"_ubiRecipient","type":"address","internalType":"address"}],"outputs":[],"stateMutability":"nonpayable"},{"type":"function","name":"splitFee","inputs":[{"name":"totalFee","type":"uint256","internalType":"uint256"},{"name":"dAppRecipient","type":"address","internalType":"address"}],"outputs":[{"name":"ubiShare","type":"uint256","internalType":"uint256"},{"name":"protocolShare","type":"uint256","internalType":"uint256"},{"name":"dAppShare","type":"uint256","internalType":"uint256"}],"stateMutability":"nonpayable"},{"type":"function","name":"splitFeeToken","inputs":[{"name":"totalFee","type":"uint256","internalType":"uint256"},{"name":"dAppRecipient","type":"address","internalType":"address"},{"name":"token","type":"address","internalType":"address"}],"outputs":[{"name":"ubiShare","type":"uint256","internalType":"uint256"},{"name":"protocolShare","type":"uint256","internalType":"uint256"},{"name":"dAppShare","type":"uint256","internalType":"uint256"}],"stateMutability":"nonpayable"},{"type":"function","name":"splitGovernanceFee","inputs":[{"name":"totalFee","type":"uint256","internalType":"uint256"},{"name":"dAppRecipient","type":"address","internalType":"address"},{"name":"token","type":"address","internalType":"address"},{"name":"proposer","type":"address","internalType":"address"}],"outputs":[{"name":"ubiShare","type":"uint256","internalType":"uint256"},{"name":"protocolShare","type":"uint256","internalType":"uint256"},{"name":"dAppShare","type":"uint256","internalType":"uint256"}],"stateMutability":"nonpayable"},{"type":"function","name":"splitLiquidationPenalty","inputs":[{"name":"totalFee","type":"uint256","internalType":"uint256"},{"name":"dAppRecipient","type":"address","internalType":"address"},{"name":"token","type":"address","internalType":"address"},{"name":"ilk","type":"bytes32","internalType":"bytes32"},{"name":"liquidatedUser","type":"address","internalType":"address"}],"outputs":[{"name":"ubiShare","type":"uint256","internalType":"uint256"},{"name":"protocolShare","type":"uint256","internalType":"uint256"},{"name":"dAppShare","type":"uint256","internalType":"uint256"}],"stateMutability":"nonpayable"},{"type":"function","name":"splitMintingFee","inputs":[{"name":"totalFee","type":"uint256","internalType":"uint256"},{"name":"dAppRecipient","type":"address","internalType":"address"},{"name":"token","type":"address","internalType":"address"},{"name":"user","type":"address","internalType":"address"},{"name":"direction","type":"string","internalType":"string"}],"outputs":[{"name":"ubiShare","type":"uint256","internalType":"uint256"},{"name":"protocolShare","type":"uint256","internalType":"uint256"},{"name":"dAppShare","type":"uint256","internalType":"uint256"}],"stateMutability":"nonpayable"},{"type":"function","name":"splitStabilityFee","inputs":[{"name":"totalFee","type":"uint256","internalType":"uint256"},{"name":"dAppRecipient","type":"address","internalType":"address"},{"name":"token","type":"address","internalType":"address"},{"name":"ilk","type":"bytes32","internalType":"bytes32"}],"outputs":[{"name":"ubiShare","type":"uint256","internalType":"uint256"},{"name":"protocolShare","type":"uint256","internalType":"uint256"},{"name":"dAppShare","type":"uint256","internalType":"uint256"}],"stateMutability":"nonpayable"},{"type":"function","name":"stabilityFeesByIlk","inputs":[{"name":"","type":"bytes32","internalType":"bytes32"}],"outputs":[{"name":"","type":"uint256","internalType":"uint256"}],"stateMutability":"view"},{"type":"function","name":"totalGovernanceFees","inputs":[],"outputs":[{"name":"","type":"uint256","internalType":"uint256"}],"stateMutability":"view"},{"type":"function","name":"totalLiquidationFees","inputs":[],"outputs":[{"name":"","type":"uint256","internalType":"uint256"}],"stateMutability":"view"},{"type":"function","name":"totalMintingFees","inputs":[],"outputs":[{"name":"","type":"uint256","internalType":"uint256"}],"stateMutability":"view"},{"type":"function","name":"totalStabilityFees","inputs":[],"outputs":[{"name":"","type":"uint256","internalType":"uint256"}],"stateMutability":"view"},{"type":"function","name":"totalUBIFromGovernance","inputs":[],"outputs":[{"name":"","type":"uint256","internalType":"uint256"}],"stateMutability":"view"},{"type":"function","name":"totalUBIFromLiquidations","inputs":[],"outputs":[{"name":"","type":"uint256","internalType":"uint256"}],"stateMutability":"view"},{"type":"function","name":"totalUBIFromMinting","inputs":[],"outputs":[{"name":"","type":"uint256","internalType":"uint256"}],"stateMutability":"view"},{"type":"function","name":"totalUBIFromStability","inputs":[],"outputs":[{"name":"","type":"uint256","internalType":"uint256"}],"stateMutability":"view"},{"type":"function","name":"ubiBPS","inputs":[],"outputs":[{"name":"","type":"uint256","internalType":"uint256"}],"stateMutability":"view"},{"type":"function","name":"ubiRecipient","inputs":[],"outputs":[{"name":"","type":"address","internalType":"address"}],"stateMutability":"view"},{"type":"function","name":"vaultManagerContributions","inputs":[{"name":"","type":"address","internalType":"address"}],"outputs":[{"name":"","type":"uint256","internalType":"uint256"}],"stateMutability":"view"},{"type":"event","name":"DailyStablecoinImpact","inputs":[{"name":"date","type":"uint256","indexed":false,"internalType":"uint256"},{"name":"ubiAmount","type":"uint256","indexed":false,"internalType":"uint256"}],"anonymous":false},{"type":"event","name":"FeeSplit","inputs":[{"name":"source","type":"address","indexed":true,"internalType":"address"},{"name":"feeType","type":"string","indexed":true,"internalType":"string"},{"name":"totalFee","type":"uint256","indexed":false,"internalType":"uint256"},{"name":"ubiShare","type":"uint256","indexed":false,"internalType":"uint256"},{"name":"protocolShare","type":"uint256","indexed":false,"internalType":"uint256"},{"name":"dAppShare","type":"uint256","indexed":false,"internalType":"uint256"},{"name":"token","type":"address","indexed":false,"internalType":"address"}],"anonymous":false},{"type":"event","name":"GovernanceFeeSplit","inputs":[{"name":"proposer","type":"address","indexed":true,"internalType":"address"},{"name":"fee","type":"uint256","indexed":false,"internalType":"uint256"},{"name":"ubiShare","type":"uint256","indexed":false,"internalType":"uint256"}],"anonymous":false},{"type":"event","name":"LiquidationPenaltySplit","inputs":[{"name":"ilk","type":"bytes32","indexed":true,"internalType":"bytes32"},{"name":"liquidatedUser","type":"address","indexed":true,"internalType":"address"},{"name":"penalty","type":"uint256","indexed":false,"internalType":"uint256"},{"name":"ubiShare","type":"uint256","indexed":false,"internalType":"uint256"}],"anonymous":false},{"type":"event","name":"MintingFeeSplit","inputs":[{"name":"user","type":"address","indexed":true,"internalType":"address"},{"name":"swapDirection","type":"string","indexed":true,"internalType":"string"},{"name":"fee","type":"uint256","indexed":false,"internalType":"uint256"},{"name":"ubiShare","type":"uint256","indexed":false,"internalType":"uint256"}],"anonymous":false},{"type":"event","name":"MonthlyTargetUpdated","inputs":[{"name":"oldTarget","type":"uint256","indexed":false,"internalType":"uint256"},{"name":"newTarget","type":"uint256","indexed":false,"internalType":"uint256"}],"anonymous":false},{"type":"event","name":"StabilityFeeSplit","inputs":[{"name":"ilk","type":"bytes32","indexed":true,"internalType":"bytes32"},{"name":"feeGUSD","type":"uint256","indexed":false,"internalType":"uint256"},{"name":"ubiShare","type":"uint256","indexed":false,"internalType":"uint256"}],"anonymous":false},{"type":"event","name":"UBIRecipientUpdated","inputs":[{"name":"oldRecipient","type":"address","indexed":false,"internalType":"address"},{"name":"newRecipient","type":"address","indexed":false,"internalType":"address"}],"anonymous":false}],"bytecode":{"object":"0x6080346100d857601f611a4338819003918201601f19168301916001600160401b038311848410176100dc578084926060946040528339810103126100d857610047816100f0565b906100606040610059602084016100f0565b92016100f0565b610d0560015561068360025569032d26d12e980b6000006010555f80546001600160a01b03199081166001600160a01b039586161790915560038054821693851693841790556004805482169490921693909317905560058054909216179055620151804204600f5560405161193e90816101058239f35b5f80fd5b634e487b7160e01b5f52604160045260245ffd5b51906001600160a01b03821682036100d85756fe6080806040526004361015610012575f80fd5b5f905f3560e01c9081630326d75a1461127e5750806308ca27bf1461126157806309603e93146111ad5780630bc13254146110c75780630fc1c0c014611034578063119e5bf31461100d57806319eccc4414610fe35780631e58c67614610fc65780632061042f14610fa9578063317ce70e14610f715780633f2f8cae14610f5457806347b5f2f714610f1c5780635876289814610ea557806363792a4a14610e6d57806364d6def914610b475780636652189314610b295780636a38f73914610b0b57806373f9b8d814610ae3578063771e761714610aaa5780637c393cfd14610a8c5780637cb4eea214610a3e5780637e6335c7146109c1578063803db96d14610998578063840ad8371461097a57806386a3862b1461094b578063953c5be11461092d578063a5af33a014610903578063a790dd70146108c9578063c33f0d4e146108a0578063c4b388f2146107e3578063c62891ce146107c5578063c7888a6d14610770578063cabc44f614610752578063d2ab907e146105ca578063d50bc9b0146105ac578063da86cdfb14610589578063ddc78bc614610442578063e657a89d146102f6578063ee897d64146102d8578063ef44e80914610275578063f0f44260146102175763f851a440146101ec575f80fd5b346102145780600319360112610214576004546040516001600160a01b039091168152602090f35b80fd5b5034610214576020366003190112610214576102316112da565b61024660018060a01b03600454163314611367565b6001600160a01b031661025a81151561139f565b6bffffffffffffffffffffffff60a01b600354161760035580f35b5034610214576020366003190112610214577f7099dfe316ad8496795089a037eda8c64e5a6a7e140083ce87c004fc4fdb7bce60406004356102c260018060a01b03600454163314611367565b601054908060105582519182526020820152a180f35b50346102145780600319360112610214576020600854604051908152f35b50346102145780600319360112610214576015546103138161186d565b906103216040519283611411565b80825261032d8161186d565b602083019390601f19013685376103438261186d565b936103516040519586611411565b82855261035d8361186d565b602086019390601f1901368537825b8181106103ed57505060405194859460408601906040875251809152606086019290845b8181106103d4575050506020908583038287015251918281520192915b8181106103bb575050500390f35b82518452859450602093840193909201916001016103ad565b8251855288975060209485019490920191600101610390565b806103fe60019298949697986112f0565b90549060031b1c61040f828a611885565b52610419816112f0565b90549060031b1c8552601160205260408520546104368286611885565b5201959493919561036c565b50346102145760a03660031901126102145760043561045f611298565b916104686112ae565b926104716112c4565b926084359167ffffffffffffffff831161058557366023840112156105855782600401359067ffffffffffffffff821161058157366024838601011161058157604060246104e661057d9798997f0462d65313f86d5e66ee1e262181238e6f7911e0e0db60149b2246dc8d7b8f2594876114ee565b979199909a6104f78860075461131c565b6007556105068b600b5461131c565b600b5560018060a01b031695868252601260205284822061052889825461131c565b905533825260146020528482206105408c825461131c565b90558085519485940184378201908152039020938151908152876020820152a3604051938493846040919493926060820195825260208201520152565b0390f35b8480fd5b8380fd5b503461021457806003193601126102145760206105a4611804565b604051908152f35b50346102145780600319360112610214576020600b54604051908152f35b5034610214576080366003190112610214576004356105e7611298565b6105fc6105f26112ae565b60643592846114ee565b929193909461060d8260065461131c565b60065561061c85600a5461131c565b600a5582815260116020526040812061063683825461131c565b905533815260136020526040812061064f86825461131c565b9055828152601660205260ff604082205416156106ba575b50907f9c26d27ebc21a23efb336b7206d6046d2e3133b8e9af7b146c3908e6cc438fe7604061057d94938151908152866020820152a2604051938493846040919493926060820195825260208201520152565b828152601660205260408120805460ff19166001179055601554906801000000000000000082101561073e5750604061057d9493926107208360017f9c26d27ebc21a23efb336b7206d6046d2e3133b8e9af7b146c3908e6cc438fe795016015556112f0565b81549060031b9086821b915f19901b19161790559293945050610667565b634e487b7160e01b81526041600452602490fd5b50346102145780600319360112610214576020600a54604051908152f35b50346102145760203660031901126102145761078a6112da565b61079f60018060a01b03600454163314611367565b6001600160a01b03166107b381151561139f565b81546001600160a01b03191617815580f35b50346102145780600319360112610214576020600e54604051908152f35b50346102145760a03660031901126102145760043590610801611298565b6108096112ae565b906084359260018060a01b038416809403610214575061057d9161082d91856114ee565b9193909461083d8160085461131c565b60085561084c85600c5461131c565b600c556040519081528460208201527f5e8b853c1e291ab51168b5ab87544a6ab0e724af5f0b9b8ecad3b5c3c4e16f1a604060643592a3604051938493846040919493926060820195825260208201520152565b50346102145780600319360112610214576005546040516001600160a01b039091168152602090f35b503461021457602036600319011261021457600435906015548210156102145760206108f4836112f0565b90549060031b1c604051908152f35b50346102145760203660031901126102145760406020916004358152601183522054604051908152f35b50346102145780600319360112610214576020600d54604051908152f35b50346102145760203660031901126102145760ff60406020926004358152601684522054166040519015158152f35b50346102145780600319360112610214576020600c54604051908152f35b50346102145780600319360112610214576003546040516001600160a01b039091168152602090f35b503461021457604036600319011261021457600435602435906109ef60018060a01b03600454163314611367565b6127106109fc838361131c565b11610a0a5760015560025580f35b60405162461bcd60e51b815260206004820152600c60248201526b45786365656473203130302560a01b6044820152606490fd5b50346102145760603660031901126102145761057d610a6f610a5e611298565b610a666112ae565b906004356114ee565b604080519384526020840192909252908201529081906060820190565b50346102145780600319360112610214576020600254604051908152f35b5034610214576020366003190112610214576020906040906001600160a01b03610ad26112da565b168152601283522054604051908152f35b50346102145780600319360112610214576040600e5481519062015180420482526020820152f35b50346102145780600319360112610214576020600754604051908152f35b50346102145780600319360112610214576020600154604051908152f35b5034610e13576040366003190112610e1357600435610b64611298565b610b6f8215156113da565b612710610b7e60015484611354565b0490612710610b8f60025485611354565b0492610ba484610b9f8584611347565b611347565b5f80546040516323b872dd60e01b8152336004820152306024820152604481018590529294929160209183916064918391906001600160a01b03165af1908115610e08575f91610e4e575b5015610e17575f546001600160a01b0316803b15610e13575f80916024604051809481936383adc2ff60e01b83528a60048401525af18015610e0857610df3575b50855460035460405163a9059cbb60e01b81526001600160a01b0391821660048201526024810188905291602091839160449183918c91165af18015610de857610cc592610c8986926020948b91610dcb575b5061145f565b885460405163a9059cbb60e01b81526001600160a01b0392831660048201526024810193909352919384929091169082908a9082906044820190565b03925af1908115610dc0578691610ce89161057d96979891610d91575b506114ab565b610cf185611899565b5460408051673396b237b63630b960c11b90528051928352602083018690528201869052606082018390526001600160a01b031660808201527f482abe8364735d93cb6e703a3a5b4672b3140f219b93be7a469390488f5078539033907f854d7c31246b8a37d7f5e5341b8ba6de06a7522f2dbc86dc4da2f5992fc7c3ab9060a090a3604051938493846040919493926060820195825260208201520152565b610db3915060203d602011610db9575b610dab8183611411565b810190611447565b5f610ce2565b503d610da1565b6040513d88823e3d90fd5b610de29150853d8711610db957610dab8183611411565b5f610c83565b6040513d89823e3d90fd5b610e009196505f90611411565b5f945f610c30565b6040513d5f823e3d90fd5b5f80fd5b60405162461bcd60e51b815260206004820152600f60248201526e1d1c985b9cd9995c8819985a5b1959608a1b6044820152606490fd5b610e67915060203d602011610db957610dab8183611411565b5f610bef565b34610e13576020366003190112610e13576001600160a01b03610e8e6112da565b165f526014602052602060405f2054604051908152f35b34610e13575f366003190112610e1357610120600654600754600854600954600a54600b5490600c5492600d5494610eea86610ee587610ee5888861131c565b61131c565b96604051988952602089015260408801526060870152608086015260a085015260c084015260e0830152610100820152f35b34610e13576020366003190112610e13576001600160a01b03610f3d6112da565b165f526012602052602060405f2054604051908152f35b34610e13575f366003190112610e13576020600654604051908152f35b34610e13576020366003190112610e13576001600160a01b03610f926112da565b165f526013602052602060405f2054604051908152f35b34610e13575f366003190112610e13576020601554604051908152f35b34610e13575f366003190112610e13576020600954604051908152f35b34610e13576020366003190112610e13576004355f526011602052602060405f2054604051908152f35b34610e13575f366003190112610e13575f546040516001600160a01b039091168152602090f35b34610e13576020366003190112610e13577fc490f93bc94a58bddba0c556b568bef04042a0038709642214199f389fcf172260406110706112da565b61108560018060a01b03600454163314611367565b6001600160a01b031661109981151561139f565b600580546001600160a01b03198116831790915582516001600160a01b0390911681526020810191909152a1005b34610e13575f366003190112610e13575f6110ff6110f66110ed600a54600b549061131c565b600c549061131c565b600d549061131c565b611110600f54620151804204611347565b906001820180921161116c5781611189575b5050601054908115611180576127108102818104612710148215171561116c5761114f8361057d92611329565b604051938493846040919493926060820195825260208201520152565b634e487b7160e01b5f52601160045260245ffd5b61057d5f61114f565b6111939250611329565b601e810290808204601e149015171561116c578180611122565b34610e13576080366003190112610e1357600435604061057d7fa6a71206c08a4d3d7b84324b1bdb50b29b4e4aa6637cabafcc3b459161442b746111ef611298565b9361120a6111fb6112ae565b6112036112c4565b96836114ee565b939195909661121b8460095461131c565b60095561122a87600d5461131c565b600d558151938452602084018790526001600160a01b031692a2604051938493846040919493926060820195825260208201520152565b34610e13575f366003190112610e13576020600f54604051908152f35b34610e13575f366003190112610e13576020906010548152f35b602435906001600160a01b0382168203610e1357565b604435906001600160a01b0382168203610e1357565b606435906001600160a01b0382168203610e1357565b600435906001600160a01b0382168203610e1357565b6015548110156113085760155f5260205f2001905f90565b634e487b7160e01b5f52603260045260245ffd5b9190820180921161116c57565b8115611333570490565b634e487b7160e01b5f52601260045260245ffd5b9190820391821161116c57565b8181029291811591840414171561116c57565b1561136e57565b60405162461bcd60e51b81526020600482015260096024820152682737ba1030b236b4b760b91b6044820152606490fd5b156113a657565b60405162461bcd60e51b815260206004820152600c60248201526b7a65726f206164647265737360a01b6044820152606490fd5b156113e157565b60405162461bcd60e51b81526020600482015260086024820152675a65726f2066656560c01b6044820152606490fd5b90601f8019910116810190811067ffffffffffffffff82111761143357604052565b634e487b7160e01b5f52604160045260245ffd5b90816020910312610e1357518015158103610e135790565b1561146657565b60405162461bcd60e51b815260206004820152601860248201527f7472656173757279207472616e73666572206661696c656400000000000000006044820152606490fd5b156114b257565b60405162461bcd60e51b815260206004820152601460248201527319185c1c081d1c985b9cd9995c8819985a5b195960621b6044820152606490fd5b91926114fb8315156113da565b6005546001600160a01b0316156117c75761271061151b60015485611354565b049361271061152c60025486611354565b049361153c85610b9f8884611347565b6040516323b872dd60e01b8152336004820152306024820152604481018390529094906001600160a01b038416906020816064815f865af1908115610e08575f916117a8575b501561176d5760055460405163a9059cbb60e01b81526001600160a01b039091166004820152602481018990526020816044815f865af1908115610e08575f9161174e575b50156117135760035460405163a9059cbb60e01b81526001600160a01b03909116600482015260248101889052906020826044815f855af1908115610e08576116559361161e89936020955f916116fc575061145f565b60405163a9059cbb60e01b81526001600160a01b0390911660048201526024810192909252909283919082905f9082906044820190565b03925af18015610e085761166f915f91610d9157506114ab565b61167886611899565b60408051643a37b5b2b760d91b90528051918252602082018790528101859052606081018490526001600160a01b039190911660808201527f9b9b0454cadcb5884dd3faa6ba975da4d2459aa3f11d31291a25a8358f84946d9033907f854d7c31246b8a37d7f5e5341b8ba6de06a7522f2dbc86dc4da2f5992fc7c3ab9060a090a3565b610de29150863d8811610db957610dab8183611411565b60405162461bcd60e51b8152602060048201526013602482015272155092481d1c985b9cd9995c8819985a5b1959606a1b6044820152606490fd5b611767915060203d602011610db957610dab8183611411565b5f6115c7565b60405162461bcd60e51b81526020600482015260136024820152721d1c985b9cd9995c919c9bdb4819985a5b1959606a1b6044820152606490fd5b6117c1915060203d602011610db957610dab8183611411565b5f611582565b60405162461bcd60e51b8152602060048201526015602482015274155092481c9958da5c1a595b9d081b9bdd081cd95d605a1b6044820152606490fd5b61182b6118226118196006546007549061131c565b6008549061131c565b6009549061131c565b8015611868576118466110f66110ed600a54600b549061131c565b90612710820291808304612710149015171561116c5761186591611329565b90565b505f90565b67ffffffffffffffff81116114335760051b60200190565b80518210156113085760209160051b010190565b62015180420490600f5482115f146118f657600e54806118bd575b50600e55600f55565b60407f400ce819fdf7c3475a786dde6f7400c2ed238ee12f0f3395adc9c2502195fcde91600f549082519182526020820152a15f6118b4565b6119039150600e5461131c565b600e5556fea26469706673582212202e5a3058c25f290ca1830055f2123b3cd4e4be1e93bba0f020e98d5decfed13664736f6c63430008210033","linkReferences":{}},"methodIdentifiers":{"activeIlks(uint256)":"a790dd70","admin()":"f851a440","dailyStablecoinUBI()":"c62891ce","getActiveIlkCount()":"2061042f","getIlkBreakdown()":"e657a89d","getIlkStabilityFees(bytes32)":"19eccc44","getMonthlyUBIEstimate()":"0bc13254","getStablecoinSocialImpactRate()":"da86cdfb","getStablecoinUBIStats()":"58762898","getTodayStablecoinImpact()":"73f9b8d8","getUserMintingFees(address)":"47b5f2f7","goodDollar()":"119e5bf3","ilkExists(bytes32)":"86a3862b","lastDayTimestamp()":"08ca27bf","mintingFeesByUser(address)":"771e7617","monthlyTargetUBI()":"0326d75a","protocolBPS()":"7c393cfd","protocolTreasury()":"803db96d","psmContributions(address)":"63792a4a","setFeeSplit(uint256,uint256)":"7e6335c7","setGoodDollar(address)":"c7888a6d","setMonthlyTarget(uint256)":"ef44e809","setTreasury(address)":"f0f44260","setUBIRecipient(address)":"0fc1c0c0","splitFee(uint256,address)":"64d6def9","splitFeeToken(uint256,address,address)":"7cb4eea2","splitGovernanceFee(uint256,address,address,address)":"09603e93","splitLiquidationPenalty(uint256,address,address,bytes32,address)":"c4b388f2","splitMintingFee(uint256,address,address,address,string)":"ddc78bc6","splitStabilityFee(uint256,address,address,bytes32)":"d2ab907e","stabilityFeesByIlk(bytes32)":"a5af33a0","totalGovernanceFees()":"1e58c676","totalLiquidationFees()":"ee897d64","totalMintingFees()":"6a38f739","totalStabilityFees()":"3f2f8cae","totalUBIFromGovernance()":"953c5be1","totalUBIFromLiquidations()":"840ad837","totalUBIFromMinting()":"d50bc9b0","totalUBIFromStability()":"cabc44f6","ubiBPS()":"66521893","ubiRecipient()":"c33f0d4e","vaultManagerContributions(address)":"317ce70e"},"id":8}