{"abi":[{"type":"constructor","inputs":[{"name":"_goodDollar","type":"address","internalType":"address"},{"name":"_treasury","type":"address","internalType":"address"},{"name":"_admin","type":"address","internalType":"address"}],"stateMutability":"nonpayable"},{"type":"function","name":"activeIlks","inputs":[{"name":"","type":"uint256","internalType":"uint256"}],"outputs":[{"name":"","type":"bytes32","internalType":"bytes32"}],"stateMutability":"view"},{"type":"function","name":"admin","inputs":[],"outputs":[{"name":"","type":"address","internalType":"address"}],"stateMutability":"view"},{"type":"function","name":"dailyStablecoinUBI","inputs":[],"outputs":[{"name":"","type":"uint256","internalType":"uint256"}],"stateMutability":"view"},{"type":"function","name":"getActiveIlkCount","inputs":[],"outputs":[{"name":"","type":"uint256","internalType":"uint256"}],"stateMutability":"view"},{"type":"function","name":"getIlkBreakdown","inputs":[],"outputs":[{"name":"ilks","type":"bytes32[]","internalType":"bytes32[]"},{"name":"fees","type":"uint256[]","internalType":"uint256[]"}],"stateMutability":"view"},{"type":"function","name":"getIlkStabilityFees","inputs":[{"name":"ilk","type":"bytes32","internalType":"bytes32"}],"outputs":[{"name":"","type":"uint256","internalType":"uint256"}],"stateMutability":"view"},{"type":"function","name":"getMonthlyUBIEstimate","inputs":[],"outputs":[{"name":"estimated","type":"uint256","internalType":"uint256"},{"name":"target","type":"uint256","internalType":"uint256"},{"name":"progress","type":"uint256","internalType":"uint256"}],"stateMutability":"view"},{"type":"function","name":"getStablecoinSocialImpactRate","inputs":[],"outputs":[{"name":"","type":"uint256","internalType":"uint256"}],"stateMutability":"view"},{"type":"function","name":"getStablecoinUBIStats","inputs":[],"outputs":[{"name":"stabilityFees","type":"uint256","internalType":"uint256"},{"name":"mintingFees","type":"uint256","internalType":"uint256"},{"name":"liquidationFees","type":"uint256","internalType":"uint256"},{"name":"governanceFees","type":"uint256","internalType":"uint256"},{"name":"ubiFromStability","type":"uint256","internalType":"uint256"},{"name":"ubiFromMinting","type":"uint256","internalType":"uint256"},{"name":"ubiFromLiquidations","type":"uint256","internalType":"uint256"},{"name":"ubiFromGovernance","type":"uint256","internalType":"uint256"},{"name":"totalUBI","type":"uint256","internalType":"uint256"}],"stateMutability":"view"},{"type":"function","name":"getTodayStablecoinImpact","inputs":[],"outputs":[{"name":"currentDay","type":"uint256","internalType":"uint256"},{"name":"ubiAmount","type":"uint256","internalType":"uint256"}],"stateMutability":"view"},{"type":"function","name":"getUserMintingFees","inputs":[{"name":"user","type":"address","internalType":"address"}],"outputs":[{"name":"","type":"uint256","internalType":"uint256"}],"stateMutability":"view"},{"type":"function","name":"goodDollar","inputs":[],"outputs":[{"name":"","type":"address","internalType":"contract IGoodDollarToken"}],"stateMutability":"view"},{"type":"function","name":"ilkExists","inputs":[{"name":"","type":"bytes32","internalType":"bytes32"}],"outputs":[{"name":"","type":"bool","internalType":"bool"}],"stateMutability":"view"},{"type":"function","name":"lastDayTimestamp","inputs":[],"outputs":[{"name":"","type":"uint256","internalType":"uint256"}],"stateMutability":"view"},{"type":"function","name":"mintingFeesByUser","inputs":[{"name":"","type":"address","internalType":"address"}],"outputs":[{"name":"","type":"uint256","internalType":"uint256"}],"stateMutability":"view"},{"type":"function","name":"monthlyTargetUBI","inputs":[],"outputs":[{"name":"","type":"uint256","internalType":"uint256"}],"stateMutability":"view"},{"type":"function","name":"protocolBPS","inputs":[],"outputs":[{"name":"","type":"uint256","internalType":"uint256"}],"stateMutability":"view"},{"type":"function","name":"protocolTreasury","inputs":[],"outputs":[{"name":"","type":"address","internalType":"address"}],"stateMutability":"view"},{"type":"function","name":"psmContributions","inputs":[{"name":"","type":"address","internalType":"address"}],"outputs":[{"name":"","type":"uint256","internalType":"uint256"}],"stateMutability":"view"},{"type":"function","name":"setFeeSplit","inputs":[{"name":"_ubiBPS","type":"uint256","internalType":"uint256"},{"name":"_protocolBPS","type":"uint256","internalType":"uint256"}],"outputs":[],"stateMutability":"nonpayable"},{"type":"function","name":"setGoodDollar","inputs":[{"name":"_goodDollar","type":"address","internalType":"address"}],"outputs":[],"stateMutability":"nonpayable"},{"type":"function","name":"setMonthlyTarget","inputs":[{"name":"_target","type":"uint256","internalType":"uint256"}],"outputs":[],"stateMutability":"nonpayable"},{"type":"function","name":"setTreasury","inputs":[{"name":"_treasury","type":"address","internalType":"address"}],"outputs":[],"stateMutability":"nonpayable"},{"type":"function","name":"setUBIRecipient","inputs":[{"name":"_ubiRecipient","type":"address","internalType":"address"}],"outputs":[],"stateMutability":"nonpayable"},{"type":"function","name":"splitFee","inputs":[{"name":"totalFee","type":"uint256","internalType":"uint256"},{"name":"dAppRecipient","type":"address","internalType":"address"}],"outputs":[{"name":"ubiShare","type":"uint256","internalType":"uint256"},{"name":"protocolShare","type":"uint256","internalType":"uint256"},{"name":"dAppShare","type":"uint256","internalType":"uint256"}],"stateMutability":"nonpayable"},{"type":"function","name":"splitFeeToken","inputs":[{"name":"totalFee","type":"uint256","internalType":"uint256"},{"name":"dAppRecipient","type":"address","internalType":"address"},{"name":"token","type":"address","internalType":"address"}],"outputs":[{"name":"ubiShare","type":"uint256","internalType":"uint256"},{"name":"protocolShare","type":"uint256","internalType":"uint256"},{"name":"dAppShare","type":"uint256","internalType":"uint256"}],"stateMutability":"nonpayable"},{"type":"function","name":"splitGovernanceFee","inputs":[{"name":"totalFee","type":"uint256","internalType":"uint256"},{"name":"dAppRecipient","type":"address","internalType":"address"},{"name":"token","type":"address","internalType":"address"},{"name":"proposer","type":"address","internalType":"address"}],"outputs":[{"name":"ubiShare","type":"uint256","internalType":"uint256"},{"name":"protocolShare","type":"uint256","internalType":"uint256"},{"name":"dAppShare","type":"uint256","internalType":"uint256"}],"stateMutability":"nonpayable"},{"type":"function","name":"splitLiquidationPenalty","inputs":[{"name":"totalFee","type":"uint256","internalType":"uint256"},{"name":"dAppRecipient","type":"address","internalType":"address"},{"name":"token","type":"address","internalType":"address"},{"name":"ilk","type":"bytes32","internalType":"bytes32"},{"name":"liquidatedUser","type":"address","internalType":"address"}],"outputs":[{"name":"ubiShare","type":"uint256","internalType":"uint256"},{"name":"protocolShare","type":"uint256","internalType":"uint256"},{"name":"dAppShare","type":"uint256","internalType":"uint256"}],"stateMutability":"nonpayable"},{"type":"function","name":"splitMintingFee","inputs":[{"name":"totalFee","type":"uint256","internalType":"uint256"},{"name":"dAppRecipient","type":"address","internalType":"address"},{"name":"token","type":"address","internalType":"address"},{"name":"user","type":"address","internalType":"address"},{"name":"direction","type":"string","internalType":"string"}],"outputs":[{"name":"ubiShare","type":"uint256","internalType":"uint256"},{"name":"protocolShare","type":"uint256","internalType":"uint256"},{"name":"dAppShare","type":"uint256","internalType":"uint256"}],"stateMutability":"nonpayable"},{"type":"function","name":"splitStabilityFee","inputs":[{"name":"totalFee","type":"uint256","internalType":"uint256"},{"name":"dAppRecipient","type":"address","internalType":"address"},{"name":"token","type":"address","internalType":"address"},{"name":"ilk","type":"bytes32","internalType":"bytes32"}],"outputs":[{"name":"ubiShare","type":"uint256","internalType":"uint256"},{"name":"protocolShare","type":"uint256","internalType":"uint256"},{"name":"dAppShare","type":"uint256","internalType":"uint256"}],"stateMutability":"nonpayable"},{"type":"function","name":"stabilityFeesByIlk","inputs":[{"name":"","type":"bytes32","internalType":"bytes32"}],"outputs":[{"name":"","type":"uint256","internalType":"uint256"}],"stateMutability":"view"},{"type":"function","name":"totalGovernanceFees","inputs":[],"outputs":[{"name":"","type":"uint256","internalType":"uint256"}],"stateMutability":"view"},{"type":"function","name":"totalLiquidationFees","inputs":[],"outputs":[{"name":"","type":"uint256","internalType":"uint256"}],"stateMutability":"view"},{"type":"function","name":"totalMintingFees","inputs":[],"outputs":[{"name":"","type":"uint256","internalType":"uint256"}],"stateMutability":"view"},{"type":"function","name":"totalStabilityFees","inputs":[],"outputs":[{"name":"","type":"uint256","internalType":"uint256"}],"stateMutability":"view"},{"type":"function","name":"totalUBIFromGovernance","inputs":[],"outputs":[{"name":"","type":"uint256","internalType":"uint256"}],"stateMutability":"view"},{"type":"function","name":"totalUBIFromLiquidations","inputs":[],"outputs":[{"name":"","type":"uint256","internalType":"uint256"}],"stateMutability":"view"},{"type":"function","name":"totalUBIFromMinting","inputs":[],"outputs":[{"name":"","type":"uint256","internalType":"uint256"}],"stateMutability":"view"},{"type":"function","name":"totalUBIFromStability","inputs":[],"outputs":[{"name":"","type":"uint256","internalType":"uint256"}],"stateMutability":"view"},{"type":"function","name":"ubiBPS","inputs":[],"outputs":[{"name":"","type":"uint256","internalType":"uint256"}],"stateMutability":"view"},{"type":"function","name":"ubiRecipient","inputs":[],"outputs":[{"name":"","type":"address","internalType":"address"}],"stateMutability":"view"},{"type":"function","name":"vaultManagerContributions","inputs":[{"name":"","type":"address","internalType":"address"}],"outputs":[{"name":"","type":"uint256","internalType":"uint256"}],"stateMutability":"view"},{"type":"event","name":"DailyStablecoinImpact","inputs":[{"name":"date","type":"uint256","indexed":false,"internalType":"uint256"},{"name":"ubiAmount","type":"uint256","indexed":false,"internalType":"uint256"}],"anonymous":false},{"type":"event","name":"FeeSplit","inputs":[{"name":"source","type":"address","indexed":true,"internalType":"address"},{"name":"feeType","type":"string","indexed":true,"internalType":"string"},{"name":"totalFee","type":"uint256","indexed":false,"internalType":"uint256"},{"name":"ubiShare","type":"uint256","indexed":false,"internalType":"uint256"},{"name":"protocolShare","type":"uint256","indexed":false,"internalType":"uint256"},{"name":"dAppShare","type":"uint256","indexed":false,"internalType":"uint256"},{"name":"token","type":"address","indexed":false,"internalType":"address"}],"anonymous":false},{"type":"event","name":"GovernanceFeeSplit","inputs":[{"name":"proposer","type":"address","indexed":true,"internalType":"address"},{"name":"fee","type":"uint256","indexed":false,"internalType":"uint256"},{"name":"ubiShare","type":"uint256","indexed":false,"internalType":"uint256"}],"anonymous":false},{"type":"event","name":"LiquidationPenaltySplit","inputs":[{"name":"ilk","type":"bytes32","indexed":true,"internalType":"bytes32"},{"name":"liquidatedUser","type":"address","indexed":true,"internalType":"address"},{"name":"penalty","type":"uint256","indexed":false,"internalType":"uint256"},{"name":"ubiShare","type":"uint256","indexed":false,"internalType":"uint256"}],"anonymous":false},{"type":"event","name":"MintingFeeSplit","inputs":[{"name":"user","type":"address","indexed":true,"internalType":"address"},{"name":"swapDirection","type":"string","indexed":true,"internalType":"string"},{"name":"fee","type":"uint256","indexed":false,"internalType":"uint256"},{"name":"ubiShare","type":"uint256","indexed":false,"internalType":"uint256"}],"anonymous":false},{"type":"event","name":"MonthlyTargetUpdated","inputs":[{"name":"oldTarget","type":"uint256","indexed":false,"internalType":"uint256"},{"name":"newTarget","type":"uint256","indexed":false,"internalType":"uint256"}],"anonymous":false},{"type":"event","name":"StabilityFeeSplit","inputs":[{"name":"ilk","type":"bytes32","indexed":true,"internalType":"bytes32"},{"name":"feeGUSD","type":"uint256","indexed":false,"internalType":"uint256"},{"name":"ubiShare","type":"uint256","indexed":false,"internalType":"uint256"}],"anonymous":false},{"type":"event","name":"UBIRecipientUpdated","inputs":[{"name":"oldRecipient","type":"address","indexed":false,"internalType":"address"},{"name":"newRecipient","type":"address","indexed":false,"internalType":"address"}],"anonymous":false}],"bytecode":{"object":"0x6080346100dd57601f61229638819003918201601f19168301916001600160401b038311848410176100e1578084926060946040528339810103126100dd57610047816100f5565b906100606040610059602084016100f5565b92016100f5565b60015f8190556107d060025561068360035569032d26d12e980b60000060115580546001600160a01b03199081166001600160a01b03958616179091556004805482169385169384179055600580548216949092169390931790556006805490921617905562015180420460105560405161218c908161010a8239f35b5f80fd5b634e487b7160e01b5f52604160045260245ffd5b51906001600160a01b03821682036100dd5756fe6080806040526004361015610012575f80fd5b5f905f3560e01c9081630326d75a14611d425750806308ca27bf14611d2557806309603e9314611a365780630bc13254146119505780630fc1c0c0146118bd578063119e5bf31461189557806319eccc441461186b5780631e58c6761461184e5780632061042f14611831578063317ce70e146117f95780633f2f8cae146117dc57806347b5f2f7146117a4578063587628981461172d57806363792a4a146116f557806364d6def91461146c578063665218931461144e5780636a38f7391461143057806373f9b8d814611408578063771e7617146113cf5780637c393cfd146113b15780637cb4eea21461114f5780637e6335c7146110d2578063803db96d146110a9578063840ad8371461108b57806386a3862b1461105c578063953c5be11461103e578063a5af33a014611014578063a790dd7014610fda578063c33f0d4e14610fb1578063c4b388f214610cd1578063c62891ce14610cb3578063c7888a6d14610c55578063cabc44f614610c37578063d2ab907e146108e6578063d50bc9b0146108c8578063da86cdfb146108a5578063ddc78bc614610442578063e657a89d146102f6578063ee897d64146102d8578063ef44e80914610275578063f0f44260146102175763f851a440146101ec575f80fd5b346102145780600319360112610214576005546040516001600160a01b039091168152602090f35b80fd5b503461021457602036600319011261021457610231611d9e565b61024660018060a01b03600554163314611e2b565b6001600160a01b031661025a811515611e63565b6bffffffffffffffffffffffff60a01b600454161760045580f35b5034610214576020366003190112610214577f7099dfe316ad8496795089a037eda8c64e5a6a7e140083ce87c004fc4fdb7bce60406004356102c260018060a01b03600554163314611e2b565b601154908060115582519182526020820152a180f35b50346102145780600319360112610214576020600954604051908152f35b503461021457806003193601126102145760165461031381612047565b906103216040519283611ed5565b80825261032d81612047565b602083019390601f190136853761034382612047565b936103516040519586611ed5565b82855261035d83612047565b602086019390601f1901368537825b8181106103ed57505060405194859460408601906040875251809152606086019290845b8181106103d4575050506020908583038287015251918281520192915b8181106103bb575050500390f35b82518452859450602093840193909201916001016103ad565b8251855288975060209485019490920191600101610390565b806103fe6001929894969798611db4565b90549060031b1c61040f828a61205f565b5261041981611db4565b90549060031b1c855260126020526040852054610436828661205f565b5201959493919561036c565b50346102145760a03660031901126102145760043590610460611d5c565b90610469611d72565b91610472611d88565b9360843567ffffffffffffffff81116108a157366023820112156108a15780600401359067ffffffffffffffff821161089d57366024838301011161089d576104b9612073565b6104c4831515611e9e565b6006546001600160a01b031615610860576127106104e460025485611e18565b04946127106104f560035486611e18565b049661050a886105058988611e0b565b611e0b565b6040516323b872dd60e01b81523360048201523060248201526044810187905290966001600160a01b0383169160208160648188875af19081156107a1578591610841575b50156108065760065460405163a9059cbb60e01b81526001600160a01b039091166004820152602481018a905260208160448188875af19081156107a15785916107e7575b50156107ac576004805460405163a9059cbb60e01b81526001600160a01b0390911691810191909152602481018b905260208160448188875af19081156107a157926020926105ef8b93610626968991610784575b50611f23565b60405163a9059cbb60e01b81526001600160a01b039091166004820152602481019290925290928391908290879082906044820190565b03925af19081156107795792899a88885f5160206121375f395f51905f528c9d6107469d6106ad6024996106867f0462d65313f86d5e66ee1e262181238e6f7911e0e0db60149b2246dc8d7b8f259d9a60409d8b9161074a575b50611f6f565b61068f836120c7565b60058c51643a37b5b2b760d91b815220968c51948594339886611fb2565b0390a3600182556106c088600854611de0565b6008556106cf8b600c54611de0565b600c5560018060a01b03169586825260136020528482206106f1898254611de0565b905533825260156020528482206107098c8254611de0565b90558085519485940184378201908152039020938151908152876020820152a3604051938493846040919493926060820195825260208201520152565b0390f35b61076c915060203d602011610772575b6107648183611ed5565b810190611f0b565b5f610680565b503d61075a565b6040513d85823e3d90fd5b61079b9150863d8811610772576107648183611ed5565b5f6105e9565b6040513d87823e3d90fd5b60405162461bcd60e51b8152602060048201526013602482015272155092481d1c985b9cd9995c8819985a5b1959606a1b6044820152606490fd5b610800915060203d602011610772576107648183611ed5565b5f610594565b60405162461bcd60e51b81526020600482015260136024820152721d1c985b9cd9995c919c9bdb4819985a5b1959606a1b6044820152606490fd5b61085a915060203d602011610772576107648183611ed5565b5f61054f565b60405162461bcd60e51b8152602060048201526015602482015274155092481c9958da5c1a595b9d081b9bdd081cd95d605a1b6044820152606490fd5b8480fd5b8380fd5b503461021457806003193601126102145760206108c0611fde565b604051908152f35b50346102145780600319360112610214576020600c54604051908152f35b50346102145760803660031901126102145760043590610904611d5c565b61090c611d72565b9260643590610919612073565b610924811515611e9e565b6006546001600160a01b0316156108605761271061094460025483611e18565b049361271061095560035484611e18565b0495610965876105058886611e0b565b6040516323b872dd60e01b81523360048201523060248201526044810185905290956001600160a01b0383169160208160648188875af19081156107a1578591610c18575b50156108065760065460405163a9059cbb60e01b81526001600160a01b0390911660048201526024810189905260208160448188875af19081156107a1578591610bf9575b50156107ac576004805460405163a9059cbb60e01b81526001600160a01b0390911691810191909152602481018a905260208160448188875af19081156107a157926020926105ef8a93610a499689916107845750611f23565b03925af19081156107795790610a6591849161074a5750611f6f565b610a6e866120c7565b6005604051643a37b5b2b760d91b815220905f5160206121375f395f51905f5260405180610aa133948a8d8d8b86611fb2565b0390a360018155610ab482600754611de0565b600755610ac385600b54611de0565b600b55828152601260205260408120610add838254611de0565b9055338152601460205260408120610af6868254611de0565b9055828152601760205260ff60408220541615610b61575b50907f9c26d27ebc21a23efb336b7206d6046d2e3133b8e9af7b146c3908e6cc438fe7604061074694938151908152866020820152a2604051938493846040919493926060820195825260208201520152565b828152601760205260408120805460ff191660011790556016549068010000000000000000821015610be557506040610746949392610bc78360017f9c26d27ebc21a23efb336b7206d6046d2e3133b8e9af7b146c3908e6cc438fe79501601655611db4565b81549060031b9086821b915f19901b19161790559293945050610b0e565b634e487b7160e01b81526041600452602490fd5b610c12915060203d602011610772576107648183611ed5565b5f6109ef565b610c31915060203d602011610772576107648183611ed5565b5f6109aa565b50346102145780600319360112610214576020600b54604051908152f35b503461021457602036600319011261021457610c6f611d9e565b610c8460018060a01b03600554163314611e2b565b6001600160a01b0316610c98811515611e63565b6bffffffffffffffffffffffff60a01b600154161760015580f35b50346102145780600319360112610214576020600f54604051908152f35b50346102145760a036600319011261021457600435610cee611d5c565b90610cf7611d72565b916084356001600160a01b0381169081900361089d57610d15612073565b610d20831515611e9e565b6006546001600160a01b03161561086057612710610d4060025485611e18565b0492612710610d5160035483611e18565b0494610d61866105058785611e0b565b6040516323b872dd60e01b81523360048201523060248201526044810184905290946001600160a01b038316916020816064818d875af1908115610f87578a91610f92575b50156108065760065460405163a9059cbb60e01b81526001600160a01b039091166004820152602481018890526020816044818d875af1908115610f87578a91610f68575b50156107ac576004805460405163a9059cbb60e01b81526001600160a01b039091169181019190915260248101899052899260208260448187855af1928315610f5d57610e456020948a94610e7c97916107845750611f23565b60405163a9059cbb60e01b81526001600160a01b0390911660048201526024810192909252909283919082908c9082906044820190565b03925af1908115610f525791610ea18992600194610746999a9b9161074a5750611f6f565b610eaa886120c7565b875f5160206121375f395f51905f52878b610edf6005604051643a37b5b2b760d91b8152209560405193849333978c86611fb2565b0390a355610eef81600954611de0565b600955610efe85600d54611de0565b600d556040519081528460208201527f5e8b853c1e291ab51168b5ab87544a6ab0e724af5f0b9b8ecad3b5c3c4e16f1a604060643592a3604051938493846040919493926060820195825260208201520152565b6040513d8a823e3d90fd5b6040513d86823e3d90fd5b610f81915060203d602011610772576107648183611ed5565b5f610deb565b6040513d8c823e3d90fd5b610fab915060203d602011610772576107648183611ed5565b5f610da6565b50346102145780600319360112610214576006546040516001600160a01b039091168152602090f35b5034610214576020366003190112610214576004359060165482101561021457602061100583611db4565b90549060031b1c604051908152f35b50346102145760203660031901126102145760406020916004358152601283522054604051908152f35b50346102145780600319360112610214576020600e54604051908152f35b50346102145760203660031901126102145760ff60406020926004358152601784522054166040519015158152f35b50346102145780600319360112610214576020600d54604051908152f35b50346102145780600319360112610214576004546040516001600160a01b039091168152602090f35b5034610214576040366003190112610214576004356024359061110060018060a01b03600554163314611e2b565b61271061110d8383611de0565b1161111b5760025560035580f35b60405162461bcd60e51b815260206004820152600c60248201526b45786365656473203130302560a01b6044820152606490fd5b5034610214576060366003190112610214576004359061116d611d5c565b611175611d72565b9161117e612073565b611189841515611e9e565b6006546001600160a01b031615610860576127106111a960025486611e18565b04926127106111ba60035487611e18565b04946111ca866105058784611e0b565b6040516323b872dd60e01b81523360048201523060248201526044810183905290946001600160a01b0384169160208160648189875af1908115611368578691611392575b50156108065760065460405163a9059cbb60e01b81526001600160a01b0390911660048201526024810188905260208160448189875af1908115611368578691611373575b50156107ac576004805460405163a9059cbb60e01b81526001600160a01b03909116918101919091526024810189905260208160448189875af190811561136857926020926112ae89936112e5968a916107845750611f23565b60405163a9059cbb60e01b81526001600160a01b039091166004820152602481019290925290928391908290889082906044820190565b03925af1908115610f5d579161130a60019492869461074698979161074a5750611f6f565b611313876120c7565b5f5160206121375f395f51905f526113476005604051643a37b5b2b760d91b81522093604051918291898d8d339886611fb2565b0390a355604051938493846040919493926060820195825260208201520152565b6040513d88823e3d90fd5b61138c915060203d602011610772576107648183611ed5565b5f611254565b6113ab915060203d602011610772576107648183611ed5565b5f61120f565b50346102145780600319360112610214576020600354604051908152f35b5034610214576020366003190112610214576020906040906001600160a01b036113f7611d9e565b168152601383522054604051908152f35b50346102145780600319360112610214576040600f5481519062015180420482526020820152f35b50346102145780600319360112610214576020600854604051908152f35b50346102145780600319360112610214576020600254604051908152f35b503461169b57604036600319011261169b576004359061148a611d5c565b611492612073565b61149d831515611e9e565b6127106114ac60025485611e18565b04916127106114bd60035486611e18565b04936114cd856105058684611e0b565b6001546040516323b872dd60e01b81523360048201523060248201526044810184905291949190602090829060649082905f906001600160a01b03165af1908115611690575f916116d6575b501561169f576001546001600160a01b0316803b1561169b575f80916024604051809481936383adc2ff60e01b83528b60048401525af180156116905761167b575b506001546004805460405163a9059cbb60e01b81526001600160a01b0391821692810192909252602482018990529091602091839160449183918991165af1908115610f5d576115f6926115b9602093889388916116645750611f23565b60015460405163a9059cbb60e01b81526001600160a01b039283166004820152602481019390935291938492909116908290879082906044820190565b03925af1908115610779579161161a849260019461074697969161074a5750611f6f565b611623866120c7565b828060a01b03835416905f5160206121375f395f51905f526113476008604051673396b237b63630b960c11b81522093604051918291898d8d339886611fb2565b61079b9150853d8711610772576107648183611ed5565b6116889193505f90611ed5565b5f915f61155b565b6040513d5f823e3d90fd5b5f80fd5b60405162461bcd60e51b815260206004820152600f60248201526e1d1c985b9cd9995c8819985a5b1959608a1b6044820152606490fd5b6116ef915060203d602011610772576107648183611ed5565b5f611519565b3461169b57602036600319011261169b576001600160a01b03611716611d9e565b165f526015602052602060405f2054604051908152f35b3461169b575f36600319011261169b57610120600754600854600954600a54600b54600c5490600d5492600e54946117728661176d8761176d8888611de0565b611de0565b96604051988952602089015260408801526060870152608086015260a085015260c084015260e0830152610100820152f35b3461169b57602036600319011261169b576001600160a01b036117c5611d9e565b165f526013602052602060405f2054604051908152f35b3461169b575f36600319011261169b576020600754604051908152f35b3461169b57602036600319011261169b576001600160a01b0361181a611d9e565b165f526014602052602060405f2054604051908152f35b3461169b575f36600319011261169b576020601654604051908152f35b3461169b575f36600319011261169b576020600a54604051908152f35b3461169b57602036600319011261169b576004355f526012602052602060405f2054604051908152f35b3461169b575f36600319011261169b576001546040516001600160a01b039091168152602090f35b3461169b57602036600319011261169b577fc490f93bc94a58bddba0c556b568bef04042a0038709642214199f389fcf172260406118f9611d9e565b61190e60018060a01b03600554163314611e2b565b6001600160a01b0316611922811515611e63565b600680546001600160a01b03198116831790915582516001600160a01b0390911681526020810191909152a1005b3461169b575f36600319011261169b575f61198861197f611976600b54600c5490611de0565b600d5490611de0565b600e5490611de0565b611999601054620151804204611e0b565b90600182018092116119f55781611a12575b5050601154908115611a0957612710810281810461271014821517156119f5576119d88361074692611ded565b604051938493846040919493926060820195825260208201520152565b634e487b7160e01b5f52601160045260245ffd5b6107465f6119d8565b611a1c9250611ded565b601e810290808204601e14901517156119f55781806119ab565b3461169b57608036600319011261169b57600435611a52611d5c565b90611a5b611d72565b611a63611d88565b611a6b612073565b611a76831515611e9e565b6006546001600160a01b03161561086057612710611a9660025485611e18565b0492612710611aa760035483611e18565b0494611ab7866105058785611e0b565b6040516323b872dd60e01b8152336004820152306024820152604481018490529093906001600160a01b038616906020816064815f865af1908115611690575f91611d06575b50156108065760065460405163a9059cbb60e01b81526001600160a01b039091166004820152602481018890526020816044815f865af1908115611690575f91611ce7575b50156107ac576004805460405163a9059cbb60e01b81526001600160a01b039091169181019190915260248101899052906020826044815f855af190811561169057611bd394611b9c88936020955f91611cca5750611f23565b60405163a9059cbb60e01b81526001600160a01b0390911660048201526024810192909252909384919082905f9082906044820190565b03925af19081156116905761074695611c166040937fa6a71206c08a4d3d7b84324b1bdb50b29b4e4aa6637cabafcc3b459161442b74955f91611cab5750611f6f565b611c1f886120c7565b875f5160206121375f395f51905f52878b611c5260058851643a37b5b2b760d91b81522095885193849333978d86611fb2565b0390a360015f55611c6584600a54611de0565b600a55611c7487600e54611de0565b600e558151938452602084018790526001600160a01b031692a2604051938493846040919493926060820195825260208201520152565b611cc4915060203d602011610772576107648183611ed5565b8b610680565b611ce19150863d8811610772576107648183611ed5565b8d6105e9565b611d00915060203d602011610772576107648183611ed5565b89611b42565b611d1f915060203d602011610772576107648183611ed5565b89611afd565b3461169b575f36600319011261169b576020601054604051908152f35b3461169b575f36600319011261169b576020906011548152f35b602435906001600160a01b038216820361169b57565b604435906001600160a01b038216820361169b57565b606435906001600160a01b038216820361169b57565b600435906001600160a01b038216820361169b57565b601654811015611dcc5760165f5260205f2001905f90565b634e487b7160e01b5f52603260045260245ffd5b919082018092116119f557565b8115611df7570490565b634e487b7160e01b5f52601260045260245ffd5b919082039182116119f557565b818102929181159184041417156119f557565b15611e3257565b60405162461bcd60e51b81526020600482015260096024820152682737ba1030b236b4b760b91b6044820152606490fd5b15611e6a57565b60405162461bcd60e51b815260206004820152600c60248201526b7a65726f206164647265737360a01b6044820152606490fd5b15611ea557565b60405162461bcd60e51b81526020600482015260086024820152675a65726f2066656560c01b6044820152606490fd5b90601f8019910116810190811067ffffffffffffffff821117611ef757604052565b634e487b7160e01b5f52604160045260245ffd5b9081602091031261169b5751801515810361169b5790565b15611f2a57565b60405162461bcd60e51b815260206004820152601860248201527f7472656173757279207472616e73666572206661696c656400000000000000006044820152606490fd5b15611f7657565b60405162461bcd60e51b815260206004820152601460248201527319185c1c081d1c985b9cd9995c8819985a5b195960621b6044820152606490fd5b93909594919260809360a0860197865260208601526040850152606084015260018060a01b0316910152565b612005611ffc611ff360075460085490611de0565b60095490611de0565b600a5490611de0565b80156120425761202061197f611976600b54600c5490611de0565b9061271082029180830461271014901517156119f55761203f91611ded565b90565b505f90565b67ffffffffffffffff8111611ef75760051b60200190565b8051821015611dcc5760209160051b010190565b60025f54146120825760025f55565b60405162461bcd60e51b815260206004820152601f60248201527f5265656e7472616e637947756172643a207265656e7472616e742063616c6c006044820152606490fd5b6201518042049060105482115f1461212457600f54806120eb575b50600f55601055565b60407f400ce819fdf7c3475a786dde6f7400c2ed238ee12f0f3395adc9c2502195fcde916010549082519182526020820152a15f6120e2565b6121319150600f54611de0565b600f5556fe854d7c31246b8a37d7f5e5341b8ba6de06a7522f2dbc86dc4da2f5992fc7c3aba26469706673582212206cd3ae93f0c6183dcaf520b62f0a5e3b195afe0999d9ec4ef334d66453f5f31464736f6c63430008210033","linkReferences":{}},"methodIdentifiers":{"activeIlks(uint256)":"a790dd70","admin()":"f851a440","dailyStablecoinUBI()":"c62891ce","getActiveIlkCount()":"2061042f","getIlkBreakdown()":"e657a89d","getIlkStabilityFees(bytes32)":"19eccc44","getMonthlyUBIEstimate()":"0bc13254","getStablecoinSocialImpactRate()":"da86cdfb","getStablecoinUBIStats()":"58762898","getTodayStablecoinImpact()":"73f9b8d8","getUserMintingFees(address)":"47b5f2f7","goodDollar()":"119e5bf3","ilkExists(bytes32)":"86a3862b","lastDayTimestamp()":"08ca27bf","mintingFeesByUser(address)":"771e7617","monthlyTargetUBI()":"0326d75a","protocolBPS()":"7c393cfd","protocolTreasury()":"803db96d","psmContributions(address)":"63792a4a","setFeeSplit(uint256,uint256)":"7e6335c7","setGoodDollar(address)":"c7888a6d","setMonthlyTarget(uint256)":"ef44e809","setTreasury(address)":"f0f44260","setUBIRecipient(address)":"0fc1c0c0","splitFee(uint256,address)":"64d6def9","splitFeeToken(uint256,address,address)":"7cb4eea2","splitGovernanceFee(uint256,address,address,address)":"09603e93","splitLiquidationPenalty(uint256,address,address,bytes32,address)":"c4b388f2","splitMintingFee(uint256,address,address,address,string)":"ddc78bc6","splitStabilityFee(uint256,address,address,bytes32)":"d2ab907e","stabilityFeesByIlk(bytes32)":"a5af33a0","totalGovernanceFees()":"1e58c676","totalLiquidationFees()":"ee897d64","totalMintingFees()":"6a38f739","totalStabilityFees()":"3f2f8cae","totalUBIFromGovernance()":"953c5be1","totalUBIFromLiquidations()":"840ad837","totalUBIFromMinting()":"d50bc9b0","totalUBIFromStability()":"cabc44f6","ubiBPS()":"66521893","ubiRecipient()":"c33f0d4e","vaultManagerContributions(address)":"317ce70e"},"id":75}