{"abi":[{"type":"constructor","inputs":[{"name":"_admin","type":"address","internalType":"address"}],"stateMutability":"nonpayable"},{"type":"function","name":"admin","inputs":[],"outputs":[{"name":"","type":"address","internalType":"address"}],"stateMutability":"view"},{"type":"function","name":"getAssetPrice","inputs":[{"name":"asset","type":"address","internalType":"address"}],"outputs":[{"name":"","type":"uint256","internalType":"uint256"}],"stateMutability":"view"},{"type":"function","name":"prices","inputs":[{"name":"","type":"address","internalType":"address"}],"outputs":[{"name":"","type":"uint256","internalType":"uint256"}],"stateMutability":"view"},{"type":"function","name":"setAdmin","inputs":[{"name":"_admin","type":"address","internalType":"address"}],"outputs":[],"stateMutability":"nonpayable"},{"type":"function","name":"setAssetPrice","inputs":[{"name":"asset","type":"address","internalType":"address"},{"name":"price","type":"uint256","internalType":"uint256"}],"outputs":[],"stateMutability":"nonpayable"},{"type":"function","name":"setAssetPrices","inputs":[{"name":"assets","type":"address[]","internalType":"address[]"},{"name":"_prices","type":"uint256[]","internalType":"uint256[]"}],"outputs":[],"stateMutability":"nonpayable"},{"type":"event","name":"PriceSet","inputs":[{"name":"asset","type":"address","indexed":true,"internalType":"address"},{"name":"price","type":"uint256","indexed":false,"internalType":"uint256"}],"anonymous":false}],"bytecode":{"object":"0x608034607057601f61044238819003918201601f19168301916001600160401b03831184841017607457808492602094604052833981010312607057516001600160a01b03811690819003607057600180546001600160a01b0319169190911790556040516103b990816100898239f35b5f80fd5b634e487b7160e01b5f52604160045260245ffdfe60806040526004361015610011575f80fd5b5f3560e01c806351323f7214610242578063704b6c02146101f5578063b3596f07146101be578063cfed246b146101be578063ecb1c85a146100875763f851a4401461005b575f80fd5b34610083575f366003190112610083576001546040516001600160a01b039091168152602090f35b5f80fd5b346100835760403660031901126100835760043567ffffffffffffffff8111610083576100b89036906004016102ce565b60243567ffffffffffffffff8111610083576100d89036906004016102ce565b916100ee60018060a01b036001541633146102ff565b828103610187575f5b81811061010057005b8061010e600192868661034b565b35828060a01b0361012861012384878b61034b565b61036f565b165f525f60205260405f205561014261012382858961034b565b7ff9a09e2869a1f88523f00504328d7965866201bafe501573db2e114e3375a086602061017084898961034b565b3592604051938452858060a01b031692a2016100f7565b60405162461bcd60e51b815260206004820152600f60248201526e0d8cadccee8d040dad2e6dac2e8c6d608b1b6044820152606490fd5b34610083576020366003190112610083576001600160a01b036101df6102b8565b165f525f602052602060405f2054604051908152f35b346100835760203660031901126100835761020e6102b8565b60015490610226336001600160a01b038416146102ff565b6001600160a01b03166001600160a01b03199190911617600155005b346100835760403660031901126100835761025b6102b8565b7ff9a09e2869a1f88523f00504328d7965866201bafe501573db2e114e3375a08660206024359261029760018060a01b036001541633146102ff565b6001600160a01b03165f8181528083526040908190208590555193845292a2005b600435906001600160a01b038216820361008357565b9181601f840112156100835782359167ffffffffffffffff8311610083576020808501948460051b01011161008357565b1561030657565b60405162461bcd60e51b815260206004820152601c60248201527f53696d706c6550726963654f7261636c653a206e6f742061646d696e000000006044820152606490fd5b919081101561035b5760051b0190565b634e487b7160e01b5f52603260045260245ffd5b356001600160a01b0381168103610083579056fea2646970667358221220496a85c55732c478830ea7cabb9837914144a9e40bf9adfade6beb340ed9882964736f6c63430008210033","linkReferences":{}},"methodIdentifiers":{"admin()":"f851a440","getAssetPrice(address)":"b3596f07","prices(address)":"cfed246b","setAdmin(address)":"704b6c02","setAssetPrice(address,uint256)":"51323f72","setAssetPrices(address[],uint256[])":"ecb1c85a"},"id":28}