{"abi":[{"type":"function","name":"aggregate","inputs":[{"name":"calls","type":"tuple[]","internalType":"struct Multicall3.Call[]","components":[{"name":"target","type":"address","internalType":"address"},{"name":"callData","type":"bytes","internalType":"bytes"}]}],"outputs":[{"name":"blockNumber","type":"uint256","internalType":"uint256"},{"name":"returnData","type":"bytes[]","internalType":"bytes[]"}],"stateMutability":"payable"},{"type":"function","name":"aggregate3","inputs":[{"name":"calls","type":"tuple[]","internalType":"struct Multicall3.Call3[]","components":[{"name":"target","type":"address","internalType":"address"},{"name":"allowFailure","type":"bool","internalType":"bool"},{"name":"callData","type":"bytes","internalType":"bytes"}]}],"outputs":[{"name":"returnData","type":"tuple[]","internalType":"struct Multicall3.Result[]","components":[{"name":"success","type":"bool","internalType":"bool"},{"name":"returnData","type":"bytes","internalType":"bytes"}]}],"stateMutability":"payable"},{"type":"function","name":"aggregate3Value","inputs":[{"name":"calls","type":"tuple[]","internalType":"struct Multicall3.Call3Value[]","components":[{"name":"target","type":"address","internalType":"address"},{"name":"allowFailure","type":"bool","internalType":"bool"},{"name":"value","type":"uint256","internalType":"uint256"},{"name":"callData","type":"bytes","internalType":"bytes"}]}],"outputs":[{"name":"returnData","type":"tuple[]","internalType":"struct Multicall3.Result[]","components":[{"name":"success","type":"bool","internalType":"bool"},{"name":"returnData","type":"bytes","internalType":"bytes"}]}],"stateMutability":"payable"},{"type":"function","name":"blockAndAggregate","inputs":[{"name":"calls","type":"tuple[]","internalType":"struct Multicall3.Call[]","components":[{"name":"target","type":"address","internalType":"address"},{"name":"callData","type":"bytes","internalType":"bytes"}]}],"outputs":[{"name":"blockNumber","type":"uint256","internalType":"uint256"},{"name":"blockHash","type":"bytes32","internalType":"bytes32"},{"name":"returnData","type":"tuple[]","internalType":"struct Multicall3.Result[]","components":[{"name":"success","type":"bool","internalType":"bool"},{"name":"returnData","type":"bytes","internalType":"bytes"}]}],"stateMutability":"payable"},{"type":"function","name":"getBasefee","inputs":[],"outputs":[{"name":"basefee","type":"uint256","internalType":"uint256"}],"stateMutability":"view"},{"type":"function","name":"getBlockHash","inputs":[{"name":"blockNumber","type":"uint256","internalType":"uint256"}],"outputs":[{"name":"blockHash","type":"bytes32","internalType":"bytes32"}],"stateMutability":"view"},{"type":"function","name":"getBlockNumber","inputs":[],"outputs":[{"name":"blockNumber","type":"uint256","internalType":"uint256"}],"stateMutability":"view"},{"type":"function","name":"getChainId","inputs":[],"outputs":[{"name":"chainid","type":"uint256","internalType":"uint256"}],"stateMutability":"view"},{"type":"function","name":"getCurrentBlockCoinbase","inputs":[],"outputs":[{"name":"coinbase","type":"address","internalType":"address"}],"stateMutability":"view"},{"type":"function","name":"getCurrentBlockGasLimit","inputs":[],"outputs":[{"name":"gaslimit","type":"uint256","internalType":"uint256"}],"stateMutability":"view"},{"type":"function","name":"getCurrentBlockTimestamp","inputs":[],"outputs":[{"name":"timestamp","type":"uint256","internalType":"uint256"}],"stateMutability":"view"},{"type":"function","name":"getEthBalance","inputs":[{"name":"addr","type":"address","internalType":"address"}],"outputs":[{"name":"balance","type":"uint256","internalType":"uint256"}],"stateMutability":"view"},{"type":"function","name":"getLastBlockHash","inputs":[],"outputs":[{"name":"blockHash","type":"bytes32","internalType":"bytes32"}],"stateMutability":"view"},{"type":"function","name":"tryAggregate","inputs":[{"name":"requireSuccess","type":"bool","internalType":"bool"},{"name":"calls","type":"tuple[]","internalType":"struct Multicall3.Call[]","components":[{"name":"target","type":"address","internalType":"address"},{"name":"callData","type":"bytes","internalType":"bytes"}]}],"outputs":[{"name":"returnData","type":"tuple[]","internalType":"struct Multicall3.Result[]","components":[{"name":"success","type":"bool","internalType":"bool"},{"name":"returnData","type":"bytes","internalType":"bytes"}]}],"stateMutability":"payable"},{"type":"function","name":"tryBlockAndAggregate","inputs":[{"name":"requireSuccess","type":"bool","internalType":"bool"},{"name":"calls","type":"tuple[]","internalType":"struct Multicall3.Call[]","components":[{"name":"target","type":"address","internalType":"address"},{"name":"callData","type":"bytes","internalType":"bytes"}]}],"outputs":[{"name":"blockNumber","type":"uint256","internalType":"uint256"},{"name":"blockHash","type":"bytes32","internalType":"bytes32"},{"name":"returnData","type":"tuple[]","internalType":"struct Multicall3.Result[]","components":[{"name":"success","type":"bool","internalType":"bool"},{"name":"returnData","type":"bytes","internalType":"bytes"}]}],"stateMutability":"payable"}],"bytecode":{"object":"0x60808060405234601557610aaf908161001a8239f35b5f80fdfe6080806040526004361015610012575f80fd5b5f3560e01c9081630f28c97d146106c357508063174dea711461056e578063252dba421461042b57806327e86d6e146103f05780633408e470146103d6578063399542e9146103b85780633e64a6961461039e57806342cbb15c146103845780634d2301cc1461035457806382ad56cb1461021957806386d516e8146101ff578063a8b0574e146101e5578063bce38bd7146101bc578063c3077fa9146100e35763ee82ac5e146100c1575f80fd5b346100df5760203660031901126100df576020604051600435408152f35b5f80fd5b60203660031901126100df5760043567ffffffffffffffff81116100df5761010f9036906004016106db565b61011881610869565b915f5b82811061013857604051806101348643804090846107d8565b0390f35b805f8061015061014b6001958888610990565b6108ed565b8161016961015f868a8a610990565b6020810190610901565b9190826040519384928337810182815203925af1610185610934565b61018e826109b2565b6101966107f7565b911515825260208201526101aa828761097c565b526101b5818661097c565b500161011b565b6101346101d16101cb3661079b565b916109db565b604051918291602083526020830190610730565b346100df575f3660031901126100df576020604051418152f35b346100df575f3660031901126100df576020604051458152f35b60203660031901126100df5760043567ffffffffffffffff81116100df576102459036906004016106db565b9061024f82610869565b915f5b81811061026f576040516020808252819061013490820187610730565b5f8061027f61014b8486886109b9565b8161029861028e86888a6109b9565b6040810190610901565b9190826040519384928337810182815203925af1906102b5610934565b91158080610337575b6102f2576001926102cd6107f7565b9115825260208201526102e0828761097c565b526102eb818661097c565b5001610252565b60405162461bcd60e51b815260206004820152601760248201527f4d756c746963616c6c333a2063616c6c206661696c65640000000000000000006044820152606490fd5b5061034e60206103488487896109b9565b0161096f565b156102be565b346100df5760203660031901126100df576004356001600160a01b03811681036100df5760209031604051908152f35b346100df575f3660031901126100df576020604051438152f35b346100df575f3660031901126100df576020604051488152f35b6101346103c76101cb3661079b565b604051918291434043846107d8565b346100df575f3660031901126100df576020604051468152f35b346100df575f3660031901126100df575f1943014381116104175760209060405190408152f35b634e487b7160e01b5f52601160045260245ffd5b60203660031901126100df5760043567ffffffffffffffff81116100df576104579036906004016106db565b61046861046382610851565b61082b565b81815291601f1961047883610851565b015f5b81811061055d5750505f5b8281106104fa57836040518091604082014383526040602084015281518091526060830190602060608260051b8601019301915f905b8282106104cb57505050500390f35b919360019193955060206104ea8192605f198a8203018652885161070c565b96019201920185949391926104bc565b805f8061050d61014b6001958888610990565b8161051c61015f868a8a610990565b9190826040519384928337810182815203925af161054161053b610934565b916109b2565b61054b828761097c565b52610556818661097c565b5001610486565b80606060208093880101520161047b565b60203660031901126100df5760043567ffffffffffffffff81116100df5761059a9036906004016106db565b905f906105a683610869565b925f5b8181106106165750505034036105d15761013490604051918291602083526020830190610730565b60405162461bcd60e51b815260206004820152601a60248201527f4d756c746963616c6c333a2076616c7565206d69736d617463680000000000006044820152606490fd5b5f8060406106258486886108b7565b01358096019561063961014b8587896108b7565b9061065261064886888a6108b7565b6060810190610901565b9190826040519384928337810185815203925af19061066f610934565b911580806106ac575b6102f2576001926106876107f7565b91158252602082015261069a828861097c565b526106a5818761097c565b50016105a9565b506106bd60206103488487896108b7565b15610678565b346100df575f3660031901126100df57602090428152f35b9181601f840112156100df5782359167ffffffffffffffff83116100df576020808501948460051b0101116100df57565b805180835260209291819084018484015e5f828201840152601f01601f1916010190565b9080602083519182815201916020808360051b8301019401925f915b83831061075b57505050505090565b909192939460208061078c600193601f198682030187526040838b518051151584520151918185820152019061070c565b9701930193019193929061074c565b9060406003198301126100df5760043580151581036100df57916024359067ffffffffffffffff82116100df576107d4916004016106db565b9091565b6107f49392606092825260208201528160408201520190610730565b90565b604051906040820182811067ffffffffffffffff82111761081757604052565b634e487b7160e01b5f52604160045260245ffd5b6040519190601f01601f1916820167ffffffffffffffff81118382101761081757604052565b67ffffffffffffffff81116108175760051b60200190565b9061087661046383610851565b8281528092610887601f1991610851565b01905f5b82811061089757505050565b6020906108a26107f7565b5f81526060838201528282850101520161088b565b91908110156108d95760051b81013590607e19813603018212156100df570190565b634e487b7160e01b5f52603260045260245ffd5b356001600160a01b03811681036100df5790565b903590601e19813603018212156100df570180359067ffffffffffffffff82116100df576020019181360383136100df57565b3d1561096a573d9067ffffffffffffffff82116108175761095e601f8301601f191660200161082b565b9182523d5f602084013e565b606090565b3580151581036100df5790565b80518210156108d95760209160051b010190565b91908110156108d95760051b81013590603e19813603018212156100df570190565b156102f257565b91908110156108d95760051b81013590605e19813603018212156100df570190565b929190926109e882610869565b935f5b8381106109f85750505050565b805f80610a0b61014b6001958988610990565b81610a1a61015f868b8a610990565b9190826040519384928337810182815203925af184610a37610934565b90610a6b575b610a456107f7565b91151582526020820152610a59828961097c565b52610a64818861097c565b50016109eb565b610a74826109b2565b610a3d56fea26469706673582212207c93879fdd65b41ea9b5494514a47127536a37e13e5eda329beaad4d63fc535d64736f6c63430008210033","linkReferences":{}},"methodIdentifiers":{"aggregate((address,bytes)[])":"252dba42","aggregate3((address,bool,bytes)[])":"82ad56cb","aggregate3Value((address,bool,uint256,bytes)[])":"174dea71","blockAndAggregate((address,bytes)[])":"c3077fa9","getBasefee()":"3e64a696","getBlockHash(uint256)":"ee82ac5e","getBlockNumber()":"42cbb15c","getChainId()":"3408e470","getCurrentBlockCoinbase()":"a8b0574e","getCurrentBlockGasLimit()":"86d516e8","getCurrentBlockTimestamp()":"0f28c97d","getEthBalance(address)":"4d2301cc","getLastBlockHash()":"27e86d6e","tryAggregate(bool,(address,bytes)[])":"bce38bd7","tryBlockAndAggregate(bool,(address,bytes)[])":"399542e9"},"id":0}