{"abi":[{"type":"constructor","inputs":[{"name":"_goodDollar","type":"address","internalType":"address"},{"name":"_feeSplitter","type":"address","internalType":"address"},{"name":"_admin","type":"address","internalType":"address"}],"stateMutability":"nonpayable"},{"type":"function","name":"EPOCH_DURATION","inputs":[],"outputs":[{"name":"","type":"uint256","internalType":"uint256"}],"stateMutability":"view"},{"type":"function","name":"admin","inputs":[],"outputs":[{"name":"","type":"address","internalType":"address"}],"stateMutability":"view"},{"type":"function","name":"batchClaim","inputs":[{"name":"users","type":"address[]","internalType":"address[]"}],"outputs":[{"name":"claimed","type":"uint256","internalType":"uint256"}],"stateMutability":"nonpayable"},{"type":"function","name":"canClaim","inputs":[{"name":"account","type":"address","internalType":"address"}],"outputs":[{"name":"","type":"bool","internalType":"bool"}],"stateMutability":"view"},{"type":"function","name":"claim","inputs":[],"outputs":[],"stateMutability":"nonpayable"},{"type":"function","name":"claimFor","inputs":[{"name":"user","type":"address","internalType":"address"}],"outputs":[],"stateMutability":"nonpayable"},{"type":"function","name":"currentEpoch","inputs":[],"outputs":[{"name":"","type":"uint256","internalType":"uint256"}],"stateMutability":"view"},{"type":"function","name":"feeSplitter","inputs":[],"outputs":[{"name":"","type":"address","internalType":"contract IUBIFeeSplitter"}],"stateMutability":"view"},{"type":"function","name":"goodDollar","inputs":[],"outputs":[{"name":"","type":"address","internalType":"contract IGoodDollarToken"}],"stateMutability":"view"},{"type":"function","name":"lastClaimEpoch","inputs":[{"name":"","type":"address","internalType":"address"}],"outputs":[{"name":"","type":"uint256","internalType":"uint256"}],"stateMutability":"view"},{"type":"function","name":"selfClaimEnabled","inputs":[],"outputs":[{"name":"","type":"bool","internalType":"bool"}],"stateMutability":"view"},{"type":"function","name":"setFeeSplitter","inputs":[{"name":"_feeSplitter","type":"address","internalType":"address"}],"outputs":[],"stateMutability":"nonpayable"},{"type":"function","name":"setRelayer","inputs":[{"name":"relayer","type":"address","internalType":"address"},{"name":"authorized","type":"bool","internalType":"bool"}],"outputs":[],"stateMutability":"nonpayable"},{"type":"function","name":"setSelfClaimEnabled","inputs":[{"name":"enabled","type":"bool","internalType":"bool"}],"outputs":[],"stateMutability":"nonpayable"},{"type":"function","name":"supplementPool","inputs":[],"outputs":[],"stateMutability":"nonpayable"},{"type":"function","name":"totalClaims","inputs":[],"outputs":[{"name":"","type":"uint256","internalType":"uint256"}],"stateMutability":"view"},{"type":"function","name":"totalMinted","inputs":[],"outputs":[{"name":"","type":"uint256","internalType":"uint256"}],"stateMutability":"view"},{"type":"function","name":"transferAdmin","inputs":[{"name":"newAdmin","type":"address","internalType":"address"}],"outputs":[],"stateMutability":"nonpayable"},{"type":"function","name":"trustedRelayers","inputs":[{"name":"","type":"address","internalType":"address"}],"outputs":[{"name":"","type":"bool","internalType":"bool"}],"stateMutability":"view"},{"type":"event","name":"AdminTransferred","inputs":[{"name":"oldAdmin","type":"address","indexed":true,"internalType":"address"},{"name":"newAdmin","type":"address","indexed":true,"internalType":"address"}],"anonymous":false},{"type":"event","name":"BatchClaimed","inputs":[{"name":"count","type":"uint256","indexed":false,"internalType":"uint256"},{"name":"totalAmount","type":"uint256","indexed":false,"internalType":"uint256"},{"name":"epoch","type":"uint256","indexed":false,"internalType":"uint256"}],"anonymous":false},{"type":"event","name":"RelayerSet","inputs":[{"name":"relayer","type":"address","indexed":true,"internalType":"address"},{"name":"authorized","type":"bool","indexed":false,"internalType":"bool"}],"anonymous":false},{"type":"event","name":"UBIClaimed","inputs":[{"name":"claimer","type":"address","indexed":true,"internalType":"address"},{"name":"amount","type":"uint256","indexed":false,"internalType":"uint256"},{"name":"epoch","type":"uint256","indexed":false,"internalType":"uint256"}],"anonymous":false},{"type":"error","name":"AlreadyClaimedThisEpoch","inputs":[{"name":"account","type":"address","internalType":"address"},{"name":"epoch","type":"uint256","internalType":"uint256"}]},{"type":"error","name":"NotAuthorizedRelayer","inputs":[]},{"type":"error","name":"NotVerifiedHuman","inputs":[{"name":"account","type":"address","internalType":"address"}]},{"type":"error","name":"SelfClaimDisabled","inputs":[]},{"type":"error","name":"ZeroAddress","inputs":[]}],"bytecode":{"object":"0x60a03461011057601f610e8838819003918201601f19168301916001600160401b03831184841017610114578084926060946040528339810103126101105761004781610128565b90610060604061005960208401610128565b9201610128565b60015f8190556005805460ff19169091179055916001600160a01b0316801580156100ff575b6100f057608052600180546001600160a01b039283166001600160a01b03199182161790915560028054939092169216919091179055604051610d4b908161013d823960805181818161017c015281816105a4015281816108d5015281816109cd0152610b660152f35b63d92e233d60e01b5f5260045ffd5b506001600160a01b03831615610086565b5f80fd5b634e487b7160e01b5f52604160045260245ffd5b51906001600160a01b03821682036101105756fe6080806040526004361015610012575f80fd5b5f3560e01c908163119e5bf3146108c3575080631b39786f146108a357806341c61383146108865780634e71d92d1461084b5780636052970c1461082357806375829def146107ab578063766718081461078b5780637c17ec0a14610746578063928d08c01461070e578063a2309ff8146106f1578063a70b9f0c146106d4578063b17fb9d61461066c578063b9b48f501461062f578063bf3506c114610560578063c3c6a40e1461053e578063ddeae033146104f9578063ecd8dc3a1461046f578063f851a440146104475763fb5f749f146100ed575f80fd5b346102d85760203660031901126102d85760043567ffffffffffffffff81116102d857366023820112156102d857806004013567ffffffffffffffff81116102d8573660248260051b840101116102d857335f52600360205260ff60405f205416156104385761015b610af0565b5f906103e8811161040157604051631c9b973760e21b8152620151804204937f00000000000000000000000000000000000000000000000000000000000000006001600160a01b0316939091602081600481885afa9081156102cd575f916103cf575b509293600186018087119492935f939290845b88861015610369576024600587901b830101356001600160a01b03811696908781036102d8578988158015610307575b80156102e9575b6102dc576102a957875f5260046020528560405f2055843b156102d8576040516340c10f1960e01b81526001600160a01b03919091166004820152602481018790525f8160448183895af180156102cd576102bd575b508582018092116102a957600180929801967fa265860bad5040e1bef830652f782ec55a23a74fc92eb2c770e61d7d50cbb01560408d8151908a82526020820152a25b0194956101d1565b634e487b7160e01b5f52601160045260245ffd5b5f6102c79161091a565b5f61025e565b6040513d5f823e3d90fd5b5f80fd5b50506001919796506102a1565b5050875f5260046020528960405f2054906102a957868b9114610208565b50506040516263fa2760e01b815260048101899052602081602481895afa80156102cd578b915f9161033b575b5015610201565b61035c915060203d8111610362575b610354818361091a565b810190610ad8565b5f610334565b503d61034a565b866020918b82610382575b505060015f55604051908152f35b7f61a5a92a0b111ed50938e8a2c768049e084bbdea9dd341cd1cdd47ba40cc54f6916060918460065401600655816007540160075560405191858352868301526040820152a18280610374565b90506020813d6020116103f9575b816103ea6020938361091a565b810103126102d857515f6101be565b3d91506103dd565b60405162461bcd60e51b815260206004820152600f60248201526e426174636820746f6f206c6172676560881b6044820152606490fd5b630bfd903360e11b5f5260045ffd5b346102d8575f3660031901126102d8576002546040516001600160a01b039091168152602090f35b346102d85760403660031901126102d857610488610904565b602435908115158092036102d85760207fee42947bc760229eeff964017ac68eddb00ba98b0defcd90a1bc85a5afceb057916104cf60018060a01b03600254163314610aa0565b60018060a01b031692835f526003825260405f2060ff1981541660ff8316179055604051908152a2005b346102d85760203660031901126102d857610512610904565b335f52600360205260ff60405f205416156104385761053890610533610af0565b610b44565b60015f55005b346102d8575f3660031901126102d857602060ff600554166040519015158152f35b346102d85760203660031901126102d857610579610904565b6040516263fa2760e01b81526001600160a01b039182166004820181905291602090829060249082907f0000000000000000000000000000000000000000000000000000000000000000165afa9081156102cd575f91610610575b50806105e8575b6020906040519015158152f35b505f52600460205260405f2054620151804204600181018091116102a95760209114156105db565b610629915060203d60201161036257610354818361091a565b826105d4565b346102d85760203660031901126102d8576001600160a01b03610650610904565b165f526003602052602060ff60405f2054166040519015158152f35b346102d85760203660031901126102d857610685610904565b61069a60018060a01b03600254163314610aa0565b6001600160a01b031680156106c5576bffffffffffffffffffffffff60a01b60015416176001555f80f35b63d92e233d60e01b5f5260045ffd5b346102d8575f3660031901126102d8576020604051620151808152f35b346102d8575f3660031901126102d8576020600754604051908152f35b346102d85760203660031901126102d8576001600160a01b0361072f610904565b165f526004602052602060405f2054604051908152f35b346102d85760203660031901126102d8576004358015158091036102d85761077960018060a01b03600254163314610aa0565b60ff8019600554169116176005555f80f35b346102d8575f3660031901126102d8576020620151804204604051908152f35b346102d85760203660031901126102d8576107c4610904565b6002546001600160a01b038116916107dd338414610aa0565b6001600160a01b03169182156106c55782907ff8ccb027dfcd135e000e9d45e6cc2d662578a8825d4c45b5e32e0adf67e79ec65f80a36001600160a01b03191617600255005b346102d8575f3660031901126102d8576001546040516001600160a01b039091168152602090f35b346102d8575f3660031901126102d857610863610af0565b60ff60055416156108775761053833610b44565b631f18ee6160e11b5f5260045ffd5b346102d8575f3660031901126102d8576020600654604051908152f35b346102d8575f3660031901126102d8576108bb610af0565b610538610950565b346102d8575f3660031901126102d8577f00000000000000000000000000000000000000000000000000000000000000006001600160a01b03168152602090f35b600435906001600160a01b03821682036102d857565b90601f8019910116810190811067ffffffffffffffff82111761093c57604052565b634e487b7160e01b5f52604160045260245ffd5b6001545f906001600160a01b03168015610a9c5760405163c4f4542360e01b815290602082600481845afa9182156102cd575f92610a68575b508115610a6357803b156102d85760405163212e7c3160e01b815230600482015260248101839052905f908290604490829084905af180156102cd57610a4e575b507f00000000000000000000000000000000000000000000000000000000000000006001600160a01b031690813b15610a4a5782916024839260405194859384926383adc2ff60e01b845260048401525af18015610a3f57610a2a575050565b610a3582809261091a565b610a3c5750565b80fd5b6040513d84823e3d90fd5b8280fd5b610a5b9192505f9061091a565b5f905f6109ca565b505050565b9091506020813d602011610a94575b81610a846020938361091a565b810103126102d85751905f610989565b3d9150610a77565b5050565b15610aa757565b60405162461bcd60e51b81526020600482015260096024820152682737ba1030b236b4b760b91b6044820152606490fd5b908160209103126102d8575180151581036102d85790565b60025f5414610aff5760025f55565b60405162461bcd60e51b815260206004820152601f60248201527f5265656e7472616e637947756172643a207265656e7472616e742063616c6c006044820152606490fd5b6040516263fa2760e01b81526001600160a01b038281166004830181905292917f000000000000000000000000000000000000000000000000000000000000000090911690602081602481855afa9081156102cd575f91610cf6575b5015610ce35762015180420490835f52600460205260405f205460018301908184116102a9578114610ccc57845f52600460205260405f205560405190631c9b973760e21b8252602082600481845afa9182156102cd575f92610c98575b50803b156102d8576040516340c10f1960e01b81526001600160a01b03949094166004850152602484018290525f908490604490829084905af19182156102cd577fa265860bad5040e1bef830652f782ec55a23a74fc92eb2c770e61d7d50cbb01593604093610c88575b50600160065401600655816007540160075582519182526020820152a2565b5f610c929161091a565b5f610c69565b9091506020813d602011610cc4575b81610cb46020938361091a565b810103126102d85751905f610bfe565b3d9150610ca7565b82856306b9852160e31b5f5260045260245260445ffd5b82633f40de5d60e21b5f5260045260245ffd5b610d0f915060203d60201161036257610354818361091a565b5f610ba056fea2646970667358221220ec0ae6069b735bf18ee54f13958534dccbfaf4954396afdfab55f0409bc037fa64736f6c63430008210033","linkReferences":{}},"methodIdentifiers":{"EPOCH_DURATION()":"a70b9f0c","admin()":"f851a440","batchClaim(address[])":"fb5f749f","canClaim(address)":"bf3506c1","claim()":"4e71d92d","claimFor(address)":"ddeae033","currentEpoch()":"76671808","feeSplitter()":"6052970c","goodDollar()":"119e5bf3","lastClaimEpoch(address)":"928d08c0","selfClaimEnabled()":"c3c6a40e","setFeeSplitter(address)":"b17fb9d6","setRelayer(address,bool)":"ecd8dc3a","setSelfClaimEnabled(bool)":"7c17ec0a","supplementPool()":"1b39786f","totalClaims()":"41c61383","totalMinted()":"a2309ff8","transferAdmin(address)":"75829def","trustedRelayers(address)":"b9b48f50"},"id":62}