{"abi":[{"type":"constructor","inputs":[{"name":"_asset","type":"address","internalType":"address"},{"name":"_stabilityPool","type":"address","internalType":"address"},{"name":"_gainToken","type":"address","internalType":"address"},{"name":"_vault","type":"address","internalType":"address"}],"stateMutability":"nonpayable"},{"type":"function","name":"asset","inputs":[],"outputs":[{"name":"","type":"address","internalType":"address"}],"stateMutability":"view"},{"type":"function","name":"deployer","inputs":[],"outputs":[{"name":"","type":"address","internalType":"address"}],"stateMutability":"view"},{"type":"function","name":"deposit","inputs":[{"name":"amount","type":"uint256","internalType":"uint256"}],"outputs":[],"stateMutability":"nonpayable"},{"type":"function","name":"emergencyWithdraw","inputs":[],"outputs":[{"name":"","type":"uint256","internalType":"uint256"}],"stateMutability":"nonpayable"},{"type":"function","name":"gainToken","inputs":[],"outputs":[{"name":"","type":"address","internalType":"address"}],"stateMutability":"view"},{"type":"function","name":"harvest","inputs":[],"outputs":[{"name":"profit","type":"uint256","internalType":"uint256"},{"name":"loss","type":"uint256","internalType":"uint256"}],"stateMutability":"nonpayable"},{"type":"function","name":"paused","inputs":[],"outputs":[{"name":"","type":"bool","internalType":"bool"}],"stateMutability":"view"},{"type":"function","name":"setVault","inputs":[{"name":"_vault","type":"address","internalType":"address"}],"outputs":[],"stateMutability":"nonpayable"},{"type":"function","name":"stabilityPool","inputs":[],"outputs":[{"name":"","type":"address","internalType":"contract IStabilityPool"}],"stateMutability":"view"},{"type":"function","name":"sweepGains","inputs":[{"name":"token","type":"address","internalType":"address"},{"name":"to","type":"address","internalType":"address"}],"outputs":[],"stateMutability":"nonpayable"},{"type":"function","name":"totalAssets","inputs":[],"outputs":[{"name":"","type":"uint256","internalType":"uint256"}],"stateMutability":"view"},{"type":"function","name":"totalDeposited","inputs":[],"outputs":[{"name":"","type":"uint256","internalType":"uint256"}],"stateMutability":"view"},{"type":"function","name":"vault","inputs":[],"outputs":[{"name":"","type":"address","internalType":"address"}],"stateMutability":"view"},{"type":"function","name":"withdraw","inputs":[{"name":"amount","type":"uint256","internalType":"uint256"}],"outputs":[{"name":"","type":"uint256","internalType":"uint256"}],"stateMutability":"nonpayable"},{"type":"event","name":"Deposited","inputs":[{"name":"amount","type":"uint256","indexed":false,"internalType":"uint256"}],"anonymous":false},{"type":"event","name":"GainsClaimed","inputs":[{"name":"ethGain","type":"uint256","indexed":false,"internalType":"uint256"}],"anonymous":false},{"type":"event","name":"Harvested","inputs":[{"name":"profit","type":"uint256","indexed":false,"internalType":"uint256"},{"name":"loss","type":"uint256","indexed":false,"internalType":"uint256"}],"anonymous":false},{"type":"event","name":"Withdrawn","inputs":[{"name":"amount","type":"uint256","indexed":false,"internalType":"uint256"}],"anonymous":false},{"type":"error","name":"CannotSweepAsset","inputs":[]},{"type":"error","name":"IsPaused","inputs":[]},{"type":"error","name":"NotVault","inputs":[]},{"type":"error","name":"TransferFailed","inputs":[]}],"bytecode":{"object":"0x60c0346100f657601f61102c38819003918201601f19168301916001600160401b038311848410176100fa578084926080946040528339810103126100f6576100478161010e565b906100546020820161010e565b61006c60606100656040850161010e565b930161010e565b6080939093523360a052600180546001600160a01b039283166001600160a01b03199182161790915560028054938316938216939093179092555f8054919093169116179055604051610f09908161012382396080518181816101c9015281816103e40152818161063b01528181610b190152610d3d015260a05181818161035e015261077e0152f35b5f80fd5b634e487b7160e01b5f52604160045260245ffd5b51906001600160a01b03821682036100f65756fe6080806040526004361015610012575f80fd5b5f905f3560e01c90816301e1d11414610ba757508063048c661d14610b7f5780632e1a7d4d14610b4857806338d52e0f14610b045780634641257d146108da5780635c975abb146108b85780636817031b146107635780636b0c9cb61461073b578063b57a4b4d146105ee578063b6b55f251461038d578063d5f3948814610348578063db2e21bc146100ff578063fbfa77cf146100d85763ff50abdc146100b8575f80fd5b346100d557806003193601126100d5576020600354604051908152f35b80fd5b50346100d557806003193601126100d557546040516001600160a01b039091168152602090f35b50346100d557806003193601126100d55780546001600160a01b03163303610339576004805460ff1916600190811782555460405163fc7e286d60e01b815230928101929092526001600160a01b0316602082602481845afa9182156102a0578392610305575b5082918061017e575b60208385600355604051908152f35b839250813b15610301578291602483926040519485938492632e1a7d4d60e01b845260048401525af180156102f6576102e1575b50506040516370a0823160e01b81523060048201527f00000000000000000000000000000000000000000000000000000000000000006001600160a01b031690602081602481855afa9081156102a05783916102ab575b508091811561016f57835460405163a9059cbb60e01b81526001600160a01b03909116600482015260248101929092526020908290604490829087905af19081156102a0578391610271575b5015610262575f8061016f565b6312171d8360e31b8252600482fd5b610293915060203d602011610299575b61028b8183610c40565b810190610c76565b5f610255565b503d610281565b6040513d85823e3d90fd5b90506020813d6020116102d9575b816102c660209383610c40565b810103126102d557515f610209565b5f80fd5b3d91506102b9565b816102eb91610c40565b6100d557805f6101b2565b6040513d84823e3d90fd5b5050fd5b9091506020813d602011610331575b8161032160209383610c40565b810103126102d55751905f610166565b3d9150610314565b6362df054560e01b8152600490fd5b50346100d557806003193601126100d5576040517f00000000000000000000000000000000000000000000000000000000000000006001600160a01b03168152602090f35b50346102d55760203660031901126102d5575f54600435906001600160a01b0316338190036105df5760ff600454166105d0576040516323b872dd60e01b81526004810191909152306024820152604481018290527f00000000000000000000000000000000000000000000000000000000000000006001600160a01b0316906020816064815f865af1908115610578575f916105b1575b50156105835760015460405163095ea7b360e01b81526001600160a01b039091166004820152602481018390526020816044815f865af1908115610578575f91610592575b5015610583576001546001600160a01b0316803b156102d5575f809160246040518094819363b6b55f2560e01b83528860048401525af1801561057857610563575b5060208391604460018060a01b0360015416604051948593849263095ea7b360e01b845260048401528160248401525af19081156102a0578391610544575b501561026257600354818101809111610530577f2a89b2e3d580398d6dc2db5e0f336b52602bbaa51afa9bb5cdf59239cf0d2bea91602091600355604051908152a180f35b634e487b7160e01b83526011600452602483fd5b61055d915060203d6020116102995761028b8183610c40565b5f6104eb565b602093505f61057191610c40565b5f926104ac565b6040513d5f823e3d90fd5b6312171d8360e31b5f5260045ffd5b6105ab915060203d6020116102995761028b8183610c40565b5f61046a565b6105ca915060203d6020116102995761028b8183610c40565b5f610425565b631309a56360e01b5f5260045ffd5b6362df054560e01b5f5260045ffd5b346102d55760403660031901126102d557610607610c2a565b602435906001600160a01b03821682036102d5575f546001600160a01b031633036105df576001600160a01b0390811691907f000000000000000000000000000000000000000000000000000000000000000016821461072c576040516370a0823160e01b8152306004820152602081602481865afa908115610578575f916106fa575b508061069357005b60405163a9059cbb60e01b81526001600160a01b03929092166004830152602482015290602090829060449082905f905af1908115610578575f916106db575b501561058357005b6106f4915060203d6020116102995761028b8183610c40565b816106d3565b90506020813d602011610724575b8161071560209383610c40565b810103126102d557518361068b565b3d9150610708565b63a83f6a4360e01b5f5260045ffd5b346102d5575f3660031901126102d5576002546040516001600160a01b039091168152602090f35b346102d55760203660031901126102d55761077c610c2a565b7f00000000000000000000000000000000000000000000000000000000000000006001600160a01b03163303610874575f54906001600160a01b038216610821576001600160a01b03169081156107dc576001600160a01b031916175f55005b60405162461bcd60e51b815260206004820152601e60248201527f537461626c65636f696e53747261746567793a207a65726f207661756c7400006044820152606490fd5b60405162461bcd60e51b815260206004820152602560248201527f537461626c65636f696e53747261746567793a207661756c7420616c726561646044820152641e481cd95d60da1b6064820152608490fd5b606460405162461bcd60e51b815260206004820152602060248201527f537461626c65636f696e53747261746567793a206e6f74206465706c6f7965726044820152fd5b346102d5575f3660031901126102d557602060ff600454166040519015158152f35b346102d5575f3660031901126102d5575f546001600160a01b031633036105df5760015460405163fc7e286d60e01b81523060048201526001600160a01b03909116905f80602083602481875afa928315610578575f93610ad0575b506002546001600160a01b03166109cd575b60035460409450808411156109a457505061096560035483610c8e565b916003555b7ffa07446fad45314351eb89109a154880278451332bb87f1824d435fe58da5939838051848152836020820152a182519182526020820152f35b80849294106109b5575b505061096a565b819250906109c291610c8e565b9060035583806109ae565b60205f94600460405180978193630876f06d60e41b83525af1801561057857610a9e575b6002546040516370a0823160e01b81523060048201529450602090859060249082906001600160a01b03165afa8015610578575f90610a6b575b6040945080610a3b575b50610948565b60207fe24343fc6979cece69f62e8d9d827d532db345ca26167f66ef270d7e6d3f7938918651908152a184610a35565b506020843d602011610a96575b81610a8560209383610c40565b810103126102d55760409351610a2b565b3d9150610a78565b6020843d602011610ac8575b81610ab760209383610c40565b810103126102d557602493506109f1565b3d9150610aaa565b9092506020813d602011610afc575b81610aec60209383610c40565b810103126102d557519184610936565b3d9150610adf565b346102d5575f3660031901126102d5576040517f00000000000000000000000000000000000000000000000000000000000000006001600160a01b03168152602090f35b346102d55760203660031901126102d5575f546001600160a01b031633036105df576020610b77600435610caf565b604051908152f35b346102d5575f3660031901126102d5576001546040516001600160a01b039091168152602090f35b346102d5575f3660031901126102d55760015463fc7e286d60e01b8252306004830152602090829060249082906001600160a01b03165afa8015610578575f90610bf7575b602090604051908152f35b506020813d602011610c22575b81610c1160209383610c40565b810103126102d55760209051610bec565b3d9150610c04565b600435906001600160a01b03821682036102d557565b90601f8019910116810190811067ffffffffffffffff821117610c6257604052565b634e487b7160e01b5f52604160045260245ffd5b908160209103126102d5575180151581036102d55790565b91908203918211610c9b57565b634e487b7160e01b5f52601160045260245ffd5b60015460405163fc7e286d60e01b81523060048201525f926001600160a01b039092169190602081602481865afa908115610578575f91610ea1575b50808211610e99575b50813b156102d5575f91602483926040519485938492632e1a7d4d60e01b845260048401525af1801561057857610e86575b506040516370a0823160e01b8152306004820152907f00000000000000000000000000000000000000000000000000000000000000006001600160a01b0316602083602481845afa9283156102f6578293610e52575b508215610e4c57815460405163a9059cbb60e01b81526001600160a01b03909116600482015260248101849052906020908290604490829086905af19081156102f6578291610e2d575b5015610e1e57816003548082115f14610e0c5750506003555b7f430648de173157e069201c943adb2d4e340e7cf5b27b1b09c9cb852f03d63b566020604051838152a190565b610e169250610c8e565b600355610ddf565b6312171d8360e31b8152600490fd5b610e46915060203d6020116102995761028b8183610c40565b5f610dc6565b50905090565b9092506020813d602011610e7e575b81610e6e60209383610c40565b810103126102d55751915f610d7c565b3d9150610e61565b610e9291505f90610c40565b5f5f610d26565b90505f610cf4565b90506020813d602011610ecb575b81610ebc60209383610c40565b810103126102d557515f610ceb565b3d9150610eaf56fea26469706673582212207f067dbcf6728135c9bbca1ca313ada49d4ed23567500319e099044d167edbf864736f6c63430008210033","linkReferences":{}},"methodIdentifiers":{"asset()":"38d52e0f","deployer()":"d5f39488","deposit(uint256)":"b6b55f25","emergencyWithdraw()":"db2e21bc","gainToken()":"6b0c9cb6","harvest()":"4641257d","paused()":"5c975abb","setVault(address)":"6817031b","stabilityPool()":"048c661d","sweepGains(address,address)":"b57a4b4d","totalAssets()":"01e1d114","totalDeposited()":"ff50abdc","vault()":"fbfa77cf","withdraw(uint256)":"2e1a7d4d"},"id":63}