{"abi":[{"type":"constructor","inputs":[{"name":"_asset","type":"address","internalType":"address"},{"name":"_stabilityPool","type":"address","internalType":"address"},{"name":"_gainToken","type":"address","internalType":"address"},{"name":"_vault","type":"address","internalType":"address"}],"stateMutability":"nonpayable"},{"type":"function","name":"asset","inputs":[],"outputs":[{"name":"","type":"address","internalType":"address"}],"stateMutability":"view"},{"type":"function","name":"deployer","inputs":[],"outputs":[{"name":"","type":"address","internalType":"address"}],"stateMutability":"view"},{"type":"function","name":"deposit","inputs":[{"name":"amount","type":"uint256","internalType":"uint256"}],"outputs":[],"stateMutability":"nonpayable"},{"type":"function","name":"emergencyWithdraw","inputs":[],"outputs":[{"name":"","type":"uint256","internalType":"uint256"}],"stateMutability":"nonpayable"},{"type":"function","name":"gainToken","inputs":[],"outputs":[{"name":"","type":"address","internalType":"address"}],"stateMutability":"view"},{"type":"function","name":"harvest","inputs":[],"outputs":[{"name":"profit","type":"uint256","internalType":"uint256"},{"name":"loss","type":"uint256","internalType":"uint256"}],"stateMutability":"nonpayable"},{"type":"function","name":"paused","inputs":[],"outputs":[{"name":"","type":"bool","internalType":"bool"}],"stateMutability":"view"},{"type":"function","name":"setVault","inputs":[{"name":"_vault","type":"address","internalType":"address"}],"outputs":[],"stateMutability":"nonpayable"},{"type":"function","name":"stabilityPool","inputs":[],"outputs":[{"name":"","type":"address","internalType":"contract IStabilityPool"}],"stateMutability":"view"},{"type":"function","name":"sweepGains","inputs":[{"name":"token","type":"address","internalType":"address"},{"name":"to","type":"address","internalType":"address"}],"outputs":[],"stateMutability":"nonpayable"},{"type":"function","name":"totalAssets","inputs":[],"outputs":[{"name":"","type":"uint256","internalType":"uint256"}],"stateMutability":"view"},{"type":"function","name":"totalDeposited","inputs":[],"outputs":[{"name":"","type":"uint256","internalType":"uint256"}],"stateMutability":"view"},{"type":"function","name":"vault","inputs":[],"outputs":[{"name":"","type":"address","internalType":"address"}],"stateMutability":"view"},{"type":"function","name":"withdraw","inputs":[{"name":"amount","type":"uint256","internalType":"uint256"}],"outputs":[{"name":"","type":"uint256","internalType":"uint256"}],"stateMutability":"nonpayable"},{"type":"event","name":"Deposited","inputs":[{"name":"amount","type":"uint256","indexed":false,"internalType":"uint256"}],"anonymous":false},{"type":"event","name":"GainsClaimed","inputs":[{"name":"ethGain","type":"uint256","indexed":false,"internalType":"uint256"}],"anonymous":false},{"type":"event","name":"Harvested","inputs":[{"name":"profit","type":"uint256","indexed":false,"internalType":"uint256"},{"name":"loss","type":"uint256","indexed":false,"internalType":"uint256"}],"anonymous":false},{"type":"event","name":"Withdrawn","inputs":[{"name":"amount","type":"uint256","indexed":false,"internalType":"uint256"}],"anonymous":false},{"type":"error","name":"CannotSweepAsset","inputs":[]},{"type":"error","name":"IsPaused","inputs":[]},{"type":"error","name":"NotVault","inputs":[]},{"type":"error","name":"TransferFailed","inputs":[]}],"bytecode":{"object":"0x60c0346100f657601f61102238819003918201601f19168301916001600160401b038311848410176100fa578084926080946040528339810103126100f6576100478161010e565b906100546020820161010e565b61006c60606100656040850161010e565b930161010e565b6080939093523360a052600180546001600160a01b039283166001600160a01b03199182161790915560028054938316938216939093179092555f8054919093169116179055604051610eff908161012382396080518181816101c9015281816103e40152818161063101528181610b0f0152610d33015260a05181818161035e01526107740152f35b5f80fd5b634e487b7160e01b5f52604160045260245ffd5b51906001600160a01b03821682036100f65756fe6080806040526004361015610012575f80fd5b5f905f3560e01c90816301e1d11414610b9d57508063048c661d14610b755780632e1a7d4d14610b3e57806338d52e0f14610afa5780634641257d146108d05780635c975abb146108ae5780636817031b146107595780636b0c9cb614610731578063b57a4b4d146105e4578063b6b55f251461038d578063d5f3948814610348578063db2e21bc146100ff578063fbfa77cf146100d85763ff50abdc146100b8575f80fd5b346100d557806003193601126100d5576020600354604051908152f35b80fd5b50346100d557806003193601126100d557546040516001600160a01b039091168152602090f35b50346100d557806003193601126100d55780546001600160a01b03163303610339576004805460ff1916600190811782555460405163fc7e286d60e01b815230928101929092526001600160a01b0316602082602481845afa9182156102a0578392610305575b5082918061017e575b60208385600355604051908152f35b839250813b15610301578291602483926040519485938492632e1a7d4d60e01b845260048401525af180156102f6576102e1575b50506040516370a0823160e01b81523060048201527f00000000000000000000000000000000000000000000000000000000000000006001600160a01b031690602081602481855afa9081156102a05783916102ab575b508091811561016f57835460405163a9059cbb60e01b81526001600160a01b03909116600482015260248101929092526020908290604490829087905af19081156102a0578391610271575b5015610262575f8061016f565b6312171d8360e31b8252600482fd5b610293915060203d602011610299575b61028b8183610c36565b810190610c6c565b5f610255565b503d610281565b6040513d85823e3d90fd5b90506020813d6020116102d9575b816102c660209383610c36565b810103126102d557515f610209565b5f80fd5b3d91506102b9565b816102eb91610c36565b6100d557805f6101b2565b6040513d84823e3d90fd5b5050fd5b9091506020813d602011610331575b8161032160209383610c36565b810103126102d55751905f610166565b3d9150610314565b6362df054560e01b8152600490fd5b50346100d557806003193601126100d5576040517f00000000000000000000000000000000000000000000000000000000000000006001600160a01b03168152602090f35b50346102d55760203660031901126102d5575f54600435906001600160a01b0316338190036105d55760ff600454166105c6576040516323b872dd60e01b81526004810191909152306024820152604481018290527f00000000000000000000000000000000000000000000000000000000000000006001600160a01b0316906020816064815f865af190811561056e575f916105a7575b50156105795760015460405163095ea7b360e01b81526001600160a01b039091166004820152602481018390526020816044815f865af190811561056e575f91610588575b5015610579576001546001600160a01b0316803b156102d5575f809160246040518094819363b6b55f2560e01b83528860048401525af1801561056e57610559575b5060208391604460018060a01b0360015416604051948593849263095ea7b360e01b845260048401528160248401525af180156102a05761053c575b50600354818101809111610528577f2a89b2e3d580398d6dc2db5e0f336b52602bbaa51afa9bb5cdf59239cf0d2bea91602091600355604051908152a180f35b634e487b7160e01b83526011600452602483fd5b6105549060203d6020116102995761028b8183610c36565b6104e8565b602093505f61056791610c36565b5f926104ac565b6040513d5f823e3d90fd5b6312171d8360e31b5f5260045ffd5b6105a1915060203d6020116102995761028b8183610c36565b5f61046a565b6105c0915060203d6020116102995761028b8183610c36565b5f610425565b631309a56360e01b5f5260045ffd5b6362df054560e01b5f5260045ffd5b346102d55760403660031901126102d5576105fd610c20565b602435906001600160a01b03821682036102d5575f546001600160a01b031633036105d5576001600160a01b0390811691907f0000000000000000000000000000000000000000000000000000000000000000168214610722576040516370a0823160e01b8152306004820152602081602481865afa90811561056e575f916106f0575b508061068957005b60405163a9059cbb60e01b81526001600160a01b03929092166004830152602482015290602090829060449082905f905af190811561056e575f916106d1575b501561057957005b6106ea915060203d6020116102995761028b8183610c36565b816106c9565b90506020813d60201161071a575b8161070b60209383610c36565b810103126102d5575183610681565b3d91506106fe565b63a83f6a4360e01b5f5260045ffd5b346102d5575f3660031901126102d5576002546040516001600160a01b039091168152602090f35b346102d55760203660031901126102d557610772610c20565b7f00000000000000000000000000000000000000000000000000000000000000006001600160a01b0316330361086a575f54906001600160a01b038216610817576001600160a01b03169081156107d2576001600160a01b031916175f55005b60405162461bcd60e51b815260206004820152601e60248201527f537461626c65636f696e53747261746567793a207a65726f207661756c7400006044820152606490fd5b60405162461bcd60e51b815260206004820152602560248201527f537461626c65636f696e53747261746567793a207661756c7420616c726561646044820152641e481cd95d60da1b6064820152608490fd5b606460405162461bcd60e51b815260206004820152602060248201527f537461626c65636f696e53747261746567793a206e6f74206465706c6f7965726044820152fd5b346102d5575f3660031901126102d557602060ff600454166040519015158152f35b346102d5575f3660031901126102d5575f546001600160a01b031633036105d55760015460405163fc7e286d60e01b81523060048201526001600160a01b03909116905f80602083602481875afa92831561056e575f93610ac6575b506002546001600160a01b03166109c3575b600354604094508084111561099a57505061095b60035483610c84565b916003555b7ffa07446fad45314351eb89109a154880278451332bb87f1824d435fe58da5939838051848152836020820152a182519182526020820152f35b80849294106109ab575b5050610960565b819250906109b891610c84565b9060035583806109a4565b60205f94600460405180978193630876f06d60e41b83525af1801561056e57610a94575b6002546040516370a0823160e01b81523060048201529450602090859060249082906001600160a01b03165afa801561056e575f90610a61575b6040945080610a31575b5061093e565b60207fe24343fc6979cece69f62e8d9d827d532db345ca26167f66ef270d7e6d3f7938918651908152a184610a2b565b506020843d602011610a8c575b81610a7b60209383610c36565b810103126102d55760409351610a21565b3d9150610a6e565b6020843d602011610abe575b81610aad60209383610c36565b810103126102d557602493506109e7565b3d9150610aa0565b9092506020813d602011610af2575b81610ae260209383610c36565b810103126102d55751918461092c565b3d9150610ad5565b346102d5575f3660031901126102d5576040517f00000000000000000000000000000000000000000000000000000000000000006001600160a01b03168152602090f35b346102d55760203660031901126102d5575f546001600160a01b031633036105d5576020610b6d600435610ca5565b604051908152f35b346102d5575f3660031901126102d5576001546040516001600160a01b039091168152602090f35b346102d5575f3660031901126102d55760015463fc7e286d60e01b8252306004830152602090829060249082906001600160a01b03165afa801561056e575f90610bed575b602090604051908152f35b506020813d602011610c18575b81610c0760209383610c36565b810103126102d55760209051610be2565b3d9150610bfa565b600435906001600160a01b03821682036102d557565b90601f8019910116810190811067ffffffffffffffff821117610c5857604052565b634e487b7160e01b5f52604160045260245ffd5b908160209103126102d5575180151581036102d55790565b91908203918211610c9157565b634e487b7160e01b5f52601160045260245ffd5b60015460405163fc7e286d60e01b81523060048201525f926001600160a01b039092169190602081602481865afa90811561056e575f91610e97575b50808211610e8f575b50813b156102d5575f91602483926040519485938492632e1a7d4d60e01b845260048401525af1801561056e57610e7c575b506040516370a0823160e01b8152306004820152907f00000000000000000000000000000000000000000000000000000000000000006001600160a01b0316602083602481845afa9283156102f6578293610e48575b508215610e4257815460405163a9059cbb60e01b81526001600160a01b03909116600482015260248101849052906020908290604490829086905af19081156102f6578291610e23575b5015610e1457816003548082115f14610e025750506003555b7f430648de173157e069201c943adb2d4e340e7cf5b27b1b09c9cb852f03d63b566020604051838152a190565b610e0c9250610c84565b600355610dd5565b6312171d8360e31b8152600490fd5b610e3c915060203d6020116102995761028b8183610c36565b5f610dbc565b50905090565b9092506020813d602011610e74575b81610e6460209383610c36565b810103126102d55751915f610d72565b3d9150610e57565b610e8891505f90610c36565b5f5f610d1c565b90505f610cea565b90506020813d602011610ec1575b81610eb260209383610c36565b810103126102d557515f610ce1565b3d9150610ea556fea2646970667358221220ea15dc848fc40b4baceacb7d5ad01ff5fe49dcb6df0125db1ca2cd888526a77164736f6c63430008210033","linkReferences":{}},"methodIdentifiers":{"asset()":"38d52e0f","deployer()":"d5f39488","deposit(uint256)":"b6b55f25","emergencyWithdraw()":"db2e21bc","gainToken()":"6b0c9cb6","harvest()":"4641257d","paused()":"5c975abb","setVault(address)":"6817031b","stabilityPool()":"048c661d","sweepGains(address,address)":"b57a4b4d","totalAssets()":"01e1d114","totalDeposited()":"ff50abdc","vault()":"fbfa77cf","withdraw(uint256)":"2e1a7d4d"},"id":53}