{"abi":[{"type":"constructor","inputs":[{"name":"_asset","type":"address","internalType":"address"},{"name":"_stabilityPool","type":"address","internalType":"address"},{"name":"_gainToken","type":"address","internalType":"address"},{"name":"_vault","type":"address","internalType":"address"}],"stateMutability":"nonpayable"},{"type":"function","name":"asset","inputs":[],"outputs":[{"name":"","type":"address","internalType":"address"}],"stateMutability":"view"},{"type":"function","name":"deployer","inputs":[],"outputs":[{"name":"","type":"address","internalType":"address"}],"stateMutability":"view"},{"type":"function","name":"deposit","inputs":[{"name":"amount","type":"uint256","internalType":"uint256"}],"outputs":[],"stateMutability":"nonpayable"},{"type":"function","name":"emergencyWithdraw","inputs":[],"outputs":[{"name":"","type":"uint256","internalType":"uint256"}],"stateMutability":"nonpayable"},{"type":"function","name":"gainToken","inputs":[],"outputs":[{"name":"","type":"address","internalType":"address"}],"stateMutability":"view"},{"type":"function","name":"harvest","inputs":[],"outputs":[{"name":"profit","type":"uint256","internalType":"uint256"},{"name":"loss","type":"uint256","internalType":"uint256"}],"stateMutability":"nonpayable"},{"type":"function","name":"paused","inputs":[],"outputs":[{"name":"","type":"bool","internalType":"bool"}],"stateMutability":"view"},{"type":"function","name":"setVault","inputs":[{"name":"_vault","type":"address","internalType":"address"}],"outputs":[],"stateMutability":"nonpayable"},{"type":"function","name":"stabilityPool","inputs":[],"outputs":[{"name":"","type":"address","internalType":"contract IStabilityPool"}],"stateMutability":"view"},{"type":"function","name":"totalAssets","inputs":[],"outputs":[{"name":"","type":"uint256","internalType":"uint256"}],"stateMutability":"view"},{"type":"function","name":"totalDeposited","inputs":[],"outputs":[{"name":"","type":"uint256","internalType":"uint256"}],"stateMutability":"view"},{"type":"function","name":"vault","inputs":[],"outputs":[{"name":"","type":"address","internalType":"address"}],"stateMutability":"view"},{"type":"function","name":"withdraw","inputs":[{"name":"amount","type":"uint256","internalType":"uint256"}],"outputs":[{"name":"","type":"uint256","internalType":"uint256"}],"stateMutability":"nonpayable"},{"type":"event","name":"Deposited","inputs":[{"name":"amount","type":"uint256","indexed":false,"internalType":"uint256"}],"anonymous":false},{"type":"event","name":"GainsClaimed","inputs":[{"name":"ethGain","type":"uint256","indexed":false,"internalType":"uint256"}],"anonymous":false},{"type":"event","name":"Harvested","inputs":[{"name":"profit","type":"uint256","indexed":false,"internalType":"uint256"},{"name":"loss","type":"uint256","indexed":false,"internalType":"uint256"}],"anonymous":false},{"type":"event","name":"Withdrawn","inputs":[{"name":"amount","type":"uint256","indexed":false,"internalType":"uint256"}],"anonymous":false},{"type":"error","name":"IsPaused","inputs":[]},{"type":"error","name":"NotVault","inputs":[]},{"type":"error","name":"TransferFailed","inputs":[]}],"bytecode":{"object":"0x60c0346100ef57601f610e0c38819003918201601f19168301916001600160401b038311848410176100f3578084926080946040528339810103126100ef5761004781610107565b9061005460208201610107565b61006c606061006560408501610107565b9301610107565b6080939093523360a052600180546001600160a01b039283166001600160a01b03199182161790915560028054938316938216939093179092555f8054919093169116179055604051610cf0908161011c82396080518181816101d80152818161036c015281816109820152610a81015260a0518181816102e6015261056d0152f35b5f80fd5b634e487b7160e01b5f52604160045260245ffd5b51906001600160a01b03821682036100ef5756fe6080806040526004361015610012575f80fd5b5f905f3560e01c90816301e1d11414610bc857508063048c661d14610ba05780632e1a7d4d146109b157806338d52e0f1461096c5780634641257d146106c05780635c975abb1461069d5780636817031b146105445780636b0c9cb61461051b578063b6b55f2514610315578063d5f39488146102d0578063db2e21bc146100f4578063fbfa77cf146100cd5763ff50abdc146100ad575f80fd5b346100ca57806003193601126100ca576020600354604051908152f35b80fd5b50346100ca57806003193601126100ca57546040516001600160a01b039091168152602090f35b50346100ca57806003193601126100ca5780546001600160a01b031633036102c1576004805460ff1916600190811782555460405163fc7e286d60e01b815230928101929092526001600160a01b0316602082602481845afa91821561025a578392610289575b5081610171575b50602091600355604051908152f35b8083913b1561027a57818091602460405180948193632e1a7d4d60e01b83528860048401525af1801561027e57610265575b5050815460405163a9059cbb60e01b81526001600160a01b0390911660048201526024810182905260208180604481010381867f00000000000000000000000000000000000000000000000000000000000000006001600160a01b03165af190811561025a57839161022b575b501561021c575f610162565b6312171d8360e31b8252600482fd5b61024d915060203d602011610253575b6102458183610c4b565b810190610c81565b5f610210565b503d61023b565b6040513d85823e3d90fd5b8161026f91610c4b565b61027a57815f6101a3565b5080fd5b6040513d84823e3d90fd5b9091506020813d6020116102b9575b816102a560209383610c4b565b810103126102b55751905f61015b565b5f80fd5b3d9150610298565b6362df054560e01b8152600490fd5b50346100ca57806003193601126100ca576040517f00000000000000000000000000000000000000000000000000000000000000006001600160a01b03168152602090f35b50346100ca5760203660031901126100ca578054600435906001600160a01b03163381900361050c5760ff600454166104fd576040516323b872dd60e01b81526004810191909152306024820152604481018290527f00000000000000000000000000000000000000000000000000000000000000006001600160a01b03169060208160648187865af19081156104f25784916104d3575b50156104c45760015460405163095ea7b360e01b81526001600160a01b03909116600482015260248101839052906020908290604490829087905af190811561025a5783916104a5575b501561021c5760015482906001600160a01b0316803b1561027a5781809160246040518094819363b6b55f2560e01b83528860048401525af1801561027e57610490575b505060035481810180911161047c577f2a89b2e3d580398d6dc2db5e0f336b52602bbaa51afa9bb5cdf59239cf0d2bea91602091600355604051908152a180f35b634e487b7160e01b83526011600452602483fd5b8161049a91610c4b565b61027a57815f61043b565b6104be915060203d602011610253576102458183610c4b565b5f6103f7565b6312171d8360e31b8352600483fd5b6104ec915060203d602011610253576102458183610c4b565b5f6103ad565b6040513d86823e3d90fd5b631309a56360e01b8352600483fd5b6362df054560e01b8352600483fd5b50346100ca57806003193601126100ca576002546040516001600160a01b039091168152602090f35b50346100ca5760203660031901126100ca576004356001600160a01b0381169081900361027a577f00000000000000000000000000000000000000000000000000000000000000006001600160a01b031633036106595781546001600160a01b0381166106065781156105c1576001600160a01b03191617815580f35b60405162461bcd60e51b815260206004820152601e60248201527f537461626c65636f696e53747261746567793a207a65726f207661756c7400006044820152606490fd5b60405162461bcd60e51b815260206004820152602560248201527f537461626c65636f696e53747261746567793a207661756c7420616c726561646044820152641e481cd95d60da1b6064820152608490fd5b606460405162461bcd60e51b815260206004820152602060248201527f537461626c65636f696e53747261746567793a206e6f74206465706c6f7965726044820152fd5b50346100ca57806003193601126100ca57602060ff600454166040519015158152f35b50346100ca57806003193601126100ca5780546001600160a01b031633036102c15760015460405163fc7e286d60e01b815230600482015290829081906001600160a01b0316602084602481845afa93841561092d578594610938575b506002546001600160a01b03166107b5575b50600354604094508084111561078c57505061074d60035483610c99565b916003555b7ffa07446fad45314351eb89109a154880278451332bb87f1824d435fe58da5939838051848152836020820152a182519182526020820152f35b808492941061079d575b5050610752565b819250906107aa91610c99565b906003555f80610796565b60208591600460405180948193630876f06d60e41b83525af1801561092d576108fe575b506002546040516370a0823160e01b815230600482015294906001600160a01b0316602086602481845afa95861561027e5782966108ca575b508561081f575b5061072f565b815460405163a9059cbb60e01b81526001600160a01b03909116600482015260248101879052906020908290604490829086905af190811561027e5782916108ab575b501561089c57507fe24343fc6979cece69f62e8d9d827d532db345ca26167f66ef270d7e6d3f793860206040958651908152a15f80610819565b6312171d8360e31b8152600490fd5b6108c4915060203d602011610253576102458183610c4b565b5f610862565b9095506020813d6020116108f6575b816108e660209383610c4b565b810103126102b55751945f610812565b3d91506108d9565b6020813d602011610925575b8161091760209383610c4b565b810103126102b557516107d9565b3d915061090a565b6040513d87823e3d90fd5b9093506020813d602011610964575b8161095460209383610c4b565b810103126102b55751925f61071d565b3d9150610947565b50346100ca57806003193601126100ca576040517f00000000000000000000000000000000000000000000000000000000000000006001600160a01b03168152602090f35b50346102b55760203660031901126102b5575f54600435906001600160a01b03163303610b915760015460405163fc7e286d60e01b81523060048201526001600160a01b03909116908290602081602481865afa908115610b4c575f91610b5f575b50809111610b57575b50803b156102b5575f8091602460405180948193632e1a7d4d60e01b83528760048401525af18015610b4c57610b37575b50815460405163a9059cbb60e01b81526001600160a01b0390911660048201526024810182905260208180604481010381867f00000000000000000000000000000000000000000000000000000000000000006001600160a01b03165af190811561025a578391610b18575b501561021c57602091816003548082115f14610b065750506003555b7f430648de173157e069201c943adb2d4e340e7cf5b27b1b09c9cb852f03d63b5682604051838152a1604051908152f35b610b109250610c99565b600355610ad5565b610b31915060203d602011610253576102458183610c4b565b5f610ab9565b610b449192505f90610c4b565b5f905f610a4d565b6040513d5f823e3d90fd5b91505f610a1c565b90506020813d602011610b89575b81610b7a60209383610c4b565b810103126102b557515f610a13565b3d9150610b6d565b6362df054560e01b5f5260045ffd5b346102b5575f3660031901126102b5576001546040516001600160a01b039091168152602090f35b346102b5575f3660031901126102b55760015463fc7e286d60e01b8252306004830152602090829060249082906001600160a01b03165afa8015610b4c575f90610c18575b602090604051908152f35b506020813d602011610c43575b81610c3260209383610c4b565b810103126102b55760209051610c0d565b3d9150610c25565b90601f8019910116810190811067ffffffffffffffff821117610c6d57604052565b634e487b7160e01b5f52604160045260245ffd5b908160209103126102b5575180151581036102b55790565b91908203918211610ca657565b634e487b7160e01b5f52601160045260245ffdfea26469706673582212201899d25b157331cb03050b05f4929d4b3158fc885b2dda72aa94ff8480788f2e64736f6c63430008210033","linkReferences":{}},"methodIdentifiers":{"asset()":"38d52e0f","deployer()":"d5f39488","deposit(uint256)":"b6b55f25","emergencyWithdraw()":"db2e21bc","gainToken()":"6b0c9cb6","harvest()":"4641257d","paused()":"5c975abb","setVault(address)":"6817031b","stabilityPool()":"048c661d","totalAssets()":"01e1d114","totalDeposited()":"ff50abdc","vault()":"fbfa77cf","withdraw(uint256)":"2e1a7d4d"},"id":23}