{"abi":[{"type":"constructor","inputs":[{"name":"_delay","type":"uint256","internalType":"uint256"},{"name":"_proposers","type":"address[]","internalType":"address[]"},{"name":"_executors","type":"address[]","internalType":"address[]"},{"name":"_admin","type":"address","internalType":"address"},{"name":"_ubiTreasury","type":"address","internalType":"address"}],"stateMutability":"nonpayable"},{"type":"receive","stateMutability":"payable"},{"type":"function","name":"GRACE_PERIOD","inputs":[],"outputs":[{"name":"","type":"uint256","internalType":"uint256"}],"stateMutability":"view"},{"type":"function","name":"MAX_DELAY","inputs":[],"outputs":[{"name":"","type":"uint256","internalType":"uint256"}],"stateMutability":"view"},{"type":"function","name":"MIN_DELAY","inputs":[],"outputs":[{"name":"","type":"uint256","internalType":"uint256"}],"stateMutability":"view"},{"type":"function","name":"admin","inputs":[],"outputs":[{"name":"","type":"address","internalType":"address"}],"stateMutability":"view"},{"type":"function","name":"cancel","inputs":[{"name":"id","type":"bytes32","internalType":"bytes32"}],"outputs":[],"stateMutability":"nonpayable"},{"type":"function","name":"delay","inputs":[],"outputs":[{"name":"","type":"uint256","internalType":"uint256"}],"stateMutability":"view"},{"type":"function","name":"execute","inputs":[{"name":"target","type":"address","internalType":"address"},{"name":"value","type":"uint256","internalType":"uint256"},{"name":"data","type":"bytes","internalType":"bytes"},{"name":"predecessor","type":"bytes32","internalType":"bytes32"}],"outputs":[],"stateMutability":"payable"},{"type":"function","name":"executeBatch","inputs":[{"name":"targets","type":"address[]","internalType":"address[]"},{"name":"values","type":"uint256[]","internalType":"uint256[]"},{"name":"calldatas","type":"bytes[]","internalType":"bytes[]"},{"name":"predecessor","type":"bytes32","internalType":"bytes32"}],"outputs":[],"stateMutability":"payable"},{"type":"function","name":"hashOperationBatch","inputs":[{"name":"targets","type":"address[]","internalType":"address[]"},{"name":"values","type":"uint256[]","internalType":"uint256[]"},{"name":"calldatas","type":"bytes[]","internalType":"bytes[]"},{"name":"predecessor","type":"bytes32","internalType":"bytes32"}],"outputs":[{"name":"","type":"bytes32","internalType":"bytes32"}],"stateMutability":"pure"},{"type":"function","name":"isExecutor","inputs":[{"name":"","type":"address","internalType":"address"}],"outputs":[{"name":"","type":"bool","internalType":"bool"}],"stateMutability":"view"},{"type":"function","name":"isOperationDone","inputs":[{"name":"id","type":"bytes32","internalType":"bytes32"}],"outputs":[{"name":"","type":"bool","internalType":"bool"}],"stateMutability":"view"},{"type":"function","name":"isOperationPending","inputs":[{"name":"id","type":"bytes32","internalType":"bytes32"}],"outputs":[{"name":"","type":"bool","internalType":"bool"}],"stateMutability":"view"},{"type":"function","name":"isOperationReady","inputs":[{"name":"id","type":"bytes32","internalType":"bytes32"}],"outputs":[{"name":"","type":"bool","internalType":"bool"}],"stateMutability":"view"},{"type":"function","name":"isProposer","inputs":[{"name":"","type":"address","internalType":"address"}],"outputs":[{"name":"","type":"bool","internalType":"bool"}],"stateMutability":"view"},{"type":"function","name":"schedule","inputs":[{"name":"target","type":"address","internalType":"address"},{"name":"value","type":"uint256","internalType":"uint256"},{"name":"data","type":"bytes","internalType":"bytes"},{"name":"predecessor","type":"bytes32","internalType":"bytes32"}],"outputs":[{"name":"","type":"bytes32","internalType":"bytes32"}],"stateMutability":"nonpayable"},{"type":"function","name":"scheduleBatch","inputs":[{"name":"targets","type":"address[]","internalType":"address[]"},{"name":"values","type":"uint256[]","internalType":"uint256[]"},{"name":"calldatas","type":"bytes[]","internalType":"bytes[]"},{"name":"predecessor","type":"bytes32","internalType":"bytes32"}],"outputs":[{"name":"","type":"bytes32","internalType":"bytes32"}],"stateMutability":"nonpayable"},{"type":"function","name":"setExecutor","inputs":[{"name":"account","type":"address","internalType":"address"},{"name":"status","type":"bool","internalType":"bool"}],"outputs":[],"stateMutability":"nonpayable"},{"type":"function","name":"setProposer","inputs":[{"name":"account","type":"address","internalType":"address"},{"name":"status","type":"bool","internalType":"bool"}],"outputs":[],"stateMutability":"nonpayable"},{"type":"function","name":"timestamps","inputs":[{"name":"","type":"bytes32","internalType":"bytes32"}],"outputs":[{"name":"","type":"uint256","internalType":"uint256"}],"stateMutability":"view"},{"type":"function","name":"transferAdmin","inputs":[{"name":"newAdmin","type":"address","internalType":"address"}],"outputs":[],"stateMutability":"nonpayable"},{"type":"function","name":"ubiTreasury","inputs":[],"outputs":[{"name":"","type":"address","internalType":"address"}],"stateMutability":"view"},{"type":"function","name":"updateDelay","inputs":[{"name":"newDelay","type":"uint256","internalType":"uint256"}],"outputs":[],"stateMutability":"nonpayable"},{"type":"event","name":"AdminTransferred","inputs":[{"name":"oldAdmin","type":"address","indexed":true,"internalType":"address"},{"name":"newAdmin","type":"address","indexed":true,"internalType":"address"}],"anonymous":false},{"type":"event","name":"DelayUpdated","inputs":[{"name":"oldDelay","type":"uint256","indexed":false,"internalType":"uint256"},{"name":"newDelay","type":"uint256","indexed":false,"internalType":"uint256"}],"anonymous":false},{"type":"event","name":"ExecutorUpdated","inputs":[{"name":"account","type":"address","indexed":true,"internalType":"address"},{"name":"status","type":"bool","indexed":false,"internalType":"bool"}],"anonymous":false},{"type":"event","name":"OperationCancelled","inputs":[{"name":"id","type":"bytes32","indexed":true,"internalType":"bytes32"}],"anonymous":false},{"type":"event","name":"OperationExecuted","inputs":[{"name":"id","type":"bytes32","indexed":true,"internalType":"bytes32"}],"anonymous":false},{"type":"event","name":"OperationScheduled","inputs":[{"name":"id","type":"bytes32","indexed":true,"internalType":"bytes32"},{"name":"targets","type":"address[]","indexed":false,"internalType":"address[]"},{"name":"values","type":"uint256[]","indexed":false,"internalType":"uint256[]"},{"name":"calldatas","type":"bytes[]","indexed":false,"internalType":"bytes[]"},{"name":"predecessor","type":"bytes32","indexed":false,"internalType":"bytes32"},{"name":"readyTimestamp","type":"uint256","indexed":false,"internalType":"uint256"}],"anonymous":false},{"type":"event","name":"ProposerUpdated","inputs":[{"name":"account","type":"address","indexed":true,"internalType":"address"},{"name":"status","type":"bool","indexed":false,"internalType":"bool"}],"anonymous":false},{"type":"error","name":"ArrayLengthMismatch","inputs":[]},{"type":"error","name":"ExecutionFailed","inputs":[{"name":"index","type":"uint256","internalType":"uint256"}]},{"type":"error","name":"InvalidDelay","inputs":[]},{"type":"error","name":"NotAdmin","inputs":[]},{"type":"error","name":"NotExecutor","inputs":[]},{"type":"error","name":"NotProposer","inputs":[]},{"type":"error","name":"NotSelf","inputs":[]},{"type":"error","name":"OperationAlreadyQueued","inputs":[]},{"type":"error","name":"OperationExpired","inputs":[]},{"type":"error","name":"OperationNotQueued","inputs":[]},{"type":"error","name":"OperationNotReady","inputs":[]},{"type":"error","name":"PredecessorNotExecuted","inputs":[]}],"bytecode":{"object":"0x6080604052346101e35761158180380380610019816101e7565b928339810160a0828203126101e357815160208301516001600160401b0381116101e35782610049918501610234565b604084015190926001600160401b0382116101e357610069918501610234565b92610082608061007b60608401610220565b9201610220565b9162015180811080156101d7575b6101c8575f908155600480546001600160a01b039384166001600160a01b031991821617909155600180549490931693169290921790555b815181101561013f576001906001600160a01b036100e6828561029e565b51165f52600260205260405f208260ff19825416179055818060a01b0361010d828561029e565b51167f5df38d395edc15b669d646569bd015513395070b5b4deb8a16300abb060d1b5a6020604051858152a2016100c8565b825f5b81518110156101b9576001906001600160a01b03610160828561029e565b51165f52600360205260405f208260ff19825416179055818060a01b03610187828561029e565b51167f9fdbc2d48b8a0db2f62663bf9312ad02f5b1f6414ad600b55a247d09aeec3ea26020604051858152a201610142565b6040516112ba90816102c78239f35b6327df2edd60e11b5f5260045ffd5b5062278d008111610090565b5f80fd5b6040519190601f01601f191682016001600160401b0381118382101761020c57604052565b634e487b7160e01b5f52604160045260245ffd5b51906001600160a01b03821682036101e357565b9080601f830112156101e3578151916001600160401b03831161020c578260051b906020806102648185016101e7565b8096815201928201019283116101e357602001905b8282106102865750505090565b6020809161029384610220565b815201910190610279565b80518210156102b25760209160051b010190565b634e487b7160e01b5f52603260045260245ffdfe6080604052600436101561001a575b3615610018575f80fd5b005b5f3560e01c806304d2cd0e14610cce57806313bc9f2014610c6e5780631e1bff3f14610bfe5780632ab0f52914610bd15780634125ff9014610bb4578063584b153e14610b8757806361e944f914610b5f57806364d6235314610ad25780636a42b8f814610ab657806374ec29a014610a7957806375829def14610a0a57806388aa4c12146108765780638b07f62b146106835780639f81aed714610666578063a6cc2c8c14610447578063b0e58bc9146102ec578063b5872958146102c2578063c1a287e2146102a5578063c4d252f514610203578063debfda30146101c6578063e9ed9b641461013c5763f851a4400361000e5734610138575f366003190112610138576004546040516001600160a01b039091168152602090f35b5f80fd5b346101385761014a36610f6b565b6004549091906001600160a01b031633036101b75760207f5df38d395edc15b669d646569bd015513395070b5b4deb8a16300abb060d1b5a9160018060a01b031692835f52600282526101ac8160405f209060ff801983541691151516179055565b6040519015158152a2005b637bfa4b9f60e01b5f5260045ffd5b34610138576020366003190112610138576001600160a01b036101e7610dd5565b165f526003602052602060ff60405f2054166040519015158152f35b3461013857602036600319011261013857600435335f52600260205260ff60405f2054161561029657805f52600560205260405f2054801590811561028b575b5061027c57805f5260056020525f60408120557fcf0f63b97f3387253cbc0bde884f975df77e39184dc3280c2c81be495f58eef45f80a2005b6319d5611d60e21b5f5260045ffd5b600191501482610243565b637d1b73b960e01b5f5260045ffd5b34610138575f366003190112610138576020604051621275008152f35b34610138576020366003190112610138576004355f526005602052602060405f2054604051908152f35b34610138576102fa36610f9a565b909392335f52600260205260ff60405f205416156102965761037d6040938451966103258689610d89565b60018852601f19860193843660208b01378651946103438887610d89565b600186523660208701376103556111fe565b9761035f8a611238565b6001600160a01b03909116905261037585611238565b523691610eba565b61038685611238565b5261039084611238565b5061039d8285838861118a565b93845f526005602052835f20546104385760209585937f631927fc0061399835baaf5349411b430c6332a166b87c2709535b23107ed04a9361042461040a946104176103ea5f54426111f1565b93895f5260058d52848b5f20558a5197889760a0895260a08901906110ab565b908782038e8901526110e7565b908582038a87015261111a565b91606084015260808301520390a251908152f35b636d73436160e11b5f5260045ffd5b61045036611035565b95919093925f8052600360205260ff60405f205416158061064f575b6106405761049b8761047f368987610dff565b61048a368589610e53565b610495368a88610ef0565b9161118a565b96875f52600560205260405f205480158015610636575b61027c57804210610627576212750081018091116106135742116106045780151590816105ec575b506105dd575f87815260056020526040812060019055929536839003601e1901935b81811061052a57887f1277662f4b42b8a4069e99fb5e41ce8919d3c621156090ac08fb11adbcec66f95f80a2005b61053581838a611274565b356001600160a01b038116810361013857610551828589611274565b3590888310156105c9578260051b86013587811215610138578601908135916001600160401b03831161013857602001918036038313610138575f938493826040519384928337810185815203925af16105a9611245565b50156105b7576001016104fc565b632497eb8760e11b5f5260045260245ffd5b634e487b7160e01b5f52603260045260245ffd5b631241fe5b60e21b5f5260045ffd5b90505f526005602052600160405f20541415886104da565b633a76bc0560e11b5f5260045ffd5b634e487b7160e01b5f52601160045260245ffd5b63f800799b60e01b5f5260045ffd5b50600181146104b2565b6361968ebb60e11b5f5260045ffd5b50335f52600360205260ff60405f2054161561046c565b34610138575f366003190112610138576020604051620151808152f35b346101385761069136611035565b9193959495335f52600260205260ff60405f205416156102965783871480159061086c575b61085d576106df836106c9368a8a610dff565b6106d4368886610e53565b61049536878b610ef0565b95865f52600560205260405f2054610438576106fc5f54426111f1565b94875f5260056020528560405f2055604051988060a08b0160a08c525260c08a0192905f5b8181106108375750505088820360208a01528082526001600160fb1b0381116101385760059693961b809260208301370193806020860160208988030160408a01525260408501906020808260051b8801010195835f91601e1982360301905b8484106107c75760208b807f631927fc0061399835baaf5349411b430c6332a166b87c2709535b23107ed04a8f808f8f8f606084015260808301520390a2604051908152f35b90919293949598601f19601f198383030101875289358381121561013857840190602082359201916001600160401b038111610138578036038313610138576020828280600196849695859652848401375f828201840152601f01601f191601019b019701959401929190610781565b909193602080600192838060a01b0361084f89610deb565b168152019501929101610721565b63512509d360e11b5f5260045ffd5b50818714156106b6565b61087f36610f9a565b93905f8094939452600360205260ff60405f20541615806109f3575b610640576040926109268685516108b28782610d89565b60018152601f198701803660208401378751906108cf8983610d89565b600182523660208301376108e16111fe565b916108eb81611238565b6001600160a01b03891690528561090183611238565b5261090d36888c610eba565b61091684611238565b5261092083611238565b5061118a565b95865f526005602052845f2054801580156109e9575b61027c57804210610627576212750081018091116106135742116106045780151590816109d2575b506105dd575f948286958887526005602052600181882055519384928337810185815203925af1610993611245565b50156109bf577f1277662f4b42b8a4069e99fb5e41ce8919d3c621156090ac08fb11adbcec66f95f80a2005b632497eb8760e11b5f525f60045260245ffd5b90505f5260056020526001845f2054141587610964565b506001811461093c565b50335f52600360205260ff60405f2054161561089b565b3461013857602036600319011261013857610a23610dd5565b6004546001600160a01b03811691338390036101b7576001600160a01b03169182907ff8ccb027dfcd135e000e9d45e6cc2d662578a8825d4c45b5e32e0adf67e79ec65f80a36001600160a01b03191617600455005b34610138576020366003190112610138576001600160a01b03610a9a610dd5565b165f526002602052602060ff60405f2054166040519015158152f35b34610138575f3660031901126101385760205f54604051908152f35b3461013857602036600319011261013857600435303303610b50576201518081108015610b44575b610b355760407fa580b4a9812995ffed1b336481c3f3bfeb3414df9f587a9d73856bab25aa4eee915f5490805f5582519182526020820152a1005b6327df2edd60e11b5f5260045ffd5b5062278d008111610afa565b6314e1dbf760e11b5f5260045ffd5b34610138575f366003190112610138576001546040516001600160a01b039091168152602090f35b34610138576020366003190112610138576004355f5260056020526020600160405f205411604051908152f35b34610138575f36600319011261013857602060405162278d008152f35b34610138576020366003190112610138576004355f5260056020526020600160405f205414604051908152f35b3461013857610c0c36610f6b565b6004549091906001600160a01b031633036101b75760207f9fdbc2d48b8a0db2f62663bf9312ad02f5b1f6414ad600b55a247d09aeec3ea29160018060a01b031692835f52600382526101ac8160405f209060ff801983541691151516179055565b34610138576020366003190112610138576004355f52600560205260405f20546001811180610cc4575b80610cab575b6020906040519015158152f35b5062127500810180911161061357602090421115610c9e565b5080421015610c98565b34610138576080366003190112610138576004356001600160401b038111610138573660238201121561013857610d0f903690602481600401359101610dff565b6024356001600160401b038111610138573660238201121561013857610d3f903690602481600401359101610e53565b90604435906001600160401b038211610138573660238301121561013857602092610d77610d81933690602481600401359101610ef0565b906064359261118a565b604051908152f35b90601f801991011681019081106001600160401b03821117610daa57604052565b634e487b7160e01b5f52604160045260245ffd5b6001600160401b038111610daa5760051b60200190565b600435906001600160a01b038216820361013857565b35906001600160a01b038216820361013857565b929190610e0b81610dbe565b93610e196040519586610d89565b602085838152019160051b810192831161013857905b828210610e3b57505050565b60208091610e4884610deb565b815201910190610e2f565b929190610e5f81610dbe565b93610e6d6040519586610d89565b602085838152019160051b810192831161013857905b828210610e8f57505050565b8135815260209182019101610e83565b6001600160401b038111610daa57601f01601f191660200190565b929192610ec682610e9f565b91610ed46040519384610d89565b829481845281830111610138578281602093845f960137010152565b929192610efc82610dbe565b93610f0a6040519586610d89565b602085848152019260051b8201918183116101385780935b838510610f30575050505050565b84356001600160401b03811161013857820183601f8201121561013857602091610f608583858095359101610eba565b815201940193610f22565b6040906003190112610138576004356001600160a01b0381168103610138579060243580151581036101385790565b906080600319830112610138576004356001600160a01b03811681036101385791602435916044356001600160401b0381116101385782602382011215610138578060040135926001600160401b038411610138576024848301011161013857602401919060643590565b9181601f84011215610138578235916001600160401b038311610138576020808501948460051b01011161013857565b6080600319820112610138576004356001600160401b038111610138578161105f91600401611005565b929092916024356001600160401b038111610138578161108191600401611005565b92909291604435906001600160401b038211610138576110a391600401611005565b909160643590565b90602080835192838152019201905f5b8181106110c85750505090565b82516001600160a01b03168452602093840193909201916001016110bb565b90602080835192838152019201905f5b8181106111045750505090565b82518452602093840193909201916001016110f7565b9080602083519182815201916020808360051b8301019401925f915b83831061114557505050505090565b909192939460208080600193601f19868203018752818a518051918291828552018484015e5f828201840152601f01601f191601019701959491909101920190611136565b92906111eb916111d76111c5946040519586946111b3602087019960808b5260a08801906110ab565b868103601f19016040880152906110e7565b848103601f190160608601529061111a565b90608083015203601f198101835282610d89565b51902090565b9190820180921161061357565b6040805190919061120f8382610d89565b6001815291601f1901825f5b82811061122757505050565b80606060208093850101520161121b565b8051156105c95760200190565b3d1561126f573d9061125682610e9f565b916112646040519384610d89565b82523d5f602084013e565b606090565b91908110156105c95760051b019056fea26469706673582212207690cf52d71fbf195c15c262a2e8198f651393d8c761cb066c5bfabafc01762c64736f6c63430008210033","linkReferences":{}},"methodIdentifiers":{"GRACE_PERIOD()":"c1a287e2","MAX_DELAY()":"4125ff90","MIN_DELAY()":"9f81aed7","admin()":"f851a440","cancel(bytes32)":"c4d252f5","delay()":"6a42b8f8","execute(address,uint256,bytes,bytes32)":"88aa4c12","executeBatch(address[],uint256[],bytes[],bytes32)":"a6cc2c8c","hashOperationBatch(address[],uint256[],bytes[],bytes32)":"04d2cd0e","isExecutor(address)":"debfda30","isOperationDone(bytes32)":"2ab0f529","isOperationPending(bytes32)":"584b153e","isOperationReady(bytes32)":"13bc9f20","isProposer(address)":"74ec29a0","schedule(address,uint256,bytes,bytes32)":"b0e58bc9","scheduleBatch(address[],uint256[],bytes[],bytes32)":"8b07f62b","setExecutor(address,bool)":"1e1bff3f","setProposer(address,bool)":"e9ed9b64","timestamps(bytes32)":"b5872958","transferAdmin(address)":"75829def","ubiTreasury()":"61e944f9","updateDelay(uint256)":"64d62353"},"id":23}