{"abi":[{"type":"constructor","inputs":[{"name":"_admin","type":"address","internalType":"address"},{"name":"_ubiPool","type":"address","internalType":"address"},{"name":"_feeBps","type":"uint256","internalType":"uint256"}],"stateMutability":"nonpayable"},{"type":"receive","stateMutability":"payable"},{"type":"function","name":"UBI_FEE_SHARE","inputs":[],"outputs":[{"name":"","type":"uint256","internalType":"uint256"}],"stateMutability":"view"},{"type":"function","name":"admin","inputs":[],"outputs":[{"name":"","type":"address","internalType":"address"}],"stateMutability":"view"},{"type":"function","name":"claimFastETHWithdrawal","inputs":[{"name":"amount","type":"uint256","internalType":"uint256"},{"name":"to","type":"address","internalType":"address"},{"name":"withdrawalHash","type":"bytes32","internalType":"bytes32"}],"outputs":[],"stateMutability":"nonpayable"},{"type":"function","name":"claimFastWithdrawal","inputs":[{"name":"token","type":"address","internalType":"address"},{"name":"amount","type":"uint256","internalType":"uint256"},{"name":"to","type":"address","internalType":"address"},{"name":"withdrawalHash","type":"bytes32","internalType":"bytes32"}],"outputs":[],"stateMutability":"nonpayable"},{"type":"function","name":"claimed","inputs":[{"name":"","type":"bytes32","internalType":"bytes32"}],"outputs":[{"name":"","type":"bool","internalType":"bool"}],"stateMutability":"view"},{"type":"function","name":"claims","inputs":[{"name":"","type":"bytes32","internalType":"bytes32"}],"outputs":[{"name":"lp","type":"address","internalType":"address"},{"name":"token","type":"address","internalType":"address"},{"name":"amount","type":"uint256","internalType":"uint256"},{"name":"settled","type":"bool","internalType":"bool"}],"stateMutability":"view"},{"type":"function","name":"depositETHLiquidity","inputs":[],"outputs":[],"stateMutability":"payable"},{"type":"function","name":"depositLiquidity","inputs":[{"name":"token","type":"address","internalType":"address"},{"name":"amount","type":"uint256","internalType":"uint256"}],"outputs":[],"stateMutability":"nonpayable"},{"type":"function","name":"feeBps","inputs":[],"outputs":[{"name":"","type":"uint256","internalType":"uint256"}],"stateMutability":"view"},{"type":"function","name":"lpBalance","inputs":[{"name":"","type":"address","internalType":"address"},{"name":"","type":"address","internalType":"address"}],"outputs":[{"name":"","type":"uint256","internalType":"uint256"}],"stateMutability":"view"},{"type":"function","name":"lpETHBalance","inputs":[{"name":"","type":"address","internalType":"address"}],"outputs":[{"name":"","type":"uint256","internalType":"uint256"}],"stateMutability":"view"},{"type":"function","name":"setAdmin","inputs":[{"name":"_admin","type":"address","internalType":"address"}],"outputs":[],"stateMutability":"nonpayable"},{"type":"function","name":"setFeeBps","inputs":[{"name":"_feeBps","type":"uint256","internalType":"uint256"}],"outputs":[],"stateMutability":"nonpayable"},{"type":"function","name":"setUBIPool","inputs":[{"name":"_ubiPool","type":"address","internalType":"address"}],"outputs":[],"stateMutability":"nonpayable"},{"type":"function","name":"settleETHWithdrawal","inputs":[{"name":"withdrawalHash","type":"bytes32","internalType":"bytes32"}],"outputs":[],"stateMutability":"payable"},{"type":"function","name":"settleWithdrawal","inputs":[{"name":"withdrawalHash","type":"bytes32","internalType":"bytes32"},{"name":"amount","type":"uint256","internalType":"uint256"}],"outputs":[],"stateMutability":"nonpayable"},{"type":"function","name":"totalETHLiquidity","inputs":[],"outputs":[{"name":"","type":"uint256","internalType":"uint256"}],"stateMutability":"view"},{"type":"function","name":"totalLiquidity","inputs":[{"name":"","type":"address","internalType":"address"}],"outputs":[{"name":"","type":"uint256","internalType":"uint256"}],"stateMutability":"view"},{"type":"function","name":"ubiPool","inputs":[],"outputs":[{"name":"","type":"address","internalType":"address"}],"stateMutability":"view"},{"type":"function","name":"withdrawETHLiquidity","inputs":[{"name":"amount","type":"uint256","internalType":"uint256"}],"outputs":[],"stateMutability":"nonpayable"},{"type":"function","name":"withdrawLiquidity","inputs":[{"name":"token","type":"address","internalType":"address"},{"name":"amount","type":"uint256","internalType":"uint256"}],"outputs":[],"stateMutability":"nonpayable"},{"type":"event","name":"FastClaimed","inputs":[{"name":"withdrawalHash","type":"bytes32","indexed":true,"internalType":"bytes32"},{"name":"user","type":"address","indexed":true,"internalType":"address"},{"name":"lp","type":"address","indexed":true,"internalType":"address"},{"name":"token","type":"address","indexed":false,"internalType":"address"},{"name":"grossAmount","type":"uint256","indexed":false,"internalType":"uint256"},{"name":"netAmount","type":"uint256","indexed":false,"internalType":"uint256"},{"name":"fee","type":"uint256","indexed":false,"internalType":"uint256"}],"anonymous":false},{"type":"event","name":"LiquidityDeposited","inputs":[{"name":"lp","type":"address","indexed":true,"internalType":"address"},{"name":"token","type":"address","indexed":true,"internalType":"address"},{"name":"amount","type":"uint256","indexed":false,"internalType":"uint256"}],"anonymous":false},{"type":"event","name":"LiquidityWithdrawn","inputs":[{"name":"lp","type":"address","indexed":true,"internalType":"address"},{"name":"token","type":"address","indexed":true,"internalType":"address"},{"name":"amount","type":"uint256","indexed":false,"internalType":"uint256"}],"anonymous":false},{"type":"event","name":"WithdrawalSettled","inputs":[{"name":"withdrawalHash","type":"bytes32","indexed":true,"internalType":"bytes32"},{"name":"lp","type":"address","indexed":true,"internalType":"address"},{"name":"amount","type":"uint256","indexed":false,"internalType":"uint256"}],"anonymous":false},{"type":"error","name":"AlreadyClaimed","inputs":[]},{"type":"error","name":"AlreadySettled","inputs":[]},{"type":"error","name":"InsufficientLPBalance","inputs":[]},{"type":"error","name":"InvalidFeeBps","inputs":[]},{"type":"error","name":"NoLiquidityAvailable","inputs":[]},{"type":"error","name":"NotAdmin","inputs":[]},{"type":"error","name":"NotClaimed","inputs":[]},{"type":"error","name":"Reentrant","inputs":[]},{"type":"error","name":"TransferFailed","inputs":[]},{"type":"error","name":"ZeroAddress","inputs":[]},{"type":"error","name":"ZeroAmount","inputs":[]}],"bytecode":{"object":"0x6080346100d157601f6112a538819003918201601f19168301916001600160401b038311848410176100d5578084926060946040528339810103126100d157610047816100e9565b906040610056602083016100e9565b910151916001600160a01b03169081156100c2576001600160a01b03169081156100c2576101f483116100b35760018060a01b03195f5416175f5560018060a01b031960015416176001556002556040516111a790816100fe8239f35b638bff87cf60e01b5f5260045ffd5b63d92e233d60e01b5f5260045ffd5b5f80fd5b634e487b7160e01b5f52604160045260245ffd5b51906001600160a01b03821682036100d15756fe6080604052600436101561001a575b3615610018575f80fd5b005b5f3560e01c8063019aa80214610fdb57806306d47de914610ea257806324a9d85314610e8557806339b41b4a14610d6c5780634f3f998f14610d175780636a41ae2414610c4e5780636f8dce2514610c32578063704b6c0214610be757806372c27b6214610ba457806378fa7ceb14610b875780637f13d51214610b1f578063a06f7da714610af7578063ab72d3d1146107d9578063ac23ce47146106fe578063bed222f4146106c6578063c56326de1461068e578063cb33113514610404578063cc3c0f06146103d5578063edb73fe114610191578063eff0f592146101305763f851a4400361000e573461012c575f36600319011261012c575f546040516001600160a01b039091168152602090f35b5f80fd5b3461012c57602036600319011261012c576004355f526007602052608060405f2060018060a01b038154169060018060a01b036001820154169060ff6003600283015492015416916040519384526020840152604083015215156060820152f35b3461012c57604036600319011261012c576004356024359060095460ff81166103c65760ff19166001176009555f81815260076020526040902080546001600160a01b031680156103b757600382019081549060ff82166103a957330361039a5760ff19166001908117909155810180546001600160a01b03168061028557505060207f7e1686994d19cf3f7da1ffb2b8a806ecf6a245a34706700e99bc4ba5aaf51fe29160018060a01b038154165f526005825260405f206102558682546110ce565b9055610263856006546110ce565b6006555b546040519485526001600160a01b031693a36009805460ff19169055005b6040516323b872dd60e01b81523360048201523060248201526044810186905290602090829060649082905f905af190811561038f575f91610360575b50156103515781546001600160a01b039081165f9081526003602090815260408083208554909416835292815291902080547f7e1686994d19cf3f7da1ffb2b8a806ecf6a245a34706700e99bc4ba5aaf51fe294929391906103259088906110ce565b9055546001600160a01b03165f9081526004835260409020805461034a9087906110ce565b9055610267565b6312171d8360e31b5f5260045ffd5b610382915060203d602011610388575b61037a8183611094565b8101906110b6565b856102c2565b503d610370565b6040513d5f823e3d90fd5b637bfa4b9f60e01b5f5260045ffd5b62560ff960e81b5f5260045ffd5b635b95129160e11b5f5260045ffd5b63769dd35360e11b5f5260045ffd5b3461012c57602036600319011261012c576004355f526008602052602060ff60405f2054166040519015158152f35b3461012c57606036600319011261012c57600435610420611041565b60443560095460ff81166103c65760ff1916600117600955821561067f576001600160a01b03821691821561067057815f52600860205260ff60405f205416610661576001600160a01b036104748561115a565b1693841561065257825f52600860205260405f20600160ff198254161790556127106104a26002548361111a565b046104ad8183611057565b92610d058202828104610d05148315171561063e5761271090045f808080886104d68689611057565b968d83526005602052604083206104ee8b8254611057565b90556104fc8a600654611057565b6006555af16105096110db565b5015610351578061060e575b50907fc0fc445f11156ed4fbec8a20ab150551d806fe969dbdd359a50dc8a4c25c9037936105e8608094936105c760405161054f81611064565b8b81525f602080830182815260408085018b8152606086018581528f865260079094529320935184546001600160a01b039182166001600160a01b0319918216178655915160018601805491909216921691909117905590516002830155516003909101805460ff191691151560ff16919091179055565b895f52600560205260405f206105de8282546110ce565b90556006546110ce565b600655604051925f8452602084015260408301526060820152a46009805460ff19169055005b600154919392915f918291829182916001600160a01b03165af16106306110db565b501561035157909187610515565b634e487b7160e01b5f52601160045260245ffd5b636cdaa7bb60e01b5f5260045ffd5b630c8d9eab60e31b5f5260045ffd5b63d92e233d60e01b5f5260045ffd5b631f2a200560e01b5f5260045ffd5b3461012c57602036600319011261012c576001600160a01b036106af61102b565b165f526004602052602060405f2054604051908152f35b3461012c57602036600319011261012c576001600160a01b036106e761102b565b165f526005602052602060405f2054604051908152f35b602036600319011261012c5760043560095460ff81166103c65760ff19166001176009555f81815260076020526040902080546001600160a01b031680156103b75760038201805460ff81166103a95782330361039a5760018401546001600160a01b03166103515760019060ff19161790555f52600560205260405f206107873482546110ce565b9055610795346006546110ce565b60065560018060a01b03905416907f7e1686994d19cf3f7da1ffb2b8a806ecf6a245a34706700e99bc4ba5aaf51fe26020604051348152a36009805460ff19169055005b3461012c57608036600319011261012c576107f261102b565b6044356001600160a01b0381169060243582820361012c576064359160095460ff81166103c65760ff1916600117600955811561067f57831561067057825f52600860205260ff60405f205416610661576001600160a01b03610855838761112d565b1694851561065257835f52600860205260405f20600160ff198254161790556127106108836002548561111a565b049061088f8285611057565b90610d058302838104610d05148415171561063e5761271090046109356020846108b98488611057565b948c5f526003835260405f2060018060a01b0382165f52835260405f206108e18b8254611057565b905560018060a01b031697885f526004835260405f206109028b8254611057565b905560405163a9059cbb60e01b81526001600160a01b039091166004820152602481019190915291829081906044820190565b03815f8a5af190811561038f575f91610ad8575b50156103515780610a65575b50907fc0fc445f11156ed4fbec8a20ab150551d806fe969dbdd359a50dc8a4c25c9037946080949392610a0760405161098d81611064565b8b8152602080820188815260408084018781525f606086018181528f8252600790955291909120935184546001600160a01b039182166001600160a01b0319918216178655925160018601805491909216931692909217909155516002830155516003909101805460ff191691151560ff16919091179055565b895f52600360205260405f20855f5260205260405f20610a288282546110ce565b9055845f526004602052610a4160405f209182546110ce565b9055604051938452602084015260408301526060820152a46009805460ff19169055005b60015460405163a9059cbb60e01b81526001600160a01b039091166004820152602481019190915290939291906020816044815f885af190811561038f575f91610ab9575b50156103515790919288610955565b610ad2915060203d6020116103885761037a8183611094565b89610aaa565b610af1915060203d6020116103885761037a8183611094565b8a610949565b3461012c575f36600319011261012c576001546040516001600160a01b039091168152602090f35b5f36600319011261012c57341561067f57335f52600560205260405f20610b473482546110ce565b9055610b55346006546110ce565b6006555f6040513481527fc72a439d25ca984ced5b3d76fd3fa4c85e46f52177e4f18cbcbe98433a58cc8660203392a3005b3461012c575f36600319011261012c576020600654604051908152f35b3461012c57602036600319011261012c575f54600435906001600160a01b0316330361039a576101f48111610bd857600255005b638bff87cf60e01b5f5260045ffd5b3461012c57602036600319011261012c57610c0061102b565b5f54906001600160a01b038216330361039a576001600160a01b0316908115610670576001600160a01b031916175f55005b3461012c575f36600319011261012c576020604051610d058152f35b3461012c57602036600319011261012c5760043560095460ff81166103c65760ff1916600117600955801561067f57335f5260056020528060405f205410610d0857335f52600560205260405f20610ca7828254611057565b9055610cb581600654611057565b6006555f80808084335af1610cc86110db565b5015610351575f906040519081527f83aa598dd3e269af677698c6847b3ba594a67d286a771d01099aafa911a91b6460203392a36009805460ff19169055005b6384b8f6a160e01b5f5260045ffd5b3461012c57602036600319011261012c57610d3061102b565b5f546001600160a01b0316330361039a576001600160a01b03168015610670576bffffffffffffffffffffffff60a01b60015416176001555f80f35b3461012c57604036600319011261012c57610d8561102b565b6024359060095460ff81166103c65760ff19166001176009556001600160a01b031690811561067057801561067f576040516323b872dd60e01b8152336004820152306024820152604481018290526020816064815f875af190811561038f575f91610e66575b501561035157335f52600360205260405f20825f5260205260405f20610e138282546110ce565b9055815f52600460205260405f20610e2c8282546110ce565b90556040519081527fc72a439d25ca984ced5b3d76fd3fa4c85e46f52177e4f18cbcbe98433a58cc8660203392a36009805460ff19169055005b610e7f915060203d6020116103885761037a8183611094565b83610dec565b3461012c575f36600319011261012c576020600254604051908152f35b3461012c57604036600319011261012c57610ebb61102b565b6024359060095460ff81166103c65760ff1916600117600955811561067f57335f52600360205260405f2060018060a01b0382165f526020528160405f205410610d0857335f52600360205260405f2060018060a01b0382165f5260205260405f20610f28838254611057565b905560018060a01b031690815f52600460205260405f20610f4a828254611057565b905560405163a9059cbb60e01b8152336004820152602481018290526020816044815f875af190811561038f575f91610fbc575b5015610351576040519081527f83aa598dd3e269af677698c6847b3ba594a67d286a771d01099aafa911a91b6460203392a36009805460ff19169055005b610fd5915060203d6020116103885761037a8183611094565b83610f7e565b3461012c57604036600319011261012c57610ff461102b565b610ffc611041565b6001600160a01b039182165f908152600360209081526040808320949093168252928352819020549051908152f35b600435906001600160a01b038216820361012c57565b602435906001600160a01b038216820361012c57565b9190820391821161063e57565b6080810190811067ffffffffffffffff82111761108057604052565b634e487b7160e01b5f52604160045260245ffd5b90601f8019910116810190811067ffffffffffffffff82111761108057604052565b9081602091031261012c5751801515810361012c5790565b9190820180921161063e57565b3d15611115573d9067ffffffffffffffff8211611080576040519161110a601f8201601f191660200184611094565b82523d5f602084013e565b606090565b8181029291811591840414171561063e57565b335f52600360205260405f209060018060a01b03165f5260205260405f20541015611156575f90565b3390565b335f52600560205260405f20541015611156575f9056fea2646970667358221220d4350ac362093aaad52f003b0b5cb4d7c5f1c3f582c35c77ae147d77f484563964736f6c63430008210033","linkReferences":{}},"methodIdentifiers":{"UBI_FEE_SHARE()":"6f8dce25","admin()":"f851a440","claimFastETHWithdrawal(uint256,address,bytes32)":"cb331135","claimFastWithdrawal(address,uint256,address,bytes32)":"ab72d3d1","claimed(bytes32)":"cc3c0f06","claims(bytes32)":"eff0f592","depositETHLiquidity()":"7f13d512","depositLiquidity(address,uint256)":"39b41b4a","feeBps()":"24a9d853","lpBalance(address,address)":"019aa802","lpETHBalance(address)":"bed222f4","setAdmin(address)":"704b6c02","setFeeBps(uint256)":"72c27b62","setUBIPool(address)":"4f3f998f","settleETHWithdrawal(bytes32)":"ac23ce47","settleWithdrawal(bytes32,uint256)":"edb73fe1","totalETHLiquidity()":"78fa7ceb","totalLiquidity(address)":"c56326de","ubiPool()":"a06f7da7","withdrawETHLiquidity(uint256)":"6a41ae24","withdrawLiquidity(address,uint256)":"06d47de9"},"id":67}