{"abi":[{"type":"constructor","inputs":[{"name":"_admin","type":"address","internalType":"address"},{"name":"_ubiPool","type":"address","internalType":"address"},{"name":"_feeBps","type":"uint256","internalType":"uint256"}],"stateMutability":"nonpayable"},{"type":"receive","stateMutability":"payable"},{"type":"function","name":"UBI_FEE_SHARE","inputs":[],"outputs":[{"name":"","type":"uint256","internalType":"uint256"}],"stateMutability":"view"},{"type":"function","name":"admin","inputs":[],"outputs":[{"name":"","type":"address","internalType":"address"}],"stateMutability":"view"},{"type":"function","name":"claimFastETHWithdrawal","inputs":[{"name":"amount","type":"uint256","internalType":"uint256"},{"name":"to","type":"address","internalType":"address"},{"name":"withdrawalHash","type":"bytes32","internalType":"bytes32"}],"outputs":[],"stateMutability":"nonpayable"},{"type":"function","name":"claimFastWithdrawal","inputs":[{"name":"token","type":"address","internalType":"address"},{"name":"amount","type":"uint256","internalType":"uint256"},{"name":"to","type":"address","internalType":"address"},{"name":"withdrawalHash","type":"bytes32","internalType":"bytes32"}],"outputs":[],"stateMutability":"nonpayable"},{"type":"function","name":"claimed","inputs":[{"name":"","type":"bytes32","internalType":"bytes32"}],"outputs":[{"name":"","type":"bool","internalType":"bool"}],"stateMutability":"view"},{"type":"function","name":"claims","inputs":[{"name":"","type":"bytes32","internalType":"bytes32"}],"outputs":[{"name":"lp","type":"address","internalType":"address"},{"name":"token","type":"address","internalType":"address"},{"name":"amount","type":"uint256","internalType":"uint256"},{"name":"settled","type":"bool","internalType":"bool"}],"stateMutability":"view"},{"type":"function","name":"depositETHLiquidity","inputs":[],"outputs":[],"stateMutability":"payable"},{"type":"function","name":"depositLiquidity","inputs":[{"name":"token","type":"address","internalType":"address"},{"name":"amount","type":"uint256","internalType":"uint256"}],"outputs":[],"stateMutability":"nonpayable"},{"type":"function","name":"feeBps","inputs":[],"outputs":[{"name":"","type":"uint256","internalType":"uint256"}],"stateMutability":"view"},{"type":"function","name":"lpBalance","inputs":[{"name":"","type":"address","internalType":"address"},{"name":"","type":"address","internalType":"address"}],"outputs":[{"name":"","type":"uint256","internalType":"uint256"}],"stateMutability":"view"},{"type":"function","name":"lpETHBalance","inputs":[{"name":"","type":"address","internalType":"address"}],"outputs":[{"name":"","type":"uint256","internalType":"uint256"}],"stateMutability":"view"},{"type":"function","name":"setAdmin","inputs":[{"name":"_admin","type":"address","internalType":"address"}],"outputs":[],"stateMutability":"nonpayable"},{"type":"function","name":"setFeeBps","inputs":[{"name":"_feeBps","type":"uint256","internalType":"uint256"}],"outputs":[],"stateMutability":"nonpayable"},{"type":"function","name":"setUBIPool","inputs":[{"name":"_ubiPool","type":"address","internalType":"address"}],"outputs":[],"stateMutability":"nonpayable"},{"type":"function","name":"settleETHWithdrawal","inputs":[{"name":"withdrawalHash","type":"bytes32","internalType":"bytes32"}],"outputs":[],"stateMutability":"payable"},{"type":"function","name":"settleWithdrawal","inputs":[{"name":"withdrawalHash","type":"bytes32","internalType":"bytes32"},{"name":"amount","type":"uint256","internalType":"uint256"}],"outputs":[],"stateMutability":"nonpayable"},{"type":"function","name":"totalETHLiquidity","inputs":[],"outputs":[{"name":"","type":"uint256","internalType":"uint256"}],"stateMutability":"view"},{"type":"function","name":"totalLiquidity","inputs":[{"name":"","type":"address","internalType":"address"}],"outputs":[{"name":"","type":"uint256","internalType":"uint256"}],"stateMutability":"view"},{"type":"function","name":"ubiPool","inputs":[],"outputs":[{"name":"","type":"address","internalType":"address"}],"stateMutability":"view"},{"type":"function","name":"withdrawETHLiquidity","inputs":[{"name":"amount","type":"uint256","internalType":"uint256"}],"outputs":[],"stateMutability":"nonpayable"},{"type":"function","name":"withdrawLiquidity","inputs":[{"name":"token","type":"address","internalType":"address"},{"name":"amount","type":"uint256","internalType":"uint256"}],"outputs":[],"stateMutability":"nonpayable"},{"type":"event","name":"FastClaimed","inputs":[{"name":"withdrawalHash","type":"bytes32","indexed":true,"internalType":"bytes32"},{"name":"user","type":"address","indexed":true,"internalType":"address"},{"name":"lp","type":"address","indexed":true,"internalType":"address"},{"name":"token","type":"address","indexed":false,"internalType":"address"},{"name":"grossAmount","type":"uint256","indexed":false,"internalType":"uint256"},{"name":"netAmount","type":"uint256","indexed":false,"internalType":"uint256"},{"name":"fee","type":"uint256","indexed":false,"internalType":"uint256"}],"anonymous":false},{"type":"event","name":"LiquidityDeposited","inputs":[{"name":"lp","type":"address","indexed":true,"internalType":"address"},{"name":"token","type":"address","indexed":true,"internalType":"address"},{"name":"amount","type":"uint256","indexed":false,"internalType":"uint256"}],"anonymous":false},{"type":"event","name":"LiquidityWithdrawn","inputs":[{"name":"lp","type":"address","indexed":true,"internalType":"address"},{"name":"token","type":"address","indexed":true,"internalType":"address"},{"name":"amount","type":"uint256","indexed":false,"internalType":"uint256"}],"anonymous":false},{"type":"event","name":"WithdrawalSettled","inputs":[{"name":"withdrawalHash","type":"bytes32","indexed":true,"internalType":"bytes32"},{"name":"lp","type":"address","indexed":true,"internalType":"address"},{"name":"amount","type":"uint256","indexed":false,"internalType":"uint256"}],"anonymous":false},{"type":"error","name":"AlreadyClaimed","inputs":[]},{"type":"error","name":"AlreadySettled","inputs":[]},{"type":"error","name":"InsufficientLPBalance","inputs":[]},{"type":"error","name":"InvalidFeeBps","inputs":[]},{"type":"error","name":"NoLiquidityAvailable","inputs":[]},{"type":"error","name":"NotAdmin","inputs":[]},{"type":"error","name":"NotClaimed","inputs":[]},{"type":"error","name":"Reentrant","inputs":[]},{"type":"error","name":"TransferFailed","inputs":[]},{"type":"error","name":"ZeroAddress","inputs":[]},{"type":"error","name":"ZeroAmount","inputs":[]}],"bytecode":{"object":"0x6080346100d157601f6112ce38819003918201601f19168301916001600160401b038311848410176100d5578084926060946040528339810103126100d157610047816100e9565b906040610056602083016100e9565b910151916001600160a01b03169081156100c2576001600160a01b03169081156100c2576101f483116100b35760018060a01b03195f5416175f5560018060a01b031960015416176001556002556040516111d090816100fe8239f35b638bff87cf60e01b5f5260045ffd5b63d92e233d60e01b5f5260045ffd5b5f80fd5b634e487b7160e01b5f52604160045260245ffd5b51906001600160a01b03821682036100d15756fe6080604052600436101561001a575b3615610018575f80fd5b005b5f3560e01c8063019aa8021461100457806306d47de914610ecb57806324a9d85314610eae57806339b41b4a14610d955780634f3f998f14610d455780636a41ae2414610c7c5780636f8dce2514610c60578063704b6c0214610c1557806372c27b6214610bd257806378fa7ceb14610bb55780637f13d51214610b2e578063a06f7da714610b06578063ab72d3d1146107e4578063ac23ce4714610709578063bed222f4146106d1578063c56326de14610699578063cb33113514610404578063cc3c0f06146103d5578063edb73fe114610191578063eff0f592146101305763f851a4400361000e573461012c575f36600319011261012c575f546040516001600160a01b039091168152602090f35b5f80fd5b3461012c57602036600319011261012c576004355f526007602052608060405f2060018060a01b038154169060018060a01b036001820154169060ff6003600283015492015416916040519384526020840152604083015215156060820152f35b3461012c57604036600319011261012c576004356024359060095460ff81166103c65760ff19166001176009555f81815260076020526040902080546001600160a01b031680156103b757600382019081549060ff82166103a957330361039a5760ff19166001908117909155810180546001600160a01b03168061028557505060207f7e1686994d19cf3f7da1ffb2b8a806ecf6a245a34706700e99bc4ba5aaf51fe29160018060a01b038154165f526005825260405f206102558682546110f7565b9055610263856006546110f7565b6006555b546040519485526001600160a01b031693a36009805460ff19169055005b6040516323b872dd60e01b81523360048201523060248201526044810186905290602090829060649082905f905af190811561038f575f91610360575b50156103515781546001600160a01b039081165f9081526003602090815260408083208554909416835292815291902080547f7e1686994d19cf3f7da1ffb2b8a806ecf6a245a34706700e99bc4ba5aaf51fe294929391906103259088906110f7565b9055546001600160a01b03165f9081526004835260409020805461034a9087906110f7565b9055610267565b6312171d8360e31b5f5260045ffd5b610382915060203d602011610388575b61037a81836110bd565b8101906110df565b856102c2565b503d610370565b6040513d5f823e3d90fd5b637bfa4b9f60e01b5f5260045ffd5b62560ff960e81b5f5260045ffd5b635b95129160e11b5f5260045ffd5b63769dd35360e11b5f5260045ffd5b3461012c57602036600319011261012c576004355f526008602052602060ff60405f2054166040519015158152f35b3461012c57606036600319011261012c5760043561042061106a565b60443560095460ff81166103c65760ff1916600117600955821561068a576001600160a01b03821691821561067b57815f52600860205260ff60405f20541661066c576001600160a01b0361047485611183565b1693841561065d57825f52600860205260405f20600160ff198254161790556127106104a260025483611143565b04916104ae8383611080565b906107d084028481046107d01485151715610649575f80808588956105176104f98e6104fe8c6104e4612710899c04809d611080565b938491848a52600560205260408a2054611080565b6110f7565b908652600560205260408620556104f98b600654611080565b6006556105bb8d6040519061052b8261108d565b815260038d8c6020840188815260408501918252606085019289845289526007602052604089209460018060a01b039060018060a01b03905116166001600160601b0360a01b86541617855560018060a01b03905116600185019060018060a01b03166001600160601b0360a01b82541617905551600284015551151591019060ff801983541691151516179055565b5af16105c5611104565b5015610351578061061b575b50907fc0fc445f11156ed4fbec8a20ab150551d806fe969dbdd359a50dc8a4c25c903792608092604051925f8452602084015260408301526060820152a46009805460ff19169055005b6001549192915f918291829182916001600160a01b03165af161063c611104565b50156103515790866105d1565b634e487b7160e01b5f52601160045260245ffd5b636cdaa7bb60e01b5f5260045ffd5b630c8d9eab60e31b5f5260045ffd5b63d92e233d60e01b5f5260045ffd5b631f2a200560e01b5f5260045ffd5b3461012c57602036600319011261012c576001600160a01b036106ba611054565b165f526004602052602060405f2054604051908152f35b3461012c57602036600319011261012c576001600160a01b036106f2611054565b165f526005602052602060405f2054604051908152f35b602036600319011261012c5760043560095460ff81166103c65760ff19166001176009555f81815260076020526040902080546001600160a01b031680156103b75760038201805460ff81166103a95782330361039a5760018401546001600160a01b03166103515760019060ff19161790555f52600560205260405f206107923482546110f7565b90556107a0346006546110f7565b60065560018060a01b03905416907f7e1686994d19cf3f7da1ffb2b8a806ecf6a245a34706700e99bc4ba5aaf51fe26020604051348152a36009805460ff19169055005b3461012c57608036600319011261012c576107fd611054565b602435906044356001600160a01b038116919082810361012c576064359160095460ff81166103c65760ff1916600117600955841561068a57831561067b57825f52600860205260ff60405f20541661066c576001600160a01b036108628683611156565b1694851561065d57835f52600860205260405f20600160ff1982541617905561271061089060025483611143565b049061089c8282611080565b936107d083028381046107d0148415171561064957602086612710610a0c9304936109316108ca8689611080565b988d5f526003855260405f2060018060a01b0382165f5285528d6108f68b6104f98b60405f2054611080565b905f526003865260405f2060018060a01b0383165f52865260405f205560018060a01b031698895f52600485526104f98860405f2054611080565b885f526004845260405f20556109db60405161094c8161108d565b8d815260038c8683018c815260408401908b825260608501925f84525f526007895260405f209460018060a01b039060018060a01b03905116166001600160601b0360a01b86541617855560018060a01b03905116600185019060018060a01b03166001600160601b0360a01b82541617905551600284015551151591019060ff801983541691151516179055565b60405163a9059cbb60e01b81526001600160a01b039091166004820152602481019190915291829081906044820190565b03815f895af190811561038f575f91610ae7575b50156103515780610a76575b50907fc0fc445f11156ed4fbec8a20ab150551d806fe969dbdd359a50dc8a4c25c90379360809392604051938452602084015260408301526060820152a46009805460ff19169055005b60015460405163a9059cbb60e01b81526001600160a01b0390911660048201526024810191909152909291906020816044815f875af190811561038f575f91610ac8575b501561035157909187610a2c565b610ae1915060203d6020116103885761037a81836110bd565b88610aba565b610b00915060203d6020116103885761037a81836110bd565b89610a20565b3461012c575f36600319011261012c576001546040516001600160a01b039091168152602090f35b5f36600319011261012c5760095460ff81166103c65760ff1916600117600955341561068a57335f52600560205260405f20610b6b3482546110f7565b9055610b79346006546110f7565b6006555f6040513481527fc72a439d25ca984ced5b3d76fd3fa4c85e46f52177e4f18cbcbe98433a58cc8660203392a36009805460ff19169055005b3461012c575f36600319011261012c576020600654604051908152f35b3461012c57602036600319011261012c575f54600435906001600160a01b0316330361039a576101f48111610c0657600255005b638bff87cf60e01b5f5260045ffd5b3461012c57602036600319011261012c57610c2e611054565b5f54906001600160a01b038216330361039a576001600160a01b031690811561067b576001600160a01b031916175f55005b3461012c575f36600319011261012c5760206040516107d08152f35b3461012c57602036600319011261012c5760043560095460ff81166103c65760ff1916600117600955801561068a57335f5260056020528060405f205410610d3657335f52600560205260405f20610cd5828254611080565b9055610ce381600654611080565b6006555f80808084335af1610cf6611104565b5015610351575f906040519081527f83aa598dd3e269af677698c6847b3ba594a67d286a771d01099aafa911a91b6460203392a36009805460ff19169055005b6384b8f6a160e01b5f5260045ffd5b3461012c57602036600319011261012c57610d5e611054565b5f546001600160a01b0316330361039a576001600160a01b0316801561067b576001600160601b0360a01b60015416176001555f80f35b3461012c57604036600319011261012c57610dae611054565b6024359060095460ff81166103c65760ff19166001176009556001600160a01b031690811561067b57801561068a576040516323b872dd60e01b8152336004820152306024820152604481018290526020816064815f875af190811561038f575f91610e8f575b501561035157335f52600360205260405f20825f5260205260405f20610e3c8282546110f7565b9055815f52600460205260405f20610e558282546110f7565b90556040519081527fc72a439d25ca984ced5b3d76fd3fa4c85e46f52177e4f18cbcbe98433a58cc8660203392a36009805460ff19169055005b610ea8915060203d6020116103885761037a81836110bd565b83610e15565b3461012c575f36600319011261012c576020600254604051908152f35b3461012c57604036600319011261012c57610ee4611054565b6024359060095460ff81166103c65760ff1916600117600955811561068a57335f52600360205260405f2060018060a01b0382165f526020528160405f205410610d3657335f52600360205260405f2060018060a01b0382165f5260205260405f20610f51838254611080565b905560018060a01b031690815f52600460205260405f20610f73828254611080565b905560405163a9059cbb60e01b8152336004820152602481018290526020816044815f875af190811561038f575f91610fe5575b5015610351576040519081527f83aa598dd3e269af677698c6847b3ba594a67d286a771d01099aafa911a91b6460203392a36009805460ff19169055005b610ffe915060203d6020116103885761037a81836110bd565b83610fa7565b3461012c57604036600319011261012c5761101d611054565b61102561106a565b6001600160a01b039182165f908152600360209081526040808320949093168252928352819020549051908152f35b600435906001600160a01b038216820361012c57565b602435906001600160a01b038216820361012c57565b9190820391821161064957565b6080810190811067ffffffffffffffff8211176110a957604052565b634e487b7160e01b5f52604160045260245ffd5b90601f8019910116810190811067ffffffffffffffff8211176110a957604052565b9081602091031261012c5751801515810361012c5790565b9190820180921161064957565b3d1561113e573d9067ffffffffffffffff82116110a95760405191611133601f8201601f1916602001846110bd565b82523d5f602084013e565b606090565b8181029291811591840414171561064957565b335f52600360205260405f209060018060a01b03165f5260205260405f2054101561117f575f90565b3390565b335f52600560205260405f2054101561117f575f9056fea2646970667358221220fb2c1713c8b115465051d34f4e6c28f3cfe5524804e2ff827ca271138840f84064736f6c63430008210033","linkReferences":{}},"methodIdentifiers":{"UBI_FEE_SHARE()":"6f8dce25","admin()":"f851a440","claimFastETHWithdrawal(uint256,address,bytes32)":"cb331135","claimFastWithdrawal(address,uint256,address,bytes32)":"ab72d3d1","claimed(bytes32)":"cc3c0f06","claims(bytes32)":"eff0f592","depositETHLiquidity()":"7f13d512","depositLiquidity(address,uint256)":"39b41b4a","feeBps()":"24a9d853","lpBalance(address,address)":"019aa802","lpETHBalance(address)":"bed222f4","setAdmin(address)":"704b6c02","setFeeBps(uint256)":"72c27b62","setUBIPool(address)":"4f3f998f","settleETHWithdrawal(bytes32)":"ac23ce47","settleWithdrawal(bytes32,uint256)":"edb73fe1","totalETHLiquidity()":"78fa7ceb","totalLiquidity(address)":"c56326de","ubiPool()":"a06f7da7","withdrawETHLiquidity(uint256)":"6a41ae24","withdrawLiquidity(address,uint256)":"06d47de9"},"id":14}