{"abi":[{"type":"constructor","inputs":[{"name":"_admin","type":"address","internalType":"address"}],"stateMutability":"nonpayable"},{"type":"function","name":"RAY","inputs":[],"outputs":[{"name":"","type":"uint256","internalType":"uint256"}],"stateMutability":"view"},{"type":"function","name":"SECONDS_PER_YEAR","inputs":[],"outputs":[{"name":"","type":"uint256","internalType":"uint256"}],"stateMutability":"view"},{"type":"function","name":"admin","inputs":[],"outputs":[{"name":"","type":"address","internalType":"address"}],"stateMutability":"view"},{"type":"function","name":"calculateRates","inputs":[{"name":"asset","type":"address","internalType":"address"},{"name":"totalDeposits","type":"uint256","internalType":"uint256"},{"name":"totalBorrows","type":"uint256","internalType":"uint256"},{"name":"reserveFactorBPS","type":"uint256","internalType":"uint256"}],"outputs":[{"name":"borrowRate","type":"uint256","internalType":"uint256"},{"name":"supplyRate","type":"uint256","internalType":"uint256"}],"stateMutability":"view"},{"type":"function","name":"rateParams","inputs":[{"name":"","type":"address","internalType":"address"}],"outputs":[{"name":"optimalUtilization","type":"uint256","internalType":"uint256"},{"name":"baseVariableRate","type":"uint256","internalType":"uint256"},{"name":"variableSlope1","type":"uint256","internalType":"uint256"},{"name":"variableSlope2","type":"uint256","internalType":"uint256"}],"stateMutability":"view"},{"type":"function","name":"setAdmin","inputs":[{"name":"_admin","type":"address","internalType":"address"}],"outputs":[],"stateMutability":"nonpayable"},{"type":"function","name":"setRateParams","inputs":[{"name":"asset","type":"address","internalType":"address"},{"name":"optimalUtilization","type":"uint256","internalType":"uint256"},{"name":"baseVariableRate","type":"uint256","internalType":"uint256"},{"name":"variableSlope1","type":"uint256","internalType":"uint256"},{"name":"variableSlope2","type":"uint256","internalType":"uint256"}],"outputs":[],"stateMutability":"nonpayable"},{"type":"event","name":"RateParamsSet","inputs":[{"name":"asset","type":"address","indexed":true,"internalType":"address"},{"name":"optimal","type":"uint256","indexed":false,"internalType":"uint256"},{"name":"base","type":"uint256","indexed":false,"internalType":"uint256"},{"name":"slope1","type":"uint256","indexed":false,"internalType":"uint256"},{"name":"slope2","type":"uint256","indexed":false,"internalType":"uint256"}],"anonymous":false}],"bytecode":{"object":"0x608034607057601f61066238819003918201601f19168301916001600160401b03831184841017607457808492602094604052833981010312607057516001600160a01b03811690819003607057600180546001600160a01b0319169190911790556040516105d990816100898239f35b5f80fd5b634e487b7160e01b5f52604160045260245ffdfe60806040526004361015610011575f80fd5b5f3560e01c806347a04097146101b7578063552033c4146101925780635789ca3b14610157578063704b6c021461010a578063c8094c05146100b0578063e6a69ab8146100925763f851a44014610066575f80fd5b3461008e575f36600319011261008e576001546040516001600160a01b039091168152602090f35b5f80fd5b3461008e575f36600319011261008e5760206040516301e133808152f35b3461008e57602036600319011261008e576001600160a01b036100d16102e2565b165f9081526020818152604091829020805460018201546002830154600390930154855192835293820152928301526060820152608090f35b3461008e57602036600319011261008e576101236102e2565b6001549061013b336001600160a01b038416146102f8565b6001600160a01b03166001600160a01b03199190911617600155005b3461008e57608036600319011261008e5760406101866101756102e2565b6064359060443590602435906103ca565b82519182526020820152f35b3461008e575f36600319011261008e576020604051676765c793fa10079d601b1b8152f35b3461008e5760a036600319011261008e576101d06102e2565b60243560443560643591608435926101f360018060a01b036001541633146102f8565b811515806102ce575b1561029b577fd253b45797cf4a748e31775581074fa0e8f7eca62cf04dfbffa3b8d53f0ab8f8936102969161022f610344565b84815260036020820198878a5260408301848152606084019186835260018060a01b03169a8b5f525f60205260405f209451855551600185015551600284015551910155604051948594859094939260609260808301968352602083015260408201520152565b0390a2005b60405162461bcd60e51b815260206004820152600b60248201526a189859081bdc1d1a5b585b60aa1b6044820152606490fd5b50676765c793fa10079d601b1b82106101fc565b600435906001600160a01b038216820361008e57565b156102ff57565b60405162461bcd60e51b815260206004820152601c60248201527f496e746572657374526174654d6f64656c3a206e6f742061646d696e000000006044820152606490fd5b604051906080820182811067ffffffffffffffff82111761036457604052565b634e487b7160e01b5f52604160045260245ffd5b8181029291811591840414171561038b57565b634e487b7160e01b5f52601160045260245ffd5b81156103a9570490565b634e487b7160e01b5f52601260045260245ffd5b9190820180921161038b57565b6001600160a01b03165f908152602081905260409020919392916103ec610344565b91815495868452600183015491602085019280845260036002860154956040880196875201549860608701998a52156105945781156105875750676765c793fa10079d601b1b820291808304676765c793fa10079d601b1b149015171561038b576104569161039f565b95676765c793fa10079d601b1b8711610574575b83518792919080841161051a5750509261048d6104959261049b95519451610378565b90519061039f565b906103bd565b925b676765c793fa10079d601b1b820291808304676765c793fa10079d601b1b149015171561038b57676765c793fa10079d601b1b6104dd6127109286610378565b049104676765c793fa10079d601b1b0390676765c793fa10079d601b1b821161038b57676765c793fa10079d601b1b9161051691610378565b0490565b909391925087039387851161038b5751676765c793fa10079d601b1b0390676765c793fa10079d601b1b821161038b5761056e946105626105699261049595519051906103bd565b9451610378565b61039f565b9261049d565b676765c793fa10079d601b1b965061046a565b97505f9695505050505050565b5050505050505090505f905f9056fea2646970667358221220510997a2b36f2c5242aec0f22ed55e924340a52202922e1a04a3ad879775f11d64736f6c63430008210033","linkReferences":{}},"methodIdentifiers":{"RAY()":"552033c4","SECONDS_PER_YEAR()":"e6a69ab8","admin()":"f851a440","calculateRates(address,uint256,uint256,uint256)":"5789ca3b","rateParams(address)":"c8094c05","setAdmin(address)":"704b6c02","setRateParams(address,uint256,uint256,uint256,uint256)":"47a04097"},"id":33}