{"abi":[{"type":"constructor","inputs":[{"name":"_gusd","type":"address","internalType":"address"},{"name":"_usdc","type":"address","internalType":"address"},{"name":"_feeSplitter","type":"address","internalType":"address"},{"name":"_admin","type":"address","internalType":"address"}],"stateMutability":"nonpayable"},{"type":"function","name":"BPS","inputs":[],"outputs":[{"name":"","type":"uint256","internalType":"uint256"}],"stateMutability":"view"},{"type":"function","name":"GUSD_DECIMALS","inputs":[],"outputs":[{"name":"","type":"uint256","internalType":"uint256"}],"stateMutability":"view"},{"type":"function","name":"SCALE","inputs":[],"outputs":[{"name":"","type":"uint256","internalType":"uint256"}],"stateMutability":"view"},{"type":"function","name":"USDC_DECIMALS","inputs":[],"outputs":[{"name":"","type":"uint256","internalType":"uint256"}],"stateMutability":"view"},{"type":"function","name":"admin","inputs":[],"outputs":[{"name":"","type":"address","internalType":"address"}],"stateMutability":"view"},{"type":"function","name":"feeBPS","inputs":[],"outputs":[{"name":"","type":"uint256","internalType":"uint256"}],"stateMutability":"view"},{"type":"function","name":"feeSplitter","inputs":[],"outputs":[{"name":"","type":"address","internalType":"contract IUBIFeeSplitter"}],"stateMutability":"view"},{"type":"function","name":"gusd","inputs":[],"outputs":[{"name":"","type":"address","internalType":"contract IgUSDMinter"}],"stateMutability":"view"},{"type":"function","name":"paused","inputs":[],"outputs":[{"name":"","type":"bool","internalType":"bool"}],"stateMutability":"view"},{"type":"function","name":"previewGUSDForUSDC","inputs":[{"name":"gusdAmount","type":"uint256","internalType":"uint256"}],"outputs":[{"name":"usdcOut","type":"uint256","internalType":"uint256"},{"name":"fee","type":"uint256","internalType":"uint256"}],"stateMutability":"view"},{"type":"function","name":"previewUSDCForGUSD","inputs":[{"name":"usdcAmount","type":"uint256","internalType":"uint256"}],"outputs":[{"name":"gusdOut","type":"uint256","internalType":"uint256"},{"name":"fee","type":"uint256","internalType":"uint256"}],"stateMutability":"view"},{"type":"function","name":"psmBurnedGUSD","inputs":[],"outputs":[{"name":"","type":"uint256","internalType":"uint256"}],"stateMutability":"view"},{"type":"function","name":"psmMintedGUSD","inputs":[],"outputs":[{"name":"","type":"uint256","internalType":"uint256"}],"stateMutability":"view"},{"type":"function","name":"setFeeBPS","inputs":[{"name":"_feeBPS","type":"uint256","internalType":"uint256"}],"outputs":[],"stateMutability":"nonpayable"},{"type":"function","name":"setPaused","inputs":[{"name":"_paused","type":"bool","internalType":"bool"}],"outputs":[],"stateMutability":"nonpayable"},{"type":"function","name":"setSwapCap","inputs":[{"name":"_cap","type":"uint256","internalType":"uint256"}],"outputs":[],"stateMutability":"nonpayable"},{"type":"function","name":"swapCap","inputs":[],"outputs":[{"name":"","type":"uint256","internalType":"uint256"}],"stateMutability":"view"},{"type":"function","name":"swapGUSDForUSDC","inputs":[{"name":"gusdAmount","type":"uint256","internalType":"uint256"}],"outputs":[],"stateMutability":"nonpayable"},{"type":"function","name":"swapUSDCForGUSD","inputs":[{"name":"usdcAmount","type":"uint256","internalType":"uint256"}],"outputs":[],"stateMutability":"nonpayable"},{"type":"function","name":"totalFeesCollected","inputs":[],"outputs":[{"name":"","type":"uint256","internalType":"uint256"}],"stateMutability":"view"},{"type":"function","name":"totalUSDCReserves","inputs":[],"outputs":[{"name":"","type":"uint256","internalType":"uint256"}],"stateMutability":"view"},{"type":"function","name":"transferAdmin","inputs":[{"name":"newAdmin","type":"address","internalType":"address"}],"outputs":[],"stateMutability":"nonpayable"},{"type":"function","name":"usdc","inputs":[],"outputs":[{"name":"","type":"address","internalType":"contract IUSDC"}],"stateMutability":"view"},{"type":"function","name":"withdrawReserves","inputs":[{"name":"to","type":"address","internalType":"address"},{"name":"usdcAmount","type":"uint256","internalType":"uint256"}],"outputs":[],"stateMutability":"nonpayable"},{"type":"event","name":"AdminTransferred","inputs":[{"name":"oldAdmin","type":"address","indexed":true,"internalType":"address"},{"name":"newAdmin","type":"address","indexed":true,"internalType":"address"}],"anonymous":false},{"type":"event","name":"FeeBPSUpdated","inputs":[{"name":"oldBPS","type":"uint256","indexed":false,"internalType":"uint256"},{"name":"newBPS","type":"uint256","indexed":false,"internalType":"uint256"}],"anonymous":false},{"type":"event","name":"Paused","inputs":[{"name":"status","type":"bool","indexed":false,"internalType":"bool"}],"anonymous":false},{"type":"event","name":"SwapCapUpdated","inputs":[{"name":"cap","type":"uint256","indexed":false,"internalType":"uint256"}],"anonymous":false},{"type":"event","name":"SwapGUSDForUSDC","inputs":[{"name":"user","type":"address","indexed":true,"internalType":"address"},{"name":"gusdIn","type":"uint256","indexed":false,"internalType":"uint256"},{"name":"usdcOut","type":"uint256","indexed":false,"internalType":"uint256"},{"name":"fee","type":"uint256","indexed":false,"internalType":"uint256"}],"anonymous":false},{"type":"event","name":"SwapUSDCForGUSD","inputs":[{"name":"user","type":"address","indexed":true,"internalType":"address"},{"name":"usdcIn","type":"uint256","indexed":false,"internalType":"uint256"},{"name":"gusdOut","type":"uint256","indexed":false,"internalType":"uint256"},{"name":"fee","type":"uint256","indexed":false,"internalType":"uint256"}],"anonymous":false}],"bytecode":{"object":"0x60e03461020757601f61148238819003918201601f19168301916001600160401b0383118484101761020b57808492608094604052833981010312610207576100478161021f565b6100536020830161021f565b9161006c60606100656040840161021f565b920161021f565b6001600160a01b039092169283156101d1576001600160a01b031690811561019b576001600160a01b0316918215610161576001600160a01b031692831561012a5760805260a05260c0525f80546001600160a01b031916919091179055600a60015560405161124e908161023482396080518181816101f1015281816108820152610b9a015260a0518181816102bc01528181610648015281816107fb0152610e52015260c05181818161038d0152818161098c0152610d2f0152f35b60405162461bcd60e51b815260206004820152600f60248201526e2829a69d103d32b9379030b236b4b760891b6044820152606490fd5b60405162461bcd60e51b81526020600482015260126024820152712829a69d103d32b9379039b83634ba3a32b960711b6044820152606490fd5b60405162461bcd60e51b815260206004820152600e60248201526d50534d3a207a65726f205553444360901b6044820152606490fd5b60405162461bcd60e51b815260206004820152600e60248201526d1414d34e881e995c9bc819d554d160921b6044820152606490fd5b5f80fd5b634e487b7160e01b5f52604160045260245ffd5b51906001600160a01b03821682036102075756fe6080806040526004361015610012575f80fd5b5f905f3560e01c90816302df9df114610f945750806316c38b3c14610f265780631a1c6e5314610f09578063215f0f9814610eee578063249d39e914610ed25780632660369314610e815780633e413bee14610e3d5780635641bc0714610e205780635c975abb14610dfe578063604b6a9c14610d5e5780636052970c14610d1a57806360c6d8ae14610cfd5780636515e5d814610ce057806375829def14610c655780637d706da014610c0d57806384891c5014610bc95780638c87ee9014610b85578063bf79ef7214610b68578063c1419def14610b4d578063cc9990171461077f578063e478795d1461057f578063eced55261461055f578063ee84f2fe1461014f5763f851a44014610126575f80fd5b3461014c578060031936011261014c57546040516001600160a01b039091168152602090f35b80fd5b503461014c57602036600319011261014c5760043561017060085415611061565b600160085561018460ff6003541615611099565b61018f8115156110d3565b61271061019e60015483611001565b046101a98183611014565b9064e8d4a510008204916101be8315156111b9565b826004541061051a576040516323b872dd60e01b8152336004820152306024820152604481018590526001600160a01b037f000000000000000000000000000000000000000000000000000000000000000016906020816064818a865af190811561050f5787916104f0575b50156104ab578591813b156104a757604051630852cd8d60e31b815260048101829052838160248183875af1908115610487578491610492575b505061027290600754611112565b60075582610376575b505061028982600454611014565b600490815560405163a9059cbb60e01b815233918101919091526024810183905291602083604481886001600160a01b037f0000000000000000000000000000000000000000000000000000000000000000165af192831561036b577f19d6baaf4008076fefde90765b8965de468a3f462d7d146e5a9d1468008c890d9361031891879161033c575b5061116d565b604080519485526020850191909152830152339180606081015b0390a28060085580f35b61035e915060203d602011610364575b610356818361111f565b810190611155565b5f610312565b503d61034c565b6040513d87823e3d90fd5b60405163095ea7b360e01b81526001600160a01b037f000000000000000000000000000000000000000000000000000000000000000016600482018190526024820185905290919060208360448187865af1918215610487576060936104159361046a575b50604051633e5a775160e11b8152600481018790523060248201526001600160a01b03909116604482015293849283919082906064820190565b03925af1801561036b5761043b575b5061043181600554611112565b600555835f61027b565b61045c9060603d606011610463575b610454818361111f565b8101906111fd565b5050610424565b503d61044a565b6104829060203d60201161036457610356818361111f565b6103db565b6040513d86823e3d90fd5b8161049c9161111f565b6104a757825f610264565b8280fd5b60405162461bcd60e51b815260206004820152601960248201527f50534d3a2067555344207472616e73666572206661696c6564000000000000006044820152606490fd5b610509915060203d60201161036457610356818361111f565b5f61022a565b6040513d89823e3d90fd5b60405162461bcd60e51b815260206004820152601a60248201527f50534d3a20696e73756666696369656e742072657365727665730000000000006044820152606490fd5b503461014c578060031936011261014c57602060405164e8d4a510008152f35b503461014c57604036600319011261014c57610599610fae565b6024356105b060018060a01b038454163314610fc4565b6105c46001600160a01b0383161515611021565b600454908181116107425760065460075490818111156107345764e8d4a51000916105ee91611014565b046105f98284611014565b106106ef576106439261060e82602094611014565b600490815560405163a9059cbb60e01b81526001600160a01b0390921690820152602481019190915291829081906044820190565b0381857f00000000000000000000000000000000000000000000000000000000000000006001600160a01b03165af19081156106e45782916106c5575b50156106895780f35b60405162461bcd60e51b81526020600482015260146024820152731414d34e881d1c985b9cd9995c8819985a5b195960621b6044820152606490fd5b6106de915060203d60201161036457610356818361111f565b5f610680565b6040513d84823e3d90fd5b60405162461bcd60e51b815260206004820152601860248201527f50534d3a20756e646572636f6c6c61746572616c697a656400000000000000006044820152606490fd5b505064e8d4a51000846105ee565b60405162461bcd60e51b815260206004820152601560248201527450534d3a206578636565647320726573657276657360581b6044820152606490fd5b5034610ae1576020366003190112610ae1576004356107a060085415611061565b60016008556107b460ff6003541615611099565b80156107c081156110d3565b60025480610af9575b506040516323b872dd60e01b8152336004820152306024820152604481018390526020816064815f6001600160a01b037f0000000000000000000000000000000000000000000000000000000000000000165af18015610ad657610833915f9161033c575061116d565b61083f82600454611112565b60045564e8d4a5100082029082820464e8d4a51000141715610ae55761087561271061086d60015484611001565b048092611014565b6108808115156111b9565b7f00000000000000000000000000000000000000000000000000000000000000006001600160a01b0316803b15610ae1576040516340c10f1960e01b8152336004820152602481018390525f8160448183865af18015610ad657610abd575b50908492916108f082600654611112565b6006558261093b575b506040805194855260208501919091528301525033907fc91682597e50d783bf81329b763263cef72b0cda71f5e617e0bd4b4150f84403908060608101610332565b803b15610ab9576040516340c10f1960e01b815230600482015260248101849052848160448183865af190811561036b578591610aa4575b505060405163095ea7b360e01b81526001600160a01b037f000000000000000000000000000000000000000000000000000000000000000016600482018190526024820185905290919060208360448189865af1918215610a9957606093610a1493610a7c575b50604051633e5a775160e11b8152600481018790523060248201526001600160a01b03909116604482015295869283919082906064820190565b03925af192831561036b577fc91682597e50d783bf81329b763263cef72b0cda71f5e617e0bd4b4150f8440393610a5d575b50610a5382600554611112565b60055584926108f9565b610a759060603d60601161046357610454818361111f565b5050610a46565b610a949060203d60201161036457610356818361111f565b6109da565b6040513d88823e3d90fd5b81610aae9161111f565b610ab957835f610973565b8380fd5b610acc91939295505f9061111f565b5f9390915f6108df565b6040513d5f823e3d90fd5b5f80fd5b634e487b7160e01b5f52601160045260245ffd5b610b0583600454611112565b11610b10575f6107c9565b60405162461bcd60e51b81526020600482015260156024820152741414d34e881cddd85c0818d85c081c995858da1959605a1b6044820152606490fd5b34610ae1575f366003190112610ae157602060405160068152f35b34610ae1575f366003190112610ae1576020600454604051908152f35b34610ae1575f366003190112610ae1576040517f00000000000000000000000000000000000000000000000000000000000000006001600160a01b03168152602090f35b34610ae1576020366003190112610ae157604060043564e8d4a51000610bff612710610bf760015485611001565b048093611014565b049082519182526020820152f35b34610ae1576020366003190112610ae1577f334538d502feb3f0c7fab3f05496f1f17cfd920a1f428b3ff468292cfb0a41046020600435610c5860018060a01b035f54163314610fc4565b80600255604051908152a1005b34610ae1576020366003190112610ae157610c7e610fae565b5f546001600160a01b03811691610c96338414610fc4565b6001600160a01b0316918290610cad821515611021565b7ff8ccb027dfcd135e000e9d45e6cc2d662578a8825d4c45b5e32e0adf67e79ec65f80a36001600160a01b031916175f55005b34610ae1575f366003190112610ae1576020600654604051908152f35b34610ae1575f366003190112610ae1576020600554604051908152f35b34610ae1575f366003190112610ae1576040517f00000000000000000000000000000000000000000000000000000000000000006001600160a01b03168152602090f35b34610ae1576020366003190112610ae157600435610d8660018060a01b035f54163314610fc4565b60c88111610dc5577fb04438781e840362c78ce8cc4b97de7afc9aaccde53ad4c035c61d532474c66060406001548151908152836020820152a1600155005b60405162461bcd60e51b81526020600482015260116024820152700a0a69a7440cccaca40e8dede40d0d2ced607b1b6044820152606490fd5b34610ae1575f366003190112610ae157602060ff600354166040519015158152f35b34610ae1575f366003190112610ae1576020600754604051908152f35b34610ae1575f366003190112610ae1576040517f00000000000000000000000000000000000000000000000000000000000000006001600160a01b03168152602090f35b34610ae1576020366003190112610ae15760043564e8d4a5100081029080820464e8d4a510001490151715610ae557604090610ec561271061086d60015484611001565b9082519182526020820152f35b34610ae1575f366003190112610ae15760206040516127108152f35b34610ae1575f366003190112610ae157602060405160128152f35b34610ae1575f366003190112610ae1576020600154604051908152f35b34610ae1576020366003190112610ae157600435801515809103610ae15760207f0e2fb031ee032dc02d8011dc50b816eb450cf856abd8261680dac74f72165bd291610f7c60018060a01b035f54163314610fc4565b60ff196003541660ff821617600355604051908152a1005b34610ae1575f366003190112610ae1576020906002548152f35b600435906001600160a01b0382168203610ae157565b15610fcb57565b60405162461bcd60e51b815260206004820152600e60248201526d2829a69d103737ba1030b236b4b760911b6044820152606490fd5b81810292918115918404141715610ae557565b91908203918211610ae557565b1561102857565b60405162461bcd60e51b815260206004820152601160248201527050534d3a207a65726f206164647265737360781b6044820152606490fd5b1561106857565b60405162461bcd60e51b81526020600482015260096024820152681499595b9d1c985b9d60ba1b6044820152606490fd5b156110a057565b60405162461bcd60e51b815260206004820152600b60248201526a1414d34e881c185d5cd95960aa1b6044820152606490fd5b156110da57565b60405162461bcd60e51b815260206004820152601060248201526f1414d34e881e995c9bc8185b5bdd5b9d60821b6044820152606490fd5b91908201809211610ae557565b90601f8019910116810190811067ffffffffffffffff82111761114157604052565b634e487b7160e01b5f52604160045260245ffd5b90816020910312610ae157518015158103610ae15790565b1561117457565b60405162461bcd60e51b815260206004820152601960248201527f50534d3a2055534443207472616e73666572206661696c6564000000000000006044820152606490fd5b156111c057565b60405162461bcd60e51b81526020600482015260156024820152741414d34e881bdd5d1c1d5d081d1bdbc81cdb585b1b605a1b6044820152606490fd5b90816060910312610ae157805191604060208301519201519056fea26469706673582212205d8c796a2ebaaa81215a2f46b506b8ff52422ecb7f3a0bb30f6d0f4a4fb2e8ed64736f6c63430008210033","linkReferences":{}},"methodIdentifiers":{"BPS()":"249d39e9","GUSD_DECIMALS()":"215f0f98","SCALE()":"eced5526","USDC_DECIMALS()":"c1419def","admin()":"f851a440","feeBPS()":"1a1c6e53","feeSplitter()":"6052970c","gusd()":"8c87ee90","paused()":"5c975abb","previewGUSDForUSDC(uint256)":"84891c50","previewUSDCForGUSD(uint256)":"26603693","psmBurnedGUSD()":"5641bc07","psmMintedGUSD()":"6515e5d8","setFeeBPS(uint256)":"604b6a9c","setPaused(bool)":"16c38b3c","setSwapCap(uint256)":"7d706da0","swapCap()":"02df9df1","swapGUSDForUSDC(uint256)":"ee84f2fe","swapUSDCForGUSD(uint256)":"cc999017","totalFeesCollected()":"60c6d8ae","totalUSDCReserves()":"bf79ef72","transferAdmin(address)":"75829def","usdc()":"3e413bee","withdrawReserves(address,uint256)":"e478795d"},"id":38}