{"abi":[{"type":"constructor","inputs":[{"name":"_gusd","type":"address","internalType":"address"},{"name":"_usdc","type":"address","internalType":"address"},{"name":"_feeSplitter","type":"address","internalType":"address"},{"name":"_admin","type":"address","internalType":"address"}],"stateMutability":"nonpayable"},{"type":"function","name":"BPS","inputs":[],"outputs":[{"name":"","type":"uint256","internalType":"uint256"}],"stateMutability":"view"},{"type":"function","name":"GUSD_DECIMALS","inputs":[],"outputs":[{"name":"","type":"uint256","internalType":"uint256"}],"stateMutability":"view"},{"type":"function","name":"SCALE","inputs":[],"outputs":[{"name":"","type":"uint256","internalType":"uint256"}],"stateMutability":"view"},{"type":"function","name":"USDC_DECIMALS","inputs":[],"outputs":[{"name":"","type":"uint256","internalType":"uint256"}],"stateMutability":"view"},{"type":"function","name":"_callMintingFeeTracking","inputs":[{"name":"fee","type":"uint256","internalType":"uint256"},{"name":"dAppRecipient","type":"address","internalType":"address"},{"name":"token","type":"address","internalType":"address"},{"name":"user","type":"address","internalType":"address"},{"name":"direction","type":"string","internalType":"string"}],"outputs":[],"stateMutability":"nonpayable"},{"type":"function","name":"acceptAdmin","inputs":[],"outputs":[],"stateMutability":"nonpayable"},{"type":"function","name":"admin","inputs":[],"outputs":[{"name":"","type":"address","internalType":"address"}],"stateMutability":"view"},{"type":"function","name":"feeBPS","inputs":[],"outputs":[{"name":"","type":"uint256","internalType":"uint256"}],"stateMutability":"view"},{"type":"function","name":"feeSplitter","inputs":[],"outputs":[{"name":"","type":"address","internalType":"contract IUBIFeeSplitter"}],"stateMutability":"view"},{"type":"function","name":"gusd","inputs":[],"outputs":[{"name":"","type":"address","internalType":"contract IgUSDMinter"}],"stateMutability":"view"},{"type":"function","name":"paused","inputs":[],"outputs":[{"name":"","type":"bool","internalType":"bool"}],"stateMutability":"view"},{"type":"function","name":"pendingAdmin","inputs":[],"outputs":[{"name":"","type":"address","internalType":"address"}],"stateMutability":"view"},{"type":"function","name":"previewGUSDForUSDC","inputs":[{"name":"gusdAmount","type":"uint256","internalType":"uint256"}],"outputs":[{"name":"usdcOut","type":"uint256","internalType":"uint256"},{"name":"fee","type":"uint256","internalType":"uint256"}],"stateMutability":"view"},{"type":"function","name":"previewUSDCForGUSD","inputs":[{"name":"usdcAmount","type":"uint256","internalType":"uint256"}],"outputs":[{"name":"gusdOut","type":"uint256","internalType":"uint256"},{"name":"fee","type":"uint256","internalType":"uint256"}],"stateMutability":"view"},{"type":"function","name":"psmBurnedGUSD","inputs":[],"outputs":[{"name":"","type":"uint256","internalType":"uint256"}],"stateMutability":"view"},{"type":"function","name":"psmMintedGUSD","inputs":[],"outputs":[{"name":"","type":"uint256","internalType":"uint256"}],"stateMutability":"view"},{"type":"function","name":"setFeeBPS","inputs":[{"name":"_feeBPS","type":"uint256","internalType":"uint256"}],"outputs":[],"stateMutability":"nonpayable"},{"type":"function","name":"setPaused","inputs":[{"name":"_paused","type":"bool","internalType":"bool"}],"outputs":[],"stateMutability":"nonpayable"},{"type":"function","name":"setSwapCap","inputs":[{"name":"_cap","type":"uint256","internalType":"uint256"}],"outputs":[],"stateMutability":"nonpayable"},{"type":"function","name":"swapCap","inputs":[],"outputs":[{"name":"","type":"uint256","internalType":"uint256"}],"stateMutability":"view"},{"type":"function","name":"swapGUSDForUSDC","inputs":[{"name":"gusdAmount","type":"uint256","internalType":"uint256"}],"outputs":[],"stateMutability":"nonpayable"},{"type":"function","name":"swapUSDCForGUSD","inputs":[{"name":"usdcAmount","type":"uint256","internalType":"uint256"}],"outputs":[],"stateMutability":"nonpayable"},{"type":"function","name":"totalFeesCollected","inputs":[],"outputs":[{"name":"","type":"uint256","internalType":"uint256"}],"stateMutability":"view"},{"type":"function","name":"totalUSDCReserves","inputs":[],"outputs":[{"name":"","type":"uint256","internalType":"uint256"}],"stateMutability":"view"},{"type":"function","name":"transferAdmin","inputs":[{"name":"newAdmin","type":"address","internalType":"address"}],"outputs":[],"stateMutability":"nonpayable"},{"type":"function","name":"usdc","inputs":[],"outputs":[{"name":"","type":"address","internalType":"contract IUSDC"}],"stateMutability":"view"},{"type":"function","name":"withdrawReserves","inputs":[{"name":"to","type":"address","internalType":"address"},{"name":"usdcAmount","type":"uint256","internalType":"uint256"}],"outputs":[],"stateMutability":"nonpayable"},{"type":"event","name":"AdminTransferProposed","inputs":[{"name":"currentAdmin","type":"address","indexed":true,"internalType":"address"},{"name":"pendingAdmin","type":"address","indexed":true,"internalType":"address"}],"anonymous":false},{"type":"event","name":"AdminTransferred","inputs":[{"name":"oldAdmin","type":"address","indexed":true,"internalType":"address"},{"name":"newAdmin","type":"address","indexed":true,"internalType":"address"}],"anonymous":false},{"type":"event","name":"FeeBPSUpdated","inputs":[{"name":"oldBPS","type":"uint256","indexed":false,"internalType":"uint256"},{"name":"newBPS","type":"uint256","indexed":false,"internalType":"uint256"}],"anonymous":false},{"type":"event","name":"Paused","inputs":[{"name":"status","type":"bool","indexed":false,"internalType":"bool"}],"anonymous":false},{"type":"event","name":"SwapCapUpdated","inputs":[{"name":"cap","type":"uint256","indexed":false,"internalType":"uint256"}],"anonymous":false},{"type":"event","name":"SwapGUSDForUSDC","inputs":[{"name":"user","type":"address","indexed":true,"internalType":"address"},{"name":"gusdIn","type":"uint256","indexed":false,"internalType":"uint256"},{"name":"usdcOut","type":"uint256","indexed":false,"internalType":"uint256"},{"name":"fee","type":"uint256","indexed":false,"internalType":"uint256"}],"anonymous":false},{"type":"event","name":"SwapUSDCForGUSD","inputs":[{"name":"user","type":"address","indexed":true,"internalType":"address"},{"name":"usdcIn","type":"uint256","indexed":false,"internalType":"uint256"},{"name":"gusdOut","type":"uint256","indexed":false,"internalType":"uint256"},{"name":"fee","type":"uint256","indexed":false,"internalType":"uint256"}],"anonymous":false}],"bytecode":{"object":"0x60e03461020e57601f61188e38819003918201601f19168301916001600160401b038311848410176102125780849260809460405283398101031261020e5761004781610226565b61005360208301610226565b9161006c606061006560408401610226565b9201610226565b6001600160a01b039092169283156101d8576001600160a01b03169081156101a2576001600160a01b0316918215610168576001600160a01b03169283156101315760805260a05260c0525f80546001600160a01b031916919091179055600a600255604051611653908161023b823960805181818161027501528181610b7c0152610e84015260a05181818161031b015281816108e501528181610b3a015261113e015260c0518181816103c90152818161073501528181610c39015261101b0152f35b60405162461bcd60e51b815260206004820152600f60248201526e2829a69d103d32b9379030b236b4b760891b6044820152606490fd5b60405162461bcd60e51b81526020600482015260126024820152712829a69d103d32b9379039b83634ba3a32b960711b6044820152606490fd5b60405162461bcd60e51b815260206004820152600e60248201526d50534d3a207a65726f205553444360901b6044820152606490fd5b60405162461bcd60e51b815260206004820152600e60248201526d1414d34e881e995c9bc819d554d160921b6044820152606490fd5b5f80fd5b634e487b7160e01b5f52604160045260245ffd5b51906001600160a01b038216820361020e5756fe6080806040526004361015610012575f80fd5b5f905f3560e01c90816302df9df114611357575080630e18b681146112a857806316c38b3c1461123a5780631a1c6e531461121d578063215f0f9814611202578063249d39e9146111e65780632660369314611195578063267822471461116d5780633e413bee146111295780635641bc071461110c5780635c975abb146110ea578063604b6a9c1461104a5780636052970c1461100657806360c6d8ae14610fe95780636515e5d814610fcc57806375829def14610f4f5780637d706da014610ef757806384891c5014610eb35780638c87ee9014610e6f578063bf79ef7214610e52578063c1419def14610e37578063cc99901714610a15578063e478795d1461080c578063e744630f14610643578063eced552614610623578063ee84f2fe146101705763f851a44014610147575f80fd5b3461016d578060031936011261016d57546040516001600160a01b039091168152602090f35b80fd5b503461016d57602036600319011261016d5760043561019160095415611424565b60016009556101a560ff600454161561145c565b6101b0811515611496565b6127106101bf600254836113c4565b046101ca81836113d7565b9164e8d4a510008304926101df8415156114e2565b600554928484106105de576101f6826008546114d5565b60085561020b8582151595866105ca576113d7565b600555604080518481526020810187905290810182905233907f19d6baaf4008076fefde90765b8965de468a3f462d7d146e5a9d1468008c890d90606090a26040516323b872dd60e01b815233600482015230602482015260448101939093526001600160a01b037f000000000000000000000000000000000000000000000000000000000000000016926020816064818a885af19081156105bf5787916105a0575b501561055b5785936103b2575b50813b156103ae578291602483926040519485938492630852cd8d60e31b845260048401525af1801561038a57610395575b505060405163a9059cbb60e01b81523360048201526024810191909152602081604481856001600160a01b037f0000000000000000000000000000000000000000000000000000000000000000165af1801561038a5761035491839161035b575b50611574565b8060095580f35b61037d915060203d602011610383575b6103758183611526565b81019061155c565b5f61034e565b503d61036b565b6040513d84823e3d90fd5b8161039f91611526565b6103aa57815f6102ed565b5080fd5b8280fd5b60405163095ea7b360e01b81526001600160a01b037f0000000000000000000000000000000000000000000000000000000000000000166004820181905260248201839052919060208160448189895af180156105505761041a918791610531575b506115c0565b303b1561052d578360405163e744630f60e01b815282600482015230602482015281604482015233606482015260a06084820152600c60a48201526b675553442d746f2d5553444360a01b60c482015286808260e48183305af1918261050e575b505061050657604051633e5a775160e11b815260048101929092523060248301526001600160a01b03166044820152906060908290606490829088905af180156104fb576104cc575b505b5f6102bb565b6104ed9060603d6060116104f4575b6104e58183611526565b810190611602565b50506104c4565b503d6104db565b6040513d86823e3d90fd5b5050506104c6565b819293509061051c91611526565b610529578490865f61047b565b8580fd5b8480fd5b61054a915060203d602011610383576103758183611526565b5f610414565b6040513d88823e3d90fd5b60405162461bcd60e51b815260206004820152601960248201527f50534d3a2067555344207472616e73666572206661696c6564000000000000006044820152606490fd5b6105b9915060203d602011610383576103758183611526565b5f6102ae565b6040513d89823e3d90fd5b6105d6846006546114d5565b6006556113d7565b60405162461bcd60e51b815260206004820152601a60248201527f50534d3a20696e73756666696369656e742072657365727665730000000000006044820152606490fd5b503461016d578060031936011261016d57602060405164e8d4a510008152f35b503461016d5760a036600319011261016d576024356001600160a01b038116908190036103aa576044356001600160a01b03811691908290036103ae576064356001600160a01b03811692908390036108085760843567ffffffffffffffff811161052d573660238201121561052d5780600401359267ffffffffffffffff8411610529573660248584010111610529573033036107d25783606094602460c4946040519889978896636ee3c5e360e11b88526004356004890152848801526044870152606486015260a060848601528260a486015201848401378181018301879052601f01601f19168101030181857f00000000000000000000000000000000000000000000000000000000000000006001600160a01b03165af190816107b3575b506107b05760405162461bcd60e51b815260206004820152601f60248201527f456e68616e63656420747261636b696e67206e6f7420737570706f72746564006044820152606490fd5b80f35b6107cb9060603d6060116104f4576104e58183611526565b5050610766565b60405162461bcd60e51b815260206004820152600e60248201526d2829a69d1037b7363c9039b2b63360911b6044820152606490fd5b8380fd5b503461016d57604036600319011261016d57610826611371565b60243561083d60018060a01b038454163314611387565b61084960095415611424565b60016009556108626001600160a01b03831615156113e4565b600554908181116109d85760075460085490818111156109ca5764e8d4a510009161088c916113d7565b0461089782846113d7565b10610985576108e0926108ac826020946113d7565b60055560405163a9059cbb60e01b81526001600160a01b039091166004820152602481019190915291829081906044820190565b0381857f00000000000000000000000000000000000000000000000000000000000000006001600160a01b03165af190811561038a578291610966575b501561092a578060095580f35b60405162461bcd60e51b81526020600482015260146024820152731414d34e881d1c985b9cd9995c8819985a5b195960621b6044820152606490fd5b61097f915060203d602011610383576103758183611526565b5f61091d565b60405162461bcd60e51b815260206004820152601860248201527f50534d3a20756e646572636f6c6c61746572616c697a656400000000000000006044820152606490fd5b505064e8d4a510008461088c565b60405162461bcd60e51b815260206004820152601560248201527450534d3a206578636565647320726573657276657360581b6044820152606490fd5b5034610db7576020366003190112610db757600435610a3660095415611424565b6001600955610a4a60ff600454161561145c565b8015610a568115611496565b60035480610de3575b5064e8d4a5100082029082820464e8d4a51000141715610dcf57610a93612710610a8b600254846113c4565b0480926113d7565b91610a9f8315156114e2565b610aab816005546114d5565b600555610aba836007546114d5565b600755610b3560208315159283610dbb575b604080518281526020810188905290810186905233907fc91682597e50d783bf81329b763263cef72b0cda71f5e617e0bd4b4150f8440390606090a26040516323b872dd60e01b8152336004820152306024820152604481019190915291829081906064820190565b03815f7f00000000000000000000000000000000000000000000000000000000000000006001600160a01b03165af18015610dac57610b7a915f9161035b5750611574565b7f00000000000000000000000000000000000000000000000000000000000000006001600160a01b031692833b15610db7576040516340c10f1960e01b815233600482015260248101919091525f8160448183885af18015610dac57610d97575b50610be9575b828060095580f35b813b156103ae576040516340c10f1960e01b8152306004820152602481018290528390818160448183885af1801561038a57610d82575b505060405163095ea7b360e01b81526001600160a01b037f0000000000000000000000000000000000000000000000000000000000000000166004820181905260248201839052929060208160448188865af18015610d7757610c8991869161053157506115c0565b303b156108085760405163e744630f60e01b815282600482015230602482015281604482015233606482015260a06084820152600c60a48201526b1554d110cb5d1bcb59d554d160a21b60c482015284808260e48183305af19182610d62575b5050610d5a57604051633e5a775160e11b815260048101929092523060248301526001600160a01b03166044820152906060908290606490829086905af1801561038a57610d3b575b505b5f80610be1565b610d539060603d6060116104f4576104e58183611526565b5050610d32565b505050610d34565b81610d6c91611526565b61052d57845f610ce9565b6040513d87823e3d90fd5b81610d8c91611526565b6103ae57825f610c20565b610da49194505f90611526565b5f925f610bdb565b6040513d5f823e3d90fd5b5f80fd5b610dc7856006546114d5565b600655610acc565b634e487b7160e01b5f52601160045260245ffd5b610def836005546114d5565b11610dfa575f610a5f565b60405162461bcd60e51b81526020600482015260156024820152741414d34e881cddd85c0818d85c081c995858da1959605a1b6044820152606490fd5b34610db7575f366003190112610db757602060405160068152f35b34610db7575f366003190112610db7576020600554604051908152f35b34610db7575f366003190112610db7576040517f00000000000000000000000000000000000000000000000000000000000000006001600160a01b03168152602090f35b34610db7576020366003190112610db757604060043564e8d4a51000610ee9612710610ee1600254856113c4565b0480936113d7565b049082519182526020820152f35b34610db7576020366003190112610db7577f334538d502feb3f0c7fab3f05496f1f17cfd920a1f428b3ff468292cfb0a41046020600435610f4260018060a01b035f54163314611387565b80600355604051908152a1005b34610db7576020366003190112610db757610f68611371565b5f546001600160a01b031690610f7f338314611387565b6001600160a01b031690610f948215156113e4565b600180546001600160a01b031916831790557fc02afc35b5d9b88807390ad5b17e685602c17339aa880db1dfe4e15cb3e2e3a15f80a3005b34610db7575f366003190112610db7576020600754604051908152f35b34610db7575f366003190112610db7576020600654604051908152f35b34610db7575f366003190112610db7576040517f00000000000000000000000000000000000000000000000000000000000000006001600160a01b03168152602090f35b34610db7576020366003190112610db75760043561107260018060a01b035f54163314611387565b60c881116110b1577fb04438781e840362c78ce8cc4b97de7afc9aaccde53ad4c035c61d532474c66060406002548151908152836020820152a1600255005b60405162461bcd60e51b81526020600482015260116024820152700a0a69a7440cccaca40e8dede40d0d2ced607b1b6044820152606490fd5b34610db7575f366003190112610db757602060ff600454166040519015158152f35b34610db7575f366003190112610db7576020600854604051908152f35b34610db7575f366003190112610db7576040517f00000000000000000000000000000000000000000000000000000000000000006001600160a01b03168152602090f35b34610db7575f366003190112610db7576001546040516001600160a01b039091168152602090f35b34610db7576020366003190112610db75760043564e8d4a5100081029080820464e8d4a510001490151715610dcf576040906111d9612710610a8b600254846113c4565b9082519182526020820152f35b34610db7575f366003190112610db75760206040516127108152f35b34610db7575f366003190112610db757602060405160128152f35b34610db7575f366003190112610db7576020600254604051908152f35b34610db7576020366003190112610db757600435801515809103610db75760207f0e2fb031ee032dc02d8011dc50b816eb450cf856abd8261680dac74f72165bd29161129060018060a01b035f54163314611387565b60ff196004541660ff821617600455604051908152a1005b34610db7575f366003190112610db7576001546001600160a01b0381169033829003611319575f80546001600160a01b0319808216851783559092166001556001600160a01b03909116907ff8ccb027dfcd135e000e9d45e6cc2d662578a8825d4c45b5e32e0adf67e79ec69080a3005b60405162461bcd60e51b81526020600482015260166024820152752829a69d103737ba103832b73234b7339030b236b4b760511b6044820152606490fd5b34610db7575f366003190112610db7576020906003548152f35b600435906001600160a01b0382168203610db757565b1561138e57565b60405162461bcd60e51b815260206004820152600e60248201526d2829a69d103737ba1030b236b4b760911b6044820152606490fd5b81810292918115918404141715610dcf57565b91908203918211610dcf57565b156113eb57565b60405162461bcd60e51b815260206004820152601160248201527050534d3a207a65726f206164647265737360781b6044820152606490fd5b1561142b57565b60405162461bcd60e51b81526020600482015260096024820152681499595b9d1c985b9d60ba1b6044820152606490fd5b1561146357565b60405162461bcd60e51b815260206004820152600b60248201526a1414d34e881c185d5cd95960aa1b6044820152606490fd5b1561149d57565b60405162461bcd60e51b815260206004820152601060248201526f1414d34e881e995c9bc8185b5bdd5b9d60821b6044820152606490fd5b91908201809211610dcf57565b156114e957565b60405162461bcd60e51b81526020600482015260156024820152741414d34e881bdd5d1c1d5d081d1bdbc81cdb585b1b605a1b6044820152606490fd5b90601f8019910116810190811067ffffffffffffffff82111761154857604052565b634e487b7160e01b5f52604160045260245ffd5b90816020910312610db757518015158103610db75790565b1561157b57565b60405162461bcd60e51b815260206004820152601960248201527f50534d3a2055534443207472616e73666572206661696c6564000000000000006044820152606490fd5b156115c757565b60405162461bcd60e51b81526020600482015260136024820152721414d34e88185c1c1c9bdd994819985a5b1959606a1b6044820152606490fd5b90816060910312610db757805191604060208301519201519056fea26469706673582212208fd72ee075b865b5cdb3e73c563501c03639e4477afe3ee92fcb3c69130fa9d964736f6c63430008210033","linkReferences":{}},"methodIdentifiers":{"BPS()":"249d39e9","GUSD_DECIMALS()":"215f0f98","SCALE()":"eced5526","USDC_DECIMALS()":"c1419def","_callMintingFeeTracking(uint256,address,address,address,string)":"e744630f","acceptAdmin()":"0e18b681","admin()":"f851a440","feeBPS()":"1a1c6e53","feeSplitter()":"6052970c","gusd()":"8c87ee90","paused()":"5c975abb","pendingAdmin()":"26782247","previewGUSDForUSDC(uint256)":"84891c50","previewUSDCForGUSD(uint256)":"26603693","psmBurnedGUSD()":"5641bc07","psmMintedGUSD()":"6515e5d8","setFeeBPS(uint256)":"604b6a9c","setPaused(bool)":"16c38b3c","setSwapCap(uint256)":"7d706da0","swapCap()":"02df9df1","swapGUSDForUSDC(uint256)":"ee84f2fe","swapUSDCForGUSD(uint256)":"cc999017","totalFeesCollected()":"60c6d8ae","totalUSDCReserves()":"bf79ef72","transferAdmin(address)":"75829def","usdc()":"3e413bee","withdrawReserves(address,uint256)":"e478795d"},"id":47}