{"abi":[{"type":"constructor","inputs":[{"name":"_gusd","type":"address","internalType":"address"},{"name":"_usdc","type":"address","internalType":"address"},{"name":"_feeSplitter","type":"address","internalType":"address"},{"name":"_admin","type":"address","internalType":"address"}],"stateMutability":"nonpayable"},{"type":"function","name":"BPS","inputs":[],"outputs":[{"name":"","type":"uint256","internalType":"uint256"}],"stateMutability":"view"},{"type":"function","name":"GUSD_DECIMALS","inputs":[],"outputs":[{"name":"","type":"uint256","internalType":"uint256"}],"stateMutability":"view"},{"type":"function","name":"SCALE","inputs":[],"outputs":[{"name":"","type":"uint256","internalType":"uint256"}],"stateMutability":"view"},{"type":"function","name":"USDC_DECIMALS","inputs":[],"outputs":[{"name":"","type":"uint256","internalType":"uint256"}],"stateMutability":"view"},{"type":"function","name":"_callMintingFeeTracking","inputs":[{"name":"fee","type":"uint256","internalType":"uint256"},{"name":"dAppRecipient","type":"address","internalType":"address"},{"name":"token","type":"address","internalType":"address"},{"name":"user","type":"address","internalType":"address"},{"name":"direction","type":"string","internalType":"string"}],"outputs":[],"stateMutability":"nonpayable"},{"type":"function","name":"acceptAdmin","inputs":[],"outputs":[],"stateMutability":"nonpayable"},{"type":"function","name":"admin","inputs":[],"outputs":[{"name":"","type":"address","internalType":"address"}],"stateMutability":"view"},{"type":"function","name":"feeBPS","inputs":[],"outputs":[{"name":"","type":"uint256","internalType":"uint256"}],"stateMutability":"view"},{"type":"function","name":"feeSplitter","inputs":[],"outputs":[{"name":"","type":"address","internalType":"contract IUBIFeeSplitter"}],"stateMutability":"view"},{"type":"function","name":"gusd","inputs":[],"outputs":[{"name":"","type":"address","internalType":"contract IgUSDMinter"}],"stateMutability":"view"},{"type":"function","name":"paused","inputs":[],"outputs":[{"name":"","type":"bool","internalType":"bool"}],"stateMutability":"view"},{"type":"function","name":"pendingAdmin","inputs":[],"outputs":[{"name":"","type":"address","internalType":"address"}],"stateMutability":"view"},{"type":"function","name":"previewGUSDForUSDC","inputs":[{"name":"gusdAmount","type":"uint256","internalType":"uint256"}],"outputs":[{"name":"usdcOut","type":"uint256","internalType":"uint256"},{"name":"fee","type":"uint256","internalType":"uint256"}],"stateMutability":"view"},{"type":"function","name":"previewUSDCForGUSD","inputs":[{"name":"usdcAmount","type":"uint256","internalType":"uint256"}],"outputs":[{"name":"gusdOut","type":"uint256","internalType":"uint256"},{"name":"fee","type":"uint256","internalType":"uint256"}],"stateMutability":"view"},{"type":"function","name":"psmBurnedGUSD","inputs":[],"outputs":[{"name":"","type":"uint256","internalType":"uint256"}],"stateMutability":"view"},{"type":"function","name":"psmMintedGUSD","inputs":[],"outputs":[{"name":"","type":"uint256","internalType":"uint256"}],"stateMutability":"view"},{"type":"function","name":"setFeeBPS","inputs":[{"name":"_feeBPS","type":"uint256","internalType":"uint256"}],"outputs":[],"stateMutability":"nonpayable"},{"type":"function","name":"setPaused","inputs":[{"name":"_paused","type":"bool","internalType":"bool"}],"outputs":[],"stateMutability":"nonpayable"},{"type":"function","name":"setSwapCap","inputs":[{"name":"_cap","type":"uint256","internalType":"uint256"}],"outputs":[],"stateMutability":"nonpayable"},{"type":"function","name":"swapCap","inputs":[],"outputs":[{"name":"","type":"uint256","internalType":"uint256"}],"stateMutability":"view"},{"type":"function","name":"swapGUSDForUSDC","inputs":[{"name":"gusdAmount","type":"uint256","internalType":"uint256"}],"outputs":[],"stateMutability":"nonpayable"},{"type":"function","name":"swapUSDCForGUSD","inputs":[{"name":"usdcAmount","type":"uint256","internalType":"uint256"}],"outputs":[],"stateMutability":"nonpayable"},{"type":"function","name":"totalFeesCollected","inputs":[],"outputs":[{"name":"","type":"uint256","internalType":"uint256"}],"stateMutability":"view"},{"type":"function","name":"totalUSDCReserves","inputs":[],"outputs":[{"name":"","type":"uint256","internalType":"uint256"}],"stateMutability":"view"},{"type":"function","name":"transferAdmin","inputs":[{"name":"newAdmin","type":"address","internalType":"address"}],"outputs":[],"stateMutability":"nonpayable"},{"type":"function","name":"usdc","inputs":[],"outputs":[{"name":"","type":"address","internalType":"contract IUSDC"}],"stateMutability":"view"},{"type":"function","name":"withdrawReserves","inputs":[{"name":"to","type":"address","internalType":"address"},{"name":"usdcAmount","type":"uint256","internalType":"uint256"}],"outputs":[],"stateMutability":"nonpayable"},{"type":"event","name":"AdminTransferProposed","inputs":[{"name":"currentAdmin","type":"address","indexed":true,"internalType":"address"},{"name":"pendingAdmin","type":"address","indexed":true,"internalType":"address"}],"anonymous":false},{"type":"event","name":"AdminTransferred","inputs":[{"name":"oldAdmin","type":"address","indexed":true,"internalType":"address"},{"name":"newAdmin","type":"address","indexed":true,"internalType":"address"}],"anonymous":false},{"type":"event","name":"FeeBPSUpdated","inputs":[{"name":"oldBPS","type":"uint256","indexed":false,"internalType":"uint256"},{"name":"newBPS","type":"uint256","indexed":false,"internalType":"uint256"}],"anonymous":false},{"type":"event","name":"Paused","inputs":[{"name":"status","type":"bool","indexed":false,"internalType":"bool"}],"anonymous":false},{"type":"event","name":"SwapCapUpdated","inputs":[{"name":"cap","type":"uint256","indexed":false,"internalType":"uint256"}],"anonymous":false},{"type":"event","name":"SwapGUSDForUSDC","inputs":[{"name":"user","type":"address","indexed":true,"internalType":"address"},{"name":"gusdIn","type":"uint256","indexed":false,"internalType":"uint256"},{"name":"usdcOut","type":"uint256","indexed":false,"internalType":"uint256"},{"name":"fee","type":"uint256","indexed":false,"internalType":"uint256"}],"anonymous":false},{"type":"event","name":"SwapUSDCForGUSD","inputs":[{"name":"user","type":"address","indexed":true,"internalType":"address"},{"name":"usdcIn","type":"uint256","indexed":false,"internalType":"uint256"},{"name":"gusdOut","type":"uint256","indexed":false,"internalType":"uint256"},{"name":"fee","type":"uint256","indexed":false,"internalType":"uint256"}],"anonymous":false}],"bytecode":{"object":"0x60e03461020e57601f6118b038819003918201601f19168301916001600160401b038311848410176102125780849260809460405283398101031261020e5761004781610226565b61005360208301610226565b9161006c606061006560408401610226565b9201610226565b6001600160a01b039092169283156101d8576001600160a01b03169081156101a2576001600160a01b0316918215610168576001600160a01b03169283156101315760805260a05260c0525f80546001600160a01b031916919091179055600a600255604051611675908161023b823960805181818161021201528181610b0c0152610ea6015260a0518181816102d9015281816108ce01528181610a850152611160015260c0518181816103aa0152818161071601528181610c16015261103d0152f35b60405162461bcd60e51b815260206004820152600f60248201526e2829a69d103d32b9379030b236b4b760891b6044820152606490fd5b60405162461bcd60e51b81526020600482015260126024820152712829a69d103d32b9379039b83634ba3a32b960711b6044820152606490fd5b60405162461bcd60e51b815260206004820152600e60248201526d50534d3a207a65726f205553444360901b6044820152606490fd5b60405162461bcd60e51b815260206004820152600e60248201526d1414d34e881e995c9bc819d554d160921b6044820152606490fd5b5f80fd5b634e487b7160e01b5f52604160045260245ffd5b51906001600160a01b038216820361020e5756fe6080806040526004361015610012575f80fd5b5f905f3560e01c90816302df9df114611379575080630e18b681146112ca57806316c38b3c1461125c5780631a1c6e531461123f578063215f0f9814611224578063249d39e91461120857806326603693146111b7578063267822471461118f5780633e413bee1461114b5780635641bc071461112e5780635c975abb1461110c578063604b6a9c1461106c5780636052970c1461102857806360c6d8ae1461100b5780636515e5d814610fee57806375829def14610f715780637d706da014610f1957806384891c5014610ed55780638c87ee9014610e91578063bf79ef7214610e74578063c1419def14610e59578063cc99901714610a09578063e478795d146107f5578063e744630f14610624578063eced552614610604578063ee84f2fe146101705763f851a44014610147575f80fd5b3461016d578060031936011261016d57546040516001600160a01b039091168152602090f35b80fd5b503461016d57602036600319011261016d5760043561019160095415611446565b60016009556101a560ff600454161561147e565b6101b08115156114b8565b6127106101bf600254836113e6565b046101ca81836113f9565b9064e8d4a510008204916101df83151561159e565b82600554106105bf576040516323b872dd60e01b8152336004820152306024820152604481018590526001600160a01b037f000000000000000000000000000000000000000000000000000000000000000016906020816064818a865af19081156105b4578791610595575b5015610550578591813b1561050d57604051630852cd8d60e31b815260048101829052838160248183875af190811561053057849161053b575b5050610293906008546114f7565b60085582610393575b50506102aa826005546113f9565b60055560405163a9059cbb60e01b81523360048201526024810183905291602083604481886001600160a01b037f0000000000000000000000000000000000000000000000000000000000000000165af1928315610388577f19d6baaf4008076fefde90765b8965de468a3f462d7d146e5a9d1468008c890d93610335918791610359575b50611552565b604080519485526020850191909152830152339180606081015b0390a28060095580f35b61037b915060203d602011610381575b6103738183611504565b81019061153a565b5f61032f565b503d610369565b6040513d87823e3d90fd5b60405163095ea7b360e01b81526001600160a01b037f0000000000000000000000000000000000000000000000000000000000000000166004820181905260248201859052919060208160448187865af18015610530576103fb918591610511575b506115e2565b303b1561050d5760405163e744630f60e01b815284600482015230602482015281604482015233606482015260a06084820152600c60a48201526b675553442d746f2d5553444360a01b60c482015283808260e48183305af191826104f4575b50506104ec57604051633e5a775160e11b8152600481018590523060248201526001600160a01b039190911660448201529160609183916064918391905af18015610388576104bd575b505b6104b3816006546114f7565b600655835f61029c565b6104de9060603d6060116104e5575b6104d68183611504565b810190611624565b50506104a5565b503d6104cc565b5050506104a7565b816104fe91611504565b61050957835f61045b565b8380fd5b8280fd5b61052a915060203d602011610381576103738183611504565b5f6103f5565b6040513d86823e3d90fd5b8161054591611504565b61050d57825f610285565b60405162461bcd60e51b815260206004820152601960248201527f50534d3a2067555344207472616e73666572206661696c6564000000000000006044820152606490fd5b6105ae915060203d602011610381576103738183611504565b5f61024b565b6040513d89823e3d90fd5b60405162461bcd60e51b815260206004820152601a60248201527f50534d3a20696e73756666696369656e742072657365727665730000000000006044820152606490fd5b503461016d578060031936011261016d57602060405164e8d4a510008152f35b503461016d5760a036600319011261016d576024356001600160a01b038116908190036107f1576044356001600160a01b038116919082900361050d576064356001600160a01b03811692908390036105095760843567ffffffffffffffff81116107ed57366023820112156107ed5780600401359267ffffffffffffffff84116107e95736602485840101116107e9573033036107b35783606094602460c4946040519889978896636ee3c5e360e11b88526004356004890152848801526044870152606486015260a060848601528260a486015201848401378181018301879052601f01601f19168101030181857f00000000000000000000000000000000000000000000000000000000000000006001600160a01b03165af19081610794575b506107915760405162461bcd60e51b815260206004820152601f60248201527f456e68616e63656420747261636b696e67206e6f7420737570706f72746564006044820152606490fd5b80f35b6107ac9060603d6060116104e5576104d68183611504565b5050610747565b60405162461bcd60e51b815260206004820152600e60248201526d2829a69d1037b7363c9039b2b63360911b6044820152606490fd5b8580fd5b8480fd5b5080fd5b503461016d57604036600319011261016d5761080f611393565b60243561082660018060a01b0384541633146113a9565b61083260095415611446565b600160095561084b6001600160a01b0383161515611406565b600554908181116109cc5760075460085490818111156109be5764e8d4a5100091610875916113f9565b0461088082846113f9565b10610979576108c992610895826020946113f9565b60055560405163a9059cbb60e01b81526001600160a01b039091166004820152602481019190915291829081906044820190565b0381857f00000000000000000000000000000000000000000000000000000000000000006001600160a01b03165af190811561096e57829161094f575b5015610913578060095580f35b60405162461bcd60e51b81526020600482015260146024820152731414d34e881d1c985b9cd9995c8819985a5b195960621b6044820152606490fd5b610968915060203d602011610381576103738183611504565b5f610906565b6040513d84823e3d90fd5b60405162461bcd60e51b815260206004820152601860248201527f50534d3a20756e646572636f6c6c61746572616c697a656400000000000000006044820152606490fd5b505064e8d4a5100084610875565b60405162461bcd60e51b815260206004820152601560248201527450534d3a206578636565647320726573657276657360581b6044820152606490fd5b5034610ded576020366003190112610ded57600435610a2a60095415611446565b6001600955610a3e60ff600454161561147e565b8015610a4a81156114b8565b60035480610e05575b506040516323b872dd60e01b8152336004820152306024820152604481018390526020816064815f6001600160a01b037f0000000000000000000000000000000000000000000000000000000000000000165af18015610de257610abd915f916103595750611552565b610ac9826005546114f7565b60055564e8d4a5100082029082820464e8d4a51000141715610df157610aff612710610af7600254846113e6565b0480926113f9565b610b0a81151561159e565b7f00000000000000000000000000000000000000000000000000000000000000006001600160a01b0316803b15610ded576040516340c10f1960e01b8152336004820152602481018390525f8160448183865af18015610de257610dc9575b5090849291610b7a826007546114f7565b60075582610bc5575b506040805194855260208501919091528301525033907fc91682597e50d783bf81329b763263cef72b0cda71f5e617e0bd4b4150f8440390806060810161034f565b803b15610509576040516340c10f1960e01b815230600482015260248101849052848160448183865af1908115610388578591610db4575b505060405163095ea7b360e01b81526001600160a01b037f0000000000000000000000000000000000000000000000000000000000000000166004820181905260248201859052919060208160448189865af18015610da957610c6691879161051157506115e2565b303b156107ed5760405163e744630f60e01b815284600482015230602482015281604482015233606482015260a06084820152600c60a48201526b1554d110cb5d1bcb59d554d160a21b60c482015285808260e48183305af19182610d94575b5050610d6a57604051633e5a775160e11b8152600481018590523060248201526001600160a01b039190911660448201529360609185916064918391905af1928315610388577fc91682597e50d783bf81329b763263cef72b0cda71f5e617e0bd4b4150f8440393610d4b575b505b610d41826006546114f7565b6006558492610b83565b610d639060603d6060116104e5576104d68183611504565b5050610d33565b50507fc91682597e50d783bf81329b763263cef72b0cda71f5e617e0bd4b4150f844039250610d35565b81610d9e91611504565b6107e957855f610cc6565b6040513d88823e3d90fd5b81610dbe91611504565b61050957835f610bfd565b610dd891939295505f90611504565b5f9390915f610b69565b6040513d5f823e3d90fd5b5f80fd5b634e487b7160e01b5f52601160045260245ffd5b610e11836005546114f7565b11610e1c575f610a53565b60405162461bcd60e51b81526020600482015260156024820152741414d34e881cddd85c0818d85c081c995858da1959605a1b6044820152606490fd5b34610ded575f366003190112610ded57602060405160068152f35b34610ded575f366003190112610ded576020600554604051908152f35b34610ded575f366003190112610ded576040517f00000000000000000000000000000000000000000000000000000000000000006001600160a01b03168152602090f35b34610ded576020366003190112610ded57604060043564e8d4a51000610f0b612710610f03600254856113e6565b0480936113f9565b049082519182526020820152f35b34610ded576020366003190112610ded577f334538d502feb3f0c7fab3f05496f1f17cfd920a1f428b3ff468292cfb0a41046020600435610f6460018060a01b035f541633146113a9565b80600355604051908152a1005b34610ded576020366003190112610ded57610f8a611393565b5f546001600160a01b031690610fa13383146113a9565b6001600160a01b031690610fb6821515611406565b600180546001600160a01b031916831790557fc02afc35b5d9b88807390ad5b17e685602c17339aa880db1dfe4e15cb3e2e3a15f80a3005b34610ded575f366003190112610ded576020600754604051908152f35b34610ded575f366003190112610ded576020600654604051908152f35b34610ded575f366003190112610ded576040517f00000000000000000000000000000000000000000000000000000000000000006001600160a01b03168152602090f35b34610ded576020366003190112610ded5760043561109460018060a01b035f541633146113a9565b60c881116110d3577fb04438781e840362c78ce8cc4b97de7afc9aaccde53ad4c035c61d532474c66060406002548151908152836020820152a1600255005b60405162461bcd60e51b81526020600482015260116024820152700a0a69a7440cccaca40e8dede40d0d2ced607b1b6044820152606490fd5b34610ded575f366003190112610ded57602060ff600454166040519015158152f35b34610ded575f366003190112610ded576020600854604051908152f35b34610ded575f366003190112610ded576040517f00000000000000000000000000000000000000000000000000000000000000006001600160a01b03168152602090f35b34610ded575f366003190112610ded576001546040516001600160a01b039091168152602090f35b34610ded576020366003190112610ded5760043564e8d4a5100081029080820464e8d4a510001490151715610df1576040906111fb612710610af7600254846113e6565b9082519182526020820152f35b34610ded575f366003190112610ded5760206040516127108152f35b34610ded575f366003190112610ded57602060405160128152f35b34610ded575f366003190112610ded576020600254604051908152f35b34610ded576020366003190112610ded57600435801515809103610ded5760207f0e2fb031ee032dc02d8011dc50b816eb450cf856abd8261680dac74f72165bd2916112b260018060a01b035f541633146113a9565b60ff196004541660ff821617600455604051908152a1005b34610ded575f366003190112610ded576001546001600160a01b038116903382900361133b575f80546001600160a01b0319808216851783559092166001556001600160a01b03909116907ff8ccb027dfcd135e000e9d45e6cc2d662578a8825d4c45b5e32e0adf67e79ec69080a3005b60405162461bcd60e51b81526020600482015260166024820152752829a69d103737ba103832b73234b7339030b236b4b760511b6044820152606490fd5b34610ded575f366003190112610ded576020906003548152f35b600435906001600160a01b0382168203610ded57565b156113b057565b60405162461bcd60e51b815260206004820152600e60248201526d2829a69d103737ba1030b236b4b760911b6044820152606490fd5b81810292918115918404141715610df157565b91908203918211610df157565b1561140d57565b60405162461bcd60e51b815260206004820152601160248201527050534d3a207a65726f206164647265737360781b6044820152606490fd5b1561144d57565b60405162461bcd60e51b81526020600482015260096024820152681499595b9d1c985b9d60ba1b6044820152606490fd5b1561148557565b60405162461bcd60e51b815260206004820152600b60248201526a1414d34e881c185d5cd95960aa1b6044820152606490fd5b156114bf57565b60405162461bcd60e51b815260206004820152601060248201526f1414d34e881e995c9bc8185b5bdd5b9d60821b6044820152606490fd5b91908201809211610df157565b90601f8019910116810190811067ffffffffffffffff82111761152657604052565b634e487b7160e01b5f52604160045260245ffd5b90816020910312610ded57518015158103610ded5790565b1561155957565b60405162461bcd60e51b815260206004820152601960248201527f50534d3a2055534443207472616e73666572206661696c6564000000000000006044820152606490fd5b156115a557565b60405162461bcd60e51b81526020600482015260156024820152741414d34e881bdd5d1c1d5d081d1bdbc81cdb585b1b605a1b6044820152606490fd5b156115e957565b60405162461bcd60e51b81526020600482015260136024820152721414d34e88185c1c1c9bdd994819985a5b1959606a1b6044820152606490fd5b90816060910312610ded57805191604060208301519201519056fea26469706673582212204716249afd61c51048e93ecf126cd7ab8b1a09b2bae06318b64424d75a24ad4364736f6c63430008210033","linkReferences":{}},"methodIdentifiers":{"BPS()":"249d39e9","GUSD_DECIMALS()":"215f0f98","SCALE()":"eced5526","USDC_DECIMALS()":"c1419def","_callMintingFeeTracking(uint256,address,address,address,string)":"e744630f","acceptAdmin()":"0e18b681","admin()":"f851a440","feeBPS()":"1a1c6e53","feeSplitter()":"6052970c","gusd()":"8c87ee90","paused()":"5c975abb","pendingAdmin()":"26782247","previewGUSDForUSDC(uint256)":"84891c50","previewUSDCForGUSD(uint256)":"26603693","psmBurnedGUSD()":"5641bc07","psmMintedGUSD()":"6515e5d8","setFeeBPS(uint256)":"604b6a9c","setPaused(bool)":"16c38b3c","setSwapCap(uint256)":"7d706da0","swapCap()":"02df9df1","swapGUSDForUSDC(uint256)":"ee84f2fe","swapUSDCForGUSD(uint256)":"cc999017","totalFeesCollected()":"60c6d8ae","totalUSDCReserves()":"bf79ef72","transferAdmin(address)":"75829def","usdc()":"3e413bee","withdrawReserves(address,uint256)":"e478795d"},"id":46}