{"abi":[{"type":"constructor","inputs":[{"name":"_gusd","type":"address","internalType":"address"},{"name":"_usdc","type":"address","internalType":"address"},{"name":"_feeSplitter","type":"address","internalType":"address"},{"name":"_admin","type":"address","internalType":"address"}],"stateMutability":"nonpayable"},{"type":"function","name":"BPS","inputs":[],"outputs":[{"name":"","type":"uint256","internalType":"uint256"}],"stateMutability":"view"},{"type":"function","name":"GUSD_DECIMALS","inputs":[],"outputs":[{"name":"","type":"uint256","internalType":"uint256"}],"stateMutability":"view"},{"type":"function","name":"SCALE","inputs":[],"outputs":[{"name":"","type":"uint256","internalType":"uint256"}],"stateMutability":"view"},{"type":"function","name":"USDC_DECIMALS","inputs":[],"outputs":[{"name":"","type":"uint256","internalType":"uint256"}],"stateMutability":"view"},{"type":"function","name":"_callMintingFeeTracking","inputs":[{"name":"fee","type":"uint256","internalType":"uint256"},{"name":"dAppRecipient","type":"address","internalType":"address"},{"name":"token","type":"address","internalType":"address"},{"name":"user","type":"address","internalType":"address"},{"name":"direction","type":"string","internalType":"string"}],"outputs":[],"stateMutability":"nonpayable"},{"type":"function","name":"admin","inputs":[],"outputs":[{"name":"","type":"address","internalType":"address"}],"stateMutability":"view"},{"type":"function","name":"feeBPS","inputs":[],"outputs":[{"name":"","type":"uint256","internalType":"uint256"}],"stateMutability":"view"},{"type":"function","name":"feeSplitter","inputs":[],"outputs":[{"name":"","type":"address","internalType":"contract IUBIFeeSplitter"}],"stateMutability":"view"},{"type":"function","name":"gusd","inputs":[],"outputs":[{"name":"","type":"address","internalType":"contract IgUSDMinter"}],"stateMutability":"view"},{"type":"function","name":"paused","inputs":[],"outputs":[{"name":"","type":"bool","internalType":"bool"}],"stateMutability":"view"},{"type":"function","name":"previewGUSDForUSDC","inputs":[{"name":"gusdAmount","type":"uint256","internalType":"uint256"}],"outputs":[{"name":"usdcOut","type":"uint256","internalType":"uint256"},{"name":"fee","type":"uint256","internalType":"uint256"}],"stateMutability":"view"},{"type":"function","name":"previewUSDCForGUSD","inputs":[{"name":"usdcAmount","type":"uint256","internalType":"uint256"}],"outputs":[{"name":"gusdOut","type":"uint256","internalType":"uint256"},{"name":"fee","type":"uint256","internalType":"uint256"}],"stateMutability":"view"},{"type":"function","name":"psmBurnedGUSD","inputs":[],"outputs":[{"name":"","type":"uint256","internalType":"uint256"}],"stateMutability":"view"},{"type":"function","name":"psmMintedGUSD","inputs":[],"outputs":[{"name":"","type":"uint256","internalType":"uint256"}],"stateMutability":"view"},{"type":"function","name":"setFeeBPS","inputs":[{"name":"_feeBPS","type":"uint256","internalType":"uint256"}],"outputs":[],"stateMutability":"nonpayable"},{"type":"function","name":"setPaused","inputs":[{"name":"_paused","type":"bool","internalType":"bool"}],"outputs":[],"stateMutability":"nonpayable"},{"type":"function","name":"setSwapCap","inputs":[{"name":"_cap","type":"uint256","internalType":"uint256"}],"outputs":[],"stateMutability":"nonpayable"},{"type":"function","name":"swapCap","inputs":[],"outputs":[{"name":"","type":"uint256","internalType":"uint256"}],"stateMutability":"view"},{"type":"function","name":"swapGUSDForUSDC","inputs":[{"name":"gusdAmount","type":"uint256","internalType":"uint256"}],"outputs":[],"stateMutability":"nonpayable"},{"type":"function","name":"swapUSDCForGUSD","inputs":[{"name":"usdcAmount","type":"uint256","internalType":"uint256"}],"outputs":[],"stateMutability":"nonpayable"},{"type":"function","name":"totalFeesCollected","inputs":[],"outputs":[{"name":"","type":"uint256","internalType":"uint256"}],"stateMutability":"view"},{"type":"function","name":"totalUSDCReserves","inputs":[],"outputs":[{"name":"","type":"uint256","internalType":"uint256"}],"stateMutability":"view"},{"type":"function","name":"transferAdmin","inputs":[{"name":"newAdmin","type":"address","internalType":"address"}],"outputs":[],"stateMutability":"nonpayable"},{"type":"function","name":"usdc","inputs":[],"outputs":[{"name":"","type":"address","internalType":"contract IUSDC"}],"stateMutability":"view"},{"type":"function","name":"withdrawReserves","inputs":[{"name":"to","type":"address","internalType":"address"},{"name":"usdcAmount","type":"uint256","internalType":"uint256"}],"outputs":[],"stateMutability":"nonpayable"},{"type":"event","name":"AdminTransferred","inputs":[{"name":"oldAdmin","type":"address","indexed":true,"internalType":"address"},{"name":"newAdmin","type":"address","indexed":true,"internalType":"address"}],"anonymous":false},{"type":"event","name":"FeeBPSUpdated","inputs":[{"name":"oldBPS","type":"uint256","indexed":false,"internalType":"uint256"},{"name":"newBPS","type":"uint256","indexed":false,"internalType":"uint256"}],"anonymous":false},{"type":"event","name":"Paused","inputs":[{"name":"status","type":"bool","indexed":false,"internalType":"bool"}],"anonymous":false},{"type":"event","name":"SwapCapUpdated","inputs":[{"name":"cap","type":"uint256","indexed":false,"internalType":"uint256"}],"anonymous":false},{"type":"event","name":"SwapGUSDForUSDC","inputs":[{"name":"user","type":"address","indexed":true,"internalType":"address"},{"name":"gusdIn","type":"uint256","indexed":false,"internalType":"uint256"},{"name":"usdcOut","type":"uint256","indexed":false,"internalType":"uint256"},{"name":"fee","type":"uint256","indexed":false,"internalType":"uint256"}],"anonymous":false},{"type":"event","name":"SwapUSDCForGUSD","inputs":[{"name":"user","type":"address","indexed":true,"internalType":"address"},{"name":"usdcIn","type":"uint256","indexed":false,"internalType":"uint256"},{"name":"gusdOut","type":"uint256","indexed":false,"internalType":"uint256"},{"name":"fee","type":"uint256","indexed":false,"internalType":"uint256"}],"anonymous":false}],"bytecode":{"object":"0x60e03461020e57601f61177538819003918201601f19168301916001600160401b038311848410176102125780849260809460405283398101031261020e5761004781610226565b61005360208301610226565b9161006c606061006560408401610226565b9201610226565b6001600160a01b039092169283156101d8576001600160a01b03169081156101a2576001600160a01b0316918215610168576001600160a01b03169283156101315760805260a05260c0525f80546001600160a01b031916919091179055600a60015560405161153a908161023b82396080518181816101fc01528181610ad90152610e86015260a0518181816102c70152818161089f01528181610a52015261113e015260c051818181610398015281816106f701528181610be3015261101b0152f35b60405162461bcd60e51b815260206004820152600f60248201526e2829a69d103d32b9379030b236b4b760891b6044820152606490fd5b60405162461bcd60e51b81526020600482015260126024820152712829a69d103d32b9379039b83634ba3a32b960711b6044820152606490fd5b60405162461bcd60e51b815260206004820152600e60248201526d50534d3a207a65726f205553444360901b6044820152606490fd5b60405162461bcd60e51b815260206004820152600e60248201526d1414d34e881e995c9bc819d554d160921b6044820152606490fd5b5f80fd5b634e487b7160e01b5f52604160045260245ffd5b51906001600160a01b038216820361020e5756fe6080806040526004361015610012575f80fd5b5f905f3560e01c90816302df9df1146112805750806316c38b3c146112125780631a1c6e53146111f5578063215f0f98146111da578063249d39e9146111be578063266036931461116d5780633e413bee146111295780635641bc071461110c5780635c975abb146110ea578063604b6a9c1461104a5780636052970c1461100657806360c6d8ae14610fe95780636515e5d814610fcc57806375829def14610f515780637d706da014610ef957806384891c5014610eb55780638c87ee9014610e71578063bf79ef7214610e54578063c1419def14610e39578063cc999017146109d6578063e478795d146107d6578063e744630f14610605578063eced5526146105e5578063ee84f2fe1461015a5763f851a44014610131575f80fd5b34610157578060031936011261015757546040516001600160a01b039091168152602090f35b80fd5b50346101575760203660031901126101575760043561017b6008541561134d565b600160085561018f60ff6003541615611385565b61019a8115156113bf565b6127106101a9600154836112ed565b046101b48183611300565b9064e8d4a510008204916101c98315156114a5565b82600454106105a0576040516323b872dd60e01b8152336004820152306024820152604481018590526001600160a01b037f000000000000000000000000000000000000000000000000000000000000000016906020816064818a865af1908115610595578791610576575b5015610531578591813b156104f057604051630852cd8d60e31b815260048101829052838160248183875af190811561051157849161051c575b505061027d906007546113fe565b60075582610381575b505061029482600454611300565b600490815560405163a9059cbb60e01b815233918101919091526024810183905291602083604481886001600160a01b037f0000000000000000000000000000000000000000000000000000000000000000165af1928315610376577f19d6baaf4008076fefde90765b8965de468a3f462d7d146e5a9d1468008c890d93610323918791610347575b50611459565b604080519485526020850191909152830152339180606081015b0390a28060085580f35b610369915060203d60201161036f575b610361818361140b565b810190611441565b5f61031d565b503d610357565b6040513d87823e3d90fd5b60405163095ea7b360e01b81526001600160a01b037f0000000000000000000000000000000000000000000000000000000000000000166004820181905260248201859052919060208160448187865af18015610511576104f4575b50303b156104f05760405163e744630f60e01b815284600482015230602482015281604482015233606482015260a06084820152600c60a48201526b675553442d746f2d5553444360a01b60c482015283808260e48183305af191826104d7575b50506104cf57604051633e5a775160e11b8152600481018590523060248201526001600160a01b039190911660448201529160609183916064918391905af18015610376576104a0575b505b610496816005546113fe565b600555835f610286565b6104c19060603d6060116104c8575b6104b9818361140b565b8101906114e9565b5050610488565b503d6104af565b50505061048a565b816104e19161140b565b6104ec57835f61043e565b8380fd5b8280fd5b61050c9060203d60201161036f57610361818361140b565b6103dd565b6040513d86823e3d90fd5b816105269161140b565b6104f057825f61026f565b60405162461bcd60e51b815260206004820152601960248201527f50534d3a2067555344207472616e73666572206661696c6564000000000000006044820152606490fd5b61058f915060203d60201161036f57610361818361140b565b5f610235565b6040513d89823e3d90fd5b60405162461bcd60e51b815260206004820152601a60248201527f50534d3a20696e73756666696369656e742072657365727665730000000000006044820152606490fd5b5034610157578060031936011261015757602060405164e8d4a510008152f35b50346101575760a0366003190112610157576024356001600160a01b038116908190036107d2576044356001600160a01b03811691908290036104f0576064356001600160a01b03811692908390036104ec5760843567ffffffffffffffff81116107ce57366023820112156107ce5780600401359267ffffffffffffffff84116107ca5736602485840101116107ca573033036107945783606094602460c4946040519889978896636ee3c5e360e11b88526004356004890152848801526044870152606486015260a060848601528260a486015201848401378181018301879052601f01601f19168101030181857f00000000000000000000000000000000000000000000000000000000000000006001600160a01b03165af19081610775575b506107725760405162461bcd60e51b815260206004820152601f60248201527f456e68616e63656420747261636b696e67206e6f7420737570706f72746564006044820152606490fd5b80f35b61078d9060603d6060116104c8576104b9818361140b565b5050610728565b60405162461bcd60e51b815260206004820152600e60248201526d2829a69d1037b7363c9039b2b63360911b6044820152606490fd5b8580fd5b8480fd5b5080fd5b5034610157576040366003190112610157576107f061129a565b60243561080760018060a01b0384541633146112b0565b61081b6001600160a01b038316151561130d565b6004549081811161099957600654600754908181111561098b5764e8d4a510009161084591611300565b046108508284611300565b106109465761089a9261086582602094611300565b600490815560405163a9059cbb60e01b81526001600160a01b0390921690820152602481019190915291829081906044820190565b0381857f00000000000000000000000000000000000000000000000000000000000000006001600160a01b03165af190811561093b57829161091c575b50156108e05780f35b60405162461bcd60e51b81526020600482015260146024820152731414d34e881d1c985b9cd9995c8819985a5b195960621b6044820152606490fd5b610935915060203d60201161036f57610361818361140b565b5f6108d7565b6040513d84823e3d90fd5b60405162461bcd60e51b815260206004820152601860248201527f50534d3a20756e646572636f6c6c61746572616c697a656400000000000000006044820152606490fd5b505064e8d4a5100084610845565b60405162461bcd60e51b815260206004820152601560248201527450534d3a206578636565647320726573657276657360581b6044820152606490fd5b5034610dcd576020366003190112610dcd576004356109f76008541561134d565b6001600855610a0b60ff6003541615611385565b8015610a1781156113bf565b60025480610de5575b506040516323b872dd60e01b8152336004820152306024820152604481018390526020816064815f6001600160a01b037f0000000000000000000000000000000000000000000000000000000000000000165af18015610dc257610a8a915f916103475750611459565b610a96826004546113fe565b60045564e8d4a5100082029082820464e8d4a51000141715610dd157610acc612710610ac4600154846112ed565b048092611300565b610ad78115156114a5565b7f00000000000000000000000000000000000000000000000000000000000000006001600160a01b0316803b15610dcd576040516340c10f1960e01b8152336004820152602481018390525f8160448183865af18015610dc257610da9575b5090849291610b47826006546113fe565b60065582610b92575b506040805194855260208501919091528301525033907fc91682597e50d783bf81329b763263cef72b0cda71f5e617e0bd4b4150f8440390806060810161033d565b803b156104ec576040516340c10f1960e01b815230600482015260248101849052848160448183865af1908115610376578591610d94575b505060405163095ea7b360e01b81526001600160a01b037f0000000000000000000000000000000000000000000000000000000000000000166004820181905260248201859052919060208160448189865af18015610d8957610d6c575b50303b156107ce5760405163e744630f60e01b815284600482015230602482015281604482015233606482015260a06084820152600c60a48201526b1554d110cb5d1bcb59d554d160a21b60c482015285808260e48183305af19182610d57575b5050610d2d57604051633e5a775160e11b8152600481018590523060248201526001600160a01b039190911660448201529360609185916064918391905af1928315610376577fc91682597e50d783bf81329b763263cef72b0cda71f5e617e0bd4b4150f8440393610d0e575b505b610d04826005546113fe565b6005558492610b50565b610d269060603d6060116104c8576104b9818361140b565b5050610cf6565b50507fc91682597e50d783bf81329b763263cef72b0cda71f5e617e0bd4b4150f844039250610cf8565b81610d619161140b565b6107ca57855f610c89565b610d849060203d60201161036f57610361818361140b565b610c28565b6040513d88823e3d90fd5b81610d9e9161140b565b6104ec57835f610bca565b610db891939295505f9061140b565b5f9390915f610b36565b6040513d5f823e3d90fd5b5f80fd5b634e487b7160e01b5f52601160045260245ffd5b610df1836004546113fe565b11610dfc575f610a20565b60405162461bcd60e51b81526020600482015260156024820152741414d34e881cddd85c0818d85c081c995858da1959605a1b6044820152606490fd5b34610dcd575f366003190112610dcd57602060405160068152f35b34610dcd575f366003190112610dcd576020600454604051908152f35b34610dcd575f366003190112610dcd576040517f00000000000000000000000000000000000000000000000000000000000000006001600160a01b03168152602090f35b34610dcd576020366003190112610dcd57604060043564e8d4a51000610eeb612710610ee3600154856112ed565b048093611300565b049082519182526020820152f35b34610dcd576020366003190112610dcd577f334538d502feb3f0c7fab3f05496f1f17cfd920a1f428b3ff468292cfb0a41046020600435610f4460018060a01b035f541633146112b0565b80600255604051908152a1005b34610dcd576020366003190112610dcd57610f6a61129a565b5f546001600160a01b03811691610f823384146112b0565b6001600160a01b0316918290610f9982151561130d565b7ff8ccb027dfcd135e000e9d45e6cc2d662578a8825d4c45b5e32e0adf67e79ec65f80a36001600160a01b031916175f55005b34610dcd575f366003190112610dcd576020600654604051908152f35b34610dcd575f366003190112610dcd576020600554604051908152f35b34610dcd575f366003190112610dcd576040517f00000000000000000000000000000000000000000000000000000000000000006001600160a01b03168152602090f35b34610dcd576020366003190112610dcd5760043561107260018060a01b035f541633146112b0565b60c881116110b1577fb04438781e840362c78ce8cc4b97de7afc9aaccde53ad4c035c61d532474c66060406001548151908152836020820152a1600155005b60405162461bcd60e51b81526020600482015260116024820152700a0a69a7440cccaca40e8dede40d0d2ced607b1b6044820152606490fd5b34610dcd575f366003190112610dcd57602060ff600354166040519015158152f35b34610dcd575f366003190112610dcd576020600754604051908152f35b34610dcd575f366003190112610dcd576040517f00000000000000000000000000000000000000000000000000000000000000006001600160a01b03168152602090f35b34610dcd576020366003190112610dcd5760043564e8d4a5100081029080820464e8d4a510001490151715610dd1576040906111b1612710610ac4600154846112ed565b9082519182526020820152f35b34610dcd575f366003190112610dcd5760206040516127108152f35b34610dcd575f366003190112610dcd57602060405160128152f35b34610dcd575f366003190112610dcd576020600154604051908152f35b34610dcd576020366003190112610dcd57600435801515809103610dcd5760207f0e2fb031ee032dc02d8011dc50b816eb450cf856abd8261680dac74f72165bd29161126860018060a01b035f541633146112b0565b60ff196003541660ff821617600355604051908152a1005b34610dcd575f366003190112610dcd576020906002548152f35b600435906001600160a01b0382168203610dcd57565b156112b757565b60405162461bcd60e51b815260206004820152600e60248201526d2829a69d103737ba1030b236b4b760911b6044820152606490fd5b81810292918115918404141715610dd157565b91908203918211610dd157565b1561131457565b60405162461bcd60e51b815260206004820152601160248201527050534d3a207a65726f206164647265737360781b6044820152606490fd5b1561135457565b60405162461bcd60e51b81526020600482015260096024820152681499595b9d1c985b9d60ba1b6044820152606490fd5b1561138c57565b60405162461bcd60e51b815260206004820152600b60248201526a1414d34e881c185d5cd95960aa1b6044820152606490fd5b156113c657565b60405162461bcd60e51b815260206004820152601060248201526f1414d34e881e995c9bc8185b5bdd5b9d60821b6044820152606490fd5b91908201809211610dd157565b90601f8019910116810190811067ffffffffffffffff82111761142d57604052565b634e487b7160e01b5f52604160045260245ffd5b90816020910312610dcd57518015158103610dcd5790565b1561146057565b60405162461bcd60e51b815260206004820152601960248201527f50534d3a2055534443207472616e73666572206661696c6564000000000000006044820152606490fd5b156114ac57565b60405162461bcd60e51b81526020600482015260156024820152741414d34e881bdd5d1c1d5d081d1bdbc81cdb585b1b605a1b6044820152606490fd5b90816060910312610dcd57805191604060208301519201519056fea264697066735822122095a541c10ef0ad41759892a3a6d92601498c3f847892a373e51bbf5142bedb8664736f6c63430008210033","linkReferences":{}},"methodIdentifiers":{"BPS()":"249d39e9","GUSD_DECIMALS()":"215f0f98","SCALE()":"eced5526","USDC_DECIMALS()":"c1419def","_callMintingFeeTracking(uint256,address,address,address,string)":"e744630f","admin()":"f851a440","feeBPS()":"1a1c6e53","feeSplitter()":"6052970c","gusd()":"8c87ee90","paused()":"5c975abb","previewGUSDForUSDC(uint256)":"84891c50","previewUSDCForGUSD(uint256)":"26603693","psmBurnedGUSD()":"5641bc07","psmMintedGUSD()":"6515e5d8","setFeeBPS(uint256)":"604b6a9c","setPaused(bool)":"16c38b3c","setSwapCap(uint256)":"7d706da0","swapCap()":"02df9df1","swapGUSDForUSDC(uint256)":"ee84f2fe","swapUSDCForGUSD(uint256)":"cc999017","totalFeesCollected()":"60c6d8ae","totalUSDCReserves()":"bf79ef72","transferAdmin(address)":"75829def","usdc()":"3e413bee","withdrawReserves(address,uint256)":"e478795d"},"id":7}