{"abi":[{"type":"constructor","inputs":[{"name":"_messenger","type":"address","internalType":"address"},{"name":"_goodDollar","type":"address","internalType":"address"},{"name":"_usdc","type":"address","internalType":"address"},{"name":"_admin","type":"address","internalType":"address"}],"stateMutability":"nonpayable"},{"type":"receive","stateMutability":"payable"},{"type":"function","name":"admin","inputs":[],"outputs":[{"name":"","type":"address","internalType":"address"}],"stateMutability":"view"},{"type":"function","name":"depositETH","inputs":[{"name":"to","type":"address","internalType":"address"}],"outputs":[],"stateMutability":"payable"},{"type":"function","name":"depositGDollar","inputs":[{"name":"to","type":"address","internalType":"address"},{"name":"amount","type":"uint256","internalType":"uint256"}],"outputs":[],"stateMutability":"nonpayable"},{"type":"function","name":"depositUSDC","inputs":[{"name":"to","type":"address","internalType":"address"},{"name":"amount","type":"uint256","internalType":"uint256"}],"outputs":[],"stateMutability":"nonpayable"},{"type":"function","name":"deposits","inputs":[{"name":"","type":"address","internalType":"address"},{"name":"","type":"address","internalType":"address"}],"outputs":[{"name":"","type":"uint256","internalType":"uint256"}],"stateMutability":"view"},{"type":"function","name":"finalizeETHWithdrawal","inputs":[{"name":"to","type":"address","internalType":"address"},{"name":"amount","type":"uint256","internalType":"uint256"}],"outputs":[],"stateMutability":"nonpayable"},{"type":"function","name":"finalizeGDollarWithdrawal","inputs":[{"name":"to","type":"address","internalType":"address"},{"name":"amount","type":"uint256","internalType":"uint256"}],"outputs":[],"stateMutability":"nonpayable"},{"type":"function","name":"finalizeUSDCWithdrawal","inputs":[{"name":"to","type":"address","internalType":"address"},{"name":"amount","type":"uint256","internalType":"uint256"}],"outputs":[],"stateMutability":"nonpayable"},{"type":"function","name":"goodDollar","inputs":[],"outputs":[{"name":"","type":"address","internalType":"contract IBridgeToken"}],"stateMutability":"view"},{"type":"function","name":"l2Bridge","inputs":[],"outputs":[{"name":"","type":"address","internalType":"address"}],"stateMutability":"view"},{"type":"function","name":"messenger","inputs":[],"outputs":[{"name":"","type":"address","internalType":"contract IL1CrossDomainMessenger"}],"stateMutability":"view"},{"type":"function","name":"paused","inputs":[],"outputs":[{"name":"","type":"bool","internalType":"bool"}],"stateMutability":"view"},{"type":"function","name":"setAdmin","inputs":[{"name":"newAdmin","type":"address","internalType":"address"}],"outputs":[],"stateMutability":"nonpayable"},{"type":"function","name":"setL2Bridge","inputs":[{"name":"_l2Bridge","type":"address","internalType":"address"}],"outputs":[],"stateMutability":"nonpayable"},{"type":"function","name":"setPaused","inputs":[{"name":"_paused","type":"bool","internalType":"bool"}],"outputs":[],"stateMutability":"nonpayable"},{"type":"function","name":"totalETHLocked","inputs":[],"outputs":[{"name":"","type":"uint256","internalType":"uint256"}],"stateMutability":"view"},{"type":"function","name":"totalGDollarLocked","inputs":[],"outputs":[{"name":"","type":"uint256","internalType":"uint256"}],"stateMutability":"view"},{"type":"function","name":"totalUSDCLocked","inputs":[],"outputs":[{"name":"","type":"uint256","internalType":"uint256"}],"stateMutability":"view"},{"type":"function","name":"usdc","inputs":[],"outputs":[{"name":"","type":"address","internalType":"contract IBridgeToken"}],"stateMutability":"view"},{"type":"event","name":"DepositInitiated","inputs":[{"name":"token","type":"address","indexed":true,"internalType":"address"},{"name":"from","type":"address","indexed":true,"internalType":"address"},{"name":"to","type":"address","indexed":true,"internalType":"address"},{"name":"amount","type":"uint256","indexed":false,"internalType":"uint256"},{"name":"depositHash","type":"bytes32","indexed":false,"internalType":"bytes32"}],"anonymous":false},{"type":"event","name":"ETHDepositInitiated","inputs":[{"name":"from","type":"address","indexed":true,"internalType":"address"},{"name":"to","type":"address","indexed":true,"internalType":"address"},{"name":"amount","type":"uint256","indexed":false,"internalType":"uint256"}],"anonymous":false},{"type":"event","name":"ETHWithdrawalFinalized","inputs":[{"name":"to","type":"address","indexed":true,"internalType":"address"},{"name":"amount","type":"uint256","indexed":false,"internalType":"uint256"}],"anonymous":false},{"type":"event","name":"WithdrawalFinalized","inputs":[{"name":"token","type":"address","indexed":true,"internalType":"address"},{"name":"to","type":"address","indexed":true,"internalType":"address"},{"name":"amount","type":"uint256","indexed":false,"internalType":"uint256"},{"name":"withdrawalHash","type":"bytes32","indexed":false,"internalType":"bytes32"}],"anonymous":false},{"type":"error","name":"BridgePaused","inputs":[]},{"type":"error","name":"InsufficientETH","inputs":[]},{"type":"error","name":"NotAdmin","inputs":[]},{"type":"error","name":"NotL2Bridge","inputs":[]},{"type":"error","name":"NotMessenger","inputs":[]},{"type":"error","name":"PeerNotConfigured","inputs":[]},{"type":"error","name":"TransferFailed","inputs":[]},{"type":"error","name":"ZeroAddress","inputs":[]},{"type":"error","name":"ZeroAmount","inputs":[]}],"bytecode":{"object":"0x60e03461014757601f6112f238819003918201601f19168301916001600160401b0383118484101761014b57808492608094604052833981010312610147576100478161015f565b6100536020830161015f565b9161006c60606100656040840161015f565b920161015f565b60015f556001600160a01b03909216928315610138576001600160a01b0316908115610138576001600160a01b0316918215610138576001600160a01b03169283156101385760805260a05260c052600280546001600160a01b03191691909117905560405161117e908161017482396080518181816102bc0152818161055a0152818161072101528181610b4001528181610c350152610d46015260a0518181816101e8015281816107d50152610f85015260c05181818161099501528181610a870152610df60152f35b63d92e233d60e01b5f5260045ffd5b5f80fd5b634e487b7160e01b5f52604160045260245ffd5b51906001600160a01b03821682036101475756fe608080604052600436101561001c575b50361561001a575f80fd5b005b5f905f3560e01c908163119e5bf314610f735750806316c38b3c14610f225780632010e87514610d275780632d2da80614610b8d5780633aacc0bc14610b6f5780633cb747bf14610b2a5780633d36d97114610ab65780633e413bee14610a7157806356b22bf2146109145780635c975abb146108f157806362a98843146107015780636fe9b25c1461053a578063704b6c02146104cd5780638f601f6614610469578063a1420cb01461044b578063a26601a614610167578063ae1f6aaf1461013e578063c6de96c0146101205763f851a4400361000f573461011d578060031936011261011d576002546040516001600160a01b039091168152602090f35b80fd5b503461011d578060031936011261011d576020600454604051908152f35b503461011d578060031936011261011d576001546040516001600160a01b039091168152602090f35b503461011d57604036600319011261011d57610181610fb4565b60243560ff6007541661043c576001546001600160a01b03161561042d576101a76110f4565b801561041e576001600160a01b03821691821561040f576040516323b872dd60e01b8152336004820152306024820152604481018390526001600160a01b037f000000000000000000000000000000000000000000000000000000000000000016919060208160648189875af19081156104045786916103d5575b50156103c65781855260036020526040852060018060a01b0333165f5260205260405f206102518482546110a3565b905561025f836004546110a3565b600455604051635ff2e69360e01b60208201526001600160a01b038084166024830152336044830152821660648201526084810184905285906102af8160a481015b03601f198101835282610fca565b6001546001600160a01b037f0000000000000000000000000000000000000000000000000000000000000000811692911690823b156103c25761030b92849283604051809681958294633dbb202b60e01b8452600484016110b0565b03925af180156103b75761039e575b50506040516001600160601b0319606084811b82166020840190815233821b8316603485015293901b166048820152605c810184905243607c82015261036381609c81016102a1565b51902060405192835260208301527f11fedc05f5463ca3f5e2fdd38d982eb1e12cc6ab5846509d7de2dff9a494b25460403393a46001815580f35b816103a891610fca565b6103b357845f61031a565b8480fd5b6040513d84823e3d90fd5b8380fd5b6312171d8360e31b8552600485fd5b6103f7915060203d6020116103fd575b6103ef8183610fca565b81019061108b565b5f610222565b503d6103e5565b6040513d88823e3d90fd5b63d92e233d60e01b8452600484fd5b631f2a200560e01b8352600483fd5b63507a6c5560e01b8352600483fd5b63a792dfa360e01b8352600483fd5b503461011d578060031936011261011d576020600554604051908152f35b503461011d57604036600319011261011d57610483610fb4565b60243591906001600160a01b03831683036104c9579060409160018060a01b031681526003602052209060018060a01b03165f52602052602060405f2054604051908152f35b5080fd5b503461011d57602036600319011261011d576104e7610fb4565b600254906001600160a01b038216330361052b576001600160a01b031690811561051c576001600160a01b0319161760025580f35b63d92e233d60e01b8352600483fd5b637bfa4b9f60e01b8352600483fd5b503461011d57604036600319011261011d57610554610fb4565b602435907f00000000000000000000000000000000000000000000000000000000000000006001600160a01b0316338190036106f257602060049160405192838092636e296e4560e01b82525afa9081156106e75784916106b8575b506001546001600160a01b039081169116036106a9576105ce6110f4565b81471061069a576105ed826006546105e88183111561101f565b61106a565b6006558280808085855af13d15610695573d67ffffffffffffffff81116106815760405190610626601f8201601f191660200183610fca565b81528460203d92013e5b15610672576040519182526001600160a01b0316907f7d11bbbfa84342dfa4c0036a81ce20f5335ea725840dfe036f7c16308d0a05cf90602090a26001815580f35b6312171d8360e31b8352600483fd5b634e487b7160e01b85526041600452602485fd5b610630565b631a84bc4160e21b8352600483fd5b63855c2ab760e01b8352600483fd5b6106da915060203d6020116106e0575b6106d28183610fca565b810190611000565b5f6105b0565b503d6106c8565b6040513d86823e3d90fd5b631e51e47d60e01b8452600484fd5b503461011d57604036600319011261011d5761071b610fb4565b602435907f00000000000000000000000000000000000000000000000000000000000000006001600160a01b0316338190036106f257602060049160405192838092636e296e4560e01b82525afa9081156106e75784916108d2575b506001546001600160a01b039081169116036106a9576107956110f4565b6107a8826004546105e88183111561101f565b600490815560405163a9059cbb60e01b81526001600160a01b0383811692820192909252602481018490527f0000000000000000000000000000000000000000000000000000000000000000909116919060208160448188875af19081156108c75785916108a8575b50156108995760408051606084811b6001600160601b0319908116602084019081529185901b166034830152604882018690524360688301527f1e3df6586885d8604476133503293be4a2fb372f7042128337be331439b77505939161087a81608881016102a1565b519020825195865260208601526001600160a01b031693a36001815580f35b6312171d8360e31b8452600484fd5b6108c1915060203d6020116103fd576103ef8183610fca565b5f610811565b6040513d87823e3d90fd5b6108eb915060203d6020116106e0576106d28183610fca565b5f610777565b503461011d578060031936011261011d57602060ff600754166040519015158152f35b503461011d57604036600319011261011d5761092e610fb4565b60243560ff6007541661043c576001546001600160a01b03161561042d576109546110f4565b801561041e576001600160a01b03821691821561040f576040516323b872dd60e01b8152336004820152306024820152604481018390526001600160a01b037f000000000000000000000000000000000000000000000000000000000000000016919060208160648189875af1908115610404578691610a52575b50156103c65781855260036020526040852060018060a01b0333165f5260205260405f206109fe8482546110a3565b9055610a0c836005546110a3565b600555604051635ff2e69360e01b60208201526001600160a01b038084166024830152336044830152821660648201526084810184905285906102af8160a481016102a1565b610a6b915060203d6020116103fd576103ef8183610fca565b5f6109cf565b503461011d578060031936011261011d576040517f00000000000000000000000000000000000000000000000000000000000000006001600160a01b03168152602090f35b503461011d57602036600319011261011d57610ad0610fb4565b6002546001600160a01b03163303610b1b576001600160a01b03168015610b0c576bffffffffffffffffffffffff60a01b600154161760015580f35b63d92e233d60e01b8252600482fd5b637bfa4b9f60e01b8252600482fd5b503461011d578060031936011261011d576040517f00000000000000000000000000000000000000000000000000000000000000006001600160a01b03168152602090f35b503461011d578060031936011261011d576020600654604051908152f35b506020366003190112610ce757610ba2610fb4565b60ff60075416610d18576001546001600160a01b031615610d0957610bc56110f4565b3415610cfa576001600160a01b038116908115610ceb57610c286102a191610bef346006546110a3565b60065560405163a6a1be4f60e01b60208201523360248201526001600160a01b0390911660448201523460648201529182906084820190565b6001546001600160a01b037f0000000000000000000000000000000000000000000000000000000000000000811692911690823b15610ce757610c84925f9283604051809681958294633dbb202b60e01b8452600484016110b0565b03925af18015610cdc57610cc7575b506040513481527f3ce91e485243f97b13e443f325782afdb4ec30c867f8b9b31ac72d76e6e8d81f60203392a36001815580f35b610cd49192505f90610fca565b5f905f610c93565b6040513d5f823e3d90fd5b5f80fd5b63d92e233d60e01b5f5260045ffd5b631f2a200560e01b5f5260045ffd5b63507a6c5560e01b5f5260045ffd5b63a792dfa360e01b5f5260045ffd5b34610ce7576040366003190112610ce757610d40610fb4565b602435907f00000000000000000000000000000000000000000000000000000000000000006001600160a01b031633819003610f1357602060049160405192838092636e296e4560e01b82525afa908115610cdc575f91610ef4575b506001546001600160a01b03908116911603610ee557610dba6110f4565b610dcd826005546105e88183111561101f565b60055560405163a9059cbb60e01b81526001600160a01b038281166004830152602482018490527f00000000000000000000000000000000000000000000000000000000000000001691906020816044815f875af1908115610cdc575f91610ec6575b5015610eb75760408051606084811b6001600160601b0319908116602084019081529185901b166034830152604882018690524360688301527f1e3df6586885d8604476133503293be4a2fb372f7042128337be331439b775059391610e9981608881016102a1565b519020825195865260208601526001600160a01b031693a360015f55005b6312171d8360e31b5f5260045ffd5b610edf915060203d6020116103fd576103ef8183610fca565b84610e30565b63855c2ab760e01b5f5260045ffd5b610f0d915060203d6020116106e0576106d28183610fca565b83610d9c565b631e51e47d60e01b5f5260045ffd5b34610ce7576020366003190112610ce757600435801515809103610ce7576002546001600160a01b03163303610f645760ff8019600754169116176007555f80f35b637bfa4b9f60e01b5f5260045ffd5b34610ce7575f366003190112610ce7577f00000000000000000000000000000000000000000000000000000000000000006001600160a01b03168152602090f35b600435906001600160a01b0382168203610ce757565b90601f8019910116810190811067ffffffffffffffff821117610fec57604052565b634e487b7160e01b5f52604160045260245ffd5b90816020910312610ce757516001600160a01b0381168103610ce75790565b1561102657565b606460405162461bcd60e51b815260206004820152602060248201527f5769746864726177616c2065786365656473206c6f636b656420616d6f756e746044820152fd5b9190820391821161107757565b634e487b7160e01b5f52601160045260245ffd5b90816020910312610ce757518015158103610ce75790565b9190820180921161107757565b92916080602060409262030d409460018060a01b0316875260608288015280519182918260608a0152018388015e5f828288010152601f8019910116850101930152565b60025f54146111035760025f55565b60405162461bcd60e51b815260206004820152601f60248201527f5265656e7472616e637947756172643a207265656e7472616e742063616c6c006044820152606490fdfea2646970667358221220b0c8368f3411ad4faf8040ad249c4337c951c9ebdf321eec55fce55e776a21df64736f6c63430008210033","linkReferences":{}},"methodIdentifiers":{"admin()":"f851a440","depositETH(address)":"2d2da806","depositGDollar(address,uint256)":"a26601a6","depositUSDC(address,uint256)":"56b22bf2","deposits(address,address)":"8f601f66","finalizeETHWithdrawal(address,uint256)":"6fe9b25c","finalizeGDollarWithdrawal(address,uint256)":"62a98843","finalizeUSDCWithdrawal(address,uint256)":"2010e875","goodDollar()":"119e5bf3","l2Bridge()":"ae1f6aaf","messenger()":"3cb747bf","paused()":"5c975abb","setAdmin(address)":"704b6c02","setL2Bridge(address)":"3d36d971","setPaused(bool)":"16c38b3c","totalETHLocked()":"3aacc0bc","totalGDollarLocked()":"c6de96c0","totalUSDCLocked()":"a1420cb0","usdc()":"3e413bee"},"id":68}