{"abi":[{"type":"constructor","inputs":[{"name":"_admin","type":"address","internalType":"address"}],"stateMutability":"nonpayable"},{"type":"function","name":"admin","inputs":[],"outputs":[{"name":"","type":"address","internalType":"address"}],"stateMutability":"view"},{"type":"function","name":"allowance","inputs":[{"name":"","type":"address","internalType":"address"},{"name":"","type":"address","internalType":"address"}],"outputs":[{"name":"","type":"uint256","internalType":"uint256"}],"stateMutability":"view"},{"type":"function","name":"approve","inputs":[{"name":"spender","type":"address","internalType":"address"},{"name":"amount","type":"uint256","internalType":"uint256"}],"outputs":[{"name":"","type":"bool","internalType":"bool"}],"stateMutability":"nonpayable"},{"type":"function","name":"balanceOf","inputs":[{"name":"","type":"address","internalType":"address"}],"outputs":[{"name":"","type":"uint256","internalType":"uint256"}],"stateMutability":"view"},{"type":"function","name":"burn","inputs":[{"name":"amount","type":"uint256","internalType":"uint256"}],"outputs":[],"stateMutability":"nonpayable"},{"type":"function","name":"burnFrom","inputs":[{"name":"from","type":"address","internalType":"address"},{"name":"amount","type":"uint256","internalType":"uint256"}],"outputs":[],"stateMutability":"nonpayable"},{"type":"function","name":"decimals","inputs":[],"outputs":[{"name":"","type":"uint8","internalType":"uint8"}],"stateMutability":"view"},{"type":"function","name":"isBurner","inputs":[{"name":"","type":"address","internalType":"address"}],"outputs":[{"name":"","type":"bool","internalType":"bool"}],"stateMutability":"view"},{"type":"function","name":"isMinter","inputs":[{"name":"","type":"address","internalType":"address"}],"outputs":[{"name":"","type":"bool","internalType":"bool"}],"stateMutability":"view"},{"type":"function","name":"mint","inputs":[{"name":"to","type":"address","internalType":"address"},{"name":"amount","type":"uint256","internalType":"uint256"}],"outputs":[],"stateMutability":"nonpayable"},{"type":"function","name":"name","inputs":[],"outputs":[{"name":"","type":"string","internalType":"string"}],"stateMutability":"view"},{"type":"function","name":"setBurner","inputs":[{"name":"account","type":"address","internalType":"address"},{"name":"status","type":"bool","internalType":"bool"}],"outputs":[],"stateMutability":"nonpayable"},{"type":"function","name":"setMinter","inputs":[{"name":"account","type":"address","internalType":"address"},{"name":"status","type":"bool","internalType":"bool"}],"outputs":[],"stateMutability":"nonpayable"},{"type":"function","name":"symbol","inputs":[],"outputs":[{"name":"","type":"string","internalType":"string"}],"stateMutability":"view"},{"type":"function","name":"totalSupply","inputs":[],"outputs":[{"name":"","type":"uint256","internalType":"uint256"}],"stateMutability":"view"},{"type":"function","name":"transfer","inputs":[{"name":"to","type":"address","internalType":"address"},{"name":"amount","type":"uint256","internalType":"uint256"}],"outputs":[{"name":"","type":"bool","internalType":"bool"}],"stateMutability":"nonpayable"},{"type":"function","name":"transferAdmin","inputs":[{"name":"newAdmin","type":"address","internalType":"address"}],"outputs":[],"stateMutability":"nonpayable"},{"type":"function","name":"transferFrom","inputs":[{"name":"from","type":"address","internalType":"address"},{"name":"to","type":"address","internalType":"address"},{"name":"amount","type":"uint256","internalType":"uint256"}],"outputs":[{"name":"","type":"bool","internalType":"bool"}],"stateMutability":"nonpayable"},{"type":"event","name":"AdminTransferred","inputs":[{"name":"oldAdmin","type":"address","indexed":true,"internalType":"address"},{"name":"newAdmin","type":"address","indexed":true,"internalType":"address"}],"anonymous":false},{"type":"event","name":"Approval","inputs":[{"name":"owner","type":"address","indexed":true,"internalType":"address"},{"name":"spender","type":"address","indexed":true,"internalType":"address"},{"name":"value","type":"uint256","indexed":false,"internalType":"uint256"}],"anonymous":false},{"type":"event","name":"BurnerSet","inputs":[{"name":"account","type":"address","indexed":true,"internalType":"address"},{"name":"status","type":"bool","indexed":false,"internalType":"bool"}],"anonymous":false},{"type":"event","name":"MinterSet","inputs":[{"name":"account","type":"address","indexed":true,"internalType":"address"},{"name":"status","type":"bool","indexed":false,"internalType":"bool"}],"anonymous":false},{"type":"event","name":"Transfer","inputs":[{"name":"from","type":"address","indexed":true,"internalType":"address"},{"name":"to","type":"address","indexed":true,"internalType":"address"},{"name":"value","type":"uint256","indexed":false,"internalType":"uint256"}],"anonymous":false}],"bytecode":{"object":"0x60803460b257601f610d8f38819003918201601f19168301916001600160401b0383118484101760b65780849260209460405283398101031260b257516001600160a01b0381169081900360b25760016006558015607a57600380546001600160a01b031916919091179055604051610cc490816100cb8239f35b60405162461bcd60e51b815260206004820152601060248201526f33aaa9a21d103d32b9379030b236b4b760811b6044820152606490fd5b5f80fd5b634e487b7160e01b5f52604160045260245ffdfe60806040526004361015610011575f80fd5b5f3560e01c806306fdde0314610992578063095ea7b3146108db5780630d895ee11461085e57806318160ddd1461084257806323b872dd1461072e578063313ce5671461071357806340c10f19146105fc57806342966c681461056b5780634334614a1461052e57806370a08231146104f657806375829def1461047957806379cc67901461033f57806395d89b41146102d8578063a9059cbb14610220578063aa271e1a146101e3578063cf456ae71461015b578063dd62ed3e1461010b5763f851a440146100df575f80fd5b34610107575f366003190112610107576003546040516001600160a01b039091168152602090f35b5f80fd5b3461010757604036600319011261010757610124610a11565b61012c610a27565b6001600160a01b039182165f908152600260209081526040808320949093168252928352819020549051908152f35b346101075760207f583b0aa0e528532caf4b907c11d7a8158a122fe2a6fb80cd9b09776ebea8d92d61018c36610a3d565b92906101a360018060a01b03600354163314610a6c565b6001600160a01b0316926101b8841515610aaa565b835f52600482526101d88160405f209060ff801983541691151516179055565b6040519015158152a2005b34610107576020366003190112610107576001600160a01b03610204610a11565b165f526004602052602060ff60405f2054166040519015158152f35b3461010757604036600319011261010757610239610a11565b6024359061024b600160065414610aeb565b60026006556001600160a01b031690610265821515610b23565b335f52600160205261027d8160405f20541015610bd5565b335f52600160205260405f20610294828254610bb4565b9055815f52600160205260405f206102ad828254610c21565b90556040519081525f516020610c6f5f395f51905f5260203392a36001600655602060405160018152f35b34610107575f36600319011261010757604051604081019080821067ffffffffffffffff83111761032b5761032791604052600481526319d554d160e21b6020820152604051918291826109e7565b0390f35b634e487b7160e01b5f52604160045260245ffd5b3461010757604036600319011261010757610358610a11565b602435610369600160065414610aeb565b6002600655335f52600560205260ff60405f20541615610441575f516020610c6f5f395f51905f5260205f936103a0841515610c2e565b6001600160a01b031692338490036103fd575b838552600182526103ca8160408720541015610bd5565b83855260018252604085206103e0828254610bb4565b90556103ed818654610bb4565b8555604051908152a36001600655005b838552600282526040808620338752835285205461042890829061042382821015610b68565b610bb4565b84865260028352604080872033885284528620556103b3565b60405162461bcd60e51b815260206004820152601060248201526f33aaa9a21d103737ba10313ab93732b960811b6044820152606490fd5b3461010757602036600319011261010757610492610a11565b6003546001600160a01b038116916104ab338414610a6c565b6001600160a01b03169182906104c2821515610aaa565b7ff8ccb027dfcd135e000e9d45e6cc2d662578a8825d4c45b5e32e0adf67e79ec65f80a36001600160a01b03191617600355005b34610107576020366003190112610107576001600160a01b03610517610a11565b165f526001602052602060405f2054604051908152f35b34610107576020366003190112610107576001600160a01b0361054f610a11565b165f526005602052602060ff60405f2054166040519015158152f35b34610107576020366003190112610107575f60043561058e600160065414610aeb565b600260065561059e811515610c2e565b33825260016020526105b68160408420541015610bd5565b3382526001602052604082206105cd828254610bb4565b90556105da818354610bb4565b82556040519081525f516020610c6f5f395f51905f5260203392a36001600655005b3461010757604036600319011261010757610615610a11565b60243590610627600160065414610aeb565b6002600655335f52600460205260ff60405f205416156106db576001600160a01b03169081156106a1575f516020610c6f5f395f51905f5260208261066e5f941515610c2e565b610679818554610c21565b84558484526001825260408420610691828254610c21565b9055604051908152a36001600655005b60405162461bcd60e51b8152602060048201526012602482015271675553443a206d696e7420746f207a65726f60701b6044820152606490fd5b60405162461bcd60e51b815260206004820152601060248201526f33aaa9a21d103737ba1036b4b73a32b960811b6044820152606490fd5b34610107575f36600319011261010757602060405160128152f35b3461010757606036600319011261010757610747610a11565b61074f610a27565b5f516020610c6f5f395f51905f52602060443592610771600160065414610aeb565b60026006556001600160a01b03169361078b851515610b23565b6001600160a01b03165f81815260028352604080822033835284529020549093908160018201610816575b5050835f52600182526107cf8160405f20541015610bd5565b835f526001825260405f206107e5828254610bb4565b9055845f526001825260405f206107fd828254610c21565b9055604051908152a36001600655602060405160018152f35b8161042382610826941015610b68565b5f858152600284526040808220338352855290205585816107b6565b34610107575f3660031901126101075760205f54604051908152f35b346101075760207fd28dc1379d750c7c8137c7ef7b074f62f1361b9becc7f9d77d8c0d6e46a3cd0661088f36610a3d565b92906108a660018060a01b03600354163314610a6c565b6001600160a01b0316926108bb841515610aaa565b835f52600582526101d88160405f209060ff801983541691151516179055565b34610107576040366003190112610107576108f4610a11565b6001600160a01b0316602435811561095557335f52600260205260405f20825f526020528060405f20556040519081527f8c5be1e5ebec7d5bd14f71427d1e84f3dd0314c0f7b2291e5b200ac8c7c3b92560203392a3602060405160018152f35b60405162461bcd60e51b8152602060048201526015602482015274675553443a20617070726f766520746f207a65726f60581b6044820152606490fd5b34610107575f36600319011261010757604051604081019080821067ffffffffffffffff83111761032b5761032791604052600e81526d11dbdbd9111bdb1b185c881554d160921b6020820152604051918291825b602060409281835280519182918282860152018484015e5f828201840152601f01601f1916010190565b600435906001600160a01b038216820361010757565b602435906001600160a01b038216820361010757565b6040906003190112610107576004356001600160a01b0381168103610107579060243580151581036101075790565b15610a7357565b60405162461bcd60e51b815260206004820152600f60248201526e33aaa9a21d103737ba1030b236b4b760891b6044820152606490fd5b15610ab157565b60405162461bcd60e51b8152602060048201526012602482015271675553443a207a65726f206164647265737360701b6044820152606490fd5b15610af257565b60405162461bcd60e51b81526020600482015260096024820152681499595b9d1c985b9d60ba1b6044820152606490fd5b15610b2a57565b60405162461bcd60e51b8152602060048201526016602482015275675553443a207472616e7366657220746f207a65726f60501b6044820152606490fd5b15610b6f57565b60405162461bcd60e51b815260206004820152601c60248201527f675553443a20696e73756666696369656e7420616c6c6f77616e6365000000006044820152606490fd5b91908203918211610bc157565b634e487b7160e01b5f52601160045260245ffd5b15610bdc57565b60405162461bcd60e51b815260206004820152601a60248201527f675553443a20696e73756666696369656e742062616c616e63650000000000006044820152606490fd5b91908201809211610bc157565b15610c3557565b60405162461bcd60e51b815260206004820152601160248201527019d554d10e881e995c9bc8185b5bdd5b9d607a1b6044820152606490fdfeddf252ad1be2c89b69c2b068fc378daa952ba7f163c4a11628f55a4df523b3efa2646970667358221220e79c92e8d7660b32f12d6dc8ff1611938f3e59445fe450e329c74295f47f302364736f6c63430008210033","linkReferences":{}},"methodIdentifiers":{"admin()":"f851a440","allowance(address,address)":"dd62ed3e","approve(address,uint256)":"095ea7b3","balanceOf(address)":"70a08231","burn(uint256)":"42966c68","burnFrom(address,uint256)":"79cc6790","decimals()":"313ce567","isBurner(address)":"4334614a","isMinter(address)":"aa271e1a","mint(address,uint256)":"40c10f19","name()":"06fdde03","setBurner(address,bool)":"0d895ee1","setMinter(address,bool)":"cf456ae7","symbol()":"95d89b41","totalSupply()":"18160ddd","transfer(address,uint256)":"a9059cbb","transferAdmin(address)":"75829def","transferFrom(address,address,uint256)":"23b872dd"},"id":50}