{"abi":[{"type":"constructor","inputs":[{"name":"_bondToken","type":"address","internalType":"address"},{"name":"_marketFactory","type":"address","internalType":"address"},{"name":"_feeSplitter","type":"address","internalType":"address"},{"name":"_admin","type":"address","internalType":"address"}],"stateMutability":"nonpayable"},{"type":"function","name":"admin","inputs":[],"outputs":[{"name":"","type":"address","internalType":"address"}],"stateMutability":"view"},{"type":"function","name":"adminResolveDispute","inputs":[{"name":"marketId","type":"uint256","internalType":"uint256"},{"name":"yesWon","type":"bool","internalType":"bool"}],"outputs":[],"stateMutability":"nonpayable"},{"type":"function","name":"bondAmount","inputs":[],"outputs":[{"name":"","type":"uint256","internalType":"uint256"}],"stateMutability":"view"},{"type":"function","name":"bondToken","inputs":[],"outputs":[{"name":"","type":"address","internalType":"contract IResolutionToken"}],"stateMutability":"view"},{"type":"function","name":"committee","inputs":[{"name":"","type":"uint256","internalType":"uint256"}],"outputs":[{"name":"","type":"address","internalType":"address"}],"stateMutability":"view"},{"type":"function","name":"disputeResolution","inputs":[{"name":"marketId","type":"uint256","internalType":"uint256"}],"outputs":[],"stateMutability":"nonpayable"},{"type":"function","name":"disputeTimeRemaining","inputs":[{"name":"marketId","type":"uint256","internalType":"uint256"}],"outputs":[{"name":"","type":"uint256","internalType":"uint256"}],"stateMutability":"view"},{"type":"function","name":"disputeWindow","inputs":[],"outputs":[{"name":"","type":"uint256","internalType":"uint256"}],"stateMutability":"view"},{"type":"function","name":"emergencyResolve","inputs":[{"name":"marketId","type":"uint256","internalType":"uint256"},{"name":"yesWon","type":"bool","internalType":"bool"}],"outputs":[],"stateMutability":"nonpayable"},{"type":"function","name":"feeSplitter","inputs":[],"outputs":[{"name":"","type":"address","internalType":"address"}],"stateMutability":"view"},{"type":"function","name":"finalizeResolution","inputs":[{"name":"marketId","type":"uint256","internalType":"uint256"}],"outputs":[],"stateMutability":"nonpayable"},{"type":"function","name":"getFinalOutcome","inputs":[{"name":"marketId","type":"uint256","internalType":"uint256"}],"outputs":[{"name":"","type":"bool","internalType":"bool"}],"stateMutability":"view"},{"type":"function","name":"getResolution","inputs":[{"name":"marketId","type":"uint256","internalType":"uint256"}],"outputs":[{"name":"","type":"tuple","internalType":"struct OptimisticResolver.Resolution","components":[{"name":"marketId","type":"uint256","internalType":"uint256"},{"name":"proposedOutcome","type":"bool","internalType":"bool"},{"name":"proposer","type":"address","internalType":"address"},{"name":"proposerBond","type":"uint256","internalType":"uint256"},{"name":"proposalTime","type":"uint256","internalType":"uint256"},{"name":"isDisputed","type":"bool","internalType":"bool"},{"name":"disputer","type":"address","internalType":"address"},{"name":"disputerBond","type":"uint256","internalType":"uint256"},{"name":"disputeTime","type":"uint256","internalType":"uint256"},{"name":"status","type":"uint8","internalType":"enum OptimisticResolver.ResolutionStatus"},{"name":"finalOutcome","type":"bool","internalType":"bool"},{"name":"finalizedTime","type":"uint256","internalType":"uint256"}]}],"stateMutability":"view"},{"type":"function","name":"isFinalized","inputs":[{"name":"marketId","type":"uint256","internalType":"uint256"}],"outputs":[{"name":"","type":"bool","internalType":"bool"}],"stateMutability":"view"},{"type":"function","name":"marketFactory","inputs":[],"outputs":[{"name":"","type":"address","internalType":"contract IMarketFactory"}],"stateMutability":"view"},{"type":"function","name":"proposeResolution","inputs":[{"name":"marketId","type":"uint256","internalType":"uint256"},{"name":"yesWon","type":"bool","internalType":"bool"}],"outputs":[],"stateMutability":"nonpayable"},{"type":"function","name":"requestResolution","inputs":[{"name":"marketId","type":"uint256","internalType":"uint256"}],"outputs":[],"stateMutability":"nonpayable"},{"type":"function","name":"resolutionRequested","inputs":[{"name":"","type":"uint256","internalType":"uint256"}],"outputs":[{"name":"","type":"bool","internalType":"bool"}],"stateMutability":"view"},{"type":"function","name":"resolutions","inputs":[{"name":"","type":"uint256","internalType":"uint256"}],"outputs":[{"name":"marketId","type":"uint256","internalType":"uint256"},{"name":"proposedOutcome","type":"bool","internalType":"bool"},{"name":"proposer","type":"address","internalType":"address"},{"name":"proposerBond","type":"uint256","internalType":"uint256"},{"name":"proposalTime","type":"uint256","internalType":"uint256"},{"name":"isDisputed","type":"bool","internalType":"bool"},{"name":"disputer","type":"address","internalType":"address"},{"name":"disputerBond","type":"uint256","internalType":"uint256"},{"name":"disputeTime","type":"uint256","internalType":"uint256"},{"name":"status","type":"uint8","internalType":"enum OptimisticResolver.ResolutionStatus"},{"name":"finalOutcome","type":"bool","internalType":"bool"},{"name":"finalizedTime","type":"uint256","internalType":"uint256"}],"stateMutability":"view"},{"type":"function","name":"setAdmin","inputs":[{"name":"_admin","type":"address","internalType":"address"}],"outputs":[],"stateMutability":"nonpayable"},{"type":"function","name":"setBondAmount","inputs":[{"name":"_bondAmount","type":"uint256","internalType":"uint256"}],"outputs":[],"stateMutability":"nonpayable"},{"type":"function","name":"setCommittee","inputs":[{"name":"_committee","type":"address[]","internalType":"address[]"}],"outputs":[],"stateMutability":"nonpayable"},{"type":"function","name":"setDisputeWindow","inputs":[{"name":"_disputeWindow","type":"uint256","internalType":"uint256"}],"outputs":[],"stateMutability":"nonpayable"},{"type":"event","name":"BondAmountUpdated","inputs":[{"name":"oldAmount","type":"uint256","indexed":false,"internalType":"uint256"},{"name":"newAmount","type":"uint256","indexed":false,"internalType":"uint256"}],"anonymous":false},{"type":"event","name":"BondSlashed","inputs":[{"name":"marketId","type":"uint256","indexed":true,"internalType":"uint256"},{"name":"loser","type":"address","indexed":false,"internalType":"address"},{"name":"winner","type":"address","indexed":false,"internalType":"address"},{"name":"winnerShare","type":"uint256","indexed":false,"internalType":"uint256"},{"name":"ubiShare","type":"uint256","indexed":false,"internalType":"uint256"}],"anonymous":false},{"type":"event","name":"DisputeWindowUpdated","inputs":[{"name":"oldWindow","type":"uint256","indexed":false,"internalType":"uint256"},{"name":"newWindow","type":"uint256","indexed":false,"internalType":"uint256"}],"anonymous":false},{"type":"event","name":"ResolutionDisputed","inputs":[{"name":"marketId","type":"uint256","indexed":true,"internalType":"uint256"},{"name":"disputer","type":"address","indexed":true,"internalType":"address"},{"name":"bond","type":"uint256","indexed":false,"internalType":"uint256"}],"anonymous":false},{"type":"event","name":"ResolutionFinalized","inputs":[{"name":"marketId","type":"uint256","indexed":true,"internalType":"uint256"},{"name":"outcome","type":"bool","indexed":false,"internalType":"bool"},{"name":"wasDisputed","type":"bool","indexed":false,"internalType":"bool"}],"anonymous":false},{"type":"event","name":"ResolutionProposed","inputs":[{"name":"marketId","type":"uint256","indexed":true,"internalType":"uint256"},{"name":"proposer","type":"address","indexed":true,"internalType":"address"},{"name":"proposedOutcome","type":"bool","indexed":false,"internalType":"bool"},{"name":"bond","type":"uint256","indexed":false,"internalType":"uint256"},{"name":"disputeDeadline","type":"uint256","indexed":false,"internalType":"uint256"}],"anonymous":false},{"type":"error","name":"AlreadyDisputed","inputs":[{"name":"marketId","type":"uint256","internalType":"uint256"}]},{"type":"error","name":"AlreadyFinalized","inputs":[{"name":"marketId","type":"uint256","internalType":"uint256"}]},{"type":"error","name":"AlreadyProposed","inputs":[{"name":"marketId","type":"uint256","internalType":"uint256"}]},{"type":"error","name":"CannotDisputeOwnProposal","inputs":[]},{"type":"error","name":"DisputeWindowClosed","inputs":[{"name":"marketId","type":"uint256","internalType":"uint256"}]},{"type":"error","name":"DisputeWindowOpen","inputs":[{"name":"marketId","type":"uint256","internalType":"uint256"},{"name":"remaining","type":"uint256","internalType":"uint256"}]},{"type":"error","name":"NotAdmin","inputs":[]},{"type":"error","name":"NotMarketFactory","inputs":[]},{"type":"error","name":"NotProposed","inputs":[{"name":"marketId","type":"uint256","internalType":"uint256"}]},{"type":"error","name":"NotResolutionRequested","inputs":[{"name":"marketId","type":"uint256","internalType":"uint256"}]},{"type":"error","name":"TransferFailed","inputs":[]},{"type":"error","name":"ZeroAddress","inputs":[]}],"bytecode":{"object":"0x60e03461016457601f611a7038819003918201601f19168301916001600160401b0383118484101761016857808492608094604052833981010312610164576100478161017c565b906100546020820161017c565b9161006d60606100666040850161017c565b930161017c565b683635c9adc5dea00000600255620151806003556001600160a01b03909116928315610155576001600160a01b0316908115610155576001600160a01b03831615610155576001600160a01b03169283156101555760805260a05260c0525f80546001600160a01b0319169190911790556040516118df908161019182396080518181816102250152818161045501528181610a8801528181610e17015281816110c00152818161137c015261142a015260a05181818161026f01528181610bc30152818161127d0152818161159d0152611766015260c051818181610b2a015261155a0152f35b63d92e233d60e01b5f5260045ffd5b5f80fd5b634e487b7160e01b5f52604160045260245ffd5b51906001600160a01b03821682036101645756fe6080806040526004361015610012575f80fd5b5f905f3560e01c90816306ae70951461175457508063117f5f921461173757806328f9f3e6146116da578063332226d01461167d57806333727c4d146116405780633a3c7b3114611611578063416a4f19146115895780636052970c146115455780636877cc411461151f578063704b6c02146114c35780637b5cafec146111fe57806380f323a7146111e05780638c535cf81461100d57806392a927a614610f6b578063a4b7f5ce14610ea2578063afe7fcf414610e46578063c28f439214610e01578063d09dc22b146109a4578063d565a533146107d8578063e08b14ed1461068e578063e0a2055e146103db578063f5489b7e146101445763f851a4401461011b575f80fd5b34610141578060031936011261014157546040516001600160a01b039091168152602090f35b80fd5b503461014157602036600319011261014157600435808252600460205260408220600781019060ff82541660048110156103c7576001036103b35760ff60048201541661039f5761019c6003820154600354906117c1565b80421061037d5750602061022091600360ff198554161784556002600182016101dc60ff825416879061ff00825491151560081b169061ff001916179055565b426008848101919091559054919092015460405163a9059cbb60e01b81529190921c6001600160a01b03166004820152602481019190915291829081906044820190565b0381877f00000000000000000000000000000000000000000000000000000000000000006001600160a01b03165af1908115610372578491610343575b5015610334578054839060081c60ff167f00000000000000000000000000000000000000000000000000000000000000006001600160a01b0316803b15610325576040516352a34b0560e01b815260048101869052911515602483015282908290604490829084905af1801561032957610310575b5050604060ff7fd915a7fdfe33fe83973299cbc2c22a3b4f9f820e9922ba44a2ef4ebb2eb51390925460081c1681519015158152846020820152a280f35b8161031a9161186f565b61032557825f6102d2565b8280fd5b6040513d84823e3d90fd5b6312171d8360e31b8352600483fd5b610365915060203d60201161036b575b61035d818361186f565b810190611891565b5f61025d565b503d610353565b6040513d86823e3d90fd5b848461038c60449342906117e2565b906399bb138d60e01b8352600452602452fd5b63981e7f1f60e01b84526004839052602484fd5b630d487f7b60e11b84526004839052602484fd5b634e487b7160e01b85526021600452602485fd5b5034610141576103ea36611795565b90808352600560205260ff6040842054161561067c57808352600460205260ff600760408520015416600481101561066857610656576002546040516323b872dd60e01b81523360048201523060248201526044810191909152602081606481876001600160a01b037f0000000000000000000000000000000000000000000000000000000000000000165af1908115610372578491610637575b50156103345760025491836040519161049d8361183e565b83835260208301901515948582526040840190338252606085019081526080850142815260a0860185815260c0870186815260e08801928784526101008901948886526101208a0197600189526101408b01978a89526101608c019a808c528d81526004602052604090209b518c5560018c019151151561052a90839060ff801983541691151516179055565b518154610100600160a81b03191660089190911b610100600160a81b03161790555160028a0155516003890155600488019151151561057590839060ff801983541691151516179055565b518154610100600160a81b03191660089190911b610100600160a81b03161790555160058601555160068501556007840191516004811015610623578254915161ffff1990921660ff90911617901515600890811b61ff00169190911790915590519101556002546105e9600354426117c1565b90604051938452602084015260408301527fec2fa01cf5411c15f0591e3d53250739c2a93f7fead8acfc7331349497f2ff2260603393a380f35b634e487b7160e01b88526021600452602488fd5b610650915060203d60201161036b5761035d818361186f565b5f610485565b6320adc8b760e11b8352600452602482fd5b634e487b7160e01b84526021600452602484fd5b63a3db5bdf60e01b8352600452602482fd5b50346101415760203660031901126101415760043567ffffffffffffffff81116107d457366023820112156107d45780600401359067ffffffffffffffff8211610325573660248360051b830101116103255782546001600160a01b031633036107c5576801000000000000000082116107b157816001548160015580821061076f575b50506024019082915b818310610726578380f35b8035926001600160a01b038416840361076b5760206001920193817fb10e2d527612073b26eecdfd717e6a320cf44b4afac2b0732d9fcbe2b7fa0cf60155019161071b565b8480fd5b03835b81811061078157839150610712565b80857fb10e2d527612073b26eecdfd717e6a320cf44b4afac2b0732d9fcbe2b7fa0cf66001938701015501610772565b634e487b7160e01b83526041600452602483fd5b637bfa4b9f60e01b8352600483fd5b5080fd5b503461014157602036600319011261014157806101606040516107fa8161183e565b8281528260208201528260408201528260608201528260808201528260a08201528260c08201528260e082015282610100820152826101208201528261014082015201526004358152600460205260408120604051906108598261183e565b80548252600181015490602083019160ff811615158352604084019060018060a01b039060081c16815260028201546060850190815260038301546080860190815260048401549060a087019060ff83161515825260c088019260018060a01b039060081c16835260058601549360e089019485526006870154956101008a0196875260078801549760ff89166101208c019c600482101561099057508c52600898891c60ff1615156101408c019081529801546101608b01908152604080519b518c529951151560208c015290516001600160a01b03908116998b0199909952905160608a0152905160808901529051151560a0880152905190941660c08601525160e0850152516101008401529251610180939061097e906101208501906117b4565b51151561014083015251610160820152f35b634e487b7160e01b81526021600452602490fd5b5034610141576109b336611795565b82546001600160a01b031633036107c557818352600460205260408320906007820160ff8154166004811015610ded57600203610dd957805461ffff191682151560081b61ff00161760031790554260088301556001820154811515929060ff8116151584148015610dc257600882901c6001600160a01b0316915b8115610db05750600483015460081c6001600160a01b0316925b8115610da5576005810154915b15610d9b5760020154915b60405163a9059cbb60e01b81526001600160a01b03828116600483015260248201949094527f0000000000000000000000000000000000000000000000000000000000000000909316926020816044818c885af1908115610d0a578991610d7c575b5015610d6d57610ad78260011c80936117e2565b60405163a9059cbb60e01b81526001600160a01b0383166004820152602481018490529093906020816044818d865af1908115610d43578a91610d4e575b5015610d155760405163095ea7b360e01b81527f00000000000000000000000000000000000000000000000000000000000000006001600160a01b03811660048301526024820186905291602090829060449082908e905af1908115610d43578a91610d24575b5015610d15576040516364d6def960e01b81526004810185905230602482015290606090829060449082908d906001600160a01b03165af18015610d0a57610cdb575b50877f00000000000000000000000000000000000000000000000000000000000000006001600160a01b0316803b156107d4576040516352a34b0560e01b8152600481018a9052961515602488015281908790604490829084905af1958615610cce578896610cab575b50507fd915a7fdfe33fe83973299cbc2c22a3b4f9f820e9922ba44a2ef4ebb2eb513909593604095937f9559fbe5570cd2982480d3e2ba73a67744e489148ee8b109cec45323972b0de99360809388519360018060a01b0316845260018060a01b03166020840152878301526060820152a2815190815260016020820152a280f35b81929795965090610cbb9161186f565b610cca5785939294875f610c29565b8680fd5b50604051903d90823e3d90fd5b606090813d8311610d03575b610cf1818361186f565b81010312610cff575f610bbf565b8780fd5b503d610ce7565b6040513d8b823e3d90fd5b6312171d8360e31b8952600489fd5b610d3d915060203d60201161036b5761035d818361186f565b5f610b7c565b6040513d8c823e3d90fd5b610d67915060203d60201161036b5761035d818361186f565b5f610b15565b6312171d8360e31b8852600488fd5b610d95915060203d60201161036b5761035d818361186f565b5f610ac3565b6005015491610a61565b600281015491610a56565b60081c6001600160a01b031692610a49565b600483015460081c6001600160a01b031691610a2f565b630d487f7b60e11b85526004849052602485fd5b634e487b7160e01b86526021600452602486fd5b50346101415780600319360112610141576040517f00000000000000000000000000000000000000000000000000000000000000006001600160a01b03168152602090f35b5034610141576020366003190112610141576004356001548110156107d45760019091527fb10e2d527612073b26eecdfd717e6a320cf44b4afac2b0732d9fcbe2b7fa0cf601546040516001600160a01b039091168152602090f35b503461014157602036600319011261014157604061018091600435815260046020522080549060ff6001820154916002810154600382015460048301546005840154916006850154936008600787015496015497604051998a52878116151560208b015260018060a01b039060081c1660408a015260608901526080880152848116151560a088015260018060a01b039060081c1660c087015260e0860152610100850152610f5761012085018383166117b4565b60081c161515610140830152610160820152f35b503461014157602036600319011261014157600435808252600460205260ff6007604084200154166004811015610ff957600303610fc457600760408360ff93602095526004855220015460081c166040519015158152f35b60405162461bcd60e51b815260206004820152600d60248201526c1b9bdd08199a5b985b1a5e9959609a1b6044820152606490fd5b634e487b7160e01b83526021600452602483fd5b503461014157602036600319011261014157600435808252600460205260408220906007820160ff81541660048110156103c7576001036111cc57600483019260ff8454166111b8576110676003820154600354906117c1565b42116111a45760018101543360089190911c6001600160a01b0316146111955760028101546040516323b872dd60e01b8152336004820152306024820152604481018290529094906020816064818a6001600160a01b037f0000000000000000000000000000000000000000000000000000000000000000165af190811561118a57879161116b575b501561115c5780546001600160a81b0319163360081b610100600160a81b0316176001179055836005820155600642910155600260ff198254161790556040519182527fa0950096f857303fe1784282d8fae72ba187c45f4243c57f82b99df66b61787d60203393a380f35b6312171d8360e31b8652600486fd5b611184915060203d60201161036b5761035d818361186f565b5f6110f0565b6040513d89823e3d90fd5b6344090c5f60e01b8552600485fd5b630fff5b3f60e31b85526004839052602485fd5b63981e7f1f60e01b85526004839052602485fd5b630d487f7b60e11b84526004829052602484fd5b50346101415780600319360112610141576020600254604051908152f35b50346113385761120d36611795565b5f546001600160a01b031633036114b457815f52600460205260405f206007810160ff81541660048110156114a05760031461148d576002820154806113ef575b508260058301548061133c575b50815461ffff191690151560081b61ff001617600317905542600891909101557f00000000000000000000000000000000000000000000000000000000000000006001600160a01b0316803b15611338576040516352a34b0560e01b8152600481018490528215156024820152905f908290604490829084905af1801561132d57611317575b5060407fd915a7fdfe33fe83973299cbc2c22a3b4f9f820e9922ba44a2ef4ebb2eb513909181519015158152846020820152a280f35b6113249193505f9061186f565b5f9160406112e1565b6040513d5f823e3d90fd5b5f80fd5b60048481015460405163a9059cbb60e01b815260089190911c6001600160a01b03169181019190915260248101919091529050602081806044810103815f7f00000000000000000000000000000000000000000000000000000000000000006001600160a01b03165af190811561132d575f916113d0575b50156113c157825f61125b565b6312171d8360e31b5f5260045ffd5b6113e9915060203d60201161036b5761035d818361186f565b5f6113b4565b600183015460405163a9059cbb60e01b815260089190911c6001600160a01b031660048201526024810191909152602081806044810103815f7f00000000000000000000000000000000000000000000000000000000000000006001600160a01b03165af190811561132d575f9161146e575b50156113c1575f61124e565b611487915060203d60201161036b5761035d818361186f565b5f611462565b8363f075432960e01b5f5260045260245ffd5b634e487b7160e01b5f52602160045260245ffd5b637bfa4b9f60e01b5f5260045ffd5b34611338576020366003190112611338576004356001600160a01b03811690819003611338575f546001600160a01b03811633036114b4578115611510576001600160a01b031916175f55005b63d92e233d60e01b5f5260045ffd5b3461133857602036600319011261133857602061153d6004356117ef565b604051908152f35b34611338575f366003190112611338576040517f00000000000000000000000000000000000000000000000000000000000000006001600160a01b03168152602090f35b3461133857602036600319011261133857337f00000000000000000000000000000000000000000000000000000000000000006001600160a01b03161415806115fd575b6115ee576004355f908152600560205260409020805460ff19166001179055005b638156372960e01b5f5260045ffd5b505f546001600160a01b03163314156115cd565b34611338576020366003190112611338576004355f526005602052602060ff60405f2054166040519015158152f35b34611338576020366003190112611338576004355f52600460205260ff600760405f2001541660048110156114a057602090600360405191148152f35b34611338576020366003190112611338575f54600435906001600160a01b031633036114b4577f96e0f610d197acd2144db3bb338fe8cdc5544b8b21a40a14334068ac60e2717260406003548151908152836020820152a1600355005b34611338576020366003190112611338575f54600435906001600160a01b031633036114b4577fbf97c636d2d01a3b53fbd8e0f8dafb46e5ea307183831761aa619933de86ad6f60406002548151908152836020820152a1600255005b34611338575f366003190112611338576020600354604051908152f35b34611338575f366003190112611338577f00000000000000000000000000000000000000000000000000000000000000006001600160a01b03168152602090f35b6040906003190112611338576004359060243580151581036113385790565b9060048210156114a05752565b919082018092116117ce57565b634e487b7160e01b5f52601160045260245ffd5b919082039182116117ce57565b5f52600460205260405f2060ff60078201541660048110156114a057600103611839576003611823910154600354906117c1565b80421015611839576118369042906117e2565b90565b505f90565b610180810190811067ffffffffffffffff82111761185b57604052565b634e487b7160e01b5f52604160045260245ffd5b90601f8019910116810190811067ffffffffffffffff82111761185b57604052565b9081602091031261133857518015158103611338579056fea2646970667358221220d0700d13617d7248c361f70a7d7f361169c2fb9954c128319f7e9e15b3c5819c64736f6c63430008210033","linkReferences":{}},"methodIdentifiers":{"admin()":"f851a440","adminResolveDispute(uint256,bool)":"d09dc22b","bondAmount()":"80f323a7","bondToken()":"c28f4392","committee(uint256)":"afe7fcf4","disputeResolution(uint256)":"8c535cf8","disputeTimeRemaining(uint256)":"6877cc41","disputeWindow()":"117f5f92","emergencyResolve(uint256,bool)":"7b5cafec","feeSplitter()":"6052970c","finalizeResolution(uint256)":"f5489b7e","getFinalOutcome(uint256)":"92a927a6","getResolution(uint256)":"d565a533","isFinalized(uint256)":"33727c4d","marketFactory()":"06ae7095","proposeResolution(uint256,bool)":"e0a2055e","requestResolution(uint256)":"416a4f19","resolutionRequested(uint256)":"3a3c7b31","resolutions(uint256)":"a4b7f5ce","setAdmin(address)":"704b6c02","setBondAmount(uint256)":"28f9f3e6","setCommittee(address[])":"e08b14ed","setDisputeWindow(uint256)":"332226d0"},"id":38}