{"abi":[{"type":"constructor","inputs":[{"name":"_bondToken","type":"address","internalType":"address"},{"name":"_marketFactory","type":"address","internalType":"address"},{"name":"_feeSplitter","type":"address","internalType":"address"},{"name":"_admin","type":"address","internalType":"address"}],"stateMutability":"nonpayable"},{"type":"function","name":"admin","inputs":[],"outputs":[{"name":"","type":"address","internalType":"address"}],"stateMutability":"view"},{"type":"function","name":"adminResolveDispute","inputs":[{"name":"marketId","type":"uint256","internalType":"uint256"},{"name":"yesWon","type":"bool","internalType":"bool"}],"outputs":[],"stateMutability":"nonpayable"},{"type":"function","name":"bondAmount","inputs":[],"outputs":[{"name":"","type":"uint256","internalType":"uint256"}],"stateMutability":"view"},{"type":"function","name":"bondToken","inputs":[],"outputs":[{"name":"","type":"address","internalType":"contract IResolutionToken"}],"stateMutability":"view"},{"type":"function","name":"committee","inputs":[{"name":"","type":"uint256","internalType":"uint256"}],"outputs":[{"name":"","type":"address","internalType":"address"}],"stateMutability":"view"},{"type":"function","name":"disputeResolution","inputs":[{"name":"marketId","type":"uint256","internalType":"uint256"}],"outputs":[],"stateMutability":"nonpayable"},{"type":"function","name":"disputeTimeRemaining","inputs":[{"name":"marketId","type":"uint256","internalType":"uint256"}],"outputs":[{"name":"","type":"uint256","internalType":"uint256"}],"stateMutability":"view"},{"type":"function","name":"disputeWindow","inputs":[],"outputs":[{"name":"","type":"uint256","internalType":"uint256"}],"stateMutability":"view"},{"type":"function","name":"emergencyResolve","inputs":[{"name":"marketId","type":"uint256","internalType":"uint256"},{"name":"yesWon","type":"bool","internalType":"bool"}],"outputs":[],"stateMutability":"nonpayable"},{"type":"function","name":"feeSplitter","inputs":[],"outputs":[{"name":"","type":"address","internalType":"address"}],"stateMutability":"view"},{"type":"function","name":"finalizeResolution","inputs":[{"name":"marketId","type":"uint256","internalType":"uint256"}],"outputs":[],"stateMutability":"nonpayable"},{"type":"function","name":"getFinalOutcome","inputs":[{"name":"marketId","type":"uint256","internalType":"uint256"}],"outputs":[{"name":"","type":"bool","internalType":"bool"}],"stateMutability":"view"},{"type":"function","name":"getResolution","inputs":[{"name":"marketId","type":"uint256","internalType":"uint256"}],"outputs":[{"name":"","type":"tuple","internalType":"struct OptimisticResolver.Resolution","components":[{"name":"marketId","type":"uint256","internalType":"uint256"},{"name":"proposedOutcome","type":"bool","internalType":"bool"},{"name":"proposer","type":"address","internalType":"address"},{"name":"proposerBond","type":"uint256","internalType":"uint256"},{"name":"proposalTime","type":"uint256","internalType":"uint256"},{"name":"isDisputed","type":"bool","internalType":"bool"},{"name":"disputer","type":"address","internalType":"address"},{"name":"disputerBond","type":"uint256","internalType":"uint256"},{"name":"disputeTime","type":"uint256","internalType":"uint256"},{"name":"status","type":"uint8","internalType":"enum OptimisticResolver.ResolutionStatus"},{"name":"finalOutcome","type":"bool","internalType":"bool"},{"name":"finalizedTime","type":"uint256","internalType":"uint256"}]}],"stateMutability":"view"},{"type":"function","name":"isFinalized","inputs":[{"name":"marketId","type":"uint256","internalType":"uint256"}],"outputs":[{"name":"","type":"bool","internalType":"bool"}],"stateMutability":"view"},{"type":"function","name":"marketFactory","inputs":[],"outputs":[{"name":"","type":"address","internalType":"contract IMarketFactory"}],"stateMutability":"view"},{"type":"function","name":"proposeResolution","inputs":[{"name":"marketId","type":"uint256","internalType":"uint256"},{"name":"yesWon","type":"bool","internalType":"bool"}],"outputs":[],"stateMutability":"nonpayable"},{"type":"function","name":"requestResolution","inputs":[{"name":"marketId","type":"uint256","internalType":"uint256"}],"outputs":[],"stateMutability":"nonpayable"},{"type":"function","name":"resolutionRequested","inputs":[{"name":"","type":"uint256","internalType":"uint256"}],"outputs":[{"name":"","type":"bool","internalType":"bool"}],"stateMutability":"view"},{"type":"function","name":"resolutions","inputs":[{"name":"","type":"uint256","internalType":"uint256"}],"outputs":[{"name":"marketId","type":"uint256","internalType":"uint256"},{"name":"proposedOutcome","type":"bool","internalType":"bool"},{"name":"proposer","type":"address","internalType":"address"},{"name":"proposerBond","type":"uint256","internalType":"uint256"},{"name":"proposalTime","type":"uint256","internalType":"uint256"},{"name":"isDisputed","type":"bool","internalType":"bool"},{"name":"disputer","type":"address","internalType":"address"},{"name":"disputerBond","type":"uint256","internalType":"uint256"},{"name":"disputeTime","type":"uint256","internalType":"uint256"},{"name":"status","type":"uint8","internalType":"enum OptimisticResolver.ResolutionStatus"},{"name":"finalOutcome","type":"bool","internalType":"bool"},{"name":"finalizedTime","type":"uint256","internalType":"uint256"}],"stateMutability":"view"},{"type":"function","name":"setAdmin","inputs":[{"name":"_admin","type":"address","internalType":"address"}],"outputs":[],"stateMutability":"nonpayable"},{"type":"function","name":"setBondAmount","inputs":[{"name":"_bondAmount","type":"uint256","internalType":"uint256"}],"outputs":[],"stateMutability":"nonpayable"},{"type":"function","name":"setCommittee","inputs":[{"name":"_committee","type":"address[]","internalType":"address[]"}],"outputs":[],"stateMutability":"nonpayable"},{"type":"function","name":"setDisputeWindow","inputs":[{"name":"_disputeWindow","type":"uint256","internalType":"uint256"}],"outputs":[],"stateMutability":"nonpayable"},{"type":"event","name":"BondAmountUpdated","inputs":[{"name":"oldAmount","type":"uint256","indexed":false,"internalType":"uint256"},{"name":"newAmount","type":"uint256","indexed":false,"internalType":"uint256"}],"anonymous":false},{"type":"event","name":"BondSlashed","inputs":[{"name":"marketId","type":"uint256","indexed":true,"internalType":"uint256"},{"name":"loser","type":"address","indexed":false,"internalType":"address"},{"name":"winner","type":"address","indexed":false,"internalType":"address"},{"name":"winnerShare","type":"uint256","indexed":false,"internalType":"uint256"},{"name":"ubiShare","type":"uint256","indexed":false,"internalType":"uint256"}],"anonymous":false},{"type":"event","name":"DisputeWindowUpdated","inputs":[{"name":"oldWindow","type":"uint256","indexed":false,"internalType":"uint256"},{"name":"newWindow","type":"uint256","indexed":false,"internalType":"uint256"}],"anonymous":false},{"type":"event","name":"ResolutionDisputed","inputs":[{"name":"marketId","type":"uint256","indexed":true,"internalType":"uint256"},{"name":"disputer","type":"address","indexed":true,"internalType":"address"},{"name":"bond","type":"uint256","indexed":false,"internalType":"uint256"}],"anonymous":false},{"type":"event","name":"ResolutionFinalized","inputs":[{"name":"marketId","type":"uint256","indexed":true,"internalType":"uint256"},{"name":"outcome","type":"bool","indexed":false,"internalType":"bool"},{"name":"wasDisputed","type":"bool","indexed":false,"internalType":"bool"}],"anonymous":false},{"type":"event","name":"ResolutionProposed","inputs":[{"name":"marketId","type":"uint256","indexed":true,"internalType":"uint256"},{"name":"proposer","type":"address","indexed":true,"internalType":"address"},{"name":"proposedOutcome","type":"bool","indexed":false,"internalType":"bool"},{"name":"bond","type":"uint256","indexed":false,"internalType":"uint256"},{"name":"disputeDeadline","type":"uint256","indexed":false,"internalType":"uint256"}],"anonymous":false},{"type":"error","name":"AlreadyDisputed","inputs":[{"name":"marketId","type":"uint256","internalType":"uint256"}]},{"type":"error","name":"AlreadyFinalized","inputs":[{"name":"marketId","type":"uint256","internalType":"uint256"}]},{"type":"error","name":"AlreadyProposed","inputs":[{"name":"marketId","type":"uint256","internalType":"uint256"}]},{"type":"error","name":"CannotDisputeOwnProposal","inputs":[]},{"type":"error","name":"DisputeWindowClosed","inputs":[{"name":"marketId","type":"uint256","internalType":"uint256"}]},{"type":"error","name":"DisputeWindowOpen","inputs":[{"name":"marketId","type":"uint256","internalType":"uint256"},{"name":"remaining","type":"uint256","internalType":"uint256"}]},{"type":"error","name":"NotAdmin","inputs":[]},{"type":"error","name":"NotMarketFactory","inputs":[]},{"type":"error","name":"NotProposed","inputs":[{"name":"marketId","type":"uint256","internalType":"uint256"}]},{"type":"error","name":"NotResolutionRequested","inputs":[{"name":"marketId","type":"uint256","internalType":"uint256"}]},{"type":"error","name":"Reentrant","inputs":[]},{"type":"error","name":"TransferFailed","inputs":[]},{"type":"error","name":"ZeroAddress","inputs":[]}],"bytecode":{"object":"0x60e03461016457601f611aed38819003918201601f19168301916001600160401b0383118484101761016857808492608094604052833981010312610164576100478161017c565b906100546020820161017c565b9161006d60606100666040850161017c565b930161017c565b683635c9adc5dea00000600255620151806003556001600160a01b03909116928315610155576001600160a01b0316908115610155576001600160a01b03831615610155576001600160a01b03169283156101555760805260a05260c0525f80546001600160a01b03191691909117905560405161195c908161019182396080518181816102310152818161048001528181610ad201528181610e650152818161111a015281816113ea0152611498015260a05181818161027b01528181610c0d015281816112e70152818161161a01526117e3015260c051818181610b7401526115d70152f35b63d92e233d60e01b5f5260045ffd5b5f80fd5b634e487b7160e01b5f52604160045260245ffd5b51906001600160a01b03821682036101645756fe6080806040526004361015610012575f80fd5b5f905f3560e01c90816306ae7095146117d157508063117f5f92146117b457806328f9f3e614611757578063332226d0146116fa57806333727c4d146116bd5780633a3c7b311461168e578063416a4f19146116065780636052970c146115c25780636877cc411461159c578063704b6c02146115405780637b5cafec1461125c57806380f323a71461123e5780638c535cf81461105b57806392a927a614610fb9578063a4b7f5ce14610ef0578063afe7fcf414610e94578063c28f439214610e4f578063d09dc22b146109e2578063d565a53314610816578063e08b14ed146106cc578063e0a2055e146103fa578063f5489b7e146101445763f851a4401461011b575f80fd5b34610141578060031936011261014157546040516001600160a01b039091168152602090f35b80fd5b5034610141576020366003190112610141576004356006546103eb576001600655808252600460205260408220600781019060ff82541660048110156103d7576001036103c35760ff6004820154166103af576101a860038201546003549061183e565b80421061038d5750602061022c91600360ff198554161784556002600182016101e860ff825416879061ff00825491151560081b169061ff001916179055565b426008848101919091559054919092015460405163a9059cbb60e01b81529190921c6001600160a01b03166004820152602481019190915291829081906044820190565b0381877f00000000000000000000000000000000000000000000000000000000000000006001600160a01b03165af1908115610382578491610353575b5015610344578054839060081c60ff167f00000000000000000000000000000000000000000000000000000000000000006001600160a01b0316803b15610335576040516352a34b0560e01b815260048101869052911515602483015282908290604490829084905af1801561033957610320575b5050604060ff7fd915a7fdfe33fe83973299cbc2c22a3b4f9f820e9922ba44a2ef4ebb2eb51390925460081c1681519015158152846020820152a28060065580f35b8161032a916118ec565b61033557825f6102de565b8280fd5b6040513d84823e3d90fd5b6312171d8360e31b8352600483fd5b610375915060203d60201161037b575b61036d81836118ec565b81019061190e565b5f610269565b503d610363565b6040513d86823e3d90fd5b848461039c604493429061185f565b906399bb138d60e01b8352600452602452fd5b63981e7f1f60e01b84526004839052602484fd5b630d487f7b60e11b84526004839052602484fd5b634e487b7160e01b85526021600452602485fd5b63769dd35360e11b8252600482fd5b50346101415761040936611812565b906006546106bd576001600655808352600560205260ff604084205416156106ab57808352600460205260ff600760408520015416600481101561069757610685576002546040516323b872dd60e01b81523360048201523060248201526044810191909152602081606481876001600160a01b037f0000000000000000000000000000000000000000000000000000000000000000165af1908115610382578491610666575b5015610344576002549183604051916104c8836118bb565b83835260208301901515948582526040840190338252606085019081526080850142815260a0860185815260c0870186815260e08801928784526101008901948886526101208a0197600189526101408b01978a89526101608c019a808c528d81526004602052604090209b518c5560018c019151151561055590839060ff801983541691151516179055565b518154610100600160a81b03191660089190911b610100600160a81b03161790555160028a015551600389015560048801915115156105a090839060ff801983541691151516179055565b518154610100600160a81b03191660089190911b610100600160a81b03161790555160058601555160068501556007840191516004811015610652578254915161ffff1990921660ff90911617901515600890811b61ff00169190911790915590519101556002546106146003544261183e565b90604051938452602084015260408301527fec2fa01cf5411c15f0591e3d53250739c2a93f7fead8acfc7331349497f2ff2260603393a38060065580f35b634e487b7160e01b88526021600452602488fd5b61067f915060203d60201161037b5761036d81836118ec565b5f6104b0565b6320adc8b760e11b8352600452602482fd5b634e487b7160e01b84526021600452602484fd5b63a3db5bdf60e01b8352600452602482fd5b63769dd35360e11b8352600483fd5b50346101415760203660031901126101415760043567ffffffffffffffff811161081257366023820112156108125780600401359067ffffffffffffffff8211610335573660248360051b830101116103355782546001600160a01b03163303610803576801000000000000000082116107ef5781600154816001558082106107ad575b50506024019082915b818310610764578380f35b8035926001600160a01b03841684036107a95760206001920193817fb10e2d527612073b26eecdfd717e6a320cf44b4afac2b0732d9fcbe2b7fa0cf601550191610759565b8480fd5b03835b8181106107bf57839150610750565b80857fb10e2d527612073b26eecdfd717e6a320cf44b4afac2b0732d9fcbe2b7fa0cf660019387010155016107b0565b634e487b7160e01b83526041600452602483fd5b637bfa4b9f60e01b8352600483fd5b5080fd5b50346101415760203660031901126101415780610160604051610838816118bb565b8281528260208201528260408201528260608201528260808201528260a08201528260c08201528260e08201528261010082015282610120820152826101408201520152600435815260046020526040812060405190610897826118bb565b80548252600181015490602083019160ff811615158352604084019060018060a01b039060081c16815260028201546060850190815260038301546080860190815260048401549060a087019060ff83161515825260c088019260018060a01b039060081c16835260058601549360e089019485526006870154956101008a0196875260078801549760ff89166101208c019c60048210156109ce57508c52600898891c60ff1615156101408c019081529801546101608b01908152604080519b518c529951151560208c015290516001600160a01b03908116998b0199909952905160608a0152905160808901529051151560a0880152905190941660c08601525160e085015251610100840152925161018093906109bc90610120850190611831565b51151561014083015251610160820152f35b634e487b7160e01b81526021600452602490fd5b5034610141576109f136611812565b82546001600160a01b03163303610803576006546106bd576001600655818352600460205260408320906007820160ff8154166004811015610e3b57600203610e2757805461ffff191682151560081b61ff00161760031790554260088301556001820154811515929060ff8116151584148015610e1057600882901c6001600160a01b0316915b8115610dfe5750600483015460081c6001600160a01b0316925b8115610df3576005810154915b15610de95760020154915b60405163a9059cbb60e01b81526001600160a01b03828116600483015260248201949094527f0000000000000000000000000000000000000000000000000000000000000000909316926020816044818c885af1908115610d58578991610dca575b5015610dbb57610b218260011c809361185f565b60405163a9059cbb60e01b81526001600160a01b0383166004820152602481018490529093906020816044818d865af1908115610d91578a91610d9c575b5015610d635760405163095ea7b360e01b81527f00000000000000000000000000000000000000000000000000000000000000006001600160a01b03811660048301526024820186905291602090829060449082908e905af1908115610d91578a91610d72575b5015610d63576040516364d6def960e01b81526004810185905230602482015290606090829060449082908d906001600160a01b03165af18015610d5857610d29575b50877f00000000000000000000000000000000000000000000000000000000000000006001600160a01b0316803b15610812576040516352a34b0560e01b8152600481018a9052961515602488015281908790604490829084905af1958615610d1c578896610cf9575b50507fd915a7fdfe33fe83973299cbc2c22a3b4f9f820e9922ba44a2ef4ebb2eb513909593604095937f9559fbe5570cd2982480d3e2ba73a67744e489148ee8b109cec45323972b0de99360809388519360018060a01b0316845260018060a01b03166020840152878301526060820152a2815190815260016020820152a28060065580f35b81929795965090610d09916118ec565b610d185785939294875f610c73565b8680fd5b50604051903d90823e3d90fd5b606090813d8311610d51575b610d3f81836118ec565b81010312610d4d575f610c09565b8780fd5b503d610d35565b6040513d8b823e3d90fd5b6312171d8360e31b8952600489fd5b610d8b915060203d60201161037b5761036d81836118ec565b5f610bc6565b6040513d8c823e3d90fd5b610db5915060203d60201161037b5761036d81836118ec565b5f610b5f565b6312171d8360e31b8852600488fd5b610de3915060203d60201161037b5761036d81836118ec565b5f610b0d565b6005015491610aab565b600281015491610aa0565b60081c6001600160a01b031692610a93565b600483015460081c6001600160a01b031691610a79565b630d487f7b60e11b85526004849052602485fd5b634e487b7160e01b86526021600452602486fd5b50346101415780600319360112610141576040517f00000000000000000000000000000000000000000000000000000000000000006001600160a01b03168152602090f35b5034610141576020366003190112610141576004356001548110156108125760019091527fb10e2d527612073b26eecdfd717e6a320cf44b4afac2b0732d9fcbe2b7fa0cf601546040516001600160a01b039091168152602090f35b503461014157602036600319011261014157604061018091600435815260046020522080549060ff6001820154916002810154600382015460048301546005840154916006850154936008600787015496015497604051998a52878116151560208b015260018060a01b039060081c1660408a015260608901526080880152848116151560a088015260018060a01b039060081c1660c087015260e0860152610100850152610fa56101208501838316611831565b60081c161515610140830152610160820152f35b503461014157602036600319011261014157600435808252600460205260ff60076040842001541660048110156110475760030361101257600760408360ff93602095526004855220015460081c166040519015158152f35b60405162461bcd60e51b815260206004820152600d60248201526c1b9bdd08199a5b985b1a5e9959609a1b6044820152606490fd5b634e487b7160e01b83526021600452602483fd5b5034610141576020366003190112610141576004356006546103eb576001600655808252600460205260408220906007820160ff81541660048110156103d75760010361122a57600483019260ff845416611216576110c160038201546003549061183e565b42116112025760018101543360089190911c6001600160a01b0316146111f35760028101546040516323b872dd60e01b8152336004820152306024820152604481018290529094906020816064818a6001600160a01b037f0000000000000000000000000000000000000000000000000000000000000000165af19081156111e85787916111c9575b50156111ba5780546001600160a81b0319163360081b610100600160a81b0316176001179055836005820155600642910155600260ff198254161790556040519182527fa0950096f857303fe1784282d8fae72ba187c45f4243c57f82b99df66b61787d60203393a38060065580f35b6312171d8360e31b8652600486fd5b6111e2915060203d60201161037b5761036d81836118ec565b5f61114a565b6040513d89823e3d90fd5b6344090c5f60e01b8552600485fd5b630fff5b3f60e31b85526004839052602485fd5b63981e7f1f60e01b85526004839052602485fd5b630d487f7b60e11b84526004829052602484fd5b50346101415780600319360112610141576020600254604051908152f35b50346113a65761126b36611812565b5f546001600160a01b0316330361153157600654611522576001600655815f52600460205260405f206007810160ff815416600481101561150e576003146114fb5760028201548061145d575b50826005830154806113aa575b50815461ffff191690151560081b61ff001617600317905542600891909101557f00000000000000000000000000000000000000000000000000000000000000006001600160a01b0316803b156113a6576040516352a34b0560e01b8152600481018490528215156024820152905f908290604490829084905af1801561139b57611385575b5060407fd915a7fdfe33fe83973299cbc2c22a3b4f9f820e9922ba44a2ef4ebb2eb513909181519015158152846020820152a28060065580f35b6113929193505f906118ec565b5f91604061134b565b6040513d5f823e3d90fd5b5f80fd5b60048481015460405163a9059cbb60e01b815260089190911c6001600160a01b03169181019190915260248101919091529050602081806044810103815f7f00000000000000000000000000000000000000000000000000000000000000006001600160a01b03165af190811561139b575f9161143e575b501561142f57825f6112c5565b6312171d8360e31b5f5260045ffd5b611457915060203d60201161037b5761036d81836118ec565b5f611422565b600183015460405163a9059cbb60e01b815260089190911c6001600160a01b031660048201526024810191909152602081806044810103815f7f00000000000000000000000000000000000000000000000000000000000000006001600160a01b03165af190811561139b575f916114dc575b501561142f575f6112b8565b6114f5915060203d60201161037b5761036d81836118ec565b5f6114d0565b8363f075432960e01b5f5260045260245ffd5b634e487b7160e01b5f52602160045260245ffd5b63769dd35360e11b5f5260045ffd5b637bfa4b9f60e01b5f5260045ffd5b346113a65760203660031901126113a6576004356001600160a01b038116908190036113a6575f546001600160a01b038116330361153157811561158d576001600160a01b031916175f55005b63d92e233d60e01b5f5260045ffd5b346113a65760203660031901126113a65760206115ba60043561186c565b604051908152f35b346113a6575f3660031901126113a6576040517f00000000000000000000000000000000000000000000000000000000000000006001600160a01b03168152602090f35b346113a65760203660031901126113a657337f00000000000000000000000000000000000000000000000000000000000000006001600160a01b031614158061167a575b61166b576004355f908152600560205260409020805460ff19166001179055005b638156372960e01b5f5260045ffd5b505f546001600160a01b031633141561164a565b346113a65760203660031901126113a6576004355f526005602052602060ff60405f2054166040519015158152f35b346113a65760203660031901126113a6576004355f52600460205260ff600760405f20015416600481101561150e57602090600360405191148152f35b346113a65760203660031901126113a6575f54600435906001600160a01b03163303611531577f96e0f610d197acd2144db3bb338fe8cdc5544b8b21a40a14334068ac60e2717260406003548151908152836020820152a1600355005b346113a65760203660031901126113a6575f54600435906001600160a01b03163303611531577fbf97c636d2d01a3b53fbd8e0f8dafb46e5ea307183831761aa619933de86ad6f60406002548151908152836020820152a1600255005b346113a6575f3660031901126113a6576020600354604051908152f35b346113a6575f3660031901126113a6577f00000000000000000000000000000000000000000000000000000000000000006001600160a01b03168152602090f35b60409060031901126113a6576004359060243580151581036113a65790565b90600482101561150e5752565b9190820180921161184b57565b634e487b7160e01b5f52601160045260245ffd5b9190820391821161184b57565b5f52600460205260405f2060ff600782015416600481101561150e576001036118b65760036118a09101546003549061183e565b804210156118b6576118b390429061185f565b90565b505f90565b610180810190811067ffffffffffffffff8211176118d857604052565b634e487b7160e01b5f52604160045260245ffd5b90601f8019910116810190811067ffffffffffffffff8211176118d857604052565b908160209103126113a6575180151581036113a6579056fea2646970667358221220222c1202acbcf65c86fca5bfef2e1a55684ae6942659aa34d7ef04419d47c69064736f6c63430008210033","linkReferences":{}},"methodIdentifiers":{"admin()":"f851a440","adminResolveDispute(uint256,bool)":"d09dc22b","bondAmount()":"80f323a7","bondToken()":"c28f4392","committee(uint256)":"afe7fcf4","disputeResolution(uint256)":"8c535cf8","disputeTimeRemaining(uint256)":"6877cc41","disputeWindow()":"117f5f92","emergencyResolve(uint256,bool)":"7b5cafec","feeSplitter()":"6052970c","finalizeResolution(uint256)":"f5489b7e","getFinalOutcome(uint256)":"92a927a6","getResolution(uint256)":"d565a533","isFinalized(uint256)":"33727c4d","marketFactory()":"06ae7095","proposeResolution(uint256,bool)":"e0a2055e","requestResolution(uint256)":"416a4f19","resolutionRequested(uint256)":"3a3c7b31","resolutions(uint256)":"a4b7f5ce","setAdmin(address)":"704b6c02","setBondAmount(uint256)":"28f9f3e6","setCommittee(address[])":"e08b14ed","setDisputeWindow(uint256)":"332226d0"},"id":44}