{"abi":[{"type":"constructor","inputs":[{"name":"_goodDollar","type":"address","internalType":"address"},{"name":"_treasury","type":"address","internalType":"address"},{"name":"_admin","type":"address","internalType":"address"}],"stateMutability":"nonpayable"},{"type":"function","name":"addImpactPartner","inputs":[{"name":"partner","type":"address","internalType":"address"},{"name":"sharesBPS","type":"uint256","internalType":"uint256"}],"outputs":[],"stateMutability":"nonpayable"},{"type":"function","name":"admin","inputs":[],"outputs":[{"name":"","type":"address","internalType":"address"}],"stateMutability":"view"},{"type":"function","name":"dailyVolumeUBI","inputs":[],"outputs":[{"name":"","type":"uint256","internalType":"uint256"}],"stateMutability":"view"},{"type":"function","name":"getMonthlyUBIEstimate","inputs":[],"outputs":[{"name":"","type":"uint256","internalType":"uint256"}],"stateMutability":"view"},{"type":"function","name":"getPartner","inputs":[{"name":"index","type":"uint256","internalType":"uint256"}],"outputs":[{"name":"partner","type":"address","internalType":"address"},{"name":"sharesBPS","type":"uint256","internalType":"uint256"}],"stateMutability":"view"},{"type":"function","name":"getPartnerCount","inputs":[],"outputs":[{"name":"","type":"uint256","internalType":"uint256"}],"stateMutability":"view"},{"type":"function","name":"getSocialImpactRate","inputs":[],"outputs":[{"name":"","type":"uint256","internalType":"uint256"}],"stateMutability":"view"},{"type":"function","name":"getStocksUBIStats","inputs":[],"outputs":[{"name":"mintFees","type":"uint256","internalType":"uint256"},{"name":"burnFees","type":"uint256","internalType":"uint256"},{"name":"liquidationProceeds","type":"uint256","internalType":"uint256"},{"name":"ubiFromTrading","type":"uint256","internalType":"uint256"},{"name":"ubiFromLiquidations","type":"uint256","internalType":"uint256"},{"name":"totalUBI","type":"uint256","internalType":"uint256"}],"stateMutability":"view"},{"type":"function","name":"getTodayUBIImpact","inputs":[],"outputs":[{"name":"currentDay","type":"uint256","internalType":"uint256"},{"name":"ubiAmount","type":"uint256","internalType":"uint256"}],"stateMutability":"view"},{"type":"function","name":"goodDollar","inputs":[],"outputs":[{"name":"","type":"address","internalType":"contract IGoodDollarToken"}],"stateMutability":"view"},{"type":"function","name":"impactPartners","inputs":[{"name":"","type":"address","internalType":"address"}],"outputs":[{"name":"","type":"bool","internalType":"bool"}],"stateMutability":"view"},{"type":"function","name":"lastDayTimestamp","inputs":[],"outputs":[{"name":"","type":"uint256","internalType":"uint256"}],"stateMutability":"view"},{"type":"function","name":"partnerImpactShare","inputs":[{"name":"","type":"address","internalType":"address"}],"outputs":[{"name":"","type":"uint256","internalType":"uint256"}],"stateMutability":"view"},{"type":"function","name":"partnerList","inputs":[{"name":"","type":"uint256","internalType":"uint256"}],"outputs":[{"name":"","type":"address","internalType":"address"}],"stateMutability":"view"},{"type":"function","name":"protocolBPS","inputs":[],"outputs":[{"name":"","type":"uint256","internalType":"uint256"}],"stateMutability":"view"},{"type":"function","name":"protocolTreasury","inputs":[],"outputs":[{"name":"","type":"address","internalType":"address"}],"stateMutability":"view"},{"type":"function","name":"removeImpactPartner","inputs":[{"name":"partner","type":"address","internalType":"address"}],"outputs":[],"stateMutability":"nonpayable"},{"type":"function","name":"setFeeSplit","inputs":[{"name":"_ubiBPS","type":"uint256","internalType":"uint256"},{"name":"_protocolBPS","type":"uint256","internalType":"uint256"}],"outputs":[],"stateMutability":"nonpayable"},{"type":"function","name":"setGoodDollar","inputs":[{"name":"_goodDollar","type":"address","internalType":"address"}],"outputs":[],"stateMutability":"nonpayable"},{"type":"function","name":"setTreasury","inputs":[{"name":"_treasury","type":"address","internalType":"address"}],"outputs":[],"stateMutability":"nonpayable"},{"type":"function","name":"splitBurnFee","inputs":[{"name":"totalFee","type":"uint256","internalType":"uint256"},{"name":"dAppRecipient","type":"address","internalType":"address"},{"name":"trader","type":"address","internalType":"address"},{"name":"asset","type":"string","internalType":"string"},{"name":"amount","type":"uint256","internalType":"uint256"}],"outputs":[{"name":"ubiShare","type":"uint256","internalType":"uint256"},{"name":"protocolShare","type":"uint256","internalType":"uint256"},{"name":"dAppShare","type":"uint256","internalType":"uint256"}],"stateMutability":"nonpayable"},{"type":"function","name":"splitFee","inputs":[{"name":"totalFee","type":"uint256","internalType":"uint256"},{"name":"dAppRecipient","type":"address","internalType":"address"}],"outputs":[{"name":"ubiShare","type":"uint256","internalType":"uint256"},{"name":"protocolShare","type":"uint256","internalType":"uint256"},{"name":"dAppShare","type":"uint256","internalType":"uint256"}],"stateMutability":"nonpayable"},{"type":"function","name":"splitLiquidationProceeds","inputs":[{"name":"totalProceeds","type":"uint256","internalType":"uint256"},{"name":"dAppRecipient","type":"address","internalType":"address"},{"name":"liquidatedUser","type":"address","internalType":"address"}],"outputs":[{"name":"ubiShare","type":"uint256","internalType":"uint256"},{"name":"protocolShare","type":"uint256","internalType":"uint256"},{"name":"dAppShare","type":"uint256","internalType":"uint256"}],"stateMutability":"nonpayable"},{"type":"function","name":"splitMintFee","inputs":[{"name":"totalFee","type":"uint256","internalType":"uint256"},{"name":"dAppRecipient","type":"address","internalType":"address"},{"name":"trader","type":"address","internalType":"address"},{"name":"asset","type":"string","internalType":"string"},{"name":"amount","type":"uint256","internalType":"uint256"}],"outputs":[{"name":"ubiShare","type":"uint256","internalType":"uint256"},{"name":"protocolShare","type":"uint256","internalType":"uint256"},{"name":"dAppShare","type":"uint256","internalType":"uint256"}],"stateMutability":"nonpayable"},{"type":"function","name":"totalBurnFees","inputs":[],"outputs":[{"name":"","type":"uint256","internalType":"uint256"}],"stateMutability":"view"},{"type":"function","name":"totalLiquidationProceeds","inputs":[],"outputs":[{"name":"","type":"uint256","internalType":"uint256"}],"stateMutability":"view"},{"type":"function","name":"totalMintFees","inputs":[],"outputs":[{"name":"","type":"uint256","internalType":"uint256"}],"stateMutability":"view"},{"type":"function","name":"totalUBIFromLiquidations","inputs":[],"outputs":[{"name":"","type":"uint256","internalType":"uint256"}],"stateMutability":"view"},{"type":"function","name":"totalUBIFromTrading","inputs":[],"outputs":[{"name":"","type":"uint256","internalType":"uint256"}],"stateMutability":"view"},{"type":"function","name":"ubiBPS","inputs":[],"outputs":[{"name":"","type":"uint256","internalType":"uint256"}],"stateMutability":"view"},{"type":"event","name":"DailyUBIImpact","inputs":[{"name":"date","type":"uint256","indexed":false,"internalType":"uint256"},{"name":"ubiAmount","type":"uint256","indexed":false,"internalType":"uint256"}],"anonymous":false},{"type":"event","name":"FeeSplit","inputs":[{"name":"source","type":"address","indexed":true,"internalType":"address"},{"name":"feeType","type":"string","indexed":true,"internalType":"string"},{"name":"totalFee","type":"uint256","indexed":false,"internalType":"uint256"},{"name":"ubiShare","type":"uint256","indexed":false,"internalType":"uint256"},{"name":"protocolShare","type":"uint256","indexed":false,"internalType":"uint256"},{"name":"dAppShare","type":"uint256","indexed":false,"internalType":"uint256"}],"anonymous":false},{"type":"event","name":"LiquidationUBI","inputs":[{"name":"liquidatedUser","type":"address","indexed":true,"internalType":"address"},{"name":"collateral","type":"uint256","indexed":false,"internalType":"uint256"},{"name":"ubiShare","type":"uint256","indexed":false,"internalType":"uint256"}],"anonymous":false},{"type":"event","name":"PartnerAdded","inputs":[{"name":"partner","type":"address","indexed":true,"internalType":"address"},{"name":"impactShare","type":"uint256","indexed":false,"internalType":"uint256"}],"anonymous":false},{"type":"event","name":"PartnerRemoved","inputs":[{"name":"partner","type":"address","indexed":true,"internalType":"address"}],"anonymous":false},{"type":"event","name":"TradingFeeSplit","inputs":[{"name":"trader","type":"address","indexed":true,"internalType":"address"},{"name":"asset","type":"string","indexed":true,"internalType":"string"},{"name":"amount","type":"uint256","indexed":false,"internalType":"uint256"},{"name":"ubiShare","type":"uint256","indexed":false,"internalType":"uint256"}],"anonymous":false}],"bytecode":{"object":"0x60803460bc57601f611a0d38819003918201601f19168301916001600160401b0383118484101760c05780849260609460405283398101031260bc5760428160d4565b906057604060516020840160d4565b920160d4565b60015f8190556107d060025561068360035580546001600160a01b039485166001600160a01b031991821617909155600480549385169382169390931790925560058054919093169116179055620151804204600c5560405161192590816100e88239f35b5f80fd5b634e487b7160e01b5f52604160045260245ffd5b51906001600160a01b038216820360bc5756fe6080806040526004361015610012575f80fd5b5f905f3560e01c90816308ca27bf1461167a575080630bc13254146116045780630d2e3a29146115e7578063119e5bf3146115bf5780631734dbb7146115875780631e163e6b146115395780632199e7481461140f57806329883298146110dd578063317653e0146110bf5780633c0998dd14610dec5780634c92d1bf14610acf5780635a64244e14610aac578063641ba0c01461092a57806364d6def91461050c57806366521893146104ee5780637409020c146104af57806378e1f6f0146104915780637c393cfd146104735780637e6335c7146103f65780637fc966191461035c578063803db96d14610333578063840ad837146103155780639a8c7e75146102f7578063ba924856146102cf578063c7888a6d14610271578063da47176a14610253578063e75c17df14610235578063f0f44260146101d7578063f13b874d146101935763f851a44014610168575f80fd5b346101905780600319360112610190576005546040516001600160a01b039091168152602090f35b80fd5b50346101905760203660031901126101905760043590600f548210156101905760206101be83611740565b905460405160039290921b1c6001600160a01b03168152f35b5034610190576020366003190112610190576101f1611694565b61020660018060a01b036005541633146117b7565b6001600160a01b031661021a8115156117ef565b6bffffffffffffffffffffffff60a01b600454161760045580f35b50346101905780600319360112610190576020600654604051908152f35b50346101905780600319360112610190576020600b54604051908152f35b50346101905760203660031901126101905761028b611694565b6102a060018060a01b036005541633146117b7565b6001600160a01b03166102b48115156117ef565b6bffffffffffffffffffffffff60a01b600154161760015580f35b50346101905780600319360112610190576040600b5481519062015180420482526020820152f35b50346101905780600319360112610190576020600954604051908152f35b50346101905780600319360112610190576020600a54604051908152f35b50346101905780600319360112610190576004546040516001600160a01b039091168152602090f35b503461019057602036600319011261019057600435600f548110156103bb57610386604091611740565b905460039190911b1c6001600160a01b0316808352600e602090815291909220546040805193845291830152819081015b0390f35b60405162461bcd60e51b8152602060048201526013602482015272696e646578206f7574206f6620626f756e647360681b6044820152606490fd5b5034610190576040366003190112610190576004356024359061042460018060a01b036005541633146117b7565b612710610431838361176c565b1161043f5760025560035580f35b60405162461bcd60e51b815260206004820152600c60248201526b45786365656473203130302560a01b6044820152606490fd5b50346101905780600319360112610190576020600354604051908152f35b50346101905780600319360112610190576020600854604051908152f35b50346101905760203660031901126101905760209060ff906040906001600160a01b036104da611694565b168152600d84522054166040519015158152f35b50346101905780600319360112610190576020600254604051908152f35b5034610190576040366003190112610190576004359061052a6116aa565b9060028154146108e5576002815582156108b55761271061054d600254856117a4565b049161271061055e600354866117a4565b04936105738561056e8684611797565b611797565b9183602060018060a01b03600154166064604051809481936323b872dd60e01b83523360048401523060248401528860448401525af1908115610837578591610896575b501561085f576001546001600160a01b0316803b1561085b578480916024604051809481936383adc2ff60e01b83528b60048401525af1801561083757908591610842575b50506001546004805460405163a9059cbb60e01b81526001600160a01b0391821692810192909252602482018990529091602091839160449183918a91165af1908115610837578591610818575b50156107d35760015460405163a9059cbb60e01b81526001600160a01b0392831660048201526024810185905291602091839160449183918991165af19081156107c8578491610799575b501561075d576103b792600191620151804204600c5481115f1461074857600b5480610722575b5086600b55600c555b60076040516674726164696e6760c81b815220906040519081528660208201528760408201528460608201525f5160206118b05f395f51905f5260803392a355604051938493846040919493926060820195825260208201520152565b60405f5160206118d05f395f51905f5291600c549082519182526020820152a15f6106bc565b5061075586600b5461176c565b600b556106c5565b60405162461bcd60e51b815260206004820152601460248201527319185c1c081d1c985b9cd9995c8819985a5b195960621b6044820152606490fd5b6107bb915060203d6020116107c1575b6107b38183611875565b810190611897565b5f610695565b503d6107a9565b6040513d86823e3d90fd5b60405162461bcd60e51b815260206004820152601860248201527f7472656173757279207472616e73666572206661696c656400000000000000006044820152606490fd5b610831915060203d6020116107c1576107b38183611875565b5f61064a565b6040513d87823e3d90fd5b8161084c91611875565b61085757835f6105fc565b8380fd5b8480fd5b60405162461bcd60e51b815260206004820152600f60248201526e1d1c985b9cd9995c8819985a5b1959608a1b6044820152606490fd5b6108af915060203d6020116107c1576107b38183611875565b5f6105b7565b60405162461bcd60e51b81526020600482015260086024820152675a65726f2066656560c01b6044820152606490fd5b60405162461bcd60e51b815260206004820152601f60248201527f5265656e7472616e637947756172643a207265656e7472616e742063616c6c006044820152606490fd5b503461019057602036600319011261019057610944611694565b61095960018060a01b036005541633146117b7565b6001600160a01b0316808252600d602052604082205460ff1661097a575080f35b808252600d6020526040822060ff198154169055808252600e602052816040812055815b600f5480821015610aa557826109b383611740565b905460039190911b1c6001600160a01b0316146109d3575060010161099e565b5f198101908111610a915790610a066109ee610a2a93611740565b905460039190911b1c6001600160a01b031691611740565b81546001600160a01b0393841660039290921b91821b9390911b1916919091179055565b600f548015610a7d575f1901610a3f81611740565b81549060018060a01b039060031b1b19169055600f555b7fd2639eca7fc6fcdba5fa158fc8075b41bc021e97ac1e127b9da5f4fd925f08288280a280f35b634e487b7160e01b83526031600452602483fd5b634e487b7160e01b84526011600452602484fd5b5050610a56565b50346101905780600319360112610190576020610ac761182a565b604051908152f35b503461019057610ade366116c0565b90956002819594939554146108e5576002815585156108b557612710610b06600254886117a4565b0495612710610b17600354836117a4565b0497610b278961056e8a85611797565b9583602060018060a01b03600154166064604051809481936323b872dd60e01b83523360048401523060248401528960448401525af1908115610837578591610dcd575b501561085f576001546001600160a01b0316803b1561085b5784809160248c60405194859384926383adc2ff60e01b845260048401525af1801561083757908591610db8575b50506001546004805460405163a9059cbb60e01b81526001600160a01b0391821692810192909252602482018d90529091602091839160449183918a91165af1908115610837578591610d99575b50156107d35760015460405163a9059cbb60e01b81526001600160a01b0392831660048201526024810189905291602091839160449183918991165af19081156107c8578491610d7a575b501561075d576103b796610ce760409360017f5503d47cba7f0b1b3a1343b3831327875fe679575c535fdad0642a7e97973f6596620151804204600c5481115f14610d6557600b5480610d40575b508d600b55600c555b8d8d600789516674726164696e6760c81b815220918951918683526020830152898201528c60608201525f5160206118b05f395f51905f5260803392a35560065461176c565b600655610cf68960095461176c565b60095581835192839283375f908201908152039020815193845260208401889052936001600160a01b031692a3604051938493846040919493926060820195825260208201520152565b885f5160206118d05f395f51905f5291600c549082519182526020820152a15f610c98565b50610d728d600b5461176c565b600b55610ca1565b610d93915060203d6020116107c1576107b38183611875565b5f610c4a565b610db2915060203d6020116107c1576107b38183611875565b5f610bff565b81610dc291611875565b61085757835f610bb1565b610de6915060203d6020116107c1576107b38183611875565b5f610b6b565b503461019057610dfb366116c0565b90956002819594939554146108e5576002815585156108b557612710610e23600254886117a4565b0495612710610e34600354836117a4565b0497610e448961056e8a85611797565b9583602060018060a01b03600154166064604051809481936323b872dd60e01b83523360048401523060248401528960448401525af19081156108375785916110a0575b501561085f576001546001600160a01b0316803b1561085b5784809160248c60405194859384926383adc2ff60e01b845260048401525af180156108375790859161108b575b50506001546004805460405163a9059cbb60e01b81526001600160a01b0391821692810192909252602482018d90529091602091839160449183918a91165af190811561083757859161106c575b50156107d35760015460405163a9059cbb60e01b81526001600160a01b0392831660048201526024810189905291602091839160449183918991165af19081156107c857849161104d575b501561075d576103b79661100460409360017f5503d47cba7f0b1b3a1343b3831327875fe679575c535fdad0642a7e97973f6596620151804204600c5481115f1461103857600b5480611013575b508d600b55600c555b8d8d600789516674726164696e6760c81b815220918951918683526020830152898201528c60608201525f5160206118b05f395f51905f5260803392a35560075461176c565b600755610cf68960095461176c565b885f5160206118d05f395f51905f5291600c549082519182526020820152a15f610fb5565b506110458d600b5461176c565b600b55610fbe565b611066915060203d6020116107c1576107b38183611875565b5f610f67565b611085915060203d6020116107c1576107b38183611875565b5f610f1c565b8161109591611875565b61085757835f610ece565b6110b9915060203d6020116107c1576107b38183611875565b5f610e88565b50346101905780600319360112610190576020600754604051908152f35b50346113ec5760603660031901126113ec57600435906110fb6116aa565b6044356001600160a01b0381169291908390036113ec5760025f54146108e55760025f5583156108b557612710611134600254866117a4565b0492612710611145600354876117a4565b04946111558661056e8784611797565b925f602060018060a01b03600154166064604051809481936323b872dd60e01b83523360048401523060248401528860448401525af19081156113e1575f916113f0575b501561085f576001546001600160a01b0316803b156113ec575f80916024604051809481936383adc2ff60e01b83528c60048401525af180156113e1576113cc575b506001546004805460405163a9059cbb60e01b81526001600160a01b0391821692810192909252602482018a90529091602091839160449183918b91165af19081156113c15786916113a2575b50156107d35760015460405163a9059cbb60e01b81526001600160a01b0392831660048201526024810186905291602091839160449183918a91165af1908115610837578591611383575b501561075d5760407ff5c03f8351f67fe416cb8cb81501ea20729643400202565725d18ae9c067be019160016103b796620151804204600c5481115f1461136e57600b5480611349575b5089600b55600c555b600784516674726164696e6760c81b81522084518481528a60208201528b868201528860608201525f5160206118b05f395f51905f5260803392a35561130e8160085461176c565b60085561131d87600a5461176c565b600a558151908152866020820152a2604051938493846040919493926060820195825260208201520152565b855f5160206118d05f395f51905f5291600c549082519182526020820152a15f6112bd565b5061137b89600b5461176c565b600b556112c6565b61139c915060203d6020116107c1576107b38183611875565b5f611273565b6113bb915060203d6020116107c1576107b38183611875565b5f611228565b6040513d88823e3d90fd5b6113d99195505f90611875565b5f935f6111db565b6040513d5f823e3d90fd5b5f80fd5b611409915060203d6020116107c1576107b38183611875565b5f611199565b346113ec5760403660031901126113ec57611428611694565b60243561144060018060a01b036005541633146117b7565b6001600160a01b038216916114568315156117ef565b6103e8821161150457825f52600d60205260ff60405f2054161561147657005b825f52600d60205260405f20600160ff19825416179055825f52600e6020528160405f2055600f5491680100000000000000008310156114f0576114e7602092610a068560017f2b06702faf86eea27052346f06b81fc1b0108091df3a0fe76bfb7ff20eb0d3df9701600f55611740565b604051908152a2005b634e487b7160e01b5f52604160045260245ffd5b60405162461bcd60e51b815260206004820152600d60248201526c6d61782031302520736861726560981b6044820152606490fd5b346113ec575f3660031901126113ec5760c0600654600754600854600954600a5491611565838361176c565b93604051958652602086015260408501526060840152608083015260a0820152f35b346113ec5760203660031901126113ec576001600160a01b036115a8611694565b165f52600e602052602060405f2054604051908152f35b346113ec575f3660031901126113ec576001546040516001600160a01b039091168152602090f35b346113ec575f3660031901126113ec576020600f54604051908152f35b346113ec575f3660031901126113ec57611623600954600a549061176c565b611634600c54620151804204611797565b600181018091116116665761164891611779565b601e810290808204601e149015171561166657602090604051908152f35b634e487b7160e01b5f52601160045260245ffd5b346113ec575f3660031901126113ec57602090600c548152f35b600435906001600160a01b03821682036113ec57565b602435906001600160a01b03821682036113ec57565b60a06003198201126113ec57600435916024356001600160a01b03811681036113ec57916044356001600160a01b03811681036113ec579160643567ffffffffffffffff81116113ec57826023820112156113ec5780600401359267ffffffffffffffff84116113ec57602484830101116113ec57602401919060843590565b600f5481101561175857600f5f5260205f2001905f90565b634e487b7160e01b5f52603260045260245ffd5b9190820180921161166657565b8115611783570490565b634e487b7160e01b5f52601260045260245ffd5b9190820391821161166657565b8181029291811591840414171561166657565b156117be57565b60405162461bcd60e51b81526020600482015260096024820152682737ba1030b236b4b760b91b6044820152606490fd5b156117f657565b60405162461bcd60e51b815260206004820152600c60248201526b7a65726f206164647265737360a01b6044820152606490fd5b6118396006546007549061176c565b80156118705761184e600954600a549061176c565b9061271082029180830461271014901517156116665761186d91611779565b90565b505f90565b90601f8019910116810190811067ffffffffffffffff8211176114f057604052565b908160209103126113ec575180151581036113ec579056fef8f449ed6ff79644d8e4e873d43862bed27d3d68aca8a0b36c94de61645df71f1f808f49abb285563b8c237c7c187d0bf842e9d9e412be529bffdf0d4434f0dba264697066735822122028f9e2bf4d9a9d2067ea344eac59b0eff7ac8608d569d581dd6cf40e14d9608864736f6c63430008210033","linkReferences":{}},"methodIdentifiers":{"addImpactPartner(address,uint256)":"2199e748","admin()":"f851a440","dailyVolumeUBI()":"da47176a","getMonthlyUBIEstimate()":"0bc13254","getPartner(uint256)":"7fc96619","getPartnerCount()":"0d2e3a29","getSocialImpactRate()":"5a64244e","getStocksUBIStats()":"1e163e6b","getTodayUBIImpact()":"ba924856","goodDollar()":"119e5bf3","impactPartners(address)":"7409020c","lastDayTimestamp()":"08ca27bf","partnerImpactShare(address)":"1734dbb7","partnerList(uint256)":"f13b874d","protocolBPS()":"7c393cfd","protocolTreasury()":"803db96d","removeImpactPartner(address)":"641ba0c0","setFeeSplit(uint256,uint256)":"7e6335c7","setGoodDollar(address)":"c7888a6d","setTreasury(address)":"f0f44260","splitBurnFee(uint256,address,address,string,uint256)":"3c0998dd","splitFee(uint256,address)":"64d6def9","splitLiquidationProceeds(uint256,address,address)":"29883298","splitMintFee(uint256,address,address,string,uint256)":"4c92d1bf","totalBurnFees()":"317653e0","totalLiquidationProceeds()":"78e1f6f0","totalMintFees()":"e75c17df","totalUBIFromLiquidations()":"840ad837","totalUBIFromTrading()":"9a8c7e75","ubiBPS()":"66521893"},"id":81}