{"abi":[{"type":"constructor","inputs":[{"name":"_pool","type":"address","internalType":"address"},{"name":"_underlying","type":"address","internalType":"address"},{"name":"_name","type":"string","internalType":"string"},{"name":"_symbol","type":"string","internalType":"string"}],"stateMutability":"nonpayable"},{"type":"function","name":"allowance","inputs":[{"name":"","type":"address","internalType":"address"},{"name":"","type":"address","internalType":"address"}],"outputs":[{"name":"","type":"uint256","internalType":"uint256"}],"stateMutability":"pure"},{"type":"function","name":"approve","inputs":[{"name":"","type":"address","internalType":"address"},{"name":"","type":"uint256","internalType":"uint256"}],"outputs":[{"name":"","type":"bool","internalType":"bool"}],"stateMutability":"pure"},{"type":"function","name":"balanceOf","inputs":[{"name":"account","type":"address","internalType":"address"}],"outputs":[{"name":"","type":"uint256","internalType":"uint256"}],"stateMutability":"view"},{"type":"function","name":"burn","inputs":[{"name":"from","type":"address","internalType":"address"},{"name":"amount","type":"uint256","internalType":"uint256"},{"name":"index","type":"uint256","internalType":"uint256"}],"outputs":[],"stateMutability":"nonpayable"},{"type":"function","name":"decimals","inputs":[],"outputs":[{"name":"","type":"uint8","internalType":"uint8"}],"stateMutability":"view"},{"type":"function","name":"mint","inputs":[{"name":"to","type":"address","internalType":"address"},{"name":"amount","type":"uint256","internalType":"uint256"},{"name":"index","type":"uint256","internalType":"uint256"}],"outputs":[],"stateMutability":"nonpayable"},{"type":"function","name":"name","inputs":[],"outputs":[{"name":"","type":"string","internalType":"string"}],"stateMutability":"view"},{"type":"function","name":"pool","inputs":[],"outputs":[{"name":"","type":"address","internalType":"address"}],"stateMutability":"view"},{"type":"function","name":"scaledBalanceOf","inputs":[{"name":"account","type":"address","internalType":"address"}],"outputs":[{"name":"","type":"uint256","internalType":"uint256"}],"stateMutability":"view"},{"type":"function","name":"scaledTotalSupply","inputs":[],"outputs":[{"name":"","type":"uint256","internalType":"uint256"}],"stateMutability":"view"},{"type":"function","name":"symbol","inputs":[],"outputs":[{"name":"","type":"string","internalType":"string"}],"stateMutability":"view"},{"type":"function","name":"totalSupply","inputs":[],"outputs":[{"name":"","type":"uint256","internalType":"uint256"}],"stateMutability":"view"},{"type":"function","name":"transfer","inputs":[{"name":"","type":"address","internalType":"address"},{"name":"","type":"uint256","internalType":"uint256"}],"outputs":[{"name":"","type":"bool","internalType":"bool"}],"stateMutability":"pure"},{"type":"function","name":"transferFrom","inputs":[{"name":"","type":"address","internalType":"address"},{"name":"","type":"address","internalType":"address"},{"name":"","type":"uint256","internalType":"uint256"}],"outputs":[{"name":"","type":"bool","internalType":"bool"}],"stateMutability":"pure"},{"type":"function","name":"underlyingAsset","inputs":[],"outputs":[{"name":"","type":"address","internalType":"address"}],"stateMutability":"view"},{"type":"event","name":"Burn","inputs":[{"name":"from","type":"address","indexed":true,"internalType":"address"},{"name":"amount","type":"uint256","indexed":false,"internalType":"uint256"},{"name":"scaledAmount","type":"uint256","indexed":false,"internalType":"uint256"},{"name":"index","type":"uint256","indexed":false,"internalType":"uint256"}],"anonymous":false},{"type":"event","name":"Mint","inputs":[{"name":"to","type":"address","indexed":true,"internalType":"address"},{"name":"amount","type":"uint256","indexed":false,"internalType":"uint256"},{"name":"scaledAmount","type":"uint256","indexed":false,"internalType":"uint256"},{"name":"index","type":"uint256","indexed":false,"internalType":"uint256"}],"anonymous":false},{"type":"event","name":"Transfer","inputs":[{"name":"from","type":"address","indexed":true,"internalType":"address"},{"name":"to","type":"address","indexed":true,"internalType":"address"},{"name":"value","type":"uint256","indexed":false,"internalType":"uint256"}],"anonymous":false}],"bytecode":{"object":"0x60c06040523461037357610db78038038061001981610377565b928339810190608081830312610373576100328161039c565b9061003f6020820161039c565b60408201519091906001600160401b03811161037357846100619183016103b0565b60608201519094906001600160401b0381116103735761008192016103b0565b60809290925260a05281516001600160401b03811161027e575f54600181811c91168015610369575b602082101461026057601f81116102fc575b50602092601f821160011461029d57928192935f92610292575b50508160011b915f199060031b1c1916175f555b80516001600160401b03811161027e57600154600181811c91168015610274575b602082101461026057601f81116101f2575b50602091601f8211600114610192579181925f92610187575b50508160011b915f199060031b1c1916176001555b6040516109b59081610402823960805181818160d4015281816104d00152818161051401526108e4015260a05181818161038801526108ac0152f35b015190505f80610136565b601f1982169260015f52805f20915f5b8581106101da575083600195106101c2575b505050811b0160015561014b565b01515f1960f88460031b161c191690555f80806101b4565b919260206001819286850151815501940192016101a2565b8181111561011d5760015f52601f820160051c7fb10e2d527612073b26eecdfd717e6a320cf44b4afac2b0732d9fcbe2b7fa0cf660208410610258575b81601f9101920160051c03905f5b82811061024b57505061011d565b5f8282015560010161023d565b5f915061022f565b634e487b7160e01b5f52602260045260245ffd5b90607f169061010b565b634e487b7160e01b5f52604160045260245ffd5b015190505f806100d6565b601f198216935f8052805f20915f5b8681106102e457508360019596106102cc575b505050811b015f556100ea565b01515f1960f88460031b161c191690555f80806102bf565b919260206001819286850151815501940192016102ac565b818111156100bc575f8052601f820160051c7f290decd9548b62a8d60345a988386fc84ba6bc95484008f6362f93160ef3e56360208410610361575b81601f9101920160051c03905f5b8281106103545750506100bc565b5f82820155600101610346565b5f9150610338565b90607f16906100aa565b5f80fd5b6040519190601f01601f191682016001600160401b0381118382101761027e57604052565b51906001600160a01b038216820361037357565b81601f82011215610373578051906001600160401b03821161027e576103df601f8301601f1916602001610377565b928284526020838301011161037357815f9260208093018386015e830101529056fe60806040526004361015610011575f80fd5b5f3560e01c806306fdde031461062c578063095ea7b31461026a578063156e29f6146104ff57806316f0115b146104bb57806318160ddd1461048a5780631da24f3e1461045257806323b872dd1461042a578063313ce5671461040f57806370a08231146103b75780637158da7c1461037357806395d89b411461026f578063a9059cbb1461026a578063b1bf962d1461024d578063dd62ed3e146102205763f5298aca146100be575f80fd5b3461021c576100cc36610789565b9091610102337f00000000000000000000000000000000000000000000000000000000000000006001600160a01b0316146107f8565b676765c793fa10079d601b1b8302838104676765c793fa10079d601b1b1484151715610208578261013291610875565b5f198101908111610208575f937fddf252ad1be2c89b69c2b068fc378daa952ba7f163c4a11628f55a4df523b3ef927f743033787f4738ff4d6a7225ce2bd0977ee5f86b91a902a58f5e4d0b297b464461018e86602095610857565b9160018060a01b031695869283895260028652604089205481116101f6575b83895260028652604089206101c3828254610882565b90556101d181600354610882565b600355604080518681526020810192909252810191909152606090a2604051908152a3005b508288526002855260408820546101ad565b634e487b7160e01b5f52601160045260245ffd5b5f80fd5b3461021c57604036600319011261021c57610239610744565b5061024261075a565b5060206040515f8152f35b3461021c575f36600319011261021c576020600354604051908152f35b610770565b3461021c575f36600319011261021c576040515f6001548060011c90600181168015610369575b6020831081146103555782855290811561033157506001146102d3575b6102cf836102c3818503826106e4565b6040519182918261071a565b0390f35b60015f9081527fb10e2d527612073b26eecdfd717e6a320cf44b4afac2b0732d9fcbe2b7fa0cf6939250905b808210610317575090915081016020016102c36102b3565b9192600181602092548385880101520191019092916102ff565b60ff191660208086019190915291151560051b840190910191506102c390506102b3565b634e487b7160e01b5f52602260045260245ffd5b91607f1691610296565b3461021c575f36600319011261021c576040517f00000000000000000000000000000000000000000000000000000000000000006001600160a01b03168152602090f35b3461021c57602036600319011261021c576020676765c793fa10079d601b1b6104066103e1610744565b6103e961088f565b6001600160a01b039091165f908152600285526040902054610844565b04604051908152f35b3461021c575f36600319011261021c57602060405160128152f35b3461021c57606036600319011261021c57610443610744565b5061044c61075a565b506107b3565b3461021c57602036600319011261021c576001600160a01b03610473610744565b165f526002602052602060405f2054604051908152f35b3461021c575f36600319011261021c576020676765c793fa10079d601b1b6104066104b361088f565b600354610844565b3461021c575f36600319011261021c576040517f00000000000000000000000000000000000000000000000000000000000000006001600160a01b03168152602090f35b3461021c5761050d36610789565b91610542337f00000000000000000000000000000000000000000000000000000000000000006001600160a01b0316146107f8565b676765c793fa10079d601b1b8202828104676765c793fa10079d601b1b1483151715610208578361057291610857565b9081156105f0575f927fddf252ad1be2c89b69c2b068fc378daa952ba7f163c4a11628f55a4df523b3ef927fb4c03061fb5b7fed76389d5af8f2e0ddb09f8c70d1333abbb62582835e10accb60209360018060a01b031696879283885260028652604088206105e2828254610875565b90556101d181600354610875565b60405162461bcd60e51b81526020600482015260146024820152731119589d151bdad95b8e881e995c9bc81b5a5b9d60621b6044820152606490fd5b3461021c575f36600319011261021c576040515f5f548060011c906001811680156106da575b60208310811461035557828552908115610331575060011461067e576102cf836102c3818503826106e4565b5f8080527f290decd9548b62a8d60345a988386fc84ba6bc95484008f6362f93160ef3e563939250905b8082106106c0575090915081016020016102c36102b3565b9192600181602092548385880101520191019092916106a8565b91607f1691610652565b90601f8019910116810190811067ffffffffffffffff82111761070657604052565b634e487b7160e01b5f52604160045260245ffd5b602060409281835280519182918282860152018484015e5f828201840152601f01601f1916010190565b600435906001600160a01b038216820361021c57565b602435906001600160a01b038216820361021c57565b3461021c57604036600319011261021c5761044c610744565b606090600319011261021c576004356001600160a01b038116810361021c57906024359060443590565b60405162461bcd60e51b815260206004820152601b60248201527f44656274546f6b656e3a206e6f6e2d7472616e7366657261626c6500000000006044820152606490fd5b156107ff57565b60405162461bcd60e51b815260206004820152601a60248201527f44656274546f6b656e3a2063616c6c6572206e6f7420706f6f6c0000000000006044820152606490fd5b8181029291811591840414171561020857565b8115610861570490565b634e487b7160e01b5f52601260045260245ffd5b9190820180921161020857565b9190820391821161020857565b5f8060405160208101906301adfd7360e71b825260018060a01b037f0000000000000000000000000000000000000000000000000000000000000000166024820152602481526108e06044826106e4565b51907f00000000000000000000000000000000000000000000000000000000000000005afa3d15610977573d9067ffffffffffffffff82116107065760405191610934601f8201601f1916602001846106e4565b82523d5f602084013e5b8061096c575b6109585750676765c793fa10079d601b1b90565b60208180518101031261021c576020015190565b506020815114610944565b60609061093e56fea264697066735822122061eb4d9e93508d8a3fa22d9933be5daaeb953ea1434143c207f322f66ef5ff3964736f6c63430008210033","linkReferences":{}},"methodIdentifiers":{"allowance(address,address)":"dd62ed3e","approve(address,uint256)":"095ea7b3","balanceOf(address)":"70a08231","burn(address,uint256,uint256)":"f5298aca","decimals()":"313ce567","mint(address,uint256,uint256)":"156e29f6","name()":"06fdde03","pool()":"16f0115b","scaledBalanceOf(address)":"1da24f3e","scaledTotalSupply()":"b1bf962d","symbol()":"95d89b41","totalSupply()":"18160ddd","transfer(address,uint256)":"a9059cbb","transferFrom(address,address,uint256)":"23b872dd","underlyingAsset()":"7158da7c"},"id":29}