{"abi":[{"type":"constructor","inputs":[{"name":"_admin","type":"address","internalType":"address"},{"name":"_ubiFeeSplitter","type":"address","internalType":"address"}],"stateMutability":"nonpayable"},{"type":"receive","stateMutability":"payable"},{"type":"function","name":"BPS","inputs":[],"outputs":[{"name":"","type":"uint256","internalType":"uint256"}],"stateMutability":"view"},{"type":"function","name":"admin","inputs":[],"outputs":[{"name":"","type":"address","internalType":"address"}],"stateMutability":"view"},{"type":"function","name":"batchWhitelistTokens","inputs":[{"name":"tokens","type":"address[]","internalType":"address[]"}],"outputs":[],"stateMutability":"nonpayable"},{"type":"function","name":"completeSwap","inputs":[{"name":"swapId","type":"uint256","internalType":"uint256"},{"name":"lifiTxHash","type":"bytes32","internalType":"bytes32"},{"name":"destAmount","type":"uint256","internalType":"uint256"}],"outputs":[],"stateMutability":"nonpayable"},{"type":"function","name":"expireSwap","inputs":[{"name":"swapId","type":"uint256","internalType":"uint256"}],"outputs":[],"stateMutability":"nonpayable"},{"type":"function","name":"getSwap","inputs":[{"name":"swapId","type":"uint256","internalType":"uint256"}],"outputs":[{"name":"","type":"tuple","internalType":"struct LiFiBridgeAggregator.SwapRequest","components":[{"name":"user","type":"address","internalType":"address"},{"name":"srcToken","type":"address","internalType":"address"},{"name":"srcAmount","type":"uint256","internalType":"uint256"},{"name":"destChainId","type":"uint256","internalType":"uint256"},{"name":"destToken","type":"address","internalType":"address"},{"name":"destReceiver","type":"address","internalType":"address"},{"name":"minDestAmount","type":"uint256","internalType":"uint256"},{"name":"deadline","type":"uint256","internalType":"uint256"},{"name":"status","type":"uint8","internalType":"enum LiFiBridgeAggregator.SwapStatus"},{"name":"lifiTxHash","type":"bytes32","internalType":"bytes32"}]}],"stateMutability":"view"},{"type":"function","name":"getUserSwaps","inputs":[{"name":"user","type":"address","internalType":"address"}],"outputs":[{"name":"","type":"uint256[]","internalType":"uint256[]"}],"stateMutability":"view"},{"type":"function","name":"initiateSwap","inputs":[{"name":"srcToken","type":"address","internalType":"address"},{"name":"srcAmount","type":"uint256","internalType":"uint256"},{"name":"destChainId","type":"uint256","internalType":"uint256"},{"name":"destToken","type":"address","internalType":"address"},{"name":"destReceiver","type":"address","internalType":"address"},{"name":"minDestAmount","type":"uint256","internalType":"uint256"},{"name":"deadline","type":"uint256","internalType":"uint256"}],"outputs":[{"name":"swapId","type":"uint256","internalType":"uint256"}],"stateMutability":"nonpayable"},{"type":"function","name":"initiateSwapETH","inputs":[{"name":"destChainId","type":"uint256","internalType":"uint256"},{"name":"destToken","type":"address","internalType":"address"},{"name":"destReceiver","type":"address","internalType":"address"},{"name":"minDestAmount","type":"uint256","internalType":"uint256"},{"name":"deadline","type":"uint256","internalType":"uint256"}],"outputs":[{"name":"swapId","type":"uint256","internalType":"uint256"}],"stateMutability":"payable"},{"type":"function","name":"keepers","inputs":[{"name":"","type":"address","internalType":"address"}],"outputs":[{"name":"","type":"bool","internalType":"bool"}],"stateMutability":"view"},{"type":"function","name":"refundSwap","inputs":[{"name":"swapId","type":"uint256","internalType":"uint256"},{"name":"reason","type":"string","internalType":"string"}],"outputs":[],"stateMutability":"nonpayable"},{"type":"function","name":"setKeeper","inputs":[{"name":"keeper","type":"address","internalType":"address"},{"name":"authorized","type":"bool","internalType":"bool"}],"outputs":[],"stateMutability":"nonpayable"},{"type":"function","name":"setSupportedChain","inputs":[{"name":"chainId","type":"uint256","internalType":"uint256"},{"name":"supported","type":"bool","internalType":"bool"}],"outputs":[],"stateMutability":"nonpayable"},{"type":"function","name":"setUBIFeeRate","inputs":[{"name":"bps","type":"uint256","internalType":"uint256"}],"outputs":[],"stateMutability":"nonpayable"},{"type":"function","name":"setUBIFeeSplitter","inputs":[{"name":"_splitter","type":"address","internalType":"address"}],"outputs":[],"stateMutability":"nonpayable"},{"type":"function","name":"setWhitelistedToken","inputs":[{"name":"token","type":"address","internalType":"address"},{"name":"whitelisted","type":"bool","internalType":"bool"}],"outputs":[],"stateMutability":"nonpayable"},{"type":"function","name":"supportedChains","inputs":[{"name":"","type":"uint256","internalType":"uint256"}],"outputs":[{"name":"","type":"bool","internalType":"bool"}],"stateMutability":"view"},{"type":"function","name":"swapCount","inputs":[],"outputs":[{"name":"","type":"uint256","internalType":"uint256"}],"stateMutability":"view"},{"type":"function","name":"swaps","inputs":[{"name":"","type":"uint256","internalType":"uint256"}],"outputs":[{"name":"user","type":"address","internalType":"address"},{"name":"srcToken","type":"address","internalType":"address"},{"name":"srcAmount","type":"uint256","internalType":"uint256"},{"name":"destChainId","type":"uint256","internalType":"uint256"},{"name":"destToken","type":"address","internalType":"address"},{"name":"destReceiver","type":"address","internalType":"address"},{"name":"minDestAmount","type":"uint256","internalType":"uint256"},{"name":"deadline","type":"uint256","internalType":"uint256"},{"name":"status","type":"uint8","internalType":"enum LiFiBridgeAggregator.SwapStatus"},{"name":"lifiTxHash","type":"bytes32","internalType":"bytes32"}],"stateMutability":"view"},{"type":"function","name":"ubiFeeRateBps","inputs":[],"outputs":[{"name":"","type":"uint256","internalType":"uint256"}],"stateMutability":"view"},{"type":"function","name":"ubiFeeSplitter","inputs":[],"outputs":[{"name":"","type":"address","internalType":"address"}],"stateMutability":"view"},{"type":"function","name":"userSwaps","inputs":[{"name":"","type":"address","internalType":"address"},{"name":"","type":"uint256","internalType":"uint256"}],"outputs":[{"name":"","type":"uint256","internalType":"uint256"}],"stateMutability":"view"},{"type":"function","name":"whitelistedTokens","inputs":[{"name":"","type":"address","internalType":"address"}],"outputs":[{"name":"","type":"bool","internalType":"bool"}],"stateMutability":"view"},{"type":"event","name":"SwapCompleted","inputs":[{"name":"swapId","type":"uint256","indexed":true,"internalType":"uint256"},{"name":"lifiTxHash","type":"bytes32","indexed":false,"internalType":"bytes32"},{"name":"destAmount","type":"uint256","indexed":false,"internalType":"uint256"}],"anonymous":false},{"type":"event","name":"SwapExpired","inputs":[{"name":"swapId","type":"uint256","indexed":true,"internalType":"uint256"}],"anonymous":false},{"type":"event","name":"SwapRefunded","inputs":[{"name":"swapId","type":"uint256","indexed":true,"internalType":"uint256"},{"name":"reason","type":"string","indexed":false,"internalType":"string"}],"anonymous":false},{"type":"event","name":"SwapRequested","inputs":[{"name":"swapId","type":"uint256","indexed":true,"internalType":"uint256"},{"name":"user","type":"address","indexed":true,"internalType":"address"},{"name":"srcToken","type":"address","indexed":false,"internalType":"address"},{"name":"srcAmount","type":"uint256","indexed":false,"internalType":"uint256"},{"name":"destChainId","type":"uint256","indexed":false,"internalType":"uint256"},{"name":"destToken","type":"address","indexed":false,"internalType":"address"},{"name":"destReceiver","type":"address","indexed":false,"internalType":"address"},{"name":"minDestAmount","type":"uint256","indexed":false,"internalType":"uint256"},{"name":"deadline","type":"uint256","indexed":false,"internalType":"uint256"}],"anonymous":false},{"type":"event","name":"UBIFeeCollected","inputs":[{"name":"swapId","type":"uint256","indexed":true,"internalType":"uint256"},{"name":"token","type":"address","indexed":false,"internalType":"address"},{"name":"amount","type":"uint256","indexed":false,"internalType":"uint256"}],"anonymous":false},{"type":"error","name":"DeadlinePassed","inputs":[]},{"type":"error","name":"InvalidSwapId","inputs":[]},{"type":"error","name":"NotAdmin","inputs":[]},{"type":"error","name":"NotKeeper","inputs":[]},{"type":"error","name":"SlippageExceeded","inputs":[{"name":"got","type":"uint256","internalType":"uint256"},{"name":"min","type":"uint256","internalType":"uint256"}]},{"type":"error","name":"SwapNotExpired","inputs":[]},{"type":"error","name":"SwapNotPending","inputs":[]},{"type":"error","name":"TokenNotWhitelisted","inputs":[{"name":"token","type":"address","internalType":"address"}]},{"type":"error","name":"TransferFailed","inputs":[]},{"type":"error","name":"UnsupportedChain","inputs":[{"name":"chainId","type":"uint256","internalType":"uint256"}]},{"type":"error","name":"ZeroAmount","inputs":[]}],"bytecode":{"object":"0x6080346101b957601f61183538819003918201601f19168301916001600160401b038311848410176101bd5780849260409485528339810103126101b957610052602061004b836101d1565b92016101d1565b60015f818155600a60045581546001600160a01b03199081166001600160a01b039586169081178455600380549092169590941694909417909355908252600260209081526040808420805460ff19908116851790915560089092527fad67d757c34507f157cacfa2e3153e9f260a2244f30428821be7be64587ac55f80548316841790557f586689db7536874b78a6eac0f58556a56a106985743f7c16a699b27bb02f88bd80548316841790557f52971f1436f2cd6731141381bedac0ed3cd11e78565d9b0d11d11375f66a2abc80548316841790557f7e8bc9853458e96c6f3a5b5a9b420ab6feac098cbfa4fcf6c9966e813a3bb18280548316841790557f4f278913b1c0a191cf7273bd8fe8a6a363cdd828060c2170092d5cc6fb2b73aa805483168417905561a4559093527f90a2f8309aac6a510e7d61b5b6ad58f40a7e1dc28996cb0fb44d3864df94f24c805490911690911790555161164f90816101e68239f35b5f80fd5b634e487b7160e01b5f52604160045260245ffd5b51906001600160a01b03821682036101b95756fe6080604052600436101561001a575b3615610018575f80fd5b005b5f3560e01c806302095b7914610fc3578063249d39e914610fa75780632eff0d9e14610f8a5780633bbd64bc14610f4d57806346c6f5f414610eff5780634a0d89ba14610d8657806350d3c93314610d695780635153cbc914610c85578063548d496f14610c565780635878482c14610bf457806372db3abf14610bcc57806376ce28f114610b7157806387d2d3e614610b195780638cfa01c9146109d75780638eeb1d0a146106a25780639a48ba10146105f8578063b477033514610544578063c10d36b7146104f7578063d1b9e8531461048d578063d91b062a1461023d578063daf9c21014610200578063f09c5829146101475763f851a4400361000e5734610143575f366003190112610143576001546040516001600160a01b039091168152602090f35b5f80fd5b34610143576020366003190112610143576004355f52600660205261014060405f2060018060a01b03815416906101f860018060a01b03600183015416916002810154600382015460018060a01b0360048401541660018060a01b0360058501541690600685015492600786015494600960ff600889015416970154986040519a8b5260208b015260408a01526060890152608088015260a087015260c086015260e0850152610100840190611412565b610120820152f35b34610143576020366003190112610143576001600160a01b036102216113ed565b165f526009602052602060ff60405f2054166040519015158152f35b346101435760403660031901126101435760043560243567ffffffffffffffff811161014357366023820112156101435780600401359067ffffffffffffffff821161014357366024838301011161014357335f52600260205260ff60405f2054161580610478575b610469575f83815260066020526040902080546001600160a01b03161561045a576008810160ff81541660048110156104465761043757805460ff1916600217905560018101546001600160a01b03168061037657506024917fb6255d10fb7f930c3444288bc5c9f585a90884e6ece4f5759d8e8136f3e6fb9e9361034b5f808080604097600260018060a01b03825416910154905af1610345611546565b50611585565b8083519485936020855282602086015201848401375f828201840152601f01601f19168101030190a2005b815460029092015460405163a9059cbb60e01b81526001600160a01b0390931660048401526024830152602090829060449082905f905af190811561042c575f916103fd575b50156103ee5760406024917fb6255d10fb7f930c3444288bc5c9f585a90884e6ece4f5759d8e8136f3e6fb9e9361034b565b6312171d8360e31b5f5260045ffd5b61041f915060203d602011610425575b61041781836114ad565b8101906114cf565b846103bc565b503d61040d565b6040513d5f823e3d90fd5b630fe0fb5160e11b5f5260045ffd5b634e487b7160e01b5f52602160045260245ffd5b63bf454b9160e01b5f5260045ffd5b631ea2564f60e31b5f5260045ffd5b506001546001600160a01b03163314156102a6565b34610143576040366003190112610143576104a66113ed565b6104ae611403565b6001546001600160a01b031633036104e8576100189160018060a01b03165f52600260205260405f209060ff801983541691151516179055565b637bfa4b9f60e01b5f5260045ffd5b34610143576020366003190112610143576105106113ed565b6001546001600160a01b031633036104e857600380546001600160a01b0319166001600160a01b0392909216919091179055005b34610143576020366003190112610143576001600160a01b036105656113ed565b165f52600760205260405f20604051806020835491828152019081935f5260205f20905f5b8181106105e257505050816105a09103826114ad565b604051918291602083019060208452518091526040830191905f5b8181106105c9575050500390f35b82518452859450602093840193909201916001016105bb565b825484526020909301926001928301920161058a565b346101435760203660031901126101435760043567ffffffffffffffff811161014357366023820112156101435780600401359067ffffffffffffffff8211610143573660248360051b83010111610143576001546001600160a01b031633036104e8575f5b82811015610018576024600582901b830101356001600160a01b0381169190829003610143576001915f52600960205260405f208260ff198254161790550161065e565b60a0366003190112610143576004356024356001600160a01b03811690819003610143576044356001600160a01b0381169081900361014357608435916106e76115c5565b34156109c857835f52600860205260ff60405f205416156109b5578242116109a65761271061071860045434611448565b0492610724843461146f565b9380151580610992575b61092e575b600554948592610742846114e7565b600555604051956107528761147c565b33875260208701965f88526040810190848252606081018b81526080820189815260a083019085825260c0840192606435845260e08501948886526101008101965f885261012082019c5f8e525f52600660205260405f209e8f92600160a01b6001900390600160a01b60019003905116166001600160601b0360a01b845416178355600160a01b600190039051166001830190600160a01b60019003166001600160601b0360a01b8254161790555190600201555160038d0155600160a01b6001900390511660048c0190600160a01b60019003166001600160601b0360a01b825416179055600160a01b6001900390511660058b0190600160a01b60019003166001600160601b0360a01b8254161790555160068a015551600789015551956004871015610446576020998860096040986108b47fe01bcae5c6f2b7cec9d50a7134a8ab35ac3cf8d770115e10a2662093abeb49889b60088f9e016114f5565b51910155335f5260078b526108cb89885f2061150d565b8651945f86528b860152868501526060840152608083015260643560a083015260c0820152847ff6c283cf38b8e88af2877f803a274dd1c6a5d291aea6206cb808faacc074604260e03393a38151905f825286820152a260015f55604051908152f35b5f8080808460018060a01b03600354165af1610948611546565b506107335760405162461bcd60e51b815260206004820152601760248201527f45544820666565207472616e73666572206661696c65640000000000000000006044820152606490fd5b506003546001600160a01b0316151561072e565b63387b2e5560e11b5f5260045ffd5b83631874ab9360e31b5f5260045260245ffd5b631f2a200560e01b5f5260045ffd5b34610143576020366003190112610143576004355f81815260066020526040902080546001600160a01b03161561045a576008810160ff815416600481101561044657610437576007820154421115610b0a57805460ff1916600317905560018101546001600160a01b031680610a9157505f808080610a6b94600260018060a01b03825416910154905af1610345611546565b7f72c18cf59fb91f2a255e9d513cf58fcfe7768ff797dc0a7b5f990e85ace941245f80a2005b815460029092015460405163a9059cbb60e01b81526001600160a01b0390931660048401526024830152602090829060449082905f905af190811561042c575f91610aeb575b50610a6b576312171d8360e31b5f5260045ffd5b610b04915060203d6020116104255761041781836114ad565b82610ad7565b6314f5e72f60e01b5f5260045ffd5b3461014357604036600319011261014357610b326113ed565b6001600160a01b03165f9081526007602052604090208054602435919082101561014357602091610b629161141f565b90549060031b1c604051908152f35b3461014357604036600319011261014357610b8a6113ed565b610b92611403565b6001546001600160a01b031633036104e8576100189160018060a01b03165f52600960205260405f209060ff801983541691151516179055565b34610143575f366003190112610143576003546040516001600160a01b039091168152602090f35b3461014357602036600319011261014357600154600435906001600160a01b031633036104e85760648111610c2857600455005b60405162461bcd60e51b81526020600482015260066024820152654d617820312560d01b6044820152606490fd5b34610143576020366003190112610143576004355f526008602052602060ff60405f2054166040519015158152f35b3461014357606036600319011261014357600435602435604435335f52600260205260ff60405f2054161580610d54575b610469575f83815260066020526040902080546001600160a01b03161561045a576008810160ff815416600481101561044657610437576006820154808410610d3e5750918360097fbe153a7540773df57259683912ca7d22c48cdd06ffc8b5c80124574854fb9f819593604095600160ff19825416179055015582519182526020820152a2005b836371c4efed60e01b5f5260045260245260445ffd5b506001546001600160a01b0316331415610cb6565b34610143575f366003190112610143576020600454604051908152f35b34610143576020366003190112610143575f610120604051610da78161147c565b8281528260208201528260408201528260608201528260808201528260a08201528260c08201528260e08201528261010082015201526004355f52600660205260405f20604051610df78161147c565b81546001600160a01b0390811682526001830154811660208301908152600284015460408401908152600385015460608501908152600480870154851660808701908152600588015490951660a08701908152600688015460c08801908152600789015460e0890190815260088a015460ff169996976101008a019691959294909291908b1015610446579986526009969096015461012089019081526040805199516001600160a01b039081168b529851891660208b015299519989019990995294516060880152935185166080870152925190931660a0850152905160c0840152905160e0830152516101409290610ef690610100840190611412565b51610120820152f35b3461014357604036600319011261014357610f18611403565b6001546001600160a01b031633036104e857610018906004355f52600860205260405f209060ff801983541691151516179055565b34610143576020366003190112610143576001600160a01b03610f6e6113ed565b165f526002602052602060ff60405f2054166040519015158152f35b34610143575f366003190112610143576020600554604051908152f35b34610143575f3660031901126101435760206040516127108152f35b346101435760e036600319011261014357610fdc6113ed565b606435906024356001600160a01b038316830361014357608435926001600160a01b03841684036101435761100f6115c5565b81156109c8576044355f52600860205260ff60405f205416156113d8576001600160a01b0383165f9081526009602052604090205460ff16156113ba5760c43542116109a65761271061106460045484611448565b0461106f818461146f565b6040516323b872dd60e01b81523360048201523060248201526044810194909452926020816064815f6001600160a01b038a165af190811561042c575f9161139b575b50156103ee5780151580611387575b611308575b600554936110d3856114e7565b600555604051936110e38561147c565b33855260018060a01b0382166020860152806040860152604435606086015260018060a01b038416608086015260018060a01b03871660a086015260a43560c086015260c43560e08601525f6101008601525f610120860152855f52600660205260405f209660018060a01b0360018060a01b03875116166001600160601b0360a01b89541617885560018060a01b03602087015116600189019060018060a01b03166001600160601b0360a01b825416179055604086015160028901556060860151600389015560018060a01b03608087015116600489019060018060a01b03166001600160601b0360a01b82541617905560018060a01b0360a087015116600589019060018060a01b03166001600160601b0360a01b82541617905560c0860151600689015560e08601516007890155610100860151946004861015610446578860096101208a9961125d7fe01bcae5c6f2b7cec9d50a7134a8ab35ac3cf8d770115e10a2662093abeb49889a600860209f016114f5565b0151910155335f52600789526112768760405f2061150d565b604080516001600160a01b0386811682528b8201959095526044359181019190915290831660608201529116608082015260a43560a082015260c43560c0820152339085907ff6c283cf38b8e88af2877f803a274dd1c6a5d291aea6206cb808faacc07460429060e090a3604080516001600160a01b039290921682526020820192909252a260015f55604051908152f35b60035460405163a9059cbb60e01b81526001600160a01b03909116600482015260248101829052602081806044810103815f6001600160a01b038a165af190811561042c575f91611368575b506110c6576312171d8360e31b5f5260045ffd5b611381915060203d6020116104255761041781836114ad565b86611354565b506003546001600160a01b031615156110c1565b6113b4915060203d6020116104255761041781836114ad565b866110b2565b63751dff9760e11b5f9081526001600160a01b038416600452602490fd5b631874ab9360e31b5f5260443560045260245ffd5b600435906001600160a01b038216820361014357565b60243590811515820361014357565b9060048210156104465752565b8054821015611434575f5260205f2001905f90565b634e487b7160e01b5f52603260045260245ffd5b8181029291811591840414171561145b57565b634e487b7160e01b5f52601160045260245ffd5b9190820391821161145b57565b610140810190811067ffffffffffffffff82111761149957604052565b634e487b7160e01b5f52604160045260245ffd5b90601f8019910116810190811067ffffffffffffffff82111761149957604052565b90816020910312610143575180151581036101435790565b5f19811461145b5760010190565b9060048110156104465760ff80198354169116179055565b8054680100000000000000008110156114995761152f9160018201815561141f565b819291549060031b91821b915f19901b1916179055565b3d15611580573d9067ffffffffffffffff82116114995760405191611575601f8201601f1916602001846114ad565b82523d5f602084013e565b606090565b1561158c57565b60405162461bcd60e51b8152602060048201526011602482015270115512081c99599d5b990819985a5b1959607a1b6044820152606490fd5b60025f54146115d45760025f55565b60405162461bcd60e51b815260206004820152601f60248201527f5265656e7472616e637947756172643a207265656e7472616e742063616c6c006044820152606490fdfea264697066735822122062f2646051b1d88e4d0c26eaf6368cfbb838e13218c39053430b030b5fd216e664736f6c63430008210033","linkReferences":{}},"methodIdentifiers":{"BPS()":"249d39e9","admin()":"f851a440","batchWhitelistTokens(address[])":"9a48ba10","completeSwap(uint256,bytes32,uint256)":"5153cbc9","expireSwap(uint256)":"8cfa01c9","getSwap(uint256)":"4a0d89ba","getUserSwaps(address)":"b4770335","initiateSwap(address,uint256,uint256,address,address,uint256,uint256)":"02095b79","initiateSwapETH(uint256,address,address,uint256,uint256)":"8eeb1d0a","keepers(address)":"3bbd64bc","refundSwap(uint256,string)":"d91b062a","setKeeper(address,bool)":"d1b9e853","setSupportedChain(uint256,bool)":"46c6f5f4","setUBIFeeRate(uint256)":"5878482c","setUBIFeeSplitter(address)":"c10d36b7","setWhitelistedToken(address,bool)":"76ce28f1","supportedChains(uint256)":"548d496f","swapCount()":"2eff0d9e","swaps(uint256)":"f09c5829","ubiFeeRateBps()":"50d3c933","ubiFeeSplitter()":"72db3abf","userSwaps(address,uint256)":"87d2d3e6","whitelistedTokens(address)":"daf9c210"},"id":58}