{"abi":[{"type":"constructor","inputs":[{"name":"_admin","type":"address","internalType":"address"},{"name":"_ubiFeeSplitter","type":"address","internalType":"address"}],"stateMutability":"nonpayable"},{"type":"receive","stateMutability":"payable"},{"type":"function","name":"BPS","inputs":[],"outputs":[{"name":"","type":"uint256","internalType":"uint256"}],"stateMutability":"view"},{"type":"function","name":"admin","inputs":[],"outputs":[{"name":"","type":"address","internalType":"address"}],"stateMutability":"view"},{"type":"function","name":"batchWhitelistTokens","inputs":[{"name":"tokens","type":"address[]","internalType":"address[]"}],"outputs":[],"stateMutability":"nonpayable"},{"type":"function","name":"completeSwap","inputs":[{"name":"swapId","type":"uint256","internalType":"uint256"},{"name":"lifiTxHash","type":"bytes32","internalType":"bytes32"},{"name":"destAmount","type":"uint256","internalType":"uint256"}],"outputs":[],"stateMutability":"nonpayable"},{"type":"function","name":"expireSwap","inputs":[{"name":"swapId","type":"uint256","internalType":"uint256"}],"outputs":[],"stateMutability":"nonpayable"},{"type":"function","name":"getSwap","inputs":[{"name":"swapId","type":"uint256","internalType":"uint256"}],"outputs":[{"name":"","type":"tuple","internalType":"struct LiFiBridgeAggregator.SwapRequest","components":[{"name":"user","type":"address","internalType":"address"},{"name":"srcToken","type":"address","internalType":"address"},{"name":"srcAmount","type":"uint256","internalType":"uint256"},{"name":"destChainId","type":"uint256","internalType":"uint256"},{"name":"destToken","type":"address","internalType":"address"},{"name":"destReceiver","type":"address","internalType":"address"},{"name":"minDestAmount","type":"uint256","internalType":"uint256"},{"name":"deadline","type":"uint256","internalType":"uint256"},{"name":"status","type":"uint8","internalType":"enum LiFiBridgeAggregator.SwapStatus"},{"name":"lifiTxHash","type":"bytes32","internalType":"bytes32"}]}],"stateMutability":"view"},{"type":"function","name":"getUserSwaps","inputs":[{"name":"user","type":"address","internalType":"address"}],"outputs":[{"name":"","type":"uint256[]","internalType":"uint256[]"}],"stateMutability":"view"},{"type":"function","name":"initiateSwap","inputs":[{"name":"srcToken","type":"address","internalType":"address"},{"name":"srcAmount","type":"uint256","internalType":"uint256"},{"name":"destChainId","type":"uint256","internalType":"uint256"},{"name":"destToken","type":"address","internalType":"address"},{"name":"destReceiver","type":"address","internalType":"address"},{"name":"minDestAmount","type":"uint256","internalType":"uint256"},{"name":"deadline","type":"uint256","internalType":"uint256"}],"outputs":[{"name":"swapId","type":"uint256","internalType":"uint256"}],"stateMutability":"nonpayable"},{"type":"function","name":"initiateSwapETH","inputs":[{"name":"destChainId","type":"uint256","internalType":"uint256"},{"name":"destToken","type":"address","internalType":"address"},{"name":"destReceiver","type":"address","internalType":"address"},{"name":"minDestAmount","type":"uint256","internalType":"uint256"},{"name":"deadline","type":"uint256","internalType":"uint256"}],"outputs":[{"name":"swapId","type":"uint256","internalType":"uint256"}],"stateMutability":"payable"},{"type":"function","name":"keepers","inputs":[{"name":"","type":"address","internalType":"address"}],"outputs":[{"name":"","type":"bool","internalType":"bool"}],"stateMutability":"view"},{"type":"function","name":"refundSwap","inputs":[{"name":"swapId","type":"uint256","internalType":"uint256"},{"name":"reason","type":"string","internalType":"string"}],"outputs":[],"stateMutability":"nonpayable"},{"type":"function","name":"setKeeper","inputs":[{"name":"keeper","type":"address","internalType":"address"},{"name":"authorized","type":"bool","internalType":"bool"}],"outputs":[],"stateMutability":"nonpayable"},{"type":"function","name":"setSupportedChain","inputs":[{"name":"chainId","type":"uint256","internalType":"uint256"},{"name":"supported","type":"bool","internalType":"bool"}],"outputs":[],"stateMutability":"nonpayable"},{"type":"function","name":"setUBIFeeRate","inputs":[{"name":"bps","type":"uint256","internalType":"uint256"}],"outputs":[],"stateMutability":"nonpayable"},{"type":"function","name":"setUBIFeeSplitter","inputs":[{"name":"_splitter","type":"address","internalType":"address"}],"outputs":[],"stateMutability":"nonpayable"},{"type":"function","name":"setWhitelistedToken","inputs":[{"name":"token","type":"address","internalType":"address"},{"name":"whitelisted","type":"bool","internalType":"bool"}],"outputs":[],"stateMutability":"nonpayable"},{"type":"function","name":"supportedChains","inputs":[{"name":"","type":"uint256","internalType":"uint256"}],"outputs":[{"name":"","type":"bool","internalType":"bool"}],"stateMutability":"view"},{"type":"function","name":"swapCount","inputs":[],"outputs":[{"name":"","type":"uint256","internalType":"uint256"}],"stateMutability":"view"},{"type":"function","name":"swaps","inputs":[{"name":"","type":"uint256","internalType":"uint256"}],"outputs":[{"name":"user","type":"address","internalType":"address"},{"name":"srcToken","type":"address","internalType":"address"},{"name":"srcAmount","type":"uint256","internalType":"uint256"},{"name":"destChainId","type":"uint256","internalType":"uint256"},{"name":"destToken","type":"address","internalType":"address"},{"name":"destReceiver","type":"address","internalType":"address"},{"name":"minDestAmount","type":"uint256","internalType":"uint256"},{"name":"deadline","type":"uint256","internalType":"uint256"},{"name":"status","type":"uint8","internalType":"enum LiFiBridgeAggregator.SwapStatus"},{"name":"lifiTxHash","type":"bytes32","internalType":"bytes32"}],"stateMutability":"view"},{"type":"function","name":"ubiFeeRateBps","inputs":[],"outputs":[{"name":"","type":"uint256","internalType":"uint256"}],"stateMutability":"view"},{"type":"function","name":"ubiFeeSplitter","inputs":[],"outputs":[{"name":"","type":"address","internalType":"address"}],"stateMutability":"view"},{"type":"function","name":"userSwaps","inputs":[{"name":"","type":"address","internalType":"address"},{"name":"","type":"uint256","internalType":"uint256"}],"outputs":[{"name":"","type":"uint256","internalType":"uint256"}],"stateMutability":"view"},{"type":"function","name":"whitelistedTokens","inputs":[{"name":"","type":"address","internalType":"address"}],"outputs":[{"name":"","type":"bool","internalType":"bool"}],"stateMutability":"view"},{"type":"event","name":"SwapCompleted","inputs":[{"name":"swapId","type":"uint256","indexed":true,"internalType":"uint256"},{"name":"lifiTxHash","type":"bytes32","indexed":false,"internalType":"bytes32"},{"name":"destAmount","type":"uint256","indexed":false,"internalType":"uint256"}],"anonymous":false},{"type":"event","name":"SwapExpired","inputs":[{"name":"swapId","type":"uint256","indexed":true,"internalType":"uint256"}],"anonymous":false},{"type":"event","name":"SwapRefunded","inputs":[{"name":"swapId","type":"uint256","indexed":true,"internalType":"uint256"},{"name":"reason","type":"string","indexed":false,"internalType":"string"}],"anonymous":false},{"type":"event","name":"SwapRequested","inputs":[{"name":"swapId","type":"uint256","indexed":true,"internalType":"uint256"},{"name":"user","type":"address","indexed":true,"internalType":"address"},{"name":"srcToken","type":"address","indexed":false,"internalType":"address"},{"name":"srcAmount","type":"uint256","indexed":false,"internalType":"uint256"},{"name":"destChainId","type":"uint256","indexed":false,"internalType":"uint256"},{"name":"destToken","type":"address","indexed":false,"internalType":"address"},{"name":"destReceiver","type":"address","indexed":false,"internalType":"address"},{"name":"minDestAmount","type":"uint256","indexed":false,"internalType":"uint256"},{"name":"deadline","type":"uint256","indexed":false,"internalType":"uint256"}],"anonymous":false},{"type":"event","name":"UBIFeeCollected","inputs":[{"name":"swapId","type":"uint256","indexed":true,"internalType":"uint256"},{"name":"token","type":"address","indexed":false,"internalType":"address"},{"name":"amount","type":"uint256","indexed":false,"internalType":"uint256"}],"anonymous":false},{"type":"error","name":"DeadlinePassed","inputs":[]},{"type":"error","name":"InvalidSwapId","inputs":[]},{"type":"error","name":"NotAdmin","inputs":[]},{"type":"error","name":"NotKeeper","inputs":[]},{"type":"error","name":"SlippageExceeded","inputs":[{"name":"got","type":"uint256","internalType":"uint256"},{"name":"min","type":"uint256","internalType":"uint256"}]},{"type":"error","name":"SwapNotExpired","inputs":[]},{"type":"error","name":"SwapNotPending","inputs":[]},{"type":"error","name":"TokenNotWhitelisted","inputs":[{"name":"token","type":"address","internalType":"address"}]},{"type":"error","name":"TransferFailed","inputs":[]},{"type":"error","name":"UnsupportedChain","inputs":[{"name":"chainId","type":"uint256","internalType":"uint256"}]},{"type":"error","name":"ZeroAmount","inputs":[]}],"bytecode":{"object":"0x6080346101b257601f6117b938819003918201601f19168301916001600160401b038311848410176101b65780849260409485528339810103126101b257610052602061004b836101ca565b92016101ca565b600a6003555f80546001600160a01b03199081166001600160a01b0394851690811783556002805490921694909316939093179092558152600160208181526040808420805460ff19908116851790915560079092527fb39221ace053465ec3453ce2b36430bd138b997ecea25c1043da0c366812b82880548316841790557f3ed157e83ab1bb1f6b7b3760b3368106283d4e15d1f1b08e20d06576445a999480548316841790557f65420a8d28339aeca441a0c94a464f6387b468f3f5ea5c247a6df59a5f7b886680548316841790557fa7540f530be45c6674dd99d492017379fb77c281d9721ac80290a13fa987750880548316841790557ec926fc893501ce5ad439ad7af72d794e5fd17fa1b09c50e4c335249310c013805483168417905561a4559093527f3f4126945301ba9d8e60208e46a02e1afbfe1be7a85d1eec490cf4d3447964d980549091169091179055516115da90816101df8239f35b5f80fd5b634e487b7160e01b5f52604160045260245ffd5b51906001600160a01b03821682036101b25756fe6080604052600436101561001a575b3615610018575f80fd5b005b5f3560e01c806302095b7914610fae578063249d39e914610f925780632eff0d9e14610f755780633bbd64bc14610f3857806346c6f5f414610eeb5780634a0d89ba14610d7257806350d3c93314610d555780635153cbc914610c72578063548d496f14610c435780635878482c14610be257806372db3abf14610bba57806376ce28f114610b6057806387d2d3e614610b085780638cfa01c9146109c65780638eeb1d0a1461069d5780639a48ba10146105f4578063b477033514610540578063c10d36b7146104f4578063d1b9e8531461048b578063d91b062a1461023c578063daf9c210146101ff578063f09c5829146101465763f851a4400361000e5734610142575f366003190112610142575f546040516001600160a01b039091168152602090f35b5f80fd5b34610142576020366003190112610142576004355f52600560205261014060405f2060018060a01b03815416906101f760018060a01b03600183015416916002810154600382015460018060a01b0360048401541660018060a01b0360058501541690600685015492600786015494600960ff600889015416970154986040519a8b5260208b015260408a01526060890152608088015260a087015260c086015260e08501526101008401906113f1565b610120820152f35b34610142576020366003190112610142576001600160a01b036102206113cc565b165f526008602052602060ff60405f2054166040519015158152f35b346101425760403660031901126101425760043560243567ffffffffffffffff811161014257366023820112156101425780600401359067ffffffffffffffff821161014257366024838301011161014257335f52600160205260ff60405f2054161580610477575b610468575f83815260056020526040902080546001600160a01b031615610459576008810160ff81541660048110156104455761043657805460ff1916600217905560018101546001600160a01b03168061037557506024917fb6255d10fb7f930c3444288bc5c9f585a90884e6ece4f5759d8e8136f3e6fb9e9361034a5f808080604097600260018060a01b03825416910154905af1610344611525565b50611564565b8083519485936020855282602086015201848401375f828201840152601f01601f19168101030190a2005b815460029092015460405163a9059cbb60e01b81526001600160a01b0390931660048401526024830152602090829060449082905f905af190811561042b575f916103fc575b50156103ed5760406024917fb6255d10fb7f930c3444288bc5c9f585a90884e6ece4f5759d8e8136f3e6fb9e9361034a565b6312171d8360e31b5f5260045ffd5b61041e915060203d602011610424575b610416818361148c565b8101906114ae565b846103bb565b503d61040c565b6040513d5f823e3d90fd5b630fe0fb5160e11b5f5260045ffd5b634e487b7160e01b5f52602160045260245ffd5b63bf454b9160e01b5f5260045ffd5b631ea2564f60e31b5f5260045ffd5b505f546001600160a01b03163314156102a5565b34610142576040366003190112610142576104a46113cc565b6104ac6113e2565b5f546001600160a01b031633036104e5576100189160018060a01b03165f52600160205260405f209060ff801983541691151516179055565b637bfa4b9f60e01b5f5260045ffd5b346101425760203660031901126101425761050d6113cc565b5f546001600160a01b031633036104e557600280546001600160a01b0319166001600160a01b0392909216919091179055005b34610142576020366003190112610142576001600160a01b036105616113cc565b165f52600660205260405f20604051806020835491828152019081935f5260205f20905f5b8181106105de575050508161059c91038261148c565b604051918291602083019060208452518091526040830191905f5b8181106105c5575050500390f35b82518452859450602093840193909201916001016105b7565b8254845260209093019260019283019201610586565b346101425760203660031901126101425760043567ffffffffffffffff811161014257366023820112156101425780600401359067ffffffffffffffff8211610142573660248360051b83010111610142575f546001600160a01b031633036104e5575f5b82811015610018576024600582901b830101356001600160a01b0381169190829003610142576001915f52600860205260405f208260ff1982541617905501610659565b60a0366003190112610142576004356024356001600160a01b03811690819003610142576044356001600160a01b03811690819003610142576084359134156109b757835f52600760205260ff60405f205416156109a4578242116109955761271061070b60035434611427565b0492610717843461144e565b9380151580610981575b61091d575b600454948592610735846114c6565b600455604051956107458761145b565b33875260208701965f88526040810190848252606081018b81526080820189815260a083019085825260c0840192606435845260e08501948886526101008101965f885261012082019c5f8e525f52600560205260405f209e8f92600160a01b6001900390600160a01b60019003905116166001600160601b0360a01b845416178355600160a01b600190039051166001830190600160a01b60019003166001600160601b0360a01b8254161790555190600201555160038d0155600160a01b6001900390511660048c0190600160a01b60019003166001600160601b0360a01b825416179055600160a01b6001900390511660058b0190600160a01b60019003166001600160601b0360a01b8254161790555160068a015551600789015551956004871015610445576020998860096040986108a77fe01bcae5c6f2b7cec9d50a7134a8ab35ac3cf8d770115e10a2662093abeb49889b60088f9e016114d4565b51910155335f5260068b526108be89885f206114ec565b8651945f86528b860152868501526060840152608083015260643560a083015260c0820152847ff6c283cf38b8e88af2877f803a274dd1c6a5d291aea6206cb808faacc074604260e03393a38151905f825286820152a2604051908152f35b5f8080808460018060a01b03600254165af1610937611525565b506107265760405162461bcd60e51b815260206004820152601760248201527f45544820666565207472616e73666572206661696c65640000000000000000006044820152606490fd5b506002546001600160a01b03161515610721565b63387b2e5560e11b5f5260045ffd5b83631874ab9360e31b5f5260045260245ffd5b631f2a200560e01b5f5260045ffd5b34610142576020366003190112610142576004355f81815260056020526040902080546001600160a01b031615610459576008810160ff815416600481101561044557610436576007820154421115610af957805460ff1916600317905560018101546001600160a01b031680610a8057505f808080610a5a94600260018060a01b03825416910154905af1610344611525565b7f72c18cf59fb91f2a255e9d513cf58fcfe7768ff797dc0a7b5f990e85ace941245f80a2005b815460029092015460405163a9059cbb60e01b81526001600160a01b0390931660048401526024830152602090829060449082905f905af190811561042b575f91610ada575b50610a5a576312171d8360e31b5f5260045ffd5b610af3915060203d60201161042457610416818361148c565b82610ac6565b6314f5e72f60e01b5f5260045ffd5b3461014257604036600319011261014257610b216113cc565b6001600160a01b03165f9081526006602052604090208054602435919082101561014257602091610b51916113fe565b90549060031b1c604051908152f35b3461014257604036600319011261014257610b796113cc565b610b816113e2565b5f546001600160a01b031633036104e5576100189160018060a01b03165f52600860205260405f209060ff801983541691151516179055565b34610142575f366003190112610142576002546040516001600160a01b039091168152602090f35b34610142576020366003190112610142575f54600435906001600160a01b031633036104e55760648111610c1557600355005b60405162461bcd60e51b81526020600482015260066024820152654d617820312560d01b6044820152606490fd5b34610142576020366003190112610142576004355f526007602052602060ff60405f2054166040519015158152f35b3461014257606036600319011261014257600435602435604435335f52600160205260ff60405f2054161580610d41575b610468575f83815260056020526040902080546001600160a01b031615610459576008810160ff815416600481101561044557610436576006820154808410610d2b5750918360097fbe153a7540773df57259683912ca7d22c48cdd06ffc8b5c80124574854fb9f819593604095600160ff19825416179055015582519182526020820152a2005b836371c4efed60e01b5f5260045260245260445ffd5b505f546001600160a01b0316331415610ca3565b34610142575f366003190112610142576020600354604051908152f35b34610142576020366003190112610142575f610120604051610d938161145b565b8281528260208201528260408201528260608201528260808201528260a08201528260c08201528260e08201528261010082015201526004355f52600560205260405f20604051610de38161145b565b81546001600160a01b0390811682526001830154811660208301908152600284015460408401908152600385015460608501908152600480870154851660808701908152600588015490951660a08701908152600688015460c08801908152600789015460e0890190815260088a015460ff169996976101008a019691959294909291908b1015610445579986526009969096015461012089019081526040805199516001600160a01b039081168b529851891660208b015299519989019990995294516060880152935185166080870152925190931660a0850152905160c0840152905160e0830152516101409290610ee2906101008401906113f1565b51610120820152f35b3461014257604036600319011261014257610f046113e2565b5f546001600160a01b031633036104e557610018906004355f52600760205260405f209060ff801983541691151516179055565b34610142576020366003190112610142576001600160a01b03610f596113cc565b165f526001602052602060ff60405f2054166040519015158152f35b34610142575f366003190112610142576020600454604051908152f35b34610142575f3660031901126101425760206040516127108152f35b346101425760e036600319011261014257610fc76113cc565b606435906024356001600160a01b038316830361014257608435926001600160a01b03841684036101425781156109b7576044355f52600760205260ff60405f205416156113b7576001600160a01b0383165f9081526008602052604090205460ff16156113995760c43542116109955761271061104760035484611427565b04611052818461144e565b6040516323b872dd60e01b81523360048201523060248201526044810194909452926020816064815f6001600160a01b038a165af190811561042b575f9161137a575b50156103ed5780151580611366575b6112e7575b600454936110b6856114c6565b600455604051936110c68561145b565b33855260018060a01b0382166020860152806040860152604435606086015260018060a01b038416608086015260018060a01b03871660a086015260a43560c086015260c43560e08601525f6101008601525f610120860152855f52600560205260405f209660018060a01b0360018060a01b03875116166001600160601b0360a01b89541617885560018060a01b03602087015116600189019060018060a01b03166001600160601b0360a01b825416179055604086015160028901556060860151600389015560018060a01b03608087015116600489019060018060a01b03166001600160601b0360a01b82541617905560018060a01b0360a087015116600589019060018060a01b03166001600160601b0360a01b82541617905560c0860151600689015560e08601516007890155610100860151946004861015610445578860096101208a996112407fe01bcae5c6f2b7cec9d50a7134a8ab35ac3cf8d770115e10a2662093abeb49889a600860209f016114d4565b0151910155335f52600689526112598760405f206114ec565b604080516001600160a01b0386811682528b8201959095526044359181019190915290831660608201529116608082015260a43560a082015260c43560c0820152339085907ff6c283cf38b8e88af2877f803a274dd1c6a5d291aea6206cb808faacc07460429060e090a3604080516001600160a01b039290921682526020820192909252a2604051908152f35b60025460405163a9059cbb60e01b81526001600160a01b03909116600482015260248101829052602081806044810103815f6001600160a01b038a165af190811561042b575f91611347575b506110a9576312171d8360e31b5f5260045ffd5b611360915060203d60201161042457610416818361148c565b86611333565b506002546001600160a01b031615156110a4565b611393915060203d60201161042457610416818361148c565b86611095565b63751dff9760e11b5f9081526001600160a01b038416600452602490fd5b631874ab9360e31b5f5260443560045260245ffd5b600435906001600160a01b038216820361014257565b60243590811515820361014257565b9060048210156104455752565b8054821015611413575f5260205f2001905f90565b634e487b7160e01b5f52603260045260245ffd5b8181029291811591840414171561143a57565b634e487b7160e01b5f52601160045260245ffd5b9190820391821161143a57565b610140810190811067ffffffffffffffff82111761147857604052565b634e487b7160e01b5f52604160045260245ffd5b90601f8019910116810190811067ffffffffffffffff82111761147857604052565b90816020910312610142575180151581036101425790565b5f19811461143a5760010190565b9060048110156104455760ff80198354169116179055565b8054680100000000000000008110156114785761150e916001820181556113fe565b819291549060031b91821b915f19901b1916179055565b3d1561155f573d9067ffffffffffffffff82116114785760405191611554601f8201601f19166020018461148c565b82523d5f602084013e565b606090565b1561156b57565b60405162461bcd60e51b8152602060048201526011602482015270115512081c99599d5b990819985a5b1959607a1b6044820152606490fdfea2646970667358221220901e3a86d0c05f96723c0754bd6bbbde431a0630db54d883e1603d12d595863e64736f6c63430008210033","linkReferences":{}},"methodIdentifiers":{"BPS()":"249d39e9","admin()":"f851a440","batchWhitelistTokens(address[])":"9a48ba10","completeSwap(uint256,bytes32,uint256)":"5153cbc9","expireSwap(uint256)":"8cfa01c9","getSwap(uint256)":"4a0d89ba","getUserSwaps(address)":"b4770335","initiateSwap(address,uint256,uint256,address,address,uint256,uint256)":"02095b79","initiateSwapETH(uint256,address,address,uint256,uint256)":"8eeb1d0a","keepers(address)":"3bbd64bc","refundSwap(uint256,string)":"d91b062a","setKeeper(address,bool)":"d1b9e853","setSupportedChain(uint256,bool)":"46c6f5f4","setUBIFeeRate(uint256)":"5878482c","setUBIFeeSplitter(address)":"c10d36b7","setWhitelistedToken(address,bool)":"76ce28f1","supportedChains(uint256)":"548d496f","swapCount()":"2eff0d9e","swaps(uint256)":"f09c5829","ubiFeeRateBps()":"50d3c933","ubiFeeSplitter()":"72db3abf","userSwaps(address,uint256)":"87d2d3e6","whitelistedTokens(address)":"daf9c210"},"id":48}