{"abi":[{"type":"constructor","inputs":[],"stateMutability":"nonpayable"},{"type":"function","name":"challenger","inputs":[],"outputs":[{"name":"","type":"address","internalType":"address"}],"stateMutability":"view"},{"type":"function","name":"deleteL2Outputs","inputs":[{"name":"_l2OutputIndex","type":"uint256","internalType":"uint256"}],"outputs":[],"stateMutability":"nonpayable"},{"type":"function","name":"getL2Output","inputs":[{"name":"_l2OutputIndex","type":"uint256","internalType":"uint256"}],"outputs":[{"name":"","type":"tuple","internalType":"struct L2OutputOracle.OutputProposal","components":[{"name":"outputRoot","type":"bytes32","internalType":"bytes32"},{"name":"timestamp","type":"uint128","internalType":"uint128"},{"name":"l2BlockNumber","type":"uint128","internalType":"uint128"}]}],"stateMutability":"view"},{"type":"function","name":"l2BlockTime","inputs":[],"outputs":[{"name":"","type":"uint256","internalType":"uint256"}],"stateMutability":"view"},{"type":"function","name":"l2Outputs","inputs":[{"name":"","type":"uint256","internalType":"uint256"}],"outputs":[{"name":"outputRoot","type":"bytes32","internalType":"bytes32"},{"name":"timestamp","type":"uint128","internalType":"uint128"},{"name":"l2BlockNumber","type":"uint128","internalType":"uint128"}],"stateMutability":"view"},{"type":"function","name":"latestBlockNumber","inputs":[],"outputs":[{"name":"","type":"uint256","internalType":"uint256"}],"stateMutability":"view"},{"type":"function","name":"latestOutputIndex","inputs":[],"outputs":[{"name":"","type":"uint256","internalType":"uint256"}],"stateMutability":"view"},{"type":"function","name":"nextBlockNumber","inputs":[],"outputs":[{"name":"","type":"uint256","internalType":"uint256"}],"stateMutability":"view"},{"type":"function","name":"proposeL2Output","inputs":[{"name":"_outputRoot","type":"bytes32","internalType":"bytes32"},{"name":"_l2BlockNumber","type":"uint256","internalType":"uint256"},{"name":"","type":"bytes32","internalType":"bytes32"},{"name":"","type":"uint256","internalType":"uint256"}],"outputs":[],"stateMutability":"nonpayable"},{"type":"function","name":"proposer","inputs":[],"outputs":[{"name":"","type":"address","internalType":"address"}],"stateMutability":"view"},{"type":"function","name":"setProposer","inputs":[{"name":"_proposer","type":"address","internalType":"address"}],"outputs":[],"stateMutability":"nonpayable"},{"type":"function","name":"startingBlockNumber","inputs":[],"outputs":[{"name":"","type":"uint256","internalType":"uint256"}],"stateMutability":"view"},{"type":"function","name":"startingTimestamp","inputs":[],"outputs":[{"name":"","type":"uint256","internalType":"uint256"}],"stateMutability":"view"},{"type":"function","name":"submissionInterval","inputs":[],"outputs":[{"name":"","type":"uint256","internalType":"uint256"}],"stateMutability":"view"},{"type":"event","name":"OutputDeleted","inputs":[{"name":"outputRoot","type":"bytes32","indexed":true,"internalType":"bytes32"},{"name":"l2OutputIndex","type":"uint256","indexed":true,"internalType":"uint256"}],"anonymous":false},{"type":"event","name":"OutputProposed","inputs":[{"name":"outputRoot","type":"bytes32","indexed":true,"internalType":"bytes32"},{"name":"l2OutputIndex","type":"uint256","indexed":true,"internalType":"uint256"},{"name":"l2BlockNumber","type":"uint256","indexed":true,"internalType":"uint256"},{"name":"l1Timestamp","type":"uint256","indexed":false,"internalType":"uint256"}],"anonymous":false}],"bytecode":{"object":"0x608080604052346044575f8054336001600160a01b03199182168117835560018054909216179055607860029081556003556004554260055561071890816100498239f35b5f80fdfe60806040526004361015610011575f80fd5b5f3560e01c806302be8bfe146105475780631fb4a228146104fc5780634599c788146104e2578063534db0e2146104ba57806369f16eec1461043257806370872aa51461041557806388786272146103f857806389c44cbb1461031b57806393991af3146102fe5780639aaab648146101a4578063a25ae5571461011d578063a8e4fb90146100f6578063dcec3348146100d45763e1a41bcf146100b3575f80fd5b346100d0575f3660031901126100d0576020600254604051908152f35b5f80fd5b346100d0575f3660031901126100d05760206100ee6106ae565b604051908152f35b346100d0575f3660031901126100d0575f546040516001600160a01b039091168152602090f35b346100d05760203660031901126100d057606061015e6004355f604061014161068e565b82815282602082015201526101596006548210610642565b610597565b506001600160801b0361016f61068e565b816001845494858452015491604060208201918385168352019260801c83526040519485525116602084015251166040820152f35b346100d05760803660031901126100d057600435602435906101d060018060a01b035f541633146105c7565b6101d86106ae565b82106102ad57600654906101ea61068e565b818152602081016001600160801b0342168152604082016001600160801b038616815268010000000000000000851015610299576001850160065561022e85610597565b939093610286576001926001600160801b03915185555116906001600160801b0319905160801b16179101557fa7aaf2512769da4e444e3de247be2564225c2e7a8f74cfe528e46e17d24868e26020604051428152a4005b634e487b7160e01b5f525f60045260245ffd5b634e487b7160e01b5f52604160045260245ffd5b60405162461bcd60e51b8152602060048201526024808201527f4c324f75747075744f7261636c653a20626c6f636b206e756d62657220746f6f604482015263206c6f7760e01b6064820152608490fd5b346100d0575f3660031901126100d0576020600354604051908152f35b346100d05760203660031901126100d057600154600435906001600160a01b031633036103b35761034f6006548210610642565b61035881610597565b505490805b6006548110156103875761037081610597565b919091610286575f6001838282955501550161035d565b5090816006557f20c159d28ca188c9459b46c32624bb9e43d1ea4f27b8d3da023bce0401d29ae45f80a3005b60405162461bcd60e51b815260206004820152601f60248201527f4c324f75747075744f7261636c653a206f6e6c79206368616c6c656e676572006044820152606490fd5b346100d0575f3660031901126100d0576020600554604051908152f35b346100d0575f3660031901126100d0576020600454604051908152f35b346100d0575f3660031901126100d0576006548015610475575f19810190811161046157602090604051908152f35b634e487b7160e01b5f52601160045260245ffd5b60405162461bcd60e51b815260206004820152601a60248201527f4c324f75747075744f7261636c653a206e6f206f7574707574730000000000006044820152606490fd5b346100d0575f3660031901126100d0576001546040516001600160a01b039091168152602090f35b346100d0575f3660031901126100d05760206100ee610613565b346100d05760203660031901126100d0576004356001600160a01b038116908190036100d0575f54610538336001600160a01b038316146105c7565b6001600160a01b031916175f55005b346100d05760203660031901126100d0576004356006548110156100d057610570606091610597565b50600181549101546040519182526001600160801b038116602083015260801c6040820152f35b6006548110156105b35760065f5260205f209060011b01905f90565b634e487b7160e01b5f52603260045260245ffd5b156105ce57565b60405162461bcd60e51b815260206004820152601d60248201527f4c324f75747075744f7261636c653a206f6e6c792070726f706f7365720000006044820152606490fd5b600654801561063b575f19810190811161046157610632600191610597565b50015460801c90565b5060045490565b1561064957565b60405162461bcd60e51b815260206004820152601d60248201527f4c324f75747075744f7261636c653a20696e76616c696420696e6465780000006044820152606490fd5b604051906060820182811067ffffffffffffffff82111761029957604052565b600654801561063b575f198101908111610461576106cd600191610597565b50015460801c6002548101809111610461579056fea2646970667358221220555344a9192b064369763120c17eb51c3673d30a6800b3748b5e3ee9e3e8cc3064736f6c63430008210033","linkReferences":{}},"methodIdentifiers":{"challenger()":"534db0e2","deleteL2Outputs(uint256)":"89c44cbb","getL2Output(uint256)":"a25ae557","l2BlockTime()":"93991af3","l2Outputs(uint256)":"02be8bfe","latestBlockNumber()":"4599c788","latestOutputIndex()":"69f16eec","nextBlockNumber()":"dcec3348","proposeL2Output(bytes32,uint256,bytes32,uint256)":"9aaab648","proposer()":"a8e4fb90","setProposer(address)":"1fb4a228","startingBlockNumber()":"70872aa5","startingTimestamp()":"88786272","submissionInterval()":"e1a41bcf"},"id":18}