{"abi":[{"type":"constructor","inputs":[{"name":"_owner","type":"address","internalType":"address"}],"stateMutability":"nonpayable"},{"type":"function","name":"getAmountIn","inputs":[{"name":"amountOut","type":"uint256","internalType":"uint256"},{"name":"tokenIn","type":"address","internalType":"address"},{"name":"tokenOut","type":"address","internalType":"address"}],"outputs":[{"name":"amountIn","type":"uint256","internalType":"uint256"}],"stateMutability":"view"},{"type":"function","name":"getAmountOut","inputs":[{"name":"amountIn","type":"uint256","internalType":"uint256"},{"name":"tokenIn","type":"address","internalType":"address"},{"name":"tokenOut","type":"address","internalType":"address"}],"outputs":[{"name":"amountOut","type":"uint256","internalType":"uint256"}],"stateMutability":"view"},{"type":"function","name":"getPool","inputs":[{"name":"tokenIn","type":"address","internalType":"address"},{"name":"tokenOut","type":"address","internalType":"address"}],"outputs":[{"name":"","type":"address","internalType":"address"}],"stateMutability":"view"},{"type":"function","name":"owner","inputs":[],"outputs":[{"name":"","type":"address","internalType":"address"}],"stateMutability":"view"},{"type":"function","name":"pools","inputs":[{"name":"","type":"bytes32","internalType":"bytes32"}],"outputs":[{"name":"","type":"address","internalType":"address"}],"stateMutability":"view"},{"type":"function","name":"registerPool","inputs":[{"name":"pool","type":"address","internalType":"address"}],"outputs":[],"stateMutability":"nonpayable"},{"type":"function","name":"removePool","inputs":[{"name":"tokenA","type":"address","internalType":"address"},{"name":"tokenB","type":"address","internalType":"address"}],"outputs":[],"stateMutability":"nonpayable"},{"type":"function","name":"swapExactTokensForTokens","inputs":[{"name":"amountIn","type":"uint256","internalType":"uint256"},{"name":"amountOutMin","type":"uint256","internalType":"uint256"},{"name":"path","type":"address[]","internalType":"address[]"},{"name":"to","type":"address","internalType":"address"},{"name":"deadline","type":"uint256","internalType":"uint256"}],"outputs":[{"name":"amountOut","type":"uint256","internalType":"uint256"}],"stateMutability":"nonpayable"},{"type":"function","name":"swapTokensForExactTokens","inputs":[{"name":"amountOut","type":"uint256","internalType":"uint256"},{"name":"amountInMax","type":"uint256","internalType":"uint256"},{"name":"path","type":"address[]","internalType":"address[]"},{"name":"to","type":"address","internalType":"address"},{"name":"deadline","type":"uint256","internalType":"uint256"}],"outputs":[{"name":"amountIn","type":"uint256","internalType":"uint256"}],"stateMutability":"nonpayable"},{"type":"function","name":"transferOwnership","inputs":[{"name":"newOwner","type":"address","internalType":"address"}],"outputs":[],"stateMutability":"nonpayable"},{"type":"event","name":"PoolRegistered","inputs":[{"name":"tokenA","type":"address","indexed":true,"internalType":"address"},{"name":"tokenB","type":"address","indexed":true,"internalType":"address"},{"name":"pool","type":"address","indexed":true,"internalType":"address"}],"anonymous":false},{"type":"event","name":"PoolRemoved","inputs":[{"name":"tokenA","type":"address","indexed":true,"internalType":"address"},{"name":"tokenB","type":"address","indexed":true,"internalType":"address"}],"anonymous":false},{"type":"event","name":"Swap","inputs":[{"name":"tokenIn","type":"address","indexed":true,"internalType":"address"},{"name":"tokenOut","type":"address","indexed":true,"internalType":"address"},{"name":"amountIn","type":"uint256","indexed":false,"internalType":"uint256"},{"name":"amountOut","type":"uint256","indexed":false,"internalType":"uint256"},{"name":"to","type":"address","indexed":true,"internalType":"address"}],"anonymous":false},{"type":"error","name":"ExcessiveInputAmount","inputs":[]},{"type":"error","name":"Expired","inputs":[]},{"type":"error","name":"InsufficientOutputAmount","inputs":[]},{"type":"error","name":"InvalidPath","inputs":[]},{"type":"error","name":"NotOwner","inputs":[]},{"type":"error","name":"PoolNotFound","inputs":[{"name":"tokenIn","type":"address","internalType":"address"},{"name":"tokenOut","type":"address","internalType":"address"}]},{"type":"error","name":"TransferFailed","inputs":[]},{"type":"error","name":"ZeroAddress","inputs":[]}],"bytecode":{"object":"0x608034608857601f610ec638819003918201601f19168301916001600160401b03831184841017608c57808492602094604052833981010312608857516001600160a01b0381169081900360885760015f558015607957600180546001600160a01b031916919091179055604051610e2590816100a18239f35b63d92e233d60e01b5f5260045ffd5b5f80fd5b634e487b7160e01b5f52604160045260245ffdfe60806040526004361015610011575f80fd5b5f3560e01c80630a9a2b721461097f57806338ed1739146106f2578063531aa03e146106b45780635e1e6325146105f0578063744b92e2146105625780638803dbee146102895780638da5cb5b14610261578063abd9084614610128578063b5217bb4146100f65763f2fde38b14610087575f80fd5b346100f25760203660031901126100f2576100a06109a0565b600154906001600160a01b03821633036100e3576001600160a01b03169081156100d4576001600160a01b03191617600155005b63d92e233d60e01b5f5260045ffd5b6330cd747160e01b5f5260045ffd5b5f80fd5b346100f25760203660031901126100f2576004355f526002602052602060018060a01b0360405f205416604051908152f35b346100f25760203660031901126100f2576101416109a0565b6001546001600160a01b031633036100e3576001600160a01b031680156100d45760405162fc63d160e41b8152602081600481855afa908115610237575f91610242575b50604051635f64b55b60e01b8152602081600481865afa908115610237575f91610208575b506101b58183610d89565b5f90815260026020526040812080546001600160a01b031916851790556001600160a01b0391821692909116907f61afef2e121f71511fab2583c5ac49a5dc1d7a8ad8ad91c44c8465f073a73ac49080a4005b61022a915060203d602011610230575b6102228183610ca4565b810190610d16565b836101aa565b503d610218565b6040513d5f823e3d90fd5b61025b915060203d602011610230576102228183610ca4565b82610185565b346100f2575f3660031901126100f2576001546040516001600160a01b039091168152602090f35b346100f25761029736610a06565b94929091944211610553576102aa610d35565b60028503610544578415610530576102c181610c90565b94600110156105305760206102d69101610c90565b6001600160a01b038216929083156100d4576102f3818784610a7a565b948511610521576103048187610cf2565b6040516323b872dd60e01b8152336004820152306024820152604481018790526001600160a01b0388169391906020816064815f895af1908115610237575f91610502575b50156104625760405163095ea7b360e01b81526001600160a01b0382166004820152602481018890526020816044815f895af1908115610237575f916104e3575b501561046257604051639f1d0f5960e01b81526001600160a01b039889166004820152602481018890526044810183905297602091899160649183915f91165af1968715610237575f976104af575b5086106104a05760405163a9059cbb60e01b81526001600160a01b039384166004820152602481018790529216916020816044815f875af1908115610237575f91610471575b5015610462577fb39c9bc43f811e1a7ce159c5f147458fdb80266bf23c17322013316e27e086d0604060209681519087825288820152a460015f55604051908152f35b6312171d8360e31b5f5260045ffd5b610493915060203d602011610499575b61048b8183610ca4565b810190610cda565b8661041f565b503d610481565b6342301c2360e01b5f5260045ffd5b9096506020813d6020116104db575b816104cb60209383610ca4565b810103126100f2575195876103d9565b3d91506104be565b6104fc915060203d6020116104995761048b8183610ca4565b8961038a565b61051b915060203d6020116104995761048b8183610ca4565b89610349565b63e1b0da4f60e01b5f5260045ffd5b634e487b7160e01b5f52603260045260245ffd5b6320db826760e01b5f5260045ffd5b630407b05b60e31b5f5260045ffd5b346100f25760403660031901126100f25761057b6109a0565b6105836109b6565b6001546001600160a01b031633036100e35761059f8183610d89565b5f90815260026020526040812080546001600160a01b03191690556001600160a01b0391821692909116907f987eb3c2f78454541205f72f34839b434c306c9eaf4922efd7c0c3060fdb2e4c9080a3005b346100f2576105fe366109cc565b906001600160a01b036106118383610cf2565b169182156106905760405163ca706bcf60e01b81526001600160a01b038316600482015260248101859052602081604481875afa8015610237575f9061065d575b602090604051908152f35b506020813d602011610688575b8161067760209383610ca4565b810103126100f25760209051610652565b3d915061066a565b631b27a82d60e11b5f9081526001600160a01b039283166004529116602452604490fd5b346100f25760403660031901126100f25760206106e06106d26109a0565b6106da6109b6565b90610cf2565b6040516001600160a01b039091168152f35b346100f25761070036610a06565b9392909193421161055357610713610d35565b600284036105445783156105305761072a81610c90565b936001101561053057602061073f9101610c90565b6001600160a01b038216929083156100d45761075b8186610cf2565b916001600160a01b038316801561095b576040516323b872dd60e01b8152336004820152306024820152604481018990526001600160a01b03881694906020816064815f8a5af1908115610237575f9161093c575b50156104625760405163095ea7b360e01b81526001600160a01b03919091166004820152602481018990526020816044815f895af1908115610237575f9161091d575b501561046257604051639f1d0f5960e01b81526001600160a01b039790971660048801526024870188905260448701829052602090879060649082905f905af1958615610237575f966108e9575b5085106104a05760405163a9059cbb60e01b81526001600160a01b039384166004820152602481018690529216916020816044815f875af1908115610237575f916108ca575b5015610462577fb39c9bc43f811e1a7ce159c5f147458fdb80266bf23c17322013316e27e086d0604060209681519081528688820152a460015f55604051908152f35b6108e3915060203d6020116104995761048b8183610ca4565b86610887565b9095506020813d602011610915575b8161090560209383610ca4565b810103126100f257519487610841565b3d91506108f8565b610936915060203d6020116104995761048b8183610ca4565b896107f3565b610955915060203d6020116104995761048b8183610ca4565b8a6107b0565b631b27a82d60e11b5f9081526001600160a01b038089166004528416602452604490fd5b346100f2576020610998610992366109cc565b91610a7a565b604051908152f35b600435906001600160a01b03821682036100f257565b602435906001600160a01b03821682036100f257565b60609060031901126100f257600435906024356001600160a01b03811681036100f257906044356001600160a01b03811681036100f25790565b9060a06003198301126100f257600435916024359160443567ffffffffffffffff81116100f257826023820112156100f25780600401359267ffffffffffffffff84116100f25760248460051b830101116100f25760240191906064356001600160a01b03811681036100f2579060843590565b91906001600160a01b03610a8e8383610cf2565b16918215610690575060405163dc5fa6c560e01b815290602082600481865afa918215610237575f92610c5c575b506040516319e36f3b60e01b815292602084600481845afa938415610237575f94610c27575b5060206004916040519283809262fc63d160e41b82525afa908115610237575f91610c08575b506001600160a01b03918216911603610c0357905b80831015610bb057818302918383041483151715610b9c576127108202918083046127101490151715610b9c5782810392818411610b9c576126f284029384046126f21491141715610b9c57818101809111610b9c575f198101908111610b9c578115610b88570490565b634e487b7160e01b5f52601260045260245ffd5b634e487b7160e01b5f52601160045260245ffd5b60405162461bcd60e51b815260206004820152602560248201527f476f6f6453776170526f757465723a20696e73756666696369656e7420726573604482015264657276657360d81b6064820152608490fd5b610b1d565b610c21915060203d602011610230576102228183610ca4565b5f610b08565b9093506020813d602011610c54575b81610c4360209383610ca4565b810103126100f25751926020610ae2565b3d9150610c36565b9091506020813d602011610c88575b81610c7860209383610ca4565b810103126100f25751905f610abc565b3d9150610c6b565b356001600160a01b03811681036100f25790565b90601f8019910116810190811067ffffffffffffffff821117610cc657604052565b634e487b7160e01b5f52604160045260245ffd5b908160209103126100f2575180151581036100f25790565b90610cfc91610d89565b5f908152600260205260409020546001600160a01b031690565b908160209103126100f257516001600160a01b03811681036100f25790565b60025f5414610d445760025f55565b60405162461bcd60e51b815260206004820152601f60248201527f5265656e7472616e637947756172643a207265656e7472616e742063616c6c006044820152606490fd5b6001600160a01b038281169082161015610dea57905b6040519060208201926bffffffffffffffffffffffff199060601b1683526bffffffffffffffffffffffff199060601b16603482015260288152610de4604882610ca4565b51902090565b610d9f56fea26469706673582212204cf8494f996c52b76393e4ad5bc3e527e659727fa9cebb948dd68b1afffb53de64736f6c63430008210033","linkReferences":{}},"methodIdentifiers":{"getAmountIn(uint256,address,address)":"0a9a2b72","getAmountOut(uint256,address,address)":"5e1e6325","getPool(address,address)":"531aa03e","owner()":"8da5cb5b","pools(bytes32)":"b5217bb4","registerPool(address)":"abd90846","removePool(address,address)":"744b92e2","swapExactTokensForTokens(uint256,uint256,address[],address,uint256)":"38ed1739","swapTokensForExactTokens(uint256,uint256,address[],address,uint256)":"8803dbee","transferOwnership(address)":"f2fde38b"},"id":57}