{"abi":[{"type":"constructor","inputs":[{"name":"_owner","type":"address","internalType":"address"}],"stateMutability":"nonpayable"},{"type":"function","name":"getAmountIn","inputs":[{"name":"amountOut","type":"uint256","internalType":"uint256"},{"name":"tokenIn","type":"address","internalType":"address"},{"name":"tokenOut","type":"address","internalType":"address"}],"outputs":[{"name":"amountIn","type":"uint256","internalType":"uint256"}],"stateMutability":"view"},{"type":"function","name":"getAmountOut","inputs":[{"name":"amountIn","type":"uint256","internalType":"uint256"},{"name":"tokenIn","type":"address","internalType":"address"},{"name":"tokenOut","type":"address","internalType":"address"}],"outputs":[{"name":"amountOut","type":"uint256","internalType":"uint256"}],"stateMutability":"view"},{"type":"function","name":"getPool","inputs":[{"name":"tokenIn","type":"address","internalType":"address"},{"name":"tokenOut","type":"address","internalType":"address"}],"outputs":[{"name":"","type":"address","internalType":"address"}],"stateMutability":"view"},{"type":"function","name":"owner","inputs":[],"outputs":[{"name":"","type":"address","internalType":"address"}],"stateMutability":"view"},{"type":"function","name":"pools","inputs":[{"name":"","type":"bytes32","internalType":"bytes32"}],"outputs":[{"name":"","type":"address","internalType":"address"}],"stateMutability":"view"},{"type":"function","name":"registerPool","inputs":[{"name":"pool","type":"address","internalType":"address"}],"outputs":[],"stateMutability":"nonpayable"},{"type":"function","name":"removePool","inputs":[{"name":"tokenA","type":"address","internalType":"address"},{"name":"tokenB","type":"address","internalType":"address"}],"outputs":[],"stateMutability":"nonpayable"},{"type":"function","name":"swapExactTokensForTokens","inputs":[{"name":"amountIn","type":"uint256","internalType":"uint256"},{"name":"amountOutMin","type":"uint256","internalType":"uint256"},{"name":"path","type":"address[]","internalType":"address[]"},{"name":"to","type":"address","internalType":"address"},{"name":"deadline","type":"uint256","internalType":"uint256"}],"outputs":[{"name":"amountOut","type":"uint256","internalType":"uint256"}],"stateMutability":"nonpayable"},{"type":"function","name":"swapTokensForExactTokens","inputs":[{"name":"amountOut","type":"uint256","internalType":"uint256"},{"name":"amountInMax","type":"uint256","internalType":"uint256"},{"name":"path","type":"address[]","internalType":"address[]"},{"name":"to","type":"address","internalType":"address"},{"name":"deadline","type":"uint256","internalType":"uint256"}],"outputs":[{"name":"amountIn","type":"uint256","internalType":"uint256"}],"stateMutability":"nonpayable"},{"type":"function","name":"transferOwnership","inputs":[{"name":"newOwner","type":"address","internalType":"address"}],"outputs":[],"stateMutability":"nonpayable"},{"type":"event","name":"PoolRegistered","inputs":[{"name":"tokenA","type":"address","indexed":true,"internalType":"address"},{"name":"tokenB","type":"address","indexed":true,"internalType":"address"},{"name":"pool","type":"address","indexed":true,"internalType":"address"}],"anonymous":false},{"type":"event","name":"PoolRemoved","inputs":[{"name":"tokenA","type":"address","indexed":true,"internalType":"address"},{"name":"tokenB","type":"address","indexed":true,"internalType":"address"}],"anonymous":false},{"type":"event","name":"Swap","inputs":[{"name":"tokenIn","type":"address","indexed":true,"internalType":"address"},{"name":"tokenOut","type":"address","indexed":true,"internalType":"address"},{"name":"amountIn","type":"uint256","indexed":false,"internalType":"uint256"},{"name":"amountOut","type":"uint256","indexed":false,"internalType":"uint256"},{"name":"to","type":"address","indexed":true,"internalType":"address"}],"anonymous":false},{"type":"error","name":"ExcessiveInputAmount","inputs":[]},{"type":"error","name":"Expired","inputs":[]},{"type":"error","name":"InsufficientOutputAmount","inputs":[]},{"type":"error","name":"InvalidPath","inputs":[]},{"type":"error","name":"NotOwner","inputs":[]},{"type":"error","name":"PoolNotFound","inputs":[{"name":"tokenIn","type":"address","internalType":"address"},{"name":"tokenOut","type":"address","internalType":"address"}]},{"type":"error","name":"TransferFailed","inputs":[]},{"type":"error","name":"ZeroAddress","inputs":[]}],"bytecode":{"object":"0x608034608357601f610e5038819003918201601f19168301916001600160401b03831184841017608757808492602094604052833981010312608357516001600160a01b0381169081900360835780156074575f80546001600160a01b031916919091179055604051610db4908161009c8239f35b63d92e233d60e01b5f5260045ffd5b5f80fd5b634e487b7160e01b5f52604160045260245ffdfe60806040526004361015610011575f80fd5b5f3560e01c80630a9a2b721461096257806338ed1739146106e1578063531aa03e146106a35780635e1e6325146105df578063744b92e2146105525780638803dbee146102855780638da5cb5b1461025e578063abd9084614610126578063b5217bb4146100f45763f2fde38b14610087575f80fd5b346100f05760203660031901126100f0576100a0610983565b5f54906001600160a01b03821633036100e1576001600160a01b03169081156100d2576001600160a01b031916175f55005b63d92e233d60e01b5f5260045ffd5b6330cd747160e01b5f5260045ffd5b5f80fd5b346100f05760203660031901126100f0576004355f526001602052602060018060a01b0360405f205416604051908152f35b346100f05760203660031901126100f05761013f610983565b5f546001600160a01b031633036100e1576001600160a01b031680156100d25760405162fc63d160e41b8152602081600481855afa908115610234575f9161023f575b50604051635f64b55b60e01b8152602081600481865afa908115610234575f91610205575b506101b28183610d18565b5f90815260016020526040812080546001600160a01b031916851790556001600160a01b0391821692909116907f61afef2e121f71511fab2583c5ac49a5dc1d7a8ad8ad91c44c8465f073a73ac49080a4005b610227915060203d60201161022d575b61021f8183610c87565b810190610cf9565b836101a7565b503d610215565b6040513d5f823e3d90fd5b610258915060203d60201161022d5761021f8183610c87565b82610182565b346100f0575f3660031901126100f0575f546040516001600160a01b039091168152602090f35b346100f057610293366109e9565b949290919442116105435760028503610534578415610520576102b581610c73565b94600110156105205760206102ca9101610c73565b6001600160a01b038216929083156100d2576102e7818784610a5d565b948511610511576102f88187610cd5565b6040516323b872dd60e01b8152336004820152306024820152604481018790526001600160a01b0388169391906020816064815f895af1908115610234575f916104f2575b50156104525760405163095ea7b360e01b81526001600160a01b0382166004820152602481018890526020816044815f895af1908115610234575f916104d3575b501561045257604051639f1d0f5960e01b81526001600160a01b039889166004820152602481018890526044810183905297602091899160649183915f91165af1968715610234575f9761049f575b5086106104905760405163a9059cbb60e01b81526001600160a01b039384166004820152602481018790529216916020816044815f875af1908115610234575f91610461575b5015610452577fb39c9bc43f811e1a7ce159c5f147458fdb80266bf23c17322013316e27e086d0604060209681519087825288820152a4604051908152f35b6312171d8360e31b5f5260045ffd5b610483915060203d602011610489575b61047b8183610c87565b810190610cbd565b86610413565b503d610471565b6342301c2360e01b5f5260045ffd5b9096506020813d6020116104cb575b816104bb60209383610c87565b810103126100f0575195876103cd565b3d91506104ae565b6104ec915060203d6020116104895761047b8183610c87565b8961037e565b61050b915060203d6020116104895761047b8183610c87565b8961033d565b63e1b0da4f60e01b5f5260045ffd5b634e487b7160e01b5f52603260045260245ffd5b6320db826760e01b5f5260045ffd5b630407b05b60e31b5f5260045ffd5b346100f05760403660031901126100f05761056b610983565b610573610999565b5f546001600160a01b031633036100e15761058e8183610d18565b5f90815260016020526040812080546001600160a01b03191690556001600160a01b0391821692909116907f987eb3c2f78454541205f72f34839b434c306c9eaf4922efd7c0c3060fdb2e4c9080a3005b346100f0576105ed366109af565b906001600160a01b036106008383610cd5565b1691821561067f5760405163ca706bcf60e01b81526001600160a01b038316600482015260248101859052602081604481875afa8015610234575f9061064c575b602090604051908152f35b506020813d602011610677575b8161066660209383610c87565b810103126100f05760209051610641565b3d9150610659565b631b27a82d60e11b5f9081526001600160a01b039283166004529116602452604490fd5b346100f05760403660031901126100f05760206106cf6106c1610983565b6106c9610999565b90610cd5565b6040516001600160a01b039091168152f35b346100f0576106ef366109e9565b9392909193421161054357600284036105345783156105205761071181610c73565b93600110156105205760206107269101610c73565b6001600160a01b038216929083156100d2576107428186610cd5565b916001600160a01b038316801561093e576040516323b872dd60e01b8152336004820152306024820152604481018990526001600160a01b03881694906020816064815f8a5af1908115610234575f9161091f575b50156104525760405163095ea7b360e01b81526001600160a01b03919091166004820152602481018990526020816044815f895af1908115610234575f91610900575b501561045257604051639f1d0f5960e01b81526001600160a01b039790971660048801526024870188905260448701829052602090879060649082905f905af1958615610234575f966108cc575b5085106104905760405163a9059cbb60e01b81526001600160a01b039384166004820152602481018690529216916020816044815f875af1908115610234575f916108ad575b5015610452577fb39c9bc43f811e1a7ce159c5f147458fdb80266bf23c17322013316e27e086d0604060209681519081528688820152a4604051908152f35b6108c6915060203d6020116104895761047b8183610c87565b8661086e565b9095506020813d6020116108f8575b816108e860209383610c87565b810103126100f057519487610828565b3d91506108db565b610919915060203d6020116104895761047b8183610c87565b896107da565b610938915060203d6020116104895761047b8183610c87565b8a610797565b631b27a82d60e11b5f9081526001600160a01b038089166004528416602452604490fd5b346100f057602061097b610975366109af565b91610a5d565b604051908152f35b600435906001600160a01b03821682036100f057565b602435906001600160a01b03821682036100f057565b60609060031901126100f057600435906024356001600160a01b03811681036100f057906044356001600160a01b03811681036100f05790565b9060a06003198301126100f057600435916024359160443567ffffffffffffffff81116100f057826023820112156100f05780600401359267ffffffffffffffff84116100f05760248460051b830101116100f05760240191906064356001600160a01b03811681036100f0579060843590565b91906001600160a01b03610a718383610cd5565b1691821561067f575060405163dc5fa6c560e01b815290602082600481865afa918215610234575f92610c3f575b506040516319e36f3b60e01b815292602084600481845afa938415610234575f94610c0a575b5060206004916040519283809262fc63d160e41b82525afa908115610234575f91610beb575b506001600160a01b03918216911603610be657905b80831015610b9357818302918383041483151715610b7f576127108202918083046127101490151715610b7f5782810392818411610b7f576126f284029384046126f21491141715610b7f57818101809111610b7f575f198101908111610b7f578115610b6b570490565b634e487b7160e01b5f52601260045260245ffd5b634e487b7160e01b5f52601160045260245ffd5b60405162461bcd60e51b815260206004820152602560248201527f476f6f6453776170526f757465723a20696e73756666696369656e7420726573604482015264657276657360d81b6064820152608490fd5b610b00565b610c04915060203d60201161022d5761021f8183610c87565b5f610aeb565b9093506020813d602011610c37575b81610c2660209383610c87565b810103126100f05751926020610ac5565b3d9150610c19565b9091506020813d602011610c6b575b81610c5b60209383610c87565b810103126100f05751905f610a9f565b3d9150610c4e565b356001600160a01b03811681036100f05790565b90601f8019910116810190811067ffffffffffffffff821117610ca957604052565b634e487b7160e01b5f52604160045260245ffd5b908160209103126100f0575180151581036100f05790565b90610cdf91610d18565b5f908152600160205260409020546001600160a01b031690565b908160209103126100f057516001600160a01b03811681036100f05790565b6001600160a01b038281169082161015610d7957905b6040519060208201926bffffffffffffffffffffffff199060601b1683526bffffffffffffffffffffffff199060601b16603482015260288152610d73604882610c87565b51902090565b610d2e56fea2646970667358221220d81f851e4dcb152acb4092ed256572c37947f68f75d1193eaa9eb7390fdc7cf564736f6c63430008210033","linkReferences":{}},"methodIdentifiers":{"getAmountIn(uint256,address,address)":"0a9a2b72","getAmountOut(uint256,address,address)":"5e1e6325","getPool(address,address)":"531aa03e","owner()":"8da5cb5b","pools(bytes32)":"b5217bb4","registerPool(address)":"abd90846","removePool(address,address)":"744b92e2","swapExactTokensForTokens(uint256,uint256,address[],address,uint256)":"38ed1739","swapTokensForExactTokens(uint256,uint256,address[],address,uint256)":"8803dbee","transferOwnership(address)":"f2fde38b"},"id":31}