{"abi":[{"type":"constructor","inputs":[{"name":"_pool","type":"address","internalType":"address"},{"name":"_underlying","type":"address","internalType":"address"},{"name":"_name","type":"string","internalType":"string"},{"name":"_symbol","type":"string","internalType":"string"}],"stateMutability":"nonpayable"},{"type":"function","name":"allowance","inputs":[{"name":"","type":"address","internalType":"address"},{"name":"","type":"address","internalType":"address"}],"outputs":[{"name":"","type":"uint256","internalType":"uint256"}],"stateMutability":"view"},{"type":"function","name":"approve","inputs":[{"name":"spender","type":"address","internalType":"address"},{"name":"amount","type":"uint256","internalType":"uint256"}],"outputs":[{"name":"","type":"bool","internalType":"bool"}],"stateMutability":"nonpayable"},{"type":"function","name":"balanceOf","inputs":[{"name":"account","type":"address","internalType":"address"}],"outputs":[{"name":"","type":"uint256","internalType":"uint256"}],"stateMutability":"view"},{"type":"function","name":"burn","inputs":[{"name":"from","type":"address","internalType":"address"},{"name":"amount","type":"uint256","internalType":"uint256"},{"name":"index","type":"uint256","internalType":"uint256"}],"outputs":[],"stateMutability":"nonpayable"},{"type":"function","name":"decimals","inputs":[],"outputs":[{"name":"","type":"uint8","internalType":"uint8"}],"stateMutability":"view"},{"type":"function","name":"mint","inputs":[{"name":"to","type":"address","internalType":"address"},{"name":"amount","type":"uint256","internalType":"uint256"},{"name":"index","type":"uint256","internalType":"uint256"}],"outputs":[],"stateMutability":"nonpayable"},{"type":"function","name":"mintToTreasury","inputs":[{"name":"treasury","type":"address","internalType":"address"},{"name":"amount","type":"uint256","internalType":"uint256"},{"name":"index","type":"uint256","internalType":"uint256"}],"outputs":[],"stateMutability":"nonpayable"},{"type":"function","name":"name","inputs":[],"outputs":[{"name":"","type":"string","internalType":"string"}],"stateMutability":"view"},{"type":"function","name":"pool","inputs":[],"outputs":[{"name":"","type":"address","internalType":"address"}],"stateMutability":"view"},{"type":"function","name":"scaledBalanceOf","inputs":[{"name":"account","type":"address","internalType":"address"}],"outputs":[{"name":"","type":"uint256","internalType":"uint256"}],"stateMutability":"view"},{"type":"function","name":"scaledTotalSupply","inputs":[],"outputs":[{"name":"","type":"uint256","internalType":"uint256"}],"stateMutability":"view"},{"type":"function","name":"symbol","inputs":[],"outputs":[{"name":"","type":"string","internalType":"string"}],"stateMutability":"view"},{"type":"function","name":"totalSupply","inputs":[],"outputs":[{"name":"","type":"uint256","internalType":"uint256"}],"stateMutability":"view"},{"type":"function","name":"transfer","inputs":[{"name":"to","type":"address","internalType":"address"},{"name":"amount","type":"uint256","internalType":"uint256"}],"outputs":[{"name":"","type":"bool","internalType":"bool"}],"stateMutability":"nonpayable"},{"type":"function","name":"transferFrom","inputs":[{"name":"from","type":"address","internalType":"address"},{"name":"to","type":"address","internalType":"address"},{"name":"amount","type":"uint256","internalType":"uint256"}],"outputs":[{"name":"","type":"bool","internalType":"bool"}],"stateMutability":"nonpayable"},{"type":"function","name":"underlyingAsset","inputs":[],"outputs":[{"name":"","type":"address","internalType":"address"}],"stateMutability":"view"},{"type":"event","name":"Approval","inputs":[{"name":"owner","type":"address","indexed":true,"internalType":"address"},{"name":"spender","type":"address","indexed":true,"internalType":"address"},{"name":"value","type":"uint256","indexed":false,"internalType":"uint256"}],"anonymous":false},{"type":"event","name":"Burn","inputs":[{"name":"from","type":"address","indexed":true,"internalType":"address"},{"name":"amount","type":"uint256","indexed":false,"internalType":"uint256"},{"name":"scaledAmount","type":"uint256","indexed":false,"internalType":"uint256"},{"name":"index","type":"uint256","indexed":false,"internalType":"uint256"}],"anonymous":false},{"type":"event","name":"Mint","inputs":[{"name":"to","type":"address","indexed":true,"internalType":"address"},{"name":"amount","type":"uint256","indexed":false,"internalType":"uint256"},{"name":"scaledAmount","type":"uint256","indexed":false,"internalType":"uint256"},{"name":"index","type":"uint256","indexed":false,"internalType":"uint256"}],"anonymous":false},{"type":"event","name":"Transfer","inputs":[{"name":"from","type":"address","indexed":true,"internalType":"address"},{"name":"to","type":"address","indexed":true,"internalType":"address"},{"name":"value","type":"uint256","indexed":false,"internalType":"uint256"}],"anonymous":false}],"bytecode":{"object":"0x60c08060405234610202576111b8803803809161001c8285610413565b83398101906080818303126102025761003481610436565b61004060208301610436565b60408301519092906001600160401b038111610202578461006291830161044a565b60608201519094906001600160401b03811161020257610082920161044a565b608082905260a083905283516001600160401b03811161031c575f54600181811c91168015610409575b60208210146102fe57601f811161039c575b50602094601f821160011461033b579481929394955f92610330575b50508160011b915f199060031b1c1916175f555b8051906001600160401b03821161031c57600154600181811c91168015610312575b60208210146102fe57601f8111610290575b50602090601f83116001146102245792825f95936044936020968892610219575b50508160011b9187199060031b1c1916176001555b60405163095ea7b360e01b81526001600160a01b039182166004820152851960248201529485938492165af1801561020e576101d2575b604051610d1890816104a0823960805181818160e0015281816102c001528181610653015281816106970152610b38015260a05181818161045c0152610b000152f35b6020813d602011610206575b816101eb60209383610413565b81010312610202575180151503610202575f61018f565b5f80fd5b3d91506101de565b6040513d5f823e3d90fd5b015190505f80610143565b90601f1983169160015f52815f20925f5b81811061027857509360449360209693600193835f9a9810610260575b505050811b01600155610158565b0151881960f88460031b161c191690555f8080610252565b92936020600181928786015181550195019301610235565b828111156101225760015f52601f830160051c7fb10e2d527612073b26eecdfd717e6a320cf44b4afac2b0732d9fcbe2b7fa0cf6602085106102f6575b81601f9101920160051c03905f5b8281106102e9575050610122565b5f828201556001016102db565b5f91506102cd565b634e487b7160e01b5f52602260045260245ffd5b90607f1690610110565b634e487b7160e01b5f52604160045260245ffd5b015190505f806100da565b601f198216955f8052805f20915f5b8881106103845750836001959697981061036c575b505050811b015f556100ee565b01515f1960f88460031b161c191690555f808061035f565b9192602060018192868501518155019401920161034a565b818111156100be575f8052601f820160051c7f290decd9548b62a8d60345a988386fc84ba6bc95484008f6362f93160ef3e56360208410610401575b81601f9101920160051c03905f5b8281106103f45750506100be565b5f828201556001016103e6565b5f91506103d8565b90607f16906100ac565b601f909101601f19168101906001600160401b0382119082101761031c57604052565b51906001600160a01b038216820361020257565b81601f82011215610202578051906001600160401b03821161031c576040519261047e601f8401601f191660200185610413565b8284526020838301011161020257815f9260208093018386015e830101529056fe60806040526004361015610011575f80fd5b5f3560e01c806306fdde031461081e578063095ea7b3146107a5578063156e29f61461068257806316f0115b1461063e57806318160ddd1461060d5780631da24f3e146105d557806323b872dd146104fe578063313ce567146104e357806370a082311461048b5780637158da7c1461044757806395d89b4114610343578063a9059cbb14610312578063b1bf962d146102f5578063b848f5b1146102a8578063dd62ed3e146102585763f5298aca146100c9575f80fd5b34610254576100d736610962565b90919061010e337f00000000000000000000000000000000000000000000000000000000000000006001600160a01b03161461098c565b676765c793fa10079d601b1b8302838104676765c793fa10079d601b1b1484151715610240578161013e91610a09565b5f1981019081116102405781610153916109eb565b9160018060a01b031691825f5260026020528060405f2054106101ef575f93837f743033787f4738ff4d6a7225ce2bd0977ee5f86b91a902a58f5e4d0b297b46445f516020610cc35f395f51905f529460209483895260028652604089206101bc828254610a16565b90556101ca81600354610a16565b600355604080518681526020810192909252810191909152606090a2604051908152a3005b60405162461bcd60e51b815260206004820152602360248201527f476f6f644c656e64546f6b656e3a206275726e20657863656564732062616c616044820152626e636560e81b6064820152608490fd5b634e487b7160e01b5f52601160045260245ffd5b5f80fd5b3461025457604036600319011261025457610271610936565b61027961094c565b6001600160a01b039182165f908152600460209081526040808320949093168252928352819020549051908152f35b34610254576102f36102b936610962565b916102ee337f00000000000000000000000000000000000000000000000000000000000000006001600160a01b03161461098c565b610a23565b005b34610254575f366003190112610254576020600354604051908152f35b346102545760403660031901126102545761033861032e610936565b6024359033610bd3565b602060405160018152f35b34610254575f366003190112610254576040515f6001548060011c9060018116801561043d575b6020831081146104295782855290811561040557506001146103a7575b6103a383610397818503826108d6565b6040519182918261090c565b0390f35b60015f9081527fb10e2d527612073b26eecdfd717e6a320cf44b4afac2b0732d9fcbe2b7fa0cf6939250905b8082106103eb57509091508101602001610397610387565b9192600181602092548385880101520191019092916103d3565b60ff191660208086019190915291151560051b840190910191506103979050610387565b634e487b7160e01b5f52602260045260245ffd5b91607f169161036a565b34610254575f366003190112610254576040517f00000000000000000000000000000000000000000000000000000000000000006001600160a01b03168152602090f35b34610254576020366003190112610254576020676765c793fa10079d601b1b6104da6104b5610936565b6104bd610ae3565b6001600160a01b039091165f9081526002855260409020546109d8565b04604051908152f35b34610254575f36600319011261025457602060405160128152f35b3461025457606036600319011261025457610517610936565b61051f61094c565b6001600160a01b0382165f8181526004602090815260408083203384529091529020549260443592916001850161055c575b506103389350610bd3565b838510610590576105708461033896610a16565b5f9182526004602090815260408084203385529091529091205584610551565b60405162461bcd60e51b815260206004820152601860248201527f476f6f644c656e64546f6b656e3a20616c6c6f77616e636500000000000000006044820152606490fd5b34610254576020366003190112610254576001600160a01b036105f6610936565b165f526002602052602060405f2054604051908152f35b34610254575f366003190112610254576020676765c793fa10079d601b1b6104da610636610ae3565b6003546109d8565b34610254575f366003190112610254576040517f00000000000000000000000000000000000000000000000000000000000000006001600160a01b03168152602090f35b346102545761069036610962565b916106c5337f00000000000000000000000000000000000000000000000000000000000000006001600160a01b03161461098c565b676765c793fa10079d601b1b8202828104676765c793fa10079d601b1b148315171561024057836106f5916109eb565b908115610760575f925f516020610cc35f395f51905f52927fb4c03061fb5b7fed76389d5af8f2e0ddb09f8c70d1333abbb62582835e10accb60209360018060a01b03169687928388526002865260408820610752828254610a09565b90556101ca81600354610a09565b60405162461bcd60e51b815260206004820152601f60248201527f476f6f644c656e64546f6b656e3a207a65726f207363616c6564206d696e74006044820152606490fd5b34610254576040366003190112610254576107be610936565b335f8181526004602090815260408083206001600160a01b03909516808452948252918290206024359081905591519182527f8c5be1e5ebec7d5bd14f71427d1e84f3dd0314c0f7b2291e5b200ac8c7c3b92591a3602060405160018152f35b34610254575f366003190112610254576040515f5f548060011c906001811680156108cc575b602083108114610429578285529081156104055750600114610870576103a383610397818503826108d6565b5f8080527f290decd9548b62a8d60345a988386fc84ba6bc95484008f6362f93160ef3e563939250905b8082106108b257509091508101602001610397610387565b91926001816020925483858801015201910190929161089a565b91607f1691610844565b90601f8019910116810190811067ffffffffffffffff8211176108f857604052565b634e487b7160e01b5f52604160045260245ffd5b602060409281835280519182918282860152018484015e5f828201840152601f01601f1916010190565b600435906001600160a01b038216820361025457565b602435906001600160a01b038216820361025457565b6060906003190112610254576004356001600160a01b038116810361025457906024359060443590565b1561099357565b60405162461bcd60e51b815260206004820152601e60248201527f476f6f644c656e64546f6b656e3a2063616c6c6572206e6f7420706f6f6c00006044820152606490fd5b8181029291811591840414171561024057565b81156109f5570490565b634e487b7160e01b5f52601260045260245ffd5b9190820180921161024057565b9190820391821161024057565b8115610ade57676765c793fa10079d601b1b8202828104676765c793fa10079d601b1b03610240575f925f516020610cc35f395f51905f52927fb4c03061fb5b7fed76389d5af8f2e0ddb09f8c70d1333abbb62582835e10accb610a89876020956109eb565b9160018060a01b03169687928388526002865260408820610aab828254610a09565b9055610ab981600354610a09565b600355604080518681526020810192909252810191909152606090a2604051908152a3565b505050565b5f806040516020810190631cc0ec8b60e21b825260018060a01b037f000000000000000000000000000000000000000000000000000000000000000016602482015260248152610b346044826108d6565b51907f00000000000000000000000000000000000000000000000000000000000000005afa3d15610bcb573d9067ffffffffffffffff82116108f85760405191610b88601f8201601f1916602001846108d6565b82523d5f602084013e5b80610bc0575b610bac5750676765c793fa10079d601b1b90565b602081805181010312610254576020015190565b506020815114610b98565b606090610b92565b91610bdc610ae3565b676765c793fa10079d601b1b820290828204676765c793fa10079d601b1b148315171561024057610c0c916109eb565b9260018060a01b031691825f5260026020528360405f205410610c7d575f516020610cc35f395f51905f5291602091845f526002835260405f20610c51878254610a16565b905560018060a01b031694855f5260028352610c7260405f20918254610a09565b9055604051908152a3565b60405162461bcd60e51b815260206004820152601b60248201527f476f6f644c656e64546f6b656e3a20696e73756666696369656e7400000000006044820152606490fdfeddf252ad1be2c89b69c2b068fc378daa952ba7f163c4a11628f55a4df523b3efa264697066735822122005857db5fb0e82cd02c2442e5a57b14652ab7ac92290f2fde879c9eaa9007a2b64736f6c63430008210033","linkReferences":{}},"methodIdentifiers":{"allowance(address,address)":"dd62ed3e","approve(address,uint256)":"095ea7b3","balanceOf(address)":"70a08231","burn(address,uint256,uint256)":"f5298aca","decimals()":"313ce567","mint(address,uint256,uint256)":"156e29f6","mintToTreasury(address,uint256,uint256)":"b848f5b1","name()":"06fdde03","pool()":"16f0115b","scaledBalanceOf(address)":"1da24f3e","scaledTotalSupply()":"b1bf962d","symbol()":"95d89b41","totalSupply()":"18160ddd","transfer(address,uint256)":"a9059cbb","transferFrom(address,address,uint256)":"23b872dd","underlyingAsset()":"7158da7c"},"id":26}