{"abi":[{"type":"constructor","inputs":[{"name":"_collateral","type":"address","internalType":"address"},{"name":"_admin","type":"address","internalType":"address"}],"stateMutability":"nonpayable"},{"type":"function","name":"acceptAdmin","inputs":[],"outputs":[],"stateMutability":"nonpayable"},{"type":"function","name":"admin","inputs":[],"outputs":[{"name":"","type":"address","internalType":"address"}],"stateMutability":"view"},{"type":"function","name":"balances","inputs":[{"name":"","type":"address","internalType":"address"}],"outputs":[{"name":"","type":"uint256","internalType":"uint256"}],"stateMutability":"view"},{"type":"function","name":"collateral","inputs":[],"outputs":[{"name":"","type":"address","internalType":"contract IMarginToken"}],"stateMutability":"view"},{"type":"function","name":"credit","inputs":[{"name":"user","type":"address","internalType":"address"},{"name":"amount","type":"uint256","internalType":"uint256"}],"outputs":[],"stateMutability":"nonpayable"},{"type":"function","name":"debit","inputs":[{"name":"user","type":"address","internalType":"address"},{"name":"amount","type":"uint256","internalType":"uint256"}],"outputs":[],"stateMutability":"nonpayable"},{"type":"function","name":"deposit","inputs":[{"name":"amount","type":"uint256","internalType":"uint256"}],"outputs":[],"stateMutability":"nonpayable"},{"type":"function","name":"flushFee","inputs":[{"name":"to","type":"address","internalType":"address"},{"name":"amount","type":"uint256","internalType":"uint256"}],"outputs":[],"stateMutability":"nonpayable"},{"type":"function","name":"pendingAdmin","inputs":[],"outputs":[{"name":"","type":"address","internalType":"address"}],"stateMutability":"view"},{"type":"function","name":"perpEngine","inputs":[],"outputs":[{"name":"","type":"address","internalType":"address"}],"stateMutability":"view"},{"type":"function","name":"setPerpEngine","inputs":[{"name":"engine","type":"address","internalType":"address"}],"outputs":[],"stateMutability":"nonpayable"},{"type":"function","name":"totalDeposited","inputs":[],"outputs":[{"name":"","type":"uint256","internalType":"uint256"}],"stateMutability":"view"},{"type":"function","name":"transfer","inputs":[{"name":"from","type":"address","internalType":"address"},{"name":"to","type":"address","internalType":"address"},{"name":"amount","type":"uint256","internalType":"uint256"}],"outputs":[],"stateMutability":"nonpayable"},{"type":"function","name":"transferAdmin","inputs":[{"name":"newAdmin","type":"address","internalType":"address"}],"outputs":[],"stateMutability":"nonpayable"},{"type":"function","name":"withdraw","inputs":[{"name":"amount","type":"uint256","internalType":"uint256"}],"outputs":[],"stateMutability":"nonpayable"},{"type":"event","name":"AdminTransferInitiated","inputs":[{"name":"previousAdmin","type":"address","indexed":true,"internalType":"address"},{"name":"pendingAdmin","type":"address","indexed":true,"internalType":"address"}],"anonymous":false},{"type":"event","name":"AdminTransferred","inputs":[{"name":"previousAdmin","type":"address","indexed":true,"internalType":"address"},{"name":"newAdmin","type":"address","indexed":true,"internalType":"address"}],"anonymous":false},{"type":"event","name":"Deposited","inputs":[{"name":"user","type":"address","indexed":true,"internalType":"address"},{"name":"amount","type":"uint256","indexed":false,"internalType":"uint256"}],"anonymous":false},{"type":"event","name":"EngineCredit","inputs":[{"name":"user","type":"address","indexed":true,"internalType":"address"},{"name":"amount","type":"uint256","indexed":false,"internalType":"uint256"}],"anonymous":false},{"type":"event","name":"EngineDebit","inputs":[{"name":"user","type":"address","indexed":true,"internalType":"address"},{"name":"amount","type":"uint256","indexed":false,"internalType":"uint256"}],"anonymous":false},{"type":"event","name":"Withdrawn","inputs":[{"name":"user","type":"address","indexed":true,"internalType":"address"},{"name":"amount","type":"uint256","indexed":false,"internalType":"uint256"}],"anonymous":false},{"type":"error","name":"InsufficientBalance","inputs":[{"name":"have","type":"uint256","internalType":"uint256"},{"name":"need","type":"uint256","internalType":"uint256"}]},{"type":"error","name":"NotAdmin","inputs":[]},{"type":"error","name":"NotEngine","inputs":[]},{"type":"error","name":"NotPendingAdmin","inputs":[]},{"type":"error","name":"TransferFailed","inputs":[]},{"type":"error","name":"ZeroAddress","inputs":[]},{"type":"error","name":"ZeroAmount","inputs":[]}],"bytecode":{"object":"0x60a0346100c757601f610a1d38819003918201601f19168301916001600160401b038311848410176100cb5780849260409485528339810103126100c757610052602061004b836100df565b92016100df565b6001600160a01b039091169081156100b8576001600160a01b03169081156100b857608052600180546001600160a01b03191691909117905560405161092990816100f48239608051818181610172015281816102ba015281816103e201526106de0152f35b63d92e233d60e01b5f5260045ffd5b5f80fd5b634e487b7160e01b5f52604160045260245ffd5b51906001600160a01b03821682036100c75756fe60806040526004361015610011575f80fd5b5f3560e01c80630e18b681146107e357806326782247146107bb57806327e235e3146107835780632e1a7d4d1461065a57806348ba4d2b14610633578063636be27a1461057d57806375829def14610507578063b619daf7146104a4578063b6b55f251461039f578063beabacc8146102e9578063d8dfeb45146102a5578063ef6506db14610219578063f40818b614610107578063f851a440146100df5763ff50abdc146100be575f80fd5b346100db575f3660031901126100db576020600454604051908152f35b5f80fd5b346100db575f3660031901126100db576001546040516001600160a01b039091168152602090f35b346100db5760403660031901126100db57610120610861565b5f546001600160a01b0316330361020a576001600160a01b038116156101fb5760405163a9059cbb60e01b81526001600160a01b0390911660048201526024803590820152602081806044810103815f7f00000000000000000000000000000000000000000000000000000000000000006001600160a01b03165af19081156101f0575f916101c1575b50156101b257005b6312171d8360e31b5f5260045ffd5b6101e3915060203d6020116101e9575b6101db8183610898565b8101906108ce565b816101aa565b503d6101d1565b6040513d5f823e3d90fd5b63d92e233d60e01b5f5260045ffd5b63027da19960e41b5f5260045ffd5b346100db5760403660031901126100db57610232610861565b5f5460243591906001600160a01b0316330361020a5760207f9f7132b931bb99c5679b120dd9dc04eab8b1e91f4be7f2c40da4c0876823f4dc9160018060a01b031692835f526003825260405f2061028b8282546108e6565b9055610299816004546108e6565b600455604051908152a2005b346100db575f3660031901126100db576040517f00000000000000000000000000000000000000000000000000000000000000006001600160a01b03168152602090f35b346100db5760603660031901126100db57610302610861565b6024356001600160a01b038116908190036100db575f5460443592906001600160a01b0316330361020a576001600160a01b03165f81815260036020526040902054831161037c575f52600360205260405f20610360838254610877565b90555f52600360205261037860405f209182546108e6565b9055005b90505f52600360205260405f205463cf47918160e01b5f5260045260245260445ffd5b346100db5760203660031901126100db576004358015610495576040516323b872dd60e01b8152336004820152306024820152604481018290526020816064815f7f00000000000000000000000000000000000000000000000000000000000000006001600160a01b03165af19081156101f0575f91610476575b50156101b257335f52600360205260405f206104378282546108e6565b9055610445816004546108e6565b6004556040519081527f2da466a7b24304f47e87fa2e1e5a81b9831ce54fec19055ce277ca2f39ba42c460203392a2005b61048f915060203d6020116101e9576101db8183610898565b8261041a565b631f2a200560e01b5f5260045ffd5b346100db5760203660031901126100db576104bd610861565b6001546001600160a01b031633036104f8576001600160a01b031680156101fb576bffffffffffffffffffffffff60a01b5f5416175f555f80f35b637bfa4b9f60e01b5f5260045ffd5b346100db5760203660031901126100db57610520610861565b6001546001600160a01b031690338290036104f8576001600160a01b03169081156101fb57600280546001600160a01b031916831790557fb4d7bcb4d9a5d6ef6e827e3b1554e5a2578ad9ca843903d42b05d08bfa3458945f80a3005b346100db5760403660031901126100db57610596610861565b5f5460243591906001600160a01b0316330361020a5760018060a01b031690815f5260036020528060405f2054106106105760207fc1bcf241560b7da56189cf02ba2c78298ad5afb7dd45b8a47e3c6930b389a23091835f526003825260405f20610602828254610877565b905561029981600454610877565b5f9182526003602052604082205463cf47918160e01b8352600452602452604490fd5b346100db575f3660031901126100db575f546040516001600160a01b039091168152602090f35b346100db5760203660031901126100db57600435801561049557335f5260036020528060405f20541061076157335f52600360205260405f2061069e828254610877565b90556106ac81600454610877565b600490815560405163a9059cbb60e01b81523391810191909152602481018290526020816044815f6001600160a01b037f0000000000000000000000000000000000000000000000000000000000000000165af19081156101f0575f91610742575b50156101b2576040519081527f7084f5476618d8e60b11ef0d7d3f06914655adb8793e28ff7f018d4c76d505d560203392a2005b61075b915060203d6020116101e9576101db8183610898565b8261070e565b335f52600360205260405f205463cf47918160e01b5f5260045260245260445ffd5b346100db5760203660031901126100db576001600160a01b036107a4610861565b165f526003602052602060405f2054604051908152f35b346100db575f3660031901126100db576002546040516001600160a01b039091168152602090f35b346100db575f3660031901126100db576002546001600160a01b038116903382900361085257600180546001600160a01b0319808216851790925591166002556001600160a01b03167ff8ccb027dfcd135e000e9d45e6cc2d662578a8825d4c45b5e32e0adf67e79ec65f80a3005b63058d9a1b60e01b5f5260045ffd5b600435906001600160a01b03821682036100db57565b9190820391821161088457565b634e487b7160e01b5f52601160045260245ffd5b90601f8019910116810190811067ffffffffffffffff8211176108ba57604052565b634e487b7160e01b5f52604160045260245ffd5b908160209103126100db575180151581036100db5790565b919082018092116108845756fea2646970667358221220108b37b7ed6c761ff629ab09a4bcf5cc09efed094df43c736d48a2aa1627217464736f6c63430008210033","linkReferences":{}},"methodIdentifiers":{"acceptAdmin()":"0e18b681","admin()":"f851a440","balances(address)":"27e235e3","collateral()":"d8dfeb45","credit(address,uint256)":"ef6506db","debit(address,uint256)":"636be27a","deposit(uint256)":"b6b55f25","flushFee(address,uint256)":"f40818b6","pendingAdmin()":"26782247","perpEngine()":"48ba4d2b","setPerpEngine(address)":"b619daf7","totalDeposited()":"ff50abdc","transfer(address,address,uint256)":"beabacc8","transferAdmin(address)":"75829def","withdraw(uint256)":"2e1a7d4d"},"id":31}