{"abi":[{"type":"constructor","inputs":[{"name":"_collateral","type":"address","internalType":"address"},{"name":"_admin","type":"address","internalType":"address"}],"stateMutability":"nonpayable"},{"type":"function","name":"acceptAdmin","inputs":[],"outputs":[],"stateMutability":"nonpayable"},{"type":"function","name":"admin","inputs":[],"outputs":[{"name":"","type":"address","internalType":"address"}],"stateMutability":"view"},{"type":"function","name":"balances","inputs":[{"name":"","type":"address","internalType":"address"}],"outputs":[{"name":"","type":"uint256","internalType":"uint256"}],"stateMutability":"view"},{"type":"function","name":"collateral","inputs":[],"outputs":[{"name":"","type":"address","internalType":"contract IMarginToken"}],"stateMutability":"view"},{"type":"function","name":"credit","inputs":[{"name":"user","type":"address","internalType":"address"},{"name":"amount","type":"uint256","internalType":"uint256"}],"outputs":[],"stateMutability":"nonpayable"},{"type":"function","name":"debit","inputs":[{"name":"user","type":"address","internalType":"address"},{"name":"amount","type":"uint256","internalType":"uint256"}],"outputs":[],"stateMutability":"nonpayable"},{"type":"function","name":"deposit","inputs":[{"name":"amount","type":"uint256","internalType":"uint256"}],"outputs":[],"stateMutability":"nonpayable"},{"type":"function","name":"flushFee","inputs":[{"name":"to","type":"address","internalType":"address"},{"name":"amount","type":"uint256","internalType":"uint256"}],"outputs":[],"stateMutability":"nonpayable"},{"type":"function","name":"pendingAdmin","inputs":[],"outputs":[{"name":"","type":"address","internalType":"address"}],"stateMutability":"view"},{"type":"function","name":"perpEngine","inputs":[],"outputs":[{"name":"","type":"address","internalType":"address"}],"stateMutability":"view"},{"type":"function","name":"setPerpEngine","inputs":[{"name":"engine","type":"address","internalType":"address"}],"outputs":[],"stateMutability":"nonpayable"},{"type":"function","name":"totalDeposited","inputs":[],"outputs":[{"name":"","type":"uint256","internalType":"uint256"}],"stateMutability":"view"},{"type":"function","name":"transfer","inputs":[{"name":"from","type":"address","internalType":"address"},{"name":"to","type":"address","internalType":"address"},{"name":"amount","type":"uint256","internalType":"uint256"}],"outputs":[],"stateMutability":"nonpayable"},{"type":"function","name":"transferAdmin","inputs":[{"name":"newAdmin","type":"address","internalType":"address"}],"outputs":[],"stateMutability":"nonpayable"},{"type":"function","name":"withdraw","inputs":[{"name":"amount","type":"uint256","internalType":"uint256"}],"outputs":[],"stateMutability":"nonpayable"},{"type":"event","name":"AdminTransferInitiated","inputs":[{"name":"previousAdmin","type":"address","indexed":true,"internalType":"address"},{"name":"pendingAdmin","type":"address","indexed":true,"internalType":"address"}],"anonymous":false},{"type":"event","name":"AdminTransferred","inputs":[{"name":"previousAdmin","type":"address","indexed":true,"internalType":"address"},{"name":"newAdmin","type":"address","indexed":true,"internalType":"address"}],"anonymous":false},{"type":"event","name":"Deposited","inputs":[{"name":"user","type":"address","indexed":true,"internalType":"address"},{"name":"amount","type":"uint256","indexed":false,"internalType":"uint256"}],"anonymous":false},{"type":"event","name":"EngineCredit","inputs":[{"name":"user","type":"address","indexed":true,"internalType":"address"},{"name":"amount","type":"uint256","indexed":false,"internalType":"uint256"}],"anonymous":false},{"type":"event","name":"EngineDebit","inputs":[{"name":"user","type":"address","indexed":true,"internalType":"address"},{"name":"amount","type":"uint256","indexed":false,"internalType":"uint256"}],"anonymous":false},{"type":"event","name":"Withdrawn","inputs":[{"name":"user","type":"address","indexed":true,"internalType":"address"},{"name":"amount","type":"uint256","indexed":false,"internalType":"uint256"}],"anonymous":false},{"type":"error","name":"InsufficientBalance","inputs":[{"name":"have","type":"uint256","internalType":"uint256"},{"name":"need","type":"uint256","internalType":"uint256"}]},{"type":"error","name":"NotAdmin","inputs":[]},{"type":"error","name":"NotEngine","inputs":[]},{"type":"error","name":"NotPendingAdmin","inputs":[]},{"type":"error","name":"TransferFailed","inputs":[]},{"type":"error","name":"ZeroAddress","inputs":[]},{"type":"error","name":"ZeroAmount","inputs":[]}],"bytecode":{"object":"0x60a0346100cb57601f610a9b38819003918201601f19168301916001600160401b038311848410176100cf5780849260409485528339810103126100cb57610052602061004b836100e3565b92016100e3565b60015f556001600160a01b039091169081156100bc576001600160a01b03169081156100bc57608052600280546001600160a01b0319169190911790556040516109a390816100f8823960805181818161017b015281816102c8015281816103f901526107000152f35b63d92e233d60e01b5f5260045ffd5b5f80fd5b634e487b7160e01b5f52604160045260245ffd5b51906001600160a01b03821682036100cb5756fe60806040526004361015610011575f80fd5b5f3560e01c80630e18b6811461080957806326782247146107e157806327e235e3146107a95780632e1a7d4d1461067857806348ba4d2b14610650578063636be27a1461059a57806375829def14610524578063b619daf7146104bf578063b6b55f25146103ae578063beabacc8146102f7578063d8dfeb45146102b3578063ef6506db14610226578063f40818b614610107578063f851a440146100df5763ff50abdc146100be575f80fd5b346100db575f3660031901126100db576020600554604051908152f35b5f80fd5b346100db575f3660031901126100db576002546040516001600160a01b039091168152602090f35b346100db5760403660031901126100db57610120610887565b6001546001600160a01b031633036102175761013a610919565b6001600160a01b038116156102085760405163a9059cbb60e01b81526001600160a01b0390911660048201526024803590820152602081806044810103815f7f00000000000000000000000000000000000000000000000000000000000000006001600160a01b03165af19081156101fd575f916101ce575b50156101bf5760015f55005b6312171d8360e31b5f5260045ffd5b6101f0915060203d6020116101f6575b6101e881836108be565b8101906108f4565b816101b3565b503d6101de565b6040513d5f823e3d90fd5b63d92e233d60e01b5f5260045ffd5b63027da19960e41b5f5260045ffd5b346100db5760403660031901126100db5761023f610887565b60015460243591906001600160a01b031633036102175760207f9f7132b931bb99c5679b120dd9dc04eab8b1e91f4be7f2c40da4c0876823f4dc9160018060a01b031692835f526004825260405f2061029982825461090c565b90556102a78160055461090c565b600555604051908152a2005b346100db575f3660031901126100db576040517f00000000000000000000000000000000000000000000000000000000000000006001600160a01b03168152602090f35b346100db5760603660031901126100db57610310610887565b6024356001600160a01b038116908190036100db5760015460443592906001600160a01b03163303610217576001600160a01b03165f81815260046020526040902054831161038b575f52600460205260405f2061036f83825461089d565b90555f52600460205261038760405f2091825461090c565b9055005b90505f52600460205260405f205463cf47918160e01b5f5260045260245260445ffd5b346100db5760203660031901126100db576004356103ca610919565b80156104b0576040516323b872dd60e01b8152336004820152306024820152604481018290526020816064815f7f00000000000000000000000000000000000000000000000000000000000000006001600160a01b03165af19081156101fd575f91610491575b50156101bf57335f52600460205260405f2061044e82825461090c565b905561045c8160055461090c565b6005556040519081527f2da466a7b24304f47e87fa2e1e5a81b9831ce54fec19055ce277ca2f39ba42c460203392a260015f55005b6104aa915060203d6020116101f6576101e881836108be565b82610431565b631f2a200560e01b5f5260045ffd5b346100db5760203660031901126100db576104d8610887565b6002546001600160a01b03163303610515576001600160a01b03168015610208576bffffffffffffffffffffffff60a01b60015416176001555f80f35b637bfa4b9f60e01b5f5260045ffd5b346100db5760203660031901126100db5761053d610887565b6002546001600160a01b03169033829003610515576001600160a01b031690811561020857600380546001600160a01b031916831790557fb4d7bcb4d9a5d6ef6e827e3b1554e5a2578ad9ca843903d42b05d08bfa3458945f80a3005b346100db5760403660031901126100db576105b3610887565b60015460243591906001600160a01b031633036102175760018060a01b031690815f5260046020528060405f20541061062e5760207fc1bcf241560b7da56189cf02ba2c78298ad5afb7dd45b8a47e3c6930b389a23091835f526004825260405f2061062082825461089d565b90556102a78160055461089d565b905f52600460205260405f205463cf47918160e01b5f5260045260245260445ffd5b346100db575f3660031901126100db576001546040516001600160a01b039091168152602090f35b346100db5760203660031901126100db57600435610694610919565b80156104b057335f5260046020528060405f20541061078757335f52600460205260405f206106c482825461089d565b90556106d28160055461089d565b60055560405163a9059cbb60e01b8152336004820152602481018290526020816044815f6001600160a01b037f0000000000000000000000000000000000000000000000000000000000000000165af19081156101fd575f91610768575b50156101bf576040519081527f7084f5476618d8e60b11ef0d7d3f06914655adb8793e28ff7f018d4c76d505d560203392a260015f55005b610781915060203d6020116101f6576101e881836108be565b82610730565b335f52600460205260405f205463cf47918160e01b5f5260045260245260445ffd5b346100db5760203660031901126100db576001600160a01b036107ca610887565b165f526004602052602060405f2054604051908152f35b346100db575f3660031901126100db576003546040516001600160a01b039091168152602090f35b346100db575f3660031901126100db576003546001600160a01b038116903382900361087857600280546001600160a01b0319808216851790925591166003556001600160a01b03167ff8ccb027dfcd135e000e9d45e6cc2d662578a8825d4c45b5e32e0adf67e79ec65f80a3005b63058d9a1b60e01b5f5260045ffd5b600435906001600160a01b03821682036100db57565b919082039182116108aa57565b634e487b7160e01b5f52601160045260245ffd5b90601f8019910116810190811067ffffffffffffffff8211176108e057604052565b634e487b7160e01b5f52604160045260245ffd5b908160209103126100db575180151581036100db5790565b919082018092116108aa57565b60025f54146109285760025f55565b60405162461bcd60e51b815260206004820152601f60248201527f5265656e7472616e637947756172643a207265656e7472616e742063616c6c006044820152606490fdfea26469706673582212200a162b97bbb600dd33276a00dba56f492e496a814e67456e43edf9aae7a6cdc364736f6c63430008210033","linkReferences":{}},"methodIdentifiers":{"acceptAdmin()":"0e18b681","admin()":"f851a440","balances(address)":"27e235e3","collateral()":"d8dfeb45","credit(address,uint256)":"ef6506db","debit(address,uint256)":"636be27a","deposit(uint256)":"b6b55f25","flushFee(address,uint256)":"f40818b6","pendingAdmin()":"26782247","perpEngine()":"48ba4d2b","setPerpEngine(address)":"b619daf7","totalDeposited()":"ff50abdc","transfer(address,address,uint256)":"beabacc8","transferAdmin(address)":"75829def","withdraw(uint256)":"2e1a7d4d"},"id":38}