{"abi":[{"type":"constructor","inputs":[{"name":"_token0","type":"address","internalType":"address"},{"name":"_token1","type":"address","internalType":"address"}],"stateMutability":"nonpayable"},{"type":"function","name":"MINIMUM_LIQUIDITY","inputs":[],"outputs":[{"name":"","type":"uint256","internalType":"uint256"}],"stateMutability":"view"},{"type":"function","name":"balanceOf","inputs":[{"name":"","type":"address","internalType":"address"}],"outputs":[{"name":"","type":"uint256","internalType":"uint256"}],"stateMutability":"view"},{"type":"function","name":"burn","inputs":[{"name":"to","type":"address","internalType":"address"}],"outputs":[{"name":"amount0","type":"uint256","internalType":"uint256"},{"name":"amount1","type":"uint256","internalType":"uint256"}],"stateMutability":"nonpayable"},{"type":"function","name":"factory","inputs":[],"outputs":[{"name":"","type":"address","internalType":"address"}],"stateMutability":"view"},{"type":"function","name":"getReserves","inputs":[],"outputs":[{"name":"reserve0","type":"uint112","internalType":"uint112"},{"name":"reserve1","type":"uint112","internalType":"uint112"},{"name":"blockTimestampLast","type":"uint32","internalType":"uint32"}],"stateMutability":"view"},{"type":"function","name":"kLast","inputs":[],"outputs":[{"name":"","type":"uint256","internalType":"uint256"}],"stateMutability":"view"},{"type":"function","name":"mint","inputs":[{"name":"to","type":"address","internalType":"address"}],"outputs":[{"name":"liquidity","type":"uint256","internalType":"uint256"}],"stateMutability":"nonpayable"},{"type":"function","name":"price0CumulativeLast","inputs":[],"outputs":[{"name":"","type":"uint256","internalType":"uint256"}],"stateMutability":"view"},{"type":"function","name":"price1CumulativeLast","inputs":[],"outputs":[{"name":"","type":"uint256","internalType":"uint256"}],"stateMutability":"view"},{"type":"function","name":"skim","inputs":[{"name":"to","type":"address","internalType":"address"}],"outputs":[],"stateMutability":"nonpayable"},{"type":"function","name":"swap","inputs":[{"name":"amount0Out","type":"uint256","internalType":"uint256"},{"name":"amount1Out","type":"uint256","internalType":"uint256"},{"name":"to","type":"address","internalType":"address"},{"name":"data","type":"bytes","internalType":"bytes"}],"outputs":[],"stateMutability":"nonpayable"},{"type":"function","name":"sync","inputs":[],"outputs":[],"stateMutability":"nonpayable"},{"type":"function","name":"token0","inputs":[],"outputs":[{"name":"","type":"address","internalType":"address"}],"stateMutability":"view"},{"type":"function","name":"token1","inputs":[],"outputs":[{"name":"","type":"address","internalType":"address"}],"stateMutability":"view"},{"type":"function","name":"totalSupply","inputs":[],"outputs":[{"name":"","type":"uint256","internalType":"uint256"}],"stateMutability":"view"},{"type":"event","name":"Burn","inputs":[{"name":"sender","type":"address","indexed":true,"internalType":"address"},{"name":"amount0","type":"uint256","indexed":false,"internalType":"uint256"},{"name":"amount1","type":"uint256","indexed":false,"internalType":"uint256"},{"name":"to","type":"address","indexed":true,"internalType":"address"}],"anonymous":false},{"type":"event","name":"Mint","inputs":[{"name":"sender","type":"address","indexed":true,"internalType":"address"},{"name":"amount0","type":"uint256","indexed":false,"internalType":"uint256"},{"name":"amount1","type":"uint256","indexed":false,"internalType":"uint256"}],"anonymous":false},{"type":"event","name":"Swap","inputs":[{"name":"sender","type":"address","indexed":true,"internalType":"address"},{"name":"amount0In","type":"uint256","indexed":false,"internalType":"uint256"},{"name":"amount1In","type":"uint256","indexed":false,"internalType":"uint256"},{"name":"amount0Out","type":"uint256","indexed":false,"internalType":"uint256"},{"name":"amount1Out","type":"uint256","indexed":false,"internalType":"uint256"},{"name":"to","type":"address","indexed":true,"internalType":"address"}],"anonymous":false},{"type":"event","name":"Sync","inputs":[{"name":"reserve0","type":"uint112","indexed":false,"internalType":"uint112"},{"name":"reserve1","type":"uint112","indexed":false,"internalType":"uint112"}],"anonymous":false},{"type":"error","name":"InsufficientInputAmount","inputs":[]},{"type":"error","name":"InsufficientLiquidity","inputs":[]},{"type":"error","name":"InsufficientLiquidityBurned","inputs":[]},{"type":"error","name":"InsufficientLiquidityMinted","inputs":[]},{"type":"error","name":"InsufficientOutputAmount","inputs":[]},{"type":"error","name":"InvalidRecipient","inputs":[]},{"type":"error","name":"InvariantViolated","inputs":[]},{"type":"error","name":"Locked","inputs":[]},{"type":"error","name":"Overflow","inputs":[]},{"type":"error","name":"TransferFailed","inputs":[]}],"bytecode":{"object":"0x608034609657601f61137538819003918201601f19168301916001600160401b03831184841017609a578084926040948552833981010312609657604b602060458360ae565b920160ae565b600160098190555f8054336001600160a01b03199182161790915581546001600160a01b0394851690821617909155600280549290931691161790556040516112b390816100c28239f35b5f80fd5b634e487b7160e01b5f52604160045260245ffd5b51906001600160a01b038216820360965756fe60806040526004361015610011575f80fd5b5f5f3560e01c8063022c0d9f14610b465780630902f1ac14610ae85780630dfe168114610abf57806318160ddd14610aa15780635909c0d514610a835780635a3d549314610a655780636a6278421461076257806370a08231146107295780637464fc3d1461070b57806389afcb44146103dc578063ba9a7a56146103bf578063bc25cf771461025e578063c45a015514610237578063d21220a71461020e5763fff6cae9146100bf575f80fd5b3461020b578060031936011261020b576001600954036101fc5760026009556001546040516370a0823160e01b815230600482015290602090829060249082906001600160a01b03165afa80156101f15782906101be575b6002546040516370a0823160e01b81523060048201529250602090839060249082906001600160a01b03165afa9081156101b3578391610179575b6101719250600354916001600160701b03808460701c1693169161115a565b600160095580f35b90506020823d6020116101ab575b8161019460209383611031565b810103126101a757610171915190610152565b5f80fd5b3d9150610187565b6040513d85823e3d90fd5b506020813d6020116101e9575b816101d860209383611031565b810103126101a75760249051610117565b3d91506101cb565b6040513d84823e3d90fd5b6303cb96db60e21b8152600490fd5b80fd5b503461020b578060031936011261020b576002546040516001600160a01b039091168152602090f35b503461020b578060031936011261020b57546040516001600160a01b039091168152602090f35b503461020b57602036600319011261020b5761027861101b565b6001600954036103b05760026009556001546040516370a0823160e01b8152306004820152906001600160a01b0316602082602481845afa91821561036d5783908593610378575b506102da6102e0936001600160701b036003541690611067565b916110c6565b6002546040516370a0823160e01b8152306004820152916001600160a01b0390911690602083602481855afa92831561036d578493610337575b506102da610171936001600160701b0360035460701c1690611067565b92506020833d602011610365575b8161035260209383611031565b810103126101a7579151916102da61031a565b3d9150610345565b6040513d86823e3d90fd5b9250506020823d6020116103a8575b8161039460209383611031565b810103126101a757905190826102da6102c0565b3d9150610387565b6303cb96db60e21b8252600482fd5b503461020b578060031936011261020b5760206040516103e88152f35b503461020b57602036600319011261020b576103f661101b565b6001600954036103b05760249060026009553083526008602052604083205490600754602060018060a01b0360015416604051958680926370a0823160e01b82523060048301525afa80156107005785906106cd575b6002546040516370a0823160e01b81523060048201529550602090869060249082906001600160a01b03165afa9485156106c257869561068a575b509061049d6104a28261049d6104a99588611088565b61109b565b9585611088565b9183158015610682575b61067357936104df6024953083526008602052604083206104d5828254611067565b9055600754611067565b6007556001546104fb90859084906001600160a01b03166110c6565b60025461051490849084906001600160a01b03166110c6565b6001546040516370a0823160e01b81523060048201529560209187919082906001600160a01b03165afa948515610666578195610632575b506002546040516370a0823160e01b815230600482015290602090829060249082906001600160a01b03165afa91821561062657916105f3575b506105a890604095600354916001600160701b03808460701c1693169161115a565b83519083825282602083015260018060a01b0316907fdccd412f0b1252819cb1fd330b93224ca42612892bb3f4f789976e6d81936496853392a3600160095582519182526020820152f35b90506020813d60201161061e575b8161060e60209383611031565b810103126101a757516040610586565b3d9150610601565b604051903d90823e3d90fd5b9094506020813d60201161065e575b8161064e60209383611031565b810103126101a75751935f61054c565b3d9150610641565b50604051903d90823e3d90fd5b63749383ad60e01b8552600485fd5b5082156104b3565b919094506020823d6020116106ba575b816106a760209383611031565b810103126101a75790519361049d610487565b3d915061069a565b6040513d88823e3d90fd5b506020843d6020116106f8575b816106e760209383611031565b810103126101a7576024935161044c565b3d91506106da565b6040513d87823e3d90fd5b503461020b578060031936011261020b576020600654604051908152f35b503461020b57602036600319011261020b576020906040906001600160a01b0361075161101b565b168152600883522054604051908152f35b503461020b57602036600319011261020b5761077c61101b565b6001600954036103b057600260095560246107b26003546001600160701b038116916001600160701b038260701c169160e01c90565b506001546040516370a0823160e01b8152306004820152929360209184919082906001600160a01b03165afa918215610700578592610a30575b506002546040516370a0823160e01b8152306004820152929390602090849060249082906001600160a01b03165afa9283156106c25786936109fc575b506001600160701b0381169261083f8486611067565b946001600160701b0384166108548184611067565b956007549182155f146109ca5750505061086e8587611088565b8860038211156109bc5750808060011c6001810180911161097557905b82821061099d5750505b6103e719810190811161098957968880526008602052604089208054906103e8820180921161097557556007546103e88101809111610961576007555b8715610952579060406020996109159695949360018060a01b0316815260088b52206108ff8982546110b9565b905561090d886007546110b9565b60075561115a565b604051918252838201527f4c209b5fc8ad50758f13e2e1088ba56a560dff690a1c6fef26394f4c03821c4f60403392a26001600955604051908152f35b633489be7560e21b8952600489fd5b634e487b7160e01b8a52601160045260248afd5b634e487b7160e01b8b52601160045260248bfd5b634e487b7160e01b89526011600452602489fd5b9091506109b3826109ae818461109b565b6110b9565b60011c9061088b565b901561089557506001610895565b61049d6109de6109e59361049d868d611088565b9389611088565b808210156109f557505b966108d2565b90506109ef565b9092506020813d602011610a28575b81610a1860209383611031565b810103126101a75751915f610829565b3d9150610a0b565b91506020823d602011610a5d575b81610a4b60209383611031565b810103126101a75760249151916107ec565b3d9150610a3e565b503461020b578060031936011261020b576020600554604051908152f35b503461020b578060031936011261020b576020600454604051908152f35b503461020b578060031936011261020b576020600754604051908152f35b503461020b578060031936011261020b576001546040516001600160a01b039091168152602090f35b503461020b578060031936011261020b5760606001600160701b0363ffffffff610b2d6003546001600160701b038116916001600160701b038260701c169160e01c90565b9193908160405195168552166020840152166040820152f35b50346101a75760803660031901126101a757604435906001600160a01b0382166024356004358285036101a75760643567ffffffffffffffff81116101a757366023820112156101a75780600401359067ffffffffffffffff82116101a75736602483830101116101a75760016009540361100c5760026009558215918280611004575b610ff557610bf36003546001600160701b038116916001600160701b038260701c169160e01c90565b509290986001600160701b038a1694858710801590610fe2575b610fd3576001546001600160a01b0316908982148015610fbf575b610fb05782889115610f9f575b5050508680610f82575b505081610ef4575b50506001546040516370a0823160e01b8152306004820152969795969590602090879060249082906001600160a01b03165afa958615610ee9578896610eb5575b506002546040516370a0823160e01b815230600482015290602090829060249082906001600160a01b03165afa908115610eaa578991610e78575b50610cce8585611067565b871115610e7157610ce8610ce28686611067565b88611067565b965b6001600160701b03841694610cff8887611067565b831115610e6a57610d19610d138988611067565b84611067565b955b89158080610e62575b610e53576103e884028481046103e81485151715610e3f5760038c02918c83046003141715610e3f5790610d5791611067565b6103e885028581046103e81486151715610e3f5760038902908982046003148a151715610e2b5791610d90610d9692610d9c9594611067565b90611088565b92611088565b90620f4240820291808304620f42401490151715610e175710610e085790610dc593929161115a565b6040519384526020840152604083015260608201527fd78ad95fa46c994b6551d0da85fc275fe613ce37657fb8d5e3d130840159d82260803392a3600160095580f35b631228c0d560e11b8a5260048afd5b634e487b7160e01b8c52601160045260248cfd5b634e487b7160e01b8f52601160045260248ffd5b634e487b7160e01b8e52601160045260248efd5b63098fb56160e01b8d5260048dfd5b508715610d24565b8a95610d1b565b8896610cea565b90506020813d602011610ea2575b81610e9360209383611031565b810103126101a757515f610cc3565b3d9150610e86565b6040513d8b823e3d90fd5b9095506020813d602011610ee1575b81610ed160209383611031565b810103126101a75751945f610c88565b3d9150610ec4565b6040513d8a823e3d90fd5b863b156101a757602460a45f92846040519586948593632288696f60e01b85523360048601528b828601528c60448601526080606486015282608486015201848401378181018301859052601f01601f19168101030181838a5af18015610f7757610f60575b80610c47565b60249596505f610f6f91611031565b5f9594610f5a565b6040513d5f823e3d90fd5b600254610f9892906001600160a01b03166110c6565b5f86610c3f565b610fa8926110c6565b5f8682610c35565b634e46966960e11b5f5260045ffd5b506002546001600160a01b03168a14610c28565b63bb55fd2760e01b5f5260045ffd5b506001600160701b038516881015610c0d565b6342301c2360e01b5f5260045ffd5b508415610bca565b6303cb96db60e21b5f5260045ffd5b600435906001600160a01b03821682036101a757565b90601f8019910116810190811067ffffffffffffffff82111761105357604052565b634e487b7160e01b5f52604160045260245ffd5b9190820391821161107457565b634e487b7160e01b5f52601160045260245ffd5b8181029291811591840414171561107457565b81156110a5570490565b634e487b7160e01b5f52601260045260245ffd5b9190820180921161107457565b60405163a9059cbb60e01b81526001600160a01b0392831660048201526024810193909352602091839160449183915f91165af1908115610f77575f9161111f575b501561111057565b6312171d8360e31b5f5260045ffd5b90506020813d602011611152575b8161113a60209383611031565b810103126101a7575180151581036101a7575f611108565b3d915061112d565b926001600160701b038411801561126d575b61125e5760035460e01c63ffffffff42160363ffffffff8111611074577f1c411e9a96e071241c2f21f7726b17ae89e3cab4c78be50e062b03a9fffbbad1946040946001600160701b039363ffffffff8594169182151580611253575b80611248575b611208575b50505016918263ffffffff60e01b4260e01b16918360701b9060701b16171780600355835192835260701c166020820152a1565b6112389185908461122084841683851660701b61109b565b026004540160045516908560701b9060701b1661109b565b02600554016005555f80806111d4565b5084821615156111cf565b5084811615156111c9565b631a93c68960e11b5f5260045ffd5b506001600160701b03821161116c56fea2646970667358221220b740d085629a5770de1c7df715079df6322a9735b4c032452802684e8c2b854164736f6c63430008210033","linkReferences":{}},"methodIdentifiers":{"MINIMUM_LIQUIDITY()":"ba9a7a56","balanceOf(address)":"70a08231","burn(address)":"89afcb44","factory()":"c45a0155","getReserves()":"0902f1ac","kLast()":"7464fc3d","mint(address)":"6a627842","price0CumulativeLast()":"5909c0d5","price1CumulativeLast()":"5a3d5493","skim(address)":"bc25cf77","swap(uint256,uint256,address,bytes)":"022c0d9f","sync()":"fff6cae9","token0()":"0dfe1681","token1()":"d21220a7","totalSupply()":"18160ddd"},"id":19}