{"abi":[{"type":"constructor","inputs":[{"name":"_gusd","type":"address","internalType":"address"},{"name":"_admin","type":"address","internalType":"address"}],"stateMutability":"nonpayable"},{"type":"function","name":"PRECISION","inputs":[],"outputs":[{"name":"","type":"uint256","internalType":"uint256"}],"stateMutability":"view"},{"type":"function","name":"acceptAdmin","inputs":[],"outputs":[],"stateMutability":"nonpayable"},{"type":"function","name":"admin","inputs":[],"outputs":[{"name":"","type":"address","internalType":"address"}],"stateMutability":"view"},{"type":"function","name":"claimCollateral","inputs":[{"name":"ilk","type":"bytes32","internalType":"bytes32"}],"outputs":[],"stateMutability":"nonpayable"},{"type":"function","name":"collateralDust","inputs":[{"name":"","type":"bytes32","internalType":"bytes32"}],"outputs":[{"name":"","type":"uint256","internalType":"uint256"}],"stateMutability":"view"},{"type":"function","name":"collateralTokens","inputs":[{"name":"","type":"bytes32","internalType":"bytes32"}],"outputs":[{"name":"","type":"address","internalType":"address"}],"stateMutability":"view"},{"type":"function","name":"cumulativeGainPerGUSD","inputs":[{"name":"","type":"bytes32","internalType":"bytes32"}],"outputs":[{"name":"","type":"uint256","internalType":"uint256"}],"stateMutability":"view"},{"type":"function","name":"deposit","inputs":[{"name":"amount","type":"uint256","internalType":"uint256"}],"outputs":[],"stateMutability":"nonpayable"},{"type":"function","name":"depositEpoch","inputs":[{"name":"","type":"address","internalType":"address"}],"outputs":[{"name":"","type":"uint256","internalType":"uint256"}],"stateMutability":"view"},{"type":"function","name":"depositScaleSnapshot","inputs":[{"name":"","type":"address","internalType":"address"}],"outputs":[{"name":"","type":"uint256","internalType":"uint256"}],"stateMutability":"view"},{"type":"function","name":"deposits","inputs":[{"name":"","type":"address","internalType":"address"}],"outputs":[{"name":"","type":"uint256","internalType":"uint256"}],"stateMutability":"view"},{"type":"function","name":"drainEpoch","inputs":[],"outputs":[{"name":"","type":"uint256","internalType":"uint256"}],"stateMutability":"view"},{"type":"function","name":"epochBoundaryScaleIndex","inputs":[{"name":"","type":"uint256","internalType":"uint256"}],"outputs":[{"name":"","type":"uint256","internalType":"uint256"}],"stateMutability":"view"},{"type":"function","name":"gainSnapshots","inputs":[{"name":"","type":"address","internalType":"address"},{"name":"","type":"bytes32","internalType":"bytes32"}],"outputs":[{"name":"","type":"uint256","internalType":"uint256"}],"stateMutability":"view"},{"type":"function","name":"gusd","inputs":[],"outputs":[{"name":"","type":"address","internalType":"contract IgUSD"}],"stateMutability":"view"},{"type":"function","name":"offset","inputs":[{"name":"debtAmount","type":"uint256","internalType":"uint256"},{"name":"ilk","type":"bytes32","internalType":"bytes32"},{"name":"collAmount","type":"uint256","internalType":"uint256"}],"outputs":[],"stateMutability":"nonpayable"},{"type":"function","name":"pendingAdmin","inputs":[],"outputs":[{"name":"","type":"address","internalType":"address"}],"stateMutability":"view"},{"type":"function","name":"pendingGain","inputs":[{"name":"user","type":"address","internalType":"address"},{"name":"ilk","type":"bytes32","internalType":"bytes32"}],"outputs":[{"name":"","type":"uint256","internalType":"uint256"}],"stateMutability":"view"},{"type":"function","name":"poolSize","inputs":[],"outputs":[{"name":"","type":"uint256","internalType":"uint256"}],"stateMutability":"view"},{"type":"function","name":"provideToSP","inputs":[{"name":"amount","type":"uint256","internalType":"uint256"},{"name":"","type":"address","internalType":"address"}],"outputs":[],"stateMutability":"nonpayable"},{"type":"function","name":"provideToSP","inputs":[{"name":"amount","type":"uint256","internalType":"uint256"},{"name":"","type":"address[]","internalType":"address[]"}],"outputs":[],"stateMutability":"nonpayable"},{"type":"function","name":"provideToSP","inputs":[{"name":"amount","type":"uint256","internalType":"uint256"}],"outputs":[],"stateMutability":"nonpayable"},{"type":"function","name":"registerCollateralToken","inputs":[{"name":"ilk","type":"bytes32","internalType":"bytes32"},{"name":"token","type":"address","internalType":"address"}],"outputs":[],"stateMutability":"nonpayable"},{"type":"function","name":"registeredIlks","inputs":[{"name":"","type":"uint256","internalType":"uint256"}],"outputs":[{"name":"","type":"bytes32","internalType":"bytes32"}],"stateMutability":"view"},{"type":"function","name":"scaleIndex","inputs":[],"outputs":[{"name":"","type":"uint256","internalType":"uint256"}],"stateMutability":"view"},{"type":"function","name":"setVaultManager","inputs":[{"name":"_vm","type":"address","internalType":"address"}],"outputs":[],"stateMutability":"nonpayable"},{"type":"function","name":"totalDeposits","inputs":[],"outputs":[{"name":"","type":"uint256","internalType":"uint256"}],"stateMutability":"view"},{"type":"function","name":"transferAdmin","inputs":[{"name":"newAdmin","type":"address","internalType":"address"}],"outputs":[],"stateMutability":"nonpayable"},{"type":"function","name":"vaultManager","inputs":[],"outputs":[{"name":"","type":"address","internalType":"address"}],"stateMutability":"view"},{"type":"function","name":"withdraw","inputs":[{"name":"amount","type":"uint256","internalType":"uint256"}],"outputs":[],"stateMutability":"nonpayable"},{"type":"function","name":"withdrawFromSP","inputs":[{"name":"amount","type":"uint256","internalType":"uint256"}],"outputs":[],"stateMutability":"nonpayable"},{"type":"event","name":"AdminTransferProposed","inputs":[{"name":"currentAdmin","type":"address","indexed":true,"internalType":"address"},{"name":"pendingAdmin","type":"address","indexed":true,"internalType":"address"}],"anonymous":false},{"type":"event","name":"AdminTransferred","inputs":[{"name":"previousAdmin","type":"address","indexed":true,"internalType":"address"},{"name":"newAdmin","type":"address","indexed":true,"internalType":"address"}],"anonymous":false},{"type":"event","name":"CollateralClaimed","inputs":[{"name":"user","type":"address","indexed":true,"internalType":"address"},{"name":"ilk","type":"bytes32","indexed":true,"internalType":"bytes32"},{"name":"amount","type":"uint256","indexed":false,"internalType":"uint256"}],"anonymous":false},{"type":"event","name":"CollateralTokenRegistered","inputs":[{"name":"ilk","type":"bytes32","indexed":true,"internalType":"bytes32"},{"name":"token","type":"address","indexed":false,"internalType":"address"}],"anonymous":false},{"type":"event","name":"Deposited","inputs":[{"name":"user","type":"address","indexed":true,"internalType":"address"},{"name":"amount","type":"uint256","indexed":false,"internalType":"uint256"}],"anonymous":false},{"type":"event","name":"Offset","inputs":[{"name":"ilk","type":"bytes32","indexed":true,"internalType":"bytes32"},{"name":"debtBurned","type":"uint256","indexed":false,"internalType":"uint256"},{"name":"collateral","type":"uint256","indexed":false,"internalType":"uint256"}],"anonymous":false},{"type":"event","name":"VaultManagerSet","inputs":[{"name":"vm","type":"address","indexed":true,"internalType":"address"}],"anonymous":false},{"type":"event","name":"Withdrawn","inputs":[{"name":"user","type":"address","indexed":true,"internalType":"address"},{"name":"amount","type":"uint256","indexed":false,"internalType":"uint256"}],"anonymous":false}],"bytecode":{"object":"0x60a03461013657601f611b3338819003918201601f19168301916001600160401b0383118484101761013a57808492604094855283398101031261013657610052602061004b8361014e565b920161014e565b670de0b6b3a76400006007556001600160a01b03909116908115610101576001600160a01b03169081156100cb57608052600180546001600160a01b0319169190911790556040516119d09081610163823960805181818161035c0152818161076601528181610a7001528181610df501526111d20152f35b60405162461bcd60e51b815260206004820152600e60248201526d29a81d103d32b9379030b236b4b760911b6044820152606490fd5b60405162461bcd60e51b815260206004820152600d60248201526c14d40e881e995c9bc819d554d1609a1b6044820152606490fd5b5f80fd5b634e487b7160e01b5f52604160045260245ffd5b51906001600160a01b03821682036101365756fe6080806040526004361015610012575f80fd5b5f905f3560e01c9081630e18b681146112f85750806326782247146112d05780632e1a7d4d1461111e5780632e54bf951461111e578063310599be146110da5780633b5b7e3d146110b0578063484be514146110815780634ec18db914611064578063504758d6146110475780635f788d6514610f3f5780636aebb1ab14610d24578063742f9e711461095a57806375829def146108da57806378c77a24146107da5780637d882097146107bc5780638a4adf24146107955780638c87ee9014610750578063997dc62e146107265780639ff55263146105d2578063aaf5eb68146105af578063b0c8033d14610576578063b2a6b8001461053d578063b543503e146104c3578063b6b55f25146102cb578063d1a294c414610298578063d672bf541461025e578063dd3049f014610234578063e3fc028d146101f5578063f309f4d8146101d7578063f851a440146101ae5763fc7e286d14610173575f80fd5b346101ab5760203660031901126101ab576020906040906001600160a01b0361019a6113a2565b168152600483522054604051908152f35b80fd5b50346101ab57806003193601126101ab576001546040516001600160a01b039091168152602090f35b50346101ab57806003193601126101ab576020600754604051908152f35b50346101ab5760203660031901126101ab57610213600f54156113fa565b6001600f5561022133611702565b61022d600435336117cd565b80600f5580f35b50346101ab5760203660031901126101ab5760406020916004358152600d83522054604051908152f35b50346101ab5760203660031901126101ab5760043590600c548210156101ab576020610289836113ce565b90549060031b1c604051908152f35b50346101ab5760203660031901126101ab576020906004358152600b8252604060018060a01b0391205416604051908152f35b50346101ab5760203660031901126101ab576004356102ec600f54156113fa565b6001600f556102fc811515611432565b61030533611702565b33825260096020526040822054600854116104b0575b3382526004602052604082205415610452575b6040516323b872dd60e01b81523360048201523060248201526044810182905260208180606481015b0381867f00000000000000000000000000000000000000000000000000000000000000006001600160a01b03165af180156104475761039d918491610418575b506114cb565b3382526004602052604082206103b482825461167a565b905560075433835260066020526040832055600854338352600960205260408320556103e28160035461167a565b6003556040519081527f2da466a7b24304f47e87fa2e1e5a81b9831ce54fec19055ce277ca2f39ba42c460203392a280600f5580f35b61043a915060203d602011610440575b610432818361147d565b8101906114b3565b5f610397565b503d610428565b6040513d85823e3d90fd5b600c54825b81811061046557505061032e565b806104716001926113ce565b90549060031b1c8552600a6020526040852054338652600560205260408620610499836113ce565b90549060031b1c8752602052604086205501610457565b338252600460205281604081205561031b565b50346101ab5760203660031901126101ab576104dd6113a2565b6104f260018060a01b03600154163314611687565b6001600160a01b03166105068115156116c3565b81546001600160a01b031916811782557f8e902340d35762a5a36507c20fe38e5d549a721d9f846d6de7f397b5c26ab8538280a280f35b50346101ab5760203660031901126101ab576020906040906001600160a01b036105656113a2565b168152600983522054604051908152f35b50346101ab5760203660031901126101ab576020906040906001600160a01b0361059e6113a2565b168152600683522054604051908152f35b50346101ab57806003193601126101ab576020604051670de0b6b3a76400008152f35b50346101ab5760403660031901126101ab576004356105ef6113b8565b61060460018060a01b03600154163314611687565b6001600160a01b031680156106f057818352600b60205260408320546001600160a01b031615610678575b818352600b6020908152604080852080546001600160a01b03191684179055519182527f7b02323155ee1835f3ad82fb0682024a2f6ea1380e110430fc6eb75fbffc866591a280f35b600c54680100000000000000008110156106dc577f7b02323155ee1835f3ad82fb0682024a2f6ea1380e110430fc6eb75fbffc8665916106c082600160209401600c556113ce565b81549060031b9086821b915f19901b191617905591505061062f565b634e487b7160e01b84526041600452602484fd5b60405162461bcd60e51b815260206004820152600e60248201526d29a81d103d32b937903a37b5b2b760911b6044820152606490fd5b50346101ab5760203660031901126101ab5760406020916004358152600e83522054604051908152f35b50346101ab57806003193601126101ab576040517f00000000000000000000000000000000000000000000000000000000000000006001600160a01b03168152602090f35b50346101ab57806003193601126101ab57546040516001600160a01b039091168152602090f35b50346101ab57806003193601126101ab576020600354604051908152f35b50346101ab5760203660031901126101ab576004356107fb600f54156113fa565b6001600f5561080b811515611432565b61081433611702565b33825260096020526040822054600854116108c7575b3382526004602052604082205415610869576040516323b872dd60e01b8152336004820152306024820152604481018290526020818060648101610357565b600c54825b81811061087c57505061032e565b806108886001926113ce565b90549060031b1c8552600a60205260408520543386526005602052604086206108b0836113ce565b90549060031b1c875260205260408620550161086e565b338252600460205281604081205561082a565b50346101ab5760203660031901126101ab576108f46113a2565b6001546001600160a01b03169061090c338314611687565b6001600160a01b0316906109218215156116c3565b600280546001600160a01b031916831790557fc02afc35b5d9b88807390ad5b17e685602c17339aa880db1dfe4e15cb3e2e3a18380a380f35b5034610bde576060366003190112610bde5760043560243590604435610982600f54156113fa565b6001600f555f546001600160a01b03163303610ce7578115610cb2578160035410610c78575f838152600b60205260409020546109c9906001600160a01b03161515611635565b5f838152600b602090815260408083205490516323b872dd60e01b81523360048201523060248201526044810185905292839160649183916001600160a01b03165af1908115610bd3575f91610c59575b5015610c145760035415610bf657670de0b6b3a76400008102818104670de0b6b3a76400001482151715610be257600354610a5491611520565b835f52600a602052610a6b60405f2091825461167a565b90555b7f00000000000000000000000000000000000000000000000000000000000000006001600160a01b0316803b15610bde575f8091602460405180948193630852cd8d60e31b83528860048401525af18015610bd357610bbe575b50600354610ad68382611470565b90151580610bb5575b15610b3b579160409183610b22610b197f9f0e2e27f318babf40f39455bf2da36279d485bbb154091390dab5c7e946359e9660075461150d565b60035490611520565b6007555b60035582519182526020820152a280600f5580f35b8015610b6d575b916040917f9f0e2e27f318babf40f39455bf2da36279d485bbb154091390dab5c7e946359e93610b26565b6007546008548652600d602052604086205560085460018101809111610ba157600855670de0b6b3a7640000600755610b42565b634e487b7160e01b86526011600452602486fd5b50801515610adf565b610bcb9194505f9061147d565b5f925f610ac8565b6040513d5f823e3d90fd5b5f80fd5b634e487b7160e01b5f52601160045260245ffd5b825f52600e60205260405f20610c0d82825461167a565b9055610a6e565b60405162461bcd60e51b815260206004820152601e60248201527f53503a20636f6c6c61746572616c207472616e73666572206661696c656400006044820152606490fd5b610c72915060203d60201161044057610432818361147d565b5f610a1a565b60405162461bcd60e51b815260206004820152601260248201527114d40e881c1bdbdb081d1bdbc81cdb585b1b60721b6044820152606490fd5b60405162461bcd60e51b815260206004820152600d60248201526c14d40e881e995c9bc81919589d609a1b6044820152606490fd5b60405162461bcd60e51b815260206004820152601560248201527429a81d103737ba103b30bab63a1036b0b730b3b2b960591b6044820152606490fd5b34610bde576040366003190112610bde5760043560243567ffffffffffffffff8111610bde5736602382011215610bde5780600401359067ffffffffffffffff8211610bde57602490369260051b010111610bde57610d85600f54156113fa565b6001600f55610d95811515611432565b610d9e33611702565b335f52600960205260405f205460085411610f2c575b335f52600460205260405f205415610ece575b6040516323b872dd60e01b81523360048201523060248201526044810182905260208180606481015b03815f7f00000000000000000000000000000000000000000000000000000000000000006001600160a01b03165af18015610bd357610e35915f91610eaf57506114cb565b335f52600460205260405f20610e4c82825461167a565b9055600754335f52600660205260405f2055600854335f52600960205260405f2055610e7a8160035461167a565b6003556040519081527f2da466a7b24304f47e87fa2e1e5a81b9831ce54fec19055ce277ca2f39ba42c460203392a25f600f55005b610ec8915060203d60201161044057610432818361147d565b83610397565b600c545f5b818110610ee1575050610dc7565b80610eed6001926113ce565b90549060031b1c5f52600a60205260405f2054335f52600560205260405f20610f15836113ce565b90549060031b1c5f5260205260405f205501610ed3565b335f5260046020525f6040812055610db4565b34610bde576040366003190112610bde57600435610f5b6113b8565b50610f68600f54156113fa565b6001600f55610f78811515611432565b610f8133611702565b335f52600960205260405f205460085411611034575b335f52600460205260405f205415610fd6576040516323b872dd60e01b8152336004820152306024820152604481018290526020818060648101610df0565b600c545f5b818110610fe9575050610dc7565b80610ff56001926113ce565b90549060031b1c5f52600a60205260405f2054335f52600560205260405f2061101d836113ce565b90549060031b1c5f5260205260405f205501610fdb565b335f5260046020525f6040812055610f97565b34610bde575f366003190112610bde576020600854604051908152f35b34610bde575f366003190112610bde576020600354604051908152f35b34610bde576040366003190112610bde5760206110a861109f6113a2565b6024359061153e565b604051908152f35b34610bde576020366003190112610bde576004355f52600a602052602060405f2054604051908152f35b34610bde576040366003190112610bde576001600160a01b036110fb6113a2565b165f52600560205260405f206024355f52602052602060405f2054604051908152f35b34610bde576020366003190112610bde5760043561113e600f54156113fa565b6001600f5561114e811515611432565b61115733611702565b335f52600960205260405f20546008541161128157335f5260046020528060405f20541061123c57335f52600460205260405f20611196828254611470565b90556111a481600354611470565b60035560405163a9059cbb60e01b8152336004820152602481018290526020816044815f6001600160a01b037f0000000000000000000000000000000000000000000000000000000000000000165af18015610bd35761120a915f91610eaf57506114cb565b6040519081527f7084f5476618d8e60b11ef0d7d3f06914655adb8793e28ff7f018d4c76d505d560203392a25f600f55005b60405162461bcd60e51b815260206004820152601860248201527f53503a20696e73756666696369656e74206465706f73697400000000000000006044820152606490fd5b60405162461bcd60e51b815260206004820152602160248201527f53503a206465706f736974206275726e656420696e206c69717569646174696f6044820152603760f91b6064820152608490fd5b34610bde575f366003190112610bde576002546040516001600160a01b039091168152602090f35b34610bde575f366003190112610bde576002546001600160a01b03811691338390036113685750600180546001600160a01b0319808216851790925591166002556001600160a01b03167ff8ccb027dfcd135e000e9d45e6cc2d662578a8825d4c45b5e32e0adf67e79ec65f80a3005b62461bcd60e51b815260206004820152601560248201527429a81d103737ba103832b73234b7339030b236b4b760591b6044820152606490fd5b600435906001600160a01b0382168203610bde57565b602435906001600160a01b0382168203610bde57565b600c548110156113e657600c5f5260205f2001905f90565b634e487b7160e01b5f52603260045260245ffd5b1561140157565b60405162461bcd60e51b81526020600482015260096024820152681499595b9d1c985b9d60ba1b6044820152606490fd5b1561143957565b60405162461bcd60e51b815260206004820152600f60248201526e14d40e881e995c9bc8185b5bdd5b9d608a1b6044820152606490fd5b91908203918211610be257565b90601f8019910116810190811067ffffffffffffffff82111761149f57604052565b634e487b7160e01b5f52604160045260245ffd5b90816020910312610bde57518015158103610bde5790565b156114d257565b60405162461bcd60e51b815260206004820152601360248201527214d40e881d1c985b9cd9995c8819985a5b1959606a1b6044820152606490fd5b81810292918115918404141715610be257565b811561152a570490565b634e487b7160e01b5f52601260045260245ffd5b6001600160a01b03165f8181526004602052604090205491821561162e57670de0b6b3a764000092826115eb935f52600660205260405f2054155f1461161c57845b815f52600960205260405f205460085481105f14611613575f52600d60205260405f20545b801561160c575b8181036115ef575b5050826115e592935f52600a60205260405f2054915f52600560205260405f20905f5260205260405f205490611470565b9061150d565b0490565b90611600611605926115e59561150d565b611520565b915f6115b4565b50856115ac565b506007546115a5565b805f52600660205260405f2054611580565b5050505f90565b1561163c57565b60405162461bcd60e51b815260206004820152601660248201527514d40e881a5b1ac81b9bdd081c9959da5cdd195c995960521b6044820152606490fd5b91908201809211610be257565b1561168e57565b60405162461bcd60e51b815260206004820152600d60248201526c29a81d103737ba1030b236b4b760991b6044820152606490fd5b156116ca57565b60405162461bcd60e51b815260206004820152601060248201526f53503a207a65726f206164647265737360801b6044820152606490fd5b6001600160a01b03165f818152600460205260409020549081156117c957805f52600660205260405f20549182156117b9575b815f52600960205260405f205460085481105f146117af575f52600d60205260405f2054925b831561179f575b808403611770575b50505050565b6116008461177d9361150d565b815f52600460205260405f20555f52600660205260405f20555f80808061176a565b670de0b6b3a76400009350611762565b506007549261175b565b670de0b6b3a76400009250611735565b5050565b5f828152600b60205260409020546117ef906001600160a01b03161515611635565b6001600160a01b0381165f818152600460205260409020549091811561197157835f52600a60205260405f205491835f52600560205260405f20855f5260205261183d60405f205484611470565b90811561196957670de0b6b3a7640000916118579161150d565b0491835f52600560205260405f20855f5260205260405f20558161187b5750505050565b5f848152600b6020908152604080832054905163a9059cbb60e01b81526001600160a01b039485166004820152602481018690529391928492604492849291165af1908115610bd3575f9161194a575b50156119055760207f85e429e8a0bf56d9ab471a80ddf210f520769a1bda3ee3946bab002feb6d0e8d91604051908152a35f80808061176a565b60405162461bcd60e51b815260206004820152601a60248201527f53503a20636f6c6c61746572616c2073656e64206661696c65640000000000006044820152606490fd5b611963915060203d60201161044057610432818361147d565b5f6118cb565b505050505050565b505090805f52600a60205260405f2054915f52600560205260405f20905f5260205260405f205556fea264697066735822122076176ee488edb9f6ee419a9611324d3516fa0a9bb2fcc8f38e4bb86470304b0164736f6c63430008210033","linkReferences":{}},"methodIdentifiers":{"PRECISION()":"aaf5eb68","acceptAdmin()":"0e18b681","admin()":"f851a440","claimCollateral(bytes32)":"e3fc028d","collateralDust(bytes32)":"997dc62e","collateralTokens(bytes32)":"d1a294c4","cumulativeGainPerGUSD(bytes32)":"3b5b7e3d","deposit(uint256)":"b6b55f25","depositEpoch(address)":"b2a6b800","depositScaleSnapshot(address)":"b0c8033d","deposits(address)":"fc7e286d","drainEpoch()":"504758d6","epochBoundaryScaleIndex(uint256)":"dd3049f0","gainSnapshots(address,bytes32)":"310599be","gusd()":"8c87ee90","offset(uint256,bytes32,uint256)":"742f9e71","pendingAdmin()":"26782247","pendingGain(address,bytes32)":"484be514","poolSize()":"4ec18db9","provideToSP(uint256)":"78c77a24","provideToSP(uint256,address)":"5f788d65","provideToSP(uint256,address[])":"6aebb1ab","registerCollateralToken(bytes32,address)":"9ff55263","registeredIlks(uint256)":"d672bf54","scaleIndex()":"f309f4d8","setVaultManager(address)":"b543503e","totalDeposits()":"7d882097","transferAdmin(address)":"75829def","vaultManager()":"8a4adf24","withdraw(uint256)":"2e1a7d4d","withdrawFromSP(uint256)":"2e54bf95"},"id":48}