{"abi":[{"type":"constructor","inputs":[{"name":"_gusd","type":"address","internalType":"address"},{"name":"_admin","type":"address","internalType":"address"}],"stateMutability":"nonpayable"},{"type":"function","name":"PRECISION","inputs":[],"outputs":[{"name":"","type":"uint256","internalType":"uint256"}],"stateMutability":"view"},{"type":"function","name":"acceptAdmin","inputs":[],"outputs":[],"stateMutability":"nonpayable"},{"type":"function","name":"admin","inputs":[],"outputs":[{"name":"","type":"address","internalType":"address"}],"stateMutability":"view"},{"type":"function","name":"claimCollateral","inputs":[{"name":"ilk","type":"bytes32","internalType":"bytes32"}],"outputs":[],"stateMutability":"nonpayable"},{"type":"function","name":"collateralDust","inputs":[{"name":"","type":"bytes32","internalType":"bytes32"}],"outputs":[{"name":"","type":"uint256","internalType":"uint256"}],"stateMutability":"view"},{"type":"function","name":"collateralTokens","inputs":[{"name":"","type":"bytes32","internalType":"bytes32"}],"outputs":[{"name":"","type":"address","internalType":"address"}],"stateMutability":"view"},{"type":"function","name":"cumulativeGainPerGUSD","inputs":[{"name":"","type":"bytes32","internalType":"bytes32"}],"outputs":[{"name":"","type":"uint256","internalType":"uint256"}],"stateMutability":"view"},{"type":"function","name":"deposit","inputs":[{"name":"amount","type":"uint256","internalType":"uint256"}],"outputs":[],"stateMutability":"nonpayable"},{"type":"function","name":"depositEpoch","inputs":[{"name":"","type":"address","internalType":"address"}],"outputs":[{"name":"","type":"uint256","internalType":"uint256"}],"stateMutability":"view"},{"type":"function","name":"depositScaleSnapshot","inputs":[{"name":"","type":"address","internalType":"address"}],"outputs":[{"name":"","type":"uint256","internalType":"uint256"}],"stateMutability":"view"},{"type":"function","name":"deposits","inputs":[{"name":"","type":"address","internalType":"address"}],"outputs":[{"name":"","type":"uint256","internalType":"uint256"}],"stateMutability":"view"},{"type":"function","name":"drainEpoch","inputs":[],"outputs":[{"name":"","type":"uint256","internalType":"uint256"}],"stateMutability":"view"},{"type":"function","name":"epochBoundaryScaleIndex","inputs":[{"name":"","type":"uint256","internalType":"uint256"}],"outputs":[{"name":"","type":"uint256","internalType":"uint256"}],"stateMutability":"view"},{"type":"function","name":"gainSnapshots","inputs":[{"name":"","type":"address","internalType":"address"},{"name":"","type":"bytes32","internalType":"bytes32"}],"outputs":[{"name":"","type":"uint256","internalType":"uint256"}],"stateMutability":"view"},{"type":"function","name":"gusd","inputs":[],"outputs":[{"name":"","type":"address","internalType":"contract IgUSD"}],"stateMutability":"view"},{"type":"function","name":"offset","inputs":[{"name":"debtAmount","type":"uint256","internalType":"uint256"},{"name":"ilk","type":"bytes32","internalType":"bytes32"},{"name":"collAmount","type":"uint256","internalType":"uint256"}],"outputs":[],"stateMutability":"nonpayable"},{"type":"function","name":"pendingAdmin","inputs":[],"outputs":[{"name":"","type":"address","internalType":"address"}],"stateMutability":"view"},{"type":"function","name":"pendingGain","inputs":[{"name":"user","type":"address","internalType":"address"},{"name":"ilk","type":"bytes32","internalType":"bytes32"}],"outputs":[{"name":"","type":"uint256","internalType":"uint256"}],"stateMutability":"view"},{"type":"function","name":"poolSize","inputs":[],"outputs":[{"name":"","type":"uint256","internalType":"uint256"}],"stateMutability":"view"},{"type":"function","name":"provideToSP","inputs":[{"name":"amount","type":"uint256","internalType":"uint256"},{"name":"","type":"address","internalType":"address"}],"outputs":[],"stateMutability":"nonpayable"},{"type":"function","name":"provideToSP","inputs":[{"name":"amount","type":"uint256","internalType":"uint256"},{"name":"","type":"address[]","internalType":"address[]"}],"outputs":[],"stateMutability":"nonpayable"},{"type":"function","name":"provideToSP","inputs":[{"name":"amount","type":"uint256","internalType":"uint256"}],"outputs":[],"stateMutability":"nonpayable"},{"type":"function","name":"registerCollateralToken","inputs":[{"name":"ilk","type":"bytes32","internalType":"bytes32"},{"name":"token","type":"address","internalType":"address"}],"outputs":[],"stateMutability":"nonpayable"},{"type":"function","name":"registeredIlks","inputs":[{"name":"","type":"uint256","internalType":"uint256"}],"outputs":[{"name":"","type":"bytes32","internalType":"bytes32"}],"stateMutability":"view"},{"type":"function","name":"scaleIndex","inputs":[],"outputs":[{"name":"","type":"uint256","internalType":"uint256"}],"stateMutability":"view"},{"type":"function","name":"setVaultManager","inputs":[{"name":"_vm","type":"address","internalType":"address"}],"outputs":[],"stateMutability":"nonpayable"},{"type":"function","name":"totalDeposits","inputs":[],"outputs":[{"name":"","type":"uint256","internalType":"uint256"}],"stateMutability":"view"},{"type":"function","name":"transferAdmin","inputs":[{"name":"newAdmin","type":"address","internalType":"address"}],"outputs":[],"stateMutability":"nonpayable"},{"type":"function","name":"vaultManager","inputs":[],"outputs":[{"name":"","type":"address","internalType":"address"}],"stateMutability":"view"},{"type":"function","name":"withdraw","inputs":[{"name":"amount","type":"uint256","internalType":"uint256"}],"outputs":[],"stateMutability":"nonpayable"},{"type":"function","name":"withdrawFromSP","inputs":[{"name":"amount","type":"uint256","internalType":"uint256"}],"outputs":[],"stateMutability":"nonpayable"},{"type":"event","name":"AdminTransferProposed","inputs":[{"name":"currentAdmin","type":"address","indexed":true,"internalType":"address"},{"name":"pendingAdmin","type":"address","indexed":true,"internalType":"address"}],"anonymous":false},{"type":"event","name":"AdminTransferred","inputs":[{"name":"previousAdmin","type":"address","indexed":true,"internalType":"address"},{"name":"newAdmin","type":"address","indexed":true,"internalType":"address"}],"anonymous":false},{"type":"event","name":"CollateralClaimed","inputs":[{"name":"user","type":"address","indexed":true,"internalType":"address"},{"name":"ilk","type":"bytes32","indexed":true,"internalType":"bytes32"},{"name":"amount","type":"uint256","indexed":false,"internalType":"uint256"}],"anonymous":false},{"type":"event","name":"CollateralTokenRegistered","inputs":[{"name":"ilk","type":"bytes32","indexed":true,"internalType":"bytes32"},{"name":"token","type":"address","indexed":false,"internalType":"address"}],"anonymous":false},{"type":"event","name":"Deposited","inputs":[{"name":"user","type":"address","indexed":true,"internalType":"address"},{"name":"amount","type":"uint256","indexed":false,"internalType":"uint256"}],"anonymous":false},{"type":"event","name":"Offset","inputs":[{"name":"ilk","type":"bytes32","indexed":true,"internalType":"bytes32"},{"name":"debtBurned","type":"uint256","indexed":false,"internalType":"uint256"},{"name":"collateral","type":"uint256","indexed":false,"internalType":"uint256"}],"anonymous":false},{"type":"event","name":"VaultManagerSet","inputs":[{"name":"vm","type":"address","indexed":true,"internalType":"address"}],"anonymous":false},{"type":"event","name":"Withdrawn","inputs":[{"name":"user","type":"address","indexed":true,"internalType":"address"},{"name":"amount","type":"uint256","indexed":false,"internalType":"uint256"}],"anonymous":false}],"bytecode":{"object":"0x60a03461013657601f611abe38819003918201601f19168301916001600160401b0383118484101761013a57808492604094855283398101031261013657610052602061004b8361014e565b920161014e565b670de0b6b3a76400006007556001600160a01b03909116908115610101576001600160a01b03169081156100cb57608052600180546001600160a01b03191691909117905560405161195b908161016382396080518181816103d60152818161076501528181610ad701528181610de6015261113e0152f35b60405162461bcd60e51b815260206004820152600e60248201526d29a81d103d32b9379030b236b4b760911b6044820152606490fd5b60405162461bcd60e51b815260206004820152600d60248201526c14d40e881e995c9bc819d554d1609a1b6044820152606490fd5b5f80fd5b634e487b7160e01b5f52604160045260245ffd5b51906001600160a01b03821682036101365756fe6080806040526004361015610012575f80fd5b5f905f3560e01c9081630e18b6811461128357508063267822471461125b5780632e1a7d4d1461108a5780632e54bf951461108a578063310599be146110465780633b5b7e3d1461101c578063484be51414610fed5780634ec18db914610fd0578063504758d614610fb35780635f788d6514610ebc5780636aebb1ab14610cf6578063742f9e711461094857806375829def146108c857806378c77a24146107d95780637d882097146107bb5780638a4adf24146107945780638c87ee901461074f578063997dc62e146107255780639ff55263146105d1578063aaf5eb68146105ae578063b0c8033d14610575578063b2a6b8001461053c578063b543503e146104c2578063b6b55f25146102cb578063d1a294c414610298578063d672bf541461025e578063dd3049f014610234578063e3fc028d146101f5578063f309f4d8146101d7578063f851a440146101ae5763fc7e286d14610173575f80fd5b346101ab5760203660031901126101ab576020906040906001600160a01b0361019a61132d565b168152600483522054604051908152f35b80fd5b50346101ab57806003193601126101ab576001546040516001600160a01b039091168152602090f35b50346101ab57806003193601126101ab576020600754604051908152f35b50346101ab5760203660031901126101ab57610213600f5415611385565b6001600f556102213361168d565b61022d60043533611758565b80600f5580f35b50346101ab5760203660031901126101ab5760406020916004358152600d83522054604051908152f35b50346101ab5760203660031901126101ab5760043590600c548210156101ab57602061028983611359565b90549060031b1c604051908152f35b50346101ab5760203660031901126101ab576020906004358152600b8252604060018060a01b0391205416604051908152f35b50346101ab5760203660031901126101ab576004356102ec600f5415611385565b6001600f556102fc8115156113bd565b6103053361168d565b33825260096020526040822054600854116104af575b3382526004602052604082205415610451575b60206103d191338452600482526040842061034a828254611605565b905560075433855260068352604085205560085433855260098352604085205561037681600354611605565b6003556040518181527f2da466a7b24304f47e87fa2e1e5a81b9831ce54fec19055ce277ca2f39ba42c4833392a26040516323b872dd60e01b8152336004820152306024820152604481019190915291829081906064820190565b0381857f00000000000000000000000000000000000000000000000000000000000000006001600160a01b03165af180156104465761022d918391610417575b50611456565b610439915060203d60201161043f575b6104318183611408565b81019061143e565b5f610411565b503d610427565b6040513d84823e3d90fd5b600c54825b81811061046457505061032e565b80610470600192611359565b90549060031b1c8552600a602052604085205433865260056020526040862061049883611359565b90549060031b1c8752602052604086205501610456565b338252600460205281604081205561031b565b50346101ab5760203660031901126101ab576104dc61132d565b6104f160018060a01b03600154163314611612565b6001600160a01b031661050581151561164e565b81546001600160a01b031916811782557f8e902340d35762a5a36507c20fe38e5d549a721d9f846d6de7f397b5c26ab8538280a280f35b50346101ab5760203660031901126101ab576020906040906001600160a01b0361056461132d565b168152600983522054604051908152f35b50346101ab5760203660031901126101ab576020906040906001600160a01b0361059d61132d565b168152600683522054604051908152f35b50346101ab57806003193601126101ab576020604051670de0b6b3a76400008152f35b50346101ab5760403660031901126101ab576004356105ee611343565b61060360018060a01b03600154163314611612565b6001600160a01b031680156106ef57818352600b60205260408320546001600160a01b031615610677575b818352600b6020908152604080852080546001600160a01b03191684179055519182527f7b02323155ee1835f3ad82fb0682024a2f6ea1380e110430fc6eb75fbffc866591a280f35b600c54680100000000000000008110156106db577f7b02323155ee1835f3ad82fb0682024a2f6ea1380e110430fc6eb75fbffc8665916106bf82600160209401600c55611359565b81549060031b9086821b915f19901b191617905591505061062e565b634e487b7160e01b84526041600452602484fd5b60405162461bcd60e51b815260206004820152600e60248201526d29a81d103d32b937903a37b5b2b760911b6044820152606490fd5b50346101ab5760203660031901126101ab5760406020916004358152600e83522054604051908152f35b50346101ab57806003193601126101ab576040517f00000000000000000000000000000000000000000000000000000000000000006001600160a01b03168152602090f35b50346101ab57806003193601126101ab57546040516001600160a01b039091168152602090f35b50346101ab57806003193601126101ab576020600354604051908152f35b50346101ab5760203660031901126101ab576004356107fa600f5415611385565b6001600f5561080a8115156113bd565b6108133361168d565b33825260096020526040822054600854116108b5575b33825260046020526040822054156108575760206103d191338452600482526040842061034a828254611605565b600c54825b81811061086a57505061032e565b80610876600192611359565b90549060031b1c8552600a602052604085205433865260056020526040862061089e83611359565b90549060031b1c875260205260408620550161085c565b3382526004602052816040812055610829565b50346101ab5760203660031901126101ab576108e261132d565b6001546001600160a01b0316906108fa338314611612565b6001600160a01b03169061090f82151561164e565b600280546001600160a01b031916831790557fc02afc35b5d9b88807390ad5b17e685602c17339aa880db1dfe4e15cb3e2e3a18380a380f35b5034610b57576060366003190112610b575760043560243560443561096f600f5415611385565b6001600f555f546001600160a01b03163303610cb9578215610c845760035490838210610c4a575f838152600b60205260409020546109b8906001600160a01b031615156115c0565b5f838152600b60205260409020546001600160a01b03169115610c2c57670de0b6b3a76400008102818104670de0b6b3a76400001482151715610c0f57600354610a01916114ab565b835f52600a602052610a1860405f20918254611605565b90555b600354610a2885826113fb565b90151580610c23575b15610bbf5791610abd915f9484610a58610a4f602097600754611498565b600354906114ab565b6007555b6003557f9f0e2e27f318babf40f39455bf2da36279d485bbb154091390dab5c7e946359e604080518981528488820152a26040516323b872dd60e01b8152336004820152306024820152604481019190915293849283919082906064820190565b03925af1908115610b4c575f91610ba0575b5015610b5b577f00000000000000000000000000000000000000000000000000000000000000006001600160a01b031690813b15610b57575f91602483926040519485938492630852cd8d60e31b845260048401525af18015610b4c57610b39575b5080600f5580f35b610b4591505f90611408565b5f5f610b31565b6040513d5f823e3d90fd5b5f80fd5b60405162461bcd60e51b815260206004820152601e60248201527f53503a20636f6c6c61746572616c207472616e73666572206661696c656400006044820152606490fd5b610bb9915060203d60201161043f576104318183611408565b5f610acf565b8015610bd5575b91610abd915f94602094610a5c565b916007546008545f52600d60205260405f20556008549160018301809311610c0f57600892909255670de0b6b3a764000060075591610bc6565b634e487b7160e01b5f52601160045260245ffd5b50801515610a31565b825f52600e60205260405f20610c43828254611605565b9055610a1b565b60405162461bcd60e51b815260206004820152601260248201527114d40e881c1bdbdb081d1bdbc81cdb585b1b60721b6044820152606490fd5b60405162461bcd60e51b815260206004820152600d60248201526c14d40e881e995c9bc81919589d609a1b6044820152606490fd5b60405162461bcd60e51b815260206004820152601560248201527429a81d103737ba103b30bab63a1036b0b730b3b2b960591b6044820152606490fd5b34610b57576040366003190112610b575760043560243567ffffffffffffffff8111610b575736602382011215610b575780600401359067ffffffffffffffff8211610b5757602490369260051b010111610b5757610d57600f5415611385565b6001600f55610d678115156113bd565b610d703361168d565b335f52600960205260405f205460085411610ea9575b335f52600460205260405f205415610e4b575b6020610de191335f526004825260405f20610db5828254611605565b9055600754335f526006835260405f2055600854335f526009835260405f205561037681600354611605565b03815f7f00000000000000000000000000000000000000000000000000000000000000006001600160a01b03165af18015610b4c57610e26915f91610e2c5750611456565b5f600f55005b610e45915060203d60201161043f576104318183611408565b82610411565b600c545f5b818110610e5e575050610d99565b80610e6a600192611359565b90549060031b1c5f52600a60205260405f2054335f52600560205260405f20610e9283611359565b90549060031b1c5f5260205260405f205501610e50565b335f5260046020525f6040812055610d86565b34610b57576040366003190112610b5757600435610ed8611343565b50610ee5600f5415611385565b6001600f55610ef58115156113bd565b610efe3361168d565b335f52600960205260405f205460085411610fa0575b335f52600460205260405f205415610f42576020610de191335f526004825260405f20610db5828254611605565b600c545f5b818110610f55575050610d99565b80610f61600192611359565b90549060031b1c5f52600a60205260405f2054335f52600560205260405f20610f8983611359565b90549060031b1c5f5260205260405f205501610f47565b335f5260046020525f6040812055610f14565b34610b57575f366003190112610b57576020600854604051908152f35b34610b57575f366003190112610b57576020600354604051908152f35b34610b57576040366003190112610b5757602061101461100b61132d565b602435906114c9565b604051908152f35b34610b57576020366003190112610b57576004355f52600a602052602060405f2054604051908152f35b34610b57576040366003190112610b57576001600160a01b0361106761132d565b165f52600560205260405f206024355f52602052602060405f2054604051908152f35b34610b57576020366003190112610b57576004356110aa600f5415611385565b6001600f556110ba8115156113bd565b6110c33361168d565b335f52600960205260405f20546008541161120c57335f5260046020528060405f2054106111c757335f52600460205260405f206111028282546113fb565b9055611110816003546113fb565b60035560405163a9059cbb60e01b8152336004820152602481018290526020816044815f6001600160a01b037f0000000000000000000000000000000000000000000000000000000000000000165af18015610b4c57611176915f916111a85750611456565b6040519081527f7084f5476618d8e60b11ef0d7d3f06914655adb8793e28ff7f018d4c76d505d560203392a25f600f55005b6111c1915060203d60201161043f576104318183611408565b83610411565b60405162461bcd60e51b815260206004820152601860248201527f53503a20696e73756666696369656e74206465706f73697400000000000000006044820152606490fd5b60405162461bcd60e51b815260206004820152602160248201527f53503a206465706f736974206275726e656420696e206c69717569646174696f6044820152603760f91b6064820152608490fd5b34610b57575f366003190112610b57576002546040516001600160a01b039091168152602090f35b34610b57575f366003190112610b57576002546001600160a01b03811691338390036112f35750600180546001600160a01b0319808216851790925591166002556001600160a01b03167ff8ccb027dfcd135e000e9d45e6cc2d662578a8825d4c45b5e32e0adf67e79ec65f80a3005b62461bcd60e51b815260206004820152601560248201527429a81d103737ba103832b73234b7339030b236b4b760591b6044820152606490fd5b600435906001600160a01b0382168203610b5757565b602435906001600160a01b0382168203610b5757565b600c5481101561137157600c5f5260205f2001905f90565b634e487b7160e01b5f52603260045260245ffd5b1561138c57565b60405162461bcd60e51b81526020600482015260096024820152681499595b9d1c985b9d60ba1b6044820152606490fd5b156113c457565b60405162461bcd60e51b815260206004820152600f60248201526e14d40e881e995c9bc8185b5bdd5b9d608a1b6044820152606490fd5b91908203918211610c0f57565b90601f8019910116810190811067ffffffffffffffff82111761142a57604052565b634e487b7160e01b5f52604160045260245ffd5b90816020910312610b5757518015158103610b575790565b1561145d57565b60405162461bcd60e51b815260206004820152601360248201527214d40e881d1c985b9cd9995c8819985a5b1959606a1b6044820152606490fd5b81810292918115918404141715610c0f57565b81156114b5570490565b634e487b7160e01b5f52601260045260245ffd5b6001600160a01b03165f818152600460205260409020549182156115b957670de0b6b3a76400009282611576935f52600660205260405f2054155f146115a757845b815f52600960205260405f205460085481105f1461159e575f52600d60205260405f20545b8015611597575b81810361157a575b50508261157092935f52600a60205260405f2054915f52600560205260405f20905f5260205260405f2054906113fb565b90611498565b0490565b9061158b6115909261157095611498565b6114ab565b915f61153f565b5085611537565b50600754611530565b805f52600660205260405f205461150b565b5050505f90565b156115c757565b60405162461bcd60e51b815260206004820152601660248201527514d40e881a5b1ac81b9bdd081c9959da5cdd195c995960521b6044820152606490fd5b91908201809211610c0f57565b1561161957565b60405162461bcd60e51b815260206004820152600d60248201526c29a81d103737ba1030b236b4b760991b6044820152606490fd5b1561165557565b60405162461bcd60e51b815260206004820152601060248201526f53503a207a65726f206164647265737360801b6044820152606490fd5b6001600160a01b03165f8181526004602052604090205490811561175457805f52600660205260405f2054918215611744575b815f52600960205260405f205460085481105f1461173a575f52600d60205260405f2054925b831561172a575b8084036116fb575b50505050565b61158b8461170893611498565b815f52600460205260405f20555f52600660205260405f20555f8080806116f5565b670de0b6b3a764000093506116ed565b50600754926116e6565b670de0b6b3a764000092506116c0565b5050565b5f828152600b602052604090205461177a906001600160a01b031615156115c0565b6001600160a01b0381165f81815260046020526040902054909181156118fc57835f52600a60205260405f205491835f52600560205260405f20855f526020526117c860405f2054846113fb565b9081156118f457670de0b6b3a7640000916117e291611498565b0491835f52600560205260405f20855f5260205260405f2055816118065750505050565b5f848152600b6020908152604080832054905163a9059cbb60e01b81526001600160a01b039485166004820152602481018690529391928492604492849291165af1908115610b4c575f916118d5575b50156118905760207f85e429e8a0bf56d9ab471a80ddf210f520769a1bda3ee3946bab002feb6d0e8d91604051908152a35f8080806116f5565b60405162461bcd60e51b815260206004820152601a60248201527f53503a20636f6c6c61746572616c2073656e64206661696c65640000000000006044820152606490fd5b6118ee915060203d60201161043f576104318183611408565b5f611856565b505050505050565b505090805f52600a60205260405f2054915f52600560205260405f20905f5260205260405f205556fea26469706673582212200360ee754817c902800fd447ea955553e85ccde5a2fdcf33c78332343dfa60b264736f6c63430008210033","linkReferences":{}},"methodIdentifiers":{"PRECISION()":"aaf5eb68","acceptAdmin()":"0e18b681","admin()":"f851a440","claimCollateral(bytes32)":"e3fc028d","collateralDust(bytes32)":"997dc62e","collateralTokens(bytes32)":"d1a294c4","cumulativeGainPerGUSD(bytes32)":"3b5b7e3d","deposit(uint256)":"b6b55f25","depositEpoch(address)":"b2a6b800","depositScaleSnapshot(address)":"b0c8033d","deposits(address)":"fc7e286d","drainEpoch()":"504758d6","epochBoundaryScaleIndex(uint256)":"dd3049f0","gainSnapshots(address,bytes32)":"310599be","gusd()":"8c87ee90","offset(uint256,bytes32,uint256)":"742f9e71","pendingAdmin()":"26782247","pendingGain(address,bytes32)":"484be514","poolSize()":"4ec18db9","provideToSP(uint256)":"78c77a24","provideToSP(uint256,address)":"5f788d65","provideToSP(uint256,address[])":"6aebb1ab","registerCollateralToken(bytes32,address)":"9ff55263","registeredIlks(uint256)":"d672bf54","scaleIndex()":"f309f4d8","setVaultManager(address)":"b543503e","totalDeposits()":"7d882097","transferAdmin(address)":"75829def","vaultManager()":"8a4adf24","withdraw(uint256)":"2e1a7d4d","withdrawFromSP(uint256)":"2e54bf95"},"id":48}