{"abi":[{"type":"constructor","inputs":[{"name":"_gusd","type":"address","internalType":"address"},{"name":"_admin","type":"address","internalType":"address"}],"stateMutability":"nonpayable"},{"type":"function","name":"PRECISION","inputs":[],"outputs":[{"name":"","type":"uint256","internalType":"uint256"}],"stateMutability":"view"},{"type":"function","name":"admin","inputs":[],"outputs":[{"name":"","type":"address","internalType":"address"}],"stateMutability":"view"},{"type":"function","name":"claimCollateral","inputs":[{"name":"ilk","type":"bytes32","internalType":"bytes32"}],"outputs":[],"stateMutability":"nonpayable"},{"type":"function","name":"collateralDust","inputs":[{"name":"","type":"bytes32","internalType":"bytes32"}],"outputs":[{"name":"","type":"uint256","internalType":"uint256"}],"stateMutability":"view"},{"type":"function","name":"collateralTokens","inputs":[{"name":"","type":"bytes32","internalType":"bytes32"}],"outputs":[{"name":"","type":"address","internalType":"address"}],"stateMutability":"view"},{"type":"function","name":"cumulativeGainPerGUSD","inputs":[{"name":"","type":"bytes32","internalType":"bytes32"}],"outputs":[{"name":"","type":"uint256","internalType":"uint256"}],"stateMutability":"view"},{"type":"function","name":"deposit","inputs":[{"name":"amount","type":"uint256","internalType":"uint256"}],"outputs":[],"stateMutability":"nonpayable"},{"type":"function","name":"depositEpoch","inputs":[{"name":"","type":"address","internalType":"address"}],"outputs":[{"name":"","type":"uint256","internalType":"uint256"}],"stateMutability":"view"},{"type":"function","name":"depositScaleSnapshot","inputs":[{"name":"","type":"address","internalType":"address"}],"outputs":[{"name":"","type":"uint256","internalType":"uint256"}],"stateMutability":"view"},{"type":"function","name":"deposits","inputs":[{"name":"","type":"address","internalType":"address"}],"outputs":[{"name":"","type":"uint256","internalType":"uint256"}],"stateMutability":"view"},{"type":"function","name":"drainEpoch","inputs":[],"outputs":[{"name":"","type":"uint256","internalType":"uint256"}],"stateMutability":"view"},{"type":"function","name":"epochBoundaryScaleIndex","inputs":[{"name":"","type":"uint256","internalType":"uint256"}],"outputs":[{"name":"","type":"uint256","internalType":"uint256"}],"stateMutability":"view"},{"type":"function","name":"gainSnapshots","inputs":[{"name":"","type":"address","internalType":"address"},{"name":"","type":"bytes32","internalType":"bytes32"}],"outputs":[{"name":"","type":"uint256","internalType":"uint256"}],"stateMutability":"view"},{"type":"function","name":"gusd","inputs":[],"outputs":[{"name":"","type":"address","internalType":"contract IgUSD"}],"stateMutability":"view"},{"type":"function","name":"offset","inputs":[{"name":"debtAmount","type":"uint256","internalType":"uint256"},{"name":"ilk","type":"bytes32","internalType":"bytes32"},{"name":"collAmount","type":"uint256","internalType":"uint256"}],"outputs":[],"stateMutability":"nonpayable"},{"type":"function","name":"pendingGain","inputs":[{"name":"user","type":"address","internalType":"address"},{"name":"ilk","type":"bytes32","internalType":"bytes32"}],"outputs":[{"name":"","type":"uint256","internalType":"uint256"}],"stateMutability":"view"},{"type":"function","name":"poolSize","inputs":[],"outputs":[{"name":"","type":"uint256","internalType":"uint256"}],"stateMutability":"view"},{"type":"function","name":"provideToSP","inputs":[{"name":"amount","type":"uint256","internalType":"uint256"},{"name":"","type":"address","internalType":"address"}],"outputs":[],"stateMutability":"nonpayable"},{"type":"function","name":"provideToSP","inputs":[{"name":"amount","type":"uint256","internalType":"uint256"},{"name":"","type":"address[]","internalType":"address[]"}],"outputs":[],"stateMutability":"nonpayable"},{"type":"function","name":"provideToSP","inputs":[{"name":"amount","type":"uint256","internalType":"uint256"}],"outputs":[],"stateMutability":"nonpayable"},{"type":"function","name":"registerCollateralToken","inputs":[{"name":"ilk","type":"bytes32","internalType":"bytes32"},{"name":"token","type":"address","internalType":"address"}],"outputs":[],"stateMutability":"nonpayable"},{"type":"function","name":"registeredIlks","inputs":[{"name":"","type":"uint256","internalType":"uint256"}],"outputs":[{"name":"","type":"bytes32","internalType":"bytes32"}],"stateMutability":"view"},{"type":"function","name":"scaleIndex","inputs":[],"outputs":[{"name":"","type":"uint256","internalType":"uint256"}],"stateMutability":"view"},{"type":"function","name":"setVaultManager","inputs":[{"name":"_vm","type":"address","internalType":"address"}],"outputs":[],"stateMutability":"nonpayable"},{"type":"function","name":"totalDeposits","inputs":[],"outputs":[{"name":"","type":"uint256","internalType":"uint256"}],"stateMutability":"view"},{"type":"function","name":"transferAdmin","inputs":[{"name":"newAdmin","type":"address","internalType":"address"}],"outputs":[],"stateMutability":"nonpayable"},{"type":"function","name":"vaultManager","inputs":[],"outputs":[{"name":"","type":"address","internalType":"address"}],"stateMutability":"view"},{"type":"function","name":"withdraw","inputs":[{"name":"amount","type":"uint256","internalType":"uint256"}],"outputs":[],"stateMutability":"nonpayable"},{"type":"function","name":"withdrawFromSP","inputs":[{"name":"amount","type":"uint256","internalType":"uint256"}],"outputs":[],"stateMutability":"nonpayable"},{"type":"event","name":"CollateralClaimed","inputs":[{"name":"user","type":"address","indexed":true,"internalType":"address"},{"name":"ilk","type":"bytes32","indexed":true,"internalType":"bytes32"},{"name":"amount","type":"uint256","indexed":false,"internalType":"uint256"}],"anonymous":false},{"type":"event","name":"CollateralTokenRegistered","inputs":[{"name":"ilk","type":"bytes32","indexed":true,"internalType":"bytes32"},{"name":"token","type":"address","indexed":false,"internalType":"address"}],"anonymous":false},{"type":"event","name":"Deposited","inputs":[{"name":"user","type":"address","indexed":true,"internalType":"address"},{"name":"amount","type":"uint256","indexed":false,"internalType":"uint256"}],"anonymous":false},{"type":"event","name":"Offset","inputs":[{"name":"ilk","type":"bytes32","indexed":true,"internalType":"bytes32"},{"name":"debtBurned","type":"uint256","indexed":false,"internalType":"uint256"},{"name":"collateral","type":"uint256","indexed":false,"internalType":"uint256"}],"anonymous":false},{"type":"event","name":"VaultManagerSet","inputs":[{"name":"vm","type":"address","indexed":true,"internalType":"address"}],"anonymous":false},{"type":"event","name":"Withdrawn","inputs":[{"name":"user","type":"address","indexed":true,"internalType":"address"},{"name":"amount","type":"uint256","indexed":false,"internalType":"uint256"}],"anonymous":false}],"bytecode":{"object":"0x60a03461013657601f611a1f38819003918201601f19168301916001600160401b0383118484101761013a57808492604094855283398101031261013657610052602061004b8361014e565b920161014e565b670de0b6b3a76400006006556001600160a01b03909116908115610101576001600160a01b03169081156100cb57608052600180546001600160a01b0319169190911790556040516118bc908161016382396080518181816103420152818161074c01528181610a2e01528181610db301526111900152f35b60405162461bcd60e51b815260206004820152600e60248201526d29a81d103d32b9379030b236b4b760911b6044820152606490fd5b60405162461bcd60e51b815260206004820152600d60248201526c14d40e881e995c9bc819d554d1609a1b6044820152606490fd5b5f80fd5b634e487b7160e01b5f52604160045260245ffd5b51906001600160a01b03821682036101365756fe60806040526004361015610011575f80fd5b5f5f3560e01c80632e1a7d4d146110dc5780632e54bf95146110dc578063310599be146110985780633b5b7e3d1461106e578063484be5141461103f5780634ec18db914611022578063504758d6146110055780635f788d6514610efd5780636aebb1ab14610ce2578063742f9e711461091857806375829def146108c057806378c77a24146107c05780637d882097146107a25780638a4adf241461077b5780638c87ee9014610736578063997dc62e1461070c5780639ff55263146105b8578063aaf5eb6814610595578063b0c8033d1461055c578063b2a6b80014610523578063b543503e146104a9578063b6b55f25146102b1578063d1a294c41461027e578063d672bf5414610244578063dd3049f01461021a578063e3fc028d146101db578063f309f4d8146101bd578063f851a440146101945763fc7e286d14610159575f80fd5b34610191576020366003190112610191576020906040906001600160a01b0361018061128e565b168152600383522054604051908152f35b80fd5b50346101915780600319360112610191576001546040516001600160a01b039091168152602090f35b50346101915780600319360112610191576020600654604051908152f35b5034610191576020366003190112610191576101f9600e54156112e6565b6001600e55610207336115ee565b610213600435336116b9565b80600e5580f35b50346101915760203660031901126101915760406020916004358152600c83522054604051908152f35b50346101915760203660031901126101915760043590600b5482101561019157602061026f836112ba565b90549060031b1c604051908152f35b5034610191576020366003190112610191576020906004358152600a8252604060018060a01b0391205416604051908152f35b5034610191576020366003190112610191576004356102d2600e54156112e6565b6001600e556102e281151561131e565b6102eb336115ee565b3382526008602052604082205460075411610496575b3382526003602052604082205415610438575b6040516323b872dd60e01b81523360048201523060248201526044810182905260208180606481015b0381867f00000000000000000000000000000000000000000000000000000000000000006001600160a01b03165af1801561042d576103839184916103fe575b506113b7565b33825260036020526040822061039a828254611566565b905560065433835260056020526040832055600754338352600860205260408320556103c881600254611566565b6002556040519081527f2da466a7b24304f47e87fa2e1e5a81b9831ce54fec19055ce277ca2f39ba42c460203392a280600e5580f35b610420915060203d602011610426575b6104188183611369565b81019061139f565b5f61037d565b503d61040e565b6040513d85823e3d90fd5b600b54825b81811061044b575050610314565b806104576001926112ba565b90549060031b1c85526009602052604085205433865260046020526040862061047f836112ba565b90549060031b1c875260205260408620550161043d565b3382526003602052816040812055610301565b5034610191576020366003190112610191576104c361128e565b6104d860018060a01b03600154163314611573565b6001600160a01b03166104ec8115156115af565b81546001600160a01b031916811782557f8e902340d35762a5a36507c20fe38e5d549a721d9f846d6de7f397b5c26ab8538280a280f35b5034610191576020366003190112610191576020906040906001600160a01b0361054b61128e565b168152600883522054604051908152f35b5034610191576020366003190112610191576020906040906001600160a01b0361058461128e565b168152600583522054604051908152f35b50346101915780600319360112610191576020604051670de0b6b3a76400008152f35b5034610191576040366003190112610191576004356105d56112a4565b6105ea60018060a01b03600154163314611573565b6001600160a01b031680156106d657818352600a60205260408320546001600160a01b03161561065e575b818352600a6020908152604080852080546001600160a01b03191684179055519182527f7b02323155ee1835f3ad82fb0682024a2f6ea1380e110430fc6eb75fbffc866591a280f35b600b54680100000000000000008110156106c2577f7b02323155ee1835f3ad82fb0682024a2f6ea1380e110430fc6eb75fbffc8665916106a682600160209401600b556112ba565b81549060031b9086821b915f19901b1916179055915050610615565b634e487b7160e01b84526041600452602484fd5b60405162461bcd60e51b815260206004820152600e60248201526d29a81d103d32b937903a37b5b2b760911b6044820152606490fd5b50346101915760203660031901126101915760406020916004358152600d83522054604051908152f35b50346101915780600319360112610191576040517f00000000000000000000000000000000000000000000000000000000000000006001600160a01b03168152602090f35b5034610191578060031936011261019157546040516001600160a01b039091168152602090f35b50346101915780600319360112610191576020600254604051908152f35b5034610191576020366003190112610191576004356107e1600e54156112e6565b6001600e556107f181151561131e565b6107fa336115ee565b33825260086020526040822054600754116108ad575b338252600360205260408220541561084f576040516323b872dd60e01b815233600482015230602482015260448101829052602081806064810161033d565b600b54825b818110610862575050610314565b8061086e6001926112ba565b90549060031b1c855260096020526040852054338652600460205260408620610896836112ba565b90549060031b1c8752602052604086205501610854565b3382526003602052816040812055610810565b5034610191576020366003190112610191576108da61128e565b600154906108f2336001600160a01b03841614611573565b6001600160a01b0316906109078215156115af565b6001600160a01b0319161760015580f35b5034610b9c576060366003190112610b9c5760043560243590604435610940600e54156112e6565b6001600e555f546001600160a01b03163303610ca5578115610c70578160025410610c36575f838152600a6020526040902054610987906001600160a01b03161515611521565b5f838152600a602090815260408083205490516323b872dd60e01b81523360048201523060248201526044810185905292839160649183916001600160a01b03165af1908115610b91575f91610c17575b5015610bd25760025415610bb457670de0b6b3a76400008102818104670de0b6b3a76400001482151715610ba057600254610a129161140c565b835f526009602052610a2960405f20918254611566565b90555b7f00000000000000000000000000000000000000000000000000000000000000006001600160a01b0316803b15610b9c575f8091602460405180948193630852cd8d60e31b83528860048401525af18015610b9157610b7c575b50600254610a94838261135c565b90151580610b73575b15610af9579160409183610ae0610ad77f9f0e2e27f318babf40f39455bf2da36279d485bbb154091390dab5c7e946359e966006546113f9565b6002549061140c565b6006555b60025582519182526020820152a280600e5580f35b8015610b2b575b916040917f9f0e2e27f318babf40f39455bf2da36279d485bbb154091390dab5c7e946359e93610ae4565b6006546007548652600c602052604086205560075460018101809111610b5f57600755670de0b6b3a7640000600655610b00565b634e487b7160e01b86526011600452602486fd5b50801515610a9d565b610b899194505f90611369565b5f925f610a86565b6040513d5f823e3d90fd5b5f80fd5b634e487b7160e01b5f52601160045260245ffd5b825f52600d60205260405f20610bcb828254611566565b9055610a2c565b60405162461bcd60e51b815260206004820152601e60248201527f53503a20636f6c6c61746572616c207472616e73666572206661696c656400006044820152606490fd5b610c30915060203d602011610426576104188183611369565b5f6109d8565b60405162461bcd60e51b815260206004820152601260248201527114d40e881c1bdbdb081d1bdbc81cdb585b1b60721b6044820152606490fd5b60405162461bcd60e51b815260206004820152600d60248201526c14d40e881e995c9bc81919589d609a1b6044820152606490fd5b60405162461bcd60e51b815260206004820152601560248201527429a81d103737ba103b30bab63a1036b0b730b3b2b960591b6044820152606490fd5b34610b9c576040366003190112610b9c5760043560243567ffffffffffffffff8111610b9c5736602382011215610b9c5780600401359067ffffffffffffffff8211610b9c57602490369260051b010111610b9c57610d43600e54156112e6565b6001600e55610d5381151561131e565b610d5c336115ee565b335f52600860205260405f205460075411610eea575b335f52600360205260405f205415610e8c575b6040516323b872dd60e01b81523360048201523060248201526044810182905260208180606481015b03815f7f00000000000000000000000000000000000000000000000000000000000000006001600160a01b03165af18015610b9157610df3915f91610e6d57506113b7565b335f52600360205260405f20610e0a828254611566565b9055600654335f52600560205260405f2055600754335f52600860205260405f2055610e3881600254611566565b6002556040519081527f2da466a7b24304f47e87fa2e1e5a81b9831ce54fec19055ce277ca2f39ba42c460203392a25f600e55005b610e86915060203d602011610426576104188183611369565b8361037d565b600b545f5b818110610e9f575050610d85565b80610eab6001926112ba565b90549060031b1c5f52600960205260405f2054335f52600460205260405f20610ed3836112ba565b90549060031b1c5f5260205260405f205501610e91565b335f5260036020525f6040812055610d72565b34610b9c576040366003190112610b9c57600435610f196112a4565b50610f26600e54156112e6565b6001600e55610f3681151561131e565b610f3f336115ee565b335f52600860205260405f205460075411610ff2575b335f52600360205260405f205415610f94576040516323b872dd60e01b8152336004820152306024820152604481018290526020818060648101610dae565b600b545f5b818110610fa7575050610d85565b80610fb36001926112ba565b90549060031b1c5f52600960205260405f2054335f52600460205260405f20610fdb836112ba565b90549060031b1c5f5260205260405f205501610f99565b335f5260036020525f6040812055610f55565b34610b9c575f366003190112610b9c576020600754604051908152f35b34610b9c575f366003190112610b9c576020600254604051908152f35b34610b9c576040366003190112610b9c57602061106661105d61128e565b6024359061142a565b604051908152f35b34610b9c576020366003190112610b9c576004355f526009602052602060405f2054604051908152f35b34610b9c576040366003190112610b9c576001600160a01b036110b961128e565b165f52600460205260405f206024355f52602052602060405f2054604051908152f35b34610b9c576020366003190112610b9c576004356110fc600e54156112e6565b6001600e5561110c81151561131e565b611115336115ee565b335f52600860205260405f20546007541161123f57335f5260036020528060405f2054106111fa57335f52600360205260405f2061115482825461135c565b90556111628160025461135c565b60025560405163a9059cbb60e01b8152336004820152602481018290526020816044815f6001600160a01b037f0000000000000000000000000000000000000000000000000000000000000000165af18015610b91576111c8915f91610e6d57506113b7565b6040519081527f7084f5476618d8e60b11ef0d7d3f06914655adb8793e28ff7f018d4c76d505d560203392a25f600e55005b60405162461bcd60e51b815260206004820152601860248201527f53503a20696e73756666696369656e74206465706f73697400000000000000006044820152606490fd5b60405162461bcd60e51b815260206004820152602160248201527f53503a206465706f736974206275726e656420696e206c69717569646174696f6044820152603760f91b6064820152608490fd5b600435906001600160a01b0382168203610b9c57565b602435906001600160a01b0382168203610b9c57565b600b548110156112d257600b5f5260205f2001905f90565b634e487b7160e01b5f52603260045260245ffd5b156112ed57565b60405162461bcd60e51b81526020600482015260096024820152681499595b9d1c985b9d60ba1b6044820152606490fd5b1561132557565b60405162461bcd60e51b815260206004820152600f60248201526e14d40e881e995c9bc8185b5bdd5b9d608a1b6044820152606490fd5b91908203918211610ba057565b90601f8019910116810190811067ffffffffffffffff82111761138b57604052565b634e487b7160e01b5f52604160045260245ffd5b90816020910312610b9c57518015158103610b9c5790565b156113be57565b60405162461bcd60e51b815260206004820152601360248201527214d40e881d1c985b9cd9995c8819985a5b1959606a1b6044820152606490fd5b81810292918115918404141715610ba057565b8115611416570490565b634e487b7160e01b5f52601260045260245ffd5b6001600160a01b03165f8181526003602052604090205491821561151a57670de0b6b3a764000092826114d7935f52600560205260405f2054155f1461150857845b815f52600860205260405f205460075481105f146114ff575f52600c60205260405f20545b80156114f8575b8181036114db575b5050826114d192935f52600960205260405f2054915f52600460205260405f20905f5260205260405f20549061135c565b906113f9565b0490565b906114ec6114f1926114d1956113f9565b61140c565b915f6114a0565b5085611498565b50600654611491565b805f52600560205260405f205461146c565b5050505f90565b1561152857565b60405162461bcd60e51b815260206004820152601660248201527514d40e881a5b1ac81b9bdd081c9959da5cdd195c995960521b6044820152606490fd5b91908201809211610ba057565b1561157a57565b60405162461bcd60e51b815260206004820152600d60248201526c29a81d103737ba1030b236b4b760991b6044820152606490fd5b156115b657565b60405162461bcd60e51b815260206004820152601060248201526f53503a207a65726f206164647265737360801b6044820152606490fd5b6001600160a01b03165f818152600360205260409020549081156116b557805f52600560205260405f20549182156116a5575b815f52600860205260405f205460075481105f1461169b575f52600c60205260405f2054925b831561168b575b80840361165c575b50505050565b6114ec84611669936113f9565b815f52600360205260405f20555f52600560205260405f20555f808080611656565b670de0b6b3a7640000935061164e565b5060065492611647565b670de0b6b3a76400009250611621565b5050565b5f828152600a60205260409020546116db906001600160a01b03161515611521565b6001600160a01b0381165f818152600360205260409020549091811561185d57835f52600960205260405f205491835f52600460205260405f20855f5260205261172960405f20548461135c565b90811561185557670de0b6b3a764000091611743916113f9565b0491835f52600460205260405f20855f5260205260405f2055816117675750505050565b5f848152600a6020908152604080832054905163a9059cbb60e01b81526001600160a01b039485166004820152602481018690529391928492604492849291165af1908115610b91575f91611836575b50156117f15760207f85e429e8a0bf56d9ab471a80ddf210f520769a1bda3ee3946bab002feb6d0e8d91604051908152a35f808080611656565b60405162461bcd60e51b815260206004820152601a60248201527f53503a20636f6c6c61746572616c2073656e64206661696c65640000000000006044820152606490fd5b61184f915060203d602011610426576104188183611369565b5f6117b7565b505050505050565b505090805f52600960205260405f2054915f52600460205260405f20905f5260205260405f205556fea2646970667358221220c0371c64718d8cb364493dd3bec18663999ef526cc5164783c16a86ca1ff146564736f6c63430008210033","linkReferences":{}},"methodIdentifiers":{"PRECISION()":"aaf5eb68","admin()":"f851a440","claimCollateral(bytes32)":"e3fc028d","collateralDust(bytes32)":"997dc62e","collateralTokens(bytes32)":"d1a294c4","cumulativeGainPerGUSD(bytes32)":"3b5b7e3d","deposit(uint256)":"b6b55f25","depositEpoch(address)":"b2a6b800","depositScaleSnapshot(address)":"b0c8033d","deposits(address)":"fc7e286d","drainEpoch()":"504758d6","epochBoundaryScaleIndex(uint256)":"dd3049f0","gainSnapshots(address,bytes32)":"310599be","gusd()":"8c87ee90","offset(uint256,bytes32,uint256)":"742f9e71","pendingGain(address,bytes32)":"484be514","poolSize()":"4ec18db9","provideToSP(uint256)":"78c77a24","provideToSP(uint256,address)":"5f788d65","provideToSP(uint256,address[])":"6aebb1ab","registerCollateralToken(bytes32,address)":"9ff55263","registeredIlks(uint256)":"d672bf54","scaleIndex()":"f309f4d8","setVaultManager(address)":"b543503e","totalDeposits()":"7d882097","transferAdmin(address)":"75829def","vaultManager()":"8a4adf24","withdraw(uint256)":"2e1a7d4d","withdrawFromSP(uint256)":"2e54bf95"},"id":97}