{"abi":[{"type":"constructor","inputs":[{"name":"_admin","type":"address","internalType":"address"}],"stateMutability":"nonpayable"},{"type":"function","name":"BPS","inputs":[],"outputs":[{"name":"","type":"uint256","internalType":"uint256"}],"stateMutability":"view"},{"type":"function","name":"PRICE_DECIMALS","inputs":[],"outputs":[{"name":"","type":"uint256","internalType":"uint256"}],"stateMutability":"view"},{"type":"function","name":"admin","inputs":[],"outputs":[{"name":"","type":"address","internalType":"address"}],"stateMutability":"view"},{"type":"function","name":"adminSetPrice","inputs":[{"name":"token","type":"address","internalType":"address"},{"name":"price","type":"uint256","internalType":"uint256"}],"outputs":[],"stateMutability":"nonpayable"},{"type":"function","name":"batchUpdatePrices","inputs":[{"name":"tokens","type":"address[]","internalType":"address[]"},{"name":"_prices","type":"uint256[]","internalType":"uint256[]"}],"outputs":[],"stateMutability":"nonpayable"},{"type":"function","name":"defaultMaxAge","inputs":[],"outputs":[{"name":"","type":"uint256","internalType":"uint256"}],"stateMutability":"view"},{"type":"function","name":"getAllTokens","inputs":[],"outputs":[{"name":"","type":"address[]","internalType":"address[]"}],"stateMutability":"view"},{"type":"function","name":"getPrice","inputs":[{"name":"token","type":"address","internalType":"address"}],"outputs":[{"name":"","type":"uint256","internalType":"uint256"}],"stateMutability":"view"},{"type":"function","name":"getPriceUnsafe","inputs":[{"name":"token","type":"address","internalType":"address"}],"outputs":[{"name":"price","type":"uint256","internalType":"uint256"},{"name":"timestamp","type":"uint256","internalType":"uint256"}],"stateMutability":"view"},{"type":"function","name":"getRelativePrice","inputs":[{"name":"tokenA","type":"address","internalType":"address"},{"name":"tokenB","type":"address","internalType":"address"}],"outputs":[{"name":"","type":"uint256","internalType":"uint256"}],"stateMutability":"view"},{"type":"function","name":"getTWAP","inputs":[{"name":"token","type":"address","internalType":"address"}],"outputs":[{"name":"","type":"uint256","internalType":"uint256"}],"stateMutability":"view"},{"type":"function","name":"keepers","inputs":[{"name":"","type":"address","internalType":"address"}],"outputs":[{"name":"","type":"bool","internalType":"bool"}],"stateMutability":"view"},{"type":"function","name":"maxDeviationBps","inputs":[],"outputs":[{"name":"","type":"uint256","internalType":"uint256"}],"stateMutability":"view"},{"type":"function","name":"prices","inputs":[{"name":"","type":"address","internalType":"address"}],"outputs":[{"name":"price","type":"uint256","internalType":"uint256"},{"name":"timestamp","type":"uint256","internalType":"uint256"},{"name":"twapCumulative","type":"uint256","internalType":"uint256"},{"name":"twapWindowStart","type":"uint256","internalType":"uint256"}],"stateMutability":"view"},{"type":"function","name":"registerToken","inputs":[{"name":"token","type":"address","internalType":"address"},{"name":"symbol","type":"string","internalType":"string"},{"name":"decimals","type":"uint8","internalType":"uint8"},{"name":"maxAge","type":"uint256","internalType":"uint256"}],"outputs":[],"stateMutability":"nonpayable"},{"type":"function","name":"registeredTokenCount","inputs":[],"outputs":[{"name":"","type":"uint256","internalType":"uint256"}],"stateMutability":"view"},{"type":"function","name":"registeredTokens","inputs":[{"name":"","type":"uint256","internalType":"uint256"}],"outputs":[{"name":"","type":"address","internalType":"address"}],"stateMutability":"view"},{"type":"function","name":"removeToken","inputs":[{"name":"token","type":"address","internalType":"address"}],"outputs":[],"stateMutability":"nonpayable"},{"type":"function","name":"setDefaultMaxAge","inputs":[{"name":"_maxAge","type":"uint256","internalType":"uint256"}],"outputs":[],"stateMutability":"nonpayable"},{"type":"function","name":"setKeeper","inputs":[{"name":"keeper","type":"address","internalType":"address"},{"name":"authorized","type":"bool","internalType":"bool"}],"outputs":[],"stateMutability":"nonpayable"},{"type":"function","name":"setMaxDeviation","inputs":[{"name":"_bps","type":"uint256","internalType":"uint256"}],"outputs":[],"stateMutability":"nonpayable"},{"type":"function","name":"setTokenMaxAge","inputs":[{"name":"token","type":"address","internalType":"address"},{"name":"_maxAge","type":"uint256","internalType":"uint256"}],"outputs":[],"stateMutability":"nonpayable"},{"type":"function","name":"tokenConfigs","inputs":[{"name":"","type":"address","internalType":"address"}],"outputs":[{"name":"symbol","type":"string","internalType":"string"},{"name":"decimals","type":"uint8","internalType":"uint8"},{"name":"maxAge","type":"uint256","internalType":"uint256"},{"name":"active","type":"bool","internalType":"bool"}],"stateMutability":"view"},{"type":"function","name":"updatePrice","inputs":[{"name":"token","type":"address","internalType":"address"},{"name":"price","type":"uint256","internalType":"uint256"}],"outputs":[],"stateMutability":"nonpayable"},{"type":"event","name":"AdminOverride","inputs":[{"name":"token","type":"address","indexed":true,"internalType":"address"},{"name":"price","type":"uint256","indexed":false,"internalType":"uint256"}],"anonymous":false},{"type":"event","name":"BatchPriceUpdate","inputs":[{"name":"count","type":"uint256","indexed":false,"internalType":"uint256"},{"name":"timestamp","type":"uint256","indexed":false,"internalType":"uint256"}],"anonymous":false},{"type":"event","name":"KeeperUpdated","inputs":[{"name":"keeper","type":"address","indexed":true,"internalType":"address"},{"name":"authorized","type":"bool","indexed":false,"internalType":"bool"}],"anonymous":false},{"type":"event","name":"MaxAgeUpdated","inputs":[{"name":"token","type":"address","indexed":true,"internalType":"address"},{"name":"maxAge","type":"uint256","indexed":false,"internalType":"uint256"}],"anonymous":false},{"type":"event","name":"PriceUpdated","inputs":[{"name":"token","type":"address","indexed":true,"internalType":"address"},{"name":"price","type":"uint256","indexed":false,"internalType":"uint256"},{"name":"timestamp","type":"uint256","indexed":false,"internalType":"uint256"}],"anonymous":false},{"type":"event","name":"TokenRegistered","inputs":[{"name":"token","type":"address","indexed":true,"internalType":"address"},{"name":"symbol","type":"string","indexed":false,"internalType":"string"},{"name":"decimals","type":"uint8","indexed":false,"internalType":"uint8"}],"anonymous":false},{"type":"event","name":"TokenRemoved","inputs":[{"name":"token","type":"address","indexed":true,"internalType":"address"}],"anonymous":false},{"type":"error","name":"ArrayLengthMismatch","inputs":[]},{"type":"error","name":"DeviationTooHigh","inputs":[{"name":"token","type":"address","internalType":"address"},{"name":"oldPrice","type":"uint256","internalType":"uint256"},{"name":"newPrice","type":"uint256","internalType":"uint256"}]},{"type":"error","name":"NotAdmin","inputs":[]},{"type":"error","name":"NotKeeper","inputs":[]},{"type":"error","name":"StalePrice","inputs":[{"name":"token","type":"address","internalType":"address"},{"name":"age","type":"uint256","internalType":"uint256"},{"name":"maxAge","type":"uint256","internalType":"uint256"}]},{"type":"error","name":"TokenNotRegistered","inputs":[{"name":"token","type":"address","internalType":"address"}]},{"type":"error","name":"ZeroAddress","inputs":[]},{"type":"error","name":"ZeroPrice","inputs":[]}],"bytecode":{"object":"0x60803460a157601f6112fd38819003918201601f19168301916001600160401b0383118484101760a55780849260209460405283398101031260a157516001600160a01b0381169081900360a15761012c6005556109c460065580156092578060018060a01b03195f5416175f555f52600160205260405f20600160ff1982541617905560405161124390816100ba8239f35b63d92e233d60e01b5f5260045ffd5b5f80fd5b634e487b7160e01b5f52604160045260245ffdfe6080806040526004361015610012575f80fd5b5f3560e01c9081631059395014610e9d575080631b69dc5f14610d8b5780631c172c1114610d6e5780631cba0b2914610cce578063249d39e914610cb25780632a5c792a14610bea5780632e9fac2514610bc05780633bbd64bc14610b835780633ee7a70114610b6657806341976e0914610ab2578063457972de14610a5b5780635fa7b5841461091d5780639a0ba2ea146108db5780639b56e6a71461079a578063a39e3e4214610433578063b6f9c0c714610315578063b724d010146102ea578063cfed246b14610290578063d1b9e85314610201578063dddbc049146101c8578063e5d3a97b146101ab578063f1a640f814610190578063f851a440146101695763f989568d14610124575f80fd5b34610165576020366003190112610165576001600160a01b03610145610f10565b165f5260026020526040805f206001815491015482519182526020820152f35b5f80fd5b34610165575f366003190112610165575f546040516001600160a01b039091168152602090f35b34610165575f36600319011261016557602060405160088152f35b34610165575f366003190112610165576020600454604051908152f35b34610165576020366003190112610165575f546001600160a01b031633036101f257600435600655005b637bfa4b9f60e01b5f5260045ffd5b346101655760403660031901126101655761021a610f10565b6024359081151590818303610165575f546001600160a01b031633036101f2577f786c9db967bf0c6b16c7c91adae8a8c554b15a57d373fa2059607300f4616c009161028760209260018060a01b031694855f526001845260405f209060ff801983541691151516179055565b604051908152a2005b34610165576020366003190112610165576001600160a01b036102b1610f10565b165f526002602052608060405f208054906001810154906003600282015491015491604051938452602084015260408301526060820152f35b3461016557602036600319011261016557602061030d610308610f10565b611038565b604051908152f35b346101655760403660031901126101655760043567ffffffffffffffff811161016557610346903690600401610fac565b9060243567ffffffffffffffff811161016557610367903690600401610fac565b9190335f52600160205260ff60405f205416158061041f575b61041057828403610401575f5b8481106103c6577fe59529fa03e2040fc09546681fc5914888dbea98c9dcbef3c542af4fdec225796040868151908152426020820152a1005b6103d181868561101b565b35906001600160a01b0382168203610165576103fb6001926103f483888761101b565b3590611109565b0161038d565b63512509d360e11b5f5260045ffd5b631ea2564f60e31b5f5260045ffd5b505f546001600160a01b0316331415610380565b346101655760803660031901126101655761044c610f10565b60243567ffffffffffffffff811161016557366023820112156101655780600401359067ffffffffffffffff821161016557602481019060248336920101116101655760443560ff8116809103610165575f54606435906001600160a01b031633036101f2576001600160a01b03851694851561078b57855f52600360205260ff600360405f2001541615610739575b50801561072f57905b6040516080810181811067ffffffffffffffff82111761071b57604052601f19601f8601169260405161051b6020860182610f5e565b868152868660208301375f602088830101528252602082019083825260408301908152606083019160018352885f52600360205260405f20935180519067ffffffffffffffff821161071b576105718654610f26565b601f81116106ca575b50602090601f831160011461063857936060989693836003947fcf66acda7673c71cd9458c59067eb30a473eeaf2fa05d008acf47616cbbbe01c9d9c9a9894610605985f9261062d575b50508160011b915f1990871b1c19161785555b60ff6001860191511660ff1982541617905551600284015551151591019060ff801983541691151516179055565b5f848660405197889660408852816040890152838801378501015260208301528101030190a2005b015190508f806105c4565b90601f19831691875f52815f20925f5b8181106106b25750847fcf66acda7673c71cd9458c59067eb30a473eeaf2fa05d008acf47616cbbbe01c9d9c9a9894610605989460609d9b98946003986001951061069b575b505050811b0185556105d7565b01515f1983891b60f8161c191690558f808061068e565b92936020600181928786015181550195019301610648565b8281111561057a57865f5260205f20601f840160051c9060208510610713575b81601f9101920160051c03905f5b82811061070657505061057a565b5f828201556001016106f8565b5f91506106ea565b634e487b7160e01b5f52604160045260245ffd5b50600554906104e5565b600454906801000000000000000082101561071b576107618260016107859401600455610f80565b81546001600160a01b0393841660039290921b91821b9390911b1916919091179055565b856104dc565b63d92e233d60e01b5f5260045ffd5b34610165576040366003190112610165576107b3610f10565b6024356001600160a01b0381169190829003610165576040516341976e0960e01b81526001600160a01b039091166004820152602081602481305afa90811561089e575f916108a9575b50604051916341976e0960e01b83526004830152602082602481305afa91821561089e575f9261086a575b50670de0b6b3a7640000810290808204670de0b6b3a764000014901517156108565760209161030d91610ffd565b634e487b7160e01b5f52601160045260245ffd5b9091506020813d602011610896575b8161088660209383610f5e565b8101031261016557519082610828565b3d9150610879565b6040513d5f823e3d90fd5b90506020813d6020116108d3575b816108c460209383610f5e565b810103126101655751826107fd565b3d91506108b7565b346101655760203660031901126101655760043560045481101561016557610904602091610f80565b905460405160039290921b1c6001600160a01b03168152f35b3461016557602036600319011261016557610936610f10565b5f546001600160a01b031633036101f2576001600160a01b03165f8181526003602081815260408084208301805460ff1916905560029182905283208381556001810184905590810183905501819055600454905b8181106109ba575b827f4c910b69fe65a61f7531b9c5042b2329ca7179c77290aa7e2eb3afa3c8511fd35f80a2005b826109c482610f80565b905460039190911b1c6001600160a01b0316146109e35760010161098b565b5f198201918211610856576107616109fd610a1593610f80565b905460039190911b1c6001600160a01b031691610f80565b6004548015610a47575f1901610a2a81610f80565b81549060018060a01b039060031b1b191690556004558180610993565b634e487b7160e01b5f52603160045260245ffd5b3461016557604036600319011261016557610a74610f10565b335f52600160205260ff60405f2054161580610a9e575b61041057610a9c9060243590611109565b005b505f546001600160a01b0316331415610a8b565b34610165576020366003190112610165576001600160a01b03610ad3610f10565b16805f52600360205260405f2060ff60038201541615610b5357815f52600260205260405f20908154918215610b4457610b136001600292015442610fdd565b91015492838211610b2957602083604051908152f35b9091506348da37e960e11b5f5260045260245260445260645ffd5b634dfba02360e01b5f5260045ffd5b5063ddef98d760e01b5f5260045260245ffd5b34610165575f366003190112610165576020600654604051908152f35b34610165576020366003190112610165576001600160a01b03610ba4610f10565b165f526001602052602060ff60405f2054166040519015158152f35b34610165576020366003190112610165575f546001600160a01b031633036101f257600435600555005b34610165575f366003190112610165576040518060206004549283815201809260045f527f8a35acfbc15ff81a39ae7d344fd709f28e8600b4aa8c65c6b64bfe7fe36bd19b905f5b818110610c935750505081610c48910382610f5e565b604051918291602083019060208452518091526040830191905f5b818110610c71575050500390f35b82516001600160a01b0316845285945060209384019390920191600101610c63565b82546001600160a01b0316845260209093019260019283019201610c32565b34610165575f3660031901126101655760206040516127108152f35b3461016557604036600319011261016557610ce7610f10565b5f5460243591906001600160a01b031633036101f2578115610b445760018060a01b031690815f52600360205260ff600360405f2001541615610b535760207f2cd47ae4fa4d09fd4f3ee4b1bfeabb59b278a8dd8770113c29e005c237bfa7aa91835f526002825260405f20610d5c816110ad565b818155600142910155604051908152a2005b34610165575f366003190112610165576020600554604051908152f35b34610165576020366003190112610165576001600160a01b03610dac610f10565b165f52600360205260405f20604051905f918154610dc981610f26565b808352602083019160018116908115610e825750600114610e49575b50610df58260a094950383610f5e565b60ff6001850154169360ff600360028301549201541690604051958694608086525180948160808801528787015e5f8585018701526020850152604084015215156060830152601f01601f19168101030190f35b9350825f5260205f205f905b858210610e6c575082016020019350610df5610de5565b6001816020925483858801015201910190610e55565b60ff1916835250151560051b82016020019350610df5610de5565b3461016557604036600319011261016557610eb6610f10565b5f546024359291906001600160a01b031633036101f2577f85719b2d4f49c2bb8e39aeb01b90d02077b63dc06f2f5c995a055f2b99d127b39160209160018060a01b031693845f526003835280600260405f2001558152a2005b600435906001600160a01b038216820361016557565b90600182811c92168015610f54575b6020831014610f4057565b634e487b7160e01b5f52602260045260245ffd5b91607f1691610f35565b90601f8019910116810190811067ffffffffffffffff82111761071b57604052565b600454811015610f985760045f5260205f2001905f90565b634e487b7160e01b5f52603260045260245ffd5b9181601f840112156101655782359167ffffffffffffffff8311610165576020808501948460051b01011161016557565b9190820391821161085657565b8181029291811591840414171561085657565b8115611007570490565b634e487b7160e01b5f52601260045260245ffd5b9190811015610f985760051b0190565b9190820180921161085657565b6001600160a01b03165f9081526002602052604090206003810154801580156110a4575b61109f579061109761107161109c9342610fdd565b9161109160028201549161108b6001825492015442610fdd565b90610fea565b9061102b565b610ffd565b90565b505490565b5042811461105c565b6003906001810154801515806110ff575b6110d4575b50018054156110cf5750565b429055565b6110e16110e89142610fdd565b8254610fea565b6110f76002830191825461102b565b90555f6110c3565b50815415156110be565b8115610b445760018060a01b031690815f52600360205260ff600360405f2001541615610b5357815f52600260205260405f2080548061118a575b507fb556fac599c3c70efb9ab1fa725ecace6c81cc48d1455f886607def065f3e0c091816111736040936110ad565b8181556001429101558151908152426020820152a2565b808311156111df5761119c8184610fdd565b612710810290808204612710149015171561085657816111bb91610ffd565b600654101561114457905082630b35304d60e21b5f5260045260245260445260645ffd5b6111e98382610fdd565b6127108102908082046127101490151715610856578161120891610ffd565b6111bb56fea264697066735822122060b60ed62d6a14a6daca13c496e7aa5364c0b42c8104b13257c3f2e602f1e1f064736f6c63430008210033","linkReferences":{}},"methodIdentifiers":{"BPS()":"249d39e9","PRICE_DECIMALS()":"f1a640f8","admin()":"f851a440","adminSetPrice(address,uint256)":"1cba0b29","batchUpdatePrices(address[],uint256[])":"b6f9c0c7","defaultMaxAge()":"1c172c11","getAllTokens()":"2a5c792a","getPrice(address)":"41976e09","getPriceUnsafe(address)":"f989568d","getRelativePrice(address,address)":"9b56e6a7","getTWAP(address)":"b724d010","keepers(address)":"3bbd64bc","maxDeviationBps()":"3ee7a701","prices(address)":"cfed246b","registerToken(address,string,uint8,uint256)":"a39e3e42","registeredTokenCount()":"e5d3a97b","registeredTokens(uint256)":"9a0ba2ea","removeToken(address)":"5fa7b584","setDefaultMaxAge(uint256)":"2e9fac25","setKeeper(address,bool)":"d1b9e853","setMaxDeviation(uint256)":"dddbc049","setTokenMaxAge(address,uint256)":"10593950","tokenConfigs(address)":"1b69dc5f","updatePrice(address,uint256)":"457972de"},"id":36}