{"abi":[{"type":"constructor","inputs":[{"name":"_vault","type":"address","internalType":"address"},{"name":"_funding","type":"address","internalType":"address"},{"name":"_oracle","type":"address","internalType":"address"},{"name":"_feeSplitter","type":"address","internalType":"address"},{"name":"_admin","type":"address","internalType":"address"}],"stateMutability":"nonpayable"},{"type":"function","name":"BPS","inputs":[],"outputs":[{"name":"","type":"uint256","internalType":"uint256"}],"stateMutability":"view"},{"type":"function","name":"LIQUIDATION_BONUS_BPS","inputs":[],"outputs":[{"name":"","type":"uint256","internalType":"uint256"}],"stateMutability":"view"},{"type":"function","name":"MAINTENANCE_MARGIN_BPS","inputs":[],"outputs":[{"name":"","type":"uint256","internalType":"uint256"}],"stateMutability":"view"},{"type":"function","name":"TRADE_FEE_BPS","inputs":[],"outputs":[{"name":"","type":"uint256","internalType":"uint256"}],"stateMutability":"view"},{"type":"function","name":"acceptAdmin","inputs":[],"outputs":[],"stateMutability":"nonpayable"},{"type":"function","name":"admin","inputs":[],"outputs":[{"name":"","type":"address","internalType":"address"}],"stateMutability":"view"},{"type":"function","name":"closePosition","inputs":[{"name":"marketId","type":"uint256","internalType":"uint256"}],"outputs":[],"stateMutability":"nonpayable"},{"type":"function","name":"createMarket","inputs":[{"name":"oracleKey","type":"bytes32","internalType":"bytes32"},{"name":"indexOracleKey","type":"bytes32","internalType":"bytes32"},{"name":"maxLeverage","type":"uint256","internalType":"uint256"}],"outputs":[{"name":"marketId","type":"uint256","internalType":"uint256"}],"stateMutability":"nonpayable"},{"type":"function","name":"feeSplitter","inputs":[],"outputs":[{"name":"","type":"address","internalType":"address"}],"stateMutability":"view"},{"type":"function","name":"funding","inputs":[],"outputs":[{"name":"","type":"address","internalType":"contract FundingRate"}],"stateMutability":"view"},{"type":"function","name":"liquidate","inputs":[{"name":"trader","type":"address","internalType":"address"},{"name":"marketId","type":"uint256","internalType":"uint256"}],"outputs":[],"stateMutability":"nonpayable"},{"type":"function","name":"marginRatio","inputs":[{"name":"trader","type":"address","internalType":"address"},{"name":"marketId","type":"uint256","internalType":"uint256"}],"outputs":[{"name":"","type":"uint256","internalType":"uint256"}],"stateMutability":"view"},{"type":"function","name":"marketCount","inputs":[],"outputs":[{"name":"","type":"uint256","internalType":"uint256"}],"stateMutability":"view"},{"type":"function","name":"markets","inputs":[{"name":"","type":"uint256","internalType":"uint256"}],"outputs":[{"name":"oracleKey","type":"bytes32","internalType":"bytes32"},{"name":"indexOracleKey","type":"bytes32","internalType":"bytes32"},{"name":"maxLeverage","type":"uint256","internalType":"uint256"},{"name":"active","type":"bool","internalType":"bool"},{"name":"openInterestLong","type":"uint256","internalType":"uint256"},{"name":"openInterestShort","type":"uint256","internalType":"uint256"}],"stateMutability":"view"},{"type":"function","name":"openPosition","inputs":[{"name":"marketId","type":"uint256","internalType":"uint256"},{"name":"size","type":"uint256","internalType":"uint256"},{"name":"isLong","type":"bool","internalType":"bool"},{"name":"margin","type":"uint256","internalType":"uint256"}],"outputs":[],"stateMutability":"nonpayable"},{"type":"function","name":"oracle","inputs":[],"outputs":[{"name":"","type":"address","internalType":"contract IPriceOraclePerp"}],"stateMutability":"view"},{"type":"function","name":"paused","inputs":[],"outputs":[{"name":"","type":"bool","internalType":"bool"}],"stateMutability":"view"},{"type":"function","name":"pendingAdmin","inputs":[],"outputs":[{"name":"","type":"address","internalType":"address"}],"stateMutability":"view"},{"type":"function","name":"positions","inputs":[{"name":"","type":"address","internalType":"address"},{"name":"","type":"uint256","internalType":"uint256"}],"outputs":[{"name":"isOpen","type":"bool","internalType":"bool"},{"name":"isLong","type":"bool","internalType":"bool"},{"name":"size","type":"uint256","internalType":"uint256"},{"name":"entryPrice","type":"uint256","internalType":"uint256"},{"name":"margin","type":"uint256","internalType":"uint256"},{"name":"entryFundingIdx","type":"int256","internalType":"int256"},{"name":"marketId","type":"uint256","internalType":"uint256"}],"stateMutability":"view"},{"type":"function","name":"setPaused","inputs":[{"name":"_paused","type":"bool","internalType":"bool"}],"outputs":[],"stateMutability":"nonpayable"},{"type":"function","name":"transferAdmin","inputs":[{"name":"newAdmin","type":"address","internalType":"address"}],"outputs":[],"stateMutability":"nonpayable"},{"type":"function","name":"unrealizedPnL","inputs":[{"name":"trader","type":"address","internalType":"address"},{"name":"marketId","type":"uint256","internalType":"uint256"}],"outputs":[{"name":"pnl","type":"int256","internalType":"int256"}],"stateMutability":"view"},{"type":"function","name":"vault","inputs":[],"outputs":[{"name":"","type":"address","internalType":"contract MarginVault"}],"stateMutability":"view"},{"type":"event","name":"AdminTransferInitiated","inputs":[{"name":"previousAdmin","type":"address","indexed":true,"internalType":"address"},{"name":"pendingAdmin","type":"address","indexed":true,"internalType":"address"}],"anonymous":false},{"type":"event","name":"AdminTransferred","inputs":[{"name":"previousAdmin","type":"address","indexed":true,"internalType":"address"},{"name":"newAdmin","type":"address","indexed":true,"internalType":"address"}],"anonymous":false},{"type":"event","name":"MarketCreated","inputs":[{"name":"marketId","type":"uint256","indexed":true,"internalType":"uint256"},{"name":"oracleKey","type":"bytes32","indexed":false,"internalType":"bytes32"},{"name":"maxLeverage","type":"uint256","indexed":false,"internalType":"uint256"}],"anonymous":false},{"type":"event","name":"PositionClosed","inputs":[{"name":"trader","type":"address","indexed":true,"internalType":"address"},{"name":"marketId","type":"uint256","indexed":true,"internalType":"uint256"},{"name":"pnl","type":"int256","indexed":false,"internalType":"int256"},{"name":"exitPrice","type":"uint256","indexed":false,"internalType":"uint256"}],"anonymous":false},{"type":"event","name":"PositionLiquidated","inputs":[{"name":"liquidator","type":"address","indexed":true,"internalType":"address"},{"name":"trader","type":"address","indexed":true,"internalType":"address"},{"name":"marketId","type":"uint256","indexed":true,"internalType":"uint256"},{"name":"exitPrice","type":"uint256","indexed":false,"internalType":"uint256"}],"anonymous":false},{"type":"event","name":"PositionOpened","inputs":[{"name":"trader","type":"address","indexed":true,"internalType":"address"},{"name":"marketId","type":"uint256","indexed":true,"internalType":"uint256"},{"name":"isLong","type":"bool","indexed":false,"internalType":"bool"},{"name":"size","type":"uint256","indexed":false,"internalType":"uint256"},{"name":"margin","type":"uint256","indexed":false,"internalType":"uint256"},{"name":"entryPrice","type":"uint256","indexed":false,"internalType":"uint256"}],"anonymous":false},{"type":"error","name":"InsufficientMargin","inputs":[{"name":"have","type":"uint256","internalType":"uint256"},{"name":"need","type":"uint256","internalType":"uint256"}]},{"type":"error","name":"LeverageTooHigh","inputs":[{"name":"leverage","type":"uint256","internalType":"uint256"},{"name":"max","type":"uint256","internalType":"uint256"}]},{"type":"error","name":"MarketNotActive","inputs":[]},{"type":"error","name":"NoOpenPosition","inputs":[]},{"type":"error","name":"NotAdmin","inputs":[]},{"type":"error","name":"NotPendingAdmin","inputs":[]},{"type":"error","name":"Paused","inputs":[]},{"type":"error","name":"PositionAlreadyOpen","inputs":[]},{"type":"error","name":"PositionHealthy","inputs":[{"name":"marginRatio","type":"uint256","internalType":"uint256"},{"name":"threshold","type":"uint256","internalType":"uint256"}]},{"type":"error","name":"TransferFailed","inputs":[]},{"type":"error","name":"ZeroAddress","inputs":[]},{"type":"error","name":"ZeroAmount","inputs":[]}],"bytecode":{"object":"0x610100346101aa57601f6121cb38819003918201601f19168301916001600160401b038311848410176101ae5780849260a0946040528339810103126101aa57610048816101c2565b90610055602082016101c2565b91610062604083016101c2565b61007a6080610073606086016101c2565b94016101c2565b6001600160a01b0390921693841561019b576001600160a01b031690811561019b576001600160a01b031691821561019b576001600160a01b0384161561019b576001600160a01b031693841561019b5760805260a05260c05260e0525f80546001600160a01b031916919091179055604051611ff490816101d7823960805181818161012c015281816104ac01528181610d6a01528181611d820152611ee3015260a0518181816101d6015281816103b7015281816109c401528181610e6801528181611544015281816118ef01528181611aae0152611c8b015260c0518181816102eb015281816108f801528181610b2701528181610dd4015281816118630152611a1f015260e05181818161052401528181610c29015261102b0152f35b63d92e233d60e01b5f5260045ffd5b5f80fd5b634e487b7160e01b5f52604160045260245ffd5b51906001600160a01b03821682036101aa5756fe60806040526004361015610011575f80fd5b5f5f3560e01c80630e18b6811461167057806316c38b3c14611622578063229247731461146c578063249d39e91461144f57806326782247146114265780633dc8f14414610c9a5780635838bff714610c7e5780635c975abb14610c585780636052970c14610c1357806371a5c55414610beb57806375829def14610b565780637dc0d1d014610b1157806383c666dc14610ae15780639185f59814610ac5578063a126d601146108b5578063b1283e7714610844578063bcbaf48714610293578063c1be667714610205578063cb4c86b7146101c0578063ec979082146101a2578063ecd1dae614610185578063f851a4401461015e5763fbfa77cf14610117575f80fd5b3461015b578060031936011261015b576040517f00000000000000000000000000000000000000000000000000000000000000006001600160a01b03168152602090f35b80fd5b503461015b578060031936011261015b57546040516001600160a01b039091168152602090f35b503461015b578060031936011261015b5760206040516101f48152f35b503461015b578060031936011261015b576020600254604051908152f35b503461015b578060031936011261015b576040517f00000000000000000000000000000000000000000000000000000000000000006001600160a01b03168152602090f35b503461015b57604036600319011261015b5760e0906040906001600160a01b0361022d6116f0565b16815260036020528181206024358252602052208054906001810154906002810154600382015490600560048401549301549360ff604051968181161515885260081c161515602087015260408601526060850152608084015260a083015260c0820152f35b503461015b57604036600319011261015b576102ad6116f0565b6024359060ff60015460a01c166108355760018060a01b03811690818452600360205260408420838552602052604084209060ff82541615610826577f00000000000000000000000000000000000000000000000000000000000000006001600160a01b03169161031d85611706565b5054926040519363832321bf60e01b85526004850152602084602481845afa9384156107b45787946107f2575b506020600161035888611706565b50015460246040518094819363832321bf60e01b835260048301525afa9081156107b45787916107bf575b506040516248537360e31b8152600481018790526024810185905260448101919091526020816064818a6001600160a01b037f0000000000000000000000000000000000000000000000000000000000000000165af180156107b457610781575b506103f0838684611c14565b916104086103fe84846117f9565b60038301546119b3565b9088821390811561077a576127108302908382046127101484151715610766576001015461043591611758565b60c881101561074f57508589915f1461073f5750506101f48102908082046101f4149015171561072b57879392610473928861271088940495611d0f565b806104aa575b50506040519081527fa457abeae7105eb8bccbb20968069d940e939bc0c8d8b9c2c13aaed4755e68c360203392a480f35b7f00000000000000000000000000000000000000000000000000000000000000006001600160a01b0316803b15610727578280916064604051809481936317d5759960e31b83528a60048401523060248401528760448401525af190811561071c578391610703575b505060405163119e5bf360e01b81527f000000000000000000000000000000000000000000000000000000000000000091906001600160a01b03831690602081600481855afa90811561066b5785916106d4575b5060405163095ea7b360e01b81526004810183905260248101869052906001600160a01b031660208260448189855af19081156106c9576105e49560209386936106ae575b5060405163095ea7b360e01b81526001600160a01b039091166004820152602481019290925290948591908290889082906044820190565b03925af19182156106a35760609361062693610676575b506040516364d6def960e01b8152600481019190915233602482015293849283919082906044820190565b03925af1801561066b5761063c575b8490610479565b61065d9060603d606011610664575b6106558183611736565b8101906117ce565b5050610635565b503d61064b565b6040513d87823e3d90fd5b6106979060203d60201161069c575b61068f8183611736565b8101906117b6565b6105fb565b503d610685565b6040513d86823e3d90fd5b6106c490853d871161069c5761068f8183611736565b6105ac565b6040513d88823e3d90fd5b6106f6915060203d6020116106fc575b6106ee8183611736565b810190611797565b5f610567565b503d6106e4565b8161070d91611736565b61071857815f610513565b5080fd5b6040513d85823e3d90fd5b8280fd5b634e487b7160e01b88526011600452602488fd5b9150939261047392888695611d0f565b6301f7d11160e21b8a5260045260c8602452604489fd5b634e487b7160e01b8b52601160045260248bfd5b5088610435565b6020813d6020116107ac575b8161079a60209383611736565b810103126107a857516103e4565b5f80fd5b3d915061078d565b6040513d89823e3d90fd5b90506020813d6020116107ea575b816107da60209383611736565b810103126107a857516020610383565b3d91506107cd565b9093506020813d60201161081e575b8161080e60209383611736565b810103126107a85751925f61034a565b3d9150610801565b63556729af60e01b8552600485fd5b6313d0ff5960e31b8352600483fd5b503461015b57602036600319011261015b576004359060025482101561015b5760c061086f83611706565b50805490600181015490600281015460ff6003830154169060056004840154930154936040519586526020860152604085015215156060840152608083015260a0820152f35b503461015b57602036600319011261015b5760043560ff60015460a01c16610ab65733825260036020526040822081835260205260ff60408320541615610aa7577f00000000000000000000000000000000000000000000000000000000000000006001600160a01b03169061092a81611706565b5054906040519163832321bf60e01b83526004830152602082602481865afa9182156106a3578492610a73575b506020600161096583611706565b50015460246040518096819363832321bf60e01b835260048301525afa9283156106a3578493610a3e575b506040516248537360e31b815260048101829052602481018390526044810193909352602083606481876001600160a01b037f0000000000000000000000000000000000000000000000000000000000000000165af180156106a357610a0b575b610a089250610a01828233611c14565b9133611d0f565b80f35b6020833d602011610a36575b81610a2460209383611736565b810103126107a857610a0892506109f1565b3d9150610a17565b92506020833d602011610a6b575b81610a5960209383611736565b810103126107a8579151916020610990565b3d9150610a4c565b9091506020813d602011610a9f575b81610a8f60209383611736565b810103126107a85751905f610957565b3d9150610a82565b63556729af60e01b8252600482fd5b6313d0ff5960e31b8252600482fd5b503461015b578060031936011261015b576020604051600a8152f35b503461015b57604036600319011261015b576020610b09610b006116f0565b602435906119ce565b604051908152f35b503461015b578060031936011261015b576040517f00000000000000000000000000000000000000000000000000000000000000006001600160a01b03168152602090f35b503461015b57602036600319011261015b57610b706116f0565b81546001600160a01b03169033829003610bdc576001600160a01b0316908115610bcd57600180546001600160a01b031916831790557fb4d7bcb4d9a5d6ef6e827e3b1554e5a2578ad9ca843903d42b05d08bfa3458948380a380f35b63d92e233d60e01b8352600483fd5b637bfa4b9f60e01b8352600483fd5b503461015b57604036600319011261015b576020610b09610c0a6116f0565b60243590611811565b503461015b578060031936011261015b576040517f00000000000000000000000000000000000000000000000000000000000000006001600160a01b03168152602090f35b503461015b578060031936011261015b57602060ff60015460a01c166040519015158152f35b503461015b578060031936011261015b57602060405160c88152f35b503461015b57608036600319011261015b5760443590602435821515600435818503611422576064359060ff60015460a01c166114135783159283801561140b575b6113fc57610ce982611706565b509360ff600386015416156113ed57338752600360205260408720838852602052604087209060ff8254166113de5760028601548086028681048214871517156113ca5788116113aa5750600a870290878204600a14171561072b57612710900495610d558786611776565b6040516327e235e360e01b81523360048201527f00000000000000000000000000000000000000000000000000000000000000006001600160a01b03169791906020816024818c5afa90811561139f579082918c9161136a575b50106112f55750805460405163832321bf60e01b8152600481019190915298998a99937f00000000000000000000000000000000000000000000000000000000000000006001600160a01b0316602086602481845afa95861561123a578c966112be575b506020600185015460246040518094819363832321bf60e01b835260048301525afa90811561123a578c91611285575b506040516248537360e31b8152600481018990526024810187905260448101919091527f00000000000000000000000000000000000000000000000000000000000000006001600160a01b0316906020818e8180606481015b0391865af1801561127a57611245575b5060206024916001845461ff008b60081b169061ffff1916171784558660018501558760028501558a6003850155604051928380926313778db960e11b82528c60048301525afa90811561123a578c91611203575b506004820155600501869055156111ee57600401610f20828254611776565b90555b604051928352602083015283604083015260608201527f5cf8fa4a8e333990018876ad3a82065e68b3859d46c3198b692b77fc3043808b60803392a3813b156111e9576040516331b5f13d60e11b81523360048201526024810191909152838160448183865af19081156106a35784916111d4575b505081610fa3575050f35b803b156111bb576040516331b5f13d60e11b815233600482015260248101839052838160448183865af19081156106a35784916111bf575b5050803b156111bb57604051637a040c5b60e11b8152306004820152602481018390529083908290604490829084905af190811561071c5783916111a3575b505060405163119e5bf360e01b81527f000000000000000000000000000000000000000000000000000000000000000091906001600160a01b03831690602081600481855afa90811561066b578591611184575b5060405163095ea7b360e01b81526004810183905260248101869052906001600160a01b031660208260448189855af19081156106c9576110ea9560209386936106ae575060405163095ea7b360e01b81526001600160a01b039091166004820152602481019290925290948591908290889082906044820190565b03925af19182156106a35760609361112c93611167575b506040516364d6def960e01b8152600481019190915230602482015293849283919082906044820190565b03925af1801561115c5761113e575080f35b6111569060603d606011610664576106558183611736565b50505080f35b6040513d84823e3d90fd5b61117f9060203d60201161069c5761068f8183611736565b611101565b61119d915060203d6020116106fc576106ee8183611736565b5f61106e565b816111ad91611736565b6111b857815f61101a565b50fd5b5050fd5b816111c991611736565b6111bb57825f610fdb565b816111de91611736565b6111bb57825f610f98565b505050fd5b6005016111fc828254611776565b9055610f23565b9b505060208b3d602011611232575b8161121f60209383611736565b810103126107a85799518b9a9087610f01565b3d9150611212565b6040513d8e823e3d90fd5b9b5060208c3d602011611272575b8161126060209383611736565b810103126107a8578c9b506020610eac565b3d9150611253565b6040513d8f823e3d90fd5b9b505060208b3d6020116112b6575b816112a160209383611736565b810103126107a85799518b9a90610e9c610e43565b3d9150611294565b9b50945060208b3d6020116112ed575b816112db60209383611736565b810103126107a8578b9a51945f610e13565b3d91506112ce565b6040516327e235e360e01b8152336004820152908a906020836024818d5afa801561115c578290611337575b633af8647b60e01b835260045260245260449150fd5b506020833d602011611362575b8161135160209383611736565b810103126107a85760449251611321565b3d9150611344565b9150506020813d602011611397575b8161138660209383611736565b810103126107a8578190515f610daf565b3d9150611379565b6040513d8d823e3d90fd5b886044916113b8888b611758565b633b7b1e4b60e01b8352600452602452fd5b634e487b7160e01b8a52601160045260248afd5b631f19c11d60e01b8852600488fd5b635a90bb8d60e11b8752600487fd5b631f2a200560e01b8652600486fd5b508215610cdc565b6313d0ff5960e31b8552600485fd5b8380fd5b503461015b578060031936011261015b576001546040516001600160a01b039091168152602090f35b503461015b578060031936011261015b5760206040516127108152f35b346107a85760603660031901126107a8575f5460043590604435906001600160a01b03163303611613576002549060405160c0810181811067ffffffffffffffff8211176115ff576040528381526020810190602435825260408101838152606082016001815260808301905f825260a08401925f8452680100000000000000008810156115ff576001880160025561150488611706565b9690966115ec57600595518755516001870155516002860155600385019051151560ff801983541691161790555160048401555191015560018060a01b037f000000000000000000000000000000000000000000000000000000000000000016803b156107a8575f809160246040518094819363f11db84560e01b83528860048401525af180156115e15760209484937ff7154dd385fd97f5acd402bbddfc43353a65d67ed869dc6e507a9f99d6a2040d936040936115d1575b50825191825286820152a2604051908152f35b5f6115db91611736565b5f6115be565b6040513d5f823e3d90fd5b634e487b7160e01b5f525f60045260245ffd5b634e487b7160e01b5f52604160045260245ffd5b637bfa4b9f60e01b5f5260045ffd5b346107a85760203660031901126107a8576004358015158091036107a8575f546001600160a01b03163303611613576001805460ff60a01b191660a09290921b60ff60a01b16919091179055005b346107a8575f3660031901126107a8576001546001600160a01b03811690338290036116e1575f80546001600160a01b0319808216851783559092166001556001600160a01b03909116907ff8ccb027dfcd135e000e9d45e6cc2d662578a8825d4c45b5e32e0adf67e79ec69080a3005b63058d9a1b60e01b5f5260045ffd5b600435906001600160a01b03821682036107a857565b6002548110156117225760025f52600660205f20910201905f90565b634e487b7160e01b5f52603260045260245ffd5b90601f8019910116810190811067ffffffffffffffff8211176115ff57604052565b8115611762570490565b634e487b7160e01b5f52601260045260245ffd5b9190820180921161178357565b634e487b7160e01b5f52601160045260245ffd5b908160209103126107a857516001600160a01b03811681036107a85790565b908160209103126107a8575180151581036107a85790565b908160609103126107a8578051916040602083015192015190565b600160ff1b8114611783575f0390565b81810392915f13801582851316918412161761178357565b60018060a01b03165f52600360205260405f20815f5260205260405f2080549060ff8216156119ac5761184383611706565b505460405163832321bf60e01b81526004810191909152906020826024817f00000000000000000000000000000000000000000000000000000000000000006001600160a01b03165afa9182156115e1575f92611977575b5060ff6118aa60209383611bad565b9360081c16156119625760046001820154915b01546040516345eab49560e01b8152600481019290925260248201526044810193909352826064816001600160a01b037f0000000000000000000000000000000000000000000000000000000000000000165afa9081156115e1575f9161192c575b61192992506117f9565b90565b90506020823d60201161195a575b8161194760209383611736565b810103126107a85761192991519061191f565b3d915061193a565b600461197160018301546117e9565b916118bd565b91506020823d6020116119a4575b8161199260209383611736565b810103126107a85790519060ff61189b565b3d9150611985565b5050505f90565b9190915f838201938412911290801582169115161761178357565b60018060a01b03165f52600360205260405f20815f5260205260405f2090815460ff811615611ba557611a0082611706565b505460405163832321bf60e01b815260048101919091526020816024817f00000000000000000000000000000000000000000000000000000000000000006001600160a01b03165afa9081156115e1575f91611b71575b50611a6460ff9185611bad565b9160081c1615611b5d57602060018401545b6004858101546040516345eab49560e01b81529182019290925260248101919091526044810193909352826064816001600160a01b037f0000000000000000000000000000000000000000000000000000000000000000165afa9182156115e1575f92611b27575b5090611af1611af69260038501546119b3565b6117f9565b5f811315611b2157612710810290808204612710149015171561178357600161192992015490611758565b50505f90565b91506020823d602011611b55575b81611b4260209383611736565b810103126107a857905190611af1611ade565b3d9150611b35565b6020611b6c60018501546117e9565b611a76565b90506020813d602011611b9d575b81611b8c60209383611736565b810103126107a85751611a64611a57565b3d9150611b7f565b5050505f1990565b90611bbd600283015480926117f9565b600183015480820292915f8212600160ff1b82141661178357818405149015171561178357801561176257600160ff1b82145f198214166117835760ff9105915460081c165f14611c0b5790565b611929906117e9565b6001600160a01b03165f90815260036020908152604080832084845282529091209392611c419085611bad565b9360ff815460081c165f14611ced5760046001820154915b01546040516345eab49560e01b8152600481019290925260248201526044810192909252816064816001600160a01b037f0000000000000000000000000000000000000000000000000000000000000000165afa9081156115e1575f91611cbe575090565b90506020813d602011611ce5575b81611cd960209383611736565b810103126107a8575190565b3d9150611ccc565b6004611cfc60018301546117e9565b91611c59565b9190820391821161178357565b93929190925f9460018060a01b03811693845f52600360205260405f20865f52602052611d6e60405f2091611d4388611706565b50835460081c60ff1615611fa357611d65600460018601549201918254611d02565b90555b856117f9565b86865f8312611e90575050600391909101547f00000000000000000000000000000000000000000000000000000000000000006001600160a01b031691611db491611776565b91813b15611e8c5760405163ef6506db60e01b81526001600160a01b03919091166004820152602481019290925286908290604490829084905af180156106c95791868694928694611e6a575b50507f16783b3f0676d6e63220b161cedd5415bd909d2f96353db363fbd217a00971b4916040915b82519182526020820152a382526003602052604082209082526020526005604082208281558260018201558260028201558260038201558260048201550155565b81939550611e79929450611736565b611e885783918391865f611e01565b8480fd5b8780fd5b949291611ea2600391979592976117e9565b92015491828110611edb575b5050507f16783b3f0676d6e63220b161cedd5415bd909d2f96353db363fbd217a00971b491604091611e29565b9395509193507f00000000000000000000000000000000000000000000000000000000000000006001600160a01b031692611f1591611d02565b823b156107a85760405163ef6506db60e01b81526001600160a01b039290921660048301526024820152905f908290604490829084905af180156115e157611f64575b91839183808795611eae565b8391955060408593611f975f7f16783b3f0676d6e63220b161cedd5415bd909d2f96353db363fbd217a00971b494611736565b5f979350935050611f58565b611fb7600560018601549201918254611d02565b9055611d6856fea2646970667358221220a0613a111a5e9db271b1ac746b15325f741ab8cef8c896d803d5f24d830e964e64736f6c63430008210033","linkReferences":{}},"methodIdentifiers":{"BPS()":"249d39e9","LIQUIDATION_BONUS_BPS()":"ecd1dae6","MAINTENANCE_MARGIN_BPS()":"5838bff7","TRADE_FEE_BPS()":"9185f598","acceptAdmin()":"0e18b681","admin()":"f851a440","closePosition(uint256)":"a126d601","createMarket(bytes32,bytes32,uint256)":"22924773","feeSplitter()":"6052970c","funding()":"cb4c86b7","liquidate(address,uint256)":"bcbaf487","marginRatio(address,uint256)":"83c666dc","marketCount()":"ec979082","markets(uint256)":"b1283e77","openPosition(uint256,uint256,bool,uint256)":"3dc8f144","oracle()":"7dc0d1d0","paused()":"5c975abb","pendingAdmin()":"26782247","positions(address,uint256)":"c1be6677","setPaused(bool)":"16c38b3c","transferAdmin(address)":"75829def","unrealizedPnL(address,uint256)":"71a5c554","vault()":"fbfa77cf"},"id":4}