{"abi":[{"type":"constructor","inputs":[{"name":"_vault","type":"address","internalType":"address"},{"name":"_funding","type":"address","internalType":"address"},{"name":"_oracle","type":"address","internalType":"address"},{"name":"_feeSplitter","type":"address","internalType":"address"},{"name":"_admin","type":"address","internalType":"address"}],"stateMutability":"nonpayable"},{"type":"function","name":"BPS","inputs":[],"outputs":[{"name":"","type":"uint256","internalType":"uint256"}],"stateMutability":"view"},{"type":"function","name":"LIQUIDATION_BONUS_BPS","inputs":[],"outputs":[{"name":"","type":"uint256","internalType":"uint256"}],"stateMutability":"view"},{"type":"function","name":"MAINTENANCE_MARGIN_BPS","inputs":[],"outputs":[{"name":"","type":"uint256","internalType":"uint256"}],"stateMutability":"view"},{"type":"function","name":"TRADE_FEE_BPS","inputs":[],"outputs":[{"name":"","type":"uint256","internalType":"uint256"}],"stateMutability":"view"},{"type":"function","name":"acceptAdmin","inputs":[],"outputs":[],"stateMutability":"nonpayable"},{"type":"function","name":"admin","inputs":[],"outputs":[{"name":"","type":"address","internalType":"address"}],"stateMutability":"view"},{"type":"function","name":"closePosition","inputs":[{"name":"marketId","type":"uint256","internalType":"uint256"}],"outputs":[],"stateMutability":"nonpayable"},{"type":"function","name":"createMarket","inputs":[{"name":"oracleKey","type":"bytes32","internalType":"bytes32"},{"name":"indexOracleKey","type":"bytes32","internalType":"bytes32"},{"name":"maxLeverage","type":"uint256","internalType":"uint256"}],"outputs":[{"name":"marketId","type":"uint256","internalType":"uint256"}],"stateMutability":"nonpayable"},{"type":"function","name":"feeSplitter","inputs":[],"outputs":[{"name":"","type":"address","internalType":"address"}],"stateMutability":"view"},{"type":"function","name":"funding","inputs":[],"outputs":[{"name":"","type":"address","internalType":"contract FundingRate"}],"stateMutability":"view"},{"type":"function","name":"liquidate","inputs":[{"name":"trader","type":"address","internalType":"address"},{"name":"marketId","type":"uint256","internalType":"uint256"}],"outputs":[],"stateMutability":"nonpayable"},{"type":"function","name":"marginRatio","inputs":[{"name":"trader","type":"address","internalType":"address"},{"name":"marketId","type":"uint256","internalType":"uint256"}],"outputs":[{"name":"","type":"uint256","internalType":"uint256"}],"stateMutability":"view"},{"type":"function","name":"marketCount","inputs":[],"outputs":[{"name":"","type":"uint256","internalType":"uint256"}],"stateMutability":"view"},{"type":"function","name":"markets","inputs":[{"name":"","type":"uint256","internalType":"uint256"}],"outputs":[{"name":"oracleKey","type":"bytes32","internalType":"bytes32"},{"name":"indexOracleKey","type":"bytes32","internalType":"bytes32"},{"name":"maxLeverage","type":"uint256","internalType":"uint256"},{"name":"active","type":"bool","internalType":"bool"},{"name":"openInterestLong","type":"uint256","internalType":"uint256"},{"name":"openInterestShort","type":"uint256","internalType":"uint256"}],"stateMutability":"view"},{"type":"function","name":"openPosition","inputs":[{"name":"marketId","type":"uint256","internalType":"uint256"},{"name":"size","type":"uint256","internalType":"uint256"},{"name":"isLong","type":"bool","internalType":"bool"},{"name":"margin","type":"uint256","internalType":"uint256"}],"outputs":[],"stateMutability":"nonpayable"},{"type":"function","name":"oracle","inputs":[],"outputs":[{"name":"","type":"address","internalType":"contract IPriceOraclePerp"}],"stateMutability":"view"},{"type":"function","name":"paused","inputs":[],"outputs":[{"name":"","type":"bool","internalType":"bool"}],"stateMutability":"view"},{"type":"function","name":"pendingAdmin","inputs":[],"outputs":[{"name":"","type":"address","internalType":"address"}],"stateMutability":"view"},{"type":"function","name":"positions","inputs":[{"name":"","type":"address","internalType":"address"},{"name":"","type":"uint256","internalType":"uint256"}],"outputs":[{"name":"isOpen","type":"bool","internalType":"bool"},{"name":"isLong","type":"bool","internalType":"bool"},{"name":"size","type":"uint256","internalType":"uint256"},{"name":"entryPrice","type":"uint256","internalType":"uint256"},{"name":"margin","type":"uint256","internalType":"uint256"},{"name":"entryFundingIdx","type":"int256","internalType":"int256"},{"name":"marketId","type":"uint256","internalType":"uint256"}],"stateMutability":"view"},{"type":"function","name":"setPaused","inputs":[{"name":"_paused","type":"bool","internalType":"bool"}],"outputs":[],"stateMutability":"nonpayable"},{"type":"function","name":"transferAdmin","inputs":[{"name":"newAdmin","type":"address","internalType":"address"}],"outputs":[],"stateMutability":"nonpayable"},{"type":"function","name":"unrealizedPnL","inputs":[{"name":"trader","type":"address","internalType":"address"},{"name":"marketId","type":"uint256","internalType":"uint256"}],"outputs":[{"name":"pnl","type":"int256","internalType":"int256"}],"stateMutability":"view"},{"type":"function","name":"vault","inputs":[],"outputs":[{"name":"","type":"address","internalType":"contract MarginVault"}],"stateMutability":"view"},{"type":"event","name":"AdminTransferInitiated","inputs":[{"name":"previousAdmin","type":"address","indexed":true,"internalType":"address"},{"name":"pendingAdmin","type":"address","indexed":true,"internalType":"address"}],"anonymous":false},{"type":"event","name":"AdminTransferred","inputs":[{"name":"previousAdmin","type":"address","indexed":true,"internalType":"address"},{"name":"newAdmin","type":"address","indexed":true,"internalType":"address"}],"anonymous":false},{"type":"event","name":"MarketCreated","inputs":[{"name":"marketId","type":"uint256","indexed":true,"internalType":"uint256"},{"name":"oracleKey","type":"bytes32","indexed":false,"internalType":"bytes32"},{"name":"maxLeverage","type":"uint256","indexed":false,"internalType":"uint256"}],"anonymous":false},{"type":"event","name":"PositionClosed","inputs":[{"name":"trader","type":"address","indexed":true,"internalType":"address"},{"name":"marketId","type":"uint256","indexed":true,"internalType":"uint256"},{"name":"pnl","type":"int256","indexed":false,"internalType":"int256"},{"name":"exitPrice","type":"uint256","indexed":false,"internalType":"uint256"}],"anonymous":false},{"type":"event","name":"PositionLiquidated","inputs":[{"name":"liquidator","type":"address","indexed":true,"internalType":"address"},{"name":"trader","type":"address","indexed":true,"internalType":"address"},{"name":"marketId","type":"uint256","indexed":true,"internalType":"uint256"},{"name":"exitPrice","type":"uint256","indexed":false,"internalType":"uint256"}],"anonymous":false},{"type":"event","name":"PositionOpened","inputs":[{"name":"trader","type":"address","indexed":true,"internalType":"address"},{"name":"marketId","type":"uint256","indexed":true,"internalType":"uint256"},{"name":"isLong","type":"bool","indexed":false,"internalType":"bool"},{"name":"size","type":"uint256","indexed":false,"internalType":"uint256"},{"name":"margin","type":"uint256","indexed":false,"internalType":"uint256"},{"name":"entryPrice","type":"uint256","indexed":false,"internalType":"uint256"}],"anonymous":false},{"type":"error","name":"InsufficientMargin","inputs":[{"name":"have","type":"uint256","internalType":"uint256"},{"name":"need","type":"uint256","internalType":"uint256"}]},{"type":"error","name":"LeverageTooHigh","inputs":[{"name":"leverage","type":"uint256","internalType":"uint256"},{"name":"max","type":"uint256","internalType":"uint256"}]},{"type":"error","name":"MarketNotActive","inputs":[]},{"type":"error","name":"NoOpenPosition","inputs":[]},{"type":"error","name":"NotAdmin","inputs":[]},{"type":"error","name":"NotPendingAdmin","inputs":[]},{"type":"error","name":"Paused","inputs":[]},{"type":"error","name":"PositionAlreadyOpen","inputs":[]},{"type":"error","name":"PositionHealthy","inputs":[{"name":"marginRatio","type":"uint256","internalType":"uint256"},{"name":"threshold","type":"uint256","internalType":"uint256"}]},{"type":"error","name":"TransferFailed","inputs":[]},{"type":"error","name":"ZeroAddress","inputs":[]},{"type":"error","name":"ZeroAmount","inputs":[]}],"bytecode":{"object":"0x610100346101af57601f61225238819003918201601f19168301916001600160401b038311848410176101b35780849260a0946040528339810103126101af57610048816101c7565b90610055602082016101c7565b91610062604083016101c7565b61007a6080610073606086016101c7565b94016101c7565b60015f556001600160a01b039092169384156101a0576001600160a01b03169081156101a0576001600160a01b03169182156101a0576001600160a01b038416156101a0576001600160a01b03169384156101a05760805260a05260c05260e052600180546001600160a01b03191691909117905560405161207690816101dc823960805181818161012c015281816104ba01528181610d8d01528181611e040152611f65015260a0518181816101d8015281816103c1015281816109da01528181610e8b015281816115730152818161191d01528181611adc0152611d0d015260c0518181816102f50152818161090e01528181610b4101528181610df7015281816118910152611a4d015260e05181818161053201528181610c4401526110530152f35b63d92e233d60e01b5f5260045ffd5b5f80fd5b634e487b7160e01b5f52604160045260245ffd5b51906001600160a01b03821682036101af5756fe60806040526004361015610011575f80fd5b5f5f3560e01c80630e18b681146116a057806316c38b3c14611651578063229247731461149a578063249d39e91461147d57806326782247146114545780633dc8f14414610cb55780635838bff714610c995780635c975abb14610c735780636052970c14610c2e57806371a5c55414610c0657806375829def14610b705780637dc0d1d014610b2b57806383c666dc14610afb5780639185f59814610adf578063a126d601146108c3578063b1283e7714610852578063bcbaf48714610295578063c1be667714610207578063cb4c86b7146101c2578063ec979082146101a4578063ecd1dae614610187578063f851a4401461015e5763fbfa77cf14610117575f80fd5b3461015b578060031936011261015b576040517f00000000000000000000000000000000000000000000000000000000000000006001600160a01b03168152602090f35b80fd5b503461015b578060031936011261015b576001546040516001600160a01b039091168152602090f35b503461015b578060031936011261015b5760206040516101f48152f35b503461015b578060031936011261015b576020600354604051908152f35b503461015b578060031936011261015b576040517f00000000000000000000000000000000000000000000000000000000000000006001600160a01b03168152602090f35b503461015b57604036600319011261015b5760e0906040906001600160a01b0361022f61171e565b16815260046020528181206024358252602052208054906001810154906002810154600382015490600560048401549301549360ff604051968181161515885260081c161515602087015260408601526060850152608084015260a083015260c0820152f35b503461015b57604036600319011261015b576102af61171e565b6024359060ff60025460a01c16610843576102c8611bdb565b60018060a01b03811690818452600460205260408420838552602052604084209060ff82541615610834577f00000000000000000000000000000000000000000000000000000000000000006001600160a01b03169161032785611734565b5054926040519363832321bf60e01b85526004850152602084602481845afa9384156107c2578794610800575b506020600161036288611734565b50015460246040518094819363832321bf60e01b835260048301525afa9081156107c25787916107cd575b506040516248537360e31b8152600481018790526024810185905260448101919091526020816064818a6001600160a01b037f0000000000000000000000000000000000000000000000000000000000000000165af180156107c25761078f575b506103fa838684611c96565b916104126104088484611827565b60038301546119e1565b90888213908115610788576127108302908382046127101484151715610774576001015461043f91611786565b60c881101561075d57508589915f1461074d5750506101f48102908082046101f414901517156107395787939261047d928861271088940495611d91565b806104b8575b50506040519081527fa457abeae7105eb8bccbb20968069d940e939bc0c8d8b9c2c13aaed4755e68c360203392a46001815580f35b7f00000000000000000000000000000000000000000000000000000000000000006001600160a01b0316803b15610735578280916064604051809481936317d5759960e31b83528a60048401523060248401528760448401525af190811561072a578391610711575b505060405163119e5bf360e01b81527f000000000000000000000000000000000000000000000000000000000000000091906001600160a01b03831690602081600481855afa9081156106795785916106e2575b5060405163095ea7b360e01b81526004810183905260248101869052906001600160a01b031660208260448189855af19081156106d7576105f29560209386936106bc575b5060405163095ea7b360e01b81526001600160a01b039091166004820152602481019290925290948591908290889082906044820190565b03925af19182156106b15760609361063493610684575b506040516364d6def960e01b8152600481019190915233602482015293849283919082906044820190565b03925af180156106795761064a575b8490610483565b61066b9060603d606011610672575b6106638183611764565b8101906117fc565b5050610643565b503d610659565b6040513d87823e3d90fd5b6106a59060203d6020116106aa575b61069d8183611764565b8101906117e4565b610609565b503d610693565b6040513d86823e3d90fd5b6106d290853d87116106aa5761069d8183611764565b6105ba565b6040513d88823e3d90fd5b610704915060203d60201161070a575b6106fc8183611764565b8101906117c5565b5f610575565b503d6106f2565b8161071b91611764565b61072657815f610521565b5080fd5b6040513d85823e3d90fd5b8280fd5b634e487b7160e01b88526011600452602488fd5b9150939261047d92888695611d91565b6301f7d11160e21b8a5260045260c8602452604489fd5b634e487b7160e01b8b52601160045260248bfd5b508861043f565b6020813d6020116107ba575b816107a860209383611764565b810103126107b657516103ee565b5f80fd5b3d915061079b565b6040513d89823e3d90fd5b90506020813d6020116107f8575b816107e860209383611764565b810103126107b65751602061038d565b3d91506107db565b9093506020813d60201161082c575b8161081c60209383611764565b810103126107b65751925f610354565b3d915061080f565b63556729af60e01b8552600485fd5b6313d0ff5960e31b8352600483fd5b503461015b57602036600319011261015b576004359060035482101561015b5760c061087d83611734565b50805490600181015490600281015460ff6003830154169060056004840154930154936040519586526020860152604085015215156060840152608083015260a0820152f35b503461015b57602036600319011261015b5760043560ff60025460a01c16610ad0576108ed611bdb565b33825260046020526040822081835260205260ff60408320541615610ac1577f00000000000000000000000000000000000000000000000000000000000000006001600160a01b03169061094081611734565b5054906040519163832321bf60e01b83526004830152602082602481865afa9182156106b1578492610a8d575b506020600161097b83611734565b50015460246040518096819363832321bf60e01b835260048301525afa9283156106b1578493610a58575b506040516248537360e31b815260048101829052602481018390526044810193909352602083606481876001600160a01b037f0000000000000000000000000000000000000000000000000000000000000000165af180156106b157610a25575b610a1e9250610a17828233611c96565b9133611d91565b6001815580f35b6020833d602011610a50575b81610a3e60209383611764565b810103126107b657610a1e9250610a07565b3d9150610a31565b92506020833d602011610a85575b81610a7360209383611764565b810103126107b65791519160206109a6565b3d9150610a66565b9091506020813d602011610ab9575b81610aa960209383611764565b810103126107b65751905f61096d565b3d9150610a9c565b63556729af60e01b8252600482fd5b6313d0ff5960e31b8252600482fd5b503461015b578060031936011261015b576020604051600a8152f35b503461015b57604036600319011261015b576020610b23610b1a61171e565b602435906119fc565b604051908152f35b503461015b578060031936011261015b576040517f00000000000000000000000000000000000000000000000000000000000000006001600160a01b03168152602090f35b503461015b57602036600319011261015b57610b8a61171e565b6001546001600160a01b03169033829003610bf7576001600160a01b0316908115610be857600280546001600160a01b031916831790557fb4d7bcb4d9a5d6ef6e827e3b1554e5a2578ad9ca843903d42b05d08bfa3458948380a380f35b63d92e233d60e01b8352600483fd5b637bfa4b9f60e01b8352600483fd5b503461015b57604036600319011261015b576020610b23610c2561171e565b6024359061183f565b503461015b578060031936011261015b576040517f00000000000000000000000000000000000000000000000000000000000000006001600160a01b03168152602090f35b503461015b578060031936011261015b57602060ff60025460a01c166040519015158152f35b503461015b578060031936011261015b57602060405160c88152f35b503461015b57608036600319011261015b5760443590602435821515600435818503611450576064359060ff60025460a01c1661144157610cf4611bdb565b831592838015611439575b61142a57610d0c82611734565b509360ff6003860154161561141b57338752600460205260408720838852602052604087209060ff82541661140c5760028601548086028681048214871517156113f85788116113d85750600a870290878204600a14171561073957612710900495610d7887866117a4565b6040516327e235e360e01b81523360048201527f00000000000000000000000000000000000000000000000000000000000000006001600160a01b03169791906020816024818c5afa9081156113cd579082918c91611398575b50106113235750805460405163832321bf60e01b8152600481019190915298998a99937f00000000000000000000000000000000000000000000000000000000000000006001600160a01b0316602086602481845afa958615611268578c966112ec575b506020600185015460246040518094819363832321bf60e01b835260048301525afa908115611268578c916112b3575b506040516248537360e31b8152600481018990526024810187905260448101919091527f00000000000000000000000000000000000000000000000000000000000000006001600160a01b0316906020818e8180606481015b0391865af180156112a857611273575b5060206024916001845461ff008b60081b169061ffff1916171784558660018501558760028501558a6003850155604051928380926313778db960e11b82528c60048301525afa908115611268578c91611231575b5060048201556005018690551561121c57600401610f438282546117a4565b90555b604051928352602083015283604083015260608201527f5cf8fa4a8e333990018876ad3a82065e68b3859d46c3198b692b77fc3043808b60803392a3813b15611217576040516331b5f13d60e11b81523360048201526024810191909152838160448183865af19081156106b1578491611202575b505081610fcb575b826001815580f35b803b156111e9576040516331b5f13d60e11b815233600482015260248101839052838160448183865af19081156106b15784916111ed575b5050803b156111e957604051637a040c5b60e11b8152306004820152602481018390529083908290604490829084905af190811561072a5783916111d1575b505060405163119e5bf360e01b81527f000000000000000000000000000000000000000000000000000000000000000091906001600160a01b03831690602081600481855afa9081156106795785916111b2575b5060405163095ea7b360e01b81526004810183905260248101869052906001600160a01b031660208260448189855af19081156106d7576111129560209386936106bc575060405163095ea7b360e01b81526001600160a01b039091166004820152602481019290925290948591908290889082906044820190565b03925af19182156106b15760609361115493611195575b506040516364d6def960e01b8152600481019190915230602482015293849283919082906044820190565b03925af1801561118a5761116b575b808291610fc3565b6111839060603d606011610672576106638183611764565b5050611163565b6040513d84823e3d90fd5b6111ad9060203d6020116106aa5761069d8183611764565b611129565b6111cb915060203d60201161070a576106fc8183611764565b5f611096565b816111db91611764565b6111e657815f611042565b50fd5b5050fd5b816111f791611764565b6111e957825f611003565b8161120c91611764565b6111e957825f610fbb565b505050fd5b60050161122a8282546117a4565b9055610f46565b9b505060208b3d602011611260575b8161124d60209383611764565b810103126107b65799518b9a9087610f24565b3d9150611240565b6040513d8e823e3d90fd5b9b5060208c3d6020116112a0575b8161128e60209383611764565b810103126107b6578c9b506020610ecf565b3d9150611281565b6040513d8f823e3d90fd5b9b505060208b3d6020116112e4575b816112cf60209383611764565b810103126107b65799518b9a90610ebf610e66565b3d91506112c2565b9b50945060208b3d60201161131b575b8161130960209383611764565b810103126107b6578b9a51945f610e36565b3d91506112fc565b6040516327e235e360e01b8152336004820152908a906020836024818d5afa801561118a578290611365575b633af8647b60e01b835260045260245260449150fd5b506020833d602011611390575b8161137f60209383611764565b810103126107b6576044925161134f565b3d9150611372565b9150506020813d6020116113c5575b816113b460209383611764565b810103126107b6578190515f610dd2565b3d91506113a7565b6040513d8d823e3d90fd5b886044916113e6888b611786565b633b7b1e4b60e01b8352600452602452fd5b634e487b7160e01b8a52601160045260248afd5b631f19c11d60e01b8852600488fd5b635a90bb8d60e11b8752600487fd5b631f2a200560e01b8652600486fd5b508215610cff565b6313d0ff5960e31b8552600485fd5b8380fd5b503461015b578060031936011261015b576002546040516001600160a01b039091168152602090f35b503461015b578060031936011261015b5760206040516127108152f35b346107b65760603660031901126107b65760015460043590604435906001600160a01b03163303611642576003549060405160c0810181811067ffffffffffffffff82111761162e576040528381526020810190602435825260408101838152606082016001815260808301905f825260a08401925f84526801000000000000000088101561162e576001880160035561153388611734565b96909661161b57600595518755516001870155516002860155600385019051151560ff801983541691161790555160048401555191015560018060a01b037f000000000000000000000000000000000000000000000000000000000000000016803b156107b6575f809160246040518094819363f11db84560e01b83528860048401525af180156116105760209484937ff7154dd385fd97f5acd402bbddfc43353a65d67ed869dc6e507a9f99d6a2040d93604093611600575b50825191825286820152a2604051908152f35b5f61160a91611764565b5f6115ed565b6040513d5f823e3d90fd5b634e487b7160e01b5f525f60045260245ffd5b634e487b7160e01b5f52604160045260245ffd5b637bfa4b9f60e01b5f5260045ffd5b346107b65760203660031901126107b6576004358015158091036107b6576001546001600160a01b03163303611642576002805460ff60a01b191660a09290921b60ff60a01b16919091179055005b346107b6575f3660031901126107b6576002546001600160a01b038116903382900361170f57600180546001600160a01b0319808216851790925591166002556001600160a01b03167ff8ccb027dfcd135e000e9d45e6cc2d662578a8825d4c45b5e32e0adf67e79ec65f80a3005b63058d9a1b60e01b5f5260045ffd5b600435906001600160a01b03821682036107b657565b6003548110156117505760035f52600660205f20910201905f90565b634e487b7160e01b5f52603260045260245ffd5b90601f8019910116810190811067ffffffffffffffff82111761162e57604052565b8115611790570490565b634e487b7160e01b5f52601260045260245ffd5b919082018092116117b157565b634e487b7160e01b5f52601160045260245ffd5b908160209103126107b657516001600160a01b03811681036107b65790565b908160209103126107b6575180151581036107b65790565b908160609103126107b6578051916040602083015192015190565b600160ff1b81146117b1575f0390565b81810392915f1380158285131691841216176117b157565b60018060a01b03165f52600460205260405f20815f5260205260405f2080549060ff8216156119da5761187183611734565b505460405163832321bf60e01b81526004810191909152906020826024817f00000000000000000000000000000000000000000000000000000000000000006001600160a01b03165afa918215611610575f926119a5575b5060ff6118d860209383611c2f565b9360081c16156119905760046001820154915b01546040516345eab49560e01b8152600481019290925260248201526044810193909352826064816001600160a01b037f0000000000000000000000000000000000000000000000000000000000000000165afa908115611610575f9161195a575b6119579250611827565b90565b90506020823d602011611988575b8161197560209383611764565b810103126107b65761195791519061194d565b3d9150611968565b600461199f6001830154611817565b916118eb565b91506020823d6020116119d2575b816119c060209383611764565b810103126107b65790519060ff6118c9565b3d91506119b3565b5050505f90565b9190915f83820193841291129080158216911516176117b157565b60018060a01b03165f52600460205260405f20815f5260205260405f2090815460ff811615611bd357611a2e82611734565b505460405163832321bf60e01b815260048101919091526020816024817f00000000000000000000000000000000000000000000000000000000000000006001600160a01b03165afa908115611610575f91611b9f575b50611a9260ff9185611c2f565b9160081c1615611b8b57602060018401545b6004858101546040516345eab49560e01b81529182019290925260248101919091526044810193909352826064816001600160a01b037f0000000000000000000000000000000000000000000000000000000000000000165afa918215611610575f92611b55575b5090611b1f611b249260038501546119e1565b611827565b5f811315611b4f5761271081029080820461271014901517156117b157600161195792015490611786565b50505f90565b91506020823d602011611b83575b81611b7060209383611764565b810103126107b657905190611b1f611b0c565b3d9150611b63565b6020611b9a6001850154611817565b611aa4565b90506020813d602011611bcb575b81611bba60209383611764565b810103126107b65751611a92611a85565b3d9150611bad565b5050505f1990565b60025f5414611bea5760025f55565b60405162461bcd60e51b815260206004820152601f60248201527f5265656e7472616e637947756172643a207265656e7472616e742063616c6c006044820152606490fd5b90611c3f60028301548092611827565b600183015480820292915f8212600160ff1b8214166117b15781840514901517156117b157801561179057600160ff1b82145f198214166117b15760ff9105915460081c165f14611c8d5790565b61195790611817565b6001600160a01b03165f90815260046020908152604080832084845282529091209392611cc39085611c2f565b9360ff815460081c165f14611d6f5760046001820154915b01546040516345eab49560e01b8152600481019290925260248201526044810192909252816064816001600160a01b037f0000000000000000000000000000000000000000000000000000000000000000165afa908115611610575f91611d40575090565b90506020813d602011611d67575b81611d5b60209383611764565b810103126107b6575190565b3d9150611d4e565b6004611d7e6001830154611817565b91611cdb565b919082039182116117b157565b93929190925f9460018060a01b03811693845f52600460205260405f20865f52602052611df060405f2091611dc588611734565b50835460081c60ff161561202557611de7600460018601549201918254611d84565b90555b85611827565b86865f8312611f12575050600391909101547f00000000000000000000000000000000000000000000000000000000000000006001600160a01b031691611e36916117a4565b91813b15611f0e5760405163ef6506db60e01b81526001600160a01b03919091166004820152602481019290925286908290604490829084905af180156106d75791868694928694611eec575b50507f16783b3f0676d6e63220b161cedd5415bd909d2f96353db363fbd217a00971b4916040915b82519182526020820152a382526004602052604082209082526020526005604082208281558260018201558260028201558260038201558260048201550155565b81939550611efb929450611764565b611f0a5783918391865f611e83565b8480fd5b8780fd5b949291611f2460039197959297611817565b92015491828110611f5d575b5050507f16783b3f0676d6e63220b161cedd5415bd909d2f96353db363fbd217a00971b491604091611eab565b9395509193507f00000000000000000000000000000000000000000000000000000000000000006001600160a01b031692611f9791611d84565b823b156107b65760405163ef6506db60e01b81526001600160a01b039290921660048301526024820152905f908290604490829084905af1801561161057611fe6575b91839183808795611f30565b83919550604085936120195f7f16783b3f0676d6e63220b161cedd5415bd909d2f96353db363fbd217a00971b494611764565b5f979350935050611fda565b612039600560018601549201918254611d84565b9055611dea56fea2646970667358221220c019eadbfb9b9e42b432dabf2d806f4a00e63ff4a98a8657bd6a4bea8a722fb764736f6c63430008210033","linkReferences":{}},"methodIdentifiers":{"BPS()":"249d39e9","LIQUIDATION_BONUS_BPS()":"ecd1dae6","MAINTENANCE_MARGIN_BPS()":"5838bff7","TRADE_FEE_BPS()":"9185f598","acceptAdmin()":"0e18b681","admin()":"f851a440","closePosition(uint256)":"a126d601","createMarket(bytes32,bytes32,uint256)":"22924773","feeSplitter()":"6052970c","funding()":"cb4c86b7","liquidate(address,uint256)":"bcbaf487","marginRatio(address,uint256)":"83c666dc","marketCount()":"ec979082","markets(uint256)":"b1283e77","openPosition(uint256,uint256,bool,uint256)":"3dc8f144","oracle()":"7dc0d1d0","paused()":"5c975abb","pendingAdmin()":"26782247","positions(address,uint256)":"c1be6677","setPaused(bool)":"16c38b3c","transferAdmin(address)":"75829def","unrealizedPnL(address,uint256)":"71a5c554","vault()":"fbfa77cf"},"id":88}