{"abi":[{"type":"constructor","inputs":[{"name":"_messenger","type":"address","internalType":"address"},{"name":"_admin","type":"address","internalType":"address"}],"stateMutability":"nonpayable"},{"type":"receive","stateMutability":"payable"},{"type":"function","name":"admin","inputs":[],"outputs":[{"name":"","type":"address","internalType":"address"}],"stateMutability":"view"},{"type":"function","name":"finalizeDeposit","inputs":[{"name":"l1Token","type":"address","internalType":"address"},{"name":"","type":"address","internalType":"address"},{"name":"to","type":"address","internalType":"address"},{"name":"amount","type":"uint256","internalType":"uint256"}],"outputs":[],"stateMutability":"nonpayable"},{"type":"function","name":"finalizeETHDeposit","inputs":[{"name":"","type":"address","internalType":"address"},{"name":"to","type":"address","internalType":"address"},{"name":"amount","type":"uint256","internalType":"uint256"}],"outputs":[],"stateMutability":"nonpayable"},{"type":"function","name":"l1Bridge","inputs":[],"outputs":[{"name":"","type":"address","internalType":"address"}],"stateMutability":"view"},{"type":"function","name":"l1ToL2Token","inputs":[{"name":"","type":"address","internalType":"address"}],"outputs":[{"name":"","type":"address","internalType":"address"}],"stateMutability":"view"},{"type":"function","name":"mapToken","inputs":[{"name":"l1Token","type":"address","internalType":"address"},{"name":"l2Token","type":"address","internalType":"address"}],"outputs":[],"stateMutability":"nonpayable"},{"type":"function","name":"messenger","inputs":[],"outputs":[{"name":"","type":"address","internalType":"contract IL2CrossDomainMessenger"}],"stateMutability":"view"},{"type":"function","name":"paused","inputs":[],"outputs":[{"name":"","type":"bool","internalType":"bool"}],"stateMutability":"view"},{"type":"function","name":"pendingETHWithdrawalTotal","inputs":[],"outputs":[{"name":"","type":"uint256","internalType":"uint256"}],"stateMutability":"view"},{"type":"function","name":"setAdmin","inputs":[{"name":"newAdmin","type":"address","internalType":"address"}],"outputs":[],"stateMutability":"nonpayable"},{"type":"function","name":"setL1Bridge","inputs":[{"name":"_l1Bridge","type":"address","internalType":"address"}],"outputs":[],"stateMutability":"nonpayable"},{"type":"function","name":"setPaused","inputs":[{"name":"_paused","type":"bool","internalType":"bool"}],"outputs":[],"stateMutability":"nonpayable"},{"type":"function","name":"totalMinted","inputs":[{"name":"","type":"address","internalType":"address"}],"outputs":[{"name":"","type":"uint256","internalType":"uint256"}],"stateMutability":"view"},{"type":"function","name":"withdrawETH","inputs":[{"name":"to","type":"address","internalType":"address"},{"name":"amount","type":"uint256","internalType":"uint256"}],"outputs":[],"stateMutability":"payable"},{"type":"function","name":"withdrawGDollar","inputs":[{"name":"l1Token","type":"address","internalType":"address"},{"name":"to","type":"address","internalType":"address"},{"name":"amount","type":"uint256","internalType":"uint256"}],"outputs":[],"stateMutability":"nonpayable"},{"type":"function","name":"withdrawUSDC","inputs":[{"name":"l1Token","type":"address","internalType":"address"},{"name":"to","type":"address","internalType":"address"},{"name":"amount","type":"uint256","internalType":"uint256"}],"outputs":[],"stateMutability":"nonpayable"},{"type":"event","name":"DepositFinalized","inputs":[{"name":"l1Token","type":"address","indexed":true,"internalType":"address"},{"name":"l2Token","type":"address","indexed":true,"internalType":"address"},{"name":"to","type":"address","indexed":true,"internalType":"address"},{"name":"amount","type":"uint256","indexed":false,"internalType":"uint256"}],"anonymous":false},{"type":"event","name":"ETHDepositFinalized","inputs":[{"name":"to","type":"address","indexed":true,"internalType":"address"},{"name":"amount","type":"uint256","indexed":false,"internalType":"uint256"}],"anonymous":false},{"type":"event","name":"ETHWithdrawalInitiated","inputs":[{"name":"from","type":"address","indexed":true,"internalType":"address"},{"name":"to","type":"address","indexed":true,"internalType":"address"},{"name":"amount","type":"uint256","indexed":false,"internalType":"uint256"}],"anonymous":false},{"type":"event","name":"WithdrawalInitiated","inputs":[{"name":"l1Token","type":"address","indexed":true,"internalType":"address"},{"name":"from","type":"address","indexed":true,"internalType":"address"},{"name":"to","type":"address","indexed":true,"internalType":"address"},{"name":"amount","type":"uint256","indexed":false,"internalType":"uint256"}],"anonymous":false},{"type":"error","name":"BridgePaused","inputs":[]},{"type":"error","name":"InsufficientETH","inputs":[]},{"type":"error","name":"InsufficientFreeETH","inputs":[]},{"type":"error","name":"NotAdmin","inputs":[]},{"type":"error","name":"NotL1Bridge","inputs":[]},{"type":"error","name":"NotMessenger","inputs":[]},{"type":"error","name":"PeerNotConfigured","inputs":[]},{"type":"error","name":"Reentrant","inputs":[]},{"type":"error","name":"TokenNotMapped","inputs":[]},{"type":"error","name":"TransferFailed","inputs":[]},{"type":"error","name":"ZeroAddress","inputs":[]},{"type":"error","name":"ZeroAmount","inputs":[]}],"bytecode":{"object":"0x60a0346100ce57601f610fe438819003918201601f19168301916001600160401b038311848410176100d25780849260409485528339810103126100ce57610052602061004b836100e6565b92016100e6565b6001600160a01b039091169081156100bf576001600160a01b03169081156100bf57608052600180546001600160a01b031916919091179055604051610ee990816100fb823960805181818161012f01528181610492015281816106830152818161090a0152610a890152f35b63d92e233d60e01b5f5260045ffd5b5f80fd5b634e487b7160e01b5f52604160045260245ffd5b51906001600160a01b03821682036100ce5756fe608080604052600436101561001c575b50361561001a575f80fd5b005b5f905f3560e01c9081623d479014610d06575080630f6cb0ae14610b6557806316c38b3c14610b235780631a05037614610ab85780633cb747bf14610a7357806347400269146109ea5780634782f779146108545780635c975abb146108315780635ff2e69314610645578063704b6c02146105d857806379226209146103575780638a2dc01414610316578063969b53da146102ef578063a6a1be4f1461011c578063cc2d589a146100fe5763f851a4400361000f57346100fb57806003193601126100fb576001546040516001600160a01b039091168152602090f35b80fd5b50346100fb57806003193601126100fb576020600554604051908152f35b50346100fb5761012b36610d66565b91507f00000000000000000000000000000000000000000000000000000000000000006001600160a01b0316338190036102e057602060049160405192838092636e296e4560e01b82525afa9081156102d55784916102a6575b5083546001600160a01b039081169116036102975760045460ff8160081c166102885761ff0019166101001760045560055482906101c39047610e22565b10610279578280808085855af13d15610274573d67ffffffffffffffff811161026057604051906101fe601f8201601f191660200183610da0565b81528460203d92013e5b15610251576040519182526001600160a01b0316907f4dac4df9005824b3ae59eb193a9100f02f7acd900d427609a45758ffe648915990602090a261ff00196004541660045580f35b6312171d8360e31b8352600483fd5b634e487b7160e01b85526041600452602485fd5b610208565b636e18fb7760e01b8352600483fd5b63769dd35360e11b8452600484fd5b63a51ca66960e01b8352600483fd5b6102c8915060203d6020116102ce575b6102c08183610da0565b810190610e94565b5f610185565b503d6102b6565b6040513d86823e3d90fd5b631e51e47d60e01b8452600484fd5b50346100fb57806003193601126100fb57546040516001600160a01b039091168152602090f35b50346100fb5760203660031901126100fb576020906001600160a01b0361033b610d3a565b16815260028252604060018060a01b0391205416604051908152f35b50346100fb5761036636610d66565b9060045460ff81166105c95784546001600160a01b0316156105ba5760ff8160081c166105ab5761ff00191661010017600455811561059c576001600160a01b03811692831561058d576001600160a01b03908116808652600260205260408620549092911690811561057e57908591813b1561057a57604051632770a7eb60e21b8152336004820152602481018690529183908390604490829084905af1801561056f5785928491610550575b509084610486925260036020526104316040852054841115610dd6565b848452600360205260408420610448848254610e22565b9055604051632010e87560e01b60208201526001600160a01b039091166024820152604481019290925281606481015b03601f198101835282610da0565b81546001600160a01b037f0000000000000000000000000000000000000000000000000000000000000000811692911690823b15610541576104e192849283604051809681958294633dbb202b60e01b845260048401610e43565b03925af180156105455761052c575b50506040519182527f2fc3848834aac8e883a2d2a17a7514dc4f2d3dd268089df9b9f5d918259ef3b060203393a461ff00196004541660045580f35b8161053691610da0565b61054157835f6104f0565b8380fd5b6040513d84823e3d90fd5b819293509061055e91610da0565b61056b578390825f610414565b5080fd5b6040513d85823e3d90fd5b8280fd5b63828d566360e01b8652600486fd5b63d92e233d60e01b8552600485fd5b631f2a200560e01b8452600484fd5b63769dd35360e11b8552600485fd5b63507a6c5560e01b8552600485fd5b63a792dfa360e01b8552600485fd5b50346100fb5760203660031901126100fb576105f2610d3a565b600154906001600160a01b0382163303610636576001600160a01b0316908115610627576001600160a01b0319161760015580f35b63d92e233d60e01b8352600483fd5b637bfa4b9f60e01b8352600483fd5b50346100fb5760803660031901126100fb5761065f610d3a565b610667610d50565b506044356001600160a01b0381169182820361054157606435907f00000000000000000000000000000000000000000000000000000000000000006001600160a01b03163381900361082257602060049160405192838092636e296e4560e01b82525afa9081156108175786916107f8575b5085546001600160a01b039081169116036107e95760045460ff8160081c166107da5761ff001916610100176004556001600160a01b039081168086526002602052604086205490911692909190831561057e578590843b1561056b576040516340c10f1960e01b81526001600160a01b0391909116600482015260248101839052818160448183895af18015610545576107c1575b507fc7f2e9c55c40a50fbc217dfc70cd39a222940dfa62145aa0ca49eb9535d4fcb291836020925260038252604087206107aa828254610e87565b9055604051908152a461ff00196004541660045580f35b816107cb91610da0565b6107d657845f61076f565b8480fd5b63769dd35360e11b8652600486fd5b63a51ca66960e01b8552600485fd5b610811915060203d6020116102ce576102c08183610da0565b5f6106d9565b6040513d88823e3d90fd5b631e51e47d60e01b8652600486fd5b50346100fb57806003193601126100fb57602060ff600454166040519015158152f35b5060403660031901126100fb57610869610d3a565b60243560045460ff8160081c166102885761ff001981166101001760045560ff166109db5782546001600160a01b031680156109cc57811561059c576001600160a01b03831692831561058d578234036109bd57849161090884926108d084600554610e87565b600555604051631bfa6c9760e21b60208201526001600160a01b03919091166024820152604480820194909452928352606483610da0565b7f00000000000000000000000000000000000000000000000000000000000000006001600160a01b031691823b156105415761095d92849283604051809681958294633dbb202b60e01b845260048401610e43565b03925af18015610545576109a8575b50506040519081527fac665e40cc66048bbdbd717fd4c3a47b08ba458030de22b7ad9a9462bd026e8f60203392a361ff00196004541660045580f35b816109b291610da0565b61057a57825f61096c565b631a84bc4160e21b8552600485fd5b63507a6c5560e01b8452600484fd5b63a792dfa360e01b8352600483fd5b50346100fb5760403660031901126100fb57610a04610d3a565b610a0c610d50565b6001549091906001600160a01b03163303610636576001600160a01b031680158015610a62575b61062757825260026020526040822080546001600160a01b0319166001600160a01b0390921691909117905580f35b506001600160a01b03821615610a33565b50346100fb57806003193601126100fb576040517f00000000000000000000000000000000000000000000000000000000000000006001600160a01b03168152602090f35b50346100fb5760203660031901126100fb57610ad2610d3a565b6001546001600160a01b03163303610b14576001600160a01b03168015610b055781546001600160a01b03191617815580f35b63d92e233d60e01b8252600482fd5b637bfa4b9f60e01b8252600482fd5b50346100fb5760203660031901126100fb5760043580151580910361056b576001546001600160a01b03163303610b145760ff80196004541691161760045580f35b5034610ca857610b7436610d66565b9060045460ff8116610cf7575f546001600160a01b031615610ce85760ff8160081c16610cd95761ff001916610100176004558115610cca576001600160a01b038116928315610cbb576001600160a01b039081165f81815260026020526040902054909291168015610cac57803b15610ca857604051632770a7eb60e21b815233600482015260248101859052905f908290604490829084905af18015610c9d57610c85575b508261048686928484526003602052610c3a6040852054841115610dd6565b848452600360205260408420610c51848254610e22565b90556040516362a9884360e01b60208201526001600160a01b03909116602482015260448101929092528160648101610478565b61048695505f610c9491610da0565b825f9550610c1b565b6040513d5f823e3d90fd5b5f80fd5b63828d566360e01b5f5260045ffd5b63d92e233d60e01b5f5260045ffd5b631f2a200560e01b5f5260045ffd5b63769dd35360e11b5f5260045ffd5b63507a6c5560e01b5f5260045ffd5b63a792dfa360e01b5f5260045ffd5b34610ca8576020366003190112610ca8576020906001600160a01b03610d2a610d3a565b165f526003825260405f20548152f35b600435906001600160a01b0382168203610ca857565b602435906001600160a01b0382168203610ca857565b6060906003190112610ca8576004356001600160a01b0381168103610ca857906024356001600160a01b0381168103610ca8579060443590565b90601f8019910116810190811067ffffffffffffffff821117610dc257604052565b634e487b7160e01b5f52604160045260245ffd5b15610ddd57565b60405162461bcd60e51b815260206004820152601a60248201527f4275726e2065786365656473206d696e74656420616d6f756e740000000000006044820152606490fd5b91908203918211610e2f57565b634e487b7160e01b5f52601160045260245ffd5b92916080602060409262030d409460018060a01b0316875260608288015280519182918260608a0152018388015e5f828288010152601f8019910116850101930152565b91908201809211610e2f57565b90816020910312610ca857516001600160a01b0381168103610ca8579056fea2646970667358221220b9a91478fe9d5d658a6bf29b393ff7111af81f8e998b9455e045b93a621170a864736f6c63430008210033","linkReferences":{}},"methodIdentifiers":{"admin()":"f851a440","finalizeDeposit(address,address,address,uint256)":"5ff2e693","finalizeETHDeposit(address,address,uint256)":"a6a1be4f","l1Bridge()":"969b53da","l1ToL2Token(address)":"8a2dc014","mapToken(address,address)":"47400269","messenger()":"3cb747bf","paused()":"5c975abb","pendingETHWithdrawalTotal()":"cc2d589a","setAdmin(address)":"704b6c02","setL1Bridge(address)":"1a050376","setPaused(bool)":"16c38b3c","totalMinted(address)":"003d4790","withdrawETH(address,uint256)":"4782f779","withdrawGDollar(address,address,uint256)":"0f6cb0ae","withdrawUSDC(address,address,uint256)":"79226209"},"id":69}