{"abi":[{"type":"constructor","inputs":[{"name":"_messenger","type":"address","internalType":"address"},{"name":"_admin","type":"address","internalType":"address"}],"stateMutability":"nonpayable"},{"type":"receive","stateMutability":"payable"},{"type":"function","name":"admin","inputs":[],"outputs":[{"name":"","type":"address","internalType":"address"}],"stateMutability":"view"},{"type":"function","name":"finalizeDeposit","inputs":[{"name":"l1Token","type":"address","internalType":"address"},{"name":"","type":"address","internalType":"address"},{"name":"to","type":"address","internalType":"address"},{"name":"amount","type":"uint256","internalType":"uint256"}],"outputs":[],"stateMutability":"nonpayable"},{"type":"function","name":"finalizeETHDeposit","inputs":[{"name":"","type":"address","internalType":"address"},{"name":"to","type":"address","internalType":"address"},{"name":"amount","type":"uint256","internalType":"uint256"}],"outputs":[],"stateMutability":"nonpayable"},{"type":"function","name":"l1Bridge","inputs":[],"outputs":[{"name":"","type":"address","internalType":"address"}],"stateMutability":"view"},{"type":"function","name":"l1ToL2Token","inputs":[{"name":"","type":"address","internalType":"address"}],"outputs":[{"name":"","type":"address","internalType":"address"}],"stateMutability":"view"},{"type":"function","name":"mapToken","inputs":[{"name":"l1Token","type":"address","internalType":"address"},{"name":"l2Token","type":"address","internalType":"address"}],"outputs":[],"stateMutability":"nonpayable"},{"type":"function","name":"messenger","inputs":[],"outputs":[{"name":"","type":"address","internalType":"contract IL2CrossDomainMessenger"}],"stateMutability":"view"},{"type":"function","name":"paused","inputs":[],"outputs":[{"name":"","type":"bool","internalType":"bool"}],"stateMutability":"view"},{"type":"function","name":"pendingETHWithdrawalTotal","inputs":[],"outputs":[{"name":"","type":"uint256","internalType":"uint256"}],"stateMutability":"view"},{"type":"function","name":"setAdmin","inputs":[{"name":"newAdmin","type":"address","internalType":"address"}],"outputs":[],"stateMutability":"nonpayable"},{"type":"function","name":"setL1Bridge","inputs":[{"name":"_l1Bridge","type":"address","internalType":"address"}],"outputs":[],"stateMutability":"nonpayable"},{"type":"function","name":"setPaused","inputs":[{"name":"_paused","type":"bool","internalType":"bool"}],"outputs":[],"stateMutability":"nonpayable"},{"type":"function","name":"totalMinted","inputs":[{"name":"","type":"address","internalType":"address"}],"outputs":[{"name":"","type":"uint256","internalType":"uint256"}],"stateMutability":"view"},{"type":"function","name":"withdrawETH","inputs":[{"name":"to","type":"address","internalType":"address"},{"name":"amount","type":"uint256","internalType":"uint256"}],"outputs":[],"stateMutability":"payable"},{"type":"function","name":"withdrawGDollar","inputs":[{"name":"l1Token","type":"address","internalType":"address"},{"name":"to","type":"address","internalType":"address"},{"name":"amount","type":"uint256","internalType":"uint256"}],"outputs":[],"stateMutability":"nonpayable"},{"type":"function","name":"withdrawUSDC","inputs":[{"name":"l1Token","type":"address","internalType":"address"},{"name":"to","type":"address","internalType":"address"},{"name":"amount","type":"uint256","internalType":"uint256"}],"outputs":[],"stateMutability":"nonpayable"},{"type":"event","name":"DepositFinalized","inputs":[{"name":"l1Token","type":"address","indexed":true,"internalType":"address"},{"name":"l2Token","type":"address","indexed":true,"internalType":"address"},{"name":"to","type":"address","indexed":true,"internalType":"address"},{"name":"amount","type":"uint256","indexed":false,"internalType":"uint256"}],"anonymous":false},{"type":"event","name":"ETHDepositFinalized","inputs":[{"name":"to","type":"address","indexed":true,"internalType":"address"},{"name":"amount","type":"uint256","indexed":false,"internalType":"uint256"}],"anonymous":false},{"type":"event","name":"ETHWithdrawalInitiated","inputs":[{"name":"from","type":"address","indexed":true,"internalType":"address"},{"name":"to","type":"address","indexed":true,"internalType":"address"},{"name":"amount","type":"uint256","indexed":false,"internalType":"uint256"}],"anonymous":false},{"type":"event","name":"WithdrawalInitiated","inputs":[{"name":"l1Token","type":"address","indexed":true,"internalType":"address"},{"name":"from","type":"address","indexed":true,"internalType":"address"},{"name":"to","type":"address","indexed":true,"internalType":"address"},{"name":"amount","type":"uint256","indexed":false,"internalType":"uint256"}],"anonymous":false},{"type":"error","name":"BridgePaused","inputs":[]},{"type":"error","name":"InsufficientETH","inputs":[]},{"type":"error","name":"InsufficientFreeETH","inputs":[]},{"type":"error","name":"NotAdmin","inputs":[]},{"type":"error","name":"NotL1Bridge","inputs":[]},{"type":"error","name":"NotMessenger","inputs":[]},{"type":"error","name":"PeerNotConfigured","inputs":[]},{"type":"error","name":"Reentrant","inputs":[]},{"type":"error","name":"TokenNotMapped","inputs":[]},{"type":"error","name":"TransferFailed","inputs":[]},{"type":"error","name":"ZeroAddress","inputs":[]},{"type":"error","name":"ZeroAmount","inputs":[]}],"bytecode":{"object":"0x60a0346100ce57601f610ecc38819003918201601f19168301916001600160401b038311848410176100d25780849260409485528339810103126100ce57610052602061004b836100e6565b92016100e6565b6001600160a01b039091169081156100bf576001600160a01b03169081156100bf57608052600180546001600160a01b031916919091179055604051610dd190816100fb823960805181818161012f01528181610462015281816106390152818161088c01526109fc0152f35b63d92e233d60e01b5f5260045ffd5b5f80fd5b634e487b7160e01b5f52604160045260245ffd5b51906001600160a01b03821682036100ce5756fe608080604052600436101561001c575b50361561001a575f80fd5b005b5f905f3560e01c9081623d479014610c3a575080630f6cb0ae14610ad857806316c38b3c14610a965780631a05037614610a2b5780633cb747bf146109e6578063474002691461095d5780634782f779146107d65780635c975abb146107b35780635ff2e693146105fb578063704b6c021461058e57806379226209146103575780638a2dc01414610316578063969b53da146102ef578063a6a1be4f1461011c578063cc2d589a146100fe5763f851a4400361000f57346100fb57806003193601126100fb576001546040516001600160a01b039091168152602090f35b80fd5b50346100fb57806003193601126100fb576020600554604051908152f35b50346100fb5761012b36610c9a565b91507f00000000000000000000000000000000000000000000000000000000000000006001600160a01b0316338190036102e057602060049160405192838092636e296e4560e01b82525afa9081156102d55784916102a6575b5083546001600160a01b039081169116036102975760045460ff8160081c166102885761ff0019166101001760045560055482906101c39047610d0a565b10610279578280808085855af13d15610274573d67ffffffffffffffff811161026057604051906101fe601f8201601f191660200183610cd4565b81528460203d92013e5b15610251576040519182526001600160a01b0316907f4dac4df9005824b3ae59eb193a9100f02f7acd900d427609a45758ffe648915990602090a261ff00196004541660045580f35b6312171d8360e31b8352600483fd5b634e487b7160e01b85526041600452602485fd5b610208565b636e18fb7760e01b8352600483fd5b63769dd35360e11b8452600484fd5b63a51ca66960e01b8352600483fd5b6102c8915060203d6020116102ce575b6102c08183610cd4565b810190610d7c565b5f610185565b503d6102b6565b6040513d86823e3d90fd5b631e51e47d60e01b8452600484fd5b50346100fb57806003193601126100fb57546040516001600160a01b039091168152602090f35b50346100fb5760203660031901126100fb576020906001600160a01b0361033b610c6e565b16815260028252604060018060a01b0391205416604051908152f35b50346100fb5761036636610c9a565b9060ff6004541661057f5783546001600160a01b031615610570578115610561576001600160a01b038116928315610552576001600160a01b03908116808652600260205260408620549092911690811561054357908591813b1561053f57604051632770a7eb60e21b8152336004820152602481018690529183908390604490829084905af180156105345785928491610515575b5090846104569252600360205260408420610418848254610d0a565b9055604051632010e87560e01b60208201526001600160a01b039091166024820152604481019290925281606481015b03601f198101835282610cd4565b81546001600160a01b037f0000000000000000000000000000000000000000000000000000000000000000811692911690823b15610506576104b192849283604051809681958294633dbb202b60e01b845260048401610d2b565b03925af1801561050a576104f1575b50506040519182527f2fc3848834aac8e883a2d2a17a7514dc4f2d3dd268089df9b9f5d918259ef3b060203393a480f35b816104fb91610cd4565b61050657835f6104c0565b8380fd5b6040513d84823e3d90fd5b819293509061052391610cd4565b610530578390825f6103fc565b5080fd5b6040513d85823e3d90fd5b8280fd5b63828d566360e01b8652600486fd5b63d92e233d60e01b8552600485fd5b631f2a200560e01b8452600484fd5b63507a6c5560e01b8452600484fd5b63a792dfa360e01b8452600484fd5b50346100fb5760203660031901126100fb576105a8610c6e565b600154906001600160a01b03821633036105ec576001600160a01b03169081156105dd576001600160a01b0319161760015580f35b63d92e233d60e01b8352600483fd5b637bfa4b9f60e01b8352600483fd5b50346100fb5760803660031901126100fb57610615610c6e565b61061d610c84565b506044356001600160a01b0381169182820361050657606435907f00000000000000000000000000000000000000000000000000000000000000006001600160a01b0316338190036107a457602060049160405192838092636e296e4560e01b82525afa90811561079957869161077a575b5085546001600160a01b0390811691160361076b576001600160a01b0390811680865260026020526040862054909116929091908315610543578590843b15610530576040516340c10f1960e01b81526001600160a01b0391909116600482015260248101839052818160448183895af1801561050a57610752575b507fc7f2e9c55c40a50fbc217dfc70cd39a222940dfa62145aa0ca49eb9535d4fcb29183602092526003825260408720610746828254610d6f565b9055604051908152a480f35b8161075c91610cd4565b61076757845f61070b565b8480fd5b63a51ca66960e01b8552600485fd5b610793915060203d6020116102ce576102c08183610cd4565b5f61068f565b6040513d88823e3d90fd5b631e51e47d60e01b8652600486fd5b50346100fb57806003193601126100fb57602060ff600454166040519015158152f35b5060403660031901126100fb576107eb610c6e565b60243560045460ff8160081c166102885761ff001981166101001760045560ff1661094e5782546001600160a01b03168015610570578115610561576001600160a01b0383169283156105525782340361093f57849161088a849261085284600554610d6f565b600555604051631bfa6c9760e21b60208201526001600160a01b03919091166024820152604480820194909452928352606483610cd4565b7f00000000000000000000000000000000000000000000000000000000000000006001600160a01b031691823b15610506576108df92849283604051809681958294633dbb202b60e01b845260048401610d2b565b03925af1801561050a5761092a575b50506040519081527fac665e40cc66048bbdbd717fd4c3a47b08ba458030de22b7ad9a9462bd026e8f60203392a361ff00196004541660045580f35b8161093491610cd4565b61053f57825f6108ee565b631a84bc4160e21b8552600485fd5b63a792dfa360e01b8352600483fd5b50346100fb5760403660031901126100fb57610977610c6e565b61097f610c84565b6001549091906001600160a01b031633036105ec576001600160a01b0316801580156109d5575b6105dd57825260026020526040822080546001600160a01b0319166001600160a01b0390921691909117905580f35b506001600160a01b038216156109a6565b50346100fb57806003193601126100fb576040517f00000000000000000000000000000000000000000000000000000000000000006001600160a01b03168152602090f35b50346100fb5760203660031901126100fb57610a45610c6e565b6001546001600160a01b03163303610a87576001600160a01b03168015610a785781546001600160a01b03191617815580f35b63d92e233d60e01b8252600482fd5b637bfa4b9f60e01b8252600482fd5b50346100fb5760203660031901126100fb57600435801515809103610530576001546001600160a01b03163303610a875760ff80196004541691161760045580f35b5034610beb57610ae736610c9a565b9060ff60045416610c2b575f546001600160a01b031615610c1c578115610c0d576001600160a01b038116928315610bfe576001600160a01b039081165f81815260026020526040902054909291168015610bef57803b15610beb57604051632770a7eb60e21b815233600482015260248101859052905f908290604490829084905af18015610be057610bc8575b50826104568692848452600360205260408420610b94848254610d0a565b90556040516362a9884360e01b60208201526001600160a01b03909116602482015260448101929092528160648101610448565b61045695505f610bd791610cd4565b825f9550610b76565b6040513d5f823e3d90fd5b5f80fd5b63828d566360e01b5f5260045ffd5b63d92e233d60e01b5f5260045ffd5b631f2a200560e01b5f5260045ffd5b63507a6c5560e01b5f5260045ffd5b63a792dfa360e01b5f5260045ffd5b34610beb576020366003190112610beb576020906001600160a01b03610c5e610c6e565b165f526003825260405f20548152f35b600435906001600160a01b0382168203610beb57565b602435906001600160a01b0382168203610beb57565b6060906003190112610beb576004356001600160a01b0381168103610beb57906024356001600160a01b0381168103610beb579060443590565b90601f8019910116810190811067ffffffffffffffff821117610cf657604052565b634e487b7160e01b5f52604160045260245ffd5b91908203918211610d1757565b634e487b7160e01b5f52601160045260245ffd5b92916080602060409262030d409460018060a01b0316875260608288015280519182918260608a0152018388015e5f828288010152601f8019910116850101930152565b91908201809211610d1757565b90816020910312610beb57516001600160a01b0381168103610beb579056fea2646970667358221220ef52593b2aa6b1db7ac4388818660469051df412bcc7997b2ed942b255a70a3964736f6c63430008210033","linkReferences":{}},"methodIdentifiers":{"admin()":"f851a440","finalizeDeposit(address,address,address,uint256)":"5ff2e693","finalizeETHDeposit(address,address,uint256)":"a6a1be4f","l1Bridge()":"969b53da","l1ToL2Token(address)":"8a2dc014","mapToken(address,address)":"47400269","messenger()":"3cb747bf","paused()":"5c975abb","pendingETHWithdrawalTotal()":"cc2d589a","setAdmin(address)":"704b6c02","setL1Bridge(address)":"1a050376","setPaused(bool)":"16c38b3c","totalMinted(address)":"003d4790","withdrawETH(address,uint256)":"4782f779","withdrawGDollar(address,address,uint256)":"0f6cb0ae","withdrawUSDC(address,address,uint256)":"79226209"},"id":12}