{"abi":[{"type":"constructor","inputs":[{"name":"_gusd","type":"address","internalType":"address"},{"name":"_registry","type":"address","internalType":"address"},{"name":"_oracle","type":"address","internalType":"address"},{"name":"_feeSplitter","type":"address","internalType":"address"},{"name":"_dAppRecipient","type":"address","internalType":"address"},{"name":"_admin","type":"address","internalType":"address"}],"stateMutability":"nonpayable"},{"type":"function","name":"RAY","inputs":[],"outputs":[{"name":"","type":"uint256","internalType":"uint256"}],"stateMutability":"view"},{"type":"function","name":"WAD","inputs":[],"outputs":[{"name":"","type":"uint256","internalType":"uint256"}],"stateMutability":"view"},{"type":"function","name":"_callStabilityFeeTracking","inputs":[{"name":"feeWAD","type":"uint256","internalType":"uint256"},{"name":"_dAppRecipient","type":"address","internalType":"address"},{"name":"token","type":"address","internalType":"address"},{"name":"ilk","type":"bytes32","internalType":"bytes32"}],"outputs":[],"stateMutability":"nonpayable"},{"type":"function","name":"acceptAdmin","inputs":[],"outputs":[],"stateMutability":"nonpayable"},{"type":"function","name":"accumulators","inputs":[{"name":"","type":"bytes32","internalType":"bytes32"}],"outputs":[{"name":"chi","type":"uint256","internalType":"uint256"},{"name":"lastDrip","type":"uint256","internalType":"uint256"},{"name":"totalNormalizedDebt","type":"uint256","internalType":"uint256"}],"stateMutability":"view"},{"type":"function","name":"admin","inputs":[],"outputs":[{"name":"","type":"address","internalType":"address"}],"stateMutability":"view"},{"type":"function","name":"closeVault","inputs":[{"name":"ilk","type":"bytes32","internalType":"bytes32"}],"outputs":[],"stateMutability":"nonpayable"},{"type":"function","name":"dAppRecipient","inputs":[],"outputs":[{"name":"","type":"address","internalType":"address"}],"stateMutability":"view"},{"type":"function","name":"depositCollateral","inputs":[{"name":"ilk","type":"bytes32","internalType":"bytes32"},{"name":"amount","type":"uint256","internalType":"uint256"}],"outputs":[],"stateMutability":"nonpayable"},{"type":"function","name":"drip","inputs":[{"name":"ilk","type":"bytes32","internalType":"bytes32"}],"outputs":[],"stateMutability":"nonpayable"},{"type":"function","name":"feeSplitter","inputs":[],"outputs":[{"name":"","type":"address","internalType":"contract IUBIFeeSplitter"}],"stateMutability":"view"},{"type":"function","name":"gusd","inputs":[],"outputs":[{"name":"","type":"address","internalType":"contract IgUSD"}],"stateMutability":"view"},{"type":"function","name":"healthFactor","inputs":[{"name":"ilk","type":"bytes32","internalType":"bytes32"},{"name":"owner","type":"address","internalType":"address"}],"outputs":[{"name":"","type":"uint256","internalType":"uint256"}],"stateMutability":"view"},{"type":"function","name":"ilkDebt","inputs":[{"name":"","type":"bytes32","internalType":"bytes32"}],"outputs":[{"name":"","type":"uint256","internalType":"uint256"}],"stateMutability":"view"},{"type":"function","name":"liquidate","inputs":[{"name":"ilk","type":"bytes32","internalType":"bytes32"},{"name":"owner","type":"address","internalType":"address"}],"outputs":[],"stateMutability":"nonpayable"},{"type":"function","name":"mintGUSD","inputs":[{"name":"ilk","type":"bytes32","internalType":"bytes32"},{"name":"amount","type":"uint256","internalType":"uint256"}],"outputs":[],"stateMutability":"nonpayable"},{"type":"function","name":"openVault","inputs":[{"name":"ilk","type":"bytes32","internalType":"bytes32"}],"outputs":[],"stateMutability":"nonpayable"},{"type":"function","name":"oracle","inputs":[],"outputs":[{"name":"","type":"address","internalType":"contract IPriceOracle"}],"stateMutability":"view"},{"type":"function","name":"paused","inputs":[],"outputs":[{"name":"","type":"bool","internalType":"bool"}],"stateMutability":"view"},{"type":"function","name":"pendingAdmin","inputs":[],"outputs":[{"name":"","type":"address","internalType":"address"}],"stateMutability":"view"},{"type":"function","name":"pendingFee","inputs":[{"name":"ilk","type":"bytes32","internalType":"bytes32"}],"outputs":[{"name":"","type":"uint256","internalType":"uint256"}],"stateMutability":"view"},{"type":"function","name":"registry","inputs":[],"outputs":[{"name":"","type":"address","internalType":"contract ICollateralRegistry"}],"stateMutability":"view"},{"type":"function","name":"repayGUSD","inputs":[{"name":"ilk","type":"bytes32","internalType":"bytes32"},{"name":"amount","type":"uint256","internalType":"uint256"}],"outputs":[],"stateMutability":"nonpayable"},{"type":"function","name":"setDAppRecipient","inputs":[{"name":"_recipient","type":"address","internalType":"address"}],"outputs":[],"stateMutability":"nonpayable"},{"type":"function","name":"setPaused","inputs":[{"name":"_paused","type":"bool","internalType":"bool"}],"outputs":[],"stateMutability":"nonpayable"},{"type":"function","name":"setStabilityPool","inputs":[{"name":"_pool","type":"address","internalType":"address"}],"outputs":[],"stateMutability":"nonpayable"},{"type":"function","name":"stabilityPool","inputs":[],"outputs":[{"name":"","type":"address","internalType":"contract IStabilityPool"}],"stateMutability":"view"},{"type":"function","name":"transferAdmin","inputs":[{"name":"newAdmin","type":"address","internalType":"address"}],"outputs":[],"stateMutability":"nonpayable"},{"type":"function","name":"vaultDebt","inputs":[{"name":"ilk","type":"bytes32","internalType":"bytes32"},{"name":"owner","type":"address","internalType":"address"}],"outputs":[{"name":"","type":"uint256","internalType":"uint256"}],"stateMutability":"view"},{"type":"function","name":"vaults","inputs":[{"name":"","type":"bytes32","internalType":"bytes32"},{"name":"","type":"address","internalType":"address"}],"outputs":[{"name":"collateral","type":"uint256","internalType":"uint256"},{"name":"normalizedDebt","type":"uint256","internalType":"uint256"}],"stateMutability":"view"},{"type":"function","name":"withdrawCollateral","inputs":[{"name":"ilk","type":"bytes32","internalType":"bytes32"},{"name":"amount","type":"uint256","internalType":"uint256"}],"outputs":[],"stateMutability":"nonpayable"},{"type":"event","name":"AdminTransferProposed","inputs":[{"name":"currentAdmin","type":"address","indexed":true,"internalType":"address"},{"name":"pendingAdmin","type":"address","indexed":true,"internalType":"address"}],"anonymous":false},{"type":"event","name":"AdminTransferred","inputs":[{"name":"previousAdmin","type":"address","indexed":true,"internalType":"address"},{"name":"newAdmin","type":"address","indexed":true,"internalType":"address"}],"anonymous":false},{"type":"event","name":"CollateralDeposited","inputs":[{"name":"owner","type":"address","indexed":true,"internalType":"address"},{"name":"ilk","type":"bytes32","indexed":true,"internalType":"bytes32"},{"name":"amount","type":"uint256","indexed":false,"internalType":"uint256"}],"anonymous":false},{"type":"event","name":"CollateralWithdrawn","inputs":[{"name":"owner","type":"address","indexed":true,"internalType":"address"},{"name":"ilk","type":"bytes32","indexed":true,"internalType":"bytes32"},{"name":"amount","type":"uint256","indexed":false,"internalType":"uint256"}],"anonymous":false},{"type":"event","name":"Drip","inputs":[{"name":"ilk","type":"bytes32","indexed":true,"internalType":"bytes32"},{"name":"newChi","type":"uint256","indexed":false,"internalType":"uint256"},{"name":"feeAccrued","type":"uint256","indexed":false,"internalType":"uint256"}],"anonymous":false},{"type":"event","name":"FeeCollected","inputs":[{"name":"ilk","type":"bytes32","indexed":true,"internalType":"bytes32"},{"name":"feeGUSD","type":"uint256","indexed":false,"internalType":"uint256"}],"anonymous":false},{"type":"event","name":"GUSDMinted","inputs":[{"name":"owner","type":"address","indexed":true,"internalType":"address"},{"name":"ilk","type":"bytes32","indexed":true,"internalType":"bytes32"},{"name":"amount","type":"uint256","indexed":false,"internalType":"uint256"}],"anonymous":false},{"type":"event","name":"GUSDRepaid","inputs":[{"name":"owner","type":"address","indexed":true,"internalType":"address"},{"name":"ilk","type":"bytes32","indexed":true,"internalType":"bytes32"},{"name":"amount","type":"uint256","indexed":false,"internalType":"uint256"}],"anonymous":false},{"type":"event","name":"StabilityPoolSet","inputs":[{"name":"pool","type":"address","indexed":false,"internalType":"address"}],"anonymous":false},{"type":"event","name":"VaultClosed","inputs":[{"name":"owner","type":"address","indexed":true,"internalType":"address"},{"name":"ilk","type":"bytes32","indexed":true,"internalType":"bytes32"}],"anonymous":false},{"type":"event","name":"VaultLiquidated","inputs":[{"name":"liquidator","type":"address","indexed":true,"internalType":"address"},{"name":"owner","type":"address","indexed":true,"internalType":"address"},{"name":"ilk","type":"bytes32","indexed":true,"internalType":"bytes32"},{"name":"debtRepaid","type":"uint256","indexed":false,"internalType":"uint256"},{"name":"collSeized","type":"uint256","indexed":false,"internalType":"uint256"}],"anonymous":false},{"type":"event","name":"VaultOpened","inputs":[{"name":"owner","type":"address","indexed":true,"internalType":"address"},{"name":"ilk","type":"bytes32","indexed":true,"internalType":"bytes32"}],"anonymous":false}],"bytecode":{"object":"0x6101003461032a57601f612ea038819003918201601f19168301916001600160401b0383118484101761032e5780849260c09460405283398101031261032a5761004881610342565b61005460208301610342565b9161006160408201610342565b61006d60608301610342565b9061008660a061007f60808601610342565b9401610342565b60016007556001600160a01b039094169485156102f5576001600160a01b03169081156102bc576001600160a01b0316918215610285576001600160a01b031692831561024c576001600160a01b0316938415610207576001600160a01b03169485156101d15760805260a05260c05260e05260018060a01b0319600354161760035560018060a01b03196001541617600155604051612b49908161035782396080518181816104f601528181610b2801528181610f0201528181611354015281816116ee0152611eb5015260a0518181816101b50152818161039401528181610626015281816108c301528181610c3201528181610d0b0152818161123601528181611c3201528181611e16015281816122f401526126e0015260c051818181610bed0152818161234a0152612736015260e051818181611126015281816119c30152611f2a0152f35b60405162461bcd60e51b815260206004820152600e60248201526d2b269d103d32b9379030b236b4b760911b6044820152606490fd5b60405162461bcd60e51b815260206004820152601760248201527f564d3a207a65726f206441707020726563697069656e740000000000000000006044820152606490fd5b60405162461bcd60e51b81526020600482015260116024820152702b269d103d32b9379039b83634ba3a32b960791b6044820152606490fd5b60405162461bcd60e51b815260206004820152600f60248201526e564d3a207a65726f206f7261636c6560881b6044820152606490fd5b60405162461bcd60e51b8152602060048201526011602482015270564d3a207a65726f20726567697374727960781b6044820152606490fd5b60405162461bcd60e51b815260206004820152600d60248201526c15934e881e995c9bc819d554d1609a1b6044820152606490fd5b5f80fd5b634e487b7160e01b5f52604160045260245ffd5b51906001600160a01b038216820361032a5756fe6080806040526004361015610012575f80fd5b5f905f3560e01c90816303ac45831461194d57508063048c661d14611926578063050296e9146119085780630e18b6811461185c57806316c38b3c1461180a5780631c5d3796146115d857806326782247146115af5780632e5f62a0146115855780633363b7d91461154357806344e2a5a8146115235780634627e7c0146114d5578063468c9bd1146111d05780634afa3af7146111a1578063552033c41461117b5780635c975abb146111555780636052970c146111105780636a146024146110ed57806375829def1461106d578063771b51d214610c615780637b10399914610c1c5780637dc0d1d014610bd757806381845f6314610b575780638c87ee9014610b1257806393991a9314610ae957806398d721e014610a69578063a1e9348214610827578063abaf0042146107c9578063dea9b464146105c9578063e0537cee14610295578063f851a4401461026c5763fab9bd5e14610173575f80fd5b346102695760203660031901126102695760043561019960ff60035460a01c16156121bf565b604051636dd5b69d60e01b81526004810182905260c0816024817f00000000000000000000000000000000000000000000000000000000000000006001600160a01b03165afa90811561025e576101fe9160a091859161022f575b5001511515612236565b61020781611dcf565b337f1b3a3b641448ea38df4f27c3b71159ff387dfd96db4bfa0678a500dff874eb618380a380f35b610251915060c03d60c011610257575b6102498183611ae3565b810190611b41565b5f6101f4565b503d61023f565b6040513d85823e3d90fd5b80fd5b50346102695780600319360112610269576001546040516001600160a01b039091168152602090f35b5034610269576020366003190112610269576004356102b8600160075414611d49565b60026007556102cf60ff60035460a01c16156121bf565b6102d881611dcf565b808252600460209081526040808420335f908152908352819020838552600590925283208054806105c35750676765c793fa10079d601b1b905b6001830190815492676765c793fa10079d601b1b6103308286611bc8565b049387856104bb575b94505050505081549182610377575b5082337f45741dfe35116d540a34618f113e41a5092e64d6b09a503ede64ff9058a0e6058380a3600160075580f35b55604051636dd5b69d60e01b81526004810183905260c0816024817f00000000000000000000000000000000000000000000000000000000000000006001600160a01b03165afa90811561049157849161049c575b505160405163a9059cbb60e01b81523360048201526024810183905291906020908390604490829088906001600160a01b03165af18015610491578392859161044e575b5061041a90612492565b6040519081527fe69cdf29a59dd324317b598bee3a9ed1fcffb99cc506db72633ed07b59dc6d0460203392a35f8281610348565b9250506020823d602011610489575b8161046a60209383611ae3565b810103126104855761041a61047f8493611b34565b90610410565b8380fd5b3d915061045d565b6040513d86823e3d90fd5b6104b5915060c03d60c011610257576102498183611ae3565b5f6103cc565b676765c793fa10079d601b1b946104da60026104e39601938454611bbb565b83555554611bc8565b84865260066020526040862091900490557f00000000000000000000000000000000000000000000000000000000000000006001600160a01b031690813b156105bf5760405163079cc67960e41b81523360048201526024810182905291859081908490604490829084905af19283156105b2578593610597575b50506040519081527f8293a3003da468402b46b778420ac0fa8c2291bed4eeb36f56768a9d2220be7660203392a35f8080808087610339565b81929350906105a591611ae3565b610485578290845f61055e565b50604051903d90823e3d90fd5b8480fd5b90610312565b5034610269576105d836611acd565b6105e6600160075414611d49565b60026007556105fd60ff60035460a01c16156121bf565b6106088115156121f8565b604051636dd5b69d60e01b815260048101839052839060c0816024817f00000000000000000000000000000000000000000000000000000000000000006001600160a01b03165afa80156107be57602091839161079f575b5061067060a08201511515612236565b61067985611dcf565b516040516323b872dd60e01b81523360048201523060248201526044810185905292839160649183916001600160a01b03165af1908115610491578491610765575b50156107205781835260046020526040832060018060a01b0333165f5260205260405f206106ea828254611dc2565b90556040519081527f88df26d296ecbf594c8609f433503d1436d24afe03c0d9e5e29c8f6ed92ef9b460203392a3600160075580f35b60405162461bcd60e51b815260206004820152601e60248201527f564d3a20636f6c6c61746572616c207472616e73666572206661696c656400006044820152606490fd5b90506020813d602011610797575b8161078060209383611ae3565b810103126104855761079190611b34565b5f6106bb565b3d9150610773565b6107b8915060c03d60c011610257576102498183611ae3565b5f610660565b6040513d84823e3d90fd5b5034610269576020366003190112610269576107e3611ab7565b6107f860018060a01b03600154163314611d0d565b6001600160a01b031661080c811515612453565b6bffffffffffffffffffffffff60a01b600354161760035580f35b50346102695761083636611acd565b610844600160075414611d49565b600260075561085b60ff60035460a01c16156121bf565b6108668115156121f8565b61086f82611dcf565b818352600460209081526040808520335f908152925290208054828110610a24578261089a91611bbb565b815560018101546109d4575b50604051636dd5b69d60e01b81526004810183905260c0816024817f00000000000000000000000000000000000000000000000000000000000000006001600160a01b03165afa9081156104915784916109b5575b505160405163a9059cbb60e01b815233600482015260248101839052906020908290604490829088906001600160a01b03165af1801561049157849061097a575b6109469150612492565b6040519081527fe69cdf29a59dd324317b598bee3a9ed1fcffb99cc506db72633ed07b59dc6d0460203392a3600160075580f35b506020813d6020116109ad575b8161099460209383611ae3565b81010312610485576109a861094691611b34565b61093c565b3d9150610987565b6109ce915060c03d60c011610257576102498183611ae3565b5f6108fb565b6109de9083612683565b156109e9575f6108a6565b60405162461bcd60e51b8152602060048201526013602482015272564d3a207661756c7420756e6865616c74687960681b6044820152606490fd5b60405162461bcd60e51b815260206004820152601b60248201527f564d3a20696e73756666696369656e7420636f6c6c61746572616c00000000006044820152606490fd5b5034610269576020366003190112610269577f51f43ead43c9a90d53ec229fbf48feb76b24efa7a147089ad9ed34ad384a94d36020610aa6611ab7565b610abb60018060a01b03600154163314611d0d565b6001600160a01b0316610acf811515612453565b83546001600160a01b03191681178455604051908152a180f35b50346102695780600319360112610269576003546040516001600160a01b039091168152602090f35b50346102695780600319360112610269576040517f00000000000000000000000000000000000000000000000000000000000000006001600160a01b03168152602090f35b503461026957604036600319011261026957676765c793fa10079d601b1b610bc560209260043590610b87611aa1565b8282526004865260408083206001600160a01b039092165f908152918752908190209282526005865290205480610bce5750600183915b0154611bc8565b04604051908152f35b60019091610bbe565b50346102695780600319360112610269576040517f00000000000000000000000000000000000000000000000000000000000000006001600160a01b03168152602090f35b50346102695780600319360112610269576040517f00000000000000000000000000000000000000000000000000000000000000006001600160a01b03168152602090f35b503461026957604036600319011261026957600435610c7e611aa1565b610c8c600160075414611d49565b6002600755610ca360ff60035460a01c16156121bf565b6001600160a01b0316801561103757610cbb82611dcf565b818352600460205260408320815f5260205260405f2060018101908154908115610ffa57610ce98186612683565b610fbe57604051636dd5b69d60e01b815260048101869052869160c0826024817f00000000000000000000000000000000000000000000000000000000000000006001600160a01b03165afa91821561025e578392610f8c575b50610d99676765c793fa10079d601b1b918885526005602052604085209585875480155f14610f86575084925b8186610d7c8686611bc8565b049a610d8f600284549c01958654611bbb565b8555555554611bc8565b8784526006602052604084209190049055516001600160a01b0316610dcf610dd6610dc683898789612940565b86939193611bbb565b9186611bbb565b80610f00575b5080610e1f575b50505060405191825260208201527f4ecef300dc49115373f12d5ca31f017d1104f91d9fefeda602a1c42550af910960403392a4600160075580f35b60405163a9059cbb60e01b815233600482015260248101919091529160209183916044918391905af1908115610ef5578691610eb7575b5015610e6457845f80610de3565b60405162461bcd60e51b815260206004820152602560248201527f564d3a206c697175696461746f7220636f6c6c61746572616c2073656e642066604482015264185a5b195960da1b6064820152608490fd5b90506020813d602011610eed575b81610ed260209383611ae3565b81010312610ee957610ee390611b34565b5f610e56565b8580fd5b3d9150610ec5565b6040513d88823e3d90fd5b7f00000000000000000000000000000000000000000000000000000000000000006001600160a01b0316803b156105bf5760405163079cc67960e41b8152336004820152602481019290925284908290604490829084905af1908115610491578491610f6d575b50610ddc565b81610f7791611ae3565b610f8257825f610f67565b8280fd5b92610d70565b676765c793fa10079d601b1b919250610fb6610d999160c03d60c011610257576102498183611ae3565b929150610d43565b60405162461bcd60e51b8152602060048201526014602482015273564d3a207661756c74206973206865616c74687960601b6044820152606490fd5b60405162461bcd60e51b815260206004820152601560248201527415934e881d985d5b1d081a185cc81b9bc81919589d605a1b6044820152606490fd5b60405162461bcd60e51b815260206004820152600e60248201526d2b269d103d32b9379037bbb732b960911b6044820152606490fd5b503461026957602036600319011261026957611087611ab7565b6001546001600160a01b03169061109f338314611d0d565b6001600160a01b0316906110b4821515612453565b600280546001600160a01b031916831790557fc02afc35b5d9b88807390ad5b17e685602c17339aa880db1dfe4e15cb3e2e3a18380a380f35b50346102695780600319360112610269576020604051670de0b6b3a76400008152f35b50346102695780600319360112610269576040517f00000000000000000000000000000000000000000000000000000000000000006001600160a01b03168152602090f35b5034610269578060031936011261026957602060ff60035460a01c166040519015158152f35b50346102695780600319360112610269576020604051676765c793fa10079d601b1b8152f35b50346102695760403660031901126102695760206111c86111c0611aa1565b600435612277565b604051908152f35b5034610269576111df36611acd565b6111ed600160075414611d49565b600260075561120460ff60035460a01c16156121bf565b801561121081156121f8565b61121983611dcf565b604051636dd5b69d60e01b8152600481018490529060c0826024817f00000000000000000000000000000000000000000000000000000000000000006001600160a01b03165afa9182156114ca5785926114a9575b5061127e60a08301511515612236565b83855260056020526040852090815480155f146114a35750676765c793fa10079d601b1b905b676765c793fa10079d601b1b850290858204676765c793fa10079d601b1b14171561148f5761132b826112e5606094676765c793fa10079d601b1b94611bdb565b888a52600460205260408a2060018060a01b0333165f52602052611323600260405f209760018901611318858254611dc2565b905501918254611dc2565b809155611bc8565b04920151821161144a5761134c918486526006602052604086205583612683565b1561140557827f00000000000000000000000000000000000000000000000000000000000000006001600160a01b0316803b15611401576040516340c10f1960e01b8152336004820152602481018490529082908290604490829084905af180156107be576113ec575b50506040519081527f7ee657a21ac7f39b81c23a6f713ab60c53f4c04479e9a7847c08e2bc69862e8060203392a3600160075580f35b816113f691611ae3565b610f8257825f6113b6565b5080fd5b60405162461bcd60e51b815260206004820152601c60248201527f564d3a20636f6c6c61746572616c20726174696f20746f6f206c6f77000000006044820152606490fd5b60405162461bcd60e51b815260206004820152601960248201527f564d3a2064656274206365696c696e67206578636565646564000000000000006044820152606490fd5b634e487b7160e01b87526011600452602487fd5b906112a4565b6114c391925060c03d60c011610257576102498183611ae3565b905f61126e565b6040513d87823e3d90fd5b50346102695760403660031901126102695760406114f1611aa1565b9160043581526004602052209060018060a01b03165f526020526040805f206001815491015482519182526020820152f35b503461026957602036600319011261026957611540600435611dcf565b80f35b50346102695760203660031901126102695760406060916004358152600560205220805490600260018201549101549060405192835260208301526040820152f35b50346102695760203660031901126102695760406020916004358152600683522054604051908152f35b50346102695780600319360112610269576002546040516001600160a01b039091168152602090f35b503461179d576115e736611acd565b6115f5600160075414611d49565b60026007558061160483611dcf565b825f52600460205260405f2060018060a01b0333165f5260205260405f20835f52600560205260405f2090815480155f1461180157506001676765c793fa10079d601b1b915b0192835490676765c793fa10079d601b1b6116658484611bc8565b048091116117f9575b5084156117bd57676765c793fa10079d601b1b850292858404676765c793fa10079d601b1b036117a957676765c793fa10079d601b1b946116b2846116d796611bdb565b928084116117a1575b916002916116cc8561132395611bbb565b905501918254611bbb565b04825f52600660205260405f205560018060a01b037f000000000000000000000000000000000000000000000000000000000000000016803b1561179d5760405163079cc67960e41b815233600482015260248101839052905f908290604490829084905af180156117925761177d575b506040519081527f8293a3003da468402b46b778420ac0fa8c2291bed4eeb36f56768a9d2220be7660203392a3600160075580f35b61178a9193505f90611ae3565b5f915f611748565b6040513d5f823e3d90fd5b5f80fd5b9250826116bb565b634e487b7160e01b5f52601160045260245ffd5b60405162461bcd60e51b8152602060048201526014602482015273564d3a206e6f7468696e6720746f20726570617960601b6044820152606490fd5b94505f61166e565b6001909161164a565b3461179d57602036600319011261179d5760043580151580910361179d5761183d60018060a01b03600154163314611d0d565b6003805460ff60a01b191660a09290921b60ff60a01b16919091179055005b3461179d575f36600319011261179d576002546001600160a01b03811690338290036118cb57600180546001600160a01b0319808216851790925591166002556001600160a01b03167ff8ccb027dfcd135e000e9d45e6cc2d662578a8825d4c45b5e32e0adf67e79ec65f80a3005b60405162461bcd60e51b81526020600482015260156024820152742b269d103737ba103832b73234b7339030b236b4b760591b6044820152606490fd5b3461179d57602036600319011261179d5760206111c8600435611bf9565b3461179d575f36600319011261179d575f546040516001600160a01b039091168152602090f35b3461179d57608036600319011261179d57611966611aa1565b90604435906001600160a01b038216820361179d57303303611a6f57604051636955c83f60e11b815260048035908201526001600160a01b038085166024830152831660448201526064803590820152606081806084810103815f7f00000000000000000000000000000000000000000000000000000000000000006001600160a01b03165af19081611a40575b50611a3e5760405162461bcd60e51b815260206004820152601f60248201527f456e68616e63656420747261636b696e67206e6f7420737570706f72746564006044820152606490fd5b005b611a619060603d606011611a68575b611a598183611ae3565b810190611b19565b50506119f4565b503d611a4f565b62461bcd60e51b815260206004820152600d60248201526c2b269d1037b7363c9039b2b63360991b6044820152606490fd5b602435906001600160a01b038216820361179d57565b600435906001600160a01b038216820361179d57565b604090600319011261179d576004359060243590565b90601f8019910116810190811067ffffffffffffffff821117611b0557604052565b634e487b7160e01b5f52604160045260245ffd5b9081606091031261179d578051916040602083015192015190565b5190811515820361179d57565b908160c091031261179d576040519060c0820182811067ffffffffffffffff821117611b055760405280516001600160a01b038116810361179d57611bb39160a09184526020810151602085015260408101516040850152606081015160608501526080810151608085015201611b34565b60a082015290565b919082039182116117a957565b818102929181159184041417156117a957565b8115611be5570490565b634e487b7160e01b5f52601260045260245ffd5b805f52600560205260405f2080549182158015611d01575b611cd357604051636dd5b69d60e01b8152600481019190915260c0816024817f00000000000000000000000000000000000000000000000000000000000000006001600160a01b03165afa908115611792575f91611ce2575b50611c79600183015442611bbb565b8015611cda57611c9c611ca2916080676765c793fa10079d601b1b94015161251a565b84611bc8565b049082821115611cd3576002611cc7676765c793fa10079d601b1b94611ccf94611bbb565b910154611bc8565b0490565b5050505f90565b505050505f90565b611cfb915060c03d60c011610257576102498183611ae3565b5f611c6a565b50600282015415611c11565b15611d1457565b60405162461bcd60e51b815260206004820152600d60248201526c2b269d103737ba1030b236b4b760991b6044820152606490fd5b15611d5057565b60405162461bcd60e51b81526020600482015260096024820152681499595b9d1c985b9d60ba1b6044820152606490fd5b15611d8857565b60405162461bcd60e51b815260206004820152601260248201527115934e88185c1c1c9bdd994819985a5b195960721b6044820152606490fd5b919082018092116117a957565b5f815f52600560205260405f20908154156121a65760018201611df3815442611bbb565b801561219f57604051636dd5b69d60e01b8152600481018690529060c0826024817f00000000000000000000000000000000000000000000000000000000000000006001600160a01b03165afa91821561179257611e5d926080915f91612180575b50015161251a565b92676765c793fa10079d601b1b611e7682549586611bc8565b04938085111561217657916002611eab92611e9d676765c793fa10079d601b1b9588611bbb565b928782554290550154611bc8565b04908115612142577f00000000000000000000000000000000000000000000000000000000000000006001600160a01b0316803b1561179d576040516340c10f1960e01b8152306004820152602481018490525f8160448183865af180156117925761212d575b5060405163095ea7b360e01b81526001600160a01b037f0000000000000000000000000000000000000000000000000000000000000000166004820181905260248201859052919060208160448187865af180156104915784906120f2575b611f7b9150611d81565b6003546001600160a01b0316303b15610485576040516303ac458360e01b8152600481018690526001600160a01b03918216602482015290821660448201526064810187905283808260848183305af191826120dd575b50506120af57606090606460018060a01b0360035416856040519586948593633e5a775160e11b85528a6004860152602485015260448401525af180156107be577f3b9f4ab0566d9d10726a6f7f34cdc9e4b7f03a20a878ed293de4e6ed1b4198589492604094928592612090575b505b868152600660205220612057828254611dc2565b9055847f156e588d1067ba3c8a6a7f4376ef70794f8afed114dc9d1421e054b65743e63060208551848152a282519182526020820152a2565b6120a89060603d606011611a6857611a598183611ae3565b5050612041565b505091604091827f3b9f4ab0566d9d10726a6f7f34cdc9e4b7f03a20a878ed293de4e6ed1b41985894612043565b816120e791611ae3565b61048557835f611fd2565b506020813d602011612125575b8161210c60209383611ae3565b8101031261048557612120611f7b91611b34565b611f71565b3d91506120ff565b61213a9192505f90611ae3565b5f905f611f12565b505060407f3b9f4ab0566d9d10726a6f7f34cdc9e4b7f03a20a878ed293de4e6ed1b4198589181519081525f6020820152a2565b5050429055505050565b612199915060c03d60c011610257576102498183611ae3565b5f611e55565b5050505050565b509050676765c793fa10079d601b1b8155600142910155565b156121c657565b60405162461bcd60e51b815260206004820152600a60248201526915934e881c185d5cd95960b21b6044820152606490fd5b156121ff57565b60405162461bcd60e51b815260206004820152600f60248201526e15934e881e995c9bc8185b5bdd5b9d608a1b6044820152606490fd5b1561223d57565b60405162461bcd60e51b8152602060048201526012602482015271564d3a20696c6b206e6f742061637469766560701b6044820152606490fd5b90815f52600460205260405f209060018060a01b03165f5260205260405f209060018201548015612445576122cf676765c793fa10079d601b1b91835f52600560205260405f205480155f1461244d57508290611bc8565b0490811561244557604051636dd5b69d60e01b8152600481018290529260c0846024817f00000000000000000000000000000000000000000000000000000000000000006001600160a01b03165afa938415611792575f94612424575b506040516331d98b3f60e01b815260048101929092526020826024817f00000000000000000000000000000000000000000000000000000000000000006001600160a01b03165afa918215611792575f926123ed575b509160206123a96123b293670de0b6b3a764000095549060018060a01b038851169161284e565b94015190611bc8565b0480156123e657670de0b6b3a7640000820291808304670de0b6b3a764000014901517156117a9576123e391611bdb565b90565b50505f1990565b9150916020823d60201161241c575b8161240960209383611ae3565b8101031261179d57905190916020612382565b3d91506123fc565b61243e91945060c03d60c011610257576102498183611ae3565b925f61232c565b5050505f1990565b90611bc8565b1561245a57565b60405162461bcd60e51b815260206004820152601060248201526f564d3a207a65726f206164647265737360801b6044820152606490fd5b1561249957565b60405162461bcd60e51b815260206004820152601a60248201527f564d3a20636f6c6c61746572616c2073656e64206661696c65640000000000006044820152606490fd5b156124e557565b60405162461bcd60e51b815260206004820152600d60248201526c72706f772f6f766572666c6f7760981b6044820152606490fd5b9190915f90801561266657600184161561265557805b9360011c90815b61254057505050565b61255e61254d8280611bc8565b918015908115612642575b506124de565b6b019d971e4fe8401e7400000081019081811161262e57612581908210156124de565b8261261a57676765c793fa10079d601b1b90049081600182166125aa575b5060011c9081612537565b8593506125bb816125cd9397611bc8565b938115918215612606575b50506124de565b6b019d971e4fe8401e740000008201918281116117a9576125f0908310156124de565b676765c793fa10079d601b1b5f9204935f61259f565b61261291925085611bdb565b145f806125c6565b634e487b7160e01b83526012600452602483fd5b634e487b7160e01b84526011600452602484fd5b905061264e8184611bdb565b145f612558565b676765c793fa10079d601b1b612530565b505090155f1461267f57676765c793fa10079d601b1b90565b5f90565b60018201548015612835576126bb676765c793fa10079d601b1b91835f52600560205260405f205480155f1461244d57508290611bc8565b0490811561283557604051636dd5b69d60e01b8152600481018290529260c0846024817f00000000000000000000000000000000000000000000000000000000000000006001600160a01b03165afa938415611792575f94612814575b506040516331d98b3f60e01b815260048101929092526020826024817f00000000000000000000000000000000000000000000000000000000000000006001600160a01b03165afa918215611792575f926127dd575b509160206123a961279593670de0b6b3a764000095549060018060a01b038851169161284e565b049081156127d657670de0b6b3a7640000810290808204670de0b6b3a764000014901517156117a957670de0b6b3a7640000916127d191611bdb565b101590565b5050600190565b9150916020823d60201161280c575b816127f960209383611ae3565b8101031261179d5790519091602061276e565b3d91506127ec565b61282e91945060c03d60c011610257576102498183611ae3565b925f612718565b505050600190565b60ff16604d81116117a957600a0a90565b60405163313ce56760e01b81529192909190602090829060049082906001600160a01b03165afa8015611792575f90612903575b60ff16905060128110156128ba576012039160ff83116117a9576128b5611ccf9261244d670de0b6b3a76400009561283d565b611bc8565b60128111156128ef57601119019160ff83116117a9576128b5611ccf926128e9670de0b6b3a76400009561283d565b90611bdb565b50670de0b6b3a764000091611ccf91611bc8565b506020813d602011612938575b8161291d60209383611ae3565b8101031261179d575160ff8116810361179d5760ff90612882565b3d9150612910565b5f8054929590949093926001600160a01b03168015612b0757604051637d88209760e01b8152602081600481855afa908115611792575f91612ad5575b508015612ac85780841015612ac25750825b839781612aa5575b50508580151580612a9c575b6129ae575050505050565b60405163095ea7b360e01b81526001600160a01b0390921660048301526024820152906020908290815f816044810103926001600160a01b03165af18015611792575f90612a61575b612a019150611d81565b5f546001600160a01b031691823b1561179d5760645f9283604051958694859363742f9e7160e01b8552600485015260248401528860448401525af1801561179257612a51575b8080808561219f565b5f612a5b91611ae3565b5f612a48565b506020813d602011612a94575b81612a7b60209383611ae3565b8101031261179d57612a8f612a0191611b34565b6129f7565b3d9150612a6e565b508315156129a3565b612aba92975084612ab591611bc8565b611bdb565b945f80612997565b9261298f565b505f965086955050505050565b90506020813d602011612aff575b81612af060209383611ae3565b8101031261179d57515f61297d565b3d9150612ae3565b505f955085945050505056fea264697066735822122020b496c936868071253252538eff4e7ba538fb8c3eff4aeb491bd677023587e064736f6c63430008210033","linkReferences":{}},"methodIdentifiers":{"RAY()":"552033c4","WAD()":"6a146024","_callStabilityFeeTracking(uint256,address,address,bytes32)":"03ac4583","acceptAdmin()":"0e18b681","accumulators(bytes32)":"3363b7d9","admin()":"f851a440","closeVault(bytes32)":"e0537cee","dAppRecipient()":"93991a93","depositCollateral(bytes32,uint256)":"dea9b464","drip(bytes32)":"44e2a5a8","feeSplitter()":"6052970c","gusd()":"8c87ee90","healthFactor(bytes32,address)":"4afa3af7","ilkDebt(bytes32)":"2e5f62a0","liquidate(bytes32,address)":"771b51d2","mintGUSD(bytes32,uint256)":"468c9bd1","openVault(bytes32)":"fab9bd5e","oracle()":"7dc0d1d0","paused()":"5c975abb","pendingAdmin()":"26782247","pendingFee(bytes32)":"050296e9","registry()":"7b103999","repayGUSD(bytes32,uint256)":"1c5d3796","setDAppRecipient(address)":"abaf0042","setPaused(bool)":"16c38b3c","setStabilityPool(address)":"98d721e0","stabilityPool()":"048c661d","transferAdmin(address)":"75829def","vaultDebt(bytes32,address)":"81845f63","vaults(bytes32,address)":"4627e7c0","withdrawCollateral(bytes32,uint256)":"a1e93482"},"id":76}