{"abi":[{"type":"constructor","inputs":[{"name":"_gusd","type":"address","internalType":"address"},{"name":"_registry","type":"address","internalType":"address"},{"name":"_oracle","type":"address","internalType":"address"},{"name":"_feeSplitter","type":"address","internalType":"address"},{"name":"_dAppRecipient","type":"address","internalType":"address"},{"name":"_admin","type":"address","internalType":"address"}],"stateMutability":"nonpayable"},{"type":"function","name":"RAY","inputs":[],"outputs":[{"name":"","type":"uint256","internalType":"uint256"}],"stateMutability":"view"},{"type":"function","name":"WAD","inputs":[],"outputs":[{"name":"","type":"uint256","internalType":"uint256"}],"stateMutability":"view"},{"type":"function","name":"_callStabilityFeeTracking","inputs":[{"name":"feeWAD","type":"uint256","internalType":"uint256"},{"name":"_dAppRecipient","type":"address","internalType":"address"},{"name":"token","type":"address","internalType":"address"},{"name":"ilk","type":"bytes32","internalType":"bytes32"}],"outputs":[],"stateMutability":"nonpayable"},{"type":"function","name":"accumulators","inputs":[{"name":"","type":"bytes32","internalType":"bytes32"}],"outputs":[{"name":"chi","type":"uint256","internalType":"uint256"},{"name":"lastDrip","type":"uint256","internalType":"uint256"},{"name":"totalNormalizedDebt","type":"uint256","internalType":"uint256"}],"stateMutability":"view"},{"type":"function","name":"admin","inputs":[],"outputs":[{"name":"","type":"address","internalType":"address"}],"stateMutability":"view"},{"type":"function","name":"closeVault","inputs":[{"name":"ilk","type":"bytes32","internalType":"bytes32"}],"outputs":[],"stateMutability":"nonpayable"},{"type":"function","name":"dAppRecipient","inputs":[],"outputs":[{"name":"","type":"address","internalType":"address"}],"stateMutability":"view"},{"type":"function","name":"depositCollateral","inputs":[{"name":"ilk","type":"bytes32","internalType":"bytes32"},{"name":"amount","type":"uint256","internalType":"uint256"}],"outputs":[],"stateMutability":"nonpayable"},{"type":"function","name":"drip","inputs":[{"name":"ilk","type":"bytes32","internalType":"bytes32"}],"outputs":[],"stateMutability":"nonpayable"},{"type":"function","name":"feeSplitter","inputs":[],"outputs":[{"name":"","type":"address","internalType":"contract IUBIFeeSplitter"}],"stateMutability":"view"},{"type":"function","name":"gusd","inputs":[],"outputs":[{"name":"","type":"address","internalType":"contract IgUSD"}],"stateMutability":"view"},{"type":"function","name":"healthFactor","inputs":[{"name":"ilk","type":"bytes32","internalType":"bytes32"},{"name":"owner","type":"address","internalType":"address"}],"outputs":[{"name":"","type":"uint256","internalType":"uint256"}],"stateMutability":"view"},{"type":"function","name":"ilkDebt","inputs":[{"name":"","type":"bytes32","internalType":"bytes32"}],"outputs":[{"name":"","type":"uint256","internalType":"uint256"}],"stateMutability":"view"},{"type":"function","name":"liquidate","inputs":[{"name":"ilk","type":"bytes32","internalType":"bytes32"},{"name":"owner","type":"address","internalType":"address"}],"outputs":[],"stateMutability":"nonpayable"},{"type":"function","name":"mintGUSD","inputs":[{"name":"ilk","type":"bytes32","internalType":"bytes32"},{"name":"amount","type":"uint256","internalType":"uint256"}],"outputs":[],"stateMutability":"nonpayable"},{"type":"function","name":"openVault","inputs":[{"name":"ilk","type":"bytes32","internalType":"bytes32"}],"outputs":[],"stateMutability":"nonpayable"},{"type":"function","name":"oracle","inputs":[],"outputs":[{"name":"","type":"address","internalType":"contract IPriceOracle"}],"stateMutability":"view"},{"type":"function","name":"paused","inputs":[],"outputs":[{"name":"","type":"bool","internalType":"bool"}],"stateMutability":"view"},{"type":"function","name":"pendingFee","inputs":[{"name":"ilk","type":"bytes32","internalType":"bytes32"}],"outputs":[{"name":"","type":"uint256","internalType":"uint256"}],"stateMutability":"view"},{"type":"function","name":"registry","inputs":[],"outputs":[{"name":"","type":"address","internalType":"contract ICollateralRegistry"}],"stateMutability":"view"},{"type":"function","name":"repayGUSD","inputs":[{"name":"ilk","type":"bytes32","internalType":"bytes32"},{"name":"amount","type":"uint256","internalType":"uint256"}],"outputs":[],"stateMutability":"nonpayable"},{"type":"function","name":"setDAppRecipient","inputs":[{"name":"_recipient","type":"address","internalType":"address"}],"outputs":[],"stateMutability":"nonpayable"},{"type":"function","name":"setPaused","inputs":[{"name":"_paused","type":"bool","internalType":"bool"}],"outputs":[],"stateMutability":"nonpayable"},{"type":"function","name":"setStabilityPool","inputs":[{"name":"_pool","type":"address","internalType":"address"}],"outputs":[],"stateMutability":"nonpayable"},{"type":"function","name":"stabilityPool","inputs":[],"outputs":[{"name":"","type":"address","internalType":"contract IStabilityPool"}],"stateMutability":"view"},{"type":"function","name":"transferAdmin","inputs":[{"name":"newAdmin","type":"address","internalType":"address"}],"outputs":[],"stateMutability":"nonpayable"},{"type":"function","name":"vaultDebt","inputs":[{"name":"ilk","type":"bytes32","internalType":"bytes32"},{"name":"owner","type":"address","internalType":"address"}],"outputs":[{"name":"","type":"uint256","internalType":"uint256"}],"stateMutability":"view"},{"type":"function","name":"vaults","inputs":[{"name":"","type":"bytes32","internalType":"bytes32"},{"name":"","type":"address","internalType":"address"}],"outputs":[{"name":"collateral","type":"uint256","internalType":"uint256"},{"name":"normalizedDebt","type":"uint256","internalType":"uint256"}],"stateMutability":"view"},{"type":"function","name":"withdrawCollateral","inputs":[{"name":"ilk","type":"bytes32","internalType":"bytes32"},{"name":"amount","type":"uint256","internalType":"uint256"}],"outputs":[],"stateMutability":"nonpayable"},{"type":"event","name":"CollateralDeposited","inputs":[{"name":"owner","type":"address","indexed":true,"internalType":"address"},{"name":"ilk","type":"bytes32","indexed":true,"internalType":"bytes32"},{"name":"amount","type":"uint256","indexed":false,"internalType":"uint256"}],"anonymous":false},{"type":"event","name":"CollateralWithdrawn","inputs":[{"name":"owner","type":"address","indexed":true,"internalType":"address"},{"name":"ilk","type":"bytes32","indexed":true,"internalType":"bytes32"},{"name":"amount","type":"uint256","indexed":false,"internalType":"uint256"}],"anonymous":false},{"type":"event","name":"Drip","inputs":[{"name":"ilk","type":"bytes32","indexed":true,"internalType":"bytes32"},{"name":"newChi","type":"uint256","indexed":false,"internalType":"uint256"},{"name":"feeAccrued","type":"uint256","indexed":false,"internalType":"uint256"}],"anonymous":false},{"type":"event","name":"FeeCollected","inputs":[{"name":"ilk","type":"bytes32","indexed":true,"internalType":"bytes32"},{"name":"feeGUSD","type":"uint256","indexed":false,"internalType":"uint256"}],"anonymous":false},{"type":"event","name":"GUSDMinted","inputs":[{"name":"owner","type":"address","indexed":true,"internalType":"address"},{"name":"ilk","type":"bytes32","indexed":true,"internalType":"bytes32"},{"name":"amount","type":"uint256","indexed":false,"internalType":"uint256"}],"anonymous":false},{"type":"event","name":"GUSDRepaid","inputs":[{"name":"owner","type":"address","indexed":true,"internalType":"address"},{"name":"ilk","type":"bytes32","indexed":true,"internalType":"bytes32"},{"name":"amount","type":"uint256","indexed":false,"internalType":"uint256"}],"anonymous":false},{"type":"event","name":"StabilityPoolSet","inputs":[{"name":"pool","type":"address","indexed":false,"internalType":"address"}],"anonymous":false},{"type":"event","name":"VaultClosed","inputs":[{"name":"owner","type":"address","indexed":true,"internalType":"address"},{"name":"ilk","type":"bytes32","indexed":true,"internalType":"bytes32"}],"anonymous":false},{"type":"event","name":"VaultLiquidated","inputs":[{"name":"liquidator","type":"address","indexed":true,"internalType":"address"},{"name":"owner","type":"address","indexed":true,"internalType":"address"},{"name":"ilk","type":"bytes32","indexed":true,"internalType":"bytes32"},{"name":"debtRepaid","type":"uint256","indexed":false,"internalType":"uint256"},{"name":"collSeized","type":"uint256","indexed":false,"internalType":"uint256"}],"anonymous":false},{"type":"event","name":"VaultOpened","inputs":[{"name":"owner","type":"address","indexed":true,"internalType":"address"},{"name":"ilk","type":"bytes32","indexed":true,"internalType":"bytes32"}],"anonymous":false}],"bytecode":{"object":"0x6101003461032a57601f612d2e38819003918201601f19168301916001600160401b0383118484101761032e5780849260c09460405283398101031261032a5761004881610342565b61005460208301610342565b9161006160408201610342565b61006d60608301610342565b9061008660a061007f60808601610342565b9401610342565b60016006556001600160a01b039094169485156102f5576001600160a01b03169081156102bc576001600160a01b0316918215610285576001600160a01b031692831561024c576001600160a01b0316938415610207576001600160a01b03169485156101d15760805260a05260c05260e05260018060a01b0319600254161760025560018060a01b031960015416176001556040516129d7908161035782396080518181816104e001528181610b1201528181610eec01528181611316015281816116870152611d61015260a05181818161019f0152818161037e01528181610610015281816108ad01528181610c1c01528181610cf5015281816111f801528181611b1f01528181611cc201528181612191015261257d015260c051818181610bd7015281816121e701526125d3015260e0518181816110e8015281816118b00152611dd60152f35b60405162461bcd60e51b815260206004820152600e60248201526d2b269d103d32b9379030b236b4b760911b6044820152606490fd5b60405162461bcd60e51b815260206004820152601760248201527f564d3a207a65726f206441707020726563697069656e740000000000000000006044820152606490fd5b60405162461bcd60e51b81526020600482015260116024820152702b269d103d32b9379039b83634ba3a32b960791b6044820152606490fd5b60405162461bcd60e51b815260206004820152600f60248201526e564d3a207a65726f206f7261636c6560881b6044820152606490fd5b60405162461bcd60e51b8152602060048201526011602482015270564d3a207a65726f20726567697374727960781b6044820152606490fd5b60405162461bcd60e51b815260206004820152600d60248201526c15934e881e995c9bc819d554d1609a1b6044820152606490fd5b5f80fd5b634e487b7160e01b5f52604160045260245ffd5b51906001600160a01b038216820361032a5756fe6080806040526004361015610012575f80fd5b5f905f3560e01c90816303ac45831461183a57508063048c661d14611813578063050296e9146117f557806316c38b3c146117a35780631c5d3796146115715780632e5f62a0146115475780633363b7d91461150557806344e2a5a8146114e55780634627e7c014611497578063468c9bd1146111925780634afa3af714611163578063552033c41461113d5780635c975abb146111175780636052970c146110d25780636a146024146110af57806375829def14611057578063771b51d214610c4b5780637b10399914610c065780637dc0d1d014610bc157806381845f6314610b415780638c87ee9014610afc57806393991a9314610ad357806398d721e014610a53578063a1e9348214610811578063abaf0042146107b3578063dea9b464146105b3578063e0537cee1461027f578063f851a440146102565763fab9bd5e1461015d575f80fd5b346102535760203660031901126102535760043561018360ff60025460a01c161561205c565b604051636dd5b69d60e01b81526004810182905260c0816024817f00000000000000000000000000000000000000000000000000000000000000006001600160a01b03165afa908115610248576101e89160a0918591610219575b50015115156120d3565b6101f181611c7b565b337f1b3a3b641448ea38df4f27c3b71159ff387dfd96db4bfa0678a500dff874eb618380a380f35b61023b915060c03d60c011610241575b61023381836119d0565b810190611a2e565b5f6101de565b503d610229565b6040513d85823e3d90fd5b80fd5b50346102535780600319360112610253576001546040516001600160a01b039091168152602090f35b5034610253576020366003190112610253576004356102a2600160065414611c36565b60026006556102b960ff60025460a01c161561205c565b6102c281611c7b565b808252600360209081526040808420335f908152908352819020838552600490925283208054806105ad5750676765c793fa10079d601b1b905b6001830190815492676765c793fa10079d601b1b61031a8286611ab5565b049387856104a5575b94505050505081549182610361575b5082337f45741dfe35116d540a34618f113e41a5092e64d6b09a503ede64ff9058a0e6058380a3600160065580f35b55604051636dd5b69d60e01b81526004810183905260c0816024817f00000000000000000000000000000000000000000000000000000000000000006001600160a01b03165afa90811561047b578491610486575b505160405163a9059cbb60e01b81523360048201526024810183905291906020908390604490829088906001600160a01b03165af1801561047b5783928591610438575b506104049061232f565b6040519081527fe69cdf29a59dd324317b598bee3a9ed1fcffb99cc506db72633ed07b59dc6d0460203392a35f8281610332565b9250506020823d602011610473575b81610454602093836119d0565b8101031261046f576104046104698493611a21565b906103fa565b8380fd5b3d9150610447565b6040513d86823e3d90fd5b61049f915060c03d60c0116102415761023381836119d0565b5f6103b6565b676765c793fa10079d601b1b946104c460026104cd9601938454611aa8565b83555554611ab5565b84865260056020526040862091900490557f00000000000000000000000000000000000000000000000000000000000000006001600160a01b031690813b156105a95760405163079cc67960e41b81523360048201526024810182905291859081908490604490829084905af192831561059c578593610581575b50506040519081527f8293a3003da468402b46b778420ac0fa8c2291bed4eeb36f56768a9d2220be7660203392a35f8080808087610323565b819293509061058f916119d0565b61046f578290845f610548565b50604051903d90823e3d90fd5b8480fd5b906102fc565b5034610253576105c2366119ba565b6105d0600160065414611c36565b60026006556105e760ff60025460a01c161561205c565b6105f2811515612095565b604051636dd5b69d60e01b815260048101839052839060c0816024817f00000000000000000000000000000000000000000000000000000000000000006001600160a01b03165afa80156107a8576020918391610789575b5061065a60a082015115156120d3565b61066385611c7b565b516040516323b872dd60e01b81523360048201523060248201526044810185905292839160649183916001600160a01b03165af190811561047b57849161074f575b501561070a5781835260036020526040832060018060a01b0333165f5260205260405f206106d4828254611c6e565b90556040519081527f88df26d296ecbf594c8609f433503d1436d24afe03c0d9e5e29c8f6ed92ef9b460203392a3600160065580f35b60405162461bcd60e51b815260206004820152601e60248201527f564d3a20636f6c6c61746572616c207472616e73666572206661696c656400006044820152606490fd5b90506020813d602011610781575b8161076a602093836119d0565b8101031261046f5761077b90611a21565b5f6106a5565b3d915061075d565b6107a2915060c03d60c0116102415761023381836119d0565b5f61064a565b6040513d84823e3d90fd5b5034610253576020366003190112610253576107cd6119a4565b6107e260018060a01b03600154163314611bfa565b6001600160a01b03166107f68115156122f0565b6bffffffffffffffffffffffff60a01b600254161760025580f35b503461025357610820366119ba565b61082e600160065414611c36565b600260065561084560ff60025460a01c161561205c565b610850811515612095565b61085982611c7b565b818352600360209081526040808520335f908152925290208054828110610a0e578261088491611aa8565b815560018101546109be575b50604051636dd5b69d60e01b81526004810183905260c0816024817f00000000000000000000000000000000000000000000000000000000000000006001600160a01b03165afa90811561047b57849161099f575b505160405163a9059cbb60e01b815233600482015260248101839052906020908290604490829088906001600160a01b03165af1801561047b578490610964575b610930915061232f565b6040519081527fe69cdf29a59dd324317b598bee3a9ed1fcffb99cc506db72633ed07b59dc6d0460203392a3600160065580f35b506020813d602011610997575b8161097e602093836119d0565b8101031261046f5761099261093091611a21565b610926565b3d9150610971565b6109b8915060c03d60c0116102415761023381836119d0565b5f6108e5565b6109c89083612520565b156109d3575f610890565b60405162461bcd60e51b8152602060048201526013602482015272564d3a207661756c7420756e6865616c74687960681b6044820152606490fd5b60405162461bcd60e51b815260206004820152601b60248201527f564d3a20696e73756666696369656e7420636f6c6c61746572616c00000000006044820152606490fd5b5034610253576020366003190112610253577f51f43ead43c9a90d53ec229fbf48feb76b24efa7a147089ad9ed34ad384a94d36020610a906119a4565b610aa560018060a01b03600154163314611bfa565b6001600160a01b0316610ab98115156122f0565b83546001600160a01b03191681178455604051908152a180f35b50346102535780600319360112610253576002546040516001600160a01b039091168152602090f35b50346102535780600319360112610253576040517f00000000000000000000000000000000000000000000000000000000000000006001600160a01b03168152602090f35b503461025357604036600319011261025357676765c793fa10079d601b1b610baf60209260043590610b7161198e565b8282526003865260408083206001600160a01b039092165f908152918752908190209282526004865290205480610bb85750600183915b0154611ab5565b04604051908152f35b60019091610ba8565b50346102535780600319360112610253576040517f00000000000000000000000000000000000000000000000000000000000000006001600160a01b03168152602090f35b50346102535780600319360112610253576040517f00000000000000000000000000000000000000000000000000000000000000006001600160a01b03168152602090f35b503461025357604036600319011261025357600435610c6861198e565b610c76600160065414611c36565b6002600655610c8d60ff60025460a01c161561205c565b6001600160a01b0316801561102157610ca582611c7b565b818352600360205260408320815f5260205260405f2060018101908154908115610fe457610cd38186612520565b610fa857604051636dd5b69d60e01b815260048101869052869160c0826024817f00000000000000000000000000000000000000000000000000000000000000006001600160a01b03165afa918215610248578392610f76575b50610d83676765c793fa10079d601b1b918885526004602052604085209585875480155f14610f70575084925b8186610d668686611ab5565b049a610d79600284549c01958654611aa8565b8555555554611ab5565b8784526005602052604084209190049055516001600160a01b0316610db9610dc0610db0838987896127dd565b86939193611aa8565b9186611aa8565b80610eea575b5080610e09575b50505060405191825260208201527f4ecef300dc49115373f12d5ca31f017d1104f91d9fefeda602a1c42550af910960403392a4600160065580f35b60405163a9059cbb60e01b815233600482015260248101919091529160209183916044918391905af1908115610edf578691610ea1575b5015610e4e57845f80610dcd565b60405162461bcd60e51b815260206004820152602560248201527f564d3a206c697175696461746f7220636f6c6c61746572616c2073656e642066604482015264185a5b195960da1b6064820152608490fd5b90506020813d602011610ed7575b81610ebc602093836119d0565b81010312610ed357610ecd90611a21565b5f610e40565b8580fd5b3d9150610eaf565b6040513d88823e3d90fd5b7f00000000000000000000000000000000000000000000000000000000000000006001600160a01b0316803b156105a95760405163079cc67960e41b8152336004820152602481019290925284908290604490829084905af190811561047b578491610f57575b50610dc6565b81610f61916119d0565b610f6c57825f610f51565b8280fd5b92610d5a565b676765c793fa10079d601b1b919250610fa0610d839160c03d60c0116102415761023381836119d0565b929150610d2d565b60405162461bcd60e51b8152602060048201526014602482015273564d3a207661756c74206973206865616c74687960601b6044820152606490fd5b60405162461bcd60e51b815260206004820152601560248201527415934e881d985d5b1d081a185cc81b9bc81919589d605a1b6044820152606490fd5b60405162461bcd60e51b815260206004820152600e60248201526d2b269d103d32b9379037bbb732b960911b6044820152606490fd5b5034610253576020366003190112610253576110716119a4565b60015490611089336001600160a01b03841614611bfa565b6001600160a01b03169061109e8215156122f0565b6001600160a01b0319161760015580f35b50346102535780600319360112610253576020604051670de0b6b3a76400008152f35b50346102535780600319360112610253576040517f00000000000000000000000000000000000000000000000000000000000000006001600160a01b03168152602090f35b5034610253578060031936011261025357602060ff60025460a01c166040519015158152f35b50346102535780600319360112610253576020604051676765c793fa10079d601b1b8152f35b503461025357604036600319011261025357602061118a61118261198e565b600435612114565b604051908152f35b5034610253576111a1366119ba565b6111af600160065414611c36565b60026006556111c660ff60025460a01c161561205c565b80156111d28115612095565b6111db83611c7b565b604051636dd5b69d60e01b8152600481018490529060c0826024817f00000000000000000000000000000000000000000000000000000000000000006001600160a01b03165afa91821561148c57859261146b575b5061124060a083015115156120d3565b83855260046020526040852090815480155f146114655750676765c793fa10079d601b1b905b676765c793fa10079d601b1b850290858204676765c793fa10079d601b1b141715611451576112ed826112a7606094676765c793fa10079d601b1b94611ac8565b888a52600360205260408a2060018060a01b0333165f526020526112e5600260405f2097600189016112da858254611c6e565b905501918254611c6e565b809155611ab5565b04920151821161140c5761130e918486526005602052604086205583612520565b156113c757827f00000000000000000000000000000000000000000000000000000000000000006001600160a01b0316803b156113c3576040516340c10f1960e01b8152336004820152602481018490529082908290604490829084905af180156107a8576113ae575b50506040519081527f7ee657a21ac7f39b81c23a6f713ab60c53f4c04479e9a7847c08e2bc69862e8060203392a3600160065580f35b816113b8916119d0565b610f6c57825f611378565b5080fd5b60405162461bcd60e51b815260206004820152601c60248201527f564d3a20636f6c6c61746572616c20726174696f20746f6f206c6f77000000006044820152606490fd5b60405162461bcd60e51b815260206004820152601960248201527f564d3a2064656274206365696c696e67206578636565646564000000000000006044820152606490fd5b634e487b7160e01b87526011600452602487fd5b90611266565b61148591925060c03d60c0116102415761023381836119d0565b905f611230565b6040513d87823e3d90fd5b50346102535760403660031901126102535760406114b361198e565b9160043581526003602052209060018060a01b03165f526020526040805f206001815491015482519182526020820152f35b503461025357602036600319011261025357611502600435611c7b565b80f35b50346102535760203660031901126102535760406060916004358152600460205220805490600260018201549101549060405192835260208301526040820152f35b50346102535760203660031901126102535760406020916004358152600583522054604051908152f35b503461173657611580366119ba565b61158e600160065414611c36565b60026006558061159d83611c7b565b825f52600360205260405f2060018060a01b0333165f5260205260405f20835f52600460205260405f2090815480155f1461179a57506001676765c793fa10079d601b1b915b0192835490676765c793fa10079d601b1b6115fe8484611ab5565b04809111611792575b50841561175657676765c793fa10079d601b1b850292858404676765c793fa10079d601b1b0361174257676765c793fa10079d601b1b9461164b8461167096611ac8565b9280841161173a575b91600291611665856112e595611aa8565b905501918254611aa8565b04825f52600560205260405f205560018060a01b037f000000000000000000000000000000000000000000000000000000000000000016803b156117365760405163079cc67960e41b815233600482015260248101839052905f908290604490829084905af1801561172b57611716575b506040519081527f8293a3003da468402b46b778420ac0fa8c2291bed4eeb36f56768a9d2220be7660203392a3600160065580f35b6117239193505f906119d0565b5f915f6116e1565b6040513d5f823e3d90fd5b5f80fd5b925082611654565b634e487b7160e01b5f52601160045260245ffd5b60405162461bcd60e51b8152602060048201526014602482015273564d3a206e6f7468696e6720746f20726570617960601b6044820152606490fd5b94505f611607565b600190916115e3565b3461173657602036600319011261173657600435801515809103611736576117d660018060a01b03600154163314611bfa565b6002805460ff60a01b191660a09290921b60ff60a01b16919091179055005b3461173657602036600319011261173657602061118a600435611ae6565b34611736575f366003190112611736575f546040516001600160a01b039091168152602090f35b346117365760803660031901126117365761185361198e565b90604435906001600160a01b03821682036117365730330361195c57604051636955c83f60e11b815260048035908201526001600160a01b038085166024830152831660448201526064803590820152606081806084810103815f7f00000000000000000000000000000000000000000000000000000000000000006001600160a01b03165af1908161192d575b5061192b5760405162461bcd60e51b815260206004820152601f60248201527f456e68616e63656420747261636b696e67206e6f7420737570706f72746564006044820152606490fd5b005b61194e9060603d606011611955575b61194681836119d0565b810190611a06565b50506118e1565b503d61193c565b62461bcd60e51b815260206004820152600d60248201526c2b269d1037b7363c9039b2b63360991b6044820152606490fd5b602435906001600160a01b038216820361173657565b600435906001600160a01b038216820361173657565b6040906003190112611736576004359060243590565b90601f8019910116810190811067ffffffffffffffff8211176119f257604052565b634e487b7160e01b5f52604160045260245ffd5b90816060910312611736578051916040602083015192015190565b5190811515820361173657565b908160c0910312611736576040519060c0820182811067ffffffffffffffff8211176119f25760405280516001600160a01b038116810361173657611aa09160a09184526020810151602085015260408101516040850152606081015160608501526080810151608085015201611a21565b60a082015290565b9190820391821161174257565b8181029291811591840414171561174257565b8115611ad2570490565b634e487b7160e01b5f52601260045260245ffd5b805f52600460205260405f2080549182158015611bee575b611bc057604051636dd5b69d60e01b8152600481019190915260c0816024817f00000000000000000000000000000000000000000000000000000000000000006001600160a01b03165afa90811561172b575f91611bcf575b50611b66600183015442611aa8565b8015611bc757611b89611b8f916080676765c793fa10079d601b1b9401516123b7565b84611ab5565b049082821115611bc0576002611bb4676765c793fa10079d601b1b94611bbc94611aa8565b910154611ab5565b0490565b5050505f90565b505050505f90565b611be8915060c03d60c0116102415761023381836119d0565b5f611b57565b50600282015415611afe565b15611c0157565b60405162461bcd60e51b815260206004820152600d60248201526c2b269d103737ba1030b236b4b760991b6044820152606490fd5b15611c3d57565b60405162461bcd60e51b81526020600482015260096024820152681499595b9d1c985b9d60ba1b6044820152606490fd5b9190820180921161174257565b5f815f52600460205260405f20908154156120435760018201611c9f815442611aa8565b801561203c57604051636dd5b69d60e01b8152600481018690529060c0826024817f00000000000000000000000000000000000000000000000000000000000000006001600160a01b03165afa91821561172b57611d09926080915f9161201d575b5001516123b7565b92676765c793fa10079d601b1b611d2282549586611ab5565b04938085111561201357916002611d5792611d49676765c793fa10079d601b1b9588611aa8565b928782554290550154611ab5565b04908115611fdf577f00000000000000000000000000000000000000000000000000000000000000006001600160a01b0316803b15611736576040516340c10f1960e01b8152306004820152602481018490525f8160448183865af1801561172b57611fca575b5060405163095ea7b360e01b81526001600160a01b037f0000000000000000000000000000000000000000000000000000000000000000166004820181905260248201859052919060208160448187865af1801561047b57611f93575b506002546001600160a01b0316303b1561046f576040516303ac458360e01b8152600481018690526001600160a01b03918216602482015290821660448201526064810187905283808260848183305af19182611f7e575b5050611f5057606090606460018060a01b0360025416856040519586948593633e5a775160e11b85528a6004860152602485015260448401525af180156107a8577f3b9f4ab0566d9d10726a6f7f34cdc9e4b7f03a20a878ed293de4e6ed1b4198589492604094928592611f31575b505b868152600560205220611ef8828254611c6e565b9055847f156e588d1067ba3c8a6a7f4376ef70794f8afed114dc9d1421e054b65743e63060208551848152a282519182526020820152a2565b611f499060603d6060116119555761194681836119d0565b5050611ee2565b505091604091827f3b9f4ab0566d9d10726a6f7f34cdc9e4b7f03a20a878ed293de4e6ed1b41985894611ee4565b81611f88916119d0565b61046f57835f611e73565b6020813d602011611fc2575b81611fac602093836119d0565b8101031261046f57611fbd90611a21565b611e1b565b3d9150611f9f565b611fd79192505f906119d0565b5f905f611dbe565b505060407f3b9f4ab0566d9d10726a6f7f34cdc9e4b7f03a20a878ed293de4e6ed1b4198589181519081525f6020820152a2565b5050429055505050565b612036915060c03d60c0116102415761023381836119d0565b5f611d01565b5050505050565b509050676765c793fa10079d601b1b8155600142910155565b1561206357565b60405162461bcd60e51b815260206004820152600a60248201526915934e881c185d5cd95960b21b6044820152606490fd5b1561209c57565b60405162461bcd60e51b815260206004820152600f60248201526e15934e881e995c9bc8185b5bdd5b9d608a1b6044820152606490fd5b156120da57565b60405162461bcd60e51b8152602060048201526012602482015271564d3a20696c6b206e6f742061637469766560701b6044820152606490fd5b90815f52600360205260405f209060018060a01b03165f5260205260405f2090600182015480156122e25761216c676765c793fa10079d601b1b91835f52600460205260405f205480155f146122ea57508290611ab5565b049081156122e257604051636dd5b69d60e01b8152600481018290529260c0846024817f00000000000000000000000000000000000000000000000000000000000000006001600160a01b03165afa93841561172b575f946122c1575b506040516331d98b3f60e01b815260048101929092526020826024817f00000000000000000000000000000000000000000000000000000000000000006001600160a01b03165afa91821561172b575f9261228a575b5091602061224661224f93670de0b6b3a764000095549060018060a01b03885116916126eb565b94015190611ab5565b04801561228357670de0b6b3a7640000820291808304670de0b6b3a764000014901517156117425761228091611ac8565b90565b50505f1990565b9150916020823d6020116122b9575b816122a6602093836119d0565b810103126117365790519091602061221f565b3d9150612299565b6122db91945060c03d60c0116102415761023381836119d0565b925f6121c9565b5050505f1990565b90611ab5565b156122f757565b60405162461bcd60e51b815260206004820152601060248201526f564d3a207a65726f206164647265737360801b6044820152606490fd5b1561233657565b60405162461bcd60e51b815260206004820152601a60248201527f564d3a20636f6c6c61746572616c2073656e64206661696c65640000000000006044820152606490fd5b1561238257565b60405162461bcd60e51b815260206004820152600d60248201526c72706f772f6f766572666c6f7760981b6044820152606490fd5b9190915f9080156125035760018416156124f257805b9360011c90815b6123dd57505050565b6123fb6123ea8280611ab5565b9180159081156124df575b5061237b565b6b019d971e4fe8401e740000008101908181116124cb5761241e9082101561237b565b826124b757676765c793fa10079d601b1b9004908160018216612447575b5060011c90816123d4565b8593506124588161246a9397611ab5565b9381159182156124a3575b505061237b565b6b019d971e4fe8401e740000008201918281116117425761248d9083101561237b565b676765c793fa10079d601b1b5f9204935f61243c565b6124af91925085611ac8565b145f80612463565b634e487b7160e01b83526012600452602483fd5b634e487b7160e01b84526011600452602484fd5b90506124eb8184611ac8565b145f6123f5565b676765c793fa10079d601b1b6123cd565b505090155f1461251c57676765c793fa10079d601b1b90565b5f90565b600182015480156126d257612558676765c793fa10079d601b1b91835f52600460205260405f205480155f146122ea57508290611ab5565b049081156126d257604051636dd5b69d60e01b8152600481018290529260c0846024817f00000000000000000000000000000000000000000000000000000000000000006001600160a01b03165afa93841561172b575f946126b1575b506040516331d98b3f60e01b815260048101929092526020826024817f00000000000000000000000000000000000000000000000000000000000000006001600160a01b03165afa91821561172b575f9261267a575b5091602061224661263293670de0b6b3a764000095549060018060a01b03885116916126eb565b0490811561267357670de0b6b3a7640000810290808204670de0b6b3a7640000149015171561174257670de0b6b3a76400009161266e91611ac8565b101590565b5050600190565b9150916020823d6020116126a9575b81612696602093836119d0565b810103126117365790519091602061260b565b3d9150612689565b6126cb91945060c03d60c0116102415761023381836119d0565b925f6125b5565b505050600190565b60ff16604d811161174257600a0a90565b60405163313ce56760e01b81529192909190602090829060049082906001600160a01b03165afa801561172b575f906127a0575b60ff1690506012811015612757576012039160ff831161174257612752611bbc926122ea670de0b6b3a7640000956126da565b611ab5565b601281111561278c57601119019160ff831161174257612752611bbc92612786670de0b6b3a7640000956126da565b90611ac8565b50670de0b6b3a764000091611bbc91611ab5565b506020813d6020116127d5575b816127ba602093836119d0565b81010312611736575160ff811681036117365760ff9061271f565b3d91506127ad565b5f8054929590949093926001600160a01b0316801561299557604051637d88209760e01b8152602081600481855afa90811561172b575f91612963575b50801561295657808410156129505750825b839781612933575b5050858015158061292a575b61284b575050505050565b60405163095ea7b360e01b81526001600160a01b0390921660048301526024820152906020908290815f816044810103926001600160a01b03165af1801561172b576128f3575b505f546001600160a01b031691823b156117365760645f9283604051958694859363742f9e7160e01b8552600485015260248401528860448401525af1801561172b576128e3575b8080808561203c565b5f6128ed916119d0565b5f6128da565b6020813d602011612922575b8161290c602093836119d0565b810103126117365761291d90611a21565b612892565b3d91506128ff565b50831515612840565b6129489297508461294391611ab5565b611ac8565b945f80612834565b9261282c565b505f965086955050505050565b90506020813d60201161298d575b8161297e602093836119d0565b8101031261173657515f61281a565b3d9150612971565b505f955085945050505056fea2646970667358221220762f0824ac0f0f0bffa270c9fc36027a0a7c3d08c5a215d18e0c73dde9863e4364736f6c63430008210033","linkReferences":{}},"methodIdentifiers":{"RAY()":"552033c4","WAD()":"6a146024","_callStabilityFeeTracking(uint256,address,address,bytes32)":"03ac4583","accumulators(bytes32)":"3363b7d9","admin()":"f851a440","closeVault(bytes32)":"e0537cee","dAppRecipient()":"93991a93","depositCollateral(bytes32,uint256)":"dea9b464","drip(bytes32)":"44e2a5a8","feeSplitter()":"6052970c","gusd()":"8c87ee90","healthFactor(bytes32,address)":"4afa3af7","ilkDebt(bytes32)":"2e5f62a0","liquidate(bytes32,address)":"771b51d2","mintGUSD(bytes32,uint256)":"468c9bd1","openVault(bytes32)":"fab9bd5e","oracle()":"7dc0d1d0","paused()":"5c975abb","pendingFee(bytes32)":"050296e9","registry()":"7b103999","repayGUSD(bytes32,uint256)":"1c5d3796","setDAppRecipient(address)":"abaf0042","setPaused(bool)":"16c38b3c","setStabilityPool(address)":"98d721e0","stabilityPool()":"048c661d","transferAdmin(address)":"75829def","vaultDebt(bytes32,address)":"81845f63","vaults(bytes32,address)":"4627e7c0","withdrawCollateral(bytes32,uint256)":"a1e93482"},"id":1}