{"abi":[{"type":"constructor","inputs":[{"name":"_owner","type":"address","internalType":"address"}],"stateMutability":"nonpayable"},{"type":"function","name":"aclAdmin","inputs":[],"outputs":[{"name":"","type":"address","internalType":"address"}],"stateMutability":"view"},{"type":"function","name":"getAddress","inputs":[{"name":"id","type":"bytes32","internalType":"bytes32"}],"outputs":[{"name":"","type":"address","internalType":"address"}],"stateMutability":"view"},{"type":"function","name":"oracle","inputs":[],"outputs":[{"name":"","type":"address","internalType":"address"}],"stateMutability":"view"},{"type":"function","name":"owner","inputs":[],"outputs":[{"name":"","type":"address","internalType":"address"}],"stateMutability":"view"},{"type":"function","name":"pool","inputs":[],"outputs":[{"name":"","type":"address","internalType":"address"}],"stateMutability":"view"},{"type":"function","name":"setACLAdmin","inputs":[{"name":"_aclAdmin","type":"address","internalType":"address"}],"outputs":[],"stateMutability":"nonpayable"},{"type":"function","name":"setAddress","inputs":[{"name":"id","type":"bytes32","internalType":"bytes32"},{"name":"addr","type":"address","internalType":"address"}],"outputs":[],"stateMutability":"nonpayable"},{"type":"function","name":"setOracle","inputs":[{"name":"_oracle","type":"address","internalType":"address"}],"outputs":[],"stateMutability":"nonpayable"},{"type":"function","name":"setPool","inputs":[{"name":"_pool","type":"address","internalType":"address"}],"outputs":[],"stateMutability":"nonpayable"},{"type":"function","name":"setTreasury","inputs":[{"name":"_treasury","type":"address","internalType":"address"}],"outputs":[],"stateMutability":"nonpayable"},{"type":"function","name":"transferOwnership","inputs":[{"name":"newOwner","type":"address","internalType":"address"}],"outputs":[],"stateMutability":"nonpayable"},{"type":"function","name":"treasury","inputs":[],"outputs":[{"name":"","type":"address","internalType":"address"}],"stateMutability":"view"},{"type":"event","name":"ACLAdminUpdated","inputs":[{"name":"oldAdmin","type":"address","indexed":true,"internalType":"address"},{"name":"newAdmin","type":"address","indexed":true,"internalType":"address"}],"anonymous":false},{"type":"event","name":"AddressSet","inputs":[{"name":"id","type":"bytes32","indexed":true,"internalType":"bytes32"},{"name":"oldAddress","type":"address","indexed":true,"internalType":"address"},{"name":"newAddress","type":"address","indexed":true,"internalType":"address"}],"anonymous":false},{"type":"event","name":"OracleUpdated","inputs":[{"name":"oldOracle","type":"address","indexed":true,"internalType":"address"},{"name":"newOracle","type":"address","indexed":true,"internalType":"address"}],"anonymous":false},{"type":"event","name":"OwnershipTransferred","inputs":[{"name":"oldOwner","type":"address","indexed":true,"internalType":"address"},{"name":"newOwner","type":"address","indexed":true,"internalType":"address"}],"anonymous":false},{"type":"event","name":"PoolUpdated","inputs":[{"name":"oldPool","type":"address","indexed":true,"internalType":"address"},{"name":"newPool","type":"address","indexed":true,"internalType":"address"}],"anonymous":false},{"type":"event","name":"TreasuryUpdated","inputs":[{"name":"oldTreasury","type":"address","indexed":true,"internalType":"address"},{"name":"newTreasury","type":"address","indexed":true,"internalType":"address"}],"anonymous":false}],"bytecode":{"object":"0x60803460a657601f6105ee38819003918201601f19168301916001600160401b0383118484101760aa5780849260209460405283398101031260a657516001600160a01b0381169081900360a65780156074575f80546001600160a01b03191691909117905560405161052f90816100bf8239f35b60405162461bcd60e51b815260206004820152600a6024820152692d32b9379037bbb732b960b11b6044820152606490fd5b5f80fd5b634e487b7160e01b5f52604160045260245ffdfe6080806040526004361015610012575f80fd5b5f3560e01c90816316f0115b146104885750806321f8a721146104565780634437152a146103e257806361d027b3146103ba57806376d84ffc146103465780637adbf973146102d25780637dc0d1d0146102aa5780638da5cb5b14610283578063ca446dd9146101ea578063d08fc100146101c2578063f0f442601461014e5763f2fde38b146100a0575f80fd5b3461014a57602036600319011261014a576100b96104ab565b5f546001600160a01b038116916100d13384146104c1565b6001600160a01b03169182156101165782907f8be0079c531659141344cd1fd0a4f28419497f9722a3daafe3b4186f6b6457e05f80a36001600160a01b031916175f55005b60405162461bcd60e51b815260206004820152600c60248201526b5a65726f206164647265737360a01b6044820152606490fd5b5f80fd5b3461014a57602036600319011261014a576101676104ab565b61017b60018060a01b035f541633146104c1565b6003546001600160a01b0391821691829082167f4ab5be82436d353e61ca18726e984e561f5c1cc7c6d38b29d2553c790434705a5f80a36001600160a01b03191617600355005b3461014a575f36600319011261014a576004546040516001600160a01b039091168152602090f35b3461014a57604036600319011261014a576024356001600160a01b038116906004359082900361014a5761022860018060a01b035f541633146104c1565b805f5260056020528160018060a01b0360405f205416827f9ef0e8c8e52743bb38b83b17d9429141d494b8041ca6d616a6c77cebae9cd8b75f80a45f90815260056020526040902080546001600160a01b0319169091179055005b3461014a575f36600319011261014a575f546040516001600160a01b039091168152602090f35b3461014a575f36600319011261014a576002546040516001600160a01b039091168152602090f35b3461014a57602036600319011261014a576102eb6104ab565b6102ff60018060a01b035f541633146104c1565b6002546001600160a01b0391821691829082167f078c3b417dadf69374a59793b829c52001247130433427049317bde56607b1b75f80a36001600160a01b03191617600255005b3461014a57602036600319011261014a5761035f6104ab565b61037360018060a01b035f541633146104c1565b6004546001600160a01b0391821691829082167fe9cf53972264dc95304fd424458745019ddfca0e37ae8f703d74772c41ad115b5f80a36001600160a01b03191617600455005b3461014a575f36600319011261014a576003546040516001600160a01b039091168152602090f35b3461014a57602036600319011261014a576103fb6104ab565b61040f60018060a01b035f541633146104c1565b6001546001600160a01b0391821691829082167f90affc163f1a2dfedcd36aa02ed992eeeba8100a4014f0b4cdc20ea265a666275f80a36001600160a01b03191617600155005b3461014a57602036600319011261014a576004355f526005602052602060018060a01b0360405f205416604051908152f35b3461014a575f36600319011261014a576001546001600160a01b03168152602090f35b600435906001600160a01b038216820361014a57565b156104c857565b60405162461bcd60e51b81526020600482015260096024820152682737ba1037bbb732b960b91b6044820152606490fdfea26469706673582212206b9702103d9cb6161cf9c25e06067b3936763af62687193e364d72734a4ee79e64736f6c63430008210033","linkReferences":{}},"methodIdentifiers":{"aclAdmin()":"d08fc100","getAddress(bytes32)":"21f8a721","oracle()":"7dc0d1d0","owner()":"8da5cb5b","pool()":"16f0115b","setACLAdmin(address)":"76d84ffc","setAddress(bytes32,address)":"ca446dd9","setOracle(address)":"7adbf973","setPool(address)":"4437152a","setTreasury(address)":"f0f44260","transferOwnership(address)":"f2fde38b","treasury()":"61d027b3"},"id":31}