{"abi":[{"type":"constructor","inputs":[{"name":"_admin","type":"address","internalType":"address"},{"name":"_feeSplitter","type":"address","internalType":"address"}],"stateMutability":"nonpayable"},{"type":"function","name":"admin","inputs":[],"outputs":[{"name":"","type":"address","internalType":"address"}],"stateMutability":"view"},{"type":"function","name":"dailySnapshots","inputs":[{"name":"","type":"uint256","internalType":"uint256"}],"outputs":[{"name":"timestamp","type":"uint256","internalType":"uint256"},{"name":"totalUBI","type":"uint256","internalType":"uint256"},{"name":"totalFees","type":"uint256","internalType":"uint256"},{"name":"protocolCount","type":"uint256","internalType":"uint256"}],"stateMutability":"view"},{"type":"function","name":"feeSplitter","inputs":[],"outputs":[{"name":"","type":"address","internalType":"contract IUBIFeeSplitterStats"}],"stateMutability":"view"},{"type":"function","name":"getAllProtocols","inputs":[],"outputs":[{"name":"result","type":"tuple[]","internalType":"struct UBIRevenueTracker.ProtocolStats[]","components":[{"name":"name","type":"string","internalType":"string"},{"name":"category","type":"string","internalType":"string"},{"name":"feeSource","type":"address","internalType":"address"},{"name":"totalFees","type":"uint256","internalType":"uint256"},{"name":"ubiContribution","type":"uint256","internalType":"uint256"},{"name":"txCount","type":"uint256","internalType":"uint256"},{"name":"lastUpdateBlock","type":"uint256","internalType":"uint256"},{"name":"active","type":"bool","internalType":"bool"}]}],"stateMutability":"view"},{"type":"function","name":"getDashboardData","inputs":[],"outputs":[{"name":"_totalFees","type":"uint256","internalType":"uint256"},{"name":"_totalUBI","type":"uint256","internalType":"uint256"},{"name":"_totalTx","type":"uint256","internalType":"uint256"},{"name":"_protocolCount","type":"uint256","internalType":"uint256"},{"name":"_activeProtocols","type":"uint256","internalType":"uint256"},{"name":"_splitterFees","type":"uint256","internalType":"uint256"},{"name":"_splitterUBI","type":"uint256","internalType":"uint256"},{"name":"_snapshotCount","type":"uint256","internalType":"uint256"}],"stateMutability":"view"},{"type":"function","name":"getProtocol","inputs":[{"name":"id","type":"uint256","internalType":"uint256"}],"outputs":[{"name":"","type":"tuple","internalType":"struct UBIRevenueTracker.ProtocolStats","components":[{"name":"name","type":"string","internalType":"string"},{"name":"category","type":"string","internalType":"string"},{"name":"feeSource","type":"address","internalType":"address"},{"name":"totalFees","type":"uint256","internalType":"uint256"},{"name":"ubiContribution","type":"uint256","internalType":"uint256"},{"name":"txCount","type":"uint256","internalType":"uint256"},{"name":"lastUpdateBlock","type":"uint256","internalType":"uint256"},{"name":"active","type":"bool","internalType":"bool"}]}],"stateMutability":"view"},{"type":"function","name":"getSnapshots","inputs":[{"name":"count","type":"uint256","internalType":"uint256"}],"outputs":[{"name":"result","type":"tuple[]","internalType":"struct UBIRevenueTracker.Snapshot[]","components":[{"name":"timestamp","type":"uint256","internalType":"uint256"},{"name":"totalUBI","type":"uint256","internalType":"uint256"},{"name":"totalFees","type":"uint256","internalType":"uint256"},{"name":"protocolCount","type":"uint256","internalType":"uint256"}]}],"stateMutability":"view"},{"type":"function","name":"protocolBySource","inputs":[{"name":"","type":"address","internalType":"address"}],"outputs":[{"name":"","type":"uint256","internalType":"uint256"}],"stateMutability":"view"},{"type":"function","name":"protocolCount","inputs":[],"outputs":[{"name":"","type":"uint256","internalType":"uint256"}],"stateMutability":"view"},{"type":"function","name":"protocols","inputs":[{"name":"","type":"uint256","internalType":"uint256"}],"outputs":[{"name":"name","type":"string","internalType":"string"},{"name":"category","type":"string","internalType":"string"},{"name":"feeSource","type":"address","internalType":"address"},{"name":"totalFees","type":"uint256","internalType":"uint256"},{"name":"ubiContribution","type":"uint256","internalType":"uint256"},{"name":"txCount","type":"uint256","internalType":"uint256"},{"name":"lastUpdateBlock","type":"uint256","internalType":"uint256"},{"name":"active","type":"bool","internalType":"bool"}],"stateMutability":"view"},{"type":"function","name":"registerProtocol","inputs":[{"name":"name","type":"string","internalType":"string"},{"name":"category","type":"string","internalType":"string"},{"name":"feeSource","type":"address","internalType":"address"}],"outputs":[{"name":"id","type":"uint256","internalType":"uint256"}],"stateMutability":"nonpayable"},{"type":"function","name":"reportFees","inputs":[{"name":"protocolId","type":"uint256","internalType":"uint256"},{"name":"fees","type":"uint256","internalType":"uint256"},{"name":"ubi","type":"uint256","internalType":"uint256"},{"name":"txs","type":"uint256","internalType":"uint256"}],"outputs":[],"stateMutability":"nonpayable"},{"type":"function","name":"setFeeSplitter","inputs":[{"name":"_feeSplitter","type":"address","internalType":"address"}],"outputs":[],"stateMutability":"nonpayable"},{"type":"function","name":"setProtocolActive","inputs":[{"name":"id","type":"uint256","internalType":"uint256"},{"name":"active","type":"bool","internalType":"bool"}],"outputs":[],"stateMutability":"nonpayable"},{"type":"function","name":"snapshotCount","inputs":[],"outputs":[{"name":"","type":"uint256","internalType":"uint256"}],"stateMutability":"view"},{"type":"function","name":"takeSnapshot","inputs":[],"outputs":[],"stateMutability":"nonpayable"},{"type":"function","name":"totalFeesTracked","inputs":[],"outputs":[{"name":"","type":"uint256","internalType":"uint256"}],"stateMutability":"view"},{"type":"function","name":"totalTxTracked","inputs":[],"outputs":[{"name":"","type":"uint256","internalType":"uint256"}],"stateMutability":"view"},{"type":"function","name":"totalUBITracked","inputs":[],"outputs":[{"name":"","type":"uint256","internalType":"uint256"}],"stateMutability":"view"},{"type":"function","name":"transferAdmin","inputs":[{"name":"newAdmin","type":"address","internalType":"address"}],"outputs":[],"stateMutability":"nonpayable"},{"type":"event","name":"DailySnapshot","inputs":[{"name":"day","type":"uint256","indexed":true,"internalType":"uint256"},{"name":"totalUBI","type":"uint256","indexed":false,"internalType":"uint256"},{"name":"totalFees","type":"uint256","indexed":false,"internalType":"uint256"}],"anonymous":false},{"type":"event","name":"ProtocolRegistered","inputs":[{"name":"id","type":"uint256","indexed":true,"internalType":"uint256"},{"name":"name","type":"string","indexed":false,"internalType":"string"},{"name":"category","type":"string","indexed":false,"internalType":"string"},{"name":"feeSource","type":"address","indexed":false,"internalType":"address"}],"anonymous":false},{"type":"event","name":"StatsUpdated","inputs":[{"name":"protocolId","type":"uint256","indexed":true,"internalType":"uint256"},{"name":"fees","type":"uint256","indexed":false,"internalType":"uint256"},{"name":"ubi","type":"uint256","indexed":false,"internalType":"uint256"},{"name":"txCount","type":"uint256","indexed":false,"internalType":"uint256"}],"anonymous":false}],"bytecode":{"object":"0x608034608557601f61145638819003918201601f19168301916001600160401b038311848410176089578084926040948552833981010312608557604b6020604583609d565b9201609d565b5f80546001600160a01b039384166001600160a01b031991821617909155600180549290931691161790556040516113a590816100b18239f35b5f80fd5b634e487b7160e01b5f52604160045260245ffd5b51906001600160a01b038216820360855756fe6080806040526004361015610012575f80fd5b5f3560e01c908163098ab6a114610f2e575080636052970c14610f06578063741c53eb14610da057806375829def14610d4c578063783ec7f014610c8b5780637d4f380014610c6e5780638c39622014610bbe578063a2ac13d314610b72578063a418eac514610b55578063adb2bebf146109e5578063b17fb9d614610988578063b3d3d37e146108c9578063b6aeb92c146108ac578063c9a1ae6f1461077b578063d190da8314610743578063d9708d4814610613578063df1ee6a5146105ad578063e2eed04f14610590578063f851a440146105695763feadea0d146100f8575f80fd5b346105655760603660031901126105655760043567ffffffffffffffff811161056557610129903690600401611128565b60243567ffffffffffffffff811161056557610149903690600401611128565b92604435926001600160a01b03841684036105655761017260018060a01b035f541633146111d4565b6003549361017f856112b4565b6003556040519561018f8761102d565b61019a3684866112c2565b87526101a73682876112c2565b6020880190815260018060a01b03831660408901525f60608901525f60808901525f60a08901524360c0890152600160e0890152865f52600260205260405f2090885180519067ffffffffffffffff821161048a5781906102088554610ff5565b601f811161050c575b50602090601f83116001146104a9575f9261049e575b50508160011b915f199060031b1c19161782555b5197885167ffffffffffffffff811161048a5761025b6001840154610ff5565b601f8111610436575b50908896959493929160209a8b90601f83116001146103945760e061036e969484610335957f3c7a23361d520d8daf009aea25b729eb1c02a2e1473ee76319a2e3174e862ba69d9e98956007955f92610389575b50508160011b915f199060031b1c19161760018501555b6002840160018060a01b036040830151166bffffffffffffffffffffffff60a01b825416179055606081015160038501556080810151600485015560a0810151600585015560c081015160068501550151151591019060ff801983541691151516179055565b60018060a01b0384165f5260048a528760405f2055610361604051968796606088526060880191611308565b918583038b870152611308565b6001600160a01b0390911660408301520390a2604051908152f35b015190505f806102b8565b999493929190600184015f52805f209a5f5b601f198416811061041c5750610335936001847f3c7a23361d520d8daf009aea25b729eb1c02a2e1473ee76319a2e3174e862ba69d9e60079560e09561036e9c9b9a98601f19811610610404575b505050811b0160018501556102cf565b01515f1960f88460031b161c191690555f80806103f4565b828201518d556001909c019b8d9b50918e01918e016103a6565b818111156102645799600184015f5260205f20601f830160051c9060208410610482575b81019b601f0160051c035f5b81811061047557505099610264565b5f8d820155600101610466565b5f915061045a565b634e487b7160e01b5f52604160045260245ffd5b015190505f80610227565b5f8681528281209350601f198516905b8181106104f457509084600195949392106104dc575b505050811b01825561023b565b01515f1960f88460031b161c191690555f80806104cf565b929360206001819287860151815501950193016104b9565b8281111561021157909150845f5260205f20601f840160051c906020851061055d575b849392601f0160051c82900391015f5b82811061054d575050610211565b5f8183015585945060010161053f565b5f915061052f565b5f80fd5b34610565575f366003190112610565575f546040516001600160a01b039091168152602090f35b34610565575f366003190112610565576020600354604051908152f35b3461056557604036600319011261056557600435602435801515810361056557610611916105e560018060a01b035f541633146111d4565b6105f26003548210611247565b5f526002602052600760405f20019060ff801983541691151516179055565b005b34610565575f3660031901126105655760085460075490600954916003549261063a611328565b6001546040516330636c5760e11b81526001600160a01b03909116959091906020836004818a5afa928315610701575f9361070c575b50602060049760405198898092638581ddf560e01b82525afa938415610701575f946106cb575b610100975060065495604051978852602088015260408701526060860152608085015260a084015260c083015260e0820152f35b93506020873d6020116106f9575b816106e660209383611066565b8101031261056557610100965193610697565b3d91506106d9565b6040513d5f823e3d90fd5b9692506020873d60201161073b575b8161072860209383611066565b8101031261056557955191956020610670565b3d915061071b565b34610565576020366003190112610565576001600160a01b03610764610fdf565b165f526004602052602060405f2054604051908152f35b346105655760803660031901126105655760043560243560443590606435906107ae60018060a01b035f541633146111d4565b6107bb6003548510611247565b835f52600260205260405f209160ff60078401541615610873577fdf601dc9cab1949db7d829ded79c76070375083f98d23c3e5de99ff9fdab542a93836003606095016108098582546112a7565b90556004810161081a8382546112a7565b90556005810161082b8482546112a7565b905560064391015561083f836008546112a7565b60085561084e816007546112a7565b60075561085d826009546112a7565b60095560405192835260208301526040820152a2005b60405162461bcd60e51b815260206004820152601160248201527050726f746f636f6c20696e61637469766560781b6044820152606490fd5b34610565575f366003190112610565576020600854604051908152f35b34610565575f366003190112610565576108ed60018060a01b035f541633146111d4565b6006546108f9816112b4565b600655600754600360085461090c611328565b906040519361091a8561104a565b428552602085019081526040850191825260608501928352855f52600560205260405f2094518555516001850155516002840155519101557fd5ac1c115b9611e0b070be9e826d0a3a424eb16689c233d158ef9d98a3b0dbbe604060075460085482519182526020820152a2005b34610565576020366003190112610565576109a1610fdf565b6109b560018060a01b035f541633146111d4565b6001600160a01b03166109c981151561120c565b6bffffffffffffffffffffffff60a01b60015416176001555f80f35b346105655760203660031901126105655760065460043580821115610b4957610a11610a189183611286565b8092611286565b610a2181611156565b91610a2f6040519384611066565b818352601f19610a3e83611156565b015f5b818110610b1a5750505f5b828110610ab957836040518091602082016020835281518091526020604084019201905f5b818110610a7f575050500390f35b9193509160206080600192606087518051835284810151858401526040810151604084015201516060820152019401910191849392610a71565b80610ac6600192846112a7565b5f52600560205260405f20600360405191610ae08361104a565b805483528481015460208401526002810154604084015201546060820152610b0882876111ac565b52610b1381866111ac565b5001610a4c565b602090604051610b298161104a565b5f81525f838201525f60408201525f606082015282828801015201610a41565b50610a185f8092611286565b34610565575f366003190112610565576020600954604051908152f35b34610565576020366003190112610565576004355f526005602052608060405f208054906001810154906003600282015491015491604051938452602084015260408301526060820152f35b34610565576020366003190112610565576004355f526002602052610c3b60405f20610be981611088565b90610bf660018201611088565b60018060a01b036002830154169160038101546004820154600583015491610c4960ff600760068701549601541695604051998a996101008b526101008b0190610f48565b9089820360208b0152610f48565b9560408801526060870152608086015260a085015260c0840152151560e08301520390f35b34610565575f366003190112610565576020600754604051908152f35b3461056557602036600319011261056557600435610ca761116e565b50610cb56003548210611247565b5f526002602052610d4860405f2060ff600760405192610cd48461102d565b610cdd81611088565b8452610ceb60018201611088565b602085015260018060a01b0360028201541660408501526003810154606085015260048101546080850152600581015460a0850152600681015460c0850152015416151560e0820152604051918291602083526020830190610f6c565b0390f35b3461056557602036600319011261056557610d65610fdf565b5f5490610d7c336001600160a01b038416146111d4565b6001600160a01b031690610d9182151561120c565b6001600160a01b031916175f55005b34610565575f36600319011261056557600354610dbc81611156565b90610dca6040519283611066565b808252601f19610dd982611156565b015f5b818110610eef5750505f5b818110610e5557826040518091602082016020835281518091526040830190602060408260051b8601019301915f905b828210610e2657505050500390f35b91936001919395506020610e458192603f198a82030186528851610f6c565b9601920192018594939192610e17565b806001915f52600260205260405f2060ff600760405192610e758461102d565b610e7e81611088565b8452610e8b868201611088565b6020850152858060a01b0360028201541660408501526003810154606085015260048101546080850152600581015460a0850152600681015460c0850152015416151560e0820152610edd82866111ac565b52610ee881856111ac565b5001610de7565b602090610efa61116e565b82828701015201610ddc565b34610565575f366003190112610565576001546040516001600160a01b039091168152602090f35b34610565575f366003190112610565576020906006548152f35b805180835260209291819084018484015e5f828201840152601f01601f1916010190565b9060e080610f9a610f8885516101008652610100860190610f48565b60208601518582036020870152610f48565b9360018060a01b036040820151166040850152606081015160608501526080810151608085015260a081015160a085015260c081015160c08501520151151591015290565b600435906001600160a01b038216820361056557565b90600182811c92168015611023575b602083101461100f57565b634e487b7160e01b5f52602260045260245ffd5b91607f1691611004565b610100810190811067ffffffffffffffff82111761048a57604052565b6080810190811067ffffffffffffffff82111761048a57604052565b90601f8019910116810190811067ffffffffffffffff82111761048a57604052565b9060405191825f82549261109b84610ff5565b808452936001811690811561110657506001146110c2575b506110c092500383611066565b565b90505f9291925260205f20905f915b8183106110ea5750509060206110c0928201015f6110b3565b60209193508060019154838589010152019101909184926110d1565b9050602092506110c094915060ff191682840152151560051b8201015f6110b3565b9181601f840112156105655782359167ffffffffffffffff8311610565576020838186019501011161056557565b67ffffffffffffffff811161048a5760051b60200190565b6040519061117b8261102d565b5f60e08360608152606060208201528260408201528260608201528260808201528260a08201528260c08201520152565b80518210156111c05760209160051b010190565b634e487b7160e01b5f52603260045260245ffd5b156111db57565b60405162461bcd60e51b81526020600482015260096024820152682737ba1030b236b4b760b91b6044820152606490fd5b1561121357565b60405162461bcd60e51b815260206004820152600c60248201526b7a65726f206164647265737360a01b6044820152606490fd5b1561124e57565b60405162461bcd60e51b815260206004820152601060248201526f125b9d985b1a59081c1c9bdd1bd8dbdb60821b6044820152606490fd5b9190820391821161129357565b634e487b7160e01b5f52601160045260245ffd5b9190820180921161129357565b5f1981146112935760010190565b92919267ffffffffffffffff821161048a57604051916112ec601f8201601f191660200184611066565b829481845281830111610565578281602093845f960137010152565b908060209392818452848401375f828201840152601f01601f1916010190565b5f905f600354905b81811061133b575050565b805f52600260205260ff600760405f2001541661135b575b600101611330565b926113676001916112b4565b93905061135356fea26469706673582212202a4d9ec4dc4ac7b82973c833dc9514672376093ccf34072cb89a8c55a773796a64736f6c63430008210033","linkReferences":{}},"methodIdentifiers":{"admin()":"f851a440","dailySnapshots(uint256)":"a2ac13d3","feeSplitter()":"6052970c","getAllProtocols()":"741c53eb","getDashboardData()":"d9708d48","getProtocol(uint256)":"783ec7f0","getSnapshots(uint256)":"adb2bebf","protocolBySource(address)":"d190da83","protocolCount()":"e2eed04f","protocols(uint256)":"8c396220","registerProtocol(string,string,address)":"feadea0d","reportFees(uint256,uint256,uint256,uint256)":"c9a1ae6f","setFeeSplitter(address)":"b17fb9d6","setProtocolActive(uint256,bool)":"df1ee6a5","snapshotCount()":"098ab6a1","takeSnapshot()":"b3d3d37e","totalFeesTracked()":"b6aeb92c","totalTxTracked()":"a418eac5","totalUBITracked()":"7d4f3800","transferAdmin(address)":"75829def"},"id":8}