{"abi":[{"type":"constructor","inputs":[{"name":"_admin","type":"address","internalType":"address"},{"name":"_identityOracle","type":"address","internalType":"address"},{"name":"_initialSupply","type":"uint256","internalType":"uint256"}],"stateMutability":"nonpayable"},{"type":"function","name":"CLAIM_INTERVAL","inputs":[],"outputs":[{"name":"","type":"uint256","internalType":"uint256"}],"stateMutability":"view"},{"type":"function","name":"UBI_FEE_BPS","inputs":[],"outputs":[{"name":"","type":"uint256","internalType":"uint256"}],"stateMutability":"view"},{"type":"function","name":"admin","inputs":[],"outputs":[{"name":"","type":"address","internalType":"address"}],"stateMutability":"view"},{"type":"function","name":"allowance","inputs":[{"name":"","type":"address","internalType":"address"},{"name":"","type":"address","internalType":"address"}],"outputs":[{"name":"","type":"uint256","internalType":"uint256"}],"stateMutability":"view"},{"type":"function","name":"approve","inputs":[{"name":"spender","type":"address","internalType":"address"},{"name":"amount","type":"uint256","internalType":"uint256"}],"outputs":[{"name":"","type":"bool","internalType":"bool"}],"stateMutability":"nonpayable"},{"type":"function","name":"balanceOf","inputs":[{"name":"","type":"address","internalType":"address"}],"outputs":[{"name":"","type":"uint256","internalType":"uint256"}],"stateMutability":"view"},{"type":"function","name":"batchVerifyHumans","inputs":[{"name":"humans","type":"address[]","internalType":"address[]"}],"outputs":[],"stateMutability":"nonpayable"},{"type":"function","name":"calculateUBIFee","inputs":[{"name":"amount","type":"uint256","internalType":"uint256"}],"outputs":[{"name":"","type":"uint256","internalType":"uint256"}],"stateMutability":"pure"},{"type":"function","name":"claimUBI","inputs":[],"outputs":[],"stateMutability":"nonpayable"},{"type":"function","name":"dailyUBIAmount","inputs":[],"outputs":[{"name":"","type":"uint256","internalType":"uint256"}],"stateMutability":"view"},{"type":"function","name":"decimals","inputs":[],"outputs":[{"name":"","type":"uint8","internalType":"uint8"}],"stateMutability":"view"},{"type":"function","name":"fundUBIPool","inputs":[{"name":"amount","type":"uint256","internalType":"uint256"}],"outputs":[],"stateMutability":"nonpayable"},{"type":"function","name":"identityOracle","inputs":[],"outputs":[{"name":"","type":"address","internalType":"address"}],"stateMutability":"view"},{"type":"function","name":"isVerifiedHuman","inputs":[{"name":"","type":"address","internalType":"address"}],"outputs":[{"name":"","type":"bool","internalType":"bool"}],"stateMutability":"view"},{"type":"function","name":"lastClaimTime","inputs":[{"name":"","type":"address","internalType":"address"}],"outputs":[{"name":"","type":"uint256","internalType":"uint256"}],"stateMutability":"view"},{"type":"function","name":"mint","inputs":[{"name":"to","type":"address","internalType":"address"},{"name":"amount","type":"uint256","internalType":"uint256"}],"outputs":[],"stateMutability":"nonpayable"},{"type":"function","name":"minters","inputs":[{"name":"","type":"address","internalType":"address"}],"outputs":[{"name":"","type":"bool","internalType":"bool"}],"stateMutability":"view"},{"type":"function","name":"name","inputs":[],"outputs":[{"name":"","type":"string","internalType":"string"}],"stateMutability":"view"},{"type":"function","name":"setAdmin","inputs":[{"name":"_admin","type":"address","internalType":"address"}],"outputs":[],"stateMutability":"nonpayable"},{"type":"function","name":"setDailyUBIAmount","inputs":[{"name":"amount","type":"uint256","internalType":"uint256"}],"outputs":[],"stateMutability":"nonpayable"},{"type":"function","name":"setIdentityOracle","inputs":[{"name":"_oracle","type":"address","internalType":"address"}],"outputs":[],"stateMutability":"nonpayable"},{"type":"function","name":"setMinter","inputs":[{"name":"minter","type":"address","internalType":"address"},{"name":"authorized","type":"bool","internalType":"bool"}],"outputs":[],"stateMutability":"nonpayable"},{"type":"function","name":"symbol","inputs":[],"outputs":[{"name":"","type":"string","internalType":"string"}],"stateMutability":"view"},{"type":"function","name":"totalSupply","inputs":[],"outputs":[{"name":"","type":"uint256","internalType":"uint256"}],"stateMutability":"view"},{"type":"function","name":"totalVerifiedHumans","inputs":[],"outputs":[{"name":"","type":"uint256","internalType":"uint256"}],"stateMutability":"view"},{"type":"function","name":"transfer","inputs":[{"name":"to","type":"address","internalType":"address"},{"name":"amount","type":"uint256","internalType":"uint256"}],"outputs":[{"name":"","type":"bool","internalType":"bool"}],"stateMutability":"nonpayable"},{"type":"function","name":"transferFrom","inputs":[{"name":"from","type":"address","internalType":"address"},{"name":"to","type":"address","internalType":"address"},{"name":"amount","type":"uint256","internalType":"uint256"}],"outputs":[{"name":"","type":"bool","internalType":"bool"}],"stateMutability":"nonpayable"},{"type":"function","name":"ubiPool","inputs":[],"outputs":[{"name":"","type":"uint256","internalType":"uint256"}],"stateMutability":"view"},{"type":"function","name":"verifyHuman","inputs":[{"name":"human","type":"address","internalType":"address"},{"name":"status","type":"bool","internalType":"bool"}],"outputs":[],"stateMutability":"nonpayable"},{"type":"event","name":"Approval","inputs":[{"name":"owner","type":"address","indexed":true,"internalType":"address"},{"name":"spender","type":"address","indexed":true,"internalType":"address"},{"name":"value","type":"uint256","indexed":false,"internalType":"uint256"}],"anonymous":false},{"type":"event","name":"DailyUBIDistributed","inputs":[{"name":"totalAmount","type":"uint256","indexed":false,"internalType":"uint256"},{"name":"recipients","type":"uint256","indexed":false,"internalType":"uint256"}],"anonymous":false},{"type":"event","name":"HumanVerified","inputs":[{"name":"human","type":"address","indexed":true,"internalType":"address"},{"name":"status","type":"bool","indexed":false,"internalType":"bool"}],"anonymous":false},{"type":"event","name":"MinterSet","inputs":[{"name":"minter","type":"address","indexed":true,"internalType":"address"},{"name":"authorized","type":"bool","indexed":false,"internalType":"bool"}],"anonymous":false},{"type":"event","name":"Transfer","inputs":[{"name":"from","type":"address","indexed":true,"internalType":"address"},{"name":"to","type":"address","indexed":true,"internalType":"address"},{"name":"value","type":"uint256","indexed":false,"internalType":"uint256"}],"anonymous":false},{"type":"event","name":"UBIClaimed","inputs":[{"name":"claimer","type":"address","indexed":true,"internalType":"address"},{"name":"amount","type":"uint256","indexed":false,"internalType":"uint256"},{"name":"timestamp","type":"uint256","indexed":false,"internalType":"uint256"}],"anonymous":false},{"type":"event","name":"UBIPoolFunded","inputs":[{"name":"from","type":"address","indexed":true,"internalType":"address"},{"name":"amount","type":"uint256","indexed":false,"internalType":"uint256"}],"anonymous":false}],"bytecode":{"object":"0x6080346100f557601f6110bd38819003918201601f19168301916001600160401b038311848410176100f9578084926060946040528339810103126100f5575f7fddf252ad1be2c89b69c2b068fc378daa952ba7f163c4a11628f55a4df523b3ef602061006b8461010d565b604061007883870161010d565b95015190670de0b6b3a764000060035560018060a01b0316948560018060a01b0319600854161760085560018060a01b031660018060a01b031960095416176009556100c5818554610121565b845584845260018252604084206100dd828254610121565b9055604051908152a3604051610f7a90816101438239f35b5f80fd5b634e487b7160e01b5f52604160045260245ffd5b51906001600160a01b03821682036100f557565b9190820180921161012e57565b634e487b7160e01b5f52601160045260245ffdfe6080806040526004361015610012575f80fd5b5f3560e01c90816263fa2714610c9d5750806306fdde0314610c48578063095ea7b314610bcf57806318160ddd14610bb35780631a880ded14610a1057806323b872dd146109405780632abd25d6146108135780632bee8d32146107f6578063313ce567146107db578063356dc111146107b35780633b79c4ae1461069957806340c10f191461061f57806341b232331461060357806349d3a0c1146105e6578063704b6c021461059957806370a0823114610561578063726e5cdc1461054457806383adc2ff146104e857806395d89b4114610483578063a06f7da714610466578063a9059cbb14610435578063aa710ae114610407578063b77cf9c6146103cf578063cf456ae7146102af578063d5921f1414610263578063dd62ed3e14610213578063f46eccc4146101d6578063f851a440146101ae5763f88fd4c41461015a575f80fd5b346101aa5760203660031901126101aa57610173610cd6565b61018860018060a01b03600854163314610dfd565b600980546001600160a01b0319166001600160a01b0392909216919091179055005b5f80fd5b346101aa575f3660031901126101aa576008546040516001600160a01b039091168152602090f35b346101aa5760203660031901126101aa576001600160a01b036101f7610cd6565b165f52600a602052602060ff60405f2054166040519015158152f35b346101aa5760403660031901126101aa5761022c610cd6565b610234610cec565b6001600160a01b039182165f908152600260209081526040808320949093168252928352819020549051908152f35b346101aa5760203660031901126101aa576004356103e88102908082046103e8149015171561029b5760209061271060405191048152f35b634e487b7160e01b5f52601160045260245ffd5b346101aa576102bd36610d2c565b6102d260018060a01b03600854163314610dfd565b6001600160a01b03821691821561038a5781610339575b5060207f583b0aa0e528532caf4b907c11d7a8158a122fe2a6fb80cd9b09776ebea8d92d91835f52600a825261032e8160405f209060ff801983541691151516179055565b6040519015158152a2005b3b1561034557826102e9565b60405162461bcd60e51b815260206004820152601960248201527f4d696e746572206d757374206265206120636f6e7472616374000000000000006044820152606490fd5b60405162461bcd60e51b815260206004820152601d60248201527f4d696e7465722063616e6e6f74206265207a65726f20616464726573730000006044820152606490fd5b346101aa5760203660031901126101aa576001600160a01b036103f0610cd6565b165f526006602052602060405f2054604051908152f35b346101aa5760203660031901126101aa5761042d60018060a01b03600854163314610dfd565b600435600355005b346101aa5760403660031901126101aa5761045b610451610cd6565b6024359033610e91565b602060405160018152f35b346101aa575f3660031901126101aa576020600454604051908152f35b346101aa575f3660031901126101aa57604051604081019080821067ffffffffffffffff8311176104d4576104d091604052600281526111c960f21b602082015260405191829182610d02565b0390f35b634e487b7160e01b5f52604160045260245ffd5b346101aa5760203660031901126101aa57600435610507813033610e91565b61051381600454610d5b565b6004556040519081527f7b320d49eac2c333db6dfb543995d40e9f8e96af936ee66da1ac03d9ec4a5a7760203392a2005b346101aa575f3660031901126101aa576020600354604051908152f35b346101aa5760203660031901126101aa576001600160a01b03610582610cd6565b165f526001602052602060405f2054604051908152f35b346101aa5760203660031901126101aa576105b2610cd6565b600854906105ca336001600160a01b03841614610dfd565b6001600160a01b03166001600160a01b03199190911617600855005b346101aa575f3660031901126101aa576020604051620151808152f35b346101aa575f3660031901126101aa5760206040516103e88152f35b346101aa5760403660031901126101aa57610638610cd6565b335f52600a60205260ff60405f2054161561065c5761065a9060243590610e35565b005b60405162461bcd60e51b81526020600482015260156024820152742737ba1030baba3437b934bd32b21036b4b73a32b960591b6044820152606490fd5b346101aa576106a736610d2c565b906106bd60018060a01b03600954163314610d75565b8180610791575b156107265760207fd3ac88d7d7371ae60bfd5df4b594ee30e643822079fc7e3329ec4d090ff11e41916106f8600754610def565b6007555b6001600160a01b03165f8181526005835260409020805460ff191660ff861515161790559261032e565b811580610770575b61075c575b60207fd3ac88d7d7371ae60bfd5df4b594ee30e643822079fc7e3329ec4d090ff11e41916106fc565b600754801561029b575f1901600755610733565b506001600160a01b0381165f9081526005602052604090205460ff1661072e565b506001600160a01b0381165f9081526005602052604090205460ff16156106c4565b346101aa575f3660031901126101aa576009546040516001600160a01b039091168152602090f35b346101aa575f3660031901126101aa57602060405160128152f35b346101aa575f3660031901126101aa576020600754604051908152f35b346101aa5760203660031901126101aa5760043567ffffffffffffffff81116101aa57366023820112156101aa5780600401359067ffffffffffffffff82116101aa576024810190602436918460051b0101116101aa5761087f60018060a01b03600954163314610d75565b5f5b82811061088a57005b6001906001600160a01b036108a86108a3838787610db7565b610ddb565b165f52600560205260ff60405f205416156108c4575b01610881565b818060a01b036108d86108a3838787610db7565b165f52600560205260405f208260ff198254161790556108f9600754610def565b600755818060a01b036109106108a3838787610db7565b167fd3ac88d7d7371ae60bfd5df4b594ee30e643822079fc7e3329ec4d090ff11e416020604051858152a26108be565b346101aa5760603660031901126101aa57610959610cd6565b610961610cec565b6001600160a01b0382165f8181526002602090815260408083203384529091529020549260443592916001850161099e575b5061045b9350610e91565b8385106109d2576109b28461045b96610d68565b5f9182526002602090815260408084203385529091529091205584610993565b60405162461bcd60e51b8152602060048201526016602482015275496e73756666696369656e7420616c6c6f77616e636560501b6044820152606490fd5b346101aa575f3660031901126101aa57335f52600560205260ff60405f20541615610b7957335f52600660205260405f2054158015610b56575b15610b1957335f5260066020524260405f2055600354610a6a8133610e35565b5f60045480151580610b0e575b610aba575b50610a8691610d5b565b6040519081524260208201527fa265860bad5040e1bef830652f782ec55a23a74fc92eb2c770e61d7d50cbb01560403392a2005b9050600754918215610afa57610a86928204918280610adc575b505091610a7c565b610ae981610af393610d68565b6004553330610e91565b8380610ad4565b634e487b7160e01b5f52601260045260245ffd5b506007541515610a77565b60405162461bcd60e51b8152602060048201526015602482015274416c726561647920636c61696d656420746f64617960581b6044820152606490fd5b50335f52600660205260405f205462015180810180911161029b57421015610a4a565b60405162461bcd60e51b81526020600482015260126024820152712737ba103b32b934b334b2b210343ab6b0b760711b6044820152606490fd5b346101aa575f3660031901126101aa5760205f54604051908152f35b346101aa5760403660031901126101aa57610be8610cd6565b335f8181526002602090815260408083206001600160a01b03909516808452948252918290206024359081905591519182527f8c5be1e5ebec7d5bd14f71427d1e84f3dd0314c0f7b2291e5b200ac8c7c3b92591a3602060405160018152f35b346101aa575f3660031901126101aa57604051604081019080821067ffffffffffffffff8311176104d4576104d091604052600a81526923b7b7b22237b63630b960b11b602082015260405191829182610d02565b346101aa5760203660031901126101aa576020906001600160a01b03610cc1610cd6565b165f526005825260ff60405f20541615158152f35b600435906001600160a01b03821682036101aa57565b602435906001600160a01b03821682036101aa57565b602060409281835280519182918282860152018484015e5f828201840152601f01601f1916010190565b60409060031901126101aa576004356001600160a01b03811681036101aa579060243580151581036101aa5790565b9190820180921161029b57565b9190820391821161029b57565b15610d7c57565b60405162461bcd60e51b81526020600482015260136024820152724e6f74206964656e74697479206f7261636c6560681b6044820152606490fd5b9190811015610dc75760051b0190565b634e487b7160e01b5f52603260045260245ffd5b356001600160a01b03811681036101aa5790565b5f19811461029b5760010190565b15610e0457565b60405162461bcd60e51b81526020600482015260096024820152682737ba1030b236b4b760b91b6044820152606490fd5b7fddf252ad1be2c89b69c2b068fc378daa952ba7f163c4a11628f55a4df523b3ef60205f92610e65858554610d5b565b845560018060a01b0316938484526001825260408420610e86828254610d5b565b9055604051908152a3565b60018060a01b031690815f5260016020528260405f205410610f085760207fddf252ad1be2c89b69c2b068fc378daa952ba7f163c4a11628f55a4df523b3ef91835f526001825260405f20610ee7868254610d68565b905560018060a01b031693845f526001825260405f20610e86828254610d5b565b60405162461bcd60e51b8152602060048201526014602482015273496e73756666696369656e742062616c616e636560601b6044820152606490fdfea264697066735822122065e8f4232fa9659fd145f4080d97e0ba5d2a9f58f09382b7aaf3000875d11f4c64736f6c63430008210033","linkReferences":{}},"methodIdentifiers":{"CLAIM_INTERVAL()":"49d3a0c1","UBI_FEE_BPS()":"41b23233","admin()":"f851a440","allowance(address,address)":"dd62ed3e","approve(address,uint256)":"095ea7b3","balanceOf(address)":"70a08231","batchVerifyHumans(address[])":"2abd25d6","calculateUBIFee(uint256)":"d5921f14","claimUBI()":"1a880ded","dailyUBIAmount()":"726e5cdc","decimals()":"313ce567","fundUBIPool(uint256)":"83adc2ff","identityOracle()":"356dc111","isVerifiedHuman(address)":"0063fa27","lastClaimTime(address)":"b77cf9c6","mint(address,uint256)":"40c10f19","minters(address)":"f46eccc4","name()":"06fdde03","setAdmin(address)":"704b6c02","setDailyUBIAmount(uint256)":"aa710ae1","setIdentityOracle(address)":"f88fd4c4","setMinter(address,bool)":"cf456ae7","symbol()":"95d89b41","totalSupply()":"18160ddd","totalVerifiedHumans()":"2bee8d32","transfer(address,uint256)":"a9059cbb","transferFrom(address,address,uint256)":"23b872dd","ubiPool()":"a06f7da7","verifyHuman(address,bool)":"3b79c4ae"},"id":4}