{"abi":[{"type":"constructor","inputs":[{"name":"_goodDollar","type":"address","internalType":"address"},{"name":"_treasury","type":"address","internalType":"address"},{"name":"_admin","type":"address","internalType":"address"}],"stateMutability":"nonpayable"},{"type":"receive","stateMutability":"payable"},{"type":"function","name":"admin","inputs":[],"outputs":[{"name":"","type":"address","internalType":"address"}],"stateMutability":"view"},{"type":"function","name":"claimableBalance","inputs":[],"outputs":[{"name":"","type":"uint256","internalType":"uint256"}],"stateMutability":"view"},{"type":"function","name":"dAppCount","inputs":[],"outputs":[{"name":"","type":"uint256","internalType":"uint256"}],"stateMutability":"view"},{"type":"function","name":"dAppList","inputs":[{"name":"","type":"uint256","internalType":"uint256"}],"outputs":[{"name":"","type":"address","internalType":"address"}],"stateMutability":"view"},{"type":"function","name":"goodDollar","inputs":[],"outputs":[{"name":"","type":"address","internalType":"contract IGoodDollarToken"}],"stateMutability":"view"},{"type":"function","name":"protocolBPS","inputs":[],"outputs":[{"name":"","type":"uint256","internalType":"uint256"}],"stateMutability":"view"},{"type":"function","name":"protocolTreasury","inputs":[],"outputs":[{"name":"","type":"address","internalType":"address"}],"stateMutability":"view"},{"type":"function","name":"registerDApp","inputs":[{"name":"dApp","type":"address","internalType":"address"},{"name":"dAppName","type":"string","internalType":"string"}],"outputs":[],"stateMutability":"nonpayable"},{"type":"function","name":"registeredDApps","inputs":[{"name":"","type":"address","internalType":"address"}],"outputs":[{"name":"","type":"bool","internalType":"bool"}],"stateMutability":"view"},{"type":"function","name":"releaseToUBI","inputs":[{"name":"recipient","type":"address","internalType":"address"},{"name":"amount","type":"uint256","internalType":"uint256"}],"outputs":[],"stateMutability":"nonpayable"},{"type":"function","name":"setFeeSplit","inputs":[{"name":"_ubiBPS","type":"uint256","internalType":"uint256"},{"name":"_protocolBPS","type":"uint256","internalType":"uint256"}],"outputs":[],"stateMutability":"nonpayable"},{"type":"function","name":"setTreasury","inputs":[{"name":"_treasury","type":"address","internalType":"address"}],"outputs":[],"stateMutability":"nonpayable"},{"type":"function","name":"setUBIClaimContract","inputs":[{"name":"_ubiClaimContract","type":"address","internalType":"address"}],"outputs":[],"stateMutability":"nonpayable"},{"type":"function","name":"setUBIRecipient","inputs":[{"name":"_ubiRecipient","type":"address","internalType":"address"}],"outputs":[],"stateMutability":"nonpayable"},{"type":"function","name":"splitFee","inputs":[{"name":"totalFee","type":"uint256","internalType":"uint256"},{"name":"dAppRecipient","type":"address","internalType":"address"}],"outputs":[{"name":"ubiShare","type":"uint256","internalType":"uint256"},{"name":"protocolShare","type":"uint256","internalType":"uint256"},{"name":"dAppShare","type":"uint256","internalType":"uint256"}],"stateMutability":"nonpayable"},{"type":"function","name":"splitFeeToken","inputs":[{"name":"totalFee","type":"uint256","internalType":"uint256"},{"name":"dAppRecipient","type":"address","internalType":"address"},{"name":"token","type":"address","internalType":"address"}],"outputs":[{"name":"ubiShare","type":"uint256","internalType":"uint256"},{"name":"protocolShare","type":"uint256","internalType":"uint256"},{"name":"dAppShare","type":"uint256","internalType":"uint256"}],"stateMutability":"nonpayable"},{"type":"function","name":"totalFeesCollected","inputs":[],"outputs":[{"name":"","type":"uint256","internalType":"uint256"}],"stateMutability":"view"},{"type":"function","name":"totalUBIFunded","inputs":[],"outputs":[{"name":"","type":"uint256","internalType":"uint256"}],"stateMutability":"view"},{"type":"function","name":"ubiBPS","inputs":[],"outputs":[{"name":"","type":"uint256","internalType":"uint256"}],"stateMutability":"view"},{"type":"function","name":"ubiClaimContract","inputs":[],"outputs":[{"name":"","type":"address","internalType":"address"}],"stateMutability":"view"},{"type":"function","name":"ubiRecipient","inputs":[],"outputs":[{"name":"","type":"address","internalType":"address"}],"stateMutability":"view"},{"type":"function","name":"withdrawETH","inputs":[],"outputs":[],"stateMutability":"nonpayable"},{"type":"event","name":"DAppRegistered","inputs":[{"name":"dApp","type":"address","indexed":true,"internalType":"address"},{"name":"name","type":"string","indexed":false,"internalType":"string"}],"anonymous":false},{"type":"event","name":"FeeSplit","inputs":[{"name":"dApp","type":"address","indexed":true,"internalType":"address"},{"name":"totalFee","type":"uint256","indexed":false,"internalType":"uint256"},{"name":"ubiShare","type":"uint256","indexed":false,"internalType":"uint256"},{"name":"protocolShare","type":"uint256","indexed":false,"internalType":"uint256"},{"name":"dAppShare","type":"uint256","indexed":false,"internalType":"uint256"}],"anonymous":false}],"bytecode":{"object":"0x60a0346100d957601f61111438819003918201601f19168301916001600160401b038311848410176100dd578084926060946040528339810103126100d957610047816100f1565b906100606040610059602084016100f1565b92016100f1565b610d055f556106836001556001600160a01b03928316608052600280546001600160a01b0319908116938516938417909155600380548216949092169390931790556005805490921617905560405161100e90816101068239608051818181610300015281816108f201528181610b340152610c890152f35b5f80fd5b634e487b7160e01b5f52604160045260245ffd5b51906001600160a01b03821682036100d95756fe6080604052600436101561001a575b3615610018575f80fd5b005b5f5f3560e01c8063078a8be914610d115780630fc1c0c014610cb8578063119e5bf314610c74578063212e7c3114610aef5780632957b4bd14610ad257806360c6d8ae14610ab557806364d6def91461086e57806366521893146108515780637c393cfd146108335780637cb4eea2146105375780637d61958b1461050e5780637e6335c714610492578063803db96d1461046957806383c1c526146104105780638581ddf5146103f2578063bb6a99d9146103ae578063c33f0d4e14610385578063c4f45423146102d3578063dea05bad14610294578063e086e5ec1461018f578063f0f44260146101425763f851a44014610117575061000e565b3461013f578060031936011261013f576003546040516001600160a01b039091168152602090f35b80fd5b503461013f57602036600319011261013f5761015c610e5b565b61017160018060a01b03600354163314610eb3565b60018060a01b03166001600160601b0360a01b600254161760025580f35b503461013f578060031936011261013f576101b560018060a01b03600354163314610eb3565b4780156102665760025482918291829182916001600160a01b03165af13d15610261573d67ffffffffffffffff811161024d5760405190610200601f8201601f191660200183610f26565b81528260203d92013e5b156102125780f35b60405162461bcd60e51b8152602060048201526013602482015272115512081d1c985b9cd9995c8819985a5b1959606a1b6044820152606490fd5b634e487b7160e01b83526041600452602483fd5b61020a565b60405162461bcd60e51b81526020600482015260066024820152650dcde408aa8960d31b6044820152606490fd5b503461013f57602036600319011261013f5760209060ff906040906001600160a01b036102bf610e5b565b168152600684522054166040519015158152f35b503461013f578060031936011261013f576040516370a0823160e01b8152306004820152906020826024817f00000000000000000000000000000000000000000000000000000000000000006001600160a01b03165afa9081156103795790610342575b602090604051908152f35b506020813d602011610371575b8161035c60209383610f26565b8101031261036d5760209051610337565b5f80fd5b3d915061034f565b604051903d90823e3d90fd5b503461013f578060031936011261013f576005546040516001600160a01b039091168152602090f35b503461013f57602036600319011261013f576004359060075482101561013f5760206103d983610e87565b905460405160039290921b1c6001600160a01b03168152f35b503461013f578060031936011261013f576020600954604051908152f35b503461013f57602036600319011261013f5761042a610e5b565b61043f60018060a01b03600354163314610eb3565b6001600160a01b0316610453811515610eeb565b6001600160601b0360a01b600454161760045580f35b503461013f578060031936011261013f576002546040516001600160a01b039091168152602090f35b503461013f57604036600319011261013f57600435602435906104c060018060a01b03600354163314610eb3565b6127106104cd8383610fcb565b116104da57825560015580f35b60405162461bcd60e51b815260206004820152600c60248201526b45786365656473203130302560a01b6044820152606490fd5b503461013f578060031936011261013f576004546040516001600160a01b039091168152602090f35b503461013f57606036600319011261013f57600435610554610e71565b906044356001600160a01b0381169081900361082f57610575821515610f60565b6005546001600160a01b0316156107f357612710610594855484610f97565b04916127106105a560015483610f97565b04936105ba856105b58685610fbe565b610fbe565b6040516323b872dd60e01b81523360048201523060248201526044810184905290936020826064818b855af19182156107ae5761062d926107d6575b5060055460405163a9059cbb60e01b81526001600160a01b0390911660048201526024810187905291602090839081906044820190565b03818b855af19182156107ae5761067a926107b9575b5060025460405163a9059cbb60e01b81526001600160a01b0390911660048201526024810188905291602090839081906044820190565b03818b855af19081156107ae576106cd936020938793610793575b5060405163a9059cbb60e01b81526001600160a01b0390911660048201526024810192909252909283919082908a9082906044820190565b03925af18015610788576107579495965061075b575b506106f081600854610fcb565b600855604080519182526020820185905281018590526060810182905233907f0dbf6466fc85a1dfc483035dd7c09f8326cee61f37a6cfa6c7097da85140e0609080608081015b0390a2604051938493846040919493926060820195825260208201520152565b0390f35b61077c9060203d602011610781575b6107748183610f26565b810190610f48565b6106e3565b503d61076a565b6040513d88823e3d90fd5b6107a990853d8711610781576107748183610f26565b610695565b6040513d8a823e3d90fd5b6107d19060203d602011610781576107748183610f26565b610643565b6107ee9060203d602011610781576107748183610f26565b6105f6565b60405162461bcd60e51b81526020600482015260146024820152731d589a549958da5c1a595b9d081b9bdd081cd95d60621b6044820152606490fd5b8380fd5b503461013f578060031936011261013f576020600154604051908152f35b503461013f578060031936011261013f5760209054604051908152f35b503461036d57604036600319011261036d5760043561088b610e71565b610896821515610f60565b6127106108a45f5484610f97565b04906127106108b560015485610f97565b04926108c5846105b58584610fbe565b6040516323b872dd60e01b8152336004820152306024820152604481018390529092906001600160a01b037f000000000000000000000000000000000000000000000000000000000000000016906020816064815f865af18015610a8d57610a98575b50803b1561036d576040516383adc2ff60e01b8152600481018690525f8160248183865af18015610a8d57610a76575b5060025460405163a9059cbb60e01b81526001600160a01b039091166004820152602481018790529060208280604481015b03818b855af19081156107ae576109dc936020938793610793575060405163a9059cbb60e01b81526001600160a01b0390911660048201526024810192909252909283919082908a9082906044820190565b03925af180156107885761075794959650610a59575b506109ff81600854610fcb565b600855610a0e84600954610fcb565b600955604080519182526020820185905281018590526060810182905233907f0dbf6466fc85a1dfc483035dd7c09f8326cee61f37a6cfa6c7097da85140e060908060808101610737565b610a719060203d602011610781576107748183610f26565b6109f2565b610a839197505f90610f26565b5f9561098a610958565b6040513d5f823e3d90fd5b610ab09060203d602011610781576107748183610f26565b610928565b3461036d575f36600319011261036d576020600854604051908152f35b3461036d575f36600319011261036d576020600754604051908152f35b3461036d57604036600319011261036d57610b08610e5b565b60045460243591906001600160a01b03163303610c40576040516370a0823160e01b81523060048201527f00000000000000000000000000000000000000000000000000000000000000006001600160a01b03169290602081602481875afa908115610a8d575f91610c0e575b508111610bd25760405163a9059cbb60e01b81526001600160a01b03929092166004830152602482015290602090829060449082905f905af18015610a8d57610bba57005b6100189060203d602011610781576107748183610f26565b60405162461bcd60e51b8152602060048201526014602482015273696e73756666696369656e742062616c616e636560601b6044820152606490fd5b90506020813d602011610c38575b81610c2960209383610f26565b8101031261036d575184610b75565b3d9150610c1c565b60405162461bcd60e51b815260206004820152600c60248201526b4e6f7420554249436c61696d60a01b6044820152606490fd5b3461036d575f36600319011261036d576040517f00000000000000000000000000000000000000000000000000000000000000006001600160a01b03168152602090f35b3461036d57602036600319011261036d57610cd1610e5b565b610ce660018060a01b03600354163314610eb3565b6001600160a01b0316610cfa811515610eeb565b6001600160601b0360a01b60055416176005555f80f35b3461036d57604036600319011261036d57610d2a610e5b565b60243567ffffffffffffffff811161036d573660238201121561036d5780600401359167ffffffffffffffff831161036d57366024848401011161036d57610d7d60018060a01b03600354163314610eb3565b6001600160a01b03165f8181526006602052604090205490929060ff1615610da157005b825f52600660205260405f20600160ff1982541617905560075468010000000000000000811015610e47577f1b452462b371f0b1fe9691fc8b7ba96e05962067f6beb9a744cd2c78be0322dc92602492610e0383600160409501600755610e87565b81549060031b9088821b9160018060a01b03901b19161790558083519485936020855282602086015201848401375f828201840152601f01601f19168101030190a2005b634e487b7160e01b5f52604160045260245ffd5b600435906001600160a01b038216820361036d57565b602435906001600160a01b038216820361036d57565b600754811015610e9f5760075f5260205f2001905f90565b634e487b7160e01b5f52603260045260245ffd5b15610eba57565b60405162461bcd60e51b81526020600482015260096024820152682737ba1030b236b4b760b91b6044820152606490fd5b15610ef257565b60405162461bcd60e51b815260206004820152600c60248201526b7a65726f206164647265737360a01b6044820152606490fd5b90601f8019910116810190811067ffffffffffffffff821117610e4757604052565b9081602091031261036d5751801515810361036d5790565b15610f6757565b60405162461bcd60e51b81526020600482015260086024820152675a65726f2066656560c01b6044820152606490fd5b81810292918115918404141715610faa57565b634e487b7160e01b5f52601160045260245ffd5b91908203918211610faa57565b91908201809211610faa5756fea26469706673582212206765ef3796b437133ae7d448fc68b35b2f9e325fdccff62ef576a8a06bf218c364736f6c63430008210033","linkReferences":{}},"methodIdentifiers":{"admin()":"f851a440","claimableBalance()":"c4f45423","dAppCount()":"2957b4bd","dAppList(uint256)":"bb6a99d9","goodDollar()":"119e5bf3","protocolBPS()":"7c393cfd","protocolTreasury()":"803db96d","registerDApp(address,string)":"078a8be9","registeredDApps(address)":"dea05bad","releaseToUBI(address,uint256)":"212e7c31","setFeeSplit(uint256,uint256)":"7e6335c7","setTreasury(address)":"f0f44260","setUBIClaimContract(address)":"83c1c526","setUBIRecipient(address)":"0fc1c0c0","splitFee(uint256,address)":"64d6def9","splitFeeToken(uint256,address,address)":"7cb4eea2","totalFeesCollected()":"60c6d8ae","totalUBIFunded()":"8581ddf5","ubiBPS()":"66521893","ubiClaimContract()":"7d61958b","ubiRecipient()":"c33f0d4e","withdrawETH()":"e086e5ec"},"id":25}