{"abi":[{"type":"constructor","inputs":[{"name":"_goodDollar","type":"address","internalType":"address"},{"name":"_treasury","type":"address","internalType":"address"},{"name":"_admin","type":"address","internalType":"address"}],"stateMutability":"nonpayable"},{"type":"receive","stateMutability":"payable"},{"type":"function","name":"admin","inputs":[],"outputs":[{"name":"","type":"address","internalType":"address"}],"stateMutability":"view"},{"type":"function","name":"claimableBalance","inputs":[],"outputs":[{"name":"","type":"uint256","internalType":"uint256"}],"stateMutability":"view"},{"type":"function","name":"dAppCount","inputs":[],"outputs":[{"name":"","type":"uint256","internalType":"uint256"}],"stateMutability":"view"},{"type":"function","name":"dAppList","inputs":[{"name":"","type":"uint256","internalType":"uint256"}],"outputs":[{"name":"","type":"address","internalType":"address"}],"stateMutability":"view"},{"type":"function","name":"goodDollar","inputs":[],"outputs":[{"name":"","type":"address","internalType":"contract IGoodDollarToken"}],"stateMutability":"view"},{"type":"function","name":"protocolBPS","inputs":[],"outputs":[{"name":"","type":"uint256","internalType":"uint256"}],"stateMutability":"view"},{"type":"function","name":"protocolTreasury","inputs":[],"outputs":[{"name":"","type":"address","internalType":"address"}],"stateMutability":"view"},{"type":"function","name":"registerDApp","inputs":[{"name":"dApp","type":"address","internalType":"address"},{"name":"dAppName","type":"string","internalType":"string"}],"outputs":[],"stateMutability":"nonpayable"},{"type":"function","name":"registeredDApps","inputs":[{"name":"","type":"address","internalType":"address"}],"outputs":[{"name":"","type":"bool","internalType":"bool"}],"stateMutability":"view"},{"type":"function","name":"releaseToUBI","inputs":[{"name":"recipient","type":"address","internalType":"address"},{"name":"amount","type":"uint256","internalType":"uint256"}],"outputs":[],"stateMutability":"nonpayable"},{"type":"function","name":"setFeeSplit","inputs":[{"name":"_ubiBPS","type":"uint256","internalType":"uint256"},{"name":"_protocolBPS","type":"uint256","internalType":"uint256"}],"outputs":[],"stateMutability":"nonpayable"},{"type":"function","name":"setGoodDollar","inputs":[{"name":"_goodDollar","type":"address","internalType":"address"}],"outputs":[],"stateMutability":"nonpayable"},{"type":"function","name":"setTreasury","inputs":[{"name":"_treasury","type":"address","internalType":"address"}],"outputs":[],"stateMutability":"nonpayable"},{"type":"function","name":"setUBIClaimContract","inputs":[{"name":"_ubiClaimContract","type":"address","internalType":"address"}],"outputs":[],"stateMutability":"nonpayable"},{"type":"function","name":"setUBIRecipient","inputs":[{"name":"_ubiRecipient","type":"address","internalType":"address"}],"outputs":[],"stateMutability":"nonpayable"},{"type":"function","name":"splitFee","inputs":[{"name":"totalFee","type":"uint256","internalType":"uint256"},{"name":"dAppRecipient","type":"address","internalType":"address"}],"outputs":[{"name":"ubiShare","type":"uint256","internalType":"uint256"},{"name":"protocolShare","type":"uint256","internalType":"uint256"},{"name":"dAppShare","type":"uint256","internalType":"uint256"}],"stateMutability":"nonpayable"},{"type":"function","name":"splitFeeToken","inputs":[{"name":"totalFee","type":"uint256","internalType":"uint256"},{"name":"dAppRecipient","type":"address","internalType":"address"},{"name":"token","type":"address","internalType":"address"}],"outputs":[{"name":"ubiShare","type":"uint256","internalType":"uint256"},{"name":"protocolShare","type":"uint256","internalType":"uint256"},{"name":"dAppShare","type":"uint256","internalType":"uint256"}],"stateMutability":"nonpayable"},{"type":"function","name":"totalFeesCollected","inputs":[],"outputs":[{"name":"","type":"uint256","internalType":"uint256"}],"stateMutability":"view"},{"type":"function","name":"totalUBIFunded","inputs":[],"outputs":[{"name":"","type":"uint256","internalType":"uint256"}],"stateMutability":"view"},{"type":"function","name":"ubiBPS","inputs":[],"outputs":[{"name":"","type":"uint256","internalType":"uint256"}],"stateMutability":"view"},{"type":"function","name":"ubiClaimContract","inputs":[],"outputs":[{"name":"","type":"address","internalType":"address"}],"stateMutability":"view"},{"type":"function","name":"ubiRecipient","inputs":[],"outputs":[{"name":"","type":"address","internalType":"address"}],"stateMutability":"view"},{"type":"function","name":"withdrawETH","inputs":[],"outputs":[],"stateMutability":"nonpayable"},{"type":"event","name":"DAppRegistered","inputs":[{"name":"dApp","type":"address","indexed":true,"internalType":"address"},{"name":"name","type":"string","indexed":false,"internalType":"string"}],"anonymous":false},{"type":"event","name":"FeeSplit","inputs":[{"name":"dApp","type":"address","indexed":true,"internalType":"address"},{"name":"totalFee","type":"uint256","indexed":false,"internalType":"uint256"},{"name":"ubiShare","type":"uint256","indexed":false,"internalType":"uint256"},{"name":"protocolShare","type":"uint256","indexed":false,"internalType":"uint256"},{"name":"dAppShare","type":"uint256","indexed":false,"internalType":"uint256"}],"anonymous":false},{"type":"event","name":"GoodDollarUpdated","inputs":[{"name":"oldAddr","type":"address","indexed":true,"internalType":"address"},{"name":"newAddr","type":"address","indexed":true,"internalType":"address"}],"anonymous":false}],"bytecode":{"object":"0x60803460bd57601f61123b38819003918201601f19168301916001600160401b0383118484101760c15780849260609460405283398101031260bd5760428160d5565b906057604060516020840160d5565b920160d5565b60015f8190556107d060025561068360035580546001600160a01b03199081166001600160a01b03958616179091556004805482169385169384179055600580548216949092169390931790556007805490921617905560405161115290816100e98239f35b5f80fd5b634e487b7160e01b5f52604160045260245ffd5b51906001600160a01b038216820360bd5756fe6080604052600436101561001a575b3615610018575f80fd5b005b5f5f3560e01c8063078a8be914610d815780630fc1c0c014610d28578063119e5bf314610d00578063212e7c3114610b795780632957b4bd14610b5c57806360c6d8ae14610b3f57806364d6def9146108e757806366521893146108c95780637c393cfd146108ab5780637cb4eea2146105b15780637d61958b146105885780637e6335c71461050b578063803db96d146104e257806383c1c526146104895780638581ddf51461046b578063bb6a99d914610427578063c33f0d4e146103fe578063c4f4542314610365578063c7888a6d146102de578063dea05bad1461029f578063e086e5ec1461019a578063f0f442601461014d5763f851a44014610122575061000e565b3461014a578060031936011261014a576005546040516001600160a01b039091168152602090f35b80fd5b503461014a57602036600319011261014a57610167610ecb565b61017c60018060a01b03600554163314610f23565b60018060a01b03166001600160601b0360a01b600454161760045580f35b503461014a578060031936011261014a576101c060018060a01b03600554163314610f23565b4780156102715760045482918291829182916001600160a01b03165af13d1561026c573d67ffffffffffffffff8111610258576040519061020b601f8201601f191660200183610f96565b81528260203d92013e5b1561021d5780f35b60405162461bcd60e51b8152602060048201526013602482015272115512081d1c985b9cd9995c8819985a5b1959606a1b6044820152606490fd5b634e487b7160e01b83526041600452602483fd5b610215565b60405162461bcd60e51b81526020600482015260066024820152650dcde408aa8960d31b6044820152606490fd5b503461014a57602036600319011261014a5760209060ff906040906001600160a01b036102ca610ecb565b168152600884522054166040519015158152f35b503461014a57602036600319011261014a576102f8610ecb565b61030d60018060a01b03600554163314610f23565b6001600160a01b0316610321811515610f5b565b600180546001600160a01b0319811683179091556001600160a01b03167fd511f9596ede52c0682115223470c4bdd21d4d183744ce5dcef883cf02ae159c8380a380f35b503461014a578060031936011261014a576001546040516370a0823160e01b81523060048201529190602090839060249082906001600160a01b03165afa9081156103f257906103bb575b602090604051908152f35b506020813d6020116103ea575b816103d560209383610f96565b810103126103e657602090516103b0565b5f80fd5b3d91506103c8565b604051903d90823e3d90fd5b503461014a578060031936011261014a576007546040516001600160a01b039091168152602090f35b503461014a57602036600319011261014a576004359060095482101561014a57602061045283610ef7565b905460405160039290921b1c6001600160a01b03168152f35b503461014a578060031936011261014a576020600b54604051908152f35b503461014a57602036600319011261014a576104a3610ecb565b6104b860018060a01b03600554163314610f23565b6001600160a01b03166104cc811515610f5b565b6001600160601b0360a01b600654161760065580f35b503461014a578060031936011261014a576004546040516001600160a01b039091168152602090f35b503461014a57604036600319011261014a576004356024359061053960018060a01b03600554163314610f23565b61271061054683836110bb565b116105545760025560035580f35b60405162461bcd60e51b815260206004820152600c60248201526b45786365656473203130302560a01b6044820152606490fd5b503461014a578060031936011261014a576006546040516001600160a01b039091168152602090f35b503461014a57606036600319011261014a576004356105ce610ee1565b6044356001600160a01b038116939084900361014a576105ec6110c8565b6105f783151561100e565b6007546001600160a01b03161561086f5761271061061760025485611045565b049261271061062860035483611045565b049461063d86610638878561106c565b61106c565b6040516323b872dd60e01b81523360048201523060248201526044810184905290949060208160648188875af19081156108455790610683918691610850575b50611079565b60075460405163a9059cbb60e01b81526001600160a01b0390911660048201526024810187905260208160448188875af190811561084557906106cd9186916107f4575b50610fd0565b6004805460405163a9059cbb60e01b81526001600160a01b03909116918101919091526024810188905260208160448188875af19081156108455792602092610721889361075896899161082e5750610fd0565b60405163a9059cbb60e01b81526001600160a01b039091166004820152602481019290925290928391908290879082906044820190565b03925af1908115610823579161077c84926001946107f09796916107f45750610fd0565b61078881600a546110bb565b600a55604080519182526020820187905281018790526060810184905233907f0dbf6466fc85a1dfc483035dd7c09f8326cee61f37a6cfa6c7097da85140e0609080608081015b0390a255604051938493846040919493926060820195825260208201520152565b0390f35b610816915060203d60201161081c575b61080e8183610f96565b810190610fb8565b5f6106c7565b503d610804565b6040513d85823e3d90fd5b6108169150863d881161081c5761080e8183610f96565b6040513d87823e3d90fd5b610869915060203d60201161081c5761080e8183610f96565b5f61067d565b60405162461bcd60e51b81526020600482015260146024820152731d589a549958da5c1a595b9d081b9bdd081cd95d60621b6044820152606490fd5b503461014a578060031936011261014a576020600354604051908152f35b503461014a578060031936011261014a576020600254604051908152f35b50346103e65760403660031901126103e65760043590610905610ee1565b61090d6110c8565b61091883151561100e565b61271061092760025485611045565b049161271061093860035486611045565b049361094885610638868461106c565b6001546040516323b872dd60e01b81523360048201523060248201526044810184905291949190602090829060649082905f906001600160a01b03165af18015610b345761099c915f916108505750611079565b6001546001600160a01b0316803b156103e6575f80916024604051809481936383adc2ff60e01b83528b60048401525af18015610b3457610b1f575b506001546004805460405163a9059cbb60e01b81526001600160a01b0391821692810192909252602482018990529091602091839160449183918991165af1908115610b1457610a7392610a3660209388938891610afd5750610fd0565b60015460405163a9059cbb60e01b81526001600160a01b039283166004820152602481019390935291938492909116908290879082906044820190565b03925af19081156108235791610a9784926001946107f09796916107f45750610fd0565b610aa381600a546110bb565b600a55610ab286600b546110bb565b600b55604080519182526020820187905281018790526060810184905233907f0dbf6466fc85a1dfc483035dd7c09f8326cee61f37a6cfa6c7097da85140e0609080608081016107cf565b6108169150853d871161081c5761080e8183610f96565b6040513d86823e3d90fd5b610b2c9193505f90610f96565b5f915f6109d8565b6040513d5f823e3d90fd5b346103e6575f3660031901126103e6576020600a54604051908152f35b346103e6575f3660031901126103e6576020600954604051908152f35b346103e65760403660031901126103e657610b92610ecb565b60243590610b9e6110c8565b6006546001600160a01b03163303610ccc576001546040516370a0823160e01b81523060048201526001600160a01b039091169290602081602481875afa908115610b34575f91610c9a575b508111610c5e5760405163a9059cbb60e01b81526001600160a01b03929092166004830152602482015290602090829060449082905f905af18015610b3457610c39915f91610c3f5750610fd0565b60015f55005b610c58915060203d60201161081c5761080e8183610f96565b826106c7565b60405162461bcd60e51b8152602060048201526014602482015273696e73756666696369656e742062616c616e636560601b6044820152606490fd5b90506020813d602011610cc4575b81610cb560209383610f96565b810103126103e6575184610bea565b3d9150610ca8565b60405162461bcd60e51b815260206004820152600c60248201526b4e6f7420554249436c61696d60a01b6044820152606490fd5b346103e6575f3660031901126103e6576001546040516001600160a01b039091168152602090f35b346103e65760203660031901126103e657610d41610ecb565b610d5660018060a01b03600554163314610f23565b6001600160a01b0316610d6a811515610f5b565b6001600160601b0360a01b60075416176007555f80f35b346103e65760403660031901126103e657610d9a610ecb565b60243567ffffffffffffffff81116103e657366023820112156103e65780600401359167ffffffffffffffff83116103e65736602484840101116103e657610ded60018060a01b03600554163314610f23565b6001600160a01b03165f8181526008602052604090205490929060ff1615610e1157005b825f52600860205260405f20600160ff1982541617905560095468010000000000000000811015610eb7577f1b452462b371f0b1fe9691fc8b7ba96e05962067f6beb9a744cd2c78be0322dc92602492610e7383600160409501600955610ef7565b81549060031b9088821b9160018060a01b03901b19161790558083519485936020855282602086015201848401375f828201840152601f01601f19168101030190a2005b634e487b7160e01b5f52604160045260245ffd5b600435906001600160a01b03821682036103e657565b602435906001600160a01b03821682036103e657565b600954811015610f0f5760095f5260205f2001905f90565b634e487b7160e01b5f52603260045260245ffd5b15610f2a57565b60405162461bcd60e51b81526020600482015260096024820152682737ba1030b236b4b760b91b6044820152606490fd5b15610f6257565b60405162461bcd60e51b815260206004820152600c60248201526b7a65726f206164647265737360a01b6044820152606490fd5b90601f8019910116810190811067ffffffffffffffff821117610eb757604052565b908160209103126103e6575180151581036103e65790565b15610fd757565b60405162461bcd60e51b815260206004820152600f60248201526e1d1c985b9cd9995c8819985a5b1959608a1b6044820152606490fd5b1561101557565b60405162461bcd60e51b81526020600482015260086024820152675a65726f2066656560c01b6044820152606490fd5b8181029291811591840414171561105857565b634e487b7160e01b5f52601160045260245ffd5b9190820391821161105857565b1561108057565b60405162461bcd60e51b81526020600482015260136024820152721d1c985b9cd9995c919c9bdb4819985a5b1959606a1b6044820152606490fd5b9190820180921161105857565b60025f54146110d75760025f55565b60405162461bcd60e51b815260206004820152601f60248201527f5265656e7472616e637947756172643a207265656e7472616e742063616c6c006044820152606490fdfea2646970667358221220d20404102a2ee5ae6a71d2cf4abacf7e6b5e888494788d7e78556ee7ab9d8be664736f6c63430008210033","linkReferences":{}},"methodIdentifiers":{"admin()":"f851a440","claimableBalance()":"c4f45423","dAppCount()":"2957b4bd","dAppList(uint256)":"bb6a99d9","goodDollar()":"119e5bf3","protocolBPS()":"7c393cfd","protocolTreasury()":"803db96d","registerDApp(address,string)":"078a8be9","registeredDApps(address)":"dea05bad","releaseToUBI(address,uint256)":"212e7c31","setFeeSplit(uint256,uint256)":"7e6335c7","setGoodDollar(address)":"c7888a6d","setTreasury(address)":"f0f44260","setUBIClaimContract(address)":"83c1c526","setUBIRecipient(address)":"0fc1c0c0","splitFee(uint256,address)":"64d6def9","splitFeeToken(uint256,address,address)":"7cb4eea2","totalFeesCollected()":"60c6d8ae","totalUBIFunded()":"8581ddf5","ubiBPS()":"66521893","ubiClaimContract()":"7d61958b","ubiRecipient()":"c33f0d4e","withdrawETH()":"e086e5ec"},"id":10}