{"abi":[{"type":"constructor","inputs":[{"name":"_goodDollar","type":"address","internalType":"address"},{"name":"_treasury","type":"address","internalType":"address"},{"name":"_admin","type":"address","internalType":"address"}],"stateMutability":"nonpayable"},{"type":"receive","stateMutability":"payable"},{"type":"function","name":"admin","inputs":[],"outputs":[{"name":"","type":"address","internalType":"address"}],"stateMutability":"view"},{"type":"function","name":"claimableBalance","inputs":[],"outputs":[{"name":"","type":"uint256","internalType":"uint256"}],"stateMutability":"view"},{"type":"function","name":"dAppCount","inputs":[],"outputs":[{"name":"","type":"uint256","internalType":"uint256"}],"stateMutability":"view"},{"type":"function","name":"dAppList","inputs":[{"name":"","type":"uint256","internalType":"uint256"}],"outputs":[{"name":"","type":"address","internalType":"address"}],"stateMutability":"view"},{"type":"function","name":"goodDollar","inputs":[],"outputs":[{"name":"","type":"address","internalType":"contract IGoodDollarToken"}],"stateMutability":"view"},{"type":"function","name":"protocolBPS","inputs":[],"outputs":[{"name":"","type":"uint256","internalType":"uint256"}],"stateMutability":"view"},{"type":"function","name":"protocolTreasury","inputs":[],"outputs":[{"name":"","type":"address","internalType":"address"}],"stateMutability":"view"},{"type":"function","name":"registerDApp","inputs":[{"name":"dApp","type":"address","internalType":"address"},{"name":"dAppName","type":"string","internalType":"string"}],"outputs":[],"stateMutability":"nonpayable"},{"type":"function","name":"registeredDApps","inputs":[{"name":"","type":"address","internalType":"address"}],"outputs":[{"name":"","type":"bool","internalType":"bool"}],"stateMutability":"view"},{"type":"function","name":"releaseToUBI","inputs":[{"name":"recipient","type":"address","internalType":"address"},{"name":"amount","type":"uint256","internalType":"uint256"}],"outputs":[],"stateMutability":"nonpayable"},{"type":"function","name":"setFeeSplit","inputs":[{"name":"_ubiBPS","type":"uint256","internalType":"uint256"},{"name":"_protocolBPS","type":"uint256","internalType":"uint256"}],"outputs":[],"stateMutability":"nonpayable"},{"type":"function","name":"setGoodDollar","inputs":[{"name":"_goodDollar","type":"address","internalType":"address"}],"outputs":[],"stateMutability":"nonpayable"},{"type":"function","name":"setTreasury","inputs":[{"name":"_treasury","type":"address","internalType":"address"}],"outputs":[],"stateMutability":"nonpayable"},{"type":"function","name":"setUBIClaimContract","inputs":[{"name":"_ubiClaimContract","type":"address","internalType":"address"}],"outputs":[],"stateMutability":"nonpayable"},{"type":"function","name":"setUBIRecipient","inputs":[{"name":"_ubiRecipient","type":"address","internalType":"address"}],"outputs":[],"stateMutability":"nonpayable"},{"type":"function","name":"splitFee","inputs":[{"name":"totalFee","type":"uint256","internalType":"uint256"},{"name":"dAppRecipient","type":"address","internalType":"address"}],"outputs":[{"name":"ubiShare","type":"uint256","internalType":"uint256"},{"name":"protocolShare","type":"uint256","internalType":"uint256"},{"name":"dAppShare","type":"uint256","internalType":"uint256"}],"stateMutability":"nonpayable"},{"type":"function","name":"splitFeeToken","inputs":[{"name":"totalFee","type":"uint256","internalType":"uint256"},{"name":"dAppRecipient","type":"address","internalType":"address"},{"name":"token","type":"address","internalType":"address"}],"outputs":[{"name":"ubiShare","type":"uint256","internalType":"uint256"},{"name":"protocolShare","type":"uint256","internalType":"uint256"},{"name":"dAppShare","type":"uint256","internalType":"uint256"}],"stateMutability":"nonpayable"},{"type":"function","name":"totalFeesCollected","inputs":[],"outputs":[{"name":"","type":"uint256","internalType":"uint256"}],"stateMutability":"view"},{"type":"function","name":"totalUBIFunded","inputs":[],"outputs":[{"name":"","type":"uint256","internalType":"uint256"}],"stateMutability":"view"},{"type":"function","name":"ubiBPS","inputs":[],"outputs":[{"name":"","type":"uint256","internalType":"uint256"}],"stateMutability":"view"},{"type":"function","name":"ubiClaimContract","inputs":[],"outputs":[{"name":"","type":"address","internalType":"address"}],"stateMutability":"view"},{"type":"function","name":"ubiRecipient","inputs":[],"outputs":[{"name":"","type":"address","internalType":"address"}],"stateMutability":"view"},{"type":"function","name":"withdrawETH","inputs":[],"outputs":[],"stateMutability":"nonpayable"},{"type":"event","name":"DAppRegistered","inputs":[{"name":"dApp","type":"address","indexed":true,"internalType":"address"},{"name":"name","type":"string","indexed":false,"internalType":"string"}],"anonymous":false},{"type":"event","name":"FeeSplit","inputs":[{"name":"dApp","type":"address","indexed":true,"internalType":"address"},{"name":"totalFee","type":"uint256","indexed":false,"internalType":"uint256"},{"name":"ubiShare","type":"uint256","indexed":false,"internalType":"uint256"},{"name":"protocolShare","type":"uint256","indexed":false,"internalType":"uint256"},{"name":"dAppShare","type":"uint256","indexed":false,"internalType":"uint256"}],"anonymous":false},{"type":"event","name":"GoodDollarUpdated","inputs":[{"name":"oldAddr","type":"address","indexed":true,"internalType":"address"},{"name":"newAddr","type":"address","indexed":true,"internalType":"address"}],"anonymous":false}],"bytecode":{"object":"0x60803460b857601f6111c438819003918201601f19168301916001600160401b0383118484101760bc5780849260609460405283398101031260b85760428160d0565b906057604060516020840160d0565b920160d0565b610d056001556106836002555f80546001600160a01b03199081166001600160a01b0395861617909155600380548216938516938417905560048054821694909216939093179055600680549092161790556040516110e090816100e48239f35b5f80fd5b634e487b7160e01b5f52604160045260245ffd5b51906001600160a01b038216820360b85756fe6080604052600436101561001a575b3615610018575f80fd5b005b5f5f3560e01c8063078a8be914610da55780630fc1c0c014610d4c578063119e5bf314610d25578063212e7c3114610bac5780632957b4bd14610b8f57806360c6d8ae14610b7257806364d6def91461091c57806366521893146108fe5780637c393cfd146108e05780637cb4eea2146105ad5780637d61958b146105845780637e6335c714610507578063803db96d146104de57806383c1c526146104855780638581ddf514610467578063bb6a99d914610423578063c33f0d4e146103fa578063c4f4542314610362578063c7888a6d146102de578063dea05bad1461029f578063e086e5ec1461019a578063f0f442601461014d5763f851a44014610122575061000e565b3461014a578060031936011261014a576004546040516001600160a01b039091168152602090f35b80fd5b503461014a57602036600319011261014a57610167610eef565b61017c60018060a01b03600454163314610f47565b60018060a01b03166001600160601b0360a01b600354161760035580f35b503461014a578060031936011261014a576101c060018060a01b03600454163314610f47565b4780156102715760035482918291829182916001600160a01b03165af13d1561026c573d67ffffffffffffffff8111610258576040519061020b601f8201601f191660200183610fba565b81528260203d92013e5b1561021d5780f35b60405162461bcd60e51b8152602060048201526013602482015272115512081d1c985b9cd9995c8819985a5b1959606a1b6044820152606490fd5b634e487b7160e01b83526041600452602483fd5b610215565b60405162461bcd60e51b81526020600482015260066024820152650dcde408aa8960d31b6044820152606490fd5b503461014a57602036600319011261014a5760209060ff906040906001600160a01b036102ca610eef565b168152600784522054166040519015158152f35b503461014a57602036600319011261014a576102f8610eef565b61030d60018060a01b03600454163314610f47565b6001600160a01b0316610321811515610f7f565b81546001600160a01b03198116821783556001600160a01b03167fd511f9596ede52c0682115223470c4bdd21d4d183744ce5dcef883cf02ae159c8380a380f35b503461014a578060031936011261014a5780546040516370a0823160e01b81523060048201529190602090839060249082906001600160a01b03165afa9081156103ee57906103b7575b602090604051908152f35b506020813d6020116103e6575b816103d160209383610fba565b810103126103e257602090516103ac565b5f80fd5b3d91506103c4565b604051903d90823e3d90fd5b503461014a578060031936011261014a576006546040516001600160a01b039091168152602090f35b503461014a57602036600319011261014a576004359060085482101561014a57602061044e83610f1b565b905460405160039290921b1c6001600160a01b03168152f35b503461014a578060031936011261014a576020600a54604051908152f35b503461014a57602036600319011261014a5761049f610eef565b6104b460018060a01b03600454163314610f47565b6001600160a01b03166104c8811515610f7f565b6001600160601b0360a01b600554161760055580f35b503461014a578060031936011261014a576003546040516001600160a01b039091168152602090f35b503461014a57604036600319011261014a576004356024359061053560018060a01b03600454163314610f47565b612710610542838361109d565b116105505760015560025580f35b60405162461bcd60e51b815260206004820152600c60248201526b45786365656473203130302560a01b6044820152606490fd5b503461014a578060031936011261014a576005546040516001600160a01b039091168152602090f35b503461014a57606036600319011261014a576004356105ca610f05565b906044356001600160a01b038116908190036108dc576105eb821515611032565b6006546001600160a01b0316156108a05761271061060b60015484611069565b049161271061061c60025483611069565b04936106318561062c8685611090565b611090565b6040516323b872dd60e01b8152336004820152306024820152604481018490529093906020816064818b865af190811561083b578891610881575b50156108465760065460405163a9059cbb60e01b81526001600160a01b03909116600482015260248101869052906020826044818b855af191821561083b576106f6926106c0918a916107ea575b50610ff4565b60035460405163a9059cbb60e01b81526001600160a01b0390911660048201526024810188905291602090839081906044820190565b03818b855af190811561083b576107529361071b87936020958c916108245750610ff4565b60405163a9059cbb60e01b81526001600160a01b0390911660048201526024810192909252909283919082908a9082906044820190565b03925af19081156108195790610773916107e6959697916107ea5750610ff4565b61077f8160095461109d565b600955604080519182526020820185905281018590526060810182905233907f0dbf6466fc85a1dfc483035dd7c09f8326cee61f37a6cfa6c7097da85140e0609080608081015b0390a2604051938493846040919493926060820195825260208201520152565b0390f35b61080c915060203d602011610812575b6108048183610fba565b810190610fdc565b5f6106ba565b503d6107fa565b6040513d88823e3d90fd5b61080c9150863d8811610812576108048183610fba565b6040513d8a823e3d90fd5b60405162461bcd60e51b81526020600482015260136024820152721d1c985b9cd9995c919c9bdb4819985a5b1959606a1b6044820152606490fd5b61089a915060203d602011610812576108048183610fba565b5f61066c565b60405162461bcd60e51b81526020600482015260146024820152731d589a549958da5c1a595b9d081b9bdd081cd95d60621b6044820152606490fd5b8380fd5b503461014a578060031936011261014a576020600254604051908152f35b503461014a578060031936011261014a576020600154604051908152f35b50346103e25760403660031901126103e257600435610939610f05565b610944821515611032565b61271061095360015484611069565b049061271061096460025485611069565b04926109748461062c8584611090565b5f80546040516323b872dd60e01b8152336004820152306024820152604481018590529294929160209183916064918391906001600160a01b03165af18015610b4a57610b55575b505f546001600160a01b0316803b156103e2575f80916024604051809481936383adc2ff60e01b83528a60048401525af18015610b4a57610b35575b50855460035460405163a9059cbb60e01b81526001600160a01b0391821660048201526024810188905291602091839160449183918c91165af18015610b2a57610a8c92610a5086926020948b91610b135750610ff4565b885460405163a9059cbb60e01b81526001600160a01b0392831660048201526024810193909352919384929091169082908a9082906044820190565b03925af19081156108195790610aad916107e6959697916107ea5750610ff4565b610ab98160095461109d565b600955610ac884600a5461109d565b600a55604080519182526020820185905281018590526060810182905233907f0dbf6466fc85a1dfc483035dd7c09f8326cee61f37a6cfa6c7097da85140e0609080608081016107c6565b61080c9150853d8711610812576108048183610fba565b6040513d89823e3d90fd5b610b429196505f90610fba565b5f945f6109f8565b6040513d5f823e3d90fd5b610b6d9060203d602011610812576108048183610fba565b6109bc565b346103e2575f3660031901126103e2576020600954604051908152f35b346103e2575f3660031901126103e2576020600854604051908152f35b346103e25760403660031901126103e257610bc5610eef565b60055460243591906001600160a01b03163303610cf1575f546040516370a0823160e01b81523060048201526001600160a01b039091169290602081602481875afa908115610b4a575f91610cbf575b508111610c835760405163a9059cbb60e01b81526001600160a01b03929092166004830152602482015290602090829060449082905f905af18015610b4a57610018915f91610c645750610ff4565b610c7d915060203d602011610812576108048183610fba565b826106ba565b60405162461bcd60e51b8152602060048201526014602482015273696e73756666696369656e742062616c616e636560601b6044820152606490fd5b90506020813d602011610ce9575b81610cda60209383610fba565b810103126103e2575184610c15565b3d9150610ccd565b60405162461bcd60e51b815260206004820152600c60248201526b4e6f7420554249436c61696d60a01b6044820152606490fd5b346103e2575f3660031901126103e2575f546040516001600160a01b039091168152602090f35b346103e25760203660031901126103e257610d65610eef565b610d7a60018060a01b03600454163314610f47565b6001600160a01b0316610d8e811515610f7f565b6001600160601b0360a01b60065416176006555f80f35b346103e25760403660031901126103e257610dbe610eef565b60243567ffffffffffffffff81116103e257366023820112156103e25780600401359167ffffffffffffffff83116103e25736602484840101116103e257610e1160018060a01b03600454163314610f47565b6001600160a01b03165f8181526007602052604090205490929060ff1615610e3557005b825f52600760205260405f20600160ff1982541617905560085468010000000000000000811015610edb577f1b452462b371f0b1fe9691fc8b7ba96e05962067f6beb9a744cd2c78be0322dc92602492610e9783600160409501600855610f1b565b81549060031b9088821b9160018060a01b03901b19161790558083519485936020855282602086015201848401375f828201840152601f01601f19168101030190a2005b634e487b7160e01b5f52604160045260245ffd5b600435906001600160a01b03821682036103e257565b602435906001600160a01b03821682036103e257565b600854811015610f335760085f5260205f2001905f90565b634e487b7160e01b5f52603260045260245ffd5b15610f4e57565b60405162461bcd60e51b81526020600482015260096024820152682737ba1030b236b4b760b91b6044820152606490fd5b15610f8657565b60405162461bcd60e51b815260206004820152600c60248201526b7a65726f206164647265737360a01b6044820152606490fd5b90601f8019910116810190811067ffffffffffffffff821117610edb57604052565b908160209103126103e2575180151581036103e25790565b15610ffb57565b60405162461bcd60e51b815260206004820152600f60248201526e1d1c985b9cd9995c8819985a5b1959608a1b6044820152606490fd5b1561103957565b60405162461bcd60e51b81526020600482015260086024820152675a65726f2066656560c01b6044820152606490fd5b8181029291811591840414171561107c57565b634e487b7160e01b5f52601160045260245ffd5b9190820391821161107c57565b9190820180921161107c5756fea2646970667358221220a93c73e6c67e455ef2ae74bc297e06552f612a54c75593f8519721537f7973a064736f6c63430008210033","linkReferences":{}},"methodIdentifiers":{"admin()":"f851a440","claimableBalance()":"c4f45423","dAppCount()":"2957b4bd","dAppList(uint256)":"bb6a99d9","goodDollar()":"119e5bf3","protocolBPS()":"7c393cfd","protocolTreasury()":"803db96d","registerDApp(address,string)":"078a8be9","registeredDApps(address)":"dea05bad","releaseToUBI(address,uint256)":"212e7c31","setFeeSplit(uint256,uint256)":"7e6335c7","setGoodDollar(address)":"c7888a6d","setTreasury(address)":"f0f44260","setUBIClaimContract(address)":"83c1c526","setUBIRecipient(address)":"0fc1c0c0","splitFee(uint256,address)":"64d6def9","splitFeeToken(uint256,address,address)":"7cb4eea2","totalFeesCollected()":"60c6d8ae","totalUBIFunded()":"8581ddf5","ubiBPS()":"66521893","ubiClaimContract()":"7d61958b","ubiRecipient()":"c33f0d4e","withdrawETH()":"e086e5ec"},"id":7}