{"abi":[{"type":"function","name":"getResult","inputs":[{"name":"resultId","type":"uint256","internalType":"uint256"}],"outputs":[{"name":"","type":"tuple","internalType":"struct TestRegistry.TestResult","components":[{"name":"tester","type":"address","internalType":"address"},{"name":"contractTested","type":"address","internalType":"address"},{"name":"functionSelector","type":"bytes4","internalType":"bytes4"},{"name":"success","type":"bool","internalType":"bool"},{"name":"gasUsed","type":"uint256","internalType":"uint256"},{"name":"timestamp","type":"uint256","internalType":"uint256"},{"name":"note","type":"string","internalType":"string"}]}],"stateMutability":"view"},{"type":"function","name":"getResultCount","inputs":[],"outputs":[{"name":"","type":"uint256","internalType":"uint256"}],"stateMutability":"view"},{"type":"function","name":"getResults","inputs":[{"name":"from","type":"uint256","internalType":"uint256"},{"name":"to","type":"uint256","internalType":"uint256"}],"outputs":[{"name":"results","type":"tuple[]","internalType":"struct TestRegistry.TestResult[]","components":[{"name":"tester","type":"address","internalType":"address"},{"name":"contractTested","type":"address","internalType":"address"},{"name":"functionSelector","type":"bytes4","internalType":"bytes4"},{"name":"success","type":"bool","internalType":"bool"},{"name":"gasUsed","type":"uint256","internalType":"uint256"},{"name":"timestamp","type":"uint256","internalType":"uint256"},{"name":"note","type":"string","internalType":"string"}]}],"stateMutability":"view"},{"type":"function","name":"getResultsByTester","inputs":[{"name":"tester","type":"address","internalType":"address"}],"outputs":[{"name":"matches","type":"tuple[]","internalType":"struct TestRegistry.TestResult[]","components":[{"name":"tester","type":"address","internalType":"address"},{"name":"contractTested","type":"address","internalType":"address"},{"name":"functionSelector","type":"bytes4","internalType":"bytes4"},{"name":"success","type":"bool","internalType":"bool"},{"name":"gasUsed","type":"uint256","internalType":"uint256"},{"name":"timestamp","type":"uint256","internalType":"uint256"},{"name":"note","type":"string","internalType":"string"}]},{"name":"ids","type":"uint256[]","internalType":"uint256[]"}],"stateMutability":"view"},{"type":"function","name":"logResult","inputs":[{"name":"contractTested","type":"address","internalType":"address"},{"name":"functionSelector","type":"bytes4","internalType":"bytes4"},{"name":"success","type":"bool","internalType":"bool"},{"name":"gasUsed","type":"uint256","internalType":"uint256"},{"name":"note","type":"string","internalType":"string"}],"outputs":[{"name":"resultId","type":"uint256","internalType":"uint256"}],"stateMutability":"nonpayable"},{"type":"event","name":"TestResultLogged","inputs":[{"name":"resultId","type":"uint256","indexed":true,"internalType":"uint256"},{"name":"tester","type":"address","indexed":true,"internalType":"address"},{"name":"contractTested","type":"address","indexed":true,"internalType":"address"},{"name":"functionSelector","type":"bytes4","indexed":false,"internalType":"bytes4"},{"name":"success","type":"bool","indexed":false,"internalType":"bool"},{"name":"gasUsed","type":"uint256","indexed":false,"internalType":"uint256"},{"name":"timestamp","type":"uint256","indexed":false,"internalType":"uint256"},{"name":"note","type":"string","indexed":false,"internalType":"string"}],"anonymous":false}],"bytecode":{"object":"0x60808060405234601557610af2908161001a8239f35b5f80fdfe6080806040526004361015610012575f80fd5b5f3560e01c90816329fad5fe14610722575080634db6652b146105bc57806356fc8ec51461024457806374a8a4b9146100ef5763995e433914610053575f80fd5b346100eb5760203660031901126100eb5760043561006f6108dd565b505f548110156100a65761008e6100886100a29261082d565b506109ae565b604051918291602083526020830190610751565b0390f35b60405162461bcd60e51b815260206004820152601a60248201527f5465737452656769737472793a206f7574206f662072616e67650000000000006044820152606490fd5b5f80fd5b346100eb5760403660031901126100eb576004356024355f548183116101ff57808310156101ba57808210156101a8575b5081810390811161019457600181018091116101945761013f81610913565b905f5b81811061015f57604051602080825281906100a2908201866107d5565b808401908185116101945761017861008860019361082d565b6101828286610962565b5261018d8185610962565b5001610142565b634e487b7160e01b5f52601160045260245ffd5b5f198101915081116101945782610120565b60405162461bcd60e51b815260206004820152601f60248201527f5465737452656769737472793a2066726f6d206f7574206f662072616e6765006044820152606490fd5b60405162461bcd60e51b815260206004820152601b60248201527f5465737452656769737472793a20696e76616c69642072616e676500000000006044820152606490fd5b346100eb5760a03660031901126100eb5761025d61073b565b60243563ffffffff60e01b81168091036100eb57604435918215158093036100eb576064359060843567ffffffffffffffff81116100eb57366023820112156100eb5780600401359367ffffffffffffffff85116100eb57602482019160248636920101116100eb575f5494604051926102d684610887565b3384526020840194600160a01b600190031695868652604085019484865260608101958a87526080820183815260a0830190428252601f19601f880116996040519960208c01610326908c6108a3565b888b52888860208d0137888b016020015f90528d60c087019b8c52680100000000000000001115610595576103608e600181015f5561082d565b9590956105a957955185546001600160a01b0319166001600160a01b039182161786559151600186018054975192516001600160c81b0319909816919093161760409190911c63ffffffff60a01b161794151560c01b60ff60c01b16949094179093559151600282015590516003820155945180519099600496909601959067ffffffffffffffff8111610595576103f88754610976565b601f8111610544575b509089959493929160209b8c90601f83116001146104ab57927fa6d8f966d1fab894263fce1218014f22fbc2009fbe4f02ed3e74f0f3d28ec4fd98998360c097948997945f9a978b926104a0575b50508160011b918a199060031b1c19161790555b6040519788528d880152604087015242606087015260a060808701528160a0870152838601378301015260c08133958101030190a4604051908152f35b015190505f8061044f565b90601f999394959697989919831691845f52815f20925f5b81811061052957508460c098948b98947fa6d8f966d1fab894263fce1218014f22fbc2009fbe4f02ed3e74f0f3d28ec4fd9d9c98945f9c9860019510610511575b505050811b019055610463565b01518b1960f88460031b161c191690555f8080610504565b8383015185558f9c50600190940193602093840193016104c3565b81811115610401579a875f5260205f20601f830160051c906020841061058d575b81019c601f0160051c035f5b8181106105805750509a610401565b5f8e820155600101610571565b5f9150610565565b634e487b7160e01b5f52604160045260245ffd5b634e487b7160e01b5f525f60045260245ffd5b346100eb5760203660031901126100eb576105d561073b565b5f8054916001600160a01b031690805b8381106106eb57506105f681610913565b92610619610603836108c5565b9261061160405194856108a3565b8084526108c5565b602083019390601f19013685375f905f5b8381106106865761064d87878760206040519485946040865260408601906107d5565b918483038286015251918281520191905f5b81811061066d575050500390f35b825184528594506020938401939092019160010161065f565b816106908261082d565b50546001600160a01b0316146106a9575b60010161062a565b916106e36001916106bc6100888661082d565b6106c6828b610962565b526106d1818a610962565b50846106dd8289610962565b52610879565b9290506106a1565b826106f58261082d565b50546001600160a01b03161461070e575b6001016105e5565b9061071a600191610879565b919050610706565b346100eb575f3660031901126100eb576020905f548152f35b600435906001600160a01b03821682036100eb57565b90602060c06101009360018060a01b03815116845260018060a01b0383820151168385015263ffffffff60e01b60408201511660408501526060810151151560608501526080810151608085015260a081015160a0850152015160e060c084015280519182918260e0860152018484015e5f828201840152601f01601f1916010190565b9080602083519182815201916020808360051b8301019401925f915b83831061080057505050505090565b909192939460208061081e600193601f198682030187528951610751565b970193019301919392906107f1565b5f54811015610865575f8080526005919091027f290decd9548b62a8d60345a988386fc84ba6bc95484008f6362f93160ef3e5630191565b634e487b7160e01b5f52603260045260245ffd5b5f1981146101945760010190565b60e0810190811067ffffffffffffffff82111761059557604052565b90601f8019910116810190811067ffffffffffffffff82111761059557604052565b67ffffffffffffffff81116105955760051b60200190565b604051906108ea82610887565b606060c0835f81525f60208201525f60408201525f838201525f60808201525f60a08201520152565b9061091d826108c5565b61092a60405191826108a3565b828152809261093b601f19916108c5565b01905f5b82811061094b57505050565b6020906109566108dd565b8282850101520161093f565b80518210156108655760209160051b010190565b90600182811c921680156109a4575b602083101461099057565b634e487b7160e01b5f52602260045260245ffd5b91607f1691610985565b906040516109bb81610887565b82546001600160a01b03908116825260018401549081166020830152604081811b6001600160e01b0319168184015260c09190911c60ff161515606083015260028401546080830152600384015460a0830152516004939093018054919391849183915f91610a2982610976565b8085529160018116908115610a955750600114610a56575b505060c09291610a529103846108a3565b0152565b5f908152602081209092505b818310610a79575050810160200181610a52610a41565b6020919350806001915483858901015201910190918492610a62565b60ff191660208681019190915292151560051b85019092019250839150610a529050610a4156fea2646970667358221220bdd0fedcc50179b6fbcc0bdf34658576ca6bff60152d3f4d68f52548a839f90264736f6c63430008210033","linkReferences":{}},"methodIdentifiers":{"getResult(uint256)":"995e4339","getResultCount()":"29fad5fe","getResults(uint256,uint256)":"74a8a4b9","getResultsByTester(address)":"4db6652b","logResult(address,bytes4,bool,uint256,string)":"56fc8ec5"},"id":5}