{"abi":[{"type":"constructor","inputs":[{"name":"_asset","type":"address","internalType":"address"},{"name":"_lendPool","type":"address","internalType":"address"},{"name":"_gToken","type":"address","internalType":"address"},{"name":"_vault","type":"address","internalType":"address"}],"stateMutability":"nonpayable"},{"type":"function","name":"asset","inputs":[],"outputs":[{"name":"","type":"address","internalType":"address"}],"stateMutability":"view"},{"type":"function","name":"deployer","inputs":[],"outputs":[{"name":"","type":"address","internalType":"address"}],"stateMutability":"view"},{"type":"function","name":"deposit","inputs":[{"name":"amount","type":"uint256","internalType":"uint256"}],"outputs":[],"stateMutability":"nonpayable"},{"type":"function","name":"emergencyWithdraw","inputs":[],"outputs":[{"name":"","type":"uint256","internalType":"uint256"}],"stateMutability":"nonpayable"},{"type":"function","name":"gToken","inputs":[],"outputs":[{"name":"","type":"address","internalType":"address"}],"stateMutability":"view"},{"type":"function","name":"harvest","inputs":[],"outputs":[{"name":"profit","type":"uint256","internalType":"uint256"},{"name":"loss","type":"uint256","internalType":"uint256"}],"stateMutability":"nonpayable"},{"type":"function","name":"lendPool","inputs":[],"outputs":[{"name":"","type":"address","internalType":"contract IGoodLendPool"}],"stateMutability":"view"},{"type":"function","name":"paused","inputs":[],"outputs":[{"name":"","type":"bool","internalType":"bool"}],"stateMutability":"view"},{"type":"function","name":"setVault","inputs":[{"name":"_vault","type":"address","internalType":"address"}],"outputs":[],"stateMutability":"nonpayable"},{"type":"function","name":"totalAssets","inputs":[],"outputs":[{"name":"","type":"uint256","internalType":"uint256"}],"stateMutability":"view"},{"type":"function","name":"totalDeposited","inputs":[],"outputs":[{"name":"","type":"uint256","internalType":"uint256"}],"stateMutability":"view"},{"type":"function","name":"vault","inputs":[],"outputs":[{"name":"","type":"address","internalType":"address"}],"stateMutability":"view"},{"type":"function","name":"withdraw","inputs":[{"name":"amount","type":"uint256","internalType":"uint256"}],"outputs":[{"name":"","type":"uint256","internalType":"uint256"}],"stateMutability":"nonpayable"},{"type":"event","name":"Deposited","inputs":[{"name":"amount","type":"uint256","indexed":false,"internalType":"uint256"}],"anonymous":false},{"type":"event","name":"Harvested","inputs":[{"name":"profit","type":"uint256","indexed":false,"internalType":"uint256"},{"name":"loss","type":"uint256","indexed":false,"internalType":"uint256"}],"anonymous":false},{"type":"event","name":"Withdrawn","inputs":[{"name":"amount","type":"uint256","indexed":false,"internalType":"uint256"}],"anonymous":false},{"type":"error","name":"AssetMismatch","inputs":[]},{"type":"error","name":"IsPaused","inputs":[]},{"type":"error","name":"NotVault","inputs":[]},{"type":"error","name":"TransferFailed","inputs":[]}],"bytecode":{"object":"0x60c0346100ef57601f610c0138819003918201601f19168301916001600160401b038311848410176100f3578084926080946040528339810103126100ef5761004781610107565b9061005460208201610107565b61006c606061006560408501610107565b9301610107565b6080939093523360a052600180546001600160a01b039283166001600160a01b03199182161790915560028054938316938216939093179092555f8054919093169116179055604051610ae5908161011c823960805181818161018e0152818161033c015281816107db0152610982015260a05181818161028d015261055e0152f35b5f80fd5b634e487b7160e01b5f52604160045260245ffd5b51906001600160a01b03821682036100ef5756fe6080806040526004361015610012575f80fd5b5f905f3560e01c90816301e1d11414610841575080632e1a7d4d1461080a57806338d52e0f146107c65780634641257d146106ad5780635c975abb1461068b5780636817031b1461053657806376ffb9bd1461050e578063b6b55f25146102e5578063b786e1e5146102bc578063d5f3948814610277578063db2e21bc146100f4578063fbfa77cf146100cd5763ff50abdc146100ad575f80fd5b346100ca57806003193601126100ca576020600354604051908152f35b80fd5b50346100ca57806003193601126100ca57546040516001600160a01b039091168152602090f35b50346100ca57806003193601126100ca5780546001600160a01b03163381900361026857602491600160ff196004541617600455602060018060a01b0360025416604051948580926370a0823160e01b82523060048301525afa928315610227578193610234575b50809183610174575b60208383600355604051908152f35b600154604051631a4ca37b60e21b81526001600160a01b037f000000000000000000000000000000000000000000000000000000000000000081166004830152602482019690965291851660448301529093919250602091849160649183918691165af180156102275781906101f0575b60209250905f610165565b506020823d60201161021f575b8161020a602093836108c4565b8101031261021b57602091516101e5565b5f80fd5b3d91506101fd565b50604051903d90823e3d90fd5b9092506020813d602011610260575b81610250602093836108c4565b8101031261021b5751915f61015c565b3d9150610243565b6362df054560e01b8252600482fd5b50346100ca57806003193601126100ca576040517f00000000000000000000000000000000000000000000000000000000000000006001600160a01b03168152602090f35b50346100ca57806003193601126100ca576001546040516001600160a01b039091168152602090f35b503461021b57602036600319011261021b575f54600435906001600160a01b0316338190036104ff5760ff600454166104f0576040516323b872dd60e01b81526004810191909152306024820152604481018290527f0000000000000000000000000000000000000000000000000000000000000000906001600160a01b038216906020816064815f865af1908115610488575f916104d1575b50156104935760205f91604460018060a01b0360015416604051948593849263095ea7b360e01b845260048401528860248401525af1908115610488575f916104a2575b5015610493576001546001600160a01b0316803b1561021b57604051638b2a4df560e01b81526001600160a01b03929092166004830152602482018390523060448301525f908290606490829084905af1801561048857610473575b5060035481810180911161045f577f2a89b2e3d580398d6dc2db5e0f336b52602bbaa51afa9bb5cdf59239cf0d2bea91602091600355604051908152a180f35b634e487b7160e01b83526011600452602483fd5b6104809192505f906108c4565b5f905f61041f565b6040513d5f823e3d90fd5b6312171d8360e31b5f5260045ffd5b6104c4915060203d6020116104ca575b6104bc81836108c4565b810190610a97565b5f6103c3565b503d6104b2565b6104ea915060203d6020116104ca576104bc81836108c4565b5f61037f565b631309a56360e01b5f5260045ffd5b6362df054560e01b5f5260045ffd5b3461021b575f36600319011261021b576002546040516001600160a01b039091168152602090f35b3461021b57602036600319011261021b576004356001600160a01b0381169081900361021b577f00000000000000000000000000000000000000000000000000000000000000006001600160a01b03163303610646575f546001600160a01b0381166105f65781156105b1576001600160a01b031916175f55005b60405162461bcd60e51b815260206004820152601b60248201527f4c656e64696e6753747261746567793a207a65726f207661756c7400000000006044820152606490fd5b60405162461bcd60e51b815260206004820152602260248201527f4c656e64696e6753747261746567793a207661756c7420616c72656164792073604482015261195d60f21b6064820152608490fd5b60405162461bcd60e51b815260206004820152601d60248201527f4c656e64696e6753747261746567793a206e6f74206465706c6f7965720000006044820152606490fd5b3461021b575f36600319011261021b57602060ff600454166040519015158152f35b3461021b575f36600319011261021b575f546001600160a01b031633036104ff576002546040516370a0823160e01b8152306004820152905f908190602090849060249082906001600160a01b03165afa918215610488575f92610791575b6003546040945080841115610768575050610729600354836108fa565b916003555b7ffa07446fad45314351eb89109a154880278451332bb87f1824d435fe58da5939838051848152836020820152a182519182526020820152f35b8084929410610779575b505061072e565b81925090610786916108fa565b906003558380610772565b91506020833d6020116107be575b816107ac602093836108c4565b8101031261021b57604092519161070c565b3d915061079f565b3461021b575f36600319011261021b576040517f00000000000000000000000000000000000000000000000000000000000000006001600160a01b03168152602090f35b3461021b57602036600319011261021b575f546001600160a01b031633036104ff57602061083960043561091b565b604051908152f35b3461021b575f36600319011261021b576002546370a0823160e01b8252306004830152602090829060249082906001600160a01b03165afa8015610488575f90610891575b602090604051908152f35b506020813d6020116108bc575b816108ab602093836108c4565b8101031261021b5760209051610886565b3d915061089e565b90601f8019910116810190811067ffffffffffffffff8211176108e657604052565b634e487b7160e01b5f52604160045260245ffd5b9190820391821161090757565b634e487b7160e01b5f52601160045260245ffd5b6002546040516370a0823160e01b815230600482015290602090829060249082906001600160a01b03165afa908115610488575f91610a65575b50808211610a5d575b508015610a58576001545f8054604051631a4ca37b60e21b81526001600160a01b037f000000000000000000000000000000000000000000000000000000000000000081166004830152602482019590955290841660448201529260209284926064928492165af1908115610488575f91610a26575b506003548181811115610a155750505f6003555b7f430648de173157e069201c943adb2d4e340e7cf5b27b1b09c9cb852f03d63b566020604051838152a190565b610a1e916108fa565b6003556109e8565b90506020813d602011610a50575b81610a41602093836108c4565b8101031261021b57515f6109d4565b3d9150610a34565b505f90565b90505f61095e565b90506020813d602011610a8f575b81610a80602093836108c4565b8101031261021b57515f610955565b3d9150610a73565b9081602091031261021b5751801515810361021b579056fea26469706673582212207eed3172897d6caae3debcbdfa88e4f319490f75bf03517390a6ccbb3b46f42d64736f6c63430008210033","linkReferences":{}},"methodIdentifiers":{"asset()":"38d52e0f","deployer()":"d5f39488","deposit(uint256)":"b6b55f25","emergencyWithdraw()":"db2e21bc","gToken()":"76ffb9bd","harvest()":"4641257d","lendPool()":"b786e1e5","paused()":"5c975abb","setVault(address)":"6817031b","totalAssets()":"01e1d114","totalDeposited()":"ff50abdc","vault()":"fbfa77cf","withdraw(uint256)":"2e1a7d4d"},"id":3}