{"abi":[{"type":"constructor","inputs":[{"name":"_asset","type":"address","internalType":"address"},{"name":"_lendPool","type":"address","internalType":"address"},{"name":"_gToken","type":"address","internalType":"address"},{"name":"_vault","type":"address","internalType":"address"}],"stateMutability":"nonpayable"},{"type":"function","name":"asset","inputs":[],"outputs":[{"name":"","type":"address","internalType":"address"}],"stateMutability":"view"},{"type":"function","name":"deployer","inputs":[],"outputs":[{"name":"","type":"address","internalType":"address"}],"stateMutability":"view"},{"type":"function","name":"deposit","inputs":[{"name":"amount","type":"uint256","internalType":"uint256"}],"outputs":[],"stateMutability":"nonpayable"},{"type":"function","name":"emergencyWithdraw","inputs":[],"outputs":[{"name":"","type":"uint256","internalType":"uint256"}],"stateMutability":"nonpayable"},{"type":"function","name":"gToken","inputs":[],"outputs":[{"name":"","type":"address","internalType":"address"}],"stateMutability":"view"},{"type":"function","name":"harvest","inputs":[],"outputs":[{"name":"profit","type":"uint256","internalType":"uint256"},{"name":"loss","type":"uint256","internalType":"uint256"}],"stateMutability":"nonpayable"},{"type":"function","name":"lendPool","inputs":[],"outputs":[{"name":"","type":"address","internalType":"contract IGoodLendPool"}],"stateMutability":"view"},{"type":"function","name":"paused","inputs":[],"outputs":[{"name":"","type":"bool","internalType":"bool"}],"stateMutability":"view"},{"type":"function","name":"setVault","inputs":[{"name":"_vault","type":"address","internalType":"address"}],"outputs":[],"stateMutability":"nonpayable"},{"type":"function","name":"totalAssets","inputs":[],"outputs":[{"name":"","type":"uint256","internalType":"uint256"}],"stateMutability":"view"},{"type":"function","name":"totalDeposited","inputs":[],"outputs":[{"name":"","type":"uint256","internalType":"uint256"}],"stateMutability":"view"},{"type":"function","name":"vault","inputs":[],"outputs":[{"name":"","type":"address","internalType":"address"}],"stateMutability":"view"},{"type":"function","name":"withdraw","inputs":[{"name":"amount","type":"uint256","internalType":"uint256"}],"outputs":[{"name":"","type":"uint256","internalType":"uint256"}],"stateMutability":"nonpayable"},{"type":"event","name":"Deposited","inputs":[{"name":"amount","type":"uint256","indexed":false,"internalType":"uint256"}],"anonymous":false},{"type":"event","name":"Harvested","inputs":[{"name":"profit","type":"uint256","indexed":false,"internalType":"uint256"},{"name":"loss","type":"uint256","indexed":false,"internalType":"uint256"}],"anonymous":false},{"type":"event","name":"Withdrawn","inputs":[{"name":"amount","type":"uint256","indexed":false,"internalType":"uint256"}],"anonymous":false},{"type":"error","name":"AssetMismatch","inputs":[]},{"type":"error","name":"IsPaused","inputs":[]},{"type":"error","name":"NotVault","inputs":[]},{"type":"error","name":"TransferFailed","inputs":[]}],"bytecode":{"object":"0x60c0346100ef57601f610c7e38819003918201601f19168301916001600160401b038311848410176100f3578084926080946040528339810103126100ef5761004781610107565b9061005460208201610107565b61006c606061006560408501610107565b9301610107565b6080939093523360a052600180546001600160a01b039283166001600160a01b03199182161790915560028054938316938216939093179092555f8054919093169116179055604051610b62908161011c823960805181818161018e0152818161033c0152818161085801526109ff015260a05181818161028d01526105db0152f35b5f80fd5b634e487b7160e01b5f52604160045260245ffd5b51906001600160a01b03821682036100ef5756fe6080806040526004361015610012575f80fd5b5f905f3560e01c90816301e1d114146108be575080632e1a7d4d1461088757806338d52e0f146108435780634641257d1461072a5780635c975abb146107085780636817031b146105b357806376ffb9bd1461058b578063b6b55f25146102e5578063b786e1e5146102bc578063d5f3948814610277578063db2e21bc146100f4578063fbfa77cf146100cd5763ff50abdc146100ad575f80fd5b346100ca57806003193601126100ca576020600354604051908152f35b80fd5b50346100ca57806003193601126100ca57546040516001600160a01b039091168152602090f35b50346100ca57806003193601126100ca5780546001600160a01b03163381900361026857602491600160ff196004541617600455602060018060a01b0360025416604051948580926370a0823160e01b82523060048301525afa928315610227578193610234575b50809183610174575b60208383600355604051908152f35b600154604051631a4ca37b60e21b81526001600160a01b037f000000000000000000000000000000000000000000000000000000000000000081166004830152602482019690965291851660448301529093919250602091849160649183918691165af180156102275781906101f0575b60209250905f610165565b506020823d60201161021f575b8161020a60209383610941565b8101031261021b57602091516101e5565b5f80fd5b3d91506101fd565b50604051903d90823e3d90fd5b9092506020813d602011610260575b8161025060209383610941565b8101031261021b5751915f61015c565b3d9150610243565b6362df054560e01b8252600482fd5b50346100ca57806003193601126100ca576040517f00000000000000000000000000000000000000000000000000000000000000006001600160a01b03168152602090f35b50346100ca57806003193601126100ca576001546040516001600160a01b039091168152602090f35b503461021b57602036600319011261021b575f54600435906001600160a01b03163381900361057c5760ff6004541661056d576040516323b872dd60e01b81526004810191909152306024820152604481018290527f00000000000000000000000000000000000000000000000000000000000000006001600160a01b038116916020816064815f875af1908115610515575f9161054e575b50156105205760015460405163095ea7b360e01b81526001600160a01b039091166004820152602481018490526020816044815f875af1908115610515575f9161052f575b5015610520576001546001600160a01b0316803b1561021b57604051638b2a4df560e01b81526001600160a01b03929092166004830152602482018490523060448301525f908290606490829084905af1801561051557610500575b5060208391604460018060a01b0360015416604051948593849263095ea7b360e01b845260048401528160248401525af19081156104f55783916104c6575b50156104b7576003548181018091116104a3577f2a89b2e3d580398d6dc2db5e0f336b52602bbaa51afa9bb5cdf59239cf0d2bea91602091600355604051908152a180f35b634e487b7160e01b83526011600452602483fd5b6312171d8360e31b8252600482fd5b6104e8915060203d6020116104ee575b6104e08183610941565b810190610b14565b5f61045e565b503d6104d6565b6040513d85823e3d90fd5b602093505f61050e91610941565b5f9261041f565b6040513d5f823e3d90fd5b6312171d8360e31b5f5260045ffd5b610548915060203d6020116104ee576104e08183610941565b5f6103c3565b610567915060203d6020116104ee576104e08183610941565b5f61037e565b631309a56360e01b5f5260045ffd5b6362df054560e01b5f5260045ffd5b3461021b575f36600319011261021b576002546040516001600160a01b039091168152602090f35b3461021b57602036600319011261021b576004356001600160a01b0381169081900361021b577f00000000000000000000000000000000000000000000000000000000000000006001600160a01b031633036106c3575f546001600160a01b03811661067357811561062e576001600160a01b031916175f55005b60405162461bcd60e51b815260206004820152601b60248201527f4c656e64696e6753747261746567793a207a65726f207661756c7400000000006044820152606490fd5b60405162461bcd60e51b815260206004820152602260248201527f4c656e64696e6753747261746567793a207661756c7420616c72656164792073604482015261195d60f21b6064820152608490fd5b60405162461bcd60e51b815260206004820152601d60248201527f4c656e64696e6753747261746567793a206e6f74206465706c6f7965720000006044820152606490fd5b3461021b575f36600319011261021b57602060ff600454166040519015158152f35b3461021b575f36600319011261021b575f546001600160a01b0316330361057c576002546040516370a0823160e01b8152306004820152905f908190602090849060249082906001600160a01b03165afa918215610515575f9261080e575b60035460409450808411156107e55750506107a660035483610977565b916003555b7ffa07446fad45314351eb89109a154880278451332bb87f1824d435fe58da5939838051848152836020820152a182519182526020820152f35b80849294106107f6575b50506107ab565b8192509061080391610977565b9060035583806107ef565b91506020833d60201161083b575b8161082960209383610941565b8101031261021b576040925191610789565b3d915061081c565b3461021b575f36600319011261021b576040517f00000000000000000000000000000000000000000000000000000000000000006001600160a01b03168152602090f35b3461021b57602036600319011261021b575f546001600160a01b0316330361057c5760206108b6600435610998565b604051908152f35b3461021b575f36600319011261021b576002546370a0823160e01b8252306004830152602090829060249082906001600160a01b03165afa8015610515575f9061090e575b602090604051908152f35b506020813d602011610939575b8161092860209383610941565b8101031261021b5760209051610903565b3d915061091b565b90601f8019910116810190811067ffffffffffffffff82111761096357604052565b634e487b7160e01b5f52604160045260245ffd5b9190820391821161098457565b634e487b7160e01b5f52601160045260245ffd5b6002546040516370a0823160e01b815230600482015290602090829060249082906001600160a01b03165afa908115610515575f91610ae2575b50808211610ada575b508015610ad5576001545f8054604051631a4ca37b60e21b81526001600160a01b037f000000000000000000000000000000000000000000000000000000000000000081166004830152602482019590955290841660448201529260209284926064928492165af1908115610515575f91610aa3575b506003548181811115610a925750505f6003555b7f430648de173157e069201c943adb2d4e340e7cf5b27b1b09c9cb852f03d63b566020604051838152a190565b610a9b91610977565b600355610a65565b90506020813d602011610acd575b81610abe60209383610941565b8101031261021b57515f610a51565b3d9150610ab1565b505f90565b90505f6109db565b90506020813d602011610b0c575b81610afd60209383610941565b8101031261021b57515f6109d2565b3d9150610af0565b9081602091031261021b5751801515810361021b579056fea2646970667358221220f9017b9811fea3f187f850d50f104550790d517f90601be0210b6e06a00d7f4164736f6c63430008210033","linkReferences":{}},"methodIdentifiers":{"asset()":"38d52e0f","deployer()":"d5f39488","deposit(uint256)":"b6b55f25","emergencyWithdraw()":"db2e21bc","gToken()":"76ffb9bd","harvest()":"4641257d","lendPool()":"b786e1e5","paused()":"5c975abb","setVault(address)":"6817031b","totalAssets()":"01e1d114","totalDeposited()":"ff50abdc","vault()":"fbfa77cf","withdraw(uint256)":"2e1a7d4d"},"id":63}