{"abi":[{"type":"constructor","inputs":[{"name":"_goodDollar","type":"address","internalType":"address"},{"name":"_admin","type":"address","internalType":"address"}],"stateMutability":"nonpayable"},{"type":"function","name":"MIN_STAKE","inputs":[],"outputs":[{"name":"","type":"uint256","internalType":"uint256"}],"stateMutability":"view"},{"type":"function","name":"UNBONDING_PERIOD","inputs":[],"outputs":[{"name":"","type":"uint256","internalType":"uint256"}],"stateMutability":"view"},{"type":"function","name":"activeCount","inputs":[],"outputs":[{"name":"","type":"uint256","internalType":"uint256"}],"stateMutability":"view"},{"type":"function","name":"activeValidatorCount","inputs":[],"outputs":[{"name":"","type":"uint256","internalType":"uint256"}],"stateMutability":"view"},{"type":"function","name":"admin","inputs":[],"outputs":[{"name":"","type":"address","internalType":"address"}],"stateMutability":"view"},{"type":"function","name":"claimRewards","inputs":[],"outputs":[],"stateMutability":"nonpayable"},{"type":"function","name":"completeUnstake","inputs":[],"outputs":[],"stateMutability":"nonpayable"},{"type":"function","name":"getUnbondingRequest","inputs":[{"name":"validator","type":"address","internalType":"address"}],"outputs":[{"name":"amount","type":"uint256","internalType":"uint256"},{"name":"unbondAt","type":"uint256","internalType":"uint256"}],"stateMutability":"view"},{"type":"function","name":"goodDollar","inputs":[],"outputs":[{"name":"","type":"address","internalType":"contract IGoodDollarToken"}],"stateMutability":"view"},{"type":"function","name":"initiateUnstake","inputs":[{"name":"amount","type":"uint256","internalType":"uint256"}],"outputs":[],"stateMutability":"nonpayable"},{"type":"function","name":"meetsMinimumStake","inputs":[{"name":"amount","type":"uint256","internalType":"uint256"}],"outputs":[{"name":"","type":"bool","internalType":"bool"}],"stateMutability":"pure"},{"type":"function","name":"minStake","inputs":[],"outputs":[{"name":"","type":"uint256","internalType":"uint256"}],"stateMutability":"pure"},{"type":"function","name":"pendingRewards","inputs":[{"name":"validator","type":"address","internalType":"address"}],"outputs":[{"name":"","type":"uint256","internalType":"uint256"}],"stateMutability":"view"},{"type":"function","name":"rewardRateBPS","inputs":[],"outputs":[{"name":"","type":"uint256","internalType":"uint256"}],"stateMutability":"view"},{"type":"function","name":"slash","inputs":[{"name":"validator","type":"address","internalType":"address"},{"name":"reason","type":"string","internalType":"string"}],"outputs":[],"stateMutability":"nonpayable"},{"type":"function","name":"slashBPS","inputs":[],"outputs":[{"name":"","type":"uint256","internalType":"uint256"}],"stateMutability":"view"},{"type":"function","name":"stake","inputs":[{"name":"amount","type":"uint256","internalType":"uint256"},{"name":"name","type":"string","internalType":"string"},{"name":"endpoint","type":"string","internalType":"string"}],"outputs":[],"stateMutability":"nonpayable"},{"type":"function","name":"totalStaked","inputs":[],"outputs":[{"name":"","type":"uint256","internalType":"uint256"}],"stateMutability":"view"},{"type":"function","name":"validatorCount","inputs":[],"outputs":[{"name":"","type":"uint256","internalType":"uint256"}],"stateMutability":"view"},{"type":"function","name":"validatorList","inputs":[{"name":"","type":"uint256","internalType":"uint256"}],"outputs":[{"name":"","type":"address","internalType":"address"}],"stateMutability":"view"},{"type":"function","name":"validators","inputs":[{"name":"","type":"address","internalType":"address"}],"outputs":[{"name":"staked","type":"uint256","internalType":"uint256"},{"name":"rewardDebt","type":"uint256","internalType":"uint256"},{"name":"lastStakeTime","type":"uint256","internalType":"uint256"},{"name":"isActive","type":"bool","internalType":"bool"},{"name":"name","type":"string","internalType":"string"},{"name":"endpoint","type":"string","internalType":"string"},{"name":"unbonding","type":"tuple","internalType":"struct ValidatorStakingDevnet.UnbondingRequest","components":[{"name":"amount","type":"uint256","internalType":"uint256"},{"name":"unbondAt","type":"uint256","internalType":"uint256"}]}],"stateMutability":"view"},{"type":"event","name":"RewardsClaimed","inputs":[{"name":"validator","type":"address","indexed":true,"internalType":"address"},{"name":"amount","type":"uint256","indexed":false,"internalType":"uint256"}],"anonymous":false},{"type":"event","name":"UnstakeCompleted","inputs":[{"name":"validator","type":"address","indexed":true,"internalType":"address"},{"name":"amount","type":"uint256","indexed":false,"internalType":"uint256"}],"anonymous":false},{"type":"event","name":"UnstakeInitiated","inputs":[{"name":"validator","type":"address","indexed":true,"internalType":"address"},{"name":"amount","type":"uint256","indexed":false,"internalType":"uint256"},{"name":"unbondAt","type":"uint256","indexed":false,"internalType":"uint256"}],"anonymous":false},{"type":"event","name":"ValidatorSlashed","inputs":[{"name":"validator","type":"address","indexed":true,"internalType":"address"},{"name":"amount","type":"uint256","indexed":false,"internalType":"uint256"},{"name":"reason","type":"string","indexed":false,"internalType":"string"}],"anonymous":false},{"type":"event","name":"ValidatorStaked","inputs":[{"name":"validator","type":"address","indexed":true,"internalType":"address"},{"name":"amount","type":"uint256","indexed":false,"internalType":"uint256"},{"name":"name","type":"string","indexed":false,"internalType":"string"}],"anonymous":false},{"type":"error","name":"BelowMinStake","inputs":[]},{"type":"error","name":"InsufficientStake","inputs":[]},{"type":"error","name":"NoUnbondingRequest","inputs":[]},{"type":"error","name":"NotAdmin","inputs":[]},{"type":"error","name":"NotValidator","inputs":[]},{"type":"error","name":"UnbondingAlreadyPending","inputs":[]},{"type":"error","name":"UnbondingNotReady","inputs":[{"name":"readyAt","type":"uint256","internalType":"uint256"},{"name":"currentTime","type":"uint256","internalType":"uint256"}]}],"bytecode":{"object":"0x60a0346100b457601f61155138819003918201601f19168301916001600160401b038311848410176100b85780849260409485528339810103126100b457610052602061004b836100cc565b92016100cc565b6101f45f556103e86001556001600160a01b03918216608052600780546001600160a01b0319169190921617905560405161147090816100e1823960805181818161048c015281816106bf015281816108ee01528181610b7501526110210152f35b5f80fd5b634e487b7160e01b5f52604160045260245ffd5b51906001600160a01b03821682036100b45756fe6080806040526004361015610012575f80fd5b5f905f3560e01c9081630f43a6771461105057508063119e5bf31461100c57806317849ba014610ff05780632340e8d314610fd3578063303b5e1a14610ae557806331d7a26214610aba578063372500ab146108a0578063375b3c0a1461087c578063402b71dd146105cf5780634331ed1f146105b157806343e5e92d1461056157806363803b231461041a5780636b42d963146103ef578063817b1cd2146103d1578063a660f280146103b3578063ae5ac92114610284578063b048e05614610240578063cb1c2b5c1461021b578063d9a912ec146101fd578063f851a440146101d45763fa52c7d814610105575f80fd5b346101d15760203660031901126101d1576040906001600160a01b03610129611098565b168152600260205220805460018201549160028101546101c060ff6003840154166101b261015960048601611150565b61016560058701611150565b9260076040519761017589611112565b6006810154895201549560208801968752604051998a998a5260208a015260408901521515606088015261010060808801526101008701906111f0565b9085820360a08701526111f0565b915160c08401525160e08301520390f35b80fd5b50346101d157806003193601126101d1576007546040516001600160a01b039091168152602090f35b50346101d157806003193601126101d157602060405162093a808152f35b50346101d157806003193601126101d157602060405169021e19e0c9bab24000008152f35b50346101d15760203660031901126101d157600435906003548210156101d157602061026b836110ae565b905460405160039290921b1c6001600160a01b03168152f35b50346101d15760203660031901126101d1576004353382526002602052604082206003810160ff815416156103a457815491838310610395576006810192835461038657846102d291611266565b81556102e084600554611266565b60055562093a8042019283421161037257908469021e19e0c9bab24000009285602060405161030e81611112565b8481520152558360078201555410610356575b5060405191825260208201527f9cee5eacd317086e5050733a5dad16ef5aaec185de792371a9625bfee2a3213b60403392a280f35b60ff19815416905561036960065461133c565b6006555f610321565b634e487b7160e01b86526011600452602486fd5b631698163560e31b8652600486fd5b6378de4a6960e11b8552600485fd5b632ec5b44960e01b8452600484fd5b50346101d157806003193601126101d1576020600154604051908152f35b50346101d157806003193601126101d1576020600554604051908152f35b50346101d15760203660031901126101d157602060405169021e19e0c9bab240000060043510158152f35b50346101d157806003193601126101d15733815260026020526040812060068101908154918215610552576007820190815480421061053c5750908480925555541561052e575b60405163a9059cbb60e01b815233600482015260248101829052602081604481866001600160a01b037f0000000000000000000000000000000000000000000000000000000000000000165af18015610523576104c59184916104f4575b506112fe565b6040519081527fdf2b996992aeaae3212b8d32b9c3c224196146804bed6814ec28d864b4eb3fc560203392a280f35b610516915060203d60201161051c575b61050e818361112e565b810190611214565b5f6104bf565b503d610504565b6040513d85823e3d90fd5b61053733611348565b610461565b6315a13ed560e11b865260045242602452604485fd5b63bf5c43fd60e01b8452600484fd5b50346101d15760203660031901126101d1576040906007826001600160a01b03610589611098565b1692838152600260205260068282200154938152600260205220015482519182526020820152f35b50346101d157806003193601126101d1576020600654604051908152f35b5034610796576040366003190112610796576105e9611098565b9060243567ffffffffffffffff81116107965761060a90369060040161106a565b600754909391906001600160a01b0316330361086d576001600160a01b0382165f8181526002602052604090206003810180549294919260ff168015610860575b1561081b57825492600681019161271061067261066985548861122c565b60015490611273565b04948086116107de5750610687858354611266565b825561069585600554611266565b6005555b69021e19e0c9bab24000008254106107b3575b50541590816107a9575b5061079a575b507f00000000000000000000000000000000000000000000000000000000000000006001600160a01b0316803b15610796575f80916024604051809481936383adc2ff60e01b83528760048401525af1801561078b57610751575b5061074b7f074c8604eab659bccd1619a91a9588244a2442723fdcb05af0aa39da9fc6865793949560405193849384611239565b0390a280f35b7f074c8604eab659bccd1619a91a9588244a2442723fdcb05af0aa39da9fc686579394505f61077f9161112e565b61074b5f949350610717565b6040513d5f823e3d90fd5b5f80fd5b6107a390611348565b5f6106bc565b905054155f6106b6565b60ff8154166107cb575b805460ff191690555f6106ac565b6107d660065461133c565b6006556107bd565b806107f86107ef61080c9389611266565b91600554611266565b6005555f8455845480821161081357611266565b8355610699565b905080611266565b60405162461bcd60e51b815260206004820152601760248201527f4e6f7420616374697665206f7220756e626f6e64696e670000000000000000006044820152606490fd5b506006830154151561064b565b637bfa4b9f60e01b5f5260045ffd5b34610796575f36600319011261079657602060405169021e19e0c9bab24000008152f35b34610796575f36600319011261079657335f52600260205260405f2060ff60038201541615610a83576108d233611286565b908115610a51576040516370a0823160e01b81523060048201527f00000000000000000000000000000000000000000000000000000000000000006001600160a01b03169190602081602481865afa90811561078b575f91610a1f575b5061093c8460055461122c565b116109da574260028201555f600190910181905560405163a9059cbb60e01b81523360048201526024810184905291602091839160449183915af1801561078b5761098d915f916109bb57506112fe565b6040519081527ffc30cddea38e2bf4d6ea7d3f9ed3b6ad7f176419f4963bd81318067a4aee73fe60203392a2005b6109d4915060203d60201161051c5761050e818361112e565b836104bf565b60405162461bcd60e51b815260206004820152601b60248201527f496e73756666696369656e7420726577617264207265736572766500000000006044820152606490fd5b90506020813d602011610a49575b81610a3a6020938361112e565b8101031261079657518461092f565b3d9150610a2d565b60405162461bcd60e51b815260206004820152600a6024820152694e6f207265776172647360b01b6044820152606490fd5b60405162461bcd60e51b815260206004820152600f60248201526e2737ba1030903b30b634b230ba37b960891b6044820152606490fd5b34610796576020366003190112610796576020610add610ad8611098565b611286565b604051908152f35b346107965760603660031901126107965760043560243567ffffffffffffffff811161079657610b1990369060040161106a565b60443567ffffffffffffffff811161079657610b3990369060040161106a565b929069021e19e0c9bab24000008510610fc4576040516323b872dd60e01b8152336004820152306024820152604481018690526020816064815f7f00000000000000000000000000000000000000000000000000000000000000006001600160a01b03165af190811561078b575f91610fa5575b5015610f6a57335f52600260205260405f20936003850160ff815416155f14610f1357335f52600460205260405f205415610eae575b805460ff191660011790556004850167ffffffffffffffff8511610dda57610c0b81546110da565b601f8111610e5d575b50845f601f8211600114610df9575f91610dee575b508560011b905f198760031b1c19161790555b600585019167ffffffffffffffff8211610dda578190610c5c84546110da565b601f8111610d81575b505f90601f8311600114610d1a575f92610d0f575b50508160011b915f199060031b1c19161790555b426002840155600654925f198414610cfb5760017f7821d83aead27bc7cb9935de00fd6c4fbcab50ecb3b31ff099ab33c4033514bb94016006555b610cd485825461122c565b9055610ce28460055461122c565b600555610cf6604051928392339684611239565b0390a2005b634e487b7160e01b5f52601160045260245ffd5b013590508780610c7a565b909150601f19831691845f5260205f20925f5b818110610d695750908460019594939210610d50575b505050811b019055610c8e565b01355f19600384901b60f8161c19169055878080610d43565b91936020600181928787013581550195019201610d2d565b82811115610c6557909150835f5260205f20601f840160051c9060208510610dd2575b849392601f0160051c82900391015f5b828110610dc2575050610c65565b5f81830155859450600101610db4565b5f9150610da4565b634e487b7160e01b5f52604160045260245ffd5b905084013588610c29565b5f8381526020812092508790601f198216905b818110610e42575010610e29575b5050600185811b019055610c3c565b8501355f19600388901b60f8161c191690558780610e1a565b8884013585556001909401936020938401938a935001610e0c565b85811115610c1457815f5260205f20601f870160051c9060208810610ea6575b81601f9101920160051c03905f5b828110610e99575050610c14565b5f82820155600101610e8b565b5f9150610e7d565b60035460018101809111610cfb57335f52600460205260405f205560035468010000000000000000811015610dda57610ef0816001610f0e93016003556110ae565b81546001600160a01b0360039290921b91821b19163390911b179055565b610be3565b5050507f7821d83aead27bc7cb9935de00fd6c4fbcab50ecb3b31ff099ab33c4033514bb92610f4133611286565b80610f53575b50426002820155610cc9565b610f626001830191825461122c565b905585610f47565b60405162461bcd60e51b81526020600482015260136024820152721d1c985b9cd9995c919c9bdb4819985a5b1959606a1b6044820152606490fd5b610fbe915060203d60201161051c5761050e818361112e565b86610bad565b63389f7e1160e01b5f5260045ffd5b34610796575f366003190112610796576020600654604051908152f35b34610796575f3660031901126107965760205f54604051908152f35b34610796575f366003190112610796576040517f00000000000000000000000000000000000000000000000000000000000000006001600160a01b03168152602090f35b34610796575f366003190112610796576020906003548152f35b9181601f840112156107965782359167ffffffffffffffff8311610796576020838186019501011161079657565b600435906001600160a01b038216820361079657565b6003548110156110c65760035f5260205f2001905f90565b634e487b7160e01b5f52603260045260245ffd5b90600182811c92168015611108575b60208310146110f457565b634e487b7160e01b5f52602260045260245ffd5b91607f16916110e9565b6040810190811067ffffffffffffffff821117610dda57604052565b90601f8019910116810190811067ffffffffffffffff821117610dda57604052565b9060405191825f825492611163846110da565b80845293600181169081156111ce575060011461118a575b506111889250038361112e565b565b90505f9291925260205f20905f915b8183106111b2575050906020611188928201015f61117b565b6020919350806001915483858901015201910190918492611199565b90506020925061118894915060ff191682840152151560051b8201015f61117b565b805180835260209291819084018484015e5f828201840152601f01601f1916010190565b90816020910312610796575180151581036107965790565b91908201809211610cfb57565b91926060938192845260406020850152816040850152848401375f828201840152601f01601f1916010190565b91908203918211610cfb57565b81810292918115918404141715610cfb57565b6001600160a01b03165f908152600260205260409020600381015460ff161580156112f5575b6112f057806301e133806112e66112ca60026112ed95015442611266565b60016127106112dc86545f5490611273565b0494015493611273565b049061122c565b90565b505f90565b508054156112ac565b1561130557565b60405162461bcd60e51b815260206004820152600f60248201526e1d1c985b9cd9995c8819985a5b1959608a1b6044820152606490fd5b8015610cfb575f190190565b6001600160a01b03165f818152600460205260409020548015611436576003548082036113c1575b505060035480156113ad575f1901611387816110ae565b81546001600160a01b03600392831b1b1916909155555f90815260046020526040812055565b634e487b7160e01b5f52603160045260245ffd5b5f198101908111610cfb576113d5906110ae565b905460039190911b1c6001600160a01b03165f198201828111610cfb57816113ff611423926110ae565b81546001600160a01b0393841660039290921b91821b9390911b1916919091179055565b5f52600460205260405f20555f80611370565b505056fea26469706673582212207232b980fd4c7ca4dc1fa48b0973618ce1334c0e2787c24601a5695df472bed664736f6c63430008210033","linkReferences":{}},"methodIdentifiers":{"MIN_STAKE()":"cb1c2b5c","UNBONDING_PERIOD()":"d9a912ec","activeCount()":"4331ed1f","activeValidatorCount()":"2340e8d3","admin()":"f851a440","claimRewards()":"372500ab","completeUnstake()":"63803b23","getUnbondingRequest(address)":"43e5e92d","goodDollar()":"119e5bf3","initiateUnstake(uint256)":"ae5ac921","meetsMinimumStake(uint256)":"6b42d963","minStake()":"375b3c0a","pendingRewards(address)":"31d7a262","rewardRateBPS()":"17849ba0","slash(address,string)":"402b71dd","slashBPS()":"a660f280","stake(uint256,string,string)":"303b5e1a","totalStaked()":"817b1cd2","validatorCount()":"0f43a677","validatorList(uint256)":"b048e056","validators(address)":"fa52c7d8"},"id":12}