{"abi":[{"type":"constructor","inputs":[{"name":"_goodDollar","type":"address","internalType":"address"},{"name":"_admin","type":"address","internalType":"address"}],"stateMutability":"nonpayable"},{"type":"function","name":"MIN_STAKE","inputs":[],"outputs":[{"name":"","type":"uint256","internalType":"uint256"}],"stateMutability":"view"},{"type":"function","name":"UNBONDING_PERIOD","inputs":[],"outputs":[{"name":"","type":"uint256","internalType":"uint256"}],"stateMutability":"view"},{"type":"function","name":"activeCount","inputs":[],"outputs":[{"name":"","type":"uint256","internalType":"uint256"}],"stateMutability":"view"},{"type":"function","name":"activeValidatorCount","inputs":[],"outputs":[{"name":"","type":"uint256","internalType":"uint256"}],"stateMutability":"view"},{"type":"function","name":"admin","inputs":[],"outputs":[{"name":"","type":"address","internalType":"address"}],"stateMutability":"view"},{"type":"function","name":"claimRewards","inputs":[],"outputs":[],"stateMutability":"nonpayable"},{"type":"function","name":"completeUnstake","inputs":[],"outputs":[],"stateMutability":"nonpayable"},{"type":"function","name":"getUnbondingRequest","inputs":[{"name":"validator","type":"address","internalType":"address"}],"outputs":[{"name":"amount","type":"uint256","internalType":"uint256"},{"name":"unbondAt","type":"uint256","internalType":"uint256"}],"stateMutability":"view"},{"type":"function","name":"goodDollar","inputs":[],"outputs":[{"name":"","type":"address","internalType":"contract IGoodDollarToken"}],"stateMutability":"view"},{"type":"function","name":"initiateUnstake","inputs":[{"name":"amount","type":"uint256","internalType":"uint256"}],"outputs":[],"stateMutability":"nonpayable"},{"type":"function","name":"meetsMinimumStake","inputs":[{"name":"amount","type":"uint256","internalType":"uint256"}],"outputs":[{"name":"","type":"bool","internalType":"bool"}],"stateMutability":"pure"},{"type":"function","name":"minStake","inputs":[],"outputs":[{"name":"","type":"uint256","internalType":"uint256"}],"stateMutability":"pure"},{"type":"function","name":"pendingRewards","inputs":[{"name":"validator","type":"address","internalType":"address"}],"outputs":[{"name":"","type":"uint256","internalType":"uint256"}],"stateMutability":"view"},{"type":"function","name":"rewardRateBPS","inputs":[],"outputs":[{"name":"","type":"uint256","internalType":"uint256"}],"stateMutability":"view"},{"type":"function","name":"slash","inputs":[{"name":"validator","type":"address","internalType":"address"},{"name":"reason","type":"string","internalType":"string"}],"outputs":[],"stateMutability":"nonpayable"},{"type":"function","name":"slashBPS","inputs":[],"outputs":[{"name":"","type":"uint256","internalType":"uint256"}],"stateMutability":"view"},{"type":"function","name":"stake","inputs":[{"name":"amount","type":"uint256","internalType":"uint256"},{"name":"name","type":"string","internalType":"string"},{"name":"endpoint","type":"string","internalType":"string"}],"outputs":[],"stateMutability":"nonpayable"},{"type":"function","name":"totalStaked","inputs":[],"outputs":[{"name":"","type":"uint256","internalType":"uint256"}],"stateMutability":"view"},{"type":"function","name":"validatorCount","inputs":[],"outputs":[{"name":"","type":"uint256","internalType":"uint256"}],"stateMutability":"view"},{"type":"function","name":"validatorList","inputs":[{"name":"","type":"uint256","internalType":"uint256"}],"outputs":[{"name":"","type":"address","internalType":"address"}],"stateMutability":"view"},{"type":"function","name":"validators","inputs":[{"name":"","type":"address","internalType":"address"}],"outputs":[{"name":"staked","type":"uint256","internalType":"uint256"},{"name":"rewardDebt","type":"uint256","internalType":"uint256"},{"name":"lastStakeTime","type":"uint256","internalType":"uint256"},{"name":"isActive","type":"bool","internalType":"bool"},{"name":"name","type":"string","internalType":"string"},{"name":"endpoint","type":"string","internalType":"string"},{"name":"unbonding","type":"tuple","internalType":"struct ValidatorStakingDevnet.UnbondingRequest","components":[{"name":"amount","type":"uint256","internalType":"uint256"},{"name":"unbondAt","type":"uint256","internalType":"uint256"}]}],"stateMutability":"view"},{"type":"event","name":"RewardsClaimed","inputs":[{"name":"validator","type":"address","indexed":true,"internalType":"address"},{"name":"amount","type":"uint256","indexed":false,"internalType":"uint256"}],"anonymous":false},{"type":"event","name":"UnstakeCompleted","inputs":[{"name":"validator","type":"address","indexed":true,"internalType":"address"},{"name":"amount","type":"uint256","indexed":false,"internalType":"uint256"}],"anonymous":false},{"type":"event","name":"UnstakeInitiated","inputs":[{"name":"validator","type":"address","indexed":true,"internalType":"address"},{"name":"amount","type":"uint256","indexed":false,"internalType":"uint256"},{"name":"unbondAt","type":"uint256","indexed":false,"internalType":"uint256"}],"anonymous":false},{"type":"event","name":"ValidatorSlashed","inputs":[{"name":"validator","type":"address","indexed":true,"internalType":"address"},{"name":"amount","type":"uint256","indexed":false,"internalType":"uint256"},{"name":"reason","type":"string","indexed":false,"internalType":"string"}],"anonymous":false},{"type":"event","name":"ValidatorStaked","inputs":[{"name":"validator","type":"address","indexed":true,"internalType":"address"},{"name":"amount","type":"uint256","indexed":false,"internalType":"uint256"},{"name":"name","type":"string","indexed":false,"internalType":"string"}],"anonymous":false},{"type":"error","name":"BelowMinStake","inputs":[]},{"type":"error","name":"InsufficientStake","inputs":[]},{"type":"error","name":"NoUnbondingRequest","inputs":[]},{"type":"error","name":"NotAdmin","inputs":[]},{"type":"error","name":"NotValidator","inputs":[]},{"type":"error","name":"UnbondingAlreadyPending","inputs":[]},{"type":"error","name":"UnbondingNotReady","inputs":[{"name":"readyAt","type":"uint256","internalType":"uint256"},{"name":"currentTime","type":"uint256","internalType":"uint256"}]}],"bytecode":{"object":"0x60a0346100b457601f61150c38819003918201601f19168301916001600160401b038311848410176100b85780849260409485528339810103126100b457610052602061004b836100cc565b92016100cc565b6101f45f556103e86001556001600160a01b03918216608052600780546001600160a01b0319169190921617905560405161142b90816100e1823960805181818161048c015281816106bf015281816108ee01528181610b750152610fdc0152f35b5f80fd5b634e487b7160e01b5f52604160045260245ffd5b51906001600160a01b03821682036100b45756fe6080806040526004361015610012575f80fd5b5f905f3560e01c9081630f43a6771461100b57508063119e5bf314610fc757806317849ba014610fab5780632340e8d314610f8e578063303b5e1a14610ae557806331d7a26214610aba578063372500ab146108a0578063375b3c0a1461087c578063402b71dd146105cf5780634331ed1f146105b157806343e5e92d1461056157806363803b231461041a5780636b42d963146103ef578063817b1cd2146103d1578063a660f280146103b3578063ae5ac92114610284578063b048e05614610240578063cb1c2b5c1461021b578063d9a912ec146101fd578063f851a440146101d45763fa52c7d814610105575f80fd5b346101d15760203660031901126101d1576040906001600160a01b03610129611053565b168152600260205220805460018201549160028101546101c060ff6003840154166101b26101596004860161110b565b6101656005870161110b565b92600760405197610175896110cd565b6006810154895201549560208801968752604051998a998a5260208a015260408901521515606088015261010060808801526101008701906111ab565b9085820360a08701526111ab565b915160c08401525160e08301520390f35b80fd5b50346101d157806003193601126101d1576007546040516001600160a01b039091168152602090f35b50346101d157806003193601126101d157602060405162093a808152f35b50346101d157806003193601126101d157602060405169021e19e0c9bab24000008152f35b50346101d15760203660031901126101d157600435906003548210156101d157602061026b83611069565b905460405160039290921b1c6001600160a01b03168152f35b50346101d15760203660031901126101d1576004353382526002602052604082206003810160ff815416156103a457815491838310610395576006810192835461038657846102d291611221565b81556102e084600554611221565b60055562093a8042019283421161037257908469021e19e0c9bab24000009285602060405161030e816110cd565b8481520152558360078201555410610356575b5060405191825260208201527f9cee5eacd317086e5050733a5dad16ef5aaec185de792371a9625bfee2a3213b60403392a280f35b60ff1981541690556103696006546112f7565b6006555f610321565b634e487b7160e01b86526011600452602486fd5b631698163560e31b8652600486fd5b6378de4a6960e11b8552600485fd5b632ec5b44960e01b8452600484fd5b50346101d157806003193601126101d1576020600154604051908152f35b50346101d157806003193601126101d1576020600554604051908152f35b50346101d15760203660031901126101d157602060405169021e19e0c9bab240000060043510158152f35b50346101d157806003193601126101d15733815260026020526040812060068101908154918215610552576007820190815480421061053c5750908480925555541561052e575b60405163a9059cbb60e01b815233600482015260248101829052602081604481866001600160a01b037f0000000000000000000000000000000000000000000000000000000000000000165af18015610523576104c59184916104f4575b506112b9565b6040519081527fdf2b996992aeaae3212b8d32b9c3c224196146804bed6814ec28d864b4eb3fc560203392a280f35b610516915060203d60201161051c575b61050e81836110e9565b8101906111cf565b5f6104bf565b503d610504565b6040513d85823e3d90fd5b61053733611303565b610461565b6315a13ed560e11b865260045242602452604485fd5b63bf5c43fd60e01b8452600484fd5b50346101d15760203660031901126101d1576040906007826001600160a01b03610589611053565b1692838152600260205260068282200154938152600260205220015482519182526020820152f35b50346101d157806003193601126101d1576020600654604051908152f35b5034610796576040366003190112610796576105e9611053565b9060243567ffffffffffffffff81116107965761060a903690600401611025565b600754909391906001600160a01b0316330361086d576001600160a01b0382165f8181526002602052604090206003810180549294919260ff168015610860575b1561081b5782549260068101916127106106726106698554886111e7565b6001549061122e565b04948086116107de5750610687858354611221565b825561069585600554611221565b6005555b69021e19e0c9bab24000008254106107b3575b50541590816107a9575b5061079a575b507f00000000000000000000000000000000000000000000000000000000000000006001600160a01b0316803b15610796575f80916024604051809481936383adc2ff60e01b83528760048401525af1801561078b57610751575b5061074b7f074c8604eab659bccd1619a91a9588244a2442723fdcb05af0aa39da9fc68657939495604051938493846111f4565b0390a280f35b7f074c8604eab659bccd1619a91a9588244a2442723fdcb05af0aa39da9fc686579394505f61077f916110e9565b61074b5f949350610717565b6040513d5f823e3d90fd5b5f80fd5b6107a390611303565b5f6106bc565b905054155f6106b6565b60ff8154166107cb575b805460ff191690555f6106ac565b6107d66006546112f7565b6006556107bd565b806107f86107ef61080c9389611221565b91600554611221565b6005555f8455845480821161081357611221565b8355610699565b905080611221565b60405162461bcd60e51b815260206004820152601760248201527f4e6f7420616374697665206f7220756e626f6e64696e670000000000000000006044820152606490fd5b506006830154151561064b565b637bfa4b9f60e01b5f5260045ffd5b34610796575f36600319011261079657602060405169021e19e0c9bab24000008152f35b34610796575f36600319011261079657335f52600260205260405f2060ff60038201541615610a83576108d233611241565b908115610a51576040516370a0823160e01b81523060048201527f00000000000000000000000000000000000000000000000000000000000000006001600160a01b03169190602081602481865afa90811561078b575f91610a1f575b5061093c846005546111e7565b116109da574260028201555f600190910181905560405163a9059cbb60e01b81523360048201526024810184905291602091839160449183915af1801561078b5761098d915f916109bb57506112b9565b6040519081527ffc30cddea38e2bf4d6ea7d3f9ed3b6ad7f176419f4963bd81318067a4aee73fe60203392a2005b6109d4915060203d60201161051c5761050e81836110e9565b836104bf565b60405162461bcd60e51b815260206004820152601b60248201527f496e73756666696369656e7420726577617264207265736572766500000000006044820152606490fd5b90506020813d602011610a49575b81610a3a602093836110e9565b8101031261079657518461092f565b3d9150610a2d565b60405162461bcd60e51b815260206004820152600a6024820152694e6f207265776172647360b01b6044820152606490fd5b60405162461bcd60e51b815260206004820152600f60248201526e2737ba1030903b30b634b230ba37b960891b6044820152606490fd5b34610796576020366003190112610796576020610add610ad8611053565b611241565b604051908152f35b346107965760603660031901126107965760043560243567ffffffffffffffff811161079657610b19903690600401611025565b60443567ffffffffffffffff811161079657610b39903690600401611025565b929069021e19e0c9bab24000008510610f7f576040516323b872dd60e01b8152336004820152306024820152604481018690526020816064815f7f00000000000000000000000000000000000000000000000000000000000000006001600160a01b03165af1801561078b57610f62575b50335f52600260205260405f20936003850160ff815416155f14610f0b57335f52600460205260405f205415610ea6575b805460ff191660011790556004850167ffffffffffffffff8511610dd257610c038154611095565b601f8111610e55575b50845f601f8211600114610df1575f91610de6575b508560011b905f198760031b1c19161790555b600585019167ffffffffffffffff8211610dd2578190610c548454611095565b601f8111610d79575b505f90601f8311600114610d12575f92610d07575b50508160011b915f199060031b1c19161790555b426002840155600654925f198414610cf35760017f7821d83aead27bc7cb9935de00fd6c4fbcab50ecb3b31ff099ab33c4033514bb94016006555b610ccc8582546111e7565b9055610cda846005546111e7565b600555610cee6040519283923396846111f4565b0390a2005b634e487b7160e01b5f52601160045260245ffd5b013590508780610c72565b909150601f19831691845f5260205f20925f5b818110610d615750908460019594939210610d48575b505050811b019055610c86565b01355f19600384901b60f8161c19169055878080610d3b565b91936020600181928787013581550195019201610d25565b82811115610c5d57909150835f5260205f20601f840160051c9060208510610dca575b849392601f0160051c82900391015f5b828110610dba575050610c5d565b5f81830155859450600101610dac565b5f9150610d9c565b634e487b7160e01b5f52604160045260245ffd5b905084013588610c21565b5f8381526020812092508790601f198216905b818110610e3a575010610e21575b5050600185811b019055610c34565b8501355f19600388901b60f8161c191690558780610e12565b8884013585556001909401936020938401938a935001610e04565b85811115610c0c57815f5260205f20601f870160051c9060208810610e9e575b81601f9101920160051c03905f5b828110610e91575050610c0c565b5f82820155600101610e83565b5f9150610e75565b60035460018101809111610cf357335f52600460205260405f205560035468010000000000000000811015610dd257610ee8816001610f069301600355611069565b81546001600160a01b0360039290921b91821b19163390911b179055565b610bdb565b5050507f7821d83aead27bc7cb9935de00fd6c4fbcab50ecb3b31ff099ab33c4033514bb92610f3933611241565b80610f4b575b50426002820155610cc1565b610f5a600183019182546111e7565b905585610f3f565b610f7a9060203d60201161051c5761050e81836110e9565b610baa565b63389f7e1160e01b5f5260045ffd5b34610796575f366003190112610796576020600654604051908152f35b34610796575f3660031901126107965760205f54604051908152f35b34610796575f366003190112610796576040517f00000000000000000000000000000000000000000000000000000000000000006001600160a01b03168152602090f35b34610796575f366003190112610796576020906003548152f35b9181601f840112156107965782359167ffffffffffffffff8311610796576020838186019501011161079657565b600435906001600160a01b038216820361079657565b6003548110156110815760035f5260205f2001905f90565b634e487b7160e01b5f52603260045260245ffd5b90600182811c921680156110c3575b60208310146110af57565b634e487b7160e01b5f52602260045260245ffd5b91607f16916110a4565b6040810190811067ffffffffffffffff821117610dd257604052565b90601f8019910116810190811067ffffffffffffffff821117610dd257604052565b9060405191825f82549261111e84611095565b80845293600181169081156111895750600114611145575b50611143925003836110e9565b565b90505f9291925260205f20905f915b81831061116d575050906020611143928201015f611136565b6020919350806001915483858901015201910190918492611154565b90506020925061114394915060ff191682840152151560051b8201015f611136565b805180835260209291819084018484015e5f828201840152601f01601f1916010190565b90816020910312610796575180151581036107965790565b91908201809211610cf357565b91926060938192845260406020850152816040850152848401375f828201840152601f01601f1916010190565b91908203918211610cf357565b81810292918115918404141715610cf357565b6001600160a01b03165f908152600260205260409020600381015460ff161580156112b0575b6112ab57806301e133806112a161128560026112a895015442611221565b600161271061129786545f549061122e565b049401549361122e565b04906111e7565b90565b505f90565b50805415611267565b156112c057565b60405162461bcd60e51b815260206004820152600f60248201526e1d1c985b9cd9995c8819985a5b1959608a1b6044820152606490fd5b8015610cf3575f190190565b6001600160a01b03165f8181526004602052604090205480156113f15760035480820361137c575b50506003548015611368575f190161134281611069565b81546001600160a01b03600392831b1b1916909155555f90815260046020526040812055565b634e487b7160e01b5f52603160045260245ffd5b5f198101908111610cf35761139090611069565b905460039190911b1c6001600160a01b03165f198201828111610cf357816113ba6113de92611069565b81546001600160a01b0393841660039290921b91821b9390911b1916919091179055565b5f52600460205260405f20555f8061132b565b505056fea2646970667358221220e87f310fa8573cb84505895d2d07adaa32fd548cc1e4f52bb1c867589257818e64736f6c63430008210033","linkReferences":{}},"methodIdentifiers":{"MIN_STAKE()":"cb1c2b5c","UNBONDING_PERIOD()":"d9a912ec","activeCount()":"4331ed1f","activeValidatorCount()":"2340e8d3","admin()":"f851a440","claimRewards()":"372500ab","completeUnstake()":"63803b23","getUnbondingRequest(address)":"43e5e92d","goodDollar()":"119e5bf3","initiateUnstake(uint256)":"ae5ac921","meetsMinimumStake(uint256)":"6b42d963","minStake()":"375b3c0a","pendingRewards(address)":"31d7a262","rewardRateBPS()":"17849ba0","slash(address,string)":"402b71dd","slashBPS()":"a660f280","stake(uint256,string,string)":"303b5e1a","totalStaked()":"817b1cd2","validatorCount()":"0f43a677","validatorList(uint256)":"b048e056","validators(address)":"fa52c7d8"},"id":21}