{"abi":[{"type":"constructor","inputs":[],"stateMutability":"nonpayable"},{"type":"receive","stateMutability":"payable"},{"type":"function","name":"FINALIZATION_PERIOD","inputs":[],"outputs":[{"name":"","type":"uint256","internalType":"uint256"}],"stateMutability":"view"},{"type":"function","name":"depositNonce","inputs":[],"outputs":[{"name":"","type":"uint256","internalType":"uint256"}],"stateMutability":"view"},{"type":"function","name":"depositTransaction","inputs":[{"name":"_to","type":"address","internalType":"address"},{"name":"_value","type":"uint256","internalType":"uint256"},{"name":"_gasLimit","type":"uint64","internalType":"uint64"},{"name":"_isCreation","type":"bool","internalType":"bool"},{"name":"_data","type":"bytes","internalType":"bytes"}],"outputs":[],"stateMutability":"payable"},{"type":"function","name":"finalizeWithdrawalTransaction","inputs":[{"name":"_withdrawalHash","type":"bytes32","internalType":"bytes32"},{"name":"_to","type":"address","internalType":"address payable"},{"name":"_value","type":"uint256","internalType":"uint256"}],"outputs":[],"stateMutability":"nonpayable"},{"type":"function","name":"finalizedWithdrawals","inputs":[{"name":"","type":"bytes32","internalType":"bytes32"}],"outputs":[{"name":"","type":"bool","internalType":"bool"}],"stateMutability":"view"},{"type":"function","name":"guardian","inputs":[],"outputs":[{"name":"","type":"address","internalType":"address"}],"stateMutability":"view"},{"type":"function","name":"initialize","inputs":[{"name":"_l2Oracle","type":"address","internalType":"address"}],"outputs":[],"stateMutability":"nonpayable"},{"type":"function","name":"l2Oracle","inputs":[],"outputs":[{"name":"","type":"address","internalType":"contract L2OutputOracle"}],"stateMutability":"view"},{"type":"function","name":"pause","inputs":[],"outputs":[],"stateMutability":"nonpayable"},{"type":"function","name":"paused","inputs":[],"outputs":[{"name":"","type":"bool","internalType":"bool"}],"stateMutability":"view"},{"type":"function","name":"proveWithdrawalTransaction","inputs":[{"name":"_withdrawalHash","type":"bytes32","internalType":"bytes32"},{"name":"_from","type":"address","internalType":"address"},{"name":"_to","type":"address","internalType":"address"}],"outputs":[],"stateMutability":"nonpayable"},{"type":"function","name":"setUBIFee","inputs":[{"name":"_fee","type":"uint256","internalType":"uint256"}],"outputs":[],"stateMutability":"nonpayable"},{"type":"function","name":"setUBITreasury","inputs":[{"name":"_treasury","type":"address","internalType":"address"}],"outputs":[],"stateMutability":"nonpayable"},{"type":"function","name":"ubiFee","inputs":[],"outputs":[{"name":"","type":"uint256","internalType":"uint256"}],"stateMutability":"view"},{"type":"function","name":"ubiTreasury","inputs":[],"outputs":[{"name":"","type":"address","internalType":"address"}],"stateMutability":"view"},{"type":"function","name":"unpause","inputs":[],"outputs":[],"stateMutability":"nonpayable"},{"type":"event","name":"Paused","inputs":[{"name":"guardian","type":"address","indexed":true,"internalType":"address"}],"anonymous":false},{"type":"event","name":"TransactionDeposited","inputs":[{"name":"from","type":"address","indexed":true,"internalType":"address"},{"name":"to","type":"address","indexed":true,"internalType":"address"},{"name":"version","type":"uint256","indexed":true,"internalType":"uint256"},{"name":"opaqueData","type":"bytes","indexed":false,"internalType":"bytes"}],"anonymous":false},{"type":"event","name":"Unpaused","inputs":[{"name":"guardian","type":"address","indexed":true,"internalType":"address"}],"anonymous":false},{"type":"event","name":"WithdrawalFinalized","inputs":[{"name":"withdrawalHash","type":"bytes32","indexed":true,"internalType":"bytes32"},{"name":"success","type":"bool","indexed":false,"internalType":"bool"}],"anonymous":false},{"type":"event","name":"WithdrawalProven","inputs":[{"name":"withdrawalHash","type":"bytes32","indexed":true,"internalType":"bytes32"},{"name":"from","type":"address","indexed":true,"internalType":"address"},{"name":"to","type":"address","indexed":true,"internalType":"address"}],"anonymous":false}],"bytecode":{"object":"0x60808060405234603c57602160045560018054336001600160a01b0319918216811790925560058054909116909117905561096e90816100418239f35b5f80fdfe6080604052600436101561009f575b3615610018575f80fd5b60405161002660208261089f565b5f8152303b1561009b575f61007291604051809381926374f02e2160e11b8352336004840152346024840152620186a0604484015284606484015260a0608484015260a4830190610914565b038134305af180156100905761008457005b5f61008e9161089f565b005b6040513d5f823e3d90fd5b5f80fd5b5f3560e01c80633f4ba83a146107af57806343fda03114610792578063452a93201461076a5780635c975abb1461074557806361e944f91461071d57806367eccee2146106a65780638456cb59146106475780639b5f694a14610620578063a14238e7146105f1578063adfe8d2414610412578063b8009dde146103c2578063c4d66de814610342578063c6d0fbf8146102d7578063de35f5cb146102ba578063e9e05c42146101705763ff61cc930361000e573461009b575f36600319011261009b57602060405162093a808152f35b60a036600319011261009b57610184610808565b6044359067ffffffffffffffff8216820361009b5760643580151580910361009b5760843567ffffffffffffffff811161009b573660238201121561009b5780600401359067ffffffffffffffff821161009b57366024838301011161009b576101f660ff60015460a01c161561085a565b600354945f1986146102a6578261025f93602460699460018a016003556040519788953460208801528335604088015267ffffffffffffffff60c01b9060c01b16606087015260f81b6068860152018484013781015f838201520301601f19810183528261089f565b7fb3813568d9991fc951961fcb4c784893574240a28925604d09fc577c55bb7c32604051926020845260018060a01b031692806102a133946020830190610914565b0390a4005b634e487b7160e01b5f52601160045260245ffd5b3461009b575f36600319011261009b576020600354604051908152f35b3461009b57602036600319011261009b5760043561030060018060a01b0360015416331461081e565b6103e8811161030e57600455005b60405162461bcd60e51b815260206004820152600c60248201526b0cccaca40e8dede40d0d2ced60a31b6044820152606490fd5b3461009b57602036600319011261009b5761035b610808565b5f54906001600160a01b038216610387576001600160a01b03166001600160a01b031991909116175f55005b60405162461bcd60e51b8152602060048201526013602482015272185b1c9958591e481a5b9a5d1a585b1a5e9959606a1b6044820152606490fd5b3461009b57602036600319011261009b576103db610808565b6103f060018060a01b0360015416331461081e565b600580546001600160a01b0319166001600160a01b0392909216919091179055005b3461009b57606036600319011261009b576004356024356001600160a01b0381169081900361009b576044359061045160ff60015460a01c161561085a565b825f52600260205260ff60405f2054166105b857825f52600260205260405f20600160ff198254161790556004548083029083820414831517156102a65761271090048083039283116102a657801515806105a4575b610535575b505f80809381935af16104bd6108d5565b50156104f0577fdb5c7652857aa163daadd670e116628fb42e869d8ac4251ef8971d9e5727df1b602060405160018152a2005b60405162461bcd60e51b815260206004820152601a60248201527f7769746864726177616c207472616e73666572206661696c65640000000000006044820152606490fd5b6005545f918291829182916001600160a01b03165af16105536108d5565b501561055f57836104ac565b60405162461bcd60e51b815260206004820152601760248201527f55424920666565207472616e73666572206661696c65640000000000000000006044820152606490fd5b506005546001600160a01b031615156104a7565b60405162461bcd60e51b8152602060048201526011602482015270185b1c9958591e48199a5b985b1a5e9959607a1b6044820152606490fd5b3461009b57602036600319011261009b576004355f526002602052602060ff60405f2054166040519015158152f35b3461009b575f36600319011261009b575f546040516001600160a01b039091168152602090f35b3461009b575f36600319011261009b576001546001600160a01b0381169061067033831461081e565b60ff60a01b1916600160a01b176001557f62e78cea01bee320cd4e420270b5ea74000d11b0c9f74754ebdbfc544b05a2585f80a2005b3461009b57606036600319011261009b576024356001600160a01b0381169081900361009b576044356001600160a01b038116919082900361009b576106f460ff60015460a01c161561085a565b6004357f67a6208cfcc0801d50f6cbe764733f4fddf66ac0b04442061a8a8c0cb6b63f625f80a4005b3461009b575f36600319011261009b576005546040516001600160a01b039091168152602090f35b3461009b575f36600319011261009b57602060ff60015460a01c166040519015158152f35b3461009b575f36600319011261009b576001546040516001600160a01b039091168152602090f35b3461009b575f36600319011261009b576020600454604051908152f35b3461009b575f36600319011261009b576001546001600160a01b038116906107d833831461081e565b60ff60a01b19166001557f5db9ee0a495bf2e6ff9c91a7834c1ba4fdd244a5e8aa4e537bd38aeae4b073aa5f80a2005b600435906001600160a01b038216820361009b57565b1561082557565b60405162461bcd60e51b815260206004820152600d60248201526c37b7363c9033bab0b93234b0b760991b6044820152606490fd5b1561086157565b60405162461bcd60e51b815260206004820152601660248201527513dc1d1a5b5a5cdb541bdc9d185b0e881c185d5cd95960521b6044820152606490fd5b90601f8019910116810190811067ffffffffffffffff8211176108c157604052565b634e487b7160e01b5f52604160045260245ffd5b3d1561090f573d9067ffffffffffffffff82116108c15760405191610904601f8201601f19166020018461089f565b82523d5f602084013e565b606090565b805180835260209291819084018484015e5f828201840152601f01601f191601019056fea2646970667358221220cc7e86a73c1117f47aa2b630fc68e78a6087a27bb6b48b1b516109ba2550923864736f6c63430008210033","linkReferences":{}},"methodIdentifiers":{"FINALIZATION_PERIOD()":"ff61cc93","depositNonce()":"de35f5cb","depositTransaction(address,uint256,uint64,bool,bytes)":"e9e05c42","finalizeWithdrawalTransaction(bytes32,address,uint256)":"adfe8d24","finalizedWithdrawals(bytes32)":"a14238e7","guardian()":"452a9320","initialize(address)":"c4d66de8","l2Oracle()":"9b5f694a","pause()":"8456cb59","paused()":"5c975abb","proveWithdrawalTransaction(bytes32,address,address)":"67eccee2","setUBIFee(uint256)":"c6d0fbf8","setUBITreasury(address)":"b8009dde","ubiFee()":"43fda031","ubiTreasury()":"61e944f9","unpause()":"3f4ba83a"},"id":29}