{"abi":[{"type":"constructor","inputs":[{"name":"_admin","type":"address","internalType":"address"},{"name":"_ubiPool","type":"address","internalType":"address"},{"name":"_lifiAggregator","type":"address","internalType":"address"},{"name":"_nativeBridge","type":"address","internalType":"address"},{"name":"_fastWithdrawalLP","type":"address","internalType":"address"}],"stateMutability":"nonpayable"},{"type":"receive","stateMutability":"payable"},{"type":"function","name":"BPS","inputs":[],"outputs":[{"name":"","type":"uint256","internalType":"uint256"}],"stateMutability":"view"},{"type":"function","name":"L1_CHAIN_ID","inputs":[],"outputs":[{"name":"","type":"uint256","internalType":"uint256"}],"stateMutability":"view"},{"type":"function","name":"L2_CHAIN_ID","inputs":[],"outputs":[{"name":"","type":"uint256","internalType":"uint256"}],"stateMutability":"view"},{"type":"function","name":"UBI_FEE_SHARE","inputs":[],"outputs":[{"name":"","type":"uint256","internalType":"uint256"}],"stateMutability":"view"},{"type":"function","name":"admin","inputs":[],"outputs":[{"name":"","type":"address","internalType":"address"}],"stateMutability":"view"},{"type":"function","name":"batchSetTokenMappings","inputs":[{"name":"l2Tokens","type":"address[]","internalType":"address[]"},{"name":"chainIds","type":"uint256[]","internalType":"uint256[]"},{"name":"destTokens","type":"address[]","internalType":"address[]"}],"outputs":[],"stateMutability":"nonpayable"},{"type":"function","name":"bridgeETH","inputs":[{"name":"destChainId","type":"uint256","internalType":"uint256"},{"name":"receiver","type":"address","internalType":"address"},{"name":"minOutput","type":"uint256","internalType":"uint256"},{"name":"deadline","type":"uint256","internalType":"uint256"},{"name":"useFastWithdrawal","type":"bool","internalType":"bool"}],"outputs":[{"name":"requestId","type":"uint256","internalType":"uint256"}],"stateMutability":"payable"},{"type":"function","name":"bridgeTokens","inputs":[{"name":"token","type":"address","internalType":"address"},{"name":"amount","type":"uint256","internalType":"uint256"},{"name":"destChainId","type":"uint256","internalType":"uint256"},{"name":"receiver","type":"address","internalType":"address"},{"name":"minOutput","type":"uint256","internalType":"uint256"},{"name":"deadline","type":"uint256","internalType":"uint256"},{"name":"useFastWithdrawal","type":"bool","internalType":"bool"}],"outputs":[{"name":"requestId","type":"uint256","internalType":"uint256"}],"stateMutability":"nonpayable"},{"type":"function","name":"fastWithdrawalLP","inputs":[],"outputs":[{"name":"","type":"address","internalType":"contract IFastWithdrawalLP"}],"stateMutability":"view"},{"type":"function","name":"getRequest","inputs":[{"name":"requestId","type":"uint256","internalType":"uint256"}],"outputs":[{"name":"","type":"tuple","internalType":"struct MultiChainBridge.BridgeRequest","components":[{"name":"user","type":"address","internalType":"address"},{"name":"srcToken","type":"address","internalType":"address"},{"name":"amount","type":"uint256","internalType":"uint256"},{"name":"destChainId","type":"uint256","internalType":"uint256"},{"name":"destToken","type":"address","internalType":"address"},{"name":"destReceiver","type":"address","internalType":"address"},{"name":"routeType","type":"uint8","internalType":"enum MultiChainBridge.RouteType"},{"name":"timestamp","type":"uint256","internalType":"uint256"},{"name":"completed","type":"bool","internalType":"bool"}]}],"stateMutability":"view"},{"type":"function","name":"getRouteInfo","inputs":[{"name":"destChainId","type":"uint256","internalType":"uint256"},{"name":"useFastWithdrawal","type":"bool","internalType":"bool"}],"outputs":[{"name":"routeType","type":"uint8","internalType":"enum MultiChainBridge.RouteType"},{"name":"description","type":"string","internalType":"string"}],"stateMutability":"pure"},{"type":"function","name":"getUserRequests","inputs":[{"name":"user","type":"address","internalType":"address"}],"outputs":[{"name":"","type":"uint256[]","internalType":"uint256[]"}],"stateMutability":"view"},{"type":"function","name":"lifiAggregator","inputs":[],"outputs":[{"name":"","type":"address","internalType":"contract ILiFiBridgeAggregator"}],"stateMutability":"view"},{"type":"function","name":"nativeBridge","inputs":[],"outputs":[{"name":"","type":"address","internalType":"contract IGoodDollarBridgeL2"}],"stateMutability":"view"},{"type":"function","name":"requestCount","inputs":[],"outputs":[{"name":"","type":"uint256","internalType":"uint256"}],"stateMutability":"view"},{"type":"function","name":"requests","inputs":[{"name":"","type":"uint256","internalType":"uint256"}],"outputs":[{"name":"user","type":"address","internalType":"address"},{"name":"srcToken","type":"address","internalType":"address"},{"name":"amount","type":"uint256","internalType":"uint256"},{"name":"destChainId","type":"uint256","internalType":"uint256"},{"name":"destToken","type":"address","internalType":"address"},{"name":"destReceiver","type":"address","internalType":"address"},{"name":"routeType","type":"uint8","internalType":"enum MultiChainBridge.RouteType"},{"name":"timestamp","type":"uint256","internalType":"uint256"},{"name":"completed","type":"bool","internalType":"bool"}],"stateMutability":"view"},{"type":"function","name":"routingFeeBps","inputs":[],"outputs":[{"name":"","type":"uint256","internalType":"uint256"}],"stateMutability":"view"},{"type":"function","name":"setFastWithdrawalLP","inputs":[{"name":"_lp","type":"address","internalType":"address"}],"outputs":[],"stateMutability":"nonpayable"},{"type":"function","name":"setLiFiAggregator","inputs":[{"name":"_agg","type":"address","internalType":"address"}],"outputs":[],"stateMutability":"nonpayable"},{"type":"function","name":"setNativeBridge","inputs":[{"name":"_bridge","type":"address","internalType":"address"}],"outputs":[],"stateMutability":"nonpayable"},{"type":"function","name":"setRoutingFeeBps","inputs":[{"name":"bps","type":"uint256","internalType":"uint256"}],"outputs":[],"stateMutability":"nonpayable"},{"type":"function","name":"setSupportedChain","inputs":[{"name":"chainId","type":"uint256","internalType":"uint256"},{"name":"supported","type":"bool","internalType":"bool"}],"outputs":[],"stateMutability":"nonpayable"},{"type":"function","name":"setTokenMapping","inputs":[{"name":"l2Token","type":"address","internalType":"address"},{"name":"destChainId","type":"uint256","internalType":"uint256"},{"name":"destToken","type":"address","internalType":"address"}],"outputs":[],"stateMutability":"nonpayable"},{"type":"function","name":"setUBIPool","inputs":[{"name":"_pool","type":"address","internalType":"address"}],"outputs":[],"stateMutability":"nonpayable"},{"type":"function","name":"supportedChains","inputs":[{"name":"","type":"uint256","internalType":"uint256"}],"outputs":[{"name":"","type":"bool","internalType":"bool"}],"stateMutability":"view"},{"type":"function","name":"tokenMappings","inputs":[{"name":"","type":"address","internalType":"address"},{"name":"","type":"uint256","internalType":"uint256"}],"outputs":[{"name":"","type":"address","internalType":"address"}],"stateMutability":"view"},{"type":"function","name":"ubiPool","inputs":[],"outputs":[{"name":"","type":"address","internalType":"address"}],"stateMutability":"view"},{"type":"function","name":"userRequests","inputs":[{"name":"","type":"address","internalType":"address"},{"name":"","type":"uint256","internalType":"uint256"}],"outputs":[{"name":"","type":"uint256","internalType":"uint256"}],"stateMutability":"view"},{"type":"function","name":"withdrawProtocolFees","inputs":[{"name":"token","type":"address","internalType":"address"},{"name":"amount","type":"uint256","internalType":"uint256"},{"name":"to","type":"address","internalType":"address"}],"outputs":[],"stateMutability":"nonpayable"},{"type":"event","name":"BridgeCompleted","inputs":[{"name":"requestId","type":"uint256","indexed":true,"internalType":"uint256"}],"anonymous":false},{"type":"event","name":"BridgeInitiated","inputs":[{"name":"requestId","type":"uint256","indexed":true,"internalType":"uint256"},{"name":"user","type":"address","indexed":true,"internalType":"address"},{"name":"srcToken","type":"address","indexed":false,"internalType":"address"},{"name":"amount","type":"uint256","indexed":false,"internalType":"uint256"},{"name":"destChainId","type":"uint256","indexed":false,"internalType":"uint256"},{"name":"destToken","type":"address","indexed":false,"internalType":"address"},{"name":"routeType","type":"uint8","indexed":false,"internalType":"enum MultiChainBridge.RouteType"}],"anonymous":false},{"type":"event","name":"ChainSupportUpdated","inputs":[{"name":"chainId","type":"uint256","indexed":false,"internalType":"uint256"},{"name":"supported","type":"bool","indexed":false,"internalType":"bool"}],"anonymous":false},{"type":"event","name":"RoutingFeeCollected","inputs":[{"name":"token","type":"address","indexed":false,"internalType":"address"},{"name":"totalFee","type":"uint256","indexed":false,"internalType":"uint256"},{"name":"ubiShare","type":"uint256","indexed":false,"internalType":"uint256"}],"anonymous":false},{"type":"event","name":"TokenMappingUpdated","inputs":[{"name":"l2Token","type":"address","indexed":false,"internalType":"address"},{"name":"destChainId","type":"uint256","indexed":false,"internalType":"uint256"},{"name":"destToken","type":"address","indexed":false,"internalType":"address"}],"anonymous":false},{"type":"error","name":"AlreadyOnL2","inputs":[]},{"type":"error","name":"InsufficientValue","inputs":[]},{"type":"error","name":"NoTokenMapping","inputs":[{"name":"token","type":"address","internalType":"address"},{"name":"chainId","type":"uint256","internalType":"uint256"}]},{"type":"error","name":"NotAdmin","inputs":[]},{"type":"error","name":"TransferFailed","inputs":[]},{"type":"error","name":"UnsupportedChain","inputs":[{"name":"chainId","type":"uint256","internalType":"uint256"}]},{"type":"error","name":"ZeroAddress","inputs":[]},{"type":"error","name":"ZeroAmount","inputs":[]}],"bytecode":{"object":"0x60803461022057601f611e7c38819003918201601f19168301916001600160401b038311848410176102245780849260a0946040528339810103126102205761004781610238565b9061005460208201610238565b61006060408301610238565b90610079608061007260608601610238565b9401610238565b60015f81815581546001600160a01b03199081166001600160a01b039889161783556002805482169589169590951790945560048054851695881695909517909455600580548416958716959095178555600680549093169590911694909417905560039190915560076020527fb39221ace053465ec3453ce2b36430bd138b997ecea25c1043da0c366812b828805460ff1990811684179091557f3ed157e83ab1bb1f6b7b3760b3368106283d4e15d1f1b08e20d06576445a999480548216841790557f65420a8d28339aeca441a0c94a464f6387b468f3f5ea5c247a6df59a5f7b886680548216841790557fa7540f530be45c6674dd99d492017379fb77c281d9721ac80290a13fa987750880548216841790557ec926fc893501ce5ad439ad7af72d794e5fd17fa1b09c50e4c335249310c01380548216841790557fff447edf4e1c9450b5dae138089da2855247c4e0890d53e4eaf79e09eb9b4bef805482168417905561a86a9091527fa4356065248d86930c73e944e85f9d029fb0f52c0b8312d1a61bfbc9797ef51480549091169091179055604051611c2f908161024d8239f35b5f80fd5b634e487b7160e01b5f52604160045260245ffd5b51906001600160a01b03821682036102205756fe608080604052600436101561001c575b50361561001a575f80fd5b005b5f905f3560e01c90816301e3e0441461108657508063040a12641461103c5780630d12394b14610f22578063124f44de14610b455780631a0b79bf14610b1c5780631cde7ee814610ad25780631e09a743146108e057806322f73b4c1461087b578063249d39e91461085e578063263cb6b6146108075780632f90b184146107eb5780633eac57a71461075357806340929e731461070757806346c6f5f4146106745780634f3f998f1461062a5780635083d86b146105e0578063548d496f146105b15780635badbe4c146105935780636f8dce251461057657806374484b321461054d57806381d12c581461049b5780638417d3c21461047e5780638a75724614610455578063a06f7da71461042c578063b337cf7414610377578063c109776914610359578063c58343ef14610201578063ebd7362f1461018e5763f851a4400361000f573461018b578060031936011261018b576001546040516001600160a01b039091168152602090f35b80fd5b503461018b57602036600319011261018b57600154600435906001600160a01b031633036101f257606481116101c45760035580f35b60405162461bcd60e51b81526020600482015260066024820152654d617820312560d01b6044820152606490fd5b637bfa4b9f60e01b8252600482fd5b503461018b57602036600319011261018b576040816101209261010083516102288161171e565b82815282602082015282858201528260608201528260808201528260a08201528260c08201528260e082015201526004358152600a602052206040519061026e8261171e565b80546001600160a01b03908116835260018201548116602084019081526002830154604085019081526003840154606086019081526004850154841660808701908152600586015494851660a08881019182529496956103489560c08a0195929492916102df911c60ff16866117da565b600687015460e08a0190815260079097015460ff1615156101008a01908152604080519a516001600160a01b039081168c5299518a1660208c01529151918a019190915290516060890152905186166080880152905190941660a08601525160c08501906116d4565b5160e0830152511515610100820152f35b503461018b578060031936011261018b576020600354604051908152f35b503461018b57602036600319011261018b576001600160a01b03610399611644565b168152600b60205260408120604051908160208254918281520190819285526020852090855b81811061041657505050826103d591038361174f565b604051928392602084019060208552518091526040840192915b8181106103fd575050500390f35b82518452859450602093840193909201916001016103ef565b82548452602090930192600192830192016103bf565b503461018b578060031936011261018b576002546040516001600160a01b039091168152602090f35b503461018b578060031936011261018b576004546040516001600160a01b039091168152602090f35b503461018b578060031936011261018b57602060405161a4558152f35b503461018b57602036600319011261018b576040610120916004358152600a6020522060018060a01b038154169060018060a01b036001820154169061053e6002820154600383015460018060a01b036004850154169060058501549260ff600760068801549701541696604051988952602089015260408801526060870152608086015260018060a01b03811660a086015260ff60c086019160a01c166116d4565b60e08301521515610100820152f35b503461018b578060031936011261018b576006546040516001600160a01b039091168152602090f35b503461018b578060031936011261018b576020604051610d058152f35b503461018b578060031936011261018b576020600954604051908152f35b503461018b57602036600319011261018b5760ff60406020926004358152600784522054166040519015158152f35b503461018b57602036600319011261018b576105fa611644565b6001546001600160a01b031633036101f25760018060a01b03166001600160601b0360a01b600554161760055580f35b503461018b57602036600319011261018b57610644611644565b6001546001600160a01b031633036101f25760018060a01b03166001600160601b0360a01b600254161760025580f35b503461018b57604036600319011261018b5760043561069161165a565b6001546001600160a01b031633036106f857816040917f3867ef478c2fcf9f1d860353178b53a6a5b10cdee0ab40aacda7ca6b38b86d7393855260076020526106e8818487209060ff801983541691151516179055565b825191825215156020820152a180f35b637bfa4b9f60e01b8352600483fd5b503461018b57604036600319011261018b576020906001600160a01b0361072c611644565b168152600882526040812060243582528252604060018060a01b0391205416604051908152f35b503461018b5761076236611669565b600154909392906001600160a01b031633036106f8576001600160a01b03908116808452600860209081526040808620858752825280862080546001600160a01b031916979094169687179093558251918252810192909252810192909252907f8c1d62458596f974fefd3071a43aeb571879383abec298dc723d992444b12bdd90606090a180f35b503461018b578060031936011261018b57602060405160018152f35b503461018b57604036600319011261018b57610821611644565b6001600160a01b03168152600b602052604081208054602435929083101561018b57602061084f84846116f5565b90549060031b1c604051908152f35b503461018b578060031936011261018b5760206040516127108152f35b503461018b57604036600319011261018b5760606108b69160206108a86108a061165a565b600435611882565b6040519586949285906116d4565b6040838501528051928391826040870152018585015e828201840152601f01601f19168101030190f35b503461018b57606036600319011261018b5760043567ffffffffffffffff8111610ace576109129036906004016116a3565b60243567ffffffffffffffff8111610aca576109329036906004016116a3565b60443567ffffffffffffffff8111610ac6576109529036906004016116a3565b60015491949092916001600160a01b03163303610ab75781811480610aae575b15610a775786805b828110610985575080f35b7f8c1d62458596f974fefd3071a43aeb571879383abec298dc723d992444b12bdd8787610a6c610a416109d9868b8f828d610a346109d98f60019f90610a3a968d8f88946109de6109d9878e60409561185e565b61186e565b926001600160a01b036109f56109d989898961185e565b1682526008602052610a0b878b8585209361185e565b3582526020522080546001600160a01b0319166001600160a01b0390921691909117905561185e565b9861185e565b359661185e565b604080516001600160a01b039485168152602081019590955292169183019190915281906060820190565b0390a101879061097a565b60405162461bcd60e51b815260206004820152600f60248201526e098cadccee8d040dad2e6dac2e8c6d608b1b6044820152606490fd5b50828214610972565b637bfa4b9f60e01b8752600487fd5b8580fd5b8380fd5b5080fd5b503461018b57602036600319011261018b57610aec611644565b6001546001600160a01b031633036101f25760018060a01b03166001600160601b0360a01b600654161760065580f35b503461018b578060031936011261018b576005546040516001600160a01b039091168152602090f35b5060a036600319011261018b576024356001600160a01b0381169060043590829003610f1e5760843590811580158303610e1757610b81611ac5565b3415610f0f578315610f005761a4558214610ef157818552600760205260ff60408620541615610edd57612710610bba60035434611789565b0492610bcf610bc985346117b0565b94611b19565b6001831480928193610ed5575b5015610e2657505060055484919082906001600160a01b0316803b15610ace578185916024604051809481936303fb255b60e11b83528b60048401525af18015610e1b57610e02575b50505b60095493610c35856117cc565b6009556003831015610dee5782158015610de4575b8560405192610c588461171e565b3384528860208501818152604086018981526060870190888252608088019284845260a08901958652604060c08a0195610c928d886117da565b4260e08c019081529915156101008c01908152988152600a60205220985189546001600160a01b03199081166001600160a01b03928316178b55915160018b0180548416918316919091179055915160028a015591516003808a01919091559251600489018054841691831691909117905593516005880180549092169416939093178355905192939290811015610dd057815460ff60a01b191660a09190911b60ff60a01b16179055516006830155516007909101805491151560ff1660ff199290921691909117905560209460019390929091610da09190338552600b8852610d8087604087206117e6565b6040519385855288850152604084015283606084015260808301906116d4565b837f4464d2d028febe1f42eb9a17ce1641789da6faaf2cdb02fae07c83c903772c1a60a03393a355604051908152f35b634e487b7160e01b8a52602160045260248afd5b5060018314610c4a565b634e487b7160e01b86526021600452602486fd5b81610e0c9161174f565b610e1757845f610c25565b8480fd5b6040513d84823e3d90fd5b81610ecd575b5015610e3a57600290610c28565b60019082602060018060a01b036004541660a4604051809481936347758e8560e11b83528760048401528b60248401528a6044840152604435606484015260643560848401525af18015610ec257610e93575b50610c28565b610eb49060203d602011610ebb575b610eac818361174f565b8101906117bd565b505f610e8d565b503d610ea2565b6040513d88823e3d90fd5b90505f610e2c565b90505f610bdc565b631874ab9360e31b85526004829052602485fd5b63147dec5360e31b8552600485fd5b63d92e233d60e01b8552600485fd5b631f2a200560e01b8552600485fd5b8280fd5b503461018b57610f3136611669565b6001549293926001600160a01b031633036106f8578293610f50611ac5565b6001600160a01b031680610fb7575082809281925af1610f6e61181f565b5015610f7c575b6001815580f35b60405162461bcd60e51b8152602060048201526013602482015272115512081dda5d1a191c985dc819985a5b1959606a1b6044820152606490fd5b60405163a9059cbb60e01b81526001600160a01b0392909216600483015260248201929092529160209183916044918391905af1908115610e1b57829161100d575b50610f75576312171d8360e31b8152600490fd5b61102f915060203d602011611035575b611027818361174f565b810190611771565b5f610ff9565b503d61101d565b503461018b57602036600319011261018b57611056611644565b6001546001600160a01b031633036101f25760018060a01b03166001600160601b0360a01b600454161760045580f35b9050346114625760e0366003190112611462576110a1611644565b90606435906044356024356001600160a01b0384168085036114625760c43595861596871581036114625783156116355782156116265761a455851461161757845f52600760205260ff60405f20541615611604576323b872dd60e01b8652336004870152306024870152604486018490526001600160a01b038216956020816064815f8b5af1908115611457575f916115e5575b50156114665761116061115961271061115160035488611789565b0480966117b0565b94836119ba565b60018514908180998a936115dd575b501561149457505060055460405163095ea7b360e01b81526001600160a01b039091166004820152602481018490525f96906020816044818b8b5af1908115611457575f91611475575b5015611466576005546001600160a01b0316803b156114625760405163d6d344a160e01b81526001600160a01b038481166004830152929092166024830152604482018590525f908290606490829084905af1801561145757611442575b505b60095496611226886117cc565b6009551561141a57905b6003861015611406578686159182156113f8575b87604051946112528661171e565b3386528b602087018a81526040880190898252604060608a01938c855260808b019560018060a01b0316865260a08b0197885261129360c08c0197886117da565b4260e08c019081529915156101008c01908152988152600a60205220985189546001600160a01b03199081166001600160a01b03928316178b55915160018b0180548416918316919091179055915160028a015591516003808a019190915592516004890180548416918316919091179055935160058801805490921694169390931783559051929392908110156113e457815460ff60a01b191660a09190911b60ff60a01b16179055516006830155516007909101805491151560ff1660ff1992909216919091179055602095936113b59390929091338652600b885261137e87604088206117e6565b868652600a885260018060a01b036004604088200154169260405196508652878601526040850152606084015260808301906116d4565b817f4464d2d028febe1f42eb9a17ce1641789da6faaf2cdb02fae07c83c903772c1a60a03393a3604051908152f35b634e487b7160e01b8b52602160045260248bfd5b915050866001871491611244565b634e487b7160e01b88526021600452602488fd5b50838752600860209081526040808920858a529091528720546001600160a01b031690611230565b61144f9198505f9061174f565b5f965f611217565b6040513d5f823e3d90fd5b5f80fd5b6312171d8360e31b5f5260045ffd5b61148e915060203d60201161103557611027818361174f565b5f6111b9565b91965090816115d5575b50156114ac57600294611219565b600194845f52600860205260405f20845f5260205260018060a01b0360405f20541680156115be576004805460405163095ea7b360e01b81526001600160a01b0390911691810191909152602481018590526020816044815f8b5af1908115611457575f9161159f575b50156114665760205f9160e460018060a01b03600454169160405194859384926302095b7960e01b84528c60048501528a60248501528b6044850152606484015288608484015260843560a484015260a43560c48401525af1801561145757611580575b50611219565b6115989060203d602011610ebb57610eac818361174f565b505f61157a565b6115b8915060203d60201161103557611027818361174f565b5f611516565b8486630544c6b760e31b5f5260045260245260445ffd5b90505f61149e565b90505f61116f565b6115fe915060203d60201161103557611027818361174f565b5f611136565b84631874ab9360e31b5f5260045260245ffd5b63147dec5360e31b5f5260045ffd5b63d92e233d60e01b5f5260045ffd5b631f2a200560e01b5f5260045ffd5b600435906001600160a01b038216820361146257565b60243590811515820361146257565b6060906003190112611462576004356001600160a01b03811681036114625790602435906044356001600160a01b03811681036114625790565b9181601f840112156114625782359167ffffffffffffffff8311611462576020808501948460051b01011161146257565b9060038210156116e15752565b634e487b7160e01b5f52602160045260245ffd5b805482101561170a575f5260205f2001905f90565b634e487b7160e01b5f52603260045260245ffd5b610120810190811067ffffffffffffffff82111761173b57604052565b634e487b7160e01b5f52604160045260245ffd5b90601f8019910116810190811067ffffffffffffffff82111761173b57604052565b90816020910312611462575180151581036114625790565b8181029291811591840414171561179c57565b634e487b7160e01b5f52601160045260245ffd5b9190820391821161179c57565b90816020910312611462575190565b5f19811461179c5760010190565b60038210156116e15752565b80546801000000000000000081101561173b57611808916001820181556116f5565b819291549060031b91821b915f19901b1916179055565b3d15611859573d9067ffffffffffffffff821161173b576040519161184e601f8201601f19166020018461174f565b82523d5f602084013e565b606090565b919081101561170a5760051b0190565b356001600160a01b03811681036114625790565b61a455811461197b576001146118d157506001906040516118a460408261174f565b602081527f43726f73732d636861696e20766961204c692e46692061676772656761746f72602082015290565b61192a575f906040516118e560608261174f565b602f81527f4f5020537461636b206e6174697665206272696467652028372d64617920636860208201526e616c6c656e676520706572696f642960881b604082015290565b60029060405161193b60608261174f565b602a81527f46617374207769746864726177616c20766961204c502028696e7374616e742c60208201526920302e3325206665652960b01b604082015290565b50505f9060405161198d60408261174f565b601881527f416c7265616479206f6e20476f6f64446f6c6c6172204c320000000000000000602082015290565b8115808015611ab2575b611aad57610d05830290838204610d0514171561179c576127109004916119eb83826117b0565b5082611a33575b907f07b13559eaa146ed61df075bea94b216eb9119ecd66098e5c4bdfd46bb3a6d1a926060926040519260018060a01b0316835260208301526040820152a1565b60025460405163a9059cbb60e01b81526001600160a01b03909116600482015260248101849052909190602081806044810103815f6001600160a01b0387165af1908115611457575f91611a8e575b501561146657906119f2565b611aa7915060203d60201161103557611027818361174f565b5f611a82565b505050565b506002546001600160a01b0316156119c4565b60025f5414611ad45760025f55565b60405162461bcd60e51b815260206004820152601f60248201527f5265656e7472616e637947756172643a207265656e7472616e742063616c6c006044820152606490fd5b8015808015611be6575b611be257610d05820290828204610d0514171561179c57612710900480611b7e575b7f07b13559eaa146ed61df075bea94b216eb9119ecd66098e5c4bdfd46bb3a6d1a91606091604051915f835260208301526040820152a1565b5f8080808460018060a01b03600254165af1611b9861181f565b50611b455760405162461bcd60e51b815260206004820152601760248201527f55424920455448207472616e73666572206661696c65640000000000000000006044820152606490fd5b5050565b506002546001600160a01b031615611b2356fea26469706673582212205cedfb376ae951062c9fb79f448c82748daf70025f4c85a235b8ccc2e83965c264736f6c63430008210033","linkReferences":{}},"methodIdentifiers":{"BPS()":"249d39e9","L1_CHAIN_ID()":"2f90b184","L2_CHAIN_ID()":"8417d3c2","UBI_FEE_SHARE()":"6f8dce25","admin()":"f851a440","batchSetTokenMappings(address[],uint256[],address[])":"1e09a743","bridgeETH(uint256,address,uint256,uint256,bool)":"124f44de","bridgeTokens(address,uint256,uint256,address,uint256,uint256,bool)":"01e3e044","fastWithdrawalLP()":"74484b32","getRequest(uint256)":"c58343ef","getRouteInfo(uint256,bool)":"22f73b4c","getUserRequests(address)":"b337cf74","lifiAggregator()":"8a757246","nativeBridge()":"1a0b79bf","requestCount()":"5badbe4c","requests(uint256)":"81d12c58","routingFeeBps()":"c1097769","setFastWithdrawalLP(address)":"1cde7ee8","setLiFiAggregator(address)":"040a1264","setNativeBridge(address)":"5083d86b","setRoutingFeeBps(uint256)":"ebd7362f","setSupportedChain(uint256,bool)":"46c6f5f4","setTokenMapping(address,uint256,address)":"3eac57a7","setUBIPool(address)":"4f3f998f","supportedChains(uint256)":"548d496f","tokenMappings(address,uint256)":"40929e73","ubiPool()":"a06f7da7","userRequests(address,uint256)":"263cb6b6","withdrawProtocolFees(address,uint256,address)":"0d12394b"},"id":18}