{"abi":[{"type":"constructor","inputs":[{"name":"_goodDollar","type":"address","internalType":"address"},{"name":"_feeSplitter","type":"address","internalType":"address"},{"name":"_admin","type":"address","internalType":"address"}],"stateMutability":"nonpayable"},{"type":"function","name":"BPS","inputs":[],"outputs":[{"name":"","type":"uint256","internalType":"uint256"}],"stateMutability":"view"},{"type":"function","name":"REDEEM_FEE_BPS","inputs":[],"outputs":[{"name":"","type":"uint256","internalType":"uint256"}],"stateMutability":"view"},{"type":"function","name":"admin","inputs":[],"outputs":[{"name":"","type":"address","internalType":"address"}],"stateMutability":"view"},{"type":"function","name":"buy","inputs":[{"name":"marketId","type":"uint256","internalType":"uint256"},{"name":"isYES","type":"bool","internalType":"bool"},{"name":"amount","type":"uint256","internalType":"uint256"}],"outputs":[],"stateMutability":"nonpayable"},{"type":"function","name":"closeMarket","inputs":[{"name":"marketId","type":"uint256","internalType":"uint256"}],"outputs":[],"stateMutability":"nonpayable"},{"type":"function","name":"createMarket","inputs":[{"name":"question","type":"string","internalType":"string"},{"name":"endTime","type":"uint256","internalType":"uint256"},{"name":"resolver","type":"address","internalType":"address"}],"outputs":[{"name":"marketId","type":"uint256","internalType":"uint256"}],"stateMutability":"nonpayable"},{"type":"function","name":"feeSplitter","inputs":[],"outputs":[{"name":"","type":"address","internalType":"address"}],"stateMutability":"view"},{"type":"function","name":"getMarket","inputs":[{"name":"marketId","type":"uint256","internalType":"uint256"}],"outputs":[{"name":"question","type":"string","internalType":"string"},{"name":"endTime","type":"uint256","internalType":"uint256"},{"name":"status","type":"uint8","internalType":"enum MarketFactory.MarketStatus"},{"name":"totalYES","type":"uint256","internalType":"uint256"},{"name":"totalNO","type":"uint256","internalType":"uint256"},{"name":"collateral","type":"uint256","internalType":"uint256"}],"stateMutability":"view"},{"type":"function","name":"goodDollar","inputs":[],"outputs":[{"name":"","type":"address","internalType":"contract IPredictToken"}],"stateMutability":"view"},{"type":"function","name":"impliedProbabilityYES","inputs":[{"name":"marketId","type":"uint256","internalType":"uint256"}],"outputs":[{"name":"","type":"uint256","internalType":"uint256"}],"stateMutability":"view"},{"type":"function","name":"marketCount","inputs":[],"outputs":[{"name":"","type":"uint256","internalType":"uint256"}],"stateMutability":"view"},{"type":"function","name":"markets","inputs":[{"name":"","type":"uint256","internalType":"uint256"}],"outputs":[{"name":"question","type":"string","internalType":"string"},{"name":"endTime","type":"uint256","internalType":"uint256"},{"name":"status","type":"uint8","internalType":"enum MarketFactory.MarketStatus"},{"name":"totalYES","type":"uint256","internalType":"uint256"},{"name":"totalNO","type":"uint256","internalType":"uint256"},{"name":"collateral","type":"uint256","internalType":"uint256"},{"name":"resolver","type":"address","internalType":"address"}],"stateMutability":"view"},{"type":"function","name":"redeem","inputs":[{"name":"marketId","type":"uint256","internalType":"uint256"},{"name":"amount","type":"uint256","internalType":"uint256"}],"outputs":[],"stateMutability":"nonpayable"},{"type":"function","name":"resolve","inputs":[{"name":"marketId","type":"uint256","internalType":"uint256"},{"name":"yesWon","type":"bool","internalType":"bool"}],"outputs":[],"stateMutability":"nonpayable"},{"type":"function","name":"setAdmin","inputs":[{"name":"newAdmin","type":"address","internalType":"address"}],"outputs":[],"stateMutability":"nonpayable"},{"type":"function","name":"tokens","inputs":[],"outputs":[{"name":"","type":"address","internalType":"contract ConditionalTokens"}],"stateMutability":"view"},{"type":"function","name":"voidMarket","inputs":[{"name":"marketId","type":"uint256","internalType":"uint256"}],"outputs":[],"stateMutability":"nonpayable"},{"type":"event","name":"Bought","inputs":[{"name":"marketId","type":"uint256","indexed":true,"internalType":"uint256"},{"name":"buyer","type":"address","indexed":true,"internalType":"address"},{"name":"isYES","type":"bool","indexed":false,"internalType":"bool"},{"name":"amount","type":"uint256","indexed":false,"internalType":"uint256"},{"name":"cost","type":"uint256","indexed":false,"internalType":"uint256"}],"anonymous":false},{"type":"event","name":"MarketCreated","inputs":[{"name":"marketId","type":"uint256","indexed":true,"internalType":"uint256"},{"name":"question","type":"string","indexed":false,"internalType":"string"},{"name":"endTime","type":"uint256","indexed":false,"internalType":"uint256"},{"name":"resolver","type":"address","indexed":false,"internalType":"address"}],"anonymous":false},{"type":"event","name":"MarketResolved","inputs":[{"name":"marketId","type":"uint256","indexed":true,"internalType":"uint256"},{"name":"result","type":"uint8","indexed":false,"internalType":"enum MarketFactory.MarketStatus"}],"anonymous":false},{"type":"event","name":"MarketVoided","inputs":[{"name":"marketId","type":"uint256","indexed":true,"internalType":"uint256"}],"anonymous":false},{"type":"event","name":"Redeemed","inputs":[{"name":"marketId","type":"uint256","indexed":true,"internalType":"uint256"},{"name":"redeemer","type":"address","indexed":true,"internalType":"address"},{"name":"amount","type":"uint256","indexed":false,"internalType":"uint256"},{"name":"payout","type":"uint256","indexed":false,"internalType":"uint256"}],"anonymous":false},{"type":"error","name":"MarketExpired","inputs":[]},{"type":"error","name":"MarketNotClosed","inputs":[]},{"type":"error","name":"MarketNotExpired","inputs":[]},{"type":"error","name":"MarketNotOpen","inputs":[]},{"type":"error","name":"MarketNotResolved","inputs":[]},{"type":"error","name":"NotAdmin","inputs":[]},{"type":"error","name":"TransferFailed","inputs":[]},{"type":"error","name":"Unauthorized","inputs":[]},{"type":"error","name":"ZeroAddress","inputs":[]},{"type":"error","name":"ZeroAmount","inputs":[]}],"bytecode":{"object":"0x60e03461016f57601f611fcb38819003918201601f19168301916001600160401b0383118484101761014c5780849260609460405283398101031261016f5761004781610173565b90610060604061005960208401610173565b9201610173565b60015f556001600160a01b03909216918215610160576001600160a01b03821615610160576001600160a01b03169182156101605760a05260c052600180546001600160a01b031916919091179055604051610a2b808201906001600160401b0382118383101761014c5760209183916115a083393081520301905ff0801561014157608052604051611418908161018882396080518181816102f3015281816103d0015281816104120152610f33015260a0518181816104c2015281816105e401528181610eb1015261112d015260c0518181816105a301526108c50152f35b6040513d5f823e3d90fd5b634e487b7160e01b5f52604160045260245ffd5b63d92e233d60e01b5f5260045ffd5b5f80fd5b51906001600160a01b038216820361016f5756fe60e0806040526004361015610012575f80fd5b5f60c0525f3560e01c908163119e5bf31461111b5750806321620901146110f5578063249d39e9146110d957806338fd6bdb146110be578063438af92414610e2f57806352a34b0514610d42578063576cf9d01461098a5780635b7aa7bd146108f45780636052970c146108ae578063704b6c02146108355780637cbc2373146103225780639d63848a146102dc578063ae4180951461024e578063b1283e77146101ac578063eb44fdd31461012a578063ec9790821461010b5763f851a440146100db575f80fd5b346101055760c051366003190112610105576001546040516001600160a01b039091168152602090f35b60c05180fd5b346101055760c051366003190112610105576020600254604051908152f35b346101055760203660031901126101055761018961014960043561116b565b50600181015460ff600283015416916003810154600482015490610199610174600585015494611209565b9560405197889760c0895260c08901906112a9565b95602088015260408701906112cd565b6060850152608084015260a08301520390f35b3461010557602036600319011261010557600435600254811015610105576101d66102269161116b565b506101e081611209565b9060018101549060ff600282015416906003810154600482015490610236600584015493600660018060a01b03910154169460405198899860e08a5260e08a01906112a9565b96602089015260408801906112cd565b6060860152608085015260a084015260c08301520390f35b346101055760203660031901126101055761026a60043561116b565b50600281019060ff82541660058110156102c4576102b15760010154421061029e5760c051815460ff191660011790915580f35b63671eb0c560e01b60c05152600460c051fd5b63300b4e3360e21b60c05152600460c051fd5b634e487b7160e01b60c051526021600452602460c051fd5b346101055760c051366003190112610105576040517f00000000000000000000000000000000000000000000000000000000000000006001600160a01b03168152602090f35b346101055760403660031901126101055760243560043561034161138e565b8115610822576103508161116b565b5060ff60028201541660058110156102c4576004811490600281149082159081610819575b8161080d575b506107fa5760c051911561074d57508260011b83810460021484151715610735576001810180821161073557604051627eeac760e11b8152336004820152602481018390526020816044816001600160a01b037f0000000000000000000000000000000000000000000000000000000000000000165afa801561057f57879160c05191610700575b50106106f957505b849285915b7f00000000000000000000000000000000000000000000000000000000000000006001600160a01b031690813b1561010557604051637a94c56560e11b815260c080513360048401526024830193909352604482018a905251909283916064918391905af1801561057f576106e0575b5060056104909101918254611381565b90558061058c575b5060405163a9059cbb60e01b81523360048201526024810182905260c051602090829060449082907f00000000000000000000000000000000000000000000000000000000000000006001600160a01b03165af190811561057f5760c05191610550575b501561053d5760405192835260208301527fa5851b0172fdafd3dafe0e52ce051747548a4c642a2f22793c01faf228e1306260403393a360c0516001815580f35b6312171d8360e31b60c05152600460c051fd5b610572915060203d602011610578575b61056a81836111d3565b810190611351565b846104fc565b503d610560565b6040513d60c051823e3d90fd5b60405163095ea7b360e01b81526001600160a01b037f000000000000000000000000000000000000000000000000000000000000000081811660048401526024830184905260c05190939291602091839160449183917f0000000000000000000000000000000000000000000000000000000000000000165af190811561057f5760c051916106c1575b5015610687576040516364d6def960e01b8152600481019190915230602482015260c0519091606091839160449183916001600160a01b03165af1801561057f571561049857606090813d8311610680575b61067281836111d3565b810103126101055783610498565b503d610668565b60405162461bcd60e51b815260206004820152601260248201527113518e88185c1c1c9bdd994819985a5b195960721b6044820152606490fd5b6106da915060203d6020116105785761056a81836111d3565b86610616565b60c0516106ec916111d3565b60c0516101055786610480565b905061040b565b9150506020813d60201161072d575b8161071c602093836111d3565b810103126101055786905188610403565b3d915061070f565b634e487b7160e01b60c051526011600452602460c051fd5b91905081156107c4578260011b83810460021484151715610735575b91156107ba5760038101545b600582015485810291908683040361073557610790916112e7565b916064830283810460641484151715610735576127109004916107b38385611381565b9391610410565b6004810154610775565b8260011b8381046002148415171561073557600181018091111561076957634e487b7160e01b60c051526011600452602460c051fd5b63174b639360e11b60c05152600460c051fd5b6003915014158661037b565b82159150610375565b631f2a200560e01b60c05152600460c051fd5b34610105576020366003190112610105576004356001600160a01b03811690819003610105576001546001600160a01b038116330361089b578115610888576001600160a01b0319161760015560c05180f35b63d92e233d60e01b60c05152600460c051fd5b637bfa4b9f60e01b60c05152600460c051fd5b346101055760c051366003190112610105576040517f00000000000000000000000000000000000000000000000000000000000000006001600160a01b03168152602090f35b3461010557602036600319011261010557600154600435906001600160a01b0316330361089b5760026109268261116b565b500160ff81541660058110156102c457801515908161097e575b506102b15760c051815460ff19166004179091557f195195e0299c84aaf9806e53f35fd9fa6d45ba472297297393afe457bfff77199080a260c05180f35b60011415905083610940565b346101055760603660031901126101055760043567ffffffffffffffff811161010557366023820112156101055767ffffffffffffffff81600401351161010557366024826004013583010111610105576044356001600160a01b03811690818103610105576001546001600160a01b0316913383900361089b57426024351115610d2f5760c051608052610d2657506080525b60025460a05260405160e0810181811067ffffffffffffffff821117610cf5576040819052610a5b6004840135601f01601f1916602001826111d3565b600483013580825260248401602083013760c05160208460040135830101528152602081016024358152604082019060c0518252606083019160c05183526080840160c051815260a085019160c051835260018060a01b036080511660c08701526801000000000000000060a0511015610cf557600160a05101600255610ae360a05161116b565b949094610d0d57865180519067ffffffffffffffff8211610cf5578190610b0a885461119b565b601f8111610c92575b506020906001601f841114610c2b5760c05192610c20575b50508160011b915f199060031b1c19161785555b516001850155519360058510156102c457610b5f60069560028601611369565b516003840155516004830155516005820155019060c060018060a01b03910151166bffffffffffffffffffffffff60a01b8254161790557f57d0d124b72f81ed1da0dc728fc33db342705974792928796f6577b8db5c3d536040516060815282600401356060820152826004013560248401608083013760c0516080846004013583010152602435602082015260018060a01b0360805116604082015260808160a05194601f8019916004013501168101030190a2602060405160a0518152f35b015190508a80610b2b565b60c080518a9052518281209350601f198516905b818110610c7a5750908460019594939210610c62575b505050811b018555610b3f565b01515f1960f88460031b161c191690558a8080610c55565b92936020600181928786015181550195019301610c3f565b82811115610b13579091508760c05152602060c05120601f840160051c60208510610cec575b908493929160c0515b81601f850160051c038110610cd857505050610b13565b60c051838301820155869550600101610cc1565b5060c051610cb8565b634e487b7160e01b60c051526041600452602460c051fd5b634e487b7160e01b60c0515260c051600452602460c051fd5b60805250610a1e565b63b2094b5960e01b60c05152600460c051fd5b3461010557604036600319011261010557600435610d5e61115c565b610d678261116b565b50600281019060ff82541660058110156102c457600103610e1c57600601546001600160a01b031633141580610e07575b610df5577f739f283563fb51ab6b89ee95d937b2e63a6cfcb83c385dbebb629f9d97bd43e69160209160ff9115610deb57610dd560025b82611369565b5416610de460405180926112cd565ba260c05180f35b610dd56003610dcf565b6282b42960e81b60c05152600460c051fd5b506001546001600160a01b0316331415610d98565b63a8a9eb6960e01b60c05152600460c051fd5b34610fff576060366003190112610fff57600435610e4b61115c565b90604435610e5761138e565b80156110af57610e668261116b565b5060ff600282015416600581101561109b5761108c57600181015442101561107d576040516323b872dd60e01b8152336004820152306024820152604481018390526020816064815f7f00000000000000000000000000000000000000000000000000000000000000006001600160a01b03165af1908115610ff4575f9161105e575b501561104f5760058101610efe8382546112da565b9055831561102c578260011b8381046002148415171561101857905b841561100357600301610f2e8382546112da565b90555b7f00000000000000000000000000000000000000000000000000000000000000006001600160a01b0316803b15610fff57604051630ab714fb60e11b81523360048201526024810192909252604482018390525f908290606490829084905af18015610ff457610fe0575b50604051921515835280602084015260408301527f94b749af8a24a9e71a160cea1a268a96ec3299200f809d63344a0f668c0f034960603393a360c0516001815580f35b5f610fea916111d3565b5f60c05283610f9c565b6040513d5f823e3d90fd5b5f80fd5b6004016110118382546112da565b9055610f31565b634e487b7160e01b5f52601160045260245ffd5b8260011b8381046002148415171561101857600181018091116110185790610f1a565b6312171d8360e31b5f5260045ffd5b611077915060203d6020116105785761056a81836111d3565b85610ee9565b63b2094b5960e01b5f5260045ffd5b63300b4e3360e21b5f5260045ffd5b634e487b7160e01b5f52602160045260245ffd5b631f2a200560e01b5f5260045ffd5b34610fff575f366003190112610fff57602060405160648152f35b34610fff575f366003190112610fff5760206040516127108152f35b34610fff576020366003190112610fff576020611113600435611305565b604051908152f35b34610fff575f366003190112610fff577f00000000000000000000000000000000000000000000000000000000000000006001600160a01b03168152602090f35b602435908115158203610fff57565b6002548110156111875760025f52600760205f20910201905f90565b634e487b7160e01b5f52603260045260245ffd5b90600182811c921680156111c9575b60208310146111b557565b634e487b7160e01b5f52602260045260245ffd5b91607f16916111aa565b90601f8019910116810190811067ffffffffffffffff8211176111f557604052565b634e487b7160e01b5f52604160045260245ffd5b9060405191825f82549261121c8461119b565b80845293600181169081156112875750600114611243575b50611241925003836111d3565b565b90505f9291925260205f20905f915b81831061126b575050906020611241928201015f611234565b6020919350806001915483858901015201910190918492611252565b90506020925061124194915060ff191682840152151560051b8201015f611234565b805180835260209291819084018484015e5f828201840152601f01601f1916010190565b90600582101561109b5752565b9190820180921161101857565b81156112f1570490565b634e487b7160e01b5f52601260045260245ffd5b61130e9061116b565b5061132260046003830154920154826112da565b801561134957612710820291808304612710149015171561101857611346916112e7565b90565b505061138890565b90816020910312610fff57518015158103610fff5790565b90600581101561109b5760ff80198354169116179055565b9190820391821161101857565b60025f541461139d5760025f55565b60405162461bcd60e51b815260206004820152601f60248201527f5265656e7472616e637947756172643a207265656e7472616e742063616c6c006044820152606490fdfea2646970667358221220e1f45500dc2b506e2873780a637281fdc37d3010bac6091fb4d3bd66e33933a064736f6c6343000821003360a03461008c57601f610a2b38819003918201601f19168301916001600160401b038311848410176100905780849260209460405283398101031261008c57516001600160a01b03811680820361008c571561007d5760805260405161098690816100a5823960805181818160a501528181610334015261079e0152f35b63d92e233d60e01b5f5260045ffd5b5f80fd5b634e487b7160e01b5f52604160045260245ffdfe6080806040526004361015610012575f80fd5b5f3560e01c908162fdd58e146107f757508063156e29f61461078c5780632eb2c2d6146105a85780633c39b3571461056b5780634e1273f4146103ec578063a22cb46514610363578063c45a01551461031f578063e729dc30146102d9578063e985e9c514610282578063f242432a146101715763f5298aca14610094575f80fd5b3461016d576100a236610861565b917f00000000000000000000000000000000000000000000000000000000000000006001600160a01b0316330361015e5760018060a01b031690815f525f60205260405f20815f526020528260405f20541061014f575f9282845283602052604084208285526020526040842061011a828254610907565b905560405191825260208201527fc3d58168c5ae7397731d063d5bbf3d657854427343f4c083240f7aacaa2d0f6260403392a4005b631e9acf1760e31b5f5260045ffd5b631966391b60e11b5f5260045ffd5b5f80fd5b3461016d5760a036600319011261016d5761018a610835565b61019261084b565b6044356064359160843567ffffffffffffffff811161016d576101b99036906004016108bc565b50506001600160a01b0316928315610273576001600160a01b0316913383141580610250575b61024157825f525f60205260405f20825f526020528060405f20541061014f57825f525f60205260405f20825f5260205260405f2061021f828254610907565b9055835f525f60205260405f20825f5260205260405f2061011a8282546108ea565b63c19f17a960e01b5f5260045ffd5b505f83815260016020908152604080832033845290915290205460ff16156101df565b63d92e233d60e01b5f5260045ffd5b3461016d57604036600319011261016d5761029b610835565b6102a361084b565b9060018060a01b03165f52600160205260405f209060018060a01b03165f52602052602060ff60405f2054166040519015158152f35b3461016d57602036600319011261016d576004358060011b908082046002149015171561030b57602090604051908152f35b634e487b7160e01b5f52601160045260245ffd5b3461016d575f36600319011261016d576040517f00000000000000000000000000000000000000000000000000000000000000006001600160a01b03168152602090f35b3461016d57604036600319011261016d5761037c610835565b6024359081151580920361016d57335f52600160205260405f2060018060a01b0382165f5260205260405f2060ff1981541660ff841617905560405191825260018060a01b0316907f17307eab39ab6107e8899845ad3d59bd9653f200f220920489ca2b5937696c3160203392a3005b3461016d57604036600319011261016d5760043567ffffffffffffffff811161016d5761041d90369060040161088b565b60243567ffffffffffffffff811161016d5761043d90369060040161088b565b929083830361055c5761044f83610938565b6040519490601f01601f1916850167ffffffffffffffff8111868210176105485760405283855261047f84610938565b602086019490601f19013686375f5b8181106104d9578587604051918291602083019060208452518091526040830191905f5b8181106104c0575050500390f35b82518452859450602093840193909201916001016104b2565b6104e48183876108f7565b356001600160a01b0381169081900361016d575f525f60205260405f2061050c8285876108f7565b355f5260205260405f20549087518110156105345760019160208260051b8a0101520161048e565b634e487b7160e01b5f52603260045260245ffd5b634e487b7160e01b5f52604160045260245ffd5b631fec674760e31b5f5260045ffd5b3461016d57602036600319011261016d576004358060011b908082046002149015171561030b576001810180911161030b57602090604051908152f35b3461016d5760a036600319011261016d576105c1610835565b6105c961084b565b60443567ffffffffffffffff811161016d576105e990369060040161088b565b919060643567ffffffffffffffff811161016d5761060b90369060040161088b565b93909260843567ffffffffffffffff811161016d5761062e9036906004016108bc565b50506001600160a01b0316948515610273576001600160a01b0316933385141580610769575b6102415780820361055c575f5b8281106106bc5750906106b77f4a39dc06d4c0dbc64b70af90fd698a233a518aa5d07e595d983b8c0526c8f7fb93926106a7604051948594604086526040860191610914565b9083820360208501523396610914565b0390a4005b855f525f60205260405f206106d28285876108f7565b355f5260205260405f20546106e88284886108f7565b351161014f57806106fc60019284886108f7565b35875f525f60205260405f206107138387896108f7565b355f5260205261072860405f20918254610907565b90556107358184886108f7565b35885f525f60205260405f2061074c8387896108f7565b355f5260205261076160405f209182546108ea565b905501610661565b505f85815260016020908152604080832033845290915290205460ff1615610654565b3461016d5761079a36610861565b91907f00000000000000000000000000000000000000000000000000000000000000006001600160a01b0316330361015e575f9160018060a01b03169283835282602052604083208284526020526040832061011a8282546108ea565b3461016d57604036600319011261016d576020906001600160a01b0361081b610835565b165f525f825260405f206024355f52825260405f20548152f35b600435906001600160a01b038216820361016d57565b602435906001600160a01b038216820361016d57565b606090600319011261016d576004356001600160a01b038116810361016d57906024359060443590565b9181601f8401121561016d5782359167ffffffffffffffff831161016d576020808501948460051b01011161016d57565b9181601f8401121561016d5782359167ffffffffffffffff831161016d576020838186019501011161016d57565b9190820180921161030b57565b91908110156105345760051b0190565b9190820391821161030b57565b81835290916001600160fb1b03831161016d5760209260051b809284830137010190565b67ffffffffffffffff81116105485760051b6020019056fea2646970667358221220df0161d8ce049e440f7fb97b535176daa57912ff32d2ec0f0f712063461015ba64736f6c63430008210033","linkReferences":{}},"methodIdentifiers":{"BPS()":"249d39e9","REDEEM_FEE_BPS()":"38fd6bdb","admin()":"f851a440","buy(uint256,bool,uint256)":"438af924","closeMarket(uint256)":"ae418095","createMarket(string,uint256,address)":"576cf9d0","feeSplitter()":"6052970c","getMarket(uint256)":"eb44fdd3","goodDollar()":"119e5bf3","impliedProbabilityYES(uint256)":"21620901","marketCount()":"ec979082","markets(uint256)":"b1283e77","redeem(uint256,uint256)":"7cbc2373","resolve(uint256,bool)":"52a34b05","setAdmin(address)":"704b6c02","tokens()":"9d63848a","voidMarket(uint256)":"5b7aa7bd"},"id":43}