{"abi":[{"type":"constructor","inputs":[{"name":"_admin","type":"address","internalType":"address"},{"name":"_initialOracles","type":"address[]","internalType":"address[]"},{"name":"_emergencyPauser","type":"address","internalType":"address"},{"name":"_initialSupply","type":"uint256","internalType":"uint256"}],"stateMutability":"nonpayable"},{"type":"function","name":"ADMIN_ROLE","inputs":[],"outputs":[{"name":"","type":"bytes32","internalType":"bytes32"}],"stateMutability":"view"},{"type":"function","name":"CLAIM_INTERVAL","inputs":[],"outputs":[{"name":"","type":"uint256","internalType":"uint256"}],"stateMutability":"view"},{"type":"function","name":"EMERGENCY_ROLE","inputs":[],"outputs":[{"name":"","type":"bytes32","internalType":"bytes32"}],"stateMutability":"view"},{"type":"function","name":"ORACLE_ROLE","inputs":[],"outputs":[{"name":"","type":"bytes32","internalType":"bytes32"}],"stateMutability":"view"},{"type":"function","name":"TIMELOCK_DELAY","inputs":[],"outputs":[{"name":"","type":"uint256","internalType":"uint256"}],"stateMutability":"view"},{"type":"function","name":"UBI_FEE_BPS","inputs":[],"outputs":[{"name":"","type":"uint256","internalType":"uint256"}],"stateMutability":"view"},{"type":"function","name":"allowance","inputs":[{"name":"","type":"address","internalType":"address"},{"name":"","type":"address","internalType":"address"}],"outputs":[{"name":"","type":"uint256","internalType":"uint256"}],"stateMutability":"view"},{"type":"function","name":"approve","inputs":[{"name":"spender","type":"address","internalType":"address"},{"name":"amount","type":"uint256","internalType":"uint256"}],"outputs":[{"name":"","type":"bool","internalType":"bool"}],"stateMutability":"nonpayable"},{"type":"function","name":"balanceOf","inputs":[{"name":"","type":"address","internalType":"address"}],"outputs":[{"name":"","type":"uint256","internalType":"uint256"}],"stateMutability":"view"},{"type":"function","name":"batchRevokeHumans","inputs":[{"name":"humans","type":"address[]","internalType":"address[]"}],"outputs":[],"stateMutability":"nonpayable"},{"type":"function","name":"batchVerifyHumans","inputs":[{"name":"humans","type":"address[]","internalType":"address[]"}],"outputs":[],"stateMutability":"nonpayable"},{"type":"function","name":"calculateUBIFee","inputs":[{"name":"amount","type":"uint256","internalType":"uint256"}],"outputs":[{"name":"","type":"uint256","internalType":"uint256"}],"stateMutability":"pure"},{"type":"function","name":"cancelOracleChange","inputs":[{"name":"changeId","type":"uint256","internalType":"uint256"}],"outputs":[],"stateMutability":"nonpayable"},{"type":"function","name":"claimUBI","inputs":[],"outputs":[],"stateMutability":"nonpayable"},{"type":"function","name":"dailyUBIAmount","inputs":[],"outputs":[{"name":"","type":"uint256","internalType":"uint256"}],"stateMutability":"view"},{"type":"function","name":"decimals","inputs":[],"outputs":[{"name":"","type":"uint8","internalType":"uint8"}],"stateMutability":"view"},{"type":"function","name":"emergencyPauser","inputs":[],"outputs":[{"name":"","type":"address","internalType":"address"}],"stateMutability":"view"},{"type":"function","name":"executeOracleChange","inputs":[{"name":"changeId","type":"uint256","internalType":"uint256"}],"outputs":[],"stateMutability":"nonpayable"},{"type":"function","name":"fundUBIPool","inputs":[{"name":"amount","type":"uint256","internalType":"uint256"}],"outputs":[],"stateMutability":"nonpayable"},{"type":"function","name":"getRoleCount","inputs":[{"name":"role","type":"bytes32","internalType":"bytes32"}],"outputs":[{"name":"","type":"uint256","internalType":"uint256"}],"stateMutability":"view"},{"type":"function","name":"grantAdminRole","inputs":[{"name":"account","type":"address","internalType":"address"}],"outputs":[],"stateMutability":"nonpayable"},{"type":"function","name":"grantEmergencyRole","inputs":[{"name":"account","type":"address","internalType":"address"}],"outputs":[],"stateMutability":"nonpayable"},{"type":"function","name":"hasRole","inputs":[{"name":"","type":"bytes32","internalType":"bytes32"},{"name":"","type":"address","internalType":"address"}],"outputs":[{"name":"","type":"bool","internalType":"bool"}],"stateMutability":"view"},{"type":"function","name":"isChangeReady","inputs":[{"name":"changeId","type":"uint256","internalType":"uint256"}],"outputs":[{"name":"","type":"bool","internalType":"bool"}],"stateMutability":"view"},{"type":"function","name":"isVerifiedHuman","inputs":[{"name":"","type":"address","internalType":"address"}],"outputs":[{"name":"","type":"bool","internalType":"bool"}],"stateMutability":"view"},{"type":"function","name":"lastClaimTime","inputs":[{"name":"","type":"address","internalType":"address"}],"outputs":[{"name":"","type":"uint256","internalType":"uint256"}],"stateMutability":"view"},{"type":"function","name":"mint","inputs":[{"name":"to","type":"address","internalType":"address"},{"name":"amount","type":"uint256","internalType":"uint256"}],"outputs":[],"stateMutability":"nonpayable"},{"type":"function","name":"minters","inputs":[{"name":"","type":"address","internalType":"address"}],"outputs":[{"name":"","type":"bool","internalType":"bool"}],"stateMutability":"view"},{"type":"function","name":"name","inputs":[],"outputs":[{"name":"","type":"string","internalType":"string"}],"stateMutability":"view"},{"type":"function","name":"nextChangeId","inputs":[],"outputs":[{"name":"","type":"uint256","internalType":"uint256"}],"stateMutability":"view"},{"type":"function","name":"pendingOracleChanges","inputs":[{"name":"","type":"uint256","internalType":"uint256"}],"outputs":[{"name":"oracle","type":"address","internalType":"address"},{"name":"add","type":"bool","internalType":"bool"},{"name":"executeAt","type":"uint256","internalType":"uint256"},{"name":"executed","type":"bool","internalType":"bool"}],"stateMutability":"view"},{"type":"function","name":"pendingVerificationId","inputs":[{"name":"","type":"address","internalType":"address"}],"outputs":[{"name":"","type":"uint256","internalType":"uint256"}],"stateMutability":"view"},{"type":"function","name":"poolDistributionCycle","inputs":[],"outputs":[{"name":"","type":"uint256","internalType":"uint256"}],"stateMutability":"view"},{"type":"function","name":"revokeAdminRole","inputs":[{"name":"account","type":"address","internalType":"address"}],"outputs":[],"stateMutability":"nonpayable"},{"type":"function","name":"revokeEmergencyRole","inputs":[{"name":"account","type":"address","internalType":"address"}],"outputs":[],"stateMutability":"nonpayable"},{"type":"function","name":"roleCount","inputs":[{"name":"","type":"bytes32","internalType":"bytes32"}],"outputs":[{"name":"","type":"uint256","internalType":"uint256"}],"stateMutability":"view"},{"type":"function","name":"scheduleOracleChange","inputs":[{"name":"oracle","type":"address","internalType":"address"},{"name":"add","type":"bool","internalType":"bool"}],"outputs":[],"stateMutability":"nonpayable"},{"type":"function","name":"setDailyUBIAmount","inputs":[{"name":"amount","type":"uint256","internalType":"uint256"}],"outputs":[],"stateMutability":"nonpayable"},{"type":"function","name":"setMinter","inputs":[{"name":"minter","type":"address","internalType":"address"},{"name":"authorized","type":"bool","internalType":"bool"}],"outputs":[],"stateMutability":"nonpayable"},{"type":"function","name":"setVerificationPaused","inputs":[{"name":"_paused","type":"bool","internalType":"bool"}],"outputs":[],"stateMutability":"nonpayable"},{"type":"function","name":"symbol","inputs":[],"outputs":[{"name":"","type":"string","internalType":"string"}],"stateMutability":"view"},{"type":"function","name":"totalSupply","inputs":[],"outputs":[{"name":"","type":"uint256","internalType":"uint256"}],"stateMutability":"view"},{"type":"function","name":"totalVerifiedHumans","inputs":[],"outputs":[{"name":"","type":"uint256","internalType":"uint256"}],"stateMutability":"view"},{"type":"function","name":"transfer","inputs":[{"name":"to","type":"address","internalType":"address"},{"name":"amount","type":"uint256","internalType":"uint256"}],"outputs":[{"name":"","type":"bool","internalType":"bool"}],"stateMutability":"nonpayable"},{"type":"function","name":"transferFrom","inputs":[{"name":"from","type":"address","internalType":"address"},{"name":"to","type":"address","internalType":"address"},{"name":"amount","type":"uint256","internalType":"uint256"}],"outputs":[{"name":"","type":"bool","internalType":"bool"}],"stateMutability":"nonpayable"},{"type":"function","name":"ubiPool","inputs":[],"outputs":[{"name":"","type":"uint256","internalType":"uint256"}],"stateMutability":"view"},{"type":"function","name":"verificationPaused","inputs":[],"outputs":[{"name":"","type":"bool","internalType":"bool"}],"stateMutability":"view"},{"type":"function","name":"verificationVotes","inputs":[{"name":"","type":"address","internalType":"address"}],"outputs":[{"name":"approvals","type":"uint256","internalType":"uint256"},{"name":"rejections","type":"uint256","internalType":"uint256"},{"name":"status","type":"bool","internalType":"bool"},{"name":"executed","type":"bool","internalType":"bool"}],"stateMutability":"view"},{"type":"function","name":"voteVerifyHuman","inputs":[{"name":"human","type":"address","internalType":"address"},{"name":"approval","type":"bool","internalType":"bool"},{"name":"status","type":"bool","internalType":"bool"}],"outputs":[],"stateMutability":"nonpayable"},{"type":"event","name":"Approval","inputs":[{"name":"owner","type":"address","indexed":true,"internalType":"address"},{"name":"spender","type":"address","indexed":true,"internalType":"address"},{"name":"value","type":"uint256","indexed":false,"internalType":"uint256"}],"anonymous":false},{"type":"event","name":"DailyUBIDistributed","inputs":[{"name":"totalAmount","type":"uint256","indexed":false,"internalType":"uint256"},{"name":"recipients","type":"uint256","indexed":false,"internalType":"uint256"}],"anonymous":false},{"type":"event","name":"HumanVerified","inputs":[{"name":"human","type":"address","indexed":true,"internalType":"address"},{"name":"status","type":"bool","indexed":false,"internalType":"bool"}],"anonymous":false},{"type":"event","name":"MinterSet","inputs":[{"name":"minter","type":"address","indexed":true,"internalType":"address"},{"name":"authorized","type":"bool","indexed":false,"internalType":"bool"}],"anonymous":false},{"type":"event","name":"OracleChangeCanceled","inputs":[{"name":"changeId","type":"uint256","indexed":true,"internalType":"uint256"}],"anonymous":false},{"type":"event","name":"OracleChangeExecuted","inputs":[{"name":"changeId","type":"uint256","indexed":true,"internalType":"uint256"},{"name":"oracle","type":"address","indexed":true,"internalType":"address"},{"name":"add","type":"bool","indexed":false,"internalType":"bool"}],"anonymous":false},{"type":"event","name":"OracleChangeScheduled","inputs":[{"name":"changeId","type":"uint256","indexed":true,"internalType":"uint256"},{"name":"oracle","type":"address","indexed":true,"internalType":"address"},{"name":"add","type":"bool","indexed":false,"internalType":"bool"},{"name":"executeAt","type":"uint256","indexed":false,"internalType":"uint256"}],"anonymous":false},{"type":"event","name":"RoleGranted","inputs":[{"name":"role","type":"bytes32","indexed":true,"internalType":"bytes32"},{"name":"account","type":"address","indexed":true,"internalType":"address"},{"name":"sender","type":"address","indexed":true,"internalType":"address"}],"anonymous":false},{"type":"event","name":"RoleRevoked","inputs":[{"name":"role","type":"bytes32","indexed":true,"internalType":"bytes32"},{"name":"account","type":"address","indexed":true,"internalType":"address"},{"name":"sender","type":"address","indexed":true,"internalType":"address"}],"anonymous":false},{"type":"event","name":"Transfer","inputs":[{"name":"from","type":"address","indexed":true,"internalType":"address"},{"name":"to","type":"address","indexed":true,"internalType":"address"},{"name":"value","type":"uint256","indexed":false,"internalType":"uint256"}],"anonymous":false},{"type":"event","name":"UBIClaimed","inputs":[{"name":"claimer","type":"address","indexed":true,"internalType":"address"},{"name":"amount","type":"uint256","indexed":false,"internalType":"uint256"},{"name":"timestamp","type":"uint256","indexed":false,"internalType":"uint256"}],"anonymous":false},{"type":"event","name":"UBIPoolFunded","inputs":[{"name":"from","type":"address","indexed":true,"internalType":"address"},{"name":"amount","type":"uint256","indexed":false,"internalType":"uint256"}],"anonymous":false},{"type":"event","name":"VerificationConsensusReached","inputs":[{"name":"human","type":"address","indexed":true,"internalType":"address"},{"name":"status","type":"bool","indexed":false,"internalType":"bool"},{"name":"approvals","type":"uint256","indexed":false,"internalType":"uint256"},{"name":"rejections","type":"uint256","indexed":false,"internalType":"uint256"}],"anonymous":false},{"type":"event","name":"VerificationPaused","inputs":[{"name":"paused","type":"bool","indexed":false,"internalType":"bool"},{"name":"by","type":"address","indexed":true,"internalType":"address"}],"anonymous":false},{"type":"event","name":"VerificationVoteCast","inputs":[{"name":"human","type":"address","indexed":true,"internalType":"address"},{"name":"oracle","type":"address","indexed":true,"internalType":"address"},{"name":"approval","type":"bool","indexed":false,"internalType":"bool"},{"name":"status","type":"bool","indexed":false,"internalType":"bool"}],"anonymous":false},{"type":"error","name":"AlreadyClaimedToday","inputs":[]},{"type":"error","name":"AlreadyVoted","inputs":[]},{"type":"error","name":"ChangeAlreadyExecuted","inputs":[]},{"type":"error","name":"ChangeNotFound","inputs":[]},{"type":"error","name":"HumanAddressCannotBeZero","inputs":[]},{"type":"error","name":"InsufficientAllowance","inputs":[]},{"type":"error","name":"InsufficientBalance","inputs":[]},{"type":"error","name":"InsufficientOracles","inputs":[]},{"type":"error","name":"NoConsensusReached","inputs":[]},{"type":"error","name":"NotAuthorizedMinter","inputs":[]},{"type":"error","name":"NotVerifiedHuman","inputs":[]},{"type":"error","name":"TimelockNotReady","inputs":[{"name":"executeAt","type":"uint256","internalType":"uint256"}]},{"type":"error","name":"UnauthorizedRole","inputs":[{"name":"role","type":"bytes32","internalType":"bytes32"}]},{"type":"error","name":"VerificationAlreadyExecuted","inputs":[]},{"type":"error","name":"VerificationTemporarilyPaused","inputs":[]},{"type":"error","name":"VoteAlreadyExecuted","inputs":[]},{"type":"error","name":"VoteStatusMismatch","inputs":[]}],"bytecode":{"object":"0x608060405234610539576126b08038038061001981610551565b92833981016080828203126105395761003182610576565b60208301516001600160401b0381116105395783019180601f84011215610539578251926001600160401b03841161053d578360051b90602080610076818501610551565b80978152019282010192831161053957602001905b8282106105215750505060606100a360408501610576565b93015190670de0b6b3a764000060035560ff19600d5416600d556001600f5560028351106104d0576001600160a01b031690811561048b576001600160a01b0384168015610446575f8381525f5160206125f05f395f51905f52602052604090205460ff16156103b6575b5f8181525f5160206126505f395f51905f52602052604090205460ff1615610324575b505f5b835181101561029c576001600160a01b0361014f828661058a565b511615610257576001600160a01b03610168828661058a565b51166001600160a01b0381165f9081525f5160206126305f395f51905f52602052604090205490919060ff16156101a4575b6001915001610134565b6001600160a01b0382165f9081525f5160206126305f395f51905f52602090815260408220805460ff191660011790555f5160206126705f395f51905f52909152600c90527f78e56c2dff2a189de032bcb5acebfecd670b0fed994208210155baccea369c1f805492905f198414610243576001809401905533905f5160206126705f395f51905f525f5160206125d05f395f51905f525f80a461019a565b634e487b7160e01b5f52601160045260245ffd5b60405162461bcd60e51b815260206004820152601560248201527f4f7261636c652063616e6e6f74206265207a65726f00000000000000000000006044820152606490fd5b50600d8054610100600160a81b031916600886901b610100600160a81b03161790555f805490917fddf252ad1be2c89b69c2b068fc378daa952ba7f163c4a11628f55a4df523b3ef91602091906102f49082906105b2565b8455848452600182526040842061030c8282546105b2565b9055604051908152a360405161201090816105c08239f35b5f8181525f5160206126505f395f51905f52602090815260408220805460ff191660011790555f5160206126105f395f51905f52909152600c90527fa4c606af9a41768c64fb266cf77391b0379027eb641e549767d5ad41ff3fca1880545f19811461024357600101905533905f5160206126105f395f51905f525f5160206125d05f395f51905f525f80a45f610131565b5f8381525f5160206125f05f395f51905f52602090815260408220805460ff191660011790555f5160206126905f395f51905f52909152600c90527e3ceef2c1db83b6787a5c41679a318a5ac9afba2aefaa5b63262a742c74a3a880545f19811461024357600101905533835f5160206126905f395f51905f525f5160206125d05f395f51905f525f80a461010e565b60405162461bcd60e51b815260206004820152601f60248201527f456d657267656e6379207061757365722063616e6e6f74206265207a65726f006044820152606490fd5b60405162461bcd60e51b815260206004820152601460248201527f41646d696e2063616e6e6f74206265207a65726f0000000000000000000000006044820152606490fd5b60405162461bcd60e51b8152602060048201526024808201527f4e656564206174206c656173742032206f7261636c657320666f7220736563756044820152637269747960e01b6064820152608490fd5b6020809161052e84610576565b81520191019061008b565b5f80fd5b634e487b7160e01b5f52604160045260245ffd5b6040519190601f01601f191682016001600160401b0381118382101761053d57604052565b51906001600160a01b038216820361053957565b805182101561059e5760209160051b010190565b634e487b7160e01b5f52603260045260245ffd5b919082018092116102435756fe6080806040526004361015610012575f80fd5b5f3560e01c90816263fa2714611c8057508063065b3adf14611c5457806306ee279914611c1c57806306fdde0314611bdc57806307e2cea514611bb5578063095ea7b314611b3c57806318160ddd14611b205780631a880ded146119d85780631e947b371461159c57806320df4359146119b157806323b872dd146119105780632abd25d6146118165780632bee8d32146117f9578063313ce567146117de57806340c10f191461179257806341b23233146117765780634380cf4b1461175957806347b2c6e9146116f857806349d3a0c1146116db57806351a1c8d8146115e35780635ba1c1a9146115c65780636d1b010d1461159c57806370a0823114611564578063726e5cdc146115475780637314eb0c1461142b57806375b238fc1461140457806383adc2ff146113a857806391d148541461135f57806395d89b41146113235780639a19c7b014611191578063a06f7da714611174578063a2febe5614610fb7578063a825a68014610f9a578063a9059cbb14610f69578063aa710ae114610f2d578063acef2efc14610e15578063b77cf9c614610ddd578063b7d33d2614610b6e578063ba558e2014610a72578063bede589d146109b4578063c634b78e14610899578063cf456ae714610738578063d13b406814610716578063d5921f14146106de578063dd62ed3e1461068e578063e89ff1b614610362578063e90cee17146102d3578063f46eccc4146102965763fc64887b14610236575f80fd5b34610292576020366003190112610292576004355f52600e602052608060405f2080549060ff60026001830154920154169060ff6040519360018060a01b038116855260a01c1615156020840152604083015215156060820152f35b5f80fd5b34610292576020366003190112610292576001600160a01b036102b7611cb9565b165f526010602052602060ff60405f2054166040519015158152f35b34610292576020366003190112610292576004355f52600e602052602060405f206102fc611ce5565b90805460ff60018060a01b0382169182855260a01c1615158484015260ff60026001840154938460408701520154161592606084159101521515918261035a575b508161034f575b506040519015158152f35b905042101582610344565b91508361033d565b346102925760603660031901126102925761037b611cb9565b610383611dbd565b9060443580159182159081830361029257335f9081525f516020611f5b5f395f51905f52602052604090205460ff161561066e5760ff600d541661065f576001600160a01b031693841561065057845f52600960205260405f209081541580610644575b80610632575b610614575b600382019081548460ff82161515036106055760081c60ff166105f657335f90815260028401602081905260409091205460ff166105e757335f90815260209190915260409020805460ff1916600117905580156105d2576104548354611e1e565b83555b6040519015158152836020820152867fb6d355d5c754f3725c852e100e478925cb97e84b79d35af18d198fb6d30456bc60403393a35f516020611f9b5f395f51905f525f52600c60205260405f205460011c600181018091116105be57825410156104be57005b610520847f4bc0a56c6cfb51d0eea906904691178461423bff6b0aa40caea1739360bbe6f99681606097906105a7575b1561057357506104ff600854611e1e565b6008555b875f52600660205260405f209060ff801983541691151516179055565b857fd3ac88d7d7371ae60bfd5df4b594ee30e643822079fc7e3329ec4d090ff11e416020604051868152a261010061ff0019825416179055600181549101549060405192835260208301526040820152a2005b80610591575b1561050357610589600854611e2c565b600855610503565b50875f52600660205260ff60405f205416610579565b50885f52600660205260ff60405f205416156104ee565b634e487b7160e01b5f52601160045260245ffd5b600183016105e08154611e1e565b9055610457565b637c9a1cf960e01b5f5260045ffd5b63745266fd60e11b5f5260045ffd5b63edf7927960e01b5f5260045ffd5b61062d84600384019060ff801983541691151516179055565b6103f2565b5060ff600383015460081c16156103ed565b506001820154156103e7565b63865015f160e01b5f5260045ffd5b63df032a0960e01b5f5260045ffd5b63315bfbf160e11b5f525f516020611f9b5f395f51905f5260045260245ffd5b34610292576040366003190112610292576106a7611cb9565b6106af611ccf565b6001600160a01b039182165f908152600260209081526040808320949093168252928352819020549051908152f35b34610292576020366003190112610292576004356103e88102908082046103e814901517156105be5760209061271060405191048152f35b34610292575f36600319011261029257602060ff600d54166040519015158152f35b3461029257604036600319011261029257610751611cb9565b610759611dbd565b335f9081525f516020611f1b5f395f51905f52602052604090205460ff1615610879576001600160a01b03821691821561083457816107e3575b5060207f583b0aa0e528532caf4b907c11d7a8158a122fe2a6fb80cd9b09776ebea8d92d91835f52601082526107d88160405f209060ff801983541691151516179055565b6040519015158152a2005b3b156107ef5782610793565b60405162461bcd60e51b815260206004820152601960248201527f4d696e746572206d757374206265206120636f6e7472616374000000000000006044820152606490fd5b60405162461bcd60e51b815260206004820152601d60248201527f4d696e7465722063616e6e6f74206265207a65726f20616464726573730000006044820152606490fd5b63315bfbf160e11b5f525f516020611fbb5f395f51905f5260045260245ffd5b34610292576020366003190112610292576108b2611cb9565b335f9081525f516020611f1b5f395f51905f52602052604090205460ff1615610879576001600160a01b0381165f9081525f516020611f1b5f395f51905f52602052604090205460ff161561090357005b6001600160a01b0381165f9081525f516020611f1b5f395f51905f52602090815260408220805460ff191660011790555f516020611fbb5f395f51905f52909152600c90527e3ceef2c1db83b6787a5c41679a318a5ac9afba2aefaa5b63262a742c74a3a8805461097390611e1e565b905533906001600160a01b03165f516020611fbb5f395f51905f527f2f8788117e7eff1d82e926ec794901d17c78024a50270940304540a733656f0d5f80a4005b3461029257602036600319011261029257335f9081525f516020611f1b5f395f51905f5260205260409020546004359060ff1615610879575f818152600e6020526040902080546001600160a01b031615610a63576002015460ff16610a5457805f52600e6020525f60026040822082815582600182015501557f86f14c0d00c1d7adf5d773d053ec661e447e0ef1ce79ef438dab888e80d03b145f80a2005b6317660e5760e11b5f5260045ffd5b631c14e0ed60e11b5f5260045ffd5b3461029257610a8036611d69565b335f9081525f516020611f1b5f395f51905f52602052604090205490919060ff16156108795760ff600d541661065f575f5b828110610abb57005b6001906001600160a01b03610ad9610ad4838787611de6565b611e0a565b165f52600660205260ff60405f205416610af4575b01610ab2565b818060a01b03610b08610ad4838787611de6565b165f52600660205260405f2060ff198154169055610b27600854611e2c565b600855818060a01b03610b3e610ad4838787611de6565b167fd3ac88d7d7371ae60bfd5df4b594ee30e643822079fc7e3329ec4d090ff11e4160206040515f8152a2610aee565b34610292576020366003190112610292576004355f818152600e6020526040902080546001600160a01b038116908115610a635760028301805460ff8116610a54576001850154804210610dcb575060ff1916600117905560a01c60ff1615610cef575080546001600160a01b03165f8181525f516020611f5b5f395f51905f52602052604090205460ff1615610c42575b505b54907f06d0796df7818fe157717d5b7715643bab7bf22ad4e53a97b47b8150eb2cd86b60206040519360ff8160a01c161515855260018060a01b031693a3005b6001600160a01b0381165f9081525f516020611f5b5f395f51905f52602090815260408220805460ff191660011790555f516020611f9b5f395f51905f52909152600c90527f78e56c2dff2a189de032bcb5acebfecd670b0fed994208210155baccea369c1f8054610cb390611e1e565b905533905f516020611f9b5f395f51905f527f2f8788117e7eff1d82e926ec794901d17c78024a50270940304540a733656f0d5f80a482610c00565b6001600160a01b0381165f9081525f516020611f5b5f395f51905f52602052604090205460ff16610d21575b50610c02565b6001600160a01b0381165f9081525f516020611f5b5f395f51905f52602090815260408220805460ff191690555f516020611f9b5f395f51905f52909152600c90527f78e56c2dff2a189de032bcb5acebfecd670b0fed994208210155baccea369c1f8054610d8f90611e2c565b905533905f516020611f9b5f395f51905f527ff6391f5c32d9c69d2a47ea670b442974b53935d1edc7fd64eb21e047a839171b5f80a482610d1b565b63592e498760e01b5f5260045260245ffd5b34610292576020366003190112610292576001600160a01b03610dfe611cb9565b165f526007602052602060405f2054604051908152f35b3461029257602036600319011261029257610e2e611cb9565b335f9081525f516020611f1b5f395f51905f52602052604090205460ff1615610879576001600160a01b0381165f9081525f516020611f7b5f395f51905f52602052604090205460ff16610e7e57005b6001600160a01b0381165f9081525f516020611f7b5f395f51905f52602090815260408220805460ff191690555f516020611f3b5f395f51905f52909152600c90527fa4c606af9a41768c64fb266cf77391b0379027eb641e549767d5ad41ff3fca188054610eec90611e2c565b905533906001600160a01b03165f516020611f3b5f395f51905f527ff6391f5c32d9c69d2a47ea670b442974b53935d1edc7fd64eb21e047a839171b5f80a4005b3461029257602036600319011261029257335f9081525f516020611f1b5f395f51905f52602052604090205460ff161561087957600435600355005b3461029257604036600319011261029257610f8f610f85611cb9565b6024359033611e94565b602060405160018152f35b34610292575f366003190112610292576020600f54604051908152f35b3461029257604036600319011261029257610fd0611cb9565b610fd8611dbd565b335f9081525f516020611f1b5f395f51905f52602052604090205490919060ff1615610879576001600160a01b03169081156111375715801590806110f6575b6110e757600f549061102982611e1e565b600f556202a30042018042116105be577f04e1b00c558c967d92e92912347fa16b18d6f5ad06dac5c978bcdec3e68c7932916040916110da611069611ce5565b87815260026020820185815286830185815260608401915f83528a5f52600e602052885f209460018060a01b0390511685549160ff60a01b9051151560a01b16916affffffffffffffffffffff60a81b161717845551600184015551151591019060ff801983541691151516179055565b82519182526020820152a3005b63d0c0a93b60e01b5f5260045ffd5b505f516020611f9b5f395f51905f525f52600c6020527f78e56c2dff2a189de032bcb5acebfecd670b0fed994208210155baccea369c1f5460011015611018565b60405162461bcd60e51b81526020600482015260156024820152744f7261636c652063616e6e6f74206265207a65726f60581b6044820152606490fd5b34610292575f366003190112610292576020600454604051908152f35b34610292576020366003190112610292576111aa611cb9565b335f9081525f516020611f1b5f395f51905f52602052604090205460ff1615610879575f516020611fbb5f395f51905f525f52600c6020527e3ceef2c1db83b6787a5c41679a318a5ac9afba2aefaa5b63262a742c74a3a854600110156112e6576001600160a01b0381165f9081525f516020611f1b5f395f51905f52602052604090205460ff1661123857005b6001600160a01b0381165f9081525f516020611f1b5f395f51905f52602090815260408220805460ff191690555f516020611fbb5f395f51905f52909152600c90527e3ceef2c1db83b6787a5c41679a318a5ac9afba2aefaa5b63262a742c74a3a880546112a590611e2c565b905533906001600160a01b03165f516020611fbb5f395f51905f527ff6391f5c32d9c69d2a47ea670b442974b53935d1edc7fd64eb21e047a839171b5f80a4005b60405162461bcd60e51b81526020600482015260156024820152742732b2b21030ba103632b0b9ba10189030b236b4b760591b6044820152606490fd5b34610292575f3660031901126102925761135b6113406040611d19565b600281526111c960f21b602082015260405191829182611d3f565b0390f35b3461029257604036600319011261029257611378611ccf565b6004355f52600b60205260405f209060018060a01b03165f52602052602060ff60405f2054166040519015158152f35b34610292576020366003190112610292576004356113c7813033611e94565b6113d381600454611dcc565b6004556040519081527f7b320d49eac2c333db6dfb543995d40e9f8e96af936ee66da1ac03d9ec4a5a7760203392a2005b34610292575f3660031901126102925760206040515f516020611fbb5f395f51905f528152f35b3461029257602036600319011261029257611444611cb9565b335f9081525f516020611f1b5f395f51905f52602052604090205460ff1615610879576001600160a01b0381165f9081525f516020611f7b5f395f51905f52602052604090205460ff161561149557005b6001600160a01b0381165f9081525f516020611f7b5f395f51905f52602090815260408220805460ff191660011790555f516020611f3b5f395f51905f52909152600c90527fa4c606af9a41768c64fb266cf77391b0379027eb641e549767d5ad41ff3fca18805461150690611e1e565b905533906001600160a01b03165f516020611f3b5f395f51905f527f2f8788117e7eff1d82e926ec794901d17c78024a50270940304540a733656f0d5f80a4005b34610292575f366003190112610292576020600354604051908152f35b34610292576020366003190112610292576001600160a01b03611585611cb9565b165f526001602052602060405f2054604051908152f35b34610292576020366003190112610292576004355f52600c602052602060405f2054604051908152f35b34610292575f3660031901126102925760206040516202a3008152f35b346102925760203660031901126102925760043580151580910361029257335f9081525f516020611f7b5f395f51905f52602052604090205460ff1680156116b7575b156116685760ff19600d541660ff821617600d556040519081527f0f801b89be35aefc6e149d635cc69ec49a1db2cff301883da54fedfd98cd5beb60203392a2005b60405162461bcd60e51b815260206004820152602160248201527f4e65656420454d455247454e43595f524f4c45206f722041444d494e5f524f4c6044820152604560f81b6064820152608490fd5b50335f9081525f516020611f1b5f395f51905f52602052604090205460ff16611626565b34610292575f366003190112610292576020604051620151808152f35b34610292576020366003190112610292576001600160a01b03611719611cb9565b165f526009602052608060405f2060ff815491600360018201549101549060405193845260208401528181161515604084015260081c1615156060820152f35b34610292575f366003190112610292576020600554604051908152f35b34610292575f3660031901126102925760206040516103e88152f35b34610292576040366003190112610292576117ab611cb9565b335f52601060205260ff60405f205416156117cf576117cd9060243590611e38565b005b63019a5d1d60e71b5f5260045ffd5b34610292575f36600319011261029257602060405160128152f35b34610292575f366003190112610292576020600854604051908152f35b346102925761182436611d69565b335f9081525f516020611f1b5f395f51905f52602052604090205490919060ff16156108795760ff600d541661065f575f5b82811061185f57005b6001906001600160a01b03611878610ad4838787611de6565b165f52600660205260ff60405f20541615611894575b01611856565b818060a01b036118a8610ad4838787611de6565b165f52600660205260405f208260ff198254161790556118c9600854611e1e565b600855818060a01b036118e0610ad4838787611de6565b167fd3ac88d7d7371ae60bfd5df4b594ee30e643822079fc7e3329ec4d090ff11e416020604051858152a261188e565b3461029257606036600319011261029257611929611cb9565b611931611ccf565b6001600160a01b0382165f8181526002602090815260408083203384529091529020549260443592916001850161196e575b50610f8f9350611e94565b8385106119a25761198284610f8f96611dd9565b5f9182526002602090815260408084203385529091529091205584611963565b6313be252b60e01b5f5260045ffd5b34610292575f3660031901126102925760206040515f516020611f3b5f395f51905f528152f35b34610292575f36600319011261029257335f52600660205260ff60405f20541615611b1157335f52600760205260405f2054151580611aef575b611ae057335f5260076020524260405f2055600354611a318133611e38565b5f60045480151580611ad5575b611a81575b50611a4d91611dcc565b6040519081524260208201527fa265860bad5040e1bef830652f782ec55a23a74fc92eb2c770e61d7d50cbb01560403392a2005b9050600854918215611ac157611a4d928204918280611aa3575b505091611a43565b611ab081611aba93611dd9565b6004553330611e94565b8380611a9b565b634e487b7160e01b5f52601260045260245ffd5b506008541515611a3e565b631cd8d2cf60e11b5f5260045ffd5b50335f52600760205260405f20546201518081018091116105be574210611a12565b6329c1fbb960e01b5f5260045ffd5b34610292575f3660031901126102925760205f54604051908152f35b3461029257604036600319011261029257611b55611cb9565b335f8181526002602090815260408083206001600160a01b03909516808452948252918290206024359081905591519182527f8c5be1e5ebec7d5bd14f71427d1e84f3dd0314c0f7b2291e5b200ac8c7c3b92591a3602060405160018152f35b34610292575f3660031901126102925760206040515f516020611f9b5f395f51905f528152f35b34610292575f3660031901126102925761135b611bf96040611d19565b600a81526923b7b7b22237b63630b960b11b602082015260405191829182611d3f565b34610292576020366003190112610292576001600160a01b03611c3d611cb9565b165f52600a602052602060405f2054604051908152f35b34610292575f36600319011261029257600d5460405160089190911c6001600160a01b03168152602090f35b34610292576020366003190112610292576020906001600160a01b03611ca4611cb9565b165f526006825260ff60405f20541615158152f35b600435906001600160a01b038216820361029257565b602435906001600160a01b038216820361029257565b604051906080820182811067ffffffffffffffff821117611d0557604052565b634e487b7160e01b5f52604160045260245ffd5b6040519190601f01601f1916820167ffffffffffffffff811183821017611d0557604052565b602060409281835280519182918282860152018484015e5f828201840152601f01601f1916010190565b9060206003198301126102925760043567ffffffffffffffff811161029257826023820112156102925780600401359267ffffffffffffffff84116102925760248460051b83010111610292576024019190565b60243590811515820361029257565b919082018092116105be57565b919082039182116105be57565b9190811015611df65760051b0190565b634e487b7160e01b5f52603260045260245ffd5b356001600160a01b03811681036102925790565b5f1981146105be5760010190565b80156105be575f190190565b7fddf252ad1be2c89b69c2b068fc378daa952ba7f163c4a11628f55a4df523b3ef60205f92611e68858554611dcc565b845560018060a01b0316938484526001825260408420611e89828254611dcc565b9055604051908152a3565b60018060a01b031690815f5260016020528260405f205410611f0b5760207fddf252ad1be2c89b69c2b068fc378daa952ba7f163c4a11628f55a4df523b3ef91835f526001825260405f20611eea868254611dd9565b905560018060a01b031693845f526001825260405f20611e89828254611dcc565b631e9acf1760e31b5f5260045ffdfe5329df1543cb285eabd9ee00d915d71c9b1e8ff70a737be4b25897d47fe38cd2bf233dd2aafeb4d50879c4aa5c81e96d92f6e6945c906a58f9f2d1c1631b4b26c72ca90c1e674b86b78654cff116f547d54899a7efe66a7c40876e03f4c251b1cb168ddb972f6060b735e8ba4d8785a3a7e035a53c430ed3b60f741034730d0a68e79a7bf1e0bc45d0a330c573bc367f9cf464fd326078812f301165fbda4ef1a49807205ce4d355092ef5a8a18f56e8913cf4a201fbe287825b095693c21775a264697066735822122096833e843c7cd0c5649fb1a685d1abd9cf0afc575c3c23e6b3bd62e6d4fc90c764736f6c634300082100332f8788117e7eff1d82e926ec794901d17c78024a50270940304540a733656f0d5329df1543cb285eabd9ee00d915d71c9b1e8ff70a737be4b25897d47fe38cd2bf233dd2aafeb4d50879c4aa5c81e96d92f6e6945c906a58f9f2d1c1631b4b26c72ca90c1e674b86b78654cff116f547d54899a7efe66a7c40876e03f4c251b1cb168ddb972f6060b735e8ba4d8785a3a7e035a53c430ed3b60f741034730d0a68e79a7bf1e0bc45d0a330c573bc367f9cf464fd326078812f301165fbda4ef1a49807205ce4d355092ef5a8a18f56e8913cf4a201fbe287825b095693c21775","linkReferences":{}},"methodIdentifiers":{"ADMIN_ROLE()":"75b238fc","CLAIM_INTERVAL()":"49d3a0c1","EMERGENCY_ROLE()":"20df4359","ORACLE_ROLE()":"07e2cea5","TIMELOCK_DELAY()":"5ba1c1a9","UBI_FEE_BPS()":"41b23233","allowance(address,address)":"dd62ed3e","approve(address,uint256)":"095ea7b3","balanceOf(address)":"70a08231","batchRevokeHumans(address[])":"ba558e20","batchVerifyHumans(address[])":"2abd25d6","calculateUBIFee(uint256)":"d5921f14","cancelOracleChange(uint256)":"bede589d","claimUBI()":"1a880ded","dailyUBIAmount()":"726e5cdc","decimals()":"313ce567","emergencyPauser()":"065b3adf","executeOracleChange(uint256)":"b7d33d26","fundUBIPool(uint256)":"83adc2ff","getRoleCount(bytes32)":"1e947b37","grantAdminRole(address)":"c634b78e","grantEmergencyRole(address)":"7314eb0c","hasRole(bytes32,address)":"91d14854","isChangeReady(uint256)":"e90cee17","isVerifiedHuman(address)":"0063fa27","lastClaimTime(address)":"b77cf9c6","mint(address,uint256)":"40c10f19","minters(address)":"f46eccc4","name()":"06fdde03","nextChangeId()":"a825a680","pendingOracleChanges(uint256)":"fc64887b","pendingVerificationId(address)":"06ee2799","poolDistributionCycle()":"4380cf4b","revokeAdminRole(address)":"9a19c7b0","revokeEmergencyRole(address)":"acef2efc","roleCount(bytes32)":"6d1b010d","scheduleOracleChange(address,bool)":"a2febe56","setDailyUBIAmount(uint256)":"aa710ae1","setMinter(address,bool)":"cf456ae7","setVerificationPaused(bool)":"51a1c8d8","symbol()":"95d89b41","totalSupply()":"18160ddd","totalVerifiedHumans()":"2bee8d32","transfer(address,uint256)":"a9059cbb","transferFrom(address,address,uint256)":"23b872dd","ubiPool()":"a06f7da7","verificationPaused()":"d13b4068","verificationVotes(address)":"47b2c6e9","voteVerifyHuman(address,bool,bool)":"e89ff1b6"},"id":18}