{"abi":[{"type":"constructor","inputs":[],"stateMutability":"nonpayable"},{"type":"function","name":"MAX_LEADERBOARD_COUNT","inputs":[],"outputs":[{"name":"","type":"uint256","internalType":"uint256"}],"stateMutability":"view"},{"type":"function","name":"acceptAdmin","inputs":[],"outputs":[],"stateMutability":"nonpayable"},{"type":"function","name":"addReporter","inputs":[{"name":"reporter","type":"address","internalType":"address"}],"outputs":[],"stateMutability":"nonpayable"},{"type":"function","name":"admin","inputs":[],"outputs":[{"name":"","type":"address","internalType":"address"}],"stateMutability":"view"},{"type":"function","name":"agents","inputs":[{"name":"","type":"uint256","internalType":"uint256"}],"outputs":[{"name":"","type":"address","internalType":"address"}],"stateMutability":"view"},{"type":"function","name":"authorizedReporters","inputs":[{"name":"","type":"address","internalType":"address"}],"outputs":[{"name":"","type":"bool","internalType":"bool"}],"stateMutability":"view"},{"type":"function","name":"deactivateAgent","inputs":[{"name":"agent","type":"address","internalType":"address"}],"outputs":[],"stateMutability":"nonpayable"},{"type":"function","name":"getAgent","inputs":[{"name":"index","type":"uint256","internalType":"uint256"}],"outputs":[{"name":"","type":"address","internalType":"address"}],"stateMutability":"view"},{"type":"function","name":"getAgentCount","inputs":[],"outputs":[{"name":"","type":"uint256","internalType":"uint256"}],"stateMutability":"view"},{"type":"function","name":"getAgentInfo","inputs":[{"name":"agent","type":"address","internalType":"address"}],"outputs":[{"name":"profile","type":"tuple","internalType":"struct AgentRegistry.AgentProfile","components":[{"name":"name","type":"string","internalType":"string"},{"name":"avatarURI","type":"string","internalType":"string"},{"name":"strategy","type":"string","internalType":"string"},{"name":"owner","type":"address","internalType":"address"},{"name":"registeredAt","type":"uint256","internalType":"uint256"},{"name":"active","type":"bool","internalType":"bool"}]},{"name":"agentStats","type":"tuple","internalType":"struct AgentRegistry.AgentStats","components":[{"name":"totalTrades","type":"uint256","internalType":"uint256"},{"name":"totalVolume","type":"uint256","internalType":"uint256"},{"name":"totalFeesGenerated","type":"uint256","internalType":"uint256"},{"name":"ubiContribution","type":"uint256","internalType":"uint256"},{"name":"totalPnL","type":"uint256","internalType":"uint256"},{"name":"pnlPositive","type":"bool","internalType":"bool"},{"name":"lastActiveAt","type":"uint256","internalType":"uint256"}]}],"stateMutability":"view"},{"type":"function","name":"getAgentProtocolStats","inputs":[{"name":"agent","type":"address","internalType":"address"},{"name":"protocol","type":"string","internalType":"string"}],"outputs":[{"name":"","type":"tuple","internalType":"struct AgentRegistry.ProtocolActivity","components":[{"name":"trades","type":"uint256","internalType":"uint256"},{"name":"volume","type":"uint256","internalType":"uint256"},{"name":"fees","type":"uint256","internalType":"uint256"}]}],"stateMutability":"view"},{"type":"function","name":"getDashboardStats","inputs":[],"outputs":[{"name":"_totalAgents","type":"uint256","internalType":"uint256"},{"name":"_totalTrades","type":"uint256","internalType":"uint256"},{"name":"_totalVolume","type":"uint256","internalType":"uint256"},{"name":"_totalUBI","type":"uint256","internalType":"uint256"}],"stateMutability":"view"},{"type":"function","name":"getTopAgents","inputs":[{"name":"count","type":"uint256","internalType":"uint256"}],"outputs":[{"name":"topAddrs","type":"address[]","internalType":"address[]"},{"name":"topNames","type":"string[]","internalType":"string[]"},{"name":"topUBI","type":"uint256[]","internalType":"uint256[]"},{"name":"topVolume","type":"uint256[]","internalType":"uint256[]"},{"name":"topTrades","type":"uint256[]","internalType":"uint256[]"}],"stateMutability":"view"},{"type":"function","name":"isRegistered","inputs":[{"name":"","type":"address","internalType":"address"}],"outputs":[{"name":"","type":"bool","internalType":"bool"}],"stateMutability":"view"},{"type":"function","name":"maxAgents","inputs":[],"outputs":[{"name":"","type":"uint256","internalType":"uint256"}],"stateMutability":"view"},{"type":"function","name":"pendingAdmin","inputs":[],"outputs":[{"name":"","type":"address","internalType":"address"}],"stateMutability":"view"},{"type":"function","name":"profiles","inputs":[{"name":"","type":"address","internalType":"address"}],"outputs":[{"name":"name","type":"string","internalType":"string"},{"name":"avatarURI","type":"string","internalType":"string"},{"name":"strategy","type":"string","internalType":"string"},{"name":"owner","type":"address","internalType":"address"},{"name":"registeredAt","type":"uint256","internalType":"uint256"},{"name":"active","type":"bool","internalType":"bool"}],"stateMutability":"view"},{"type":"function","name":"protocolStats","inputs":[{"name":"","type":"address","internalType":"address"},{"name":"","type":"string","internalType":"string"}],"outputs":[{"name":"trades","type":"uint256","internalType":"uint256"},{"name":"volume","type":"uint256","internalType":"uint256"},{"name":"fees","type":"uint256","internalType":"uint256"}],"stateMutability":"view"},{"type":"function","name":"recordActivity","inputs":[{"name":"agent","type":"address","internalType":"address"},{"name":"protocol","type":"string","internalType":"string"},{"name":"volume","type":"uint256","internalType":"uint256"},{"name":"fees","type":"uint256","internalType":"uint256"}],"outputs":[],"stateMutability":"nonpayable"},{"type":"function","name":"recordPnL","inputs":[{"name":"agent","type":"address","internalType":"address"},{"name":"amount","type":"uint256","internalType":"uint256"},{"name":"positive","type":"bool","internalType":"bool"}],"outputs":[],"stateMutability":"nonpayable"},{"type":"function","name":"registerAgent","inputs":[{"name":"agent","type":"address","internalType":"address"},{"name":"name","type":"string","internalType":"string"},{"name":"avatarURI","type":"string","internalType":"string"},{"name":"strategy","type":"string","internalType":"string"}],"outputs":[],"stateMutability":"nonpayable"},{"type":"function","name":"removeReporter","inputs":[{"name":"reporter","type":"address","internalType":"address"}],"outputs":[],"stateMutability":"nonpayable"},{"type":"function","name":"reporters","inputs":[{"name":"","type":"uint256","internalType":"uint256"}],"outputs":[{"name":"","type":"address","internalType":"address"}],"stateMutability":"view"},{"type":"function","name":"setMaxAgents","inputs":[{"name":"_max","type":"uint256","internalType":"uint256"}],"outputs":[],"stateMutability":"nonpayable"},{"type":"function","name":"setUBIBPS","inputs":[{"name":"_bps","type":"uint256","internalType":"uint256"}],"outputs":[],"stateMutability":"nonpayable"},{"type":"function","name":"stats","inputs":[{"name":"","type":"address","internalType":"address"}],"outputs":[{"name":"totalTrades","type":"uint256","internalType":"uint256"},{"name":"totalVolume","type":"uint256","internalType":"uint256"},{"name":"totalFeesGenerated","type":"uint256","internalType":"uint256"},{"name":"ubiContribution","type":"uint256","internalType":"uint256"},{"name":"totalPnL","type":"uint256","internalType":"uint256"},{"name":"pnlPositive","type":"bool","internalType":"bool"},{"name":"lastActiveAt","type":"uint256","internalType":"uint256"}],"stateMutability":"view"},{"type":"function","name":"totalAgents","inputs":[],"outputs":[{"name":"","type":"uint256","internalType":"uint256"}],"stateMutability":"view"},{"type":"function","name":"totalTrades","inputs":[],"outputs":[{"name":"","type":"uint256","internalType":"uint256"}],"stateMutability":"view"},{"type":"function","name":"totalUBIGenerated","inputs":[],"outputs":[{"name":"","type":"uint256","internalType":"uint256"}],"stateMutability":"view"},{"type":"function","name":"totalVolume","inputs":[],"outputs":[{"name":"","type":"uint256","internalType":"uint256"}],"stateMutability":"view"},{"type":"function","name":"transferAdmin","inputs":[{"name":"newAdmin","type":"address","internalType":"address"}],"outputs":[],"stateMutability":"nonpayable"},{"type":"function","name":"ubiBPS","inputs":[],"outputs":[{"name":"","type":"uint256","internalType":"uint256"}],"stateMutability":"view"},{"type":"function","name":"updateProfile","inputs":[{"name":"agent","type":"address","internalType":"address"},{"name":"name","type":"string","internalType":"string"},{"name":"avatarURI","type":"string","internalType":"string"},{"name":"strategy","type":"string","internalType":"string"}],"outputs":[],"stateMutability":"nonpayable"},{"type":"event","name":"ActivityRecorded","inputs":[{"name":"agent","type":"address","indexed":true,"internalType":"address"},{"name":"protocol","type":"string","indexed":false,"internalType":"string"},{"name":"volume","type":"uint256","indexed":false,"internalType":"uint256"},{"name":"fees","type":"uint256","indexed":false,"internalType":"uint256"},{"name":"ubiShare","type":"uint256","indexed":false,"internalType":"uint256"}],"anonymous":false},{"type":"event","name":"AdminTransferInitiated","inputs":[{"name":"previousAdmin","type":"address","indexed":true,"internalType":"address"},{"name":"pendingAdmin","type":"address","indexed":true,"internalType":"address"}],"anonymous":false},{"type":"event","name":"AdminTransferred","inputs":[{"name":"previousAdmin","type":"address","indexed":true,"internalType":"address"},{"name":"newAdmin","type":"address","indexed":true,"internalType":"address"}],"anonymous":false},{"type":"event","name":"AgentDeactivated","inputs":[{"name":"agent","type":"address","indexed":true,"internalType":"address"}],"anonymous":false},{"type":"event","name":"AgentRegistered","inputs":[{"name":"agent","type":"address","indexed":true,"internalType":"address"},{"name":"name","type":"string","indexed":false,"internalType":"string"},{"name":"owner","type":"address","indexed":true,"internalType":"address"}],"anonymous":false},{"type":"event","name":"AgentUpdated","inputs":[{"name":"agent","type":"address","indexed":true,"internalType":"address"},{"name":"name","type":"string","indexed":false,"internalType":"string"}],"anonymous":false},{"type":"event","name":"ReporterAdded","inputs":[{"name":"reporter","type":"address","indexed":true,"internalType":"address"}],"anonymous":false},{"type":"event","name":"ReporterRemoved","inputs":[{"name":"reporter","type":"address","indexed":true,"internalType":"address"}],"anonymous":false}],"bytecode":{"object":"0x608080604052346032576107d06002556103e86003555f80546001600160a01b0319163317905561271690816100378239f35b5f80fdfe6080806040526004361015610012575f80fd5b5f3560e01c9081630a34d63714612151575080630e18b6811461209c578063152052b014611e495780632678224714611e215780632bfa4e0814611d875780632de5aaf714611d69578063388ae35614611cb15780633a41429a14611c74578063513856c814611c325780635de5c21214611bc15780635e02cb7d14611b495780635f81a57c14611b2c5780636652189314611b0f57806369f1324d1461162c57806375829def1461156f5780638bcdcbf3146114f157806391cab63e146114d45780639d5a39411461118c578063a2f6805c14611156578063a4efe69e146110db578063ae14e62714611055578063af537a2f14611038578063b0a0a92714610f84578063b1e29ea414610c23578063b896f22214610b73578063bbe1562714610a8b578063c3c5a54714610a4e578063c505371214610a31578063dd8755f214610927578063e031ed2b1461090c578063e275c997146108ef578063e2f11e61146101b25763f851a44014610187575f80fd5b346101ae575f3660031901126101ae575f546040516001600160a01b039091168152602090f35b5f80fd5b346101ae5760803660031901126101ae576101cb61216b565b6024356001600160401b0381116101ae576101ea90369060040161225c565b90335f52600960205260ff60405f20541680156108dc575b61020b90612687565b6001600160a01b0383165f9081526005602052604090205460ff1615610438575b60025460643580820293918115918504141715610424576127107fe569346dc44a549a2dba8bdb890e3ad5f8b19481c95faf552e6c4684f90f369c93049360018060a01b0381165f52600760205260405f206102888154612506565b905560018060a01b0381165f526007602052600160405f20016102ae60443582546126d3565b905560018060a01b0381165f526007602052600260405f20016102d460643582546126d3565b905560018060a01b0381165f526007602052600360405f20016102f88682546126d3565b90556001600160a01b0381165f908152600760209081526040808320426006909101556008825291829020915191829085878337858201908152030190206103408154612506565b905560018060a01b0381165f526008602052600160405f206020604051809286888337868201908152030190200161037b60443582546126d3565b905560018060a01b0381165f526008602052600260405f20602060405180928688833786820190815203019020016103b660643582546126d3565b90556103c3600c54612506565b600c556103d4604435600d546126d3565b600d556103e385600e546126d3565b600e556103fd604051938493608085526080850191612572565b6044356020840152606435604084015260608301959095526001600160a01b0316930390a2005b634e487b7160e01b5f52601160045260245ffd5b61044760045460035411612475565b6001600160a01b0383165f908152600560205260409020805460ff19166001179055610472836124c1565b61047d600b54612506565b600b5560405161048c816121a5565b6040805161049a82826121f6565b600f81526e105b9bdb9e5b5bdd5cc81059d95b9d608a1b602082015282526020918151906104c884836121f6565b5f825283810191825282516104dd85826121f6565b5f8082528285019182526001600160a01b03891660608401818152426080860152600160a0860152908252600687529085902083518051919592939291906001600160401b0382116107f75761053d826105378954612370565b89612514565b8890601f83116001146108795761056b92915f918361080b575b50508160011b915f199060031b1c19161790565b85555b51805160018601916001600160401b0382116107f757610598826105928554612370565b85612514565b8890601f8311600114610816576105c592915f918361080b5750508160011b915f199060031b1c19161790565b90555b518051906001600160401b0382116107f7576105f4826105eb6002880154612370565b60028801612514565b8690601f831160011461076e57936e105b9bdb9e5b5bdd5cc81059d95b9d608a1b9695936106408460059560a095610691995f926107635750508160011b915f199060031b1c19161790565b60028601555b600180841b039051166003850190600180851b03166bffffffffffffffffffffffff841b825416179055608081015160048501550151151591019060ff801983541691151516179055565b805161069c816121c0565b5f81526006876107168684015f81528585015f8152606086015f815260808701915f835260a08801936001855260c089019642885260018060a01b03165f5260078c52895f2098518955516001890155516002880155516003870155516004860155511515600585019060ff801983541691151516179055565b519101558051838152600f938101939093528201526001600160a01b0384169081907f6cf3badcf1a10c54709f13ad2475d8b3a44ebcb1b93b38e7257f98505323504090606090a361022c565b015190508f80610557565b90600286015f52875f20915f5b89601f19861682106107e15750509360018460a09461069198946e105b9bdb9e5b5bdd5cc81059d95b9d608a1b9b9a98600598601f198116106107c9575b505050811b016002860155610646565b01515f1960f88460031b161c191690558e80806107b9565b600184958293958501518155019401920161077b565b634e487b7160e01b5f52604160045260245ffd5b015190508d80610557565b90601f19831691845f528a5f20925f5b8c82821061086357505090846001959493921061084b575b505050811b0190556105c8565b01515f1960f88460031b161c191690558c808061083e565b6001859682939686015181550195019301610826565b90601f19831691885f528a5f20925f5b8c8282106108c65750509084600195949392106108ae575b505050811b01855561056e565b01515f1960f88460031b161c191690558c80806108a1565b6001859682939686015181550195019301610889565b505f546001600160a01b03163314610202565b346101ae575f3660031901126101ae576020600c54604051908152f35b346101ae575f3660031901126101ae57602060405160328152f35b346101ae5760203660031901126101ae5761094061216b565b61095460018060a01b035f54163314612429565b6001600160a01b03165f8181526009602052604090205460ff166109ec57805f52600960205260405f20600160ff19825416179055600a54600160401b8110156107f7578060016109aa9201600a55600a6122a1565b81546001600160a01b0360039290921b91821b19169083901b1790557f52824c4a4d431c73d6d24a91f775d722860111c6d30da30b0b21e062fb4c73655f80a2005b60405162461bcd60e51b815260206004820152601f60248201527f4167656e7452656769737472793a20616c7265616479207265706f72746572006044820152606490fd5b346101ae575f3660031901126101ae576020600b54604051908152f35b346101ae5760203660031901126101ae576001600160a01b03610a6f61216b565b165f526005602052602060ff60405f2054166040519015158152f35b346101ae5760203660031901126101ae576001600160a01b03610aac61216b565b165f526006602052610b4160405f2060405190610ad482610acd81846123a8565b03836121f6565b604051610aef81610ae881600186016123a8565b03826121f6565b60405191610b0b83610b0481600285016123a8565b03846121f6565b610b5d60018060a01b0360038301541693610b4f60ff60056004860154950154169460405198899860c08a5260c08a0190612181565b9088820360208a0152612181565b908682036040880152612181565b9260608501526080840152151560a08301520390f35b346101ae5760603660031901126101ae57610b8c61216b565b60443580151581036101ae57610c0e91335f52600960205260ff60405f2054168015610c10575b610bbc90612687565b6001600160a01b03165f81815260056020526040902054610bdf9060ff16612592565b5f9081526007602052604090206024356004820155600501805491151560ff1660ff1992909216919091179055565b005b505f546001600160a01b03163314610bb3565b346101ae5760203660031901126101ae5760043560328111610f7c575b600454808211610f74575b610c548261262a565b90610c6260405192836121f6565b828252610c6e8361262a565b602083019390601f1901368537610c848161262a565b610c9160405191826121f6565b818152601f19610ca08361262a565b015f5b818110610f63575050610cb582612641565b610cbe83612641565b92610cc881612641565b94610cd28161262a565b610cdf60405191826121f6565b818152601f19610cee8361262a565b013660208301375f5b838110610dd6575b505050506040519460a086019060a087525180915260c0860196905f5b818110610db7575050508486036020860152815180875260208701906020808260051b8a01019401915f905b828210610d8b578880610d878a610d798b610d6b8c8c878203604089015261233d565b90858203606087015261233d565b90838203608085015261233d565b0390f35b90919294602080610da96001938d601f199082030186528951612181565b970192019201909291610d48565b82516001600160a01b0316895260209889019890920191600101610d1c565b5f908180805b868110610ea757505015610ea157610e01826001610dfb819587612673565b52612289565b838060a01b0391549060031b1c1680610e1a838d612673565b52805f526006602052610ae8610e3960405f20604051928380926123a8565b610e43838a612673565b52610e4e8289612673565b50805f526007602052600360405f200154610e698389612673565b52805f5260076020528260405f200154610e83838b612673565b525f52600760205260405f2054610e9a828b612673565b5201610cf7565b50610cff565b610eb18187612673565b511580610f33575b80610f02575b610ecc575b600101610ddc565b9350505081610eda81612289565b9054600391821b1c6001600160a01b03165f9081526007602052604090200154600191610ec4565b50610f0c81612289565b9054600391821b1c6001600160a01b03165f90815260076020526040902001548210610ebf565b50610f3d81612289565b60018060a01b0391549060031b1c165f52600660205260ff600560405f20015416610eb9565b806060602080938601015201610ca3565b905080610c4b565b506032610c40565b346101ae5760203660031901126101ae576001600160a01b03610fa561216b565b16805f526005602052610fbe60ff60405f205416612592565b805f52600660205260018060a01b03600360405f2001541633148015611025575b610fe8906125de565b805f526006602052600560405f200160ff1981541690557fa58c733780f5c1527d6106ff1e731cbf2e9ffc0eb11ad399ca33ea55f057ddf45f80a2005b505f546001600160a01b03163314610fdf565b346101ae575f3660031901126101ae576020600e54604051908152f35b346101ae5760203660031901126101ae5760043561107d60018060a01b035f54163314612429565b600454811061108b57600355005b60405162461bcd60e51b815260206004820152602260248201527f4167656e7452656769737472793a2062656c6f772063757272656e7420636f756044820152611b9d60f21b6064820152608490fd5b346101ae5760203660031901126101ae5760043561110360018060a01b035f54163314612429565b612710811161111157600255005b60405162461bcd60e51b815260206004820152601b60248201527f4167656e7452656769737472793a2062707320746f6f206869676800000000006044820152606490fd5b346101ae575f3660031901126101ae576080600b54600c54600d54600e5491604051938452602084015260408301526060820152f35b346101ae5761119a366122b6565b9394909560018060a01b031694855f5260056020526111bf60ff60405f205416612592565b855f52600660205260018060a01b03600360405f20015416331480156114c1575b6111e9906125de565b806113f2575b505080611320575b505080611249575b50805f5260066020527fb915c10d80f3a5a64f9cf6b674511d7c794c3419680d92ddf18339ae793ffb5761124460405f206040519182916020835260208301906123a8565b0390a2005b815f526006602052600260405f2001906001600160401b0381116107f75761127b816112758454612370565b84612514565b5f601f82116001146112be5781906112a99394955f926112b35750508160011b915f199060031b1c19161790565b90555b80826111ff565b013590508580610557565b601f19821694835f5260205f20915f5b8781106113085750836001959697106112ef575b505050811b0190556112ac565b01355f19600384901b60f8161c191690558480806112e2565b909260206001819286860135815501940191016112ce565b835f526006602052600160405f2001916001600160401b0382116107f75761134c826105928554612370565b5f90601f831160011461138e5761137992915f91836113835750508160011b915f199060031b1c19161790565b90555b83806111f7565b013590508780610557565b601f19831691845f5260205f20925f5b8181106113da57509084600195949392106113c1575b505050811b01905561137c565b01355f19600384901b60f8161c191690558680806113b4565b9193602060018192878701358155019501920161139e565b855f52600660205260405f20916001600160401b0382116107f75761141b826105928554612370565b5f90601f831160011461145d5761144892915f91836114525750508160011b915f199060031b1c19161790565b90555b85806111ef565b013590508980610557565b601f19831691845f5260205f20925f5b8181106114a95750908460019594939210611490575b505050811b01905561144b565b01355f19600384901b60f8161c19169055888080611483565b9193602060018192878701358155019501920161146d565b505f546001600160a01b031633146111e0565b346101ae575f3660031901126101ae576020600454604051908152f35b346101ae5760203660031901126101ae576001600160a01b0361151261216b565b165f52600760205260e060405f2080549060018101549060028101546003820154600483015491600660ff600586015416940154946040519687526020870152604086015260608501526080840152151560a083015260c0820152f35b346101ae5760203660031901126101ae5761158861216b565b5f546001600160a01b03169061159f338314612429565b6001600160a01b03169081156115e757600180546001600160a01b031916831790557fb4d7bcb4d9a5d6ef6e827e3b1554e5a2578ad9ca843903d42b05d08bfa3458945f80a3005b60405162461bcd60e51b815260206004820152601960248201527f4167656e7452656769737472793a207a65726f2061646d696e000000000000006044820152606490fd5b346101ae5761163a366122b6565b91929060018060a0989796981b03861695865f52600560205260ff60405f205416611ac0578715611a7b576116d99261169b6116ca9261167f60045460035411612475565b895f52600560205260405f20600160ff198254161790556124c1565b6116a6600b54612506565b600b55604051956116b6876121a5565b6116c1368b8a612217565b87523691612217565b92602085019384523691612217565b6040830190815260608301338152608084019142835260a085019360018552875f52600660205260405f2095518051906001600160401b0382116107f75761172b826117258a54612370565b8a612514565b602090601f8311600114611a185761175992915f91836119aa5750508160011b915f199060031b1c19161790565b86555b51805160018701916001600160401b0382116107f757611780826105928554612370565b602090601f83116001146119b5576117ae92915f91836119aa5750508160011b915f199060031b1c19161790565b90555b51805160028601916001600160401b0382116107f7576117d5826105928554612370565b602090601f83116001146119185793600593611833847f6cf3badcf1a10c54709f13ad2475d8b3a44ebcb1b93b38e7257f9850532350409b999561187799956119139c995f926107635750508160011b915f199060031b1c19161790565b90555b516003850180546001600160a01b039092166001600160a01b0319909216919091179055516004840155519101805460ff191691151560ff16919091179055565b604051611883816121c0565b5f81526006602082015f81526118f9604084015f8152606085015f815260808601905f825260a08701926001845260c08801954287528c5f52600760205260405f2098518955516001890155516002880155516003870155516004860155511515600585019060ff801983541691151516179055565b519101556040519182916020835233966020840191612572565b0390a3005b90601f19831691845f52815f20925f5b81811061199257508461187798946119139b9894600598947f6cf3badcf1a10c54709f13ad2475d8b3a44ebcb1b93b38e7257f9850532350409e9c986001951061197a575b505050811b019055611836565b01515f1960f88460031b161c191690558e808061196d565b92936020600181928786015181550195019301611928565b015190508c80610557565b90601f19831691845f52815f20925f5b818110611a0057509084600195949392106119e8575b505050811b0190556117b1565b01515f1960f88460031b161c191690558b80806119db565b929360206001819287860151815501950193016119c5565b90601f19831691895f52815f20925f5b818110611a635750908460019594939210611a4b575b505050811b01865561175c565b01515f1960f88460031b161c191690558b8080611a3e565b92936020600181928786015181550195019301611a28565b60405162461bcd60e51b815260206004820152601c60248201527f4167656e7452656769737472793a206e616d65207265717569726564000000006044820152606490fd5b60405162461bcd60e51b815260206004820152602160248201527f4167656e7452656769737472793a20616c7265616479207265676973746572656044820152601960fa1b6064820152608490fd5b346101ae575f3660031901126101ae576020600254604051908152f35b346101ae575f3660031901126101ae576020600d54604051908152f35b346101ae5760203660031901126101ae57600435600a548110156101ae57600a54811015611bad57600a5f527fc65a7bb8d6351c1cf70c95a316cc6a92839c986682d98bc35f958f4883f9d2a801546040516001600160a01b039091168152602090f35b634e487b7160e01b5f52603260045260245ffd5b346101ae5760203660031901126101ae57611bda61216b565b611bee60018060a01b035f54163314612429565b6001600160a01b03165f818152600960205260408120805460ff191690557ff125aa5e6cb22c17ea0de4e1f86d2ff289ddd6a37e791b9ad29d0091cba06ac89080a2005b346101ae5760203660031901126101ae576004356004548110156101ae57611c5b602091612289565b905460405160039290921b1c6001600160a01b03168152f35b346101ae5760203660031901126101ae576001600160a01b03611c9561216b565b165f526009602052602060ff60405f2054166040519015158152f35b346101ae5760403660031901126101ae57611cca61216b565b602435906001600160401b0382116101ae576020611cee606093369060040161225c565b925f60408051611cfd816121db565b8281528286820152015260018060a01b03165f526008825260405f20836040519485938437820190815203019020604051611d37816121db565b815491828252604060026001830154926020850193845201549201918252604051928352516020830152516040820152f35b346101ae5760203660031901126101ae576020611c5b600435612289565b346101ae5760403660031901126101ae57611da061216b565b602435906001600160401b0382116101ae57366023830112156101ae5760208091611dd76060943690602481600401359101612217565b9060018060a01b03165f526008825260405f20604051938285935191829101845e820190815203019020805490600260018201549101549060405192835260208301526040820152f35b346101ae575f3660031901126101ae576001546040516001600160a01b039091168152602090f35b346101ae5760203660031901126101ae57611e6261216b565b604051611e6e816121a5565b6060815260208101606090526040810160609052606081015f9052608081015f905260a0015f9052604051611ea2816121c0565b5f8152602081015f9052604081015f9052606081015f9052608081015f905260a081015f905260c0015f9052600160a01b6001900316805f52600660205260405f20905f52600760205260405f209060405190611efe826121a5565b60405180611f0c81846123a8565b03611f1790826121f6565b82526040519283611f2b81600185016123a8565b03611f3690856121f6565b602083019384526040519081611f4f81600286016123a8565b03611f5a90836121f6565b60408401918252600160a01b600190036003840154169260608501938452600481015490608086019182526005015460ff1660a086019015158152604051611fa1816121c0565b83548152600184015460208201908152600285015491604081019283526003860154936060820194855260048701549560808301968752600588015460ff169760a084019815158952600601549860c08401998a526040519c8d9c6101008e52518d610100810160c090526101c00161201991612181565b90518d820360ff19016101208f01526120329190612181565b90518c820360ff19016101408e015261204b9190612181565b99516001600160a01b03166101608c0152516101808b01525115156101a08a01525160208901525160408801525160608701525160808601525160a085015251151560c08401525160e08301520390f35b346101ae575f3660031901126101ae576001546001600160a01b038116903382900361210d575f80546001600160a01b0319808216851783559092166001556001600160a01b03909116907ff8ccb027dfcd135e000e9d45e6cc2d662578a8825d4c45b5e32e0adf67e79ec69080a3005b606460405162461bcd60e51b815260206004820152602060248201527f4167656e7452656769737472793a206e6f742070656e64696e672061646d696e6044820152fd5b346101ae575f3660031901126101ae576020906003548152f35b600435906001600160a01b03821682036101ae57565b805180835260209291819084018484015e5f828201840152601f01601f1916010190565b60c081019081106001600160401b038211176107f757604052565b60e081019081106001600160401b038211176107f757604052565b606081019081106001600160401b038211176107f757604052565b90601f801991011681019081106001600160401b038211176107f757604052565b9291926001600160401b0382116107f75760405191612240601f8201601f1916602001846121f6565b8294818452818301116101ae578281602093845f960137010152565b9181601f840112156101ae578235916001600160401b0383116101ae57602083818601950101116101ae57565b600454811015611bad5760045f5260205f2001905f90565b8054821015611bad575f5260205f2001905f90565b9060806003198301126101ae576004356001600160a01b03811681036101ae57916024356001600160401b0381116101ae57816122f59160040161225c565b929092916044356001600160401b0381116101ae57816123179160040161225c565b92909291606435906001600160401b0382116101ae576123399160040161225c565b9091565b90602080835192838152019201905f5b81811061235a5750505090565b825184526020938401939092019160010161234d565b90600182811c9216801561239e575b602083101461238a57565b634e487b7160e01b5f52602260045260245ffd5b91607f169161237f565b5f92918154916123b783612370565b808352926001811690811561240c57506001146123d357505050565b5f9081526020812093945091925b8383106123f2575060209250010190565b6001816020929493945483858701015201910191906123e1565b915050602093945060ff929192191683830152151560051b010190565b1561243057565b60405162461bcd60e51b815260206004820152601860248201527f4167656e7452656769737472793a206e6f742061646d696e00000000000000006044820152606490fd5b1561247c57565b60405162461bcd60e51b815260206004820152601f60248201527f4167656e7452656769737472793a2063617061636974792072656163686564006044820152606490fd5b600454600160401b8110156107f7578060016124e2920160045560046122a1565b81546001600160a01b0393841660039290921b91821b9390911b1916919091179055565b5f1981146104245760010190565b919091601f8311612525575b505050565b81831161253157505050565b5f5260205f206020601f830160051c921061256a575b81601f9101920160051c03905f5b82811015612520575f82820155600101612555565b5f9150612547565b908060209392818452848401375f828201840152601f01601f1916010190565b1561259957565b60405162461bcd60e51b815260206004820152601d60248201527f4167656e7452656769737472793a206e6f7420726567697374657265640000006044820152606490fd5b156125e557565b60405162461bcd60e51b815260206004820152601860248201527f4167656e7452656769737472793a206e6f74206f776e657200000000000000006044820152606490fd5b6001600160401b0381116107f75760051b60200190565b9061264b8261262a565b61265860405191826121f6565b8281528092612669601f199161262a565b0190602036910137565b8051821015611bad5760209160051b010190565b1561268e57565b60405162461bcd60e51b815260206004820152601b60248201527f4167656e7452656769737472793a206e6f74207265706f7274657200000000006044820152606490fd5b919082018092116104245756fea2646970667358221220c5e31e3861955c12030f38db01cc75fe03a23a6c7a23ec6bdb49fde205059b2c64736f6c63430008210033","linkReferences":{}},"methodIdentifiers":{"MAX_LEADERBOARD_COUNT()":"e031ed2b","acceptAdmin()":"0e18b681","addReporter(address)":"dd8755f2","admin()":"f851a440","agents(uint256)":"513856c8","authorizedReporters(address)":"3a41429a","deactivateAgent(address)":"b0a0a927","getAgent(uint256)":"2de5aaf7","getAgentCount()":"91cab63e","getAgentInfo(address)":"152052b0","getAgentProtocolStats(address,string)":"388ae356","getDashboardStats()":"a2f6805c","getTopAgents(uint256)":"b1e29ea4","isRegistered(address)":"c3c5a547","maxAgents()":"0a34d637","pendingAdmin()":"26782247","profiles(address)":"bbe15627","protocolStats(address,string)":"2bfa4e08","recordActivity(address,string,uint256,uint256)":"e2f11e61","recordPnL(address,uint256,bool)":"b896f222","registerAgent(address,string,string,string)":"69f1324d","removeReporter(address)":"5de5c212","reporters(uint256)":"5e02cb7d","setMaxAgents(uint256)":"ae14e627","setUBIBPS(uint256)":"a4efe69e","stats(address)":"8bcdcbf3","totalAgents()":"c5053712","totalTrades()":"e275c997","totalUBIGenerated()":"af537a2f","totalVolume()":"5f81a57c","transferAdmin(address)":"75829def","ubiBPS()":"66521893","updateProfile(address,string,string,string)":"9d5a3941"},"id":48}