{"abi":[{"type":"constructor","inputs":[],"stateMutability":"nonpayable"},{"type":"receive","stateMutability":"payable"},{"type":"function","name":"bridgeERC20","inputs":[{"name":"_l1Token","type":"address","internalType":"address"},{"name":"_l2Token","type":"address","internalType":"address"},{"name":"_amount","type":"uint256","internalType":"uint256"},{"name":"","type":"uint32","internalType":"uint32"},{"name":"_extraData","type":"bytes","internalType":"bytes"}],"outputs":[],"stateMutability":"nonpayable"},{"type":"function","name":"bridgeETH","inputs":[{"name":"","type":"uint32","internalType":"uint32"},{"name":"_extraData","type":"bytes","internalType":"bytes"}],"outputs":[],"stateMutability":"payable"},{"type":"function","name":"bridgeETHTo","inputs":[{"name":"_to","type":"address","internalType":"address"},{"name":"","type":"uint32","internalType":"uint32"},{"name":"_extraData","type":"bytes","internalType":"bytes"}],"outputs":[],"stateMutability":"payable"},{"type":"function","name":"deposits","inputs":[{"name":"","type":"address","internalType":"address"},{"name":"","type":"address","internalType":"address"}],"outputs":[{"name":"","type":"uint256","internalType":"uint256"}],"stateMutability":"view"},{"type":"function","name":"finalizeERC20Withdrawal","inputs":[{"name":"_l1Token","type":"address","internalType":"address"},{"name":"_l2Token","type":"address","internalType":"address"},{"name":"_from","type":"address","internalType":"address"},{"name":"_to","type":"address","internalType":"address"},{"name":"_amount","type":"uint256","internalType":"uint256"},{"name":"_extraData","type":"bytes","internalType":"bytes"}],"outputs":[],"stateMutability":"nonpayable"},{"type":"function","name":"finalizeETHWithdrawal","inputs":[{"name":"_from","type":"address","internalType":"address"},{"name":"_to","type":"address","internalType":"address payable"},{"name":"_amount","type":"uint256","internalType":"uint256"},{"name":"_extraData","type":"bytes","internalType":"bytes"}],"outputs":[],"stateMutability":"nonpayable"},{"type":"function","name":"initialize","inputs":[{"name":"_portal","type":"address","internalType":"address"}],"outputs":[],"stateMutability":"nonpayable"},{"type":"function","name":"owner","inputs":[],"outputs":[{"name":"","type":"address","internalType":"address"}],"stateMutability":"view"},{"type":"function","name":"portal","inputs":[],"outputs":[{"name":"","type":"address","internalType":"address"}],"stateMutability":"view"},{"type":"function","name":"setTokenPair","inputs":[{"name":"_l1Token","type":"address","internalType":"address"},{"name":"_l2Token","type":"address","internalType":"address"}],"outputs":[],"stateMutability":"nonpayable"},{"type":"function","name":"setUBIFee","inputs":[{"name":"_fee","type":"uint256","internalType":"uint256"}],"outputs":[],"stateMutability":"nonpayable"},{"type":"function","name":"tokenPairs","inputs":[{"name":"","type":"address","internalType":"address"}],"outputs":[{"name":"","type":"address","internalType":"address"}],"stateMutability":"view"},{"type":"function","name":"ubiFee","inputs":[],"outputs":[{"name":"","type":"uint256","internalType":"uint256"}],"stateMutability":"view"},{"type":"function","name":"ubiTreasury","inputs":[],"outputs":[{"name":"","type":"address","internalType":"address"}],"stateMutability":"view"},{"type":"event","name":"ERC20BridgeFinalized","inputs":[{"name":"l1Token","type":"address","indexed":true,"internalType":"address"},{"name":"l2Token","type":"address","indexed":true,"internalType":"address"},{"name":"from","type":"address","indexed":true,"internalType":"address"},{"name":"to","type":"address","indexed":false,"internalType":"address"},{"name":"amount","type":"uint256","indexed":false,"internalType":"uint256"},{"name":"extraData","type":"bytes","indexed":false,"internalType":"bytes"}],"anonymous":false},{"type":"event","name":"ERC20BridgeInitiated","inputs":[{"name":"l1Token","type":"address","indexed":true,"internalType":"address"},{"name":"l2Token","type":"address","indexed":true,"internalType":"address"},{"name":"from","type":"address","indexed":true,"internalType":"address"},{"name":"to","type":"address","indexed":false,"internalType":"address"},{"name":"amount","type":"uint256","indexed":false,"internalType":"uint256"},{"name":"extraData","type":"bytes","indexed":false,"internalType":"bytes"}],"anonymous":false},{"type":"event","name":"ETHBridgeFinalized","inputs":[{"name":"from","type":"address","indexed":true,"internalType":"address"},{"name":"to","type":"address","indexed":true,"internalType":"address"},{"name":"amount","type":"uint256","indexed":false,"internalType":"uint256"},{"name":"extraData","type":"bytes","indexed":false,"internalType":"bytes"}],"anonymous":false},{"type":"event","name":"ETHBridgeInitiated","inputs":[{"name":"from","type":"address","indexed":true,"internalType":"address"},{"name":"to","type":"address","indexed":true,"internalType":"address"},{"name":"amount","type":"uint256","indexed":false,"internalType":"uint256"},{"name":"extraData","type":"bytes","indexed":false,"internalType":"bytes"}],"anonymous":false}],"bytecode":{"object":"0x6080806040523460405760015f55602160035560028054336001600160a01b03199182168117909255600480549091169091179055610c6f90816100458239f35b5f80fdfe6080604052600436101561001a575b3615610018575f80fd5b005b5f3560e01c806309fc88431461083f5780631532ec341461074357806343fda0311461072657806347bbbdf5146106e657806361e944f9146106be5780636425666b1461069657806387087623146105545780638da5cb5b1461052c5780638f601f66146104dc578063a9f9e6751461030b578063b517f7cb146102a4578063c4d66de814610222578063c6d0fbf8146101bc5763e11013dd0361000e5760603660031901126101b8576100cc610984565b6100d4610943565b506044359067ffffffffffffffff82116101b8576101177f2849b43074093a05396b6f2a937dee8565b15a48a7b3d4bffb732a5017380af5923690600401610956565b610122939193610be5565b61012d3415156109b0565b61271061013c600354346109ec565b049261014884346109ff565b93801515806101a4575b61017b575b5061017260405192839260018060a01b031696339684610ade565b0390a360015f55005b5f80808061019e9460018060a01b03600454165af1610198610a42565b50610a81565b5f610157565b506004546001600160a01b03161515610152565b5f80fd5b346101b85760203660031901126101b8576004356101e560018060a01b03600254163314610bac565b6103e881116101f357600355005b60405162461bcd60e51b81526020600482015260076024820152666d61782031302560c81b6044820152606490fd5b346101b85760203660031901126101b85761023b610984565b600154906001600160a01b038216610269576001600160a01b03166001600160a01b03199190911617600155005b60405162461bcd60e51b8152602060048201526013602482015272185b1c9958591e481a5b9a5d1a585b1a5e9959606a1b6044820152606490fd5b346101b85760403660031901126101b8576102bd610984565b6102c561099a565b906102db60018060a01b03600254163314610bac565b6001600160a01b039081165f90815260056020526040902080546001600160a01b03191692909116919091179055005b346101b85760c03660031901126101b857610324610984565b61032c61099a565b6044356001600160a01b03811692908390036101b857606435916001600160a01b038316908184036101b8576084359060a43567ffffffffffffffff81116101b85761037c903690600401610956565b9461039260018060a01b03600154163314610af8565b61039a610be5565b60018060a01b031694855f52600660205260405f20885f5260205260405f2054841161049f57855f52600660205260405f20885f5260205260405f206103e18582546109ff565b90556040519463a9059cbb60e01b865260048601528360248601526020856044815f8a5af19182156104945761044361045c937fd59c65b35445225835c83f50b6ede06a7be047d22e357073e250d9af537518cd975f91610465575b50610b4a565b6040516001600160a01b03909416979394859485610b88565b0390a460015f55005b610487915060203d60201161048d575b61047f8183610a0c565b810190610b32565b8b61043d565b503d610475565b6040513d5f823e3d90fd5b60405162461bcd60e51b8152602060048201526015602482015274696e73756666696369656e74206465706f7369747360581b6044820152606490fd5b346101b85760403660031901126101b8576104f5610984565b6104fd61099a565b6001600160a01b039182165f908152600660209081526040808320949093168252928352819020549051908152f35b346101b8575f3660031901126101b8576002546040516001600160a01b039091168152602090f35b346101b85760a03660031901126101b85761056d610984565b61057561099a565b9060443590610582610930565b5060843567ffffffffffffffff81116101b8576105a3903690600401610956565b916105ac610be5565b6040516323b872dd60e01b8152336004820152306024820152604481018590526001600160a01b039190911692906020816064815f885af18015610494576105fa915f916106775750610b4a565b825f52600660205260405f2060018060a01b0333165f5260205260405f20918254858101809111610663577f7ff126db8024424bbfd9826e8ab82ff59136289ea440b04b39a0df1b03b9cabf935561045c604051928392339860018060a01b0316973385610b88565b634e487b7160e01b5f52601160045260245ffd5b610690915060203d60201161048d5761047f8183610a0c565b8761043d565b346101b8575f3660031901126101b8576001546040516001600160a01b039091168152602090f35b346101b8575f3660031901126101b8576004546040516001600160a01b039091168152602090f35b346101b85760203660031901126101b8576001600160a01b03610707610984565b165f526005602052602060018060a01b0360405f205416604051908152f35b346101b8575f3660031901126101b8576020600354604051908152f35b346101b85760803660031901126101b85761075c610984565b6024356001600160a01b03811691908290036101b8576044359060643567ffffffffffffffff81116101b857610796903690600401610956565b916107ac60018060a01b03600154163314610af8565b6107b4610be5565b5f80808087895af16107c4610a42565b5015610804576101727f31b2166ff604fc5672ea5df08a78081d2bc6d746cadce880747f3643d819e83d9360405193849360018060a01b03169684610ade565b60405162461bcd60e51b8152602060048201526013602482015272115512081d1c985b9cd9995c8819985a5b1959606a1b6044820152606490fd5b60403660031901126101b85761085361091d565b5060243567ffffffffffffffff81116101b857610874903690600401610956565b61087c610be5565b6108873415156109b0565b7f2849b43074093a05396b6f2a937dee8565b15a48a7b3d4bffb732a5017380af56101726127106108ba600354346109ec565b04926108c684346109ff565b9380151580610909575b6108e6575b506040519182913396339684610ade565b5f8080806109039460018060a01b03600454165af1610198610a42565b856108d5565b506004546001600160a01b031615156108d0565b6004359063ffffffff821682036101b857565b6064359063ffffffff821682036101b857565b6024359063ffffffff821682036101b857565b9181601f840112156101b85782359167ffffffffffffffff83116101b857602083818601950101116101b857565b600435906001600160a01b03821682036101b857565b602435906001600160a01b03821682036101b857565b156109b757565b60405162461bcd60e51b815260206004820152600d60248201526c0daeae6e840e6cadcc8408aa89609b1b6044820152606490fd5b8181029291811591840414171561066357565b9190820391821161066357565b90601f8019910116810190811067ffffffffffffffff821117610a2e57604052565b634e487b7160e01b5f52604160045260245ffd5b3d15610a7c573d9067ffffffffffffffff8211610a2e5760405191610a71601f8201601f191660200184610a0c565b82523d5f602084013e565b606090565b15610a8857565b60405162461bcd60e51b815260206004820152600e60248201526d155092481999594819985a5b195960921b6044820152606490fd5b908060209392818452848401375f828201840152601f01601f1916010190565b604090610af5949281528160208201520191610abe565b90565b15610aff57565b60405162461bcd60e51b815260206004820152600b60248201526a1bdb9b1e481c1bdc9d185b60aa1b6044820152606490fd5b908160209103126101b8575180151581036101b85790565b15610b5157565b60405162461bcd60e51b815260206004820152600f60248201526e1d1c985b9cd9995c8819985a5b1959608a1b6044820152606490fd5b610af5949260609260018060a01b0316825260208201528160408201520191610abe565b15610bb357565b60405162461bcd60e51b815260206004820152600a60248201526937b7363c9037bbb732b960b11b6044820152606490fd5b60025f5414610bf45760025f55565b60405162461bcd60e51b815260206004820152601f60248201527f5265656e7472616e637947756172643a207265656e7472616e742063616c6c006044820152606490fdfea264697066735822122078ee763005748ebbba70a5d030d0fe547c4be63a3e35d55ac8dd46f3536d3c1864736f6c63430008210033","linkReferences":{}},"methodIdentifiers":{"bridgeERC20(address,address,uint256,uint32,bytes)":"87087623","bridgeETH(uint32,bytes)":"09fc8843","bridgeETHTo(address,uint32,bytes)":"e11013dd","deposits(address,address)":"8f601f66","finalizeERC20Withdrawal(address,address,address,address,uint256,bytes)":"a9f9e675","finalizeETHWithdrawal(address,address,uint256,bytes)":"1532ec34","initialize(address)":"c4d66de8","owner()":"8da5cb5b","portal()":"6425666b","setTokenPair(address,address)":"b517f7cb","setUBIFee(uint256)":"c6d0fbf8","tokenPairs(address)":"47bbbdf5","ubiFee()":"43fda031","ubiTreasury()":"61e944f9"},"id":70}