{"abi":[{"type":"constructor","inputs":[],"stateMutability":"nonpayable"},{"type":"receive","stateMutability":"payable"},{"type":"function","name":"bridgeERC20","inputs":[{"name":"_l1Token","type":"address","internalType":"address"},{"name":"_l2Token","type":"address","internalType":"address"},{"name":"_amount","type":"uint256","internalType":"uint256"},{"name":"","type":"uint32","internalType":"uint32"},{"name":"_extraData","type":"bytes","internalType":"bytes"}],"outputs":[],"stateMutability":"nonpayable"},{"type":"function","name":"bridgeETH","inputs":[{"name":"","type":"uint32","internalType":"uint32"},{"name":"_extraData","type":"bytes","internalType":"bytes"}],"outputs":[],"stateMutability":"payable"},{"type":"function","name":"bridgeETHTo","inputs":[{"name":"_to","type":"address","internalType":"address"},{"name":"","type":"uint32","internalType":"uint32"},{"name":"_extraData","type":"bytes","internalType":"bytes"}],"outputs":[],"stateMutability":"payable"},{"type":"function","name":"deposits","inputs":[{"name":"","type":"address","internalType":"address"},{"name":"","type":"address","internalType":"address"}],"outputs":[{"name":"","type":"uint256","internalType":"uint256"}],"stateMutability":"view"},{"type":"function","name":"finalizeERC20Withdrawal","inputs":[{"name":"_l1Token","type":"address","internalType":"address"},{"name":"_l2Token","type":"address","internalType":"address"},{"name":"_from","type":"address","internalType":"address"},{"name":"_to","type":"address","internalType":"address"},{"name":"_amount","type":"uint256","internalType":"uint256"},{"name":"_extraData","type":"bytes","internalType":"bytes"}],"outputs":[],"stateMutability":"nonpayable"},{"type":"function","name":"finalizeETHWithdrawal","inputs":[{"name":"_from","type":"address","internalType":"address"},{"name":"_to","type":"address","internalType":"address payable"},{"name":"_amount","type":"uint256","internalType":"uint256"},{"name":"_extraData","type":"bytes","internalType":"bytes"}],"outputs":[],"stateMutability":"nonpayable"},{"type":"function","name":"initialize","inputs":[{"name":"_portal","type":"address","internalType":"address"}],"outputs":[],"stateMutability":"nonpayable"},{"type":"function","name":"owner","inputs":[],"outputs":[{"name":"","type":"address","internalType":"address"}],"stateMutability":"view"},{"type":"function","name":"portal","inputs":[],"outputs":[{"name":"","type":"address","internalType":"address"}],"stateMutability":"view"},{"type":"function","name":"setTokenPair","inputs":[{"name":"_l1Token","type":"address","internalType":"address"},{"name":"_l2Token","type":"address","internalType":"address"}],"outputs":[],"stateMutability":"nonpayable"},{"type":"function","name":"setUBIFee","inputs":[{"name":"_fee","type":"uint256","internalType":"uint256"}],"outputs":[],"stateMutability":"nonpayable"},{"type":"function","name":"tokenPairs","inputs":[{"name":"","type":"address","internalType":"address"}],"outputs":[{"name":"","type":"address","internalType":"address"}],"stateMutability":"view"},{"type":"function","name":"ubiFee","inputs":[],"outputs":[{"name":"","type":"uint256","internalType":"uint256"}],"stateMutability":"view"},{"type":"function","name":"ubiTreasury","inputs":[],"outputs":[{"name":"","type":"address","internalType":"address"}],"stateMutability":"view"},{"type":"event","name":"ERC20BridgeFinalized","inputs":[{"name":"l1Token","type":"address","indexed":true,"internalType":"address"},{"name":"l2Token","type":"address","indexed":true,"internalType":"address"},{"name":"from","type":"address","indexed":true,"internalType":"address"},{"name":"to","type":"address","indexed":false,"internalType":"address"},{"name":"amount","type":"uint256","indexed":false,"internalType":"uint256"},{"name":"extraData","type":"bytes","indexed":false,"internalType":"bytes"}],"anonymous":false},{"type":"event","name":"ERC20BridgeInitiated","inputs":[{"name":"l1Token","type":"address","indexed":true,"internalType":"address"},{"name":"l2Token","type":"address","indexed":true,"internalType":"address"},{"name":"from","type":"address","indexed":true,"internalType":"address"},{"name":"to","type":"address","indexed":false,"internalType":"address"},{"name":"amount","type":"uint256","indexed":false,"internalType":"uint256"},{"name":"extraData","type":"bytes","indexed":false,"internalType":"bytes"}],"anonymous":false},{"type":"event","name":"ETHBridgeFinalized","inputs":[{"name":"from","type":"address","indexed":true,"internalType":"address"},{"name":"to","type":"address","indexed":true,"internalType":"address"},{"name":"amount","type":"uint256","indexed":false,"internalType":"uint256"},{"name":"extraData","type":"bytes","indexed":false,"internalType":"bytes"}],"anonymous":false},{"type":"event","name":"ETHBridgeInitiated","inputs":[{"name":"from","type":"address","indexed":true,"internalType":"address"},{"name":"to","type":"address","indexed":true,"internalType":"address"},{"name":"amount","type":"uint256","indexed":false,"internalType":"uint256"},{"name":"extraData","type":"bytes","indexed":false,"internalType":"bytes"}],"anonymous":false}],"bytecode":{"object":"0x60808060405234603c57602160025560018054336001600160a01b03199182168117909255600380549091169091179055610b2790816100418239f35b5f80fdfe6080604052600436101561001a575b3615610018575f80fd5b005b5f3560e01c806309fc88431461078d5780631532ec34146106ae57806343fda0311461069157806347bbbdf51461065157806361e944f9146106295780636425666b1461060257806387087623146104cb5780638da5cb5b146104a35780638f601f6614610453578063a9f9e675146102fd578063b517f7cb14610296578063c4d66de814610216578063c6d0fbf8146101b05763e11013dd0361000e5760603660031901126101ac576100cc6108ca565b6100d4610889565b506044359067ffffffffffffffff82116101ac576101177f2849b43074093a05396b6f2a937dee8565b15a48a7b3d4bffb732a5017380af592369060040161089c565b6101259391933415156108f6565b61271061013460025434610932565b04926101408434610945565b9380151580610198575b61016f575b5061016a60405192839260018060a01b031696339684610a24565b0390a3005b5f8080806101929460018060a01b03600354165af161018c610988565b506109c7565b5f61014f565b506003546001600160a01b0316151561014a565b5f80fd5b346101ac5760203660031901126101ac576004356101d960018060a01b03600154163314610ab8565b6103e881116101e757600255005b60405162461bcd60e51b81526020600482015260076024820152666d61782031302560c81b6044820152606490fd5b346101ac5760203660031901126101ac5761022f6108ca565b5f54906001600160a01b03821661025b576001600160a01b03166001600160a01b031991909116175f55005b60405162461bcd60e51b8152602060048201526013602482015272185b1c9958591e481a5b9a5d1a585b1a5e9959606a1b6044820152606490fd5b346101ac5760403660031901126101ac576102af6108ca565b6102b76108e0565b906102cd60018060a01b03600154163314610ab8565b6001600160a01b039081165f90815260046020526040902080546001600160a01b03191692909116919091179055005b346101ac5760c03660031901126101ac576103166108ca565b61031e6108e0565b6044356001600160a01b03811692908390036101ac57606435916001600160a01b038316908184036101ac576084359060a43567ffffffffffffffff81116101ac5761036e90369060040161089c565b9460018060a01b031694855f52600560205260405f20885f5260205260405f20610399858254610945565b90556040519463a9059cbb60e01b865260048601528360248601526020856044815f8a5af1918215610448576103fb610414937fd59c65b35445225835c83f50b6ede06a7be047d22e357073e250d9af537518cd975f91610419575b50610a56565b6040516001600160a01b03909416979394859485610a94565b0390a4005b61043b915060203d602011610441575b6104338183610952565b810190610a3e565b8b6103f5565b503d610429565b6040513d5f823e3d90fd5b346101ac5760403660031901126101ac5761046c6108ca565b6104746108e0565b6001600160a01b039182165f908152600560209081526040808320949093168252928352819020549051908152f35b346101ac575f3660031901126101ac576001546040516001600160a01b039091168152602090f35b346101ac5760a03660031901126101ac576104e46108ca565b6104ec6108e0565b90604435906104f9610876565b5060843567ffffffffffffffff81116101ac5761051a90369060040161089c565b6040516323b872dd60e01b8152336004820152306024820152604481018590526001600160a01b03909316926020816064815f885af1801561044857610566915f916105e35750610a56565b825f52600560205260405f2060018060a01b0333165f5260205260405f209182548581018091116105cf577f7ff126db8024424bbfd9826e8ab82ff59136289ea440b04b39a0df1b03b9cabf9355610414604051928392339860018060a01b0316973385610a94565b634e487b7160e01b5f52601160045260245ffd5b6105fc915060203d602011610441576104338183610952565b876103f5565b346101ac575f3660031901126101ac575f546040516001600160a01b039091168152602090f35b346101ac575f3660031901126101ac576003546040516001600160a01b039091168152602090f35b346101ac5760203660031901126101ac576001600160a01b036106726108ca565b165f526004602052602060018060a01b0360405f205416604051908152f35b346101ac575f3660031901126101ac576020600254604051908152f35b346101ac5760803660031901126101ac576106c76108ca565b6024356001600160a01b03811691908290036101ac576044359060643567ffffffffffffffff81116101ac5761070190369060040161089c565b915f80808087895af1610712610988565b50156107525761016a7f31b2166ff604fc5672ea5df08a78081d2bc6d746cadce880747f3643d819e83d9360405193849360018060a01b03169684610a24565b60405162461bcd60e51b8152602060048201526013602482015272115512081d1c985b9cd9995c8819985a5b1959606a1b6044820152606490fd5b60403660031901126101ac576107a1610863565b5060243567ffffffffffffffff81116101ac576107c290369060040161089c565b6107cd3415156108f6565b7f2849b43074093a05396b6f2a937dee8565b15a48a7b3d4bffb732a5017380af561016a61271061080060025434610932565b049261080c8434610945565b938015158061084f575b61082c575b506040519182913396339684610a24565b5f8080806108499460018060a01b03600354165af161018c610988565b8561081b565b506003546001600160a01b03161515610816565b6004359063ffffffff821682036101ac57565b6064359063ffffffff821682036101ac57565b6024359063ffffffff821682036101ac57565b9181601f840112156101ac5782359167ffffffffffffffff83116101ac57602083818601950101116101ac57565b600435906001600160a01b03821682036101ac57565b602435906001600160a01b03821682036101ac57565b156108fd57565b60405162461bcd60e51b815260206004820152600d60248201526c0daeae6e840e6cadcc8408aa89609b1b6044820152606490fd5b818102929181159184041417156105cf57565b919082039182116105cf57565b90601f8019910116810190811067ffffffffffffffff82111761097457604052565b634e487b7160e01b5f52604160045260245ffd5b3d156109c2573d9067ffffffffffffffff821161097457604051916109b7601f8201601f191660200184610952565b82523d5f602084013e565b606090565b156109ce57565b60405162461bcd60e51b815260206004820152600e60248201526d155092481999594819985a5b195960921b6044820152606490fd5b908060209392818452848401375f828201840152601f01601f1916010190565b604090610a3b949281528160208201520191610a04565b90565b908160209103126101ac575180151581036101ac5790565b15610a5d57565b60405162461bcd60e51b815260206004820152600f60248201526e1d1c985b9cd9995c8819985a5b1959608a1b6044820152606490fd5b610a3b949260609260018060a01b0316825260208201528160408201520191610a04565b15610abf57565b60405162461bcd60e51b815260206004820152600a60248201526937b7363c9037bbb732b960b11b6044820152606490fdfea2646970667358221220f4ed7772bed2bd3f34a403971a168f0af8ccfb3fc975a950e5dbe82a7128c30c64736f6c63430008210033","linkReferences":{}},"methodIdentifiers":{"bridgeERC20(address,address,uint256,uint32,bytes)":"87087623","bridgeETH(uint32,bytes)":"09fc8843","bridgeETHTo(address,uint32,bytes)":"e11013dd","deposits(address,address)":"8f601f66","finalizeERC20Withdrawal(address,address,address,address,uint256,bytes)":"a9f9e675","finalizeETHWithdrawal(address,address,uint256,bytes)":"1532ec34","initialize(address)":"c4d66de8","owner()":"8da5cb5b","portal()":"6425666b","setTokenPair(address,address)":"b517f7cb","setUBIFee(uint256)":"c6d0fbf8","tokenPairs(address)":"47bbbdf5","ubiFee()":"43fda031","ubiTreasury()":"61e944f9"},"id":13}