{"abi":[{"type":"constructor","inputs":[{"name":"_goodDollar","type":"address","internalType":"address"},{"name":"_admin","type":"address","internalType":"address"}],"stateMutability":"nonpayable"},{"type":"function","name":"MIN_STAKE","inputs":[],"outputs":[{"name":"","type":"uint256","internalType":"uint256"}],"stateMutability":"view"},{"type":"function","name":"UNBONDING_PERIOD","inputs":[],"outputs":[{"name":"","type":"uint256","internalType":"uint256"}],"stateMutability":"view"},{"type":"function","name":"activeCount","inputs":[],"outputs":[{"name":"","type":"uint256","internalType":"uint256"}],"stateMutability":"view"},{"type":"function","name":"activeValidatorCount","inputs":[],"outputs":[{"name":"","type":"uint256","internalType":"uint256"}],"stateMutability":"view"},{"type":"function","name":"admin","inputs":[],"outputs":[{"name":"","type":"address","internalType":"address"}],"stateMutability":"view"},{"type":"function","name":"claimRewards","inputs":[],"outputs":[],"stateMutability":"nonpayable"},{"type":"function","name":"completeUnstake","inputs":[],"outputs":[],"stateMutability":"nonpayable"},{"type":"function","name":"getUnbondingRequest","inputs":[{"name":"validator","type":"address","internalType":"address"}],"outputs":[{"name":"amount","type":"uint256","internalType":"uint256"},{"name":"unbondAt","type":"uint256","internalType":"uint256"}],"stateMutability":"view"},{"type":"function","name":"goodDollar","inputs":[],"outputs":[{"name":"","type":"address","internalType":"contract IGoodDollarToken"}],"stateMutability":"view"},{"type":"function","name":"initiateUnstake","inputs":[{"name":"amount","type":"uint256","internalType":"uint256"}],"outputs":[],"stateMutability":"nonpayable"},{"type":"function","name":"pendingRewards","inputs":[{"name":"validator","type":"address","internalType":"address"}],"outputs":[{"name":"","type":"uint256","internalType":"uint256"}],"stateMutability":"view"},{"type":"function","name":"rewardRateBPS","inputs":[],"outputs":[{"name":"","type":"uint256","internalType":"uint256"}],"stateMutability":"view"},{"type":"function","name":"slash","inputs":[{"name":"validator","type":"address","internalType":"address"},{"name":"reason","type":"string","internalType":"string"}],"outputs":[],"stateMutability":"nonpayable"},{"type":"function","name":"slashBPS","inputs":[],"outputs":[{"name":"","type":"uint256","internalType":"uint256"}],"stateMutability":"view"},{"type":"function","name":"stake","inputs":[{"name":"amount","type":"uint256","internalType":"uint256"},{"name":"name","type":"string","internalType":"string"},{"name":"endpoint","type":"string","internalType":"string"}],"outputs":[],"stateMutability":"nonpayable"},{"type":"function","name":"totalStaked","inputs":[],"outputs":[{"name":"","type":"uint256","internalType":"uint256"}],"stateMutability":"view"},{"type":"function","name":"validatorCount","inputs":[],"outputs":[{"name":"","type":"uint256","internalType":"uint256"}],"stateMutability":"view"},{"type":"function","name":"validatorList","inputs":[{"name":"","type":"uint256","internalType":"uint256"}],"outputs":[{"name":"","type":"address","internalType":"address"}],"stateMutability":"view"},{"type":"function","name":"validators","inputs":[{"name":"","type":"address","internalType":"address"}],"outputs":[{"name":"staked","type":"uint256","internalType":"uint256"},{"name":"rewardDebt","type":"uint256","internalType":"uint256"},{"name":"lastStakeTime","type":"uint256","internalType":"uint256"},{"name":"isActive","type":"bool","internalType":"bool"},{"name":"name","type":"string","internalType":"string"},{"name":"endpoint","type":"string","internalType":"string"},{"name":"unbonding","type":"tuple","internalType":"struct ValidatorStaking.UnbondingRequest","components":[{"name":"amount","type":"uint256","internalType":"uint256"},{"name":"unbondAt","type":"uint256","internalType":"uint256"}]}],"stateMutability":"view"},{"type":"event","name":"RewardsClaimed","inputs":[{"name":"validator","type":"address","indexed":true,"internalType":"address"},{"name":"amount","type":"uint256","indexed":false,"internalType":"uint256"}],"anonymous":false},{"type":"event","name":"UnstakeCompleted","inputs":[{"name":"validator","type":"address","indexed":true,"internalType":"address"},{"name":"amount","type":"uint256","indexed":false,"internalType":"uint256"}],"anonymous":false},{"type":"event","name":"UnstakeInitiated","inputs":[{"name":"validator","type":"address","indexed":true,"internalType":"address"},{"name":"amount","type":"uint256","indexed":false,"internalType":"uint256"},{"name":"unbondAt","type":"uint256","indexed":false,"internalType":"uint256"}],"anonymous":false},{"type":"event","name":"ValidatorSlashed","inputs":[{"name":"validator","type":"address","indexed":true,"internalType":"address"},{"name":"amount","type":"uint256","indexed":false,"internalType":"uint256"},{"name":"reason","type":"string","indexed":false,"internalType":"string"}],"anonymous":false},{"type":"event","name":"ValidatorStaked","inputs":[{"name":"validator","type":"address","indexed":true,"internalType":"address"},{"name":"amount","type":"uint256","indexed":false,"internalType":"uint256"},{"name":"name","type":"string","indexed":false,"internalType":"string"}],"anonymous":false},{"type":"error","name":"BelowMinStake","inputs":[]},{"type":"error","name":"InsufficientStake","inputs":[]},{"type":"error","name":"NoUnbondingRequest","inputs":[]},{"type":"error","name":"NotAdmin","inputs":[]},{"type":"error","name":"NotValidator","inputs":[]},{"type":"error","name":"UnbondingAlreadyPending","inputs":[]},{"type":"error","name":"UnbondingNotReady","inputs":[{"name":"readyAt","type":"uint256","internalType":"uint256"},{"name":"currentTime","type":"uint256","internalType":"uint256"}]}],"bytecode":{"object":"0x60a0346100ba57601f61152a38819003918201601f19168301916001600160401b038311848410176100be5780849260409485528339810103126100ba57610052602061004b836100d2565b92016100d2565b60015f8190556101f490556103e86002556001600160a01b03918216608052600880546001600160a01b0319169190921617905560405161144390816100e782396080518181816104530152818161068e015281816108a501528181610b380152610fa40152f35b5f80fd5b634e487b7160e01b5f52604160045260245ffd5b51906001600160a01b03821682036100ba5756fe6080806040526004361015610012575f80fd5b5f905f3560e01c9081630f43a67714610fd357508063119e5bf314610f8f57806317849ba014610f725780632340e8d314610f55578063303b5e1a14610aa057806331d7a26214610a75578063372500ab1461084f578063402b71dd1461059a5780634331ed1f1461057c57806343e5e92d1461052c57806363803b23146103d9578063817b1cd2146103bb578063a660f2801461039d578063ae5ac9211461026e578063b048e0561461022a578063cb1c2b5c14610205578063d9a912ec146101e7578063f851a440146101be5763fa52c7d8146100ef575f80fd5b346101bb5760203660031901126101bb576040906001600160a01b0361011361101b565b168152600360205220805460018201549160028101546101aa60ff60038401541661019c610143600486016110d3565b61014f600587016110d3565b9260076040519761015f89611095565b6006810154895201549560208801968752604051998a998a5260208a01526040890152151560608801526101006080880152610100870190611173565b9085820360a0870152611173565b915160c08401525160e08301520390f35b80fd5b50346101bb57806003193601126101bb576008546040516001600160a01b039091168152602090f35b50346101bb57806003193601126101bb57602060405162093a808152f35b50346101bb57806003193601126101bb57602060405169d3c21bcecceda10000008152f35b50346101bb5760203660031901126101bb57600435906004548210156101bb57602061025583611031565b905460405160039290921b1c6001600160a01b03168152f35b50346101bb5760203660031901126101bb576004353382526003602052604082206003810160ff8154161561038e5781549183831061037f576006810192835461037057846102bc916111e9565b81556102ca846006546111e9565b60065562093a8042019283421161035c57908469d3c21bcecceda1000000928560206040516102f881611095565b8481520152558360078201555410610340575b5060405191825260208201527f9cee5eacd317086e5050733a5dad16ef5aaec185de792371a9625bfee2a3213b60403392a280f35b60ff1981541690556103536007546112bc565b6007555f61030b565b634e487b7160e01b86526011600452602486fd5b631698163560e31b8652600486fd5b6378de4a6960e11b8552600485fd5b632ec5b44960e01b8452600484fd5b50346101bb57806003193601126101bb576020600254604051908152f35b50346101bb57806003193601126101bb576020600654604051908152f35b50346101bb57806003193601126101bb576103f26112c8565b3381526003602052604081206006810190815491821561051d5760078201908154804210610507575090848092555554156104f9575b60405163a9059cbb60e01b815233600482015260248101829052602081604481866001600160a01b037f0000000000000000000000000000000000000000000000000000000000000000165af180156104ee5761048c9184916104bf575b5061127e565b6040519081527fdf2b996992aeaae3212b8d32b9c3c224196146804bed6814ec28d864b4eb3fc560203392a26001815580f35b6104e1915060203d6020116104e7575b6104d981836110b1565b810190611197565b5f610486565b503d6104cf565b6040513d85823e3d90fd5b6105023361131c565b610428565b6315a13ed560e11b865260045242602452604485fd5b63bf5c43fd60e01b8452600484fd5b50346101bb5760203660031901126101bb576040906007826001600160a01b0361055461101b565b1692838152600360205260068282200154938152600360205220015482519182526020820152f35b50346101bb57806003193601126101bb576020600754604051908152f35b5034610769576040366003190112610769576105b461101b565b9060243567ffffffffffffffff8111610769576105d5903690600401610fed565b600854909391906001600160a01b03163303610840576105f36112c8565b60018060a01b03821691825f52600360205260405f20906003820160ff8154168015610833575b156107ee5782549260068101916127106106416106388554886111af565b600254906111f6565b04948086116107b157506106568583546111e9565b8255610664856006546111e9565b6006555b69d3c21bcecceda1000000825410610786575b505415908161077c575b5061076d575b507f00000000000000000000000000000000000000000000000000000000000000006001600160a01b0316803b15610769575f80916024604051809481936383adc2ff60e01b83528760048401525af1801561075e57610724575b5061071a7f074c8604eab659bccd1619a91a9588244a2442723fdcb05af0aa39da9fc68657939495604051938493846111bc565b0390a26001815580f35b7f074c8604eab659bccd1619a91a9588244a2442723fdcb05af0aa39da9fc686579394505f610752916110b1565b61071a5f9493506106e6565b6040513d5f823e3d90fd5b5f80fd5b6107769061131c565b5f61068b565b905054155f610685565b60ff81541661079e575b805460ff191690555f61067b565b6107a96007546112bc565b600755610790565b806107cb6107c26107df93896111e9565b916006546111e9565b6006555f845584548082116107e6576111e9565b8355610668565b9050806111e9565b60405162461bcd60e51b815260206004820152601760248201527f4e6f7420616374697665206f7220756e626f6e64696e670000000000000000006044820152606490fd5b506006830154151561061a565b637bfa4b9f60e01b5f5260045ffd5b34610769575f366003190112610769576108676112c8565b335f52600360205260405f2060ff60038201541615610a3e5761088933611209565b908115610a0c576040516370a0823160e01b81523060048201527f00000000000000000000000000000000000000000000000000000000000000006001600160a01b03169190602081602481865afa90811561075e575f916109da575b506108f3846006546111af565b11610995574260028201555f600190910181905560405163a9059cbb60e01b81523360048201526024810184905291602091839160449183915af1801561075e57610944915f91610976575061127e565b6040519081527ffc30cddea38e2bf4d6ea7d3f9ed3b6ad7f176419f4963bd81318067a4aee73fe60203392a260015f55005b61098f915060203d6020116104e7576104d981836110b1565b83610486565b60405162461bcd60e51b815260206004820152601b60248201527f496e73756666696369656e7420726577617264207265736572766500000000006044820152606490fd5b90506020813d602011610a04575b816109f5602093836110b1565b810103126107695751846108e6565b3d91506109e8565b60405162461bcd60e51b815260206004820152600a6024820152694e6f207265776172647360b01b6044820152606490fd5b60405162461bcd60e51b815260206004820152600f60248201526e2737ba1030903b30b634b230ba37b960891b6044820152606490fd5b34610769576020366003190112610769576020610a98610a9361101b565b611209565b604051908152f35b346107695760603660031901126107695760043560243567ffffffffffffffff811161076957610ad4903690600401610fed565b60443567ffffffffffffffff811161076957610af4903690600401610fed565b9290610afe6112c8565b69d3c21bcecceda10000008510610f46576040516323b872dd60e01b8152336004820152306024820152604481018690526020816064815f7f00000000000000000000000000000000000000000000000000000000000000006001600160a01b03165af1801561075e57610f29575b50335f52600360205260405f20936003850160ff815416155f14610ed257335f52600560205260405f205415610e6d575b805460ff191660011790556004850167ffffffffffffffff8511610d9957610bc6815461105d565b601f8111610e1c575b50845f601f8211600114610db8575f91610dad575b508560011b905f198760031b1c19161790555b600585019167ffffffffffffffff8211610d99578190610c17845461105d565b601f8111610d40575b505f90601f8311600114610cd9575f92610cce575b50508160011b915f199060031b1c19161790555b426002840155600754925f198414610cba5760017f7821d83aead27bc7cb9935de00fd6c4fbcab50ecb3b31ff099ab33c4033514bb94016007555b610c8f8582546111af565b9055610c9d846006546111af565b600655610cb16040519283923396846111bc565b0390a260015f55005b634e487b7160e01b5f52601160045260245ffd5b013590508780610c35565b909150601f19831691845f5260205f20925f5b818110610d285750908460019594939210610d0f575b505050811b019055610c49565b01355f19600384901b60f8161c19169055878080610d02565b91936020600181928787013581550195019201610cec565b82811115610c2057909150835f5260205f20601f840160051c9060208510610d91575b849392601f0160051c82900391015f5b828110610d81575050610c20565b5f81830155859450600101610d73565b5f9150610d63565b634e487b7160e01b5f52604160045260245ffd5b905084013588610be4565b5f8381526020812092508790601f198216905b818110610e01575010610de8575b5050600185811b019055610bf7565b8501355f19600388901b60f8161c191690558780610dd9565b8884013585556001909401936020938401938a935001610dcb565b85811115610bcf57815f5260205f20601f870160051c9060208810610e65575b81601f9101920160051c03905f5b828110610e58575050610bcf565b5f82820155600101610e4a565b5f9150610e3c565b60045460018101809111610cba57335f52600560205260405f205560045468010000000000000000811015610d9957610eaf816001610ecd9301600455611031565b81546001600160a01b0360039290921b91821b19163390911b179055565b610b9e565b5050507f7821d83aead27bc7cb9935de00fd6c4fbcab50ecb3b31ff099ab33c4033514bb92610f0033611209565b80610f12575b50426002820155610c84565b610f21600183019182546111af565b905585610f06565b610f419060203d6020116104e7576104d981836110b1565b610b6d565b63389f7e1160e01b5f5260045ffd5b34610769575f366003190112610769576020600754604051908152f35b34610769575f366003190112610769576020600154604051908152f35b34610769575f366003190112610769576040517f00000000000000000000000000000000000000000000000000000000000000006001600160a01b03168152602090f35b34610769575f366003190112610769576020906004548152f35b9181601f840112156107695782359167ffffffffffffffff8311610769576020838186019501011161076957565b600435906001600160a01b038216820361076957565b6004548110156110495760045f5260205f2001905f90565b634e487b7160e01b5f52603260045260245ffd5b90600182811c9216801561108b575b602083101461107757565b634e487b7160e01b5f52602260045260245ffd5b91607f169161106c565b6040810190811067ffffffffffffffff821117610d9957604052565b90601f8019910116810190811067ffffffffffffffff821117610d9957604052565b9060405191825f8254926110e68461105d565b8084529360018116908115611151575060011461110d575b5061110b925003836110b1565b565b90505f9291925260205f20905f915b81831061113557505090602061110b928201015f6110fe565b602091935080600191548385890101520191019091849261111c565b90506020925061110b94915060ff191682840152151560051b8201015f6110fe565b805180835260209291819084018484015e5f828201840152601f01601f1916010190565b90816020910312610769575180151581036107695790565b91908201809211610cba57565b91926060938192845260406020850152816040850152848401375f828201840152601f01601f1916010190565b91908203918211610cba57565b81810292918115918404141715610cba57565b60018060a01b03165f52600360205260405f2060ff600382015416158015611275575b61127057806301e1338061126661124a600261126d950154426111e9565b600161271061125c86548354906111f6565b04940154936111f6565b04906111af565b90565b505f90565b5080541561122c565b1561128557565b60405162461bcd60e51b815260206004820152600f60248201526e1d1c985b9cd9995c8819985a5b1959608a1b6044820152606490fd5b8015610cba575f190190565b60025f54146112d75760025f55565b60405162461bcd60e51b815260206004820152601f60248201527f5265656e7472616e637947756172643a207265656e7472616e742063616c6c006044820152606490fd5b6001600160a01b03165f81815260056020526040902054801561140957600454808203611394575b50506004548015611380575f190161135b81611031565b81549060018060a01b039060031b1b191690556004555f5260056020525f6040812055565b634e487b7160e01b5f52603160045260245ffd5b5f198101908111610cba576113a890611031565b905460039190911b1c6001600160a01b03165f198201828111610cba57816113d26113f692611031565b81546001600160a01b0393841660039290921b91821b9390911b1916919091179055565b5f52600560205260405f20555f80611344565b505056fea26469706673582212204a9307cc0322c20de0de8d50996ae78988e731a82575efa3b610b85da3354f7764736f6c63430008210033","linkReferences":{}},"methodIdentifiers":{"MIN_STAKE()":"cb1c2b5c","UNBONDING_PERIOD()":"d9a912ec","activeCount()":"4331ed1f","activeValidatorCount()":"2340e8d3","admin()":"f851a440","claimRewards()":"372500ab","completeUnstake()":"63803b23","getUnbondingRequest(address)":"43e5e92d","goodDollar()":"119e5bf3","initiateUnstake(uint256)":"ae5ac921","pendingRewards(address)":"31d7a262","rewardRateBPS()":"17849ba0","slash(address,string)":"402b71dd","slashBPS()":"a660f280","stake(uint256,string,string)":"303b5e1a","totalStaked()":"817b1cd2","validatorCount()":"0f43a677","validatorList(uint256)":"b048e056","validators(address)":"fa52c7d8"},"id":65}