{"abi":[{"type":"constructor","inputs":[{"name":"_goodDollar","type":"address","internalType":"address"},{"name":"_admin","type":"address","internalType":"address"}],"stateMutability":"nonpayable"},{"type":"function","name":"MIN_STAKE","inputs":[],"outputs":[{"name":"","type":"uint256","internalType":"uint256"}],"stateMutability":"view"},{"type":"function","name":"UNBONDING_PERIOD","inputs":[],"outputs":[{"name":"","type":"uint256","internalType":"uint256"}],"stateMutability":"view"},{"type":"function","name":"activeCount","inputs":[],"outputs":[{"name":"","type":"uint256","internalType":"uint256"}],"stateMutability":"view"},{"type":"function","name":"activeValidatorCount","inputs":[],"outputs":[{"name":"","type":"uint256","internalType":"uint256"}],"stateMutability":"view"},{"type":"function","name":"admin","inputs":[],"outputs":[{"name":"","type":"address","internalType":"address"}],"stateMutability":"view"},{"type":"function","name":"claimRewards","inputs":[],"outputs":[],"stateMutability":"nonpayable"},{"type":"function","name":"completeUnstake","inputs":[],"outputs":[],"stateMutability":"nonpayable"},{"type":"function","name":"getUnbondingRequest","inputs":[{"name":"validator","type":"address","internalType":"address"}],"outputs":[{"name":"amount","type":"uint256","internalType":"uint256"},{"name":"unbondAt","type":"uint256","internalType":"uint256"}],"stateMutability":"view"},{"type":"function","name":"goodDollar","inputs":[],"outputs":[{"name":"","type":"address","internalType":"contract IGoodDollarToken"}],"stateMutability":"view"},{"type":"function","name":"initiateUnstake","inputs":[{"name":"amount","type":"uint256","internalType":"uint256"}],"outputs":[],"stateMutability":"nonpayable"},{"type":"function","name":"pendingRewards","inputs":[{"name":"validator","type":"address","internalType":"address"}],"outputs":[{"name":"","type":"uint256","internalType":"uint256"}],"stateMutability":"view"},{"type":"function","name":"rewardRateBPS","inputs":[],"outputs":[{"name":"","type":"uint256","internalType":"uint256"}],"stateMutability":"view"},{"type":"function","name":"slash","inputs":[{"name":"validator","type":"address","internalType":"address"},{"name":"reason","type":"string","internalType":"string"}],"outputs":[],"stateMutability":"nonpayable"},{"type":"function","name":"slashBPS","inputs":[],"outputs":[{"name":"","type":"uint256","internalType":"uint256"}],"stateMutability":"view"},{"type":"function","name":"stake","inputs":[{"name":"amount","type":"uint256","internalType":"uint256"},{"name":"name","type":"string","internalType":"string"},{"name":"endpoint","type":"string","internalType":"string"}],"outputs":[],"stateMutability":"nonpayable"},{"type":"function","name":"totalStaked","inputs":[],"outputs":[{"name":"","type":"uint256","internalType":"uint256"}],"stateMutability":"view"},{"type":"function","name":"validatorCount","inputs":[],"outputs":[{"name":"","type":"uint256","internalType":"uint256"}],"stateMutability":"view"},{"type":"function","name":"validatorList","inputs":[{"name":"","type":"uint256","internalType":"uint256"}],"outputs":[{"name":"","type":"address","internalType":"address"}],"stateMutability":"view"},{"type":"function","name":"validators","inputs":[{"name":"","type":"address","internalType":"address"}],"outputs":[{"name":"staked","type":"uint256","internalType":"uint256"},{"name":"rewardDebt","type":"uint256","internalType":"uint256"},{"name":"lastStakeTime","type":"uint256","internalType":"uint256"},{"name":"isActive","type":"bool","internalType":"bool"},{"name":"name","type":"string","internalType":"string"},{"name":"endpoint","type":"string","internalType":"string"},{"name":"unbonding","type":"tuple","internalType":"struct ValidatorStaking.UnbondingRequest","components":[{"name":"amount","type":"uint256","internalType":"uint256"},{"name":"unbondAt","type":"uint256","internalType":"uint256"}]}],"stateMutability":"view"},{"type":"event","name":"RewardsClaimed","inputs":[{"name":"validator","type":"address","indexed":true,"internalType":"address"},{"name":"amount","type":"uint256","indexed":false,"internalType":"uint256"}],"anonymous":false},{"type":"event","name":"UnstakeCompleted","inputs":[{"name":"validator","type":"address","indexed":true,"internalType":"address"},{"name":"amount","type":"uint256","indexed":false,"internalType":"uint256"}],"anonymous":false},{"type":"event","name":"UnstakeInitiated","inputs":[{"name":"validator","type":"address","indexed":true,"internalType":"address"},{"name":"amount","type":"uint256","indexed":false,"internalType":"uint256"},{"name":"unbondAt","type":"uint256","indexed":false,"internalType":"uint256"}],"anonymous":false},{"type":"event","name":"ValidatorSlashed","inputs":[{"name":"validator","type":"address","indexed":true,"internalType":"address"},{"name":"amount","type":"uint256","indexed":false,"internalType":"uint256"},{"name":"reason","type":"string","indexed":false,"internalType":"string"}],"anonymous":false},{"type":"event","name":"ValidatorStaked","inputs":[{"name":"validator","type":"address","indexed":true,"internalType":"address"},{"name":"amount","type":"uint256","indexed":false,"internalType":"uint256"},{"name":"name","type":"string","indexed":false,"internalType":"string"}],"anonymous":false},{"type":"error","name":"BelowMinStake","inputs":[]},{"type":"error","name":"InsufficientStake","inputs":[]},{"type":"error","name":"NoUnbondingRequest","inputs":[]},{"type":"error","name":"NotAdmin","inputs":[]},{"type":"error","name":"NotValidator","inputs":[]},{"type":"error","name":"UnbondingAlreadyPending","inputs":[]},{"type":"error","name":"UnbondingNotReady","inputs":[{"name":"readyAt","type":"uint256","internalType":"uint256"},{"name":"currentTime","type":"uint256","internalType":"uint256"}]}],"bytecode":{"object":"0x60a0346100b457601f6114a738819003918201601f19168301916001600160401b038311848410176100b85780849260409485528339810103126100b457610052602061004b836100cc565b92016100cc565b6101f45f556103e86001556001600160a01b03918216608052600780546001600160a01b031916919092161790556040516113c690816100e1823960805181818161044b0152818161067e0152818161088901528181610b100152610f770152f35b5f80fd5b634e487b7160e01b5f52604160045260245ffd5b51906001600160a01b03821682036100b45756fe6080806040526004361015610012575f80fd5b5f905f3560e01c9081630f43a67714610fa657508063119e5bf314610f6257806317849ba014610f465780632340e8d314610f29578063303b5e1a14610a8057806331d7a26214610a55578063372500ab1461083b578063402b71dd1461058e5780634331ed1f1461057057806343e5e92d1461052057806363803b23146103d9578063817b1cd2146103bb578063a660f2801461039d578063ae5ac9211461026e578063b048e0561461022a578063cb1c2b5c14610205578063d9a912ec146101e7578063f851a440146101be5763fa52c7d8146100ef575f80fd5b346101bb5760203660031901126101bb576040906001600160a01b03610113610fee565b168152600260205220805460018201549160028101546101aa60ff60038401541661019c610143600486016110a6565b61014f600587016110a6565b9260076040519761015f89611068565b6006810154895201549560208801968752604051998a998a5260208a01526040890152151560608801526101006080880152610100870190611146565b9085820360a0870152611146565b915160c08401525160e08301520390f35b80fd5b50346101bb57806003193601126101bb576007546040516001600160a01b039091168152602090f35b50346101bb57806003193601126101bb57602060405162093a808152f35b50346101bb57806003193601126101bb57602060405169d3c21bcecceda10000008152f35b50346101bb5760203660031901126101bb57600435906003548210156101bb57602061025583611004565b905460405160039290921b1c6001600160a01b03168152f35b50346101bb5760203660031901126101bb576004353382526002602052604082206003810160ff8154161561038e5781549183831061037f576006810192835461037057846102bc916111bc565b81556102ca846005546111bc565b60055562093a8042019283421161035c57908469d3c21bcecceda1000000928560206040516102f881611068565b8481520152558360078201555410610340575b5060405191825260208201527f9cee5eacd317086e5050733a5dad16ef5aaec185de792371a9625bfee2a3213b60403392a280f35b60ff198154169055610353600654611292565b6006555f61030b565b634e487b7160e01b86526011600452602486fd5b631698163560e31b8652600486fd5b6378de4a6960e11b8552600485fd5b632ec5b44960e01b8452600484fd5b50346101bb57806003193601126101bb576020600154604051908152f35b50346101bb57806003193601126101bb576020600554604051908152f35b50346101bb57806003193601126101bb573381526002602052604081206006810190815491821561051157600782019081548042106104fb575090848092555554156104ed575b60405163a9059cbb60e01b815233600482015260248101829052602081604481866001600160a01b037f0000000000000000000000000000000000000000000000000000000000000000165af180156104e2576104849184916104b3575b50611254565b6040519081527fdf2b996992aeaae3212b8d32b9c3c224196146804bed6814ec28d864b4eb3fc560203392a280f35b6104d5915060203d6020116104db575b6104cd8183611084565b81019061116a565b5f61047e565b503d6104c3565b6040513d85823e3d90fd5b6104f63361129e565b610420565b6315a13ed560e11b865260045242602452604485fd5b63bf5c43fd60e01b8452600484fd5b50346101bb5760203660031901126101bb576040906007826001600160a01b03610548610fee565b1692838152600260205260068282200154938152600260205220015482519182526020820152f35b50346101bb57806003193601126101bb576020600654604051908152f35b5034610755576040366003190112610755576105a8610fee565b9060243567ffffffffffffffff8111610755576105c9903690600401610fc0565b600754909391906001600160a01b0316330361082c576001600160a01b0382165f8181526002602052604090206003810180549294919260ff16801561081f575b156107da578254926006810191612710610631610628855488611182565b600154906111c9565b049480861161079d57506106468583546111bc565b8255610654856005546111bc565b6005555b69d3c21bcecceda1000000825410610772575b5054159081610768575b50610759575b507f00000000000000000000000000000000000000000000000000000000000000006001600160a01b0316803b15610755575f80916024604051809481936383adc2ff60e01b83528760048401525af1801561074a57610710575b5061070a7f074c8604eab659bccd1619a91a9588244a2442723fdcb05af0aa39da9fc686579394956040519384938461118f565b0390a280f35b7f074c8604eab659bccd1619a91a9588244a2442723fdcb05af0aa39da9fc686579394505f61073e91611084565b61070a5f9493506106d6565b6040513d5f823e3d90fd5b5f80fd5b6107629061129e565b5f61067b565b905054155f610675565b60ff81541661078a575b805460ff191690555f61066b565b610795600654611292565b60065561077c565b806107b76107ae6107cb93896111bc565b916005546111bc565b6005555f845584548082116107d2576111bc565b8355610658565b9050806111bc565b60405162461bcd60e51b815260206004820152601760248201527f4e6f7420616374697665206f7220756e626f6e64696e670000000000000000006044820152606490fd5b506006830154151561060a565b637bfa4b9f60e01b5f5260045ffd5b34610755575f36600319011261075557335f52600260205260405f2060ff60038201541615610a1e5761086d336111dc565b9081156109ec576040516370a0823160e01b81523060048201527f00000000000000000000000000000000000000000000000000000000000000006001600160a01b03169190602081602481865afa90811561074a575f916109ba575b506108d784600554611182565b11610975574260028201555f600190910181905560405163a9059cbb60e01b81523360048201526024810184905291602091839160449183915af1801561074a57610928915f916109565750611254565b6040519081527ffc30cddea38e2bf4d6ea7d3f9ed3b6ad7f176419f4963bd81318067a4aee73fe60203392a2005b61096f915060203d6020116104db576104cd8183611084565b8361047e565b60405162461bcd60e51b815260206004820152601b60248201527f496e73756666696369656e7420726577617264207265736572766500000000006044820152606490fd5b90506020813d6020116109e4575b816109d560209383611084565b810103126107555751846108ca565b3d91506109c8565b60405162461bcd60e51b815260206004820152600a6024820152694e6f207265776172647360b01b6044820152606490fd5b60405162461bcd60e51b815260206004820152600f60248201526e2737ba1030903b30b634b230ba37b960891b6044820152606490fd5b34610755576020366003190112610755576020610a78610a73610fee565b6111dc565b604051908152f35b346107555760603660031901126107555760043560243567ffffffffffffffff811161075557610ab4903690600401610fc0565b60443567ffffffffffffffff811161075557610ad4903690600401610fc0565b929069d3c21bcecceda10000008510610f1a576040516323b872dd60e01b8152336004820152306024820152604481018690526020816064815f7f00000000000000000000000000000000000000000000000000000000000000006001600160a01b03165af1801561074a57610efd575b50335f52600260205260405f20936003850160ff815416155f14610ea657335f52600460205260405f205415610e41575b805460ff191660011790556004850167ffffffffffffffff8511610d6d57610b9e8154611030565b601f8111610df0575b50845f601f8211600114610d8c575f91610d81575b508560011b905f198760031b1c19161790555b600585019167ffffffffffffffff8211610d6d578190610bef8454611030565b601f8111610d14575b505f90601f8311600114610cad575f92610ca2575b50508160011b915f199060031b1c19161790555b426002840155600654925f198414610c8e5760017f7821d83aead27bc7cb9935de00fd6c4fbcab50ecb3b31ff099ab33c4033514bb94016006555b610c67858254611182565b9055610c7584600554611182565b600555610c8960405192839233968461118f565b0390a2005b634e487b7160e01b5f52601160045260245ffd5b013590508780610c0d565b909150601f19831691845f5260205f20925f5b818110610cfc5750908460019594939210610ce3575b505050811b019055610c21565b01355f19600384901b60f8161c19169055878080610cd6565b91936020600181928787013581550195019201610cc0565b82811115610bf857909150835f5260205f20601f840160051c9060208510610d65575b849392601f0160051c82900391015f5b828110610d55575050610bf8565b5f81830155859450600101610d47565b5f9150610d37565b634e487b7160e01b5f52604160045260245ffd5b905084013588610bbc565b5f8381526020812092508790601f198216905b818110610dd5575010610dbc575b5050600185811b019055610bcf565b8501355f19600388901b60f8161c191690558780610dad565b8884013585556001909401936020938401938a935001610d9f565b85811115610ba757815f5260205f20601f870160051c9060208810610e39575b81601f9101920160051c03905f5b828110610e2c575050610ba7565b5f82820155600101610e1e565b5f9150610e10565b60035460018101809111610c8e57335f52600460205260405f205560035468010000000000000000811015610d6d57610e83816001610ea19301600355611004565b81546001600160a01b0360039290921b91821b19163390911b179055565b610b76565b5050507f7821d83aead27bc7cb9935de00fd6c4fbcab50ecb3b31ff099ab33c4033514bb92610ed4336111dc565b80610ee6575b50426002820155610c5c565b610ef560018301918254611182565b905585610eda565b610f159060203d6020116104db576104cd8183611084565b610b45565b63389f7e1160e01b5f5260045ffd5b34610755575f366003190112610755576020600654604051908152f35b34610755575f3660031901126107555760205f54604051908152f35b34610755575f366003190112610755576040517f00000000000000000000000000000000000000000000000000000000000000006001600160a01b03168152602090f35b34610755575f366003190112610755576020906003548152f35b9181601f840112156107555782359167ffffffffffffffff8311610755576020838186019501011161075557565b600435906001600160a01b038216820361075557565b60035481101561101c5760035f5260205f2001905f90565b634e487b7160e01b5f52603260045260245ffd5b90600182811c9216801561105e575b602083101461104a57565b634e487b7160e01b5f52602260045260245ffd5b91607f169161103f565b6040810190811067ffffffffffffffff821117610d6d57604052565b90601f8019910116810190811067ffffffffffffffff821117610d6d57604052565b9060405191825f8254926110b984611030565b808452936001811690811561112457506001146110e0575b506110de92500383611084565b565b90505f9291925260205f20905f915b8183106111085750509060206110de928201015f6110d1565b60209193508060019154838589010152019101909184926110ef565b9050602092506110de94915060ff191682840152151560051b8201015f6110d1565b805180835260209291819084018484015e5f828201840152601f01601f1916010190565b90816020910312610755575180151581036107555790565b91908201809211610c8e57565b91926060938192845260406020850152816040850152848401375f828201840152601f01601f1916010190565b91908203918211610c8e57565b81810292918115918404141715610c8e57565b6001600160a01b03165f908152600260205260409020600381015460ff1615801561124b575b61124657806301e1338061123c6112206002611243950154426111bc565b600161271061123286545f54906111c9565b04940154936111c9565b0490611182565b90565b505f90565b50805415611202565b1561125b57565b60405162461bcd60e51b815260206004820152600f60248201526e1d1c985b9cd9995c8819985a5b1959608a1b6044820152606490fd5b8015610c8e575f190190565b6001600160a01b03165f81815260046020526040902054801561138c57600354808203611317575b50506003548015611303575f19016112dd81611004565b81546001600160a01b03600392831b1b1916909155555f90815260046020526040812055565b634e487b7160e01b5f52603160045260245ffd5b5f198101908111610c8e5761132b90611004565b905460039190911b1c6001600160a01b03165f198201828111610c8e578161135561137992611004565b81546001600160a01b0393841660039290921b91821b9390911b1916919091179055565b5f52600460205260405f20555f806112c6565b505056fea2646970667358221220ed86a995072fe673783f3fa6d9e97c87eb3689c9c0d94fa20a3638533c8f20a064736f6c63430008210033","linkReferences":{}},"methodIdentifiers":{"MIN_STAKE()":"cb1c2b5c","UNBONDING_PERIOD()":"d9a912ec","activeCount()":"4331ed1f","activeValidatorCount()":"2340e8d3","admin()":"f851a440","claimRewards()":"372500ab","completeUnstake()":"63803b23","getUnbondingRequest(address)":"43e5e92d","goodDollar()":"119e5bf3","initiateUnstake(uint256)":"ae5ac921","pendingRewards(address)":"31d7a262","rewardRateBPS()":"17849ba0","slash(address,string)":"402b71dd","slashBPS()":"a660f280","stake(uint256,string,string)":"303b5e1a","totalStaked()":"817b1cd2","validatorCount()":"0f43a677","validatorList(uint256)":"b048e056","validators(address)":"fa52c7d8"},"id":9}