{"abi":[{"type":"constructor","inputs":[{"name":"_oracle","type":"address","internalType":"address"},{"name":"_interestRateModel","type":"address","internalType":"address"},{"name":"_treasury","type":"address","internalType":"address"},{"name":"_admin","type":"address","internalType":"address"}],"stateMutability":"nonpayable"},{"type":"function","name":"FLASH_LOAN_PREMIUM_BPS","inputs":[],"outputs":[{"name":"","type":"uint256","internalType":"uint256"}],"stateMutability":"view"},{"type":"function","name":"acceptAdmin","inputs":[],"outputs":[],"stateMutability":"nonpayable"},{"type":"function","name":"admin","inputs":[],"outputs":[{"name":"","type":"address","internalType":"address"}],"stateMutability":"view"},{"type":"function","name":"borrow","inputs":[{"name":"asset","type":"address","internalType":"address"},{"name":"amount","type":"uint256","internalType":"uint256"}],"outputs":[],"stateMutability":"nonpayable"},{"type":"function","name":"flashLoan","inputs":[{"name":"asset","type":"address","internalType":"address"},{"name":"amount","type":"uint256","internalType":"uint256"},{"name":"receiver","type":"address","internalType":"address"},{"name":"params","type":"bytes","internalType":"bytes"}],"outputs":[],"stateMutability":"nonpayable"},{"type":"function","name":"getBorrowIndex","inputs":[{"name":"asset","type":"address","internalType":"address"}],"outputs":[{"name":"","type":"uint256","internalType":"uint256"}],"stateMutability":"view"},{"type":"function","name":"getLiquidityIndex","inputs":[{"name":"asset","type":"address","internalType":"address"}],"outputs":[{"name":"","type":"uint256","internalType":"uint256"}],"stateMutability":"view"},{"type":"function","name":"getReserveData","inputs":[{"name":"asset","type":"address","internalType":"address"}],"outputs":[{"name":"totalDeposits","type":"uint256","internalType":"uint256"},{"name":"totalBorrows","type":"uint256","internalType":"uint256"},{"name":"liquidityIndex","type":"uint256","internalType":"uint256"},{"name":"borrowIndex","type":"uint256","internalType":"uint256"},{"name":"supplyRate","type":"uint256","internalType":"uint256"},{"name":"borrowRate","type":"uint256","internalType":"uint256"},{"name":"accruedToTreasury","type":"uint256","internalType":"uint256"}],"stateMutability":"view"},{"type":"function","name":"getReservesCount","inputs":[],"outputs":[{"name":"","type":"uint256","internalType":"uint256"}],"stateMutability":"view"},{"type":"function","name":"getUserAccountData","inputs":[{"name":"user","type":"address","internalType":"address"}],"outputs":[{"name":"healthFactor","type":"uint256","internalType":"uint256"},{"name":"totalCollateralUSD","type":"uint256","internalType":"uint256"},{"name":"totalDebtUSD","type":"uint256","internalType":"uint256"}],"stateMutability":"view"},{"type":"function","name":"initReserve","inputs":[{"name":"asset","type":"address","internalType":"address"},{"name":"gToken","type":"address","internalType":"address"},{"name":"debtToken","type":"address","internalType":"address"},{"name":"reserveFactorBPS_","type":"uint256","internalType":"uint256"},{"name":"ltvBPS","type":"uint256","internalType":"uint256"},{"name":"liquidationThresholdBPS","type":"uint256","internalType":"uint256"},{"name":"liquidationBonusBPS","type":"uint256","internalType":"uint256"},{"name":"supplyCap","type":"uint256","internalType":"uint256"},{"name":"borrowCap","type":"uint256","internalType":"uint256"},{"name":"assetDecimals","type":"uint8","internalType":"uint8"}],"outputs":[],"stateMutability":"nonpayable"},{"type":"function","name":"interestRateModel","inputs":[],"outputs":[{"name":"","type":"address","internalType":"contract IInterestRateModel"}],"stateMutability":"view"},{"type":"function","name":"liquidate","inputs":[{"name":"collateralAsset","type":"address","internalType":"address"},{"name":"debtAsset","type":"address","internalType":"address"},{"name":"user","type":"address","internalType":"address"},{"name":"debtToCover","type":"uint256","internalType":"uint256"}],"outputs":[],"stateMutability":"nonpayable"},{"type":"function","name":"mintToTreasury","inputs":[{"name":"assets","type":"address[]","internalType":"address[]"}],"outputs":[],"stateMutability":"nonpayable"},{"type":"function","name":"oracle","inputs":[],"outputs":[{"name":"","type":"address","internalType":"contract IPriceOracle"}],"stateMutability":"view"},{"type":"function","name":"pendingAdmin","inputs":[],"outputs":[{"name":"","type":"address","internalType":"address"}],"stateMutability":"view"},{"type":"function","name":"repay","inputs":[{"name":"asset","type":"address","internalType":"address"},{"name":"amount","type":"uint256","internalType":"uint256"}],"outputs":[{"name":"","type":"uint256","internalType":"uint256"}],"stateMutability":"nonpayable"},{"type":"function","name":"reservesList","inputs":[{"name":"","type":"uint256","internalType":"uint256"}],"outputs":[{"name":"","type":"address","internalType":"address"}],"stateMutability":"view"},{"type":"function","name":"setAdmin","inputs":[{"name":"_admin","type":"address","internalType":"address"}],"outputs":[],"stateMutability":"nonpayable"},{"type":"function","name":"setBorrowCap","inputs":[{"name":"asset","type":"address","internalType":"address"},{"name":"newCap","type":"uint256","internalType":"uint256"}],"outputs":[],"stateMutability":"nonpayable"},{"type":"function","name":"setBorrowingEnabled","inputs":[{"name":"asset","type":"address","internalType":"address"},{"name":"enabled","type":"bool","internalType":"bool"}],"outputs":[],"stateMutability":"nonpayable"},{"type":"function","name":"setOracle","inputs":[{"name":"_oracle","type":"address","internalType":"address"}],"outputs":[],"stateMutability":"nonpayable"},{"type":"function","name":"setReserveActive","inputs":[{"name":"asset","type":"address","internalType":"address"},{"name":"active","type":"bool","internalType":"bool"}],"outputs":[],"stateMutability":"nonpayable"},{"type":"function","name":"setReserveFactor","inputs":[{"name":"asset","type":"address","internalType":"address"},{"name":"newFactorBPS","type":"uint256","internalType":"uint256"}],"outputs":[],"stateMutability":"nonpayable"},{"type":"function","name":"setSupplyCap","inputs":[{"name":"asset","type":"address","internalType":"address"},{"name":"newCap","type":"uint256","internalType":"uint256"}],"outputs":[],"stateMutability":"nonpayable"},{"type":"function","name":"setTreasury","inputs":[{"name":"_treasury","type":"address","internalType":"address"}],"outputs":[],"stateMutability":"nonpayable"},{"type":"function","name":"supply","inputs":[{"name":"asset","type":"address","internalType":"address"},{"name":"amount","type":"uint256","internalType":"uint256"},{"name":"onBehalfOf","type":"address","internalType":"address"}],"outputs":[],"stateMutability":"nonpayable"},{"type":"function","name":"supply","inputs":[{"name":"asset","type":"address","internalType":"address"},{"name":"amount","type":"uint256","internalType":"uint256"}],"outputs":[],"stateMutability":"nonpayable"},{"type":"function","name":"treasury","inputs":[],"outputs":[{"name":"","type":"address","internalType":"address"}],"stateMutability":"view"},{"type":"function","name":"withdraw","inputs":[{"name":"asset","type":"address","internalType":"address"},{"name":"amount","type":"uint256","internalType":"uint256"},{"name":"to","type":"address","internalType":"address"}],"outputs":[{"name":"","type":"uint256","internalType":"uint256"}],"stateMutability":"nonpayable"},{"type":"function","name":"withdraw","inputs":[{"name":"asset","type":"address","internalType":"address"},{"name":"amount","type":"uint256","internalType":"uint256"}],"outputs":[{"name":"","type":"uint256","internalType":"uint256"}],"stateMutability":"nonpayable"},{"type":"event","name":"AdminTransferProposed","inputs":[{"name":"currentAdmin","type":"address","indexed":true,"internalType":"address"},{"name":"pendingAdmin","type":"address","indexed":true,"internalType":"address"}],"anonymous":false},{"type":"event","name":"AdminTransferred","inputs":[{"name":"previousAdmin","type":"address","indexed":true,"internalType":"address"},{"name":"newAdmin","type":"address","indexed":true,"internalType":"address"}],"anonymous":false},{"type":"event","name":"Borrow","inputs":[{"name":"asset","type":"address","indexed":true,"internalType":"address"},{"name":"user","type":"address","indexed":true,"internalType":"address"},{"name":"amount","type":"uint256","indexed":false,"internalType":"uint256"}],"anonymous":false},{"type":"event","name":"BorrowCapUpdated","inputs":[{"name":"asset","type":"address","indexed":true,"internalType":"address"},{"name":"oldCap","type":"uint256","indexed":false,"internalType":"uint256"},{"name":"newCap","type":"uint256","indexed":false,"internalType":"uint256"}],"anonymous":false},{"type":"event","name":"FlashLoan","inputs":[{"name":"asset","type":"address","indexed":true,"internalType":"address"},{"name":"receiver","type":"address","indexed":true,"internalType":"address"},{"name":"amount","type":"uint256","indexed":false,"internalType":"uint256"},{"name":"premium","type":"uint256","indexed":false,"internalType":"uint256"}],"anonymous":false},{"type":"event","name":"Liquidation","inputs":[{"name":"collateralAsset","type":"address","indexed":true,"internalType":"address"},{"name":"debtAsset","type":"address","indexed":true,"internalType":"address"},{"name":"user","type":"address","indexed":true,"internalType":"address"},{"name":"debtCovered","type":"uint256","indexed":false,"internalType":"uint256"},{"name":"collateralSeized","type":"uint256","indexed":false,"internalType":"uint256"},{"name":"liquidator","type":"address","indexed":false,"internalType":"address"}],"anonymous":false},{"type":"event","name":"Repay","inputs":[{"name":"asset","type":"address","indexed":true,"internalType":"address"},{"name":"user","type":"address","indexed":true,"internalType":"address"},{"name":"amount","type":"uint256","indexed":false,"internalType":"uint256"}],"anonymous":false},{"type":"event","name":"ReserveInitialized","inputs":[{"name":"asset","type":"address","indexed":true,"internalType":"address"},{"name":"gToken","type":"address","indexed":false,"internalType":"address"},{"name":"debtToken","type":"address","indexed":false,"internalType":"address"}],"anonymous":false},{"type":"event","name":"ReserveUpdated","inputs":[{"name":"asset","type":"address","indexed":true,"internalType":"address"},{"name":"liquidityIndex","type":"uint256","indexed":false,"internalType":"uint256"},{"name":"borrowIndex","type":"uint256","indexed":false,"internalType":"uint256"}],"anonymous":false},{"type":"event","name":"Supply","inputs":[{"name":"asset","type":"address","indexed":true,"internalType":"address"},{"name":"user","type":"address","indexed":true,"internalType":"address"},{"name":"amount","type":"uint256","indexed":false,"internalType":"uint256"}],"anonymous":false},{"type":"event","name":"SupplyCapUpdated","inputs":[{"name":"asset","type":"address","indexed":true,"internalType":"address"},{"name":"oldCap","type":"uint256","indexed":false,"internalType":"uint256"},{"name":"newCap","type":"uint256","indexed":false,"internalType":"uint256"}],"anonymous":false},{"type":"event","name":"TreasuryMint","inputs":[{"name":"asset","type":"address","indexed":true,"internalType":"address"},{"name":"amount","type":"uint256","indexed":false,"internalType":"uint256"}],"anonymous":false},{"type":"event","name":"Withdraw","inputs":[{"name":"asset","type":"address","indexed":true,"internalType":"address"},{"name":"user","type":"address","indexed":true,"internalType":"address"},{"name":"amount","type":"uint256","indexed":false,"internalType":"uint256"}],"anonymous":false},{"type":"error","name":"TransferFailed","inputs":[]}],"bytecode":{"object":"0x60803460bd57601f612cfa38819003918201601f19168301916001600160401b0383118484101760c15780849260809460405283398101031260bd5760428160d5565b90604d6020820160d5565b60616060605b6040850160d5565b930160d5565b600280546001600160a01b03199081166001600160a01b039687161790915560038054821693861693909317909255600480548316938516939093179092556005805490911691909216179055604051612c1190816100e98239f35b5f80fd5b634e487b7160e01b5f52604160045260245ffd5b51906001600160a01b038216820360bd5756fe6080806040526004361015610012575f80fd5b5f905f3560e01c9081630e18b68114611c465750806322867d7814611a765780632678224714611a4d57806335ea6a75146119c95780634b4e6753146119305780634b8a3529146116985780634fe7a6e514611654578063558bb3ac14611638578063571f03e51461159057806361d027b31461156757806369328dec1461153b578063704b6c021461147b57806372218d041461145d5780637303b22c146114395780637adbf973146113ec5780637dc0d1d0146113c35780638b2a4df51461139a5780639cd19996146111f7578063aab3f86814610c4b578063adf51de11461085c578063b736aaeb14610807578063bf92857c146107d0578063cb245e5b14610773578063d14a0983146106cb578063d2d2dbce146102c8578063d6feb9801461029c578063f0f442601461024f578063f2b9fdb81461020f578063f3fdb15a146101e6578063f3fef3a31461019e5763f851a44014610173575f80fd5b3461019b578060031936011261019b576005546040516001600160a01b039091168152602090f35b80fd5b503461019b57604036600319011261019b576020906101da6101be611cf8565b6101ca60075415611dcf565b600160075533906024359061279b565b90600755604051908152f35b503461019b578060031936011261019b576003546040516001600160a01b039091168152602090f35b503461019b57604036600319011261019b5761024861022c611cf8565b61023860075415611dcf565b60016007553390602435906129b1565b8060075580f35b503461019b57602036600319011261019b57610269611cf8565b61027e60018060a01b03600554163314611f23565b60018060a01b03166001600160601b0360a01b600454161760045580f35b503461019b57602036600319011261019b5760206102c06102bb611cf8565b612146565b604051908152f35b503461019b5761014036600319011261019b576102e3611cf8565b6102eb611d0e565b906102f4611d24565b916084359060a43560c435610124359160ff83168093036106c75761032460018060a01b03600554163314611f23565b6001600160a01b0386168852602088905260408820600890810154901c60ff166106785780851161064157612710821061060d5760405193610220850185811067ffffffffffffffff8211176105f95760405260018060a01b03169687855260018060a01b03169485602086015260643560408601526060850152608084015260a083015260e43560c08301526101043560e083015261010082015260016101208201526001610140820152676765c793fa10079d601b1b610160820152676765c793fa10079d601b1b610180820152846101a0820152846101c082015264ffffffffff42166101e08201528461020082015260018060a01b038316855284602052600e610200604087209260018060a01b0360018060a01b03825116166001600160601b0360a01b85541617845560018060a01b03602082015116600185019060018060a01b03166001600160601b0360a01b82541617905560408101516002850155606081015160038501556080810151600485015560a0810151600585015560c0810151600685015560e081015160078501556105156008850160ff6101008401511660ff198254161781556104f76101208401511515829061ff00825491151560081b169061ff001916179055565b610140830151815462ff0000191690151560101b62ff000016179055565b6101608101516009850155610180810151600a8501556101a0810151600b8501556101c0810151600c85015564ffffffffff6101e08201511664ffffffffff600d8601911664ffffffffff198254161790550151910155600154680100000000000000008110156105e557916040916105b58460017f1d9fcd0dc935b4778d5af97f55c4d7b2553257382f1ef25c412114c8eeebd88e9601600155611d3a565b81546001600160a01b0394851660039290921b82811b95901b19169390931790558251948552602085015292a280f35b634e487b7160e01b85526041600452602485fd5b634e487b7160e01b8a52604160045260248afd5b60405162461bcd60e51b815260206004820152600c60248201526b426f6e7573203c203130302560a01b6044820152606490fd5b60405162461bcd60e51b815260206004820152600f60248201526e131515880f881d1a1c995cda1bdb19608a1b6044820152606490fd5b60405162461bcd60e51b815260206004820152602160248201527f476f6f644c656e64506f6f6c3a20616c726561647920696e697469616c697a656044820152601960fa1b6064820152608490fd5b8780fd5b503461019b57604036600319011261019b576106e5611cf8565b7f73538f38b30f9237b0e95598cb3adba7d6c69a975fba0f00573473a13a6c81ab60406024359261072160018060a01b03600554163314611f23565b6001600160a01b039081168086526020869052828620549094916107479116151561200a565b83855284602052600782862001549084865285602052806007848820015582519182526020820152a280f35b503461019b576107cd61078536611da0565b9061079b60018060a01b03600554163314611f23565b6001600160a01b03168352602083905260408320600801805462ff0000191691151560101b62ff000016919091179055565b80f35b503461019b57602036600319011261019b5760606107f46107ef611cf8565b61259d565b9060405192835260208301526040820152f35b503461019b576107cd61081936611da0565b9061082f60018060a01b03600554163314611f23565b60018060a01b0316835282602052600860408420019061ff00825491151560081b169061ff001916179055565b503461019b57608036600319011261019b57610876611cf8565b60243590610882611d24565b9160643567ffffffffffffffff8111610c475736602382011215610c475780600401359367ffffffffffffffff8511610c43573660248684010111610c43576108cd60075415611dcf565b600160075560018060a01b038416938487528660205260408720916108fb60ff600885015460081c16611e1b565b84156109078115611e67565b60098602908682046009141715610c2f576127109004938560208360018060a01b0387541661094a60405194859384936323b872dd60e01b855260048501611f01565b03818d8c5af1908115610c24578a91610c05575b5015610bf657602060249160c48960018060a01b0386169b806040519687958694631b11d0ff60e01b865260048601528d828601528c604486015233606486015260a060848601528260a4860152018484013781810183018e9052601f01601f191681010301818c8c5af1908115610beb578991610bcc575b5015610b765782546020906001600160a01b03166109f58688611f6f565b92610a1460405194859384936323b872dd60e01b855260048501611f01565b03818b8a5af1908115610b6b578891610b3c575b5015610b2d57610a576003840491610a408386612064565b92610a50600e8601918254611f6f565b9055612466565b9081151580610b24575b610aa0575b5050507f0d7d75e01ab95780d3cd1c8ec0dd6c2ce19e3a20427eec8bf53283b6fb8e95f09160409182519182526020820152a38060075580f35b676765c793fa10079d601b1b810290808204676765c793fa10079d601b1b1490151715610b105791610b066009610afc604096947f0d7d75e01ab95780d3cd1c8ec0dd6c2ce19e3a20427eec8bf53283b6fb8e95f09896612071565b9201918254611f6f565b9055918193610a66565b634e487b7160e01b88526011600452602488fd5b50801515610a61565b6312171d8360e31b8752600487fd5b610b5e915060203d602011610b64575b610b568183611eb3565b810190611ee9565b5f610a28565b503d610b4c565b6040513d8a823e3d90fd5b60405162461bcd60e51b815260206004820152602860248201527f476f6f644c656e64506f6f6c3a20666c617368206c6f616e2063616c6c6261636044820152671ac819985a5b195960c21b6064820152608490fd5b610be5915060203d602011610b6457610b568183611eb3565b5f6109d7565b6040513d8b823e3d90fd5b6312171d8360e31b8952600489fd5b610c1e915060203d602011610b6457610b568183611eb3565b5f61095e565b6040513d8c823e3d90fd5b634e487b7160e01b89526011600452602489fd5b8580fd5b8480fd5b503461019b57608036600319011261019b57610c65611cf8565b610c6d611d0e565b90610c76611d24565b9060643591610c8760075415611dcf565b60016007558293610c97836121b4565b610ca0816121b4565b610ca98261259d565b505090676765c793fa10079d601b1b8210156111b25760018060a01b03841693848852876020526040882060018060a01b03831696878a528960205260408a2090600a8201956b0311d253316c79d376000000610d0888548a89612304565b91106111ab5760011c80915b116111a3575b50881561115e57878a5260208a81526040808c20898d528c8352818d20600254925163b3596f0760e01b8152600481018d9052938e936001600160a01b03169085602481845afa94851561115357849561111c575b5060208c60246040518094819363b3596f0760e01b835260048301525afa93841561111057936110d8575b50831515806110cf575b1561108a57610df460ff60088f610dea610ddf610dfa97610dd98686610dd0610dff9e61271098611fa1565b93015416611f90565b90612071565b600587015490611fa1565b0493015416611f90565b90611fa1565b612071565b9460098301918a8a8d610e1486548c8a612b7d565b808b11611081575b5083546040516323b872dd60e01b8152936020938593909284928391610e5091906001600160a01b03163360048501611f01565b03925af1908115611076578d91611057575b5015611048576001015490548b916001600160a01b0316803b1561104457604051637a94c56560e11b81526001600160a01b038a166004820152602481018d9052604481019290925282908290606490829084905af1801561103957611020575b5082549154916001600160a01b0316803b1561101c57604051637a94c56560e11b81526001600160a01b038916600482015260248101889052604481019390935281908390606490829084905af191821561100f578692610ff2575b505090546040516323b872dd60e01b81529160209183918291610f51919033906001600160a01b031660048501611f01565b03818c8a5af1908115610beb578991610fd3575b5015610fc45791610fa27f1a98026bd2fd57ccb4933487f6d856fe1a60aa4605383cead00860edbe14b9f49492610f9d6060956123a7565b6123a7565b604051968752602087015233604087015260018060a01b031694a48060075580f35b6312171d8360e31b8852600488fd5b610fec915060203d602011610b6457610b568183611eb3565b5f610f65565b81925090610fff91611eb3565b61100b5783895f610f1f565b8880fd5b50604051903d90823e3d90fd5b5080fd5b8161102a91611eb3565b61103557895f610ec3565b8980fd5b6040513d84823e3d90fd5b8280fd5b6312171d8360e31b8c5260048cfd5b611070915060203d602011610b6457610b568183611eb3565b5f610e62565b6040513d8f823e3d90fd5b99506020610e1c565b60405162461bcd60e51b815260206004820152601960248201527f476f6f644c656e64506f6f6c3a206f7261636c65206661696c000000000000006044820152606490fd5b50821515610da4565b9092506020813d602011611108575b816110f460209383611eb3565b810103126111045751915f610d9a565b5f80fd5b3d91506110e7565b604051903d90823e3d90fd5b935093506020833d60201161114b575b8161113960209383611eb3565b81010312611104578d9251935f610d6f565b3d915061112c565b6040513d86823e3d90fd5b60405162461bcd60e51b815260206004820152601e60248201527f476f6f644c656e64506f6f6c3a207a65726f206c69717569646174696f6e00006044820152606490fd5b98505f610d1a565b8091610d14565b60405162461bcd60e51b815260206004820152601e60248201527f476f6f644c656e64506f6f6c3a206e6f74206c6971756964617461626c6500006044820152606490fd5b503461019b57602036600319011261019b5760043567ffffffffffffffff811161101c573660238201121561101c57806004013567ffffffffffffffff8111611044576024820191602436918360051b0101116110445761125a60075415611dcf565b6001600755825b81811061127057838060075580f35b61128b611286611281838587612122565b612132565b6121b4565b6001600160a01b036112a1611281838587612122565b16845283602052604084209084600e830192835493846112c9575b5050506001915001611261565b82905580546004546009909201546001600160a01b039182169290911690823b156113965760405163b848f5b160e01b81526001600160a01b039290921660048301526024820186905260448201529082908290606490829084905af1801561103957611381575b5060019290507f4a9f0bc4fa7e0e0d70aba96482e6e4dadf15298daff23a34b937566acd51b39360206001600160a01b0361137061128186898b612122565b1692604051908152a2845f806112bc565b8161138b91611eb3565b610c4757845f611331565b8380fd5b503461019b576102486113ac36611d66565b916113b960075415611dcf565b60016007556129b1565b503461019b578060031936011261019b576002546040516001600160a01b039091168152602090f35b503461019b57602036600319011261019b57611406611cf8565b61141b60018060a01b03600554163314611f23565b60018060a01b03166001600160601b0360a01b600254161760025580f35b503461019b57602036600319011261019b5760206102c0611458611cf8565b61208f565b503461019b578060031936011261019b576020600154604051908152f35b503461019b57602036600319011261019b57611495611cf8565b6005546001600160a01b0316906114ad338314611f23565b6001600160a01b03169081156114f657600680546001600160a01b031916831790557fc02afc35b5d9b88807390ad5b17e685602c17339aa880db1dfe4e15cb3e2e3a18380a380f35b60405162461bcd60e51b815260206004820152601a60248201527f476f6f644c656e64506f6f6c3a207a65726f20616464726573730000000000006044820152606490fd5b503461019b576020906101da61155036611d66565b9161155d60075415611dcf565b600160075561279b565b503461019b578060031936011261019b576004546040516001600160a01b039091168152602090f35b503461019b57604036600319011261019b576115aa611cf8565b7f6d14f44808ce024f263432bc38d019a9951fbe674e9898b54844dbc8dc09c23a6040602435926115e660018060a01b03600554163314611f23565b6001600160a01b0390811680865260208690528286205490949161160c9116151561200a565b83855284602052600682862001549084865285602052806006848820015582519182526020820152a280f35b503461019b578060031936011261019b57602060405160098152f35b503461019b57602036600319011261019b576004359060015482101561019b57602061167f83611d3a565b905460405160039290921b1c6001600160a01b03168152f35b503461019b57604036600319011261019b576116b2611cf8565b602435906116c260075415611dcf565b600160075560018060a01b03811690818452836020526040842060088101805460ff8160081c169081611922575b50156118dd57611701851515611e67565b61170a836121b4565b600782015480611869575b50506001810154600a82015486916001600160a01b0316803b1561104457604051630ab714fb60e11b815233600482015260248101889052604481019290925290919081908390606490829084905af191821561100f578692611850575b505090546040516323b872dd60e01b815291602091839182916117a5919033906001600160a01b031660048501611f01565b038188875af1908115611845578591611826575b5015611817576117e490610f9d676765c793fa10079d601b1b6117db3361259d565b50501015611fb4565b6040519182527f312a5e5e1079f5dda4e95dbbd0b908b291fd5b992ef22073643ab691572c5b5260203393a38060075580f35b6312171d8360e31b8452600484fd5b61183f915060203d602011610b6457610b568183611eb3565b5f6117b9565b6040513d87823e3d90fd5b8192509061185d91611eb3565b610c475783855f611773565b61188c90610df460ff6118848961187f89612500565b611f6f565b945416611f90565b10611898575f80611715565b60405162461bcd60e51b815260206004820152601860248201527f476f6f644c656e64506f6f6c3a20626f72726f772063617000000000000000006044820152606490fd5b60405162461bcd60e51b815260206004820152601d60248201527f476f6f644c656e64506f6f6c3a20626f72726f772064697361626c65640000006044820152606490fd5b60ff915060101c165f6116f0565b503461019b57604036600319011261019b5761194a611cf8565b6024359061196360018060a01b03600554163314611f23565b6127108211611997576107cd91611979826121b4565b6001600160a01b0382168452602084905260408420600201556123a7565b60405162461bcd60e51b815260206004820152600a6024820152693130b2103330b1ba37b960b11b6044820152606490fd5b503461019b57602036600319011261019b5760e09060406119e8611cf8565b9160018060a01b03831681528060205220600981015490600a810154600c82015490600e600b84015493015493611a27611a2187612466565b96612500565b604051968752602087015260408601526060850152608084015260a083015260c0820152f35b503461019b578060031936011261019b576006546040516001600160a01b039091168152602090f35b503461110457604036600319011261110457611a90611cf8565b60243591611aa060075415611dcf565b6001600755829160018060a01b03811690815f525f60205260405f20611acf60ff600883015460081c16611e1b565b611ad8826121b4565b600a810195611ae987543385612304565b905f1914611c3e575b611afd861515611e67565b808611611c36575b5080546040516323b872dd60e01b81529060209082908190611b36908a906001600160a01b03163360048501611f01565b03815f885af1908115611bfd575f91611c17575b5015611c0857600101549454946001600160a01b0316803b1561110457604051637a94c56560e11b81523360048201526024810186905260448101969096525f908690606490829084905af1948515611bfd57602095611be6575b50611baf906123a7565b604051908382527f05f2eeda0e08e4b437f487c8d7d29b14537d15e3488170dc3de5dbdf8dac4684853393a3600755604051908152f35b611bf39193505f90611eb3565b5f91611baf611ba5565b6040513d5f823e3d90fd5b6312171d8360e31b5f5260045ffd5b611c30915060203d602011610b6457610b568183611eb3565b5f611b4a565b94505f611b05565b945084611af2565b34611104575f366003190112611104576006546001600160a01b0381169133839003611cb65750600580546001600160a01b0319808216851790925591166006556001600160a01b03167ff8ccb027dfcd135e000e9d45e6cc2d662578a8825d4c45b5e32e0adf67e79ec65f80a3005b62461bcd60e51b815260206004820152601f60248201527f476f6f644c656e64506f6f6c3a206e6f742070656e64696e672061646d696e006044820152606490fd5b600435906001600160a01b038216820361110457565b602435906001600160a01b038216820361110457565b604435906001600160a01b038216820361110457565b600154811015611d525760015f5260205f2001905f90565b634e487b7160e01b5f52603260045260245ffd5b6060906003190112611104576004356001600160a01b03811681036111045790602435906044356001600160a01b03811681036111045790565b6040906003190112611104576004356001600160a01b0381168103611104579060243580151581036111045790565b15611dd657565b60405162461bcd60e51b815260206004820152601760248201527f476f6f644c656e64506f6f6c3a207265656e7472616e740000000000000000006044820152606490fd5b15611e2257565b60405162461bcd60e51b815260206004820152601e60248201527f476f6f644c656e64506f6f6c3a207265736572766520696e61637469766500006044820152606490fd5b15611e6e57565b60405162461bcd60e51b815260206004820152601960248201527f476f6f644c656e64506f6f6c3a207a65726f20616d6f756e74000000000000006044820152606490fd5b90601f8019910116810190811067ffffffffffffffff821117611ed557604052565b634e487b7160e01b5f52604160045260245ffd5b90816020910312611104575180151581036111045790565b6001600160a01b03918216815291166020820152604081019190915260600190565b15611f2a57565b60405162461bcd60e51b815260206004820152601760248201527f476f6f644c656e64506f6f6c3a206e6f742061646d696e0000000000000000006044820152606490fd5b91908201809211611f7c57565b634e487b7160e01b5f52601160045260245ffd5b60ff16604d8111611f7c57600a0a90565b81810292918115918404141715611f7c57565b15611fbb57565b60405162461bcd60e51b815260206004820152602160248201527f476f6f644c656e64506f6f6c3a20756e646572636f6c6c61746572616c697a656044820152601960fa1b6064820152608490fd5b1561201157565b60405162461bcd60e51b815260206004820152602560248201527f476f6f644c656e64506f6f6c3a2072657365727665206e6f7420696e697469616044820152641b1a5e995960da1b6064820152608490fd5b91908203918211611f7c57565b811561207b570490565b634e487b7160e01b5f52601260045260245ffd5b60018060a01b03165f525f60205260405f2060ff600882015460081c1615612112576120c664ffffffffff600d8301541642612064565b90811561210957676765c793fa10079d601b1b6120ff60096301e133806120f461210696600c870154611fa1565b049301549283611fa1565b0490611f6f565b90565b60099150015490565b50676765c793fa10079d601b1b90565b9190811015611d525760051b0190565b356001600160a01b03811681036111045790565b60018060a01b03165f525f60205260405f2060ff600882015460081c16156121125761217d64ffffffffff600d8301541642612064565b9081156121ab57676765c793fa10079d601b1b6120ff600a6301e133806120f461210696600b870154611fa1565b600a9150015490565b60018060a01b03811690815f525f60205260405f209060ff600883015460081c16156122ff57600d8201916121f164ffffffffff84541642612064565b9283156122f8577f6d129bd71f2401cbe77f49f546d7d5f58992faecfca6e51ba06b50b261e8333193612225604094612500565b8061225b575b5050805464ffffffffff19164264ffffffffff161790556009810154600a919091015482519182526020820152a2565b816127106122b2676765c793fa10079d601b1b6122a66122ce956301e133806122898199600b8d0154611fa1565b0490600a8b0161229f8154866120ff8683611fa1565b9055611fa1565b04600288015490611fa1565b046122c2600e8701918254611f6f565b9055600c850154611fa1565b046122ef6009840191676765c793fa10079d601b1b6120ff84549283611fa1565b90555f8061222b565b5050505050565b505050565b6001600160a01b039081165f9081526020818152604091829020600101549151630ed1279f60e11b815293831660048501529183916024918391165afa908115611bfd575f9161236a575b50676765c793fa10079d601b1b9161236691611fa1565b0490565b90506020813d60201161239f575b8161238560209383611eb3565b810103126111045751676765c793fa10079d601b1b61234f565b3d9150612378565b6001600160a01b0381165f8181526020819052604090819020919260846123d66123d083612466565b92612500565b9460018060a01b0360035416600286015485519788958694635789ca3b60e01b865260048601526024850152604484015260648301525afa918215611bfd575f905f9361242a575b50600b820155600c0155565b9250506040823d60401161245e575b8161244660409383611eb3565b8101031261110457815160209092015191600c61241e565b3d9150612439565b60018060a01b03165f525f60205260405f206004602060018060a01b038354166040519283809263b1bf962d60e01b82525afa908115611bfd575f916124c3575b50612366906009676765c793fa10079d601b1b93015490611fa1565b90506020813d6020116124f8575b816124de60209383611eb3565b810103126111045751676765c793fa10079d601b1b6124a7565b3d91506124d1565b60018060a01b03165f525f60205260405f206004602060018060a01b036001840154166040519283809263b1bf962d60e01b82525afa908115611bfd575f91612560575b5061236690600a676765c793fa10079d601b1b93015490611fa1565b90506020813d602011612595575b8161257b60209383611eb3565b810103126111045751676765c793fa10079d601b1b612544565b3d915061256e565b5f905f905f905f9060015460018060a01b0360025416915b818410612602575050505081155f146125ce57505f1992565b676765c793fa10079d601b1b810290808204676765c793fa10079d601b1b1490151715611f7c57816125ff91612071565b92565b90919293949561261185611d3a565b60018060a01b0391549060031b1c1690815f525f60205260ff600860405f20015460081c161561278f5760405163b3596f0760e01b81526004810183905290602082602481895afa918215611bfd575f9261275c575b50811561274e57916126da916001935f5f905f93855f525f60205260405f20906126908761208f565b8a6126a561269d8a612146565b92828b612b7d565b80612707575b50906126bb916126d49899612304565b806126e5575b5050506126ce9192611f6f565b9a611f6f565b97611f6f565b945b019291906125b5565b6126ce945060ff6008610dd06126ff9594610dd994611fa1565b915f806126c1565b6126d498506126bb92955061273191508361272191611fa1565b610dd960ff600887015416611f90565b938b612710612744600487015488611fa1565b04985090916126ab565b9796959050600191506126dc565b9091506020813d8211612787575b8161277760209383611eb3565b810103126111045751905f612667565b3d915061276a565b969594600191506126dc565b6001600160a01b0381165f8181526020819052604081206008808201549596959394936127cb911c60ff16611e1b565b6127d4836121b4565b6009810154906127e5823386612b7d565b5f1988146129a9575b871515908161299e575b50156129595780546001600160a01b0316803b1561110457604051637a94c56560e11b81523360048201526024810189905260448101939093525f908390606490829084905af1908115611bfd578792879261293c575b50546040516323b872dd60e01b8152926020928492839261287e9290916001600160a01b031660048501611f01565b038185885af190811561103957829161291d575b501561290e57506128c890610f9d6128a93361259d565b5050676765c793fa10079d601b1b811090811591612903575b50611fb4565b6040518381526001600160a01b03909216917f9b1bfa7fa9ee420a16e124f794c35ac9f90472acc99140eb2f6447c714cad8eb90602090a390565b5f191490505f6128c2565b6312171d8360e31b8152600490fd5b612936915060203d602011610b6457610b568183611eb3565b5f612892565b90935061294c92505f9150611eb3565b846020855f93909161284f565b60405162461bcd60e51b815260206004820152601860248201527f476f6f644c656e64506f6f6c3a2062616420616d6f756e7400000000000000006044820152606490fd5b90508711155f6127f8565b9650866127ee565b91909160018060a01b03811691825f525f60205260405f2090600882016129de60ff825460081c16611e1b565b6129e9861515611e67565b6129f2846121b4565b600683015480612b16575b505081546040516323b872dd60e01b81529060209082908190612a2f908a906001600160a01b03163360048501611f01565b03815f895af1908115611bfd575f91612af7575b5015611c08578154600990920154916001600160a01b0316803b1561110457604051630ab714fb60e11b81526001600160a01b03831660048201526024810187905260448101939093525f908390606490829084905af18015611bfd577fd1cf3d156d5f8f0d50f6c122ed609cec09d35c9b9fb3fff6ea0959134dae424e93602093612ad492612ae7575b506123a7565b6040519485526001600160a01b031693a3565b5f612af191611eb3565b5f612ace565b612b10915060203d602011610b6457610b568183611eb3565b5f612a43565b612b2c90610df460ff6118848a61187f8a612466565b10612b38575f806129fd565b60405162461bcd60e51b815260206004820152601860248201527f476f6f644c656e64506f6f6c3a20737570706c792063617000000000000000006044820152606490fd5b6001600160a01b039081165f9081526020818152604091829020549151630ed1279f60e11b815293831660048501529183916024918391165afa908115611bfd575f9161236a5750676765c793fa10079d601b1b9161236691611fa156fea26469706673582212200167e631479b6d637aa2114f13d5584bd38db54520d26ee0c99b951eb41cab2364736f6c63430008210033","linkReferences":{}},"methodIdentifiers":{"FLASH_LOAN_PREMIUM_BPS()":"558bb3ac","acceptAdmin()":"0e18b681","admin()":"f851a440","borrow(address,uint256)":"4b8a3529","flashLoan(address,uint256,address,bytes)":"adf51de1","getBorrowIndex(address)":"d6feb980","getLiquidityIndex(address)":"7303b22c","getReserveData(address)":"35ea6a75","getReservesCount()":"72218d04","getUserAccountData(address)":"bf92857c","initReserve(address,address,address,uint256,uint256,uint256,uint256,uint256,uint256,uint8)":"d2d2dbce","interestRateModel()":"f3fdb15a","liquidate(address,address,address,uint256)":"aab3f868","mintToTreasury(address[])":"9cd19996","oracle()":"7dc0d1d0","pendingAdmin()":"26782247","repay(address,uint256)":"22867d78","reservesList(uint256)":"4fe7a6e5","setAdmin(address)":"704b6c02","setBorrowCap(address,uint256)":"d14a0983","setBorrowingEnabled(address,bool)":"cb245e5b","setOracle(address)":"7adbf973","setReserveActive(address,bool)":"b736aaeb","setReserveFactor(address,uint256)":"4b4e6753","setSupplyCap(address,uint256)":"571f03e5","setTreasury(address)":"f0f44260","supply(address,uint256)":"f2b9fdb8","supply(address,uint256,address)":"8b2a4df5","treasury()":"61d027b3","withdraw(address,uint256)":"f3fef3a3","withdraw(address,uint256,address)":"69328dec"},"id":62}