{"abi":[{"type":"constructor","inputs":[{"name":"_oracle","type":"address","internalType":"address"},{"name":"_interestRateModel","type":"address","internalType":"address"},{"name":"_treasury","type":"address","internalType":"address"},{"name":"_admin","type":"address","internalType":"address"}],"stateMutability":"nonpayable"},{"type":"function","name":"FLASH_LOAN_PREMIUM_BPS","inputs":[],"outputs":[{"name":"","type":"uint256","internalType":"uint256"}],"stateMutability":"view"},{"type":"function","name":"admin","inputs":[],"outputs":[{"name":"","type":"address","internalType":"address"}],"stateMutability":"view"},{"type":"function","name":"borrow","inputs":[{"name":"asset","type":"address","internalType":"address"},{"name":"amount","type":"uint256","internalType":"uint256"}],"outputs":[],"stateMutability":"nonpayable"},{"type":"function","name":"flashLoan","inputs":[{"name":"asset","type":"address","internalType":"address"},{"name":"amount","type":"uint256","internalType":"uint256"},{"name":"receiver","type":"address","internalType":"address"},{"name":"params","type":"bytes","internalType":"bytes"}],"outputs":[],"stateMutability":"nonpayable"},{"type":"function","name":"getBorrowIndex","inputs":[{"name":"asset","type":"address","internalType":"address"}],"outputs":[{"name":"","type":"uint256","internalType":"uint256"}],"stateMutability":"view"},{"type":"function","name":"getLiquidityIndex","inputs":[{"name":"asset","type":"address","internalType":"address"}],"outputs":[{"name":"","type":"uint256","internalType":"uint256"}],"stateMutability":"view"},{"type":"function","name":"getReserveData","inputs":[{"name":"asset","type":"address","internalType":"address"}],"outputs":[{"name":"totalDeposits","type":"uint256","internalType":"uint256"},{"name":"totalBorrows","type":"uint256","internalType":"uint256"},{"name":"liquidityIndex","type":"uint256","internalType":"uint256"},{"name":"borrowIndex","type":"uint256","internalType":"uint256"},{"name":"supplyRate","type":"uint256","internalType":"uint256"},{"name":"borrowRate","type":"uint256","internalType":"uint256"},{"name":"accruedToTreasury","type":"uint256","internalType":"uint256"}],"stateMutability":"view"},{"type":"function","name":"getReservesCount","inputs":[],"outputs":[{"name":"","type":"uint256","internalType":"uint256"}],"stateMutability":"view"},{"type":"function","name":"getUserAccountData","inputs":[{"name":"user","type":"address","internalType":"address"}],"outputs":[{"name":"healthFactor","type":"uint256","internalType":"uint256"},{"name":"totalCollateralUSD","type":"uint256","internalType":"uint256"},{"name":"totalDebtUSD","type":"uint256","internalType":"uint256"}],"stateMutability":"view"},{"type":"function","name":"initReserve","inputs":[{"name":"asset","type":"address","internalType":"address"},{"name":"gToken","type":"address","internalType":"address"},{"name":"debtToken","type":"address","internalType":"address"},{"name":"reserveFactorBPS_","type":"uint256","internalType":"uint256"},{"name":"ltvBPS","type":"uint256","internalType":"uint256"},{"name":"liquidationThresholdBPS","type":"uint256","internalType":"uint256"},{"name":"liquidationBonusBPS","type":"uint256","internalType":"uint256"},{"name":"supplyCap","type":"uint256","internalType":"uint256"},{"name":"borrowCap","type":"uint256","internalType":"uint256"},{"name":"assetDecimals","type":"uint8","internalType":"uint8"}],"outputs":[],"stateMutability":"nonpayable"},{"type":"function","name":"interestRateModel","inputs":[],"outputs":[{"name":"","type":"address","internalType":"contract IInterestRateModel"}],"stateMutability":"view"},{"type":"function","name":"liquidate","inputs":[{"name":"collateralAsset","type":"address","internalType":"address"},{"name":"debtAsset","type":"address","internalType":"address"},{"name":"user","type":"address","internalType":"address"},{"name":"debtToCover","type":"uint256","internalType":"uint256"}],"outputs":[],"stateMutability":"nonpayable"},{"type":"function","name":"mintToTreasury","inputs":[{"name":"assets","type":"address[]","internalType":"address[]"}],"outputs":[],"stateMutability":"nonpayable"},{"type":"function","name":"oracle","inputs":[],"outputs":[{"name":"","type":"address","internalType":"contract IPriceOracle"}],"stateMutability":"view"},{"type":"function","name":"repay","inputs":[{"name":"asset","type":"address","internalType":"address"},{"name":"amount","type":"uint256","internalType":"uint256"}],"outputs":[{"name":"","type":"uint256","internalType":"uint256"}],"stateMutability":"nonpayable"},{"type":"function","name":"reservesList","inputs":[{"name":"","type":"uint256","internalType":"uint256"}],"outputs":[{"name":"","type":"address","internalType":"address"}],"stateMutability":"view"},{"type":"function","name":"setAdmin","inputs":[{"name":"_admin","type":"address","internalType":"address"}],"outputs":[],"stateMutability":"nonpayable"},{"type":"function","name":"setBorrowingEnabled","inputs":[{"name":"asset","type":"address","internalType":"address"},{"name":"enabled","type":"bool","internalType":"bool"}],"outputs":[],"stateMutability":"nonpayable"},{"type":"function","name":"setOracle","inputs":[{"name":"_oracle","type":"address","internalType":"address"}],"outputs":[],"stateMutability":"nonpayable"},{"type":"function","name":"setReserveActive","inputs":[{"name":"asset","type":"address","internalType":"address"},{"name":"active","type":"bool","internalType":"bool"}],"outputs":[],"stateMutability":"nonpayable"},{"type":"function","name":"setReserveFactor","inputs":[{"name":"asset","type":"address","internalType":"address"},{"name":"newFactorBPS","type":"uint256","internalType":"uint256"}],"outputs":[],"stateMutability":"nonpayable"},{"type":"function","name":"setTreasury","inputs":[{"name":"_treasury","type":"address","internalType":"address"}],"outputs":[],"stateMutability":"nonpayable"},{"type":"function","name":"supply","inputs":[{"name":"asset","type":"address","internalType":"address"},{"name":"amount","type":"uint256","internalType":"uint256"},{"name":"onBehalfOf","type":"address","internalType":"address"}],"outputs":[],"stateMutability":"nonpayable"},{"type":"function","name":"supply","inputs":[{"name":"asset","type":"address","internalType":"address"},{"name":"amount","type":"uint256","internalType":"uint256"}],"outputs":[],"stateMutability":"nonpayable"},{"type":"function","name":"treasury","inputs":[],"outputs":[{"name":"","type":"address","internalType":"address"}],"stateMutability":"view"},{"type":"function","name":"withdraw","inputs":[{"name":"asset","type":"address","internalType":"address"},{"name":"amount","type":"uint256","internalType":"uint256"},{"name":"to","type":"address","internalType":"address"}],"outputs":[{"name":"","type":"uint256","internalType":"uint256"}],"stateMutability":"nonpayable"},{"type":"function","name":"withdraw","inputs":[{"name":"asset","type":"address","internalType":"address"},{"name":"amount","type":"uint256","internalType":"uint256"}],"outputs":[{"name":"","type":"uint256","internalType":"uint256"}],"stateMutability":"nonpayable"},{"type":"event","name":"Borrow","inputs":[{"name":"asset","type":"address","indexed":true,"internalType":"address"},{"name":"user","type":"address","indexed":true,"internalType":"address"},{"name":"amount","type":"uint256","indexed":false,"internalType":"uint256"}],"anonymous":false},{"type":"event","name":"FlashLoan","inputs":[{"name":"asset","type":"address","indexed":true,"internalType":"address"},{"name":"receiver","type":"address","indexed":true,"internalType":"address"},{"name":"amount","type":"uint256","indexed":false,"internalType":"uint256"},{"name":"premium","type":"uint256","indexed":false,"internalType":"uint256"}],"anonymous":false},{"type":"event","name":"Liquidation","inputs":[{"name":"collateralAsset","type":"address","indexed":true,"internalType":"address"},{"name":"debtAsset","type":"address","indexed":true,"internalType":"address"},{"name":"user","type":"address","indexed":true,"internalType":"address"},{"name":"debtCovered","type":"uint256","indexed":false,"internalType":"uint256"},{"name":"collateralSeized","type":"uint256","indexed":false,"internalType":"uint256"},{"name":"liquidator","type":"address","indexed":false,"internalType":"address"}],"anonymous":false},{"type":"event","name":"Repay","inputs":[{"name":"asset","type":"address","indexed":true,"internalType":"address"},{"name":"user","type":"address","indexed":true,"internalType":"address"},{"name":"amount","type":"uint256","indexed":false,"internalType":"uint256"}],"anonymous":false},{"type":"event","name":"ReserveInitialized","inputs":[{"name":"asset","type":"address","indexed":true,"internalType":"address"},{"name":"gToken","type":"address","indexed":false,"internalType":"address"},{"name":"debtToken","type":"address","indexed":false,"internalType":"address"}],"anonymous":false},{"type":"event","name":"ReserveUpdated","inputs":[{"name":"asset","type":"address","indexed":true,"internalType":"address"},{"name":"liquidityIndex","type":"uint256","indexed":false,"internalType":"uint256"},{"name":"borrowIndex","type":"uint256","indexed":false,"internalType":"uint256"}],"anonymous":false},{"type":"event","name":"Supply","inputs":[{"name":"asset","type":"address","indexed":true,"internalType":"address"},{"name":"user","type":"address","indexed":true,"internalType":"address"},{"name":"amount","type":"uint256","indexed":false,"internalType":"uint256"}],"anonymous":false},{"type":"event","name":"TreasuryMint","inputs":[{"name":"asset","type":"address","indexed":true,"internalType":"address"},{"name":"amount","type":"uint256","indexed":false,"internalType":"uint256"}],"anonymous":false},{"type":"event","name":"Withdraw","inputs":[{"name":"asset","type":"address","indexed":true,"internalType":"address"},{"name":"user","type":"address","indexed":true,"internalType":"address"},{"name":"amount","type":"uint256","indexed":false,"internalType":"uint256"}],"anonymous":false},{"type":"error","name":"TransferFailed","inputs":[]}],"bytecode":{"object":"0x60803460bd57601f6129bf38819003918201601f19168301916001600160401b0383118484101760c15780849260809460405283398101031260bd5760428160d5565b90604d6020820160d5565b60616060605b6040850160d5565b930160d5565b600280546001600160a01b03199081166001600160a01b0396871617909155600380548216938616939093179092556004805483169385169390931790925560058054909116919092161790556040516128d690816100e98239f35b5f80fd5b634e487b7160e01b5f52604160045260245ffd5b51906001600160a01b038216820360bd5756fe60806040526004361015610011575f80fd5b5f5f3560e01c806322867d781461184757806335ea6a75146117c35780634b4e67531461172a5780634b8a3529146114925780634fe7a6e51461144e578063558bb3ac1461143257806361d027b31461140957806369328dec146113dd578063704b6c021461138e57806372218d04146113705780637303b22c1461134c5780637adbf973146112ff5780637dc0d1d0146112d65780638b2a4df5146112ad5780639cd199961461111f578063aab3f86814610b73578063adf51de114610784578063b736aaeb1461072f578063bf92857c146106f8578063cb245e5b1461069b578063d2d2dbce14610298578063d6feb9801461026c578063f0f442601461021f578063f2b9fdb8146101df578063f3fdb15a146101b6578063f3fef3a31461016e5763f851a44014610143575f80fd5b3461016b578060031936011261016b576005546040516001600160a01b039091168152602090f35b80fd5b503461016b57604036600319011261016b576020906101aa61018e611a17565b61019a60065415611aee565b6001600655339060243590612460565b90600655604051908152f35b503461016b578060031936011261016b576003546040516001600160a01b039091168152602090f35b503461016b57604036600319011261016b576102186101fc611a17565b61020860065415611aee565b6001600655339060243590612676565b8060065580f35b503461016b57602036600319011261016b57610239611a17565b61024e60018060a01b03600554163314611c42565b60018060a01b03166001600160601b0360a01b600454161760045580f35b503461016b57602036600319011261016b57602061029061028b611a17565b611e0b565b604051908152f35b503461016b5761014036600319011261016b576102b3611a17565b6102bb611a2d565b906102c4611a43565b916084359060a43560c435610124359160ff8316809303610697576102f460018060a01b03600554163314611c42565b6001600160a01b0386168852602088905260408820600890810154901c60ff16610648578085116106115761271082106105dd5760405193610220850185811067ffffffffffffffff8211176105c95760405260018060a01b03169687855260018060a01b03169485602086015260643560408601526060850152608084015260a083015260e43560c08301526101043560e083015261010082015260016101208201526001610140820152676765c793fa10079d601b1b610160820152676765c793fa10079d601b1b610180820152846101a0820152846101c082015264ffffffffff42166101e08201528461020082015260018060a01b038316855284602052600e610200604087209260018060a01b0360018060a01b03825116166001600160601b0360a01b85541617845560018060a01b03602082015116600185019060018060a01b03166001600160601b0360a01b82541617905560408101516002850155606081015160038501556080810151600485015560a0810151600585015560c0810151600685015560e081015160078501556104e56008850160ff6101008401511660ff198254161781556104c76101208401511515829061ff00825491151560081b169061ff001916179055565b610140830151815462ff0000191690151560101b62ff000016179055565b6101608101516009850155610180810151600a8501556101a0810151600b8501556101c0810151600c85015564ffffffffff6101e08201511664ffffffffff600d8601911664ffffffffff198254161790550151910155600154680100000000000000008110156105b557916040916105858460017f1d9fcd0dc935b4778d5af97f55c4d7b2553257382f1ef25c412114c8eeebd88e9601600155611a59565b81546001600160a01b0394851660039290921b82811b95901b19169390931790558251948552602085015292a280f35b634e487b7160e01b85526041600452602485fd5b634e487b7160e01b8a52604160045260248afd5b60405162461bcd60e51b815260206004820152600c60248201526b426f6e7573203c203130302560a01b6044820152606490fd5b60405162461bcd60e51b815260206004820152600f60248201526e131515880f881d1a1c995cda1bdb19608a1b6044820152606490fd5b60405162461bcd60e51b815260206004820152602160248201527f476f6f644c656e64506f6f6c3a20616c726561647920696e697469616c697a656044820152601960fa1b6064820152608490fd5b8780fd5b503461016b576106f56106ad36611abf565b906106c360018060a01b03600554163314611c42565b6001600160a01b03168352602083905260408320600801805462ff0000191691151560101b62ff000016919091179055565b80f35b503461016b57602036600319011261016b57606061071c610717611a17565b612262565b9060405192835260208301526040820152f35b503461016b576106f561074136611abf565b9061075760018060a01b03600554163314611c42565b60018060a01b0316835282602052600860408420019061ff00825491151560081b169061ff001916179055565b503461016b57608036600319011261016b5761079e611a17565b602435906107aa611a43565b9160643567ffffffffffffffff8111610b6f5736602382011215610b6f5780600401359367ffffffffffffffff8511610b6b573660248684010111610b6b576107f560065415611aee565b600160065560018060a01b0384169384875286602052604087209161082360ff600885015460081c16611b3a565b841561082f8115611b86565b60098602908682046009141715610b57576127109004938560208360018060a01b0387541661087260405194859384936323b872dd60e01b855260048501611c20565b03818d8c5af1908115610b4c578a91610b2d575b5015610b1e57602060249160c48960018060a01b0386169b806040519687958694631b11d0ff60e01b865260048601528d828601528c604486015233606486015260a060848601528260a4860152018484013781810183018e9052601f01601f191681010301818c8c5af1908115610b13578991610af4575b5015610a9e5782546020906001600160a01b031661091d8688611c8e565b9261093c60405194859384936323b872dd60e01b855260048501611c20565b03818b8a5af1908115610a93578891610a64575b5015610a555761097f60038404916109688386611d29565b92610978600e8601918254611c8e565b905561212b565b9081151580610a4c575b6109c8575b5050507f0d7d75e01ab95780d3cd1c8ec0dd6c2ce19e3a20427eec8bf53283b6fb8e95f09160409182519182526020820152a38060065580f35b676765c793fa10079d601b1b810290808204676765c793fa10079d601b1b1490151715610a385791610a2e6009610a24604096947f0d7d75e01ab95780d3cd1c8ec0dd6c2ce19e3a20427eec8bf53283b6fb8e95f09896611d36565b9201918254611c8e565b905591819361098e565b634e487b7160e01b88526011600452602488fd5b50801515610989565b6312171d8360e31b8752600487fd5b610a86915060203d602011610a8c575b610a7e8183611bd2565b810190611c08565b5f610950565b503d610a74565b6040513d8a823e3d90fd5b60405162461bcd60e51b815260206004820152602860248201527f476f6f644c656e64506f6f6c3a20666c617368206c6f616e2063616c6c6261636044820152671ac819985a5b195960c21b6064820152608490fd5b610b0d915060203d602011610a8c57610a7e8183611bd2565b5f6108ff565b6040513d8b823e3d90fd5b6312171d8360e31b8952600489fd5b610b46915060203d602011610a8c57610a7e8183611bd2565b5f610886565b6040513d8c823e3d90fd5b634e487b7160e01b89526011600452602489fd5b8580fd5b8480fd5b503461016b57608036600319011261016b57610b8d611a17565b610b95611a2d565b90610b9e611a43565b9060643591610baf60065415611aee565b60016006558293610bbf83611e79565b610bc881611e79565b610bd182612262565b505090676765c793fa10079d601b1b8210156110da5760018060a01b03841693848852876020526040882060018060a01b03831696878a528960205260408a2090600a8201956b0311d253316c79d376000000610c3088548a89611fc9565b91106110d35760011c80915b116110cb575b50881561108657878a5260208a81526040808c20898d528c8352818d20600254925163b3596f0760e01b8152600481018d9052938e936001600160a01b03169085602481845afa94851561107b578495611044575b5060208c60246040518094819363b3596f0760e01b835260048301525afa9384156110385793611000575b5083151580610ff7575b15610fb257610d1c60ff60088f610d12610d07610d2297610d018686610cf8610d279e61271098611cc0565b93015416611caf565b90611d36565b600587015490611cc0565b0493015416611caf565b90611cc0565b611d36565b9460098301918a8a8d610d3c86548c8a612842565b808b11610fa9575b5083546040516323b872dd60e01b8152936020938593909284928391610d7891906001600160a01b03163360048501611c20565b03925af1908115610f9e578d91610f7f575b5015610f70576001015490548b916001600160a01b0316803b15610f6c57604051637a94c56560e11b81526001600160a01b038a166004820152602481018d9052604481019290925282908290606490829084905af18015610f6157610f48575b5082549154916001600160a01b0316803b15610f4457604051637a94c56560e11b81526001600160a01b038916600482015260248101889052604481019390935281908390606490829084905af1918215610f37578692610f1a575b505090546040516323b872dd60e01b81529160209183918291610e79919033906001600160a01b031660048501611c20565b03818c8a5af1908115610b13578991610efb575b5015610eec5791610eca7f1a98026bd2fd57ccb4933487f6d856fe1a60aa4605383cead00860edbe14b9f49492610ec560609561206c565b61206c565b604051968752602087015233604087015260018060a01b031694a48060065580f35b6312171d8360e31b8852600488fd5b610f14915060203d602011610a8c57610a7e8183611bd2565b5f610e8d565b81925090610f2791611bd2565b610f335783895f610e47565b8880fd5b50604051903d90823e3d90fd5b5080fd5b81610f5291611bd2565b610f5d57895f610deb565b8980fd5b6040513d84823e3d90fd5b8280fd5b6312171d8360e31b8c5260048cfd5b610f98915060203d602011610a8c57610a7e8183611bd2565b5f610d8a565b6040513d8f823e3d90fd5b99506020610d44565b60405162461bcd60e51b815260206004820152601960248201527f476f6f644c656e64506f6f6c3a206f7261636c65206661696c000000000000006044820152606490fd5b50821515610ccc565b9092506020813d602011611030575b8161101c60209383611bd2565b8101031261102c5751915f610cc2565b5f80fd5b3d915061100f565b604051903d90823e3d90fd5b935093506020833d602011611073575b8161106160209383611bd2565b8101031261102c578d9251935f610c97565b3d9150611054565b6040513d86823e3d90fd5b60405162461bcd60e51b815260206004820152601e60248201527f476f6f644c656e64506f6f6c3a207a65726f206c69717569646174696f6e00006044820152606490fd5b98505f610c42565b8091610c3c565b60405162461bcd60e51b815260206004820152601e60248201527f476f6f644c656e64506f6f6c3a206e6f74206c6971756964617461626c6500006044820152606490fd5b503461016b57602036600319011261016b5760043567ffffffffffffffff8111610f445736602382011215610f4457806004013567ffffffffffffffff8111610f6c576024820191602436918360051b010111610f6c57825b818110611183578380f35b61119e611199611194838587611de7565b611df7565b611e79565b6001600160a01b036111b4611194838587611de7565b16845283602052604084209084600e830192835493846111dc575b5050506001915001611178565b82905580546004546009909201546001600160a01b039182169290911690823b156112a95760405163b848f5b160e01b81526001600160a01b039290921660048301526024820186905260448201529082908290606490829084905af18015610f6157611294575b5060019290507f4a9f0bc4fa7e0e0d70aba96482e6e4dadf15298daff23a34b937566acd51b39360206001600160a01b0361128361119486898b611de7565b1692604051908152a2845f806111cf565b8161129e91611bd2565b610b6f57845f611244565b8380fd5b503461016b576102186112bf36611a85565b916112cc60065415611aee565b6001600655612676565b503461016b578060031936011261016b576002546040516001600160a01b039091168152602090f35b503461016b57602036600319011261016b57611319611a17565b61132e60018060a01b03600554163314611c42565b60018060a01b03166001600160601b0360a01b600254161760025580f35b503461016b57602036600319011261016b57602061029061136b611a17565b611d54565b503461016b578060031936011261016b576020600154604051908152f35b503461016b57602036600319011261016b576113a8611a17565b600554906113c0336001600160a01b03841614611c42565b6001600160a01b03166001600160a01b0319919091161760055580f35b503461016b576020906101aa6113f236611a85565b916113ff60065415611aee565b6001600655612460565b503461016b578060031936011261016b576004546040516001600160a01b039091168152602090f35b503461016b578060031936011261016b57602060405160098152f35b503461016b57602036600319011261016b576004359060015482101561016b57602061147983611a59565b905460405160039290921b1c6001600160a01b03168152f35b503461016b57604036600319011261016b576114ac611a17565b602435906114bc60065415611aee565b600160065560018060a01b03811690818452836020526040842060088101805460ff8160081c16908161171c575b50156116d7576114fb851515611b86565b61150483611e79565b600782015480611663575b50506001810154600a82015486916001600160a01b0316803b15610f6c57604051630ab714fb60e11b815233600482015260248101889052604481019290925290919081908390606490829084905af1918215610f3757869261164a575b505090546040516323b872dd60e01b8152916020918391829161159f919033906001600160a01b031660048501611c20565b038188875af190811561163f578591611620575b5015611611576115de90610ec5676765c793fa10079d601b1b6115d533612262565b50501015611cd3565b6040519182527f312a5e5e1079f5dda4e95dbbd0b908b291fd5b992ef22073643ab691572c5b5260203393a38060065580f35b6312171d8360e31b8452600484fd5b611639915060203d602011610a8c57610a7e8183611bd2565b5f6115b3565b6040513d87823e3d90fd5b8192509061165791611bd2565b610b6f5783855f61156d565b61168690610d1c60ff61167e89611679896121c5565b611c8e565b945416611caf565b10611692575f8061150f565b60405162461bcd60e51b815260206004820152601860248201527f476f6f644c656e64506f6f6c3a20626f72726f772063617000000000000000006044820152606490fd5b60405162461bcd60e51b815260206004820152601d60248201527f476f6f644c656e64506f6f6c3a20626f72726f772064697361626c65640000006044820152606490fd5b60ff915060101c165f6114ea565b503461016b57604036600319011261016b57611744611a17565b6024359061175d60018060a01b03600554163314611c42565b6127108211611791576106f59161177382611e79565b6001600160a01b03821684526020849052604084206002015561206c565b60405162461bcd60e51b815260206004820152600a6024820152693130b2103330b1ba37b960b11b6044820152606490fd5b503461016b57602036600319011261016b5760e09060406117e2611a17565b9160018060a01b03831681528060205220600981015490600a810154600c82015490600e600b8401549301549361182161181b8761212b565b966121c5565b604051968752602087015260408601526060850152608084015260a083015260c0820152f35b503461102c57604036600319011261102c57611861611a17565b6024359161187160065415611aee565b6001600655829160018060a01b03811690815f525f60205260405f206118a060ff600883015460081c16611b3a565b6118a982611e79565b600a8101956118ba87543385611fc9565b905f1914611a0f575b6118ce861515611b86565b808611611a07575b5080546040516323b872dd60e01b81529060209082908190611907908a906001600160a01b03163360048501611c20565b03815f885af19081156119ce575f916119e8575b50156119d957600101549454946001600160a01b0316803b1561102c57604051637a94c56560e11b81523360048201526024810186905260448101969096525f908690606490829084905af19485156119ce576020956119b7575b506119809061206c565b604051908382527f05f2eeda0e08e4b437f487c8d7d29b14537d15e3488170dc3de5dbdf8dac4684853393a3600655604051908152f35b6119c49193505f90611bd2565b5f91611980611976565b6040513d5f823e3d90fd5b6312171d8360e31b5f5260045ffd5b611a01915060203d602011610a8c57610a7e8183611bd2565b5f61191b565b94505f6118d6565b9450846118c3565b600435906001600160a01b038216820361102c57565b602435906001600160a01b038216820361102c57565b604435906001600160a01b038216820361102c57565b600154811015611a715760015f5260205f2001905f90565b634e487b7160e01b5f52603260045260245ffd5b606090600319011261102c576004356001600160a01b038116810361102c5790602435906044356001600160a01b038116810361102c5790565b604090600319011261102c576004356001600160a01b038116810361102c5790602435801515810361102c5790565b15611af557565b60405162461bcd60e51b815260206004820152601760248201527f476f6f644c656e64506f6f6c3a207265656e7472616e740000000000000000006044820152606490fd5b15611b4157565b60405162461bcd60e51b815260206004820152601e60248201527f476f6f644c656e64506f6f6c3a207265736572766520696e61637469766500006044820152606490fd5b15611b8d57565b60405162461bcd60e51b815260206004820152601960248201527f476f6f644c656e64506f6f6c3a207a65726f20616d6f756e74000000000000006044820152606490fd5b90601f8019910116810190811067ffffffffffffffff821117611bf457604052565b634e487b7160e01b5f52604160045260245ffd5b9081602091031261102c5751801515810361102c5790565b6001600160a01b03918216815291166020820152604081019190915260600190565b15611c4957565b60405162461bcd60e51b815260206004820152601760248201527f476f6f644c656e64506f6f6c3a206e6f742061646d696e0000000000000000006044820152606490fd5b91908201809211611c9b57565b634e487b7160e01b5f52601160045260245ffd5b60ff16604d8111611c9b57600a0a90565b81810292918115918404141715611c9b57565b15611cda57565b60405162461bcd60e51b815260206004820152602160248201527f476f6f644c656e64506f6f6c3a20756e646572636f6c6c61746572616c697a656044820152601960fa1b6064820152608490fd5b91908203918211611c9b57565b8115611d40570490565b634e487b7160e01b5f52601260045260245ffd5b60018060a01b03165f525f60205260405f2060ff600882015460081c1615611dd757611d8b64ffffffffff600d8301541642611d29565b908115611dce57676765c793fa10079d601b1b611dc460096301e13380611db9611dcb96600c870154611cc0565b049301549283611cc0565b0490611c8e565b90565b60099150015490565b50676765c793fa10079d601b1b90565b9190811015611a715760051b0190565b356001600160a01b038116810361102c5790565b60018060a01b03165f525f60205260405f2060ff600882015460081c1615611dd757611e4264ffffffffff600d8301541642611d29565b908115611e7057676765c793fa10079d601b1b611dc4600a6301e13380611db9611dcb96600b870154611cc0565b600a9150015490565b60018060a01b03811690815f525f60205260405f209060ff600883015460081c1615611fc457600d820191611eb664ffffffffff84541642611d29565b928315611fbd577f6d129bd71f2401cbe77f49f546d7d5f58992faecfca6e51ba06b50b261e8333193611eea6040946121c5565b80611f20575b5050805464ffffffffff19164264ffffffffff161790556009810154600a919091015482519182526020820152a2565b81612710611f77676765c793fa10079d601b1b611f6b611f93956301e13380611f4e8199600b8d0154611cc0565b0490600a8b01611f64815486611dc48683611cc0565b9055611cc0565b04600288015490611cc0565b04611f87600e8701918254611c8e565b9055600c850154611cc0565b04611fb46009840191676765c793fa10079d601b1b611dc484549283611cc0565b90555f80611ef0565b5050505050565b505050565b6001600160a01b039081165f9081526020818152604091829020600101549151630ed1279f60e11b815293831660048501529183916024918391165afa9081156119ce575f9161202f575b50676765c793fa10079d601b1b9161202b91611cc0565b0490565b90506020813d602011612064575b8161204a60209383611bd2565b8101031261102c5751676765c793fa10079d601b1b612014565b3d915061203d565b6001600160a01b0381165f81815260208190526040908190209192608461209b6120958361212b565b926121c5565b9460018060a01b0360035416600286015485519788958694635789ca3b60e01b865260048601526024850152604484015260648301525afa9182156119ce575f905f936120ef575b50600b820155600c0155565b9250506040823d604011612123575b8161210b60409383611bd2565b8101031261102c57815160209092015191600c6120e3565b3d91506120fe565b60018060a01b03165f525f60205260405f206004602060018060a01b038354166040519283809263b1bf962d60e01b82525afa9081156119ce575f91612188575b5061202b906009676765c793fa10079d601b1b93015490611cc0565b90506020813d6020116121bd575b816121a360209383611bd2565b8101031261102c5751676765c793fa10079d601b1b61216c565b3d9150612196565b60018060a01b03165f525f60205260405f206004602060018060a01b036001840154166040519283809263b1bf962d60e01b82525afa9081156119ce575f91612225575b5061202b90600a676765c793fa10079d601b1b93015490611cc0565b90506020813d60201161225a575b8161224060209383611bd2565b8101031261102c5751676765c793fa10079d601b1b612209565b3d9150612233565b5f905f905f905f9060015460018060a01b0360025416915b8184106122c7575050505081155f1461229357505f1992565b676765c793fa10079d601b1b810290808204676765c793fa10079d601b1b1490151715611c9b57816122c491611d36565b92565b9091929394956122d685611a59565b60018060a01b0391549060031b1c1690815f525f60205260ff600860405f20015460081c16156124545760405163b3596f0760e01b81526004810183905290602082602481895afa9182156119ce575f92612421575b508115612413579161239f916001935f5f905f93855f525f60205260405f209061235587611d54565b8a61236a6123628a611e0b565b92828b612842565b806123cc575b5090612380916123999899611fc9565b806123aa575b5050506123939192611c8e565b9a611c8e565b97611c8e565b945b0192919061227a565b612393945060ff6008610cf86123c49594610d0194611cc0565b915f80612386565b61239998506123809295506123f69150836123e691611cc0565b610d0160ff600887015416611caf565b938b612710612409600487015488611cc0565b0498509091612370565b9796959050600191506123a1565b9091506020813d821161244c575b8161243c60209383611bd2565b8101031261102c5751905f61232c565b3d915061242f565b969594600191506123a1565b6001600160a01b0381165f818152602081905260408120600880820154959695939493612490911c60ff16611b3a565b61249983611e79565b6009810154906124aa823386612842565b5f19881461266e575b8715159081612663575b501561261e5780546001600160a01b0316803b1561102c57604051637a94c56560e11b81523360048201526024810189905260448101939093525f908390606490829084905af19081156119ce5787928792612601575b50546040516323b872dd60e01b815292602092849283926125439290916001600160a01b031660048501611c20565b038185885af1908115610f615782916125e2575b50156125d3575061258d90610ec561256e33612262565b5050676765c793fa10079d601b1b8110908115916125c8575b50611cd3565b6040518381526001600160a01b03909216917f9b1bfa7fa9ee420a16e124f794c35ac9f90472acc99140eb2f6447c714cad8eb90602090a390565b5f191490505f612587565b6312171d8360e31b8152600490fd5b6125fb915060203d602011610a8c57610a7e8183611bd2565b5f612557565b90935061261192505f9150611bd2565b846020855f939091612514565b60405162461bcd60e51b815260206004820152601860248201527f476f6f644c656e64506f6f6c3a2062616420616d6f756e7400000000000000006044820152606490fd5b90508711155f6124bd565b9650866124b3565b91909160018060a01b03811691825f525f60205260405f2090600882016126a360ff825460081c16611b3a565b6126ae861515611b86565b6126b784611e79565b6006830154806127db575b505081546040516323b872dd60e01b815290602090829081906126f4908a906001600160a01b03163360048501611c20565b03815f895af19081156119ce575f916127bc575b50156119d9578154600990920154916001600160a01b0316803b1561102c57604051630ab714fb60e11b81526001600160a01b03831660048201526024810187905260448101939093525f908390606490829084905af180156119ce577fd1cf3d156d5f8f0d50f6c122ed609cec09d35c9b9fb3fff6ea0959134dae424e93602093612799926127ac575b5061206c565b6040519485526001600160a01b031693a3565b5f6127b691611bd2565b5f612793565b6127d5915060203d602011610a8c57610a7e8183611bd2565b5f612708565b6127f190610d1c60ff61167e8a6116798a61212b565b106127fd575f806126c2565b60405162461bcd60e51b815260206004820152601860248201527f476f6f644c656e64506f6f6c3a20737570706c792063617000000000000000006044820152606490fd5b6001600160a01b039081165f9081526020818152604091829020549151630ed1279f60e11b815293831660048501529183916024918391165afa9081156119ce575f9161202f5750676765c793fa10079d601b1b9161202b91611cc056fea2646970667358221220d48221b6b05db24dce821ba272e88e4c7cb01e2bf4dd5a4260b10de41adea4bc64736f6c63430008210033","linkReferences":{}},"methodIdentifiers":{"FLASH_LOAN_PREMIUM_BPS()":"558bb3ac","admin()":"f851a440","borrow(address,uint256)":"4b8a3529","flashLoan(address,uint256,address,bytes)":"adf51de1","getBorrowIndex(address)":"d6feb980","getLiquidityIndex(address)":"7303b22c","getReserveData(address)":"35ea6a75","getReservesCount()":"72218d04","getUserAccountData(address)":"bf92857c","initReserve(address,address,address,uint256,uint256,uint256,uint256,uint256,uint256,uint8)":"d2d2dbce","interestRateModel()":"f3fdb15a","liquidate(address,address,address,uint256)":"aab3f868","mintToTreasury(address[])":"9cd19996","oracle()":"7dc0d1d0","repay(address,uint256)":"22867d78","reservesList(uint256)":"4fe7a6e5","setAdmin(address)":"704b6c02","setBorrowingEnabled(address,bool)":"cb245e5b","setOracle(address)":"7adbf973","setReserveActive(address,bool)":"b736aaeb","setReserveFactor(address,uint256)":"4b4e6753","setTreasury(address)":"f0f44260","supply(address,uint256)":"f2b9fdb8","supply(address,uint256,address)":"8b2a4df5","treasury()":"61d027b3","withdraw(address,uint256)":"f3fef3a3","withdraw(address,uint256,address)":"69328dec"},"id":86}