{"abi":[{"type":"constructor","inputs":[{"name":"_oracle","type":"address","internalType":"address"},{"name":"_interestRateModel","type":"address","internalType":"address"},{"name":"_treasury","type":"address","internalType":"address"},{"name":"_admin","type":"address","internalType":"address"}],"stateMutability":"nonpayable"},{"type":"function","name":"FLASH_LOAN_PREMIUM_BPS","inputs":[],"outputs":[{"name":"","type":"uint256","internalType":"uint256"}],"stateMutability":"view"},{"type":"function","name":"admin","inputs":[],"outputs":[{"name":"","type":"address","internalType":"address"}],"stateMutability":"view"},{"type":"function","name":"borrow","inputs":[{"name":"asset","type":"address","internalType":"address"},{"name":"amount","type":"uint256","internalType":"uint256"}],"outputs":[],"stateMutability":"nonpayable"},{"type":"function","name":"flashLoan","inputs":[{"name":"asset","type":"address","internalType":"address"},{"name":"amount","type":"uint256","internalType":"uint256"},{"name":"receiver","type":"address","internalType":"address"},{"name":"params","type":"bytes","internalType":"bytes"}],"outputs":[],"stateMutability":"nonpayable"},{"type":"function","name":"getBorrowIndex","inputs":[{"name":"asset","type":"address","internalType":"address"}],"outputs":[{"name":"","type":"uint256","internalType":"uint256"}],"stateMutability":"view"},{"type":"function","name":"getLiquidityIndex","inputs":[{"name":"asset","type":"address","internalType":"address"}],"outputs":[{"name":"","type":"uint256","internalType":"uint256"}],"stateMutability":"view"},{"type":"function","name":"getReserveData","inputs":[{"name":"asset","type":"address","internalType":"address"}],"outputs":[{"name":"totalDeposits","type":"uint256","internalType":"uint256"},{"name":"totalBorrows","type":"uint256","internalType":"uint256"},{"name":"liquidityIndex","type":"uint256","internalType":"uint256"},{"name":"borrowIndex","type":"uint256","internalType":"uint256"},{"name":"supplyRate","type":"uint256","internalType":"uint256"},{"name":"borrowRate","type":"uint256","internalType":"uint256"},{"name":"accruedToTreasury","type":"uint256","internalType":"uint256"}],"stateMutability":"view"},{"type":"function","name":"getReservesCount","inputs":[],"outputs":[{"name":"","type":"uint256","internalType":"uint256"}],"stateMutability":"view"},{"type":"function","name":"getUserAccountData","inputs":[{"name":"user","type":"address","internalType":"address"}],"outputs":[{"name":"healthFactor","type":"uint256","internalType":"uint256"},{"name":"totalCollateralUSD","type":"uint256","internalType":"uint256"},{"name":"totalDebtUSD","type":"uint256","internalType":"uint256"}],"stateMutability":"view"},{"type":"function","name":"initReserve","inputs":[{"name":"asset","type":"address","internalType":"address"},{"name":"gToken","type":"address","internalType":"address"},{"name":"debtToken","type":"address","internalType":"address"},{"name":"reserveFactorBPS_","type":"uint256","internalType":"uint256"},{"name":"ltvBPS","type":"uint256","internalType":"uint256"},{"name":"liquidationThresholdBPS","type":"uint256","internalType":"uint256"},{"name":"liquidationBonusBPS","type":"uint256","internalType":"uint256"},{"name":"supplyCap","type":"uint256","internalType":"uint256"},{"name":"borrowCap","type":"uint256","internalType":"uint256"},{"name":"assetDecimals","type":"uint8","internalType":"uint8"}],"outputs":[],"stateMutability":"nonpayable"},{"type":"function","name":"interestRateModel","inputs":[],"outputs":[{"name":"","type":"address","internalType":"contract IInterestRateModel"}],"stateMutability":"view"},{"type":"function","name":"liquidate","inputs":[{"name":"collateralAsset","type":"address","internalType":"address"},{"name":"debtAsset","type":"address","internalType":"address"},{"name":"user","type":"address","internalType":"address"},{"name":"debtToCover","type":"uint256","internalType":"uint256"}],"outputs":[],"stateMutability":"nonpayable"},{"type":"function","name":"mintToTreasury","inputs":[{"name":"assets","type":"address[]","internalType":"address[]"}],"outputs":[],"stateMutability":"nonpayable"},{"type":"function","name":"oracle","inputs":[],"outputs":[{"name":"","type":"address","internalType":"contract IPriceOracle"}],"stateMutability":"view"},{"type":"function","name":"repay","inputs":[{"name":"asset","type":"address","internalType":"address"},{"name":"amount","type":"uint256","internalType":"uint256"}],"outputs":[{"name":"","type":"uint256","internalType":"uint256"}],"stateMutability":"nonpayable"},{"type":"function","name":"reservesList","inputs":[{"name":"","type":"uint256","internalType":"uint256"}],"outputs":[{"name":"","type":"address","internalType":"address"}],"stateMutability":"view"},{"type":"function","name":"setAdmin","inputs":[{"name":"_admin","type":"address","internalType":"address"}],"outputs":[],"stateMutability":"nonpayable"},{"type":"function","name":"setBorrowCap","inputs":[{"name":"asset","type":"address","internalType":"address"},{"name":"newCap","type":"uint256","internalType":"uint256"}],"outputs":[],"stateMutability":"nonpayable"},{"type":"function","name":"setBorrowingEnabled","inputs":[{"name":"asset","type":"address","internalType":"address"},{"name":"enabled","type":"bool","internalType":"bool"}],"outputs":[],"stateMutability":"nonpayable"},{"type":"function","name":"setOracle","inputs":[{"name":"_oracle","type":"address","internalType":"address"}],"outputs":[],"stateMutability":"nonpayable"},{"type":"function","name":"setReserveActive","inputs":[{"name":"asset","type":"address","internalType":"address"},{"name":"active","type":"bool","internalType":"bool"}],"outputs":[],"stateMutability":"nonpayable"},{"type":"function","name":"setReserveFactor","inputs":[{"name":"asset","type":"address","internalType":"address"},{"name":"newFactorBPS","type":"uint256","internalType":"uint256"}],"outputs":[],"stateMutability":"nonpayable"},{"type":"function","name":"setSupplyCap","inputs":[{"name":"asset","type":"address","internalType":"address"},{"name":"newCap","type":"uint256","internalType":"uint256"}],"outputs":[],"stateMutability":"nonpayable"},{"type":"function","name":"setTreasury","inputs":[{"name":"_treasury","type":"address","internalType":"address"}],"outputs":[],"stateMutability":"nonpayable"},{"type":"function","name":"supply","inputs":[{"name":"asset","type":"address","internalType":"address"},{"name":"amount","type":"uint256","internalType":"uint256"},{"name":"onBehalfOf","type":"address","internalType":"address"}],"outputs":[],"stateMutability":"nonpayable"},{"type":"function","name":"supply","inputs":[{"name":"asset","type":"address","internalType":"address"},{"name":"amount","type":"uint256","internalType":"uint256"}],"outputs":[],"stateMutability":"nonpayable"},{"type":"function","name":"treasury","inputs":[],"outputs":[{"name":"","type":"address","internalType":"address"}],"stateMutability":"view"},{"type":"function","name":"withdraw","inputs":[{"name":"asset","type":"address","internalType":"address"},{"name":"amount","type":"uint256","internalType":"uint256"},{"name":"to","type":"address","internalType":"address"}],"outputs":[{"name":"","type":"uint256","internalType":"uint256"}],"stateMutability":"nonpayable"},{"type":"function","name":"withdraw","inputs":[{"name":"asset","type":"address","internalType":"address"},{"name":"amount","type":"uint256","internalType":"uint256"}],"outputs":[{"name":"","type":"uint256","internalType":"uint256"}],"stateMutability":"nonpayable"},{"type":"event","name":"Borrow","inputs":[{"name":"asset","type":"address","indexed":true,"internalType":"address"},{"name":"user","type":"address","indexed":true,"internalType":"address"},{"name":"amount","type":"uint256","indexed":false,"internalType":"uint256"}],"anonymous":false},{"type":"event","name":"BorrowCapUpdated","inputs":[{"name":"asset","type":"address","indexed":true,"internalType":"address"},{"name":"oldCap","type":"uint256","indexed":false,"internalType":"uint256"},{"name":"newCap","type":"uint256","indexed":false,"internalType":"uint256"}],"anonymous":false},{"type":"event","name":"FlashLoan","inputs":[{"name":"asset","type":"address","indexed":true,"internalType":"address"},{"name":"receiver","type":"address","indexed":true,"internalType":"address"},{"name":"amount","type":"uint256","indexed":false,"internalType":"uint256"},{"name":"premium","type":"uint256","indexed":false,"internalType":"uint256"}],"anonymous":false},{"type":"event","name":"Liquidation","inputs":[{"name":"collateralAsset","type":"address","indexed":true,"internalType":"address"},{"name":"debtAsset","type":"address","indexed":true,"internalType":"address"},{"name":"user","type":"address","indexed":true,"internalType":"address"},{"name":"debtCovered","type":"uint256","indexed":false,"internalType":"uint256"},{"name":"collateralSeized","type":"uint256","indexed":false,"internalType":"uint256"},{"name":"liquidator","type":"address","indexed":false,"internalType":"address"}],"anonymous":false},{"type":"event","name":"Repay","inputs":[{"name":"asset","type":"address","indexed":true,"internalType":"address"},{"name":"user","type":"address","indexed":true,"internalType":"address"},{"name":"amount","type":"uint256","indexed":false,"internalType":"uint256"}],"anonymous":false},{"type":"event","name":"ReserveInitialized","inputs":[{"name":"asset","type":"address","indexed":true,"internalType":"address"},{"name":"gToken","type":"address","indexed":false,"internalType":"address"},{"name":"debtToken","type":"address","indexed":false,"internalType":"address"}],"anonymous":false},{"type":"event","name":"ReserveUpdated","inputs":[{"name":"asset","type":"address","indexed":true,"internalType":"address"},{"name":"liquidityIndex","type":"uint256","indexed":false,"internalType":"uint256"},{"name":"borrowIndex","type":"uint256","indexed":false,"internalType":"uint256"}],"anonymous":false},{"type":"event","name":"Supply","inputs":[{"name":"asset","type":"address","indexed":true,"internalType":"address"},{"name":"user","type":"address","indexed":true,"internalType":"address"},{"name":"amount","type":"uint256","indexed":false,"internalType":"uint256"}],"anonymous":false},{"type":"event","name":"SupplyCapUpdated","inputs":[{"name":"asset","type":"address","indexed":true,"internalType":"address"},{"name":"oldCap","type":"uint256","indexed":false,"internalType":"uint256"},{"name":"newCap","type":"uint256","indexed":false,"internalType":"uint256"}],"anonymous":false},{"type":"event","name":"TreasuryMint","inputs":[{"name":"asset","type":"address","indexed":true,"internalType":"address"},{"name":"amount","type":"uint256","indexed":false,"internalType":"uint256"}],"anonymous":false},{"type":"event","name":"Withdraw","inputs":[{"name":"asset","type":"address","indexed":true,"internalType":"address"},{"name":"user","type":"address","indexed":true,"internalType":"address"},{"name":"amount","type":"uint256","indexed":false,"internalType":"uint256"}],"anonymous":false},{"type":"error","name":"TransferFailed","inputs":[]}],"bytecode":{"object":"0x60803460bd57601f612b7f38819003918201601f19168301916001600160401b0383118484101760c15780849260809460405283398101031260bd5760428160d5565b90604d6020820160d5565b60616060605b6040850160d5565b930160d5565b600280546001600160a01b03199081166001600160a01b039687161790915560038054821693861693909317909255600480548316938516939093179092556005805490911691909216179055604051612a9690816100e98239f35b5f80fd5b634e487b7160e01b5f52604160045260245ffd5b51906001600160a01b038216820360bd5756fe60806040526004361015610011575f80fd5b5f5f3560e01c806322867d78146119ad57806335ea6a75146119295780634b4e6753146118905780634b8a3529146115f85780634fe7a6e5146115b4578063558bb3ac14611598578063571f03e5146114f057806361d027b3146114c757806369328dec1461149b578063704b6c021461144c57806372218d041461142e5780637303b22c1461140a5780637adbf973146113bd5780637dc0d1d0146113945780638b2a4df51461136b5780639cd19996146111dd578063aab3f86814610c31578063adf51de114610842578063b736aaeb146107ed578063bf92857c146107b6578063cb245e5b14610759578063d14a0983146106b1578063d2d2dbce146102ae578063d6feb98014610282578063f0f4426014610235578063f2b9fdb8146101f5578063f3fdb15a146101cc578063f3fef3a3146101845763f851a44014610159575f80fd5b346101815780600319360112610181576005546040516001600160a01b039091168152602090f35b80fd5b5034610181576040366003190112610181576020906101c06101a4611b7d565b6101b060065415611c54565b6001600655339060243590612620565b90600655604051908152f35b50346101815780600319360112610181576003546040516001600160a01b039091168152602090f35b50346101815760403660031901126101815761022e610212611b7d565b61021e60065415611c54565b6001600655339060243590612836565b8060065580f35b50346101815760203660031901126101815761024f611b7d565b61026460018060a01b03600554163314611da8565b60018060a01b03166001600160601b0360a01b600454161760045580f35b50346101815760203660031901126101815760206102a66102a1611b7d565b611fcb565b604051908152f35b503461018157610140366003190112610181576102c9611b7d565b6102d1611b93565b906102da611ba9565b916084359060a43560c435610124359160ff83168093036106ad5761030a60018060a01b03600554163314611da8565b6001600160a01b0386168852602088905260408820600890810154901c60ff1661065e578085116106275761271082106105f35760405193610220850185811067ffffffffffffffff8211176105df5760405260018060a01b03169687855260018060a01b03169485602086015260643560408601526060850152608084015260a083015260e43560c08301526101043560e083015261010082015260016101208201526001610140820152676765c793fa10079d601b1b610160820152676765c793fa10079d601b1b610180820152846101a0820152846101c082015264ffffffffff42166101e08201528461020082015260018060a01b038316855284602052600e610200604087209260018060a01b0360018060a01b03825116166001600160601b0360a01b85541617845560018060a01b03602082015116600185019060018060a01b03166001600160601b0360a01b82541617905560408101516002850155606081015160038501556080810151600485015560a0810151600585015560c0810151600685015560e081015160078501556104fb6008850160ff6101008401511660ff198254161781556104dd6101208401511515829061ff00825491151560081b169061ff001916179055565b610140830151815462ff0000191690151560101b62ff000016179055565b6101608101516009850155610180810151600a8501556101a0810151600b8501556101c0810151600c85015564ffffffffff6101e08201511664ffffffffff600d8601911664ffffffffff198254161790550151910155600154680100000000000000008110156105cb579160409161059b8460017f1d9fcd0dc935b4778d5af97f55c4d7b2553257382f1ef25c412114c8eeebd88e9601600155611bbf565b81546001600160a01b0394851660039290921b82811b95901b19169390931790558251948552602085015292a280f35b634e487b7160e01b85526041600452602485fd5b634e487b7160e01b8a52604160045260248afd5b60405162461bcd60e51b815260206004820152600c60248201526b426f6e7573203c203130302560a01b6044820152606490fd5b60405162461bcd60e51b815260206004820152600f60248201526e131515880f881d1a1c995cda1bdb19608a1b6044820152606490fd5b60405162461bcd60e51b815260206004820152602160248201527f476f6f644c656e64506f6f6c3a20616c726561647920696e697469616c697a656044820152601960fa1b6064820152608490fd5b8780fd5b5034610181576040366003190112610181576106cb611b7d565b7f73538f38b30f9237b0e95598cb3adba7d6c69a975fba0f00573473a13a6c81ab60406024359261070760018060a01b03600554163314611da8565b6001600160a01b0390811680865260208690528286205490949161072d91161515611e8f565b83855284602052600782862001549084865285602052806007848820015582519182526020820152a280f35b5034610181576107b361076b36611c25565b9061078160018060a01b03600554163314611da8565b6001600160a01b03168352602083905260408320600801805462ff0000191691151560101b62ff000016919091179055565b80f35b50346101815760203660031901126101815760606107da6107d5611b7d565b612422565b9060405192835260208301526040820152f35b5034610181576107b36107ff36611c25565b9061081560018060a01b03600554163314611da8565b60018060a01b0316835282602052600860408420019061ff00825491151560081b169061ff001916179055565b50346101815760803660031901126101815761085c611b7d565b60243590610868611ba9565b9160643567ffffffffffffffff8111610c2d5736602382011215610c2d5780600401359367ffffffffffffffff8511610c29573660248684010111610c29576108b360065415611c54565b600160065560018060a01b038416938487528660205260408720916108e160ff600885015460081c16611ca0565b84156108ed8115611cec565b60098602908682046009141715610c15576127109004938560208360018060a01b0387541661093060405194859384936323b872dd60e01b855260048501611d86565b03818d8c5af1908115610c0a578a91610beb575b5015610bdc57602060249160c48960018060a01b0386169b806040519687958694631b11d0ff60e01b865260048601528d828601528c604486015233606486015260a060848601528260a4860152018484013781810183018e9052601f01601f191681010301818c8c5af1908115610bd1578991610bb2575b5015610b5c5782546020906001600160a01b03166109db8688611df4565b926109fa60405194859384936323b872dd60e01b855260048501611d86565b03818b8a5af1908115610b51578891610b22575b5015610b1357610a3d6003840491610a268386611ee9565b92610a36600e8601918254611df4565b90556122eb565b9081151580610b0a575b610a86575b5050507f0d7d75e01ab95780d3cd1c8ec0dd6c2ce19e3a20427eec8bf53283b6fb8e95f09160409182519182526020820152a38060065580f35b676765c793fa10079d601b1b810290808204676765c793fa10079d601b1b1490151715610af65791610aec6009610ae2604096947f0d7d75e01ab95780d3cd1c8ec0dd6c2ce19e3a20427eec8bf53283b6fb8e95f09896611ef6565b9201918254611df4565b9055918193610a4c565b634e487b7160e01b88526011600452602488fd5b50801515610a47565b6312171d8360e31b8752600487fd5b610b44915060203d602011610b4a575b610b3c8183611d38565b810190611d6e565b5f610a0e565b503d610b32565b6040513d8a823e3d90fd5b60405162461bcd60e51b815260206004820152602860248201527f476f6f644c656e64506f6f6c3a20666c617368206c6f616e2063616c6c6261636044820152671ac819985a5b195960c21b6064820152608490fd5b610bcb915060203d602011610b4a57610b3c8183611d38565b5f6109bd565b6040513d8b823e3d90fd5b6312171d8360e31b8952600489fd5b610c04915060203d602011610b4a57610b3c8183611d38565b5f610944565b6040513d8c823e3d90fd5b634e487b7160e01b89526011600452602489fd5b8580fd5b8480fd5b503461018157608036600319011261018157610c4b611b7d565b610c53611b93565b90610c5c611ba9565b9060643591610c6d60065415611c54565b60016006558293610c7d83612039565b610c8681612039565b610c8f82612422565b505090676765c793fa10079d601b1b8210156111985760018060a01b03841693848852876020526040882060018060a01b03831696878a528960205260408a2090600a8201956b0311d253316c79d376000000610cee88548a89612189565b91106111915760011c80915b11611189575b50881561114457878a5260208a81526040808c20898d528c8352818d20600254925163b3596f0760e01b8152600481018d9052938e936001600160a01b03169085602481845afa948515611139578495611102575b5060208c60246040518094819363b3596f0760e01b835260048301525afa9384156110f657936110be575b50831515806110b5575b1561107057610dda60ff60088f610dd0610dc5610de097610dbf8686610db6610de59e61271098611e26565b93015416611e15565b90611ef6565b600587015490611e26565b0493015416611e15565b90611e26565b611ef6565b9460098301918a8a8d610dfa86548c8a612a02565b808b11611067575b5083546040516323b872dd60e01b8152936020938593909284928391610e3691906001600160a01b03163360048501611d86565b03925af190811561105c578d9161103d575b501561102e576001015490548b916001600160a01b0316803b1561102a57604051637a94c56560e11b81526001600160a01b038a166004820152602481018d9052604481019290925282908290606490829084905af1801561101f57611006575b5082549154916001600160a01b0316803b1561100257604051637a94c56560e11b81526001600160a01b038916600482015260248101889052604481019390935281908390606490829084905af1918215610ff5578692610fd8575b505090546040516323b872dd60e01b81529160209183918291610f37919033906001600160a01b031660048501611d86565b03818c8a5af1908115610bd1578991610fb9575b5015610faa5791610f887f1a98026bd2fd57ccb4933487f6d856fe1a60aa4605383cead00860edbe14b9f49492610f8360609561222c565b61222c565b604051968752602087015233604087015260018060a01b031694a48060065580f35b6312171d8360e31b8852600488fd5b610fd2915060203d602011610b4a57610b3c8183611d38565b5f610f4b565b81925090610fe591611d38565b610ff15783895f610f05565b8880fd5b50604051903d90823e3d90fd5b5080fd5b8161101091611d38565b61101b57895f610ea9565b8980fd5b6040513d84823e3d90fd5b8280fd5b6312171d8360e31b8c5260048cfd5b611056915060203d602011610b4a57610b3c8183611d38565b5f610e48565b6040513d8f823e3d90fd5b99506020610e02565b60405162461bcd60e51b815260206004820152601960248201527f476f6f644c656e64506f6f6c3a206f7261636c65206661696c000000000000006044820152606490fd5b50821515610d8a565b9092506020813d6020116110ee575b816110da60209383611d38565b810103126110ea5751915f610d80565b5f80fd5b3d91506110cd565b604051903d90823e3d90fd5b935093506020833d602011611131575b8161111f60209383611d38565b810103126110ea578d9251935f610d55565b3d9150611112565b6040513d86823e3d90fd5b60405162461bcd60e51b815260206004820152601e60248201527f476f6f644c656e64506f6f6c3a207a65726f206c69717569646174696f6e00006044820152606490fd5b98505f610d00565b8091610cfa565b60405162461bcd60e51b815260206004820152601e60248201527f476f6f644c656e64506f6f6c3a206e6f74206c6971756964617461626c6500006044820152606490fd5b50346101815760203660031901126101815760043567ffffffffffffffff8111611002573660238201121561100257806004013567ffffffffffffffff811161102a576024820191602436918360051b01011161102a57825b818110611241578380f35b61125c611257611252838587611fa7565b611fb7565b612039565b6001600160a01b03611272611252838587611fa7565b16845283602052604084209084600e8301928354938461129a575b5050506001915001611236565b82905580546004546009909201546001600160a01b039182169290911690823b156113675760405163b848f5b160e01b81526001600160a01b039290921660048301526024820186905260448201529082908290606490829084905af1801561101f57611352575b5060019290507f4a9f0bc4fa7e0e0d70aba96482e6e4dadf15298daff23a34b937566acd51b39360206001600160a01b0361134161125286898b611fa7565b1692604051908152a2845f8061128d565b8161135c91611d38565b610c2d57845f611302565b8380fd5b50346101815761022e61137d36611beb565b9161138a60065415611c54565b6001600655612836565b50346101815780600319360112610181576002546040516001600160a01b039091168152602090f35b5034610181576020366003190112610181576113d7611b7d565b6113ec60018060a01b03600554163314611da8565b60018060a01b03166001600160601b0360a01b600254161760025580f35b50346101815760203660031901126101815760206102a6611429611b7d565b611f14565b50346101815780600319360112610181576020600154604051908152f35b503461018157602036600319011261018157611466611b7d565b6005549061147e336001600160a01b03841614611da8565b6001600160a01b03166001600160a01b0319919091161760055580f35b5034610181576020906101c06114b036611beb565b916114bd60065415611c54565b6001600655612620565b50346101815780600319360112610181576004546040516001600160a01b039091168152602090f35b50346101815760403660031901126101815761150a611b7d565b7f6d14f44808ce024f263432bc38d019a9951fbe674e9898b54844dbc8dc09c23a60406024359261154660018060a01b03600554163314611da8565b6001600160a01b0390811680865260208690528286205490949161156c91161515611e8f565b83855284602052600682862001549084865285602052806006848820015582519182526020820152a280f35b5034610181578060031936011261018157602060405160098152f35b503461018157602036600319011261018157600435906001548210156101815760206115df83611bbf565b905460405160039290921b1c6001600160a01b03168152f35b503461018157604036600319011261018157611612611b7d565b6024359061162260065415611c54565b600160065560018060a01b03811690818452836020526040842060088101805460ff8160081c169081611882575b501561183d57611661851515611cec565b61166a83612039565b6007820154806117c9575b50506001810154600a82015486916001600160a01b0316803b1561102a57604051630ab714fb60e11b815233600482015260248101889052604481019290925290919081908390606490829084905af1918215610ff55786926117b0575b505090546040516323b872dd60e01b81529160209183918291611705919033906001600160a01b031660048501611d86565b038188875af19081156117a5578591611786575b50156117775761174490610f83676765c793fa10079d601b1b61173b33612422565b50501015611e39565b6040519182527f312a5e5e1079f5dda4e95dbbd0b908b291fd5b992ef22073643ab691572c5b5260203393a38060065580f35b6312171d8360e31b8452600484fd5b61179f915060203d602011610b4a57610b3c8183611d38565b5f611719565b6040513d87823e3d90fd5b819250906117bd91611d38565b610c2d5783855f6116d3565b6117ec90610dda60ff6117e4896117df89612385565b611df4565b945416611e15565b106117f8575f80611675565b60405162461bcd60e51b815260206004820152601860248201527f476f6f644c656e64506f6f6c3a20626f72726f772063617000000000000000006044820152606490fd5b60405162461bcd60e51b815260206004820152601d60248201527f476f6f644c656e64506f6f6c3a20626f72726f772064697361626c65640000006044820152606490fd5b60ff915060101c165f611650565b5034610181576040366003190112610181576118aa611b7d565b602435906118c360018060a01b03600554163314611da8565b61271082116118f7576107b3916118d982612039565b6001600160a01b03821684526020849052604084206002015561222c565b60405162461bcd60e51b815260206004820152600a6024820152693130b2103330b1ba37b960b11b6044820152606490fd5b50346101815760203660031901126101815760e0906040611948611b7d565b9160018060a01b03831681528060205220600981015490600a810154600c82015490600e600b84015493015493611987611981876122eb565b96612385565b604051968752602087015260408601526060850152608084015260a083015260c0820152f35b50346110ea5760403660031901126110ea576119c7611b7d565b602435916119d760065415611c54565b6001600655829160018060a01b03811690815f525f60205260405f20611a0660ff600883015460081c16611ca0565b611a0f82612039565b600a810195611a2087543385612189565b905f1914611b75575b611a34861515611cec565b808611611b6d575b5080546040516323b872dd60e01b81529060209082908190611a6d908a906001600160a01b03163360048501611d86565b03815f885af1908115611b34575f91611b4e575b5015611b3f57600101549454946001600160a01b0316803b156110ea57604051637a94c56560e11b81523360048201526024810186905260448101969096525f908690606490829084905af1948515611b3457602095611b1d575b50611ae69061222c565b604051908382527f05f2eeda0e08e4b437f487c8d7d29b14537d15e3488170dc3de5dbdf8dac4684853393a3600655604051908152f35b611b2a9193505f90611d38565b5f91611ae6611adc565b6040513d5f823e3d90fd5b6312171d8360e31b5f5260045ffd5b611b67915060203d602011610b4a57610b3c8183611d38565b5f611a81565b94505f611a3c565b945084611a29565b600435906001600160a01b03821682036110ea57565b602435906001600160a01b03821682036110ea57565b604435906001600160a01b03821682036110ea57565b600154811015611bd75760015f5260205f2001905f90565b634e487b7160e01b5f52603260045260245ffd5b60609060031901126110ea576004356001600160a01b03811681036110ea5790602435906044356001600160a01b03811681036110ea5790565b60409060031901126110ea576004356001600160a01b03811681036110ea579060243580151581036110ea5790565b15611c5b57565b60405162461bcd60e51b815260206004820152601760248201527f476f6f644c656e64506f6f6c3a207265656e7472616e740000000000000000006044820152606490fd5b15611ca757565b60405162461bcd60e51b815260206004820152601e60248201527f476f6f644c656e64506f6f6c3a207265736572766520696e61637469766500006044820152606490fd5b15611cf357565b60405162461bcd60e51b815260206004820152601960248201527f476f6f644c656e64506f6f6c3a207a65726f20616d6f756e74000000000000006044820152606490fd5b90601f8019910116810190811067ffffffffffffffff821117611d5a57604052565b634e487b7160e01b5f52604160045260245ffd5b908160209103126110ea575180151581036110ea5790565b6001600160a01b03918216815291166020820152604081019190915260600190565b15611daf57565b60405162461bcd60e51b815260206004820152601760248201527f476f6f644c656e64506f6f6c3a206e6f742061646d696e0000000000000000006044820152606490fd5b91908201809211611e0157565b634e487b7160e01b5f52601160045260245ffd5b60ff16604d8111611e0157600a0a90565b81810292918115918404141715611e0157565b15611e4057565b60405162461bcd60e51b815260206004820152602160248201527f476f6f644c656e64506f6f6c3a20756e646572636f6c6c61746572616c697a656044820152601960fa1b6064820152608490fd5b15611e9657565b60405162461bcd60e51b815260206004820152602560248201527f476f6f644c656e64506f6f6c3a2072657365727665206e6f7420696e697469616044820152641b1a5e995960da1b6064820152608490fd5b91908203918211611e0157565b8115611f00570490565b634e487b7160e01b5f52601260045260245ffd5b60018060a01b03165f525f60205260405f2060ff600882015460081c1615611f9757611f4b64ffffffffff600d8301541642611ee9565b908115611f8e57676765c793fa10079d601b1b611f8460096301e13380611f79611f8b96600c870154611e26565b049301549283611e26565b0490611df4565b90565b60099150015490565b50676765c793fa10079d601b1b90565b9190811015611bd75760051b0190565b356001600160a01b03811681036110ea5790565b60018060a01b03165f525f60205260405f2060ff600882015460081c1615611f975761200264ffffffffff600d8301541642611ee9565b90811561203057676765c793fa10079d601b1b611f84600a6301e13380611f79611f8b96600b870154611e26565b600a9150015490565b60018060a01b03811690815f525f60205260405f209060ff600883015460081c161561218457600d82019161207664ffffffffff84541642611ee9565b92831561217d577f6d129bd71f2401cbe77f49f546d7d5f58992faecfca6e51ba06b50b261e83331936120aa604094612385565b806120e0575b5050805464ffffffffff19164264ffffffffff161790556009810154600a919091015482519182526020820152a2565b81612710612137676765c793fa10079d601b1b61212b612153956301e1338061210e8199600b8d0154611e26565b0490600a8b01612124815486611f848683611e26565b9055611e26565b04600288015490611e26565b04612147600e8701918254611df4565b9055600c850154611e26565b046121746009840191676765c793fa10079d601b1b611f8484549283611e26565b90555f806120b0565b5050505050565b505050565b6001600160a01b039081165f9081526020818152604091829020600101549151630ed1279f60e11b815293831660048501529183916024918391165afa908115611b34575f916121ef575b50676765c793fa10079d601b1b916121eb91611e26565b0490565b90506020813d602011612224575b8161220a60209383611d38565b810103126110ea5751676765c793fa10079d601b1b6121d4565b3d91506121fd565b6001600160a01b0381165f81815260208190526040908190209192608461225b612255836122eb565b92612385565b9460018060a01b0360035416600286015485519788958694635789ca3b60e01b865260048601526024850152604484015260648301525afa918215611b34575f905f936122af575b50600b820155600c0155565b9250506040823d6040116122e3575b816122cb60409383611d38565b810103126110ea57815160209092015191600c6122a3565b3d91506122be565b60018060a01b03165f525f60205260405f206004602060018060a01b038354166040519283809263b1bf962d60e01b82525afa908115611b34575f91612348575b506121eb906009676765c793fa10079d601b1b93015490611e26565b90506020813d60201161237d575b8161236360209383611d38565b810103126110ea5751676765c793fa10079d601b1b61232c565b3d9150612356565b60018060a01b03165f525f60205260405f206004602060018060a01b036001840154166040519283809263b1bf962d60e01b82525afa908115611b34575f916123e5575b506121eb90600a676765c793fa10079d601b1b93015490611e26565b90506020813d60201161241a575b8161240060209383611d38565b810103126110ea5751676765c793fa10079d601b1b6123c9565b3d91506123f3565b5f905f905f905f9060015460018060a01b0360025416915b818410612487575050505081155f1461245357505f1992565b676765c793fa10079d601b1b810290808204676765c793fa10079d601b1b1490151715611e01578161248491611ef6565b92565b90919293949561249685611bbf565b60018060a01b0391549060031b1c1690815f525f60205260ff600860405f20015460081c16156126145760405163b3596f0760e01b81526004810183905290602082602481895afa918215611b34575f926125e1575b5081156125d3579161255f916001935f5f905f93855f525f60205260405f209061251587611f14565b8a61252a6125228a611fcb565b92828b612a02565b8061258c575b5090612540916125599899612189565b8061256a575b5050506125539192611df4565b9a611df4565b97611df4565b945b0192919061243a565b612553945060ff6008610db66125849594610dbf94611e26565b915f80612546565b61255998506125409295506125b69150836125a691611e26565b610dbf60ff600887015416611e15565b938b6127106125c9600487015488611e26565b0498509091612530565b979695905060019150612561565b9091506020813d821161260c575b816125fc60209383611d38565b810103126110ea5751905f6124ec565b3d91506125ef565b96959460019150612561565b6001600160a01b0381165f818152602081905260408120600880820154959695939493612650911c60ff16611ca0565b61265983612039565b60098101549061266a823386612a02565b5f19881461282e575b8715159081612823575b50156127de5780546001600160a01b0316803b156110ea57604051637a94c56560e11b81523360048201526024810189905260448101939093525f908390606490829084905af1908115611b3457879287926127c1575b50546040516323b872dd60e01b815292602092849283926127039290916001600160a01b031660048501611d86565b038185885af190811561101f5782916127a2575b5015612793575061274d90610f8361272e33612422565b5050676765c793fa10079d601b1b811090811591612788575b50611e39565b6040518381526001600160a01b03909216917f9b1bfa7fa9ee420a16e124f794c35ac9f90472acc99140eb2f6447c714cad8eb90602090a390565b5f191490505f612747565b6312171d8360e31b8152600490fd5b6127bb915060203d602011610b4a57610b3c8183611d38565b5f612717565b9093506127d192505f9150611d38565b846020855f9390916126d4565b60405162461bcd60e51b815260206004820152601860248201527f476f6f644c656e64506f6f6c3a2062616420616d6f756e7400000000000000006044820152606490fd5b90508711155f61267d565b965086612673565b91909160018060a01b03811691825f525f60205260405f20906008820161286360ff825460081c16611ca0565b61286e861515611cec565b61287784612039565b60068301548061299b575b505081546040516323b872dd60e01b815290602090829081906128b4908a906001600160a01b03163360048501611d86565b03815f895af1908115611b34575f9161297c575b5015611b3f578154600990920154916001600160a01b0316803b156110ea57604051630ab714fb60e11b81526001600160a01b03831660048201526024810187905260448101939093525f908390606490829084905af18015611b34577fd1cf3d156d5f8f0d50f6c122ed609cec09d35c9b9fb3fff6ea0959134dae424e936020936129599261296c575b5061222c565b6040519485526001600160a01b031693a3565b5f61297691611d38565b5f612953565b612995915060203d602011610b4a57610b3c8183611d38565b5f6128c8565b6129b190610dda60ff6117e48a6117df8a6122eb565b106129bd575f80612882565b60405162461bcd60e51b815260206004820152601860248201527f476f6f644c656e64506f6f6c3a20737570706c792063617000000000000000006044820152606490fd5b6001600160a01b039081165f9081526020818152604091829020549151630ed1279f60e11b815293831660048501529183916024918391165afa908115611b34575f916121ef5750676765c793fa10079d601b1b916121eb91611e2656fea2646970667358221220274b711c33f2bb1432d5cf08e3be0630ce8ce560fe8bde987df4d00cfb163dad64736f6c63430008210033","linkReferences":{}},"methodIdentifiers":{"FLASH_LOAN_PREMIUM_BPS()":"558bb3ac","admin()":"f851a440","borrow(address,uint256)":"4b8a3529","flashLoan(address,uint256,address,bytes)":"adf51de1","getBorrowIndex(address)":"d6feb980","getLiquidityIndex(address)":"7303b22c","getReserveData(address)":"35ea6a75","getReservesCount()":"72218d04","getUserAccountData(address)":"bf92857c","initReserve(address,address,address,uint256,uint256,uint256,uint256,uint256,uint256,uint8)":"d2d2dbce","interestRateModel()":"f3fdb15a","liquidate(address,address,address,uint256)":"aab3f868","mintToTreasury(address[])":"9cd19996","oracle()":"7dc0d1d0","repay(address,uint256)":"22867d78","reservesList(uint256)":"4fe7a6e5","setAdmin(address)":"704b6c02","setBorrowCap(address,uint256)":"d14a0983","setBorrowingEnabled(address,bool)":"cb245e5b","setOracle(address)":"7adbf973","setReserveActive(address,bool)":"b736aaeb","setReserveFactor(address,uint256)":"4b4e6753","setSupplyCap(address,uint256)":"571f03e5","setTreasury(address)":"f0f44260","supply(address,uint256)":"f2b9fdb8","supply(address,uint256,address)":"8b2a4df5","treasury()":"61d027b3","withdraw(address,uint256)":"f3fef3a3","withdraw(address,uint256,address)":"69328dec"},"id":25}