{"abi":[{"type":"constructor","inputs":[{"name":"_goodDollar","type":"address","internalType":"address"},{"name":"_treasury","type":"address","internalType":"address"},{"name":"_admin","type":"address","internalType":"address"}],"stateMutability":"nonpayable"},{"type":"function","name":"admin","inputs":[],"outputs":[{"name":"","type":"address","internalType":"address"}],"stateMutability":"view"},{"type":"function","name":"approveExpert","inputs":[{"name":"expert","type":"address","internalType":"address"}],"outputs":[],"stateMutability":"nonpayable"},{"type":"function","name":"approvedExperts","inputs":[{"name":"","type":"address","internalType":"address"}],"outputs":[{"name":"","type":"bool","internalType":"bool"}],"stateMutability":"view"},{"type":"function","name":"expertList","inputs":[{"name":"","type":"uint256","internalType":"uint256"}],"outputs":[{"name":"","type":"address","internalType":"address"}],"stateMutability":"view"},{"type":"function","name":"getExpert","inputs":[{"name":"index","type":"uint256","internalType":"uint256"}],"outputs":[{"name":"","type":"address","internalType":"address"}],"stateMutability":"view"},{"type":"function","name":"getExpertCount","inputs":[],"outputs":[{"name":"","type":"uint256","internalType":"uint256"}],"stateMutability":"view"},{"type":"function","name":"getMonthlyUBIEstimate","inputs":[],"outputs":[{"name":"","type":"uint256","internalType":"uint256"}],"stateMutability":"view"},{"type":"function","name":"getPredictUBIStats","inputs":[],"outputs":[{"name":"redemptionFees","type":"uint256","internalType":"uint256"},{"name":"bondSlashing","type":"uint256","internalType":"uint256"},{"name":"ubiFromRedemption","type":"uint256","internalType":"uint256"},{"name":"ubiFromBonds","type":"uint256","internalType":"uint256"},{"name":"totalUBI","type":"uint256","internalType":"uint256"}],"stateMutability":"view"},{"type":"function","name":"goodDollar","inputs":[],"outputs":[{"name":"","type":"address","internalType":"contract IGoodDollarToken"}],"stateMutability":"view"},{"type":"function","name":"isApprovedExpert","inputs":[{"name":"expert","type":"address","internalType":"address"}],"outputs":[{"name":"","type":"bool","internalType":"bool"}],"stateMutability":"view"},{"type":"function","name":"protocolBPS","inputs":[],"outputs":[{"name":"","type":"uint256","internalType":"uint256"}],"stateMutability":"view"},{"type":"function","name":"protocolTreasury","inputs":[],"outputs":[{"name":"","type":"address","internalType":"address"}],"stateMutability":"view"},{"type":"function","name":"removeExpert","inputs":[{"name":"expert","type":"address","internalType":"address"}],"outputs":[],"stateMutability":"nonpayable"},{"type":"function","name":"setFeeSplit","inputs":[{"name":"_ubiBPS","type":"uint256","internalType":"uint256"},{"name":"_protocolBPS","type":"uint256","internalType":"uint256"}],"outputs":[],"stateMutability":"nonpayable"},{"type":"function","name":"setGoodDollar","inputs":[{"name":"_goodDollar","type":"address","internalType":"address"}],"outputs":[],"stateMutability":"nonpayable"},{"type":"function","name":"setTreasury","inputs":[{"name":"_treasury","type":"address","internalType":"address"}],"outputs":[],"stateMutability":"nonpayable"},{"type":"function","name":"splitBondSlashing","inputs":[{"name":"totalFee","type":"uint256","internalType":"uint256"},{"name":"dAppRecipient","type":"address","internalType":"address"}],"outputs":[{"name":"ubiShare","type":"uint256","internalType":"uint256"},{"name":"protocolShare","type":"uint256","internalType":"uint256"},{"name":"dAppShare","type":"uint256","internalType":"uint256"}],"stateMutability":"nonpayable"},{"type":"function","name":"splitFee","inputs":[{"name":"totalFee","type":"uint256","internalType":"uint256"},{"name":"dAppRecipient","type":"address","internalType":"address"}],"outputs":[{"name":"ubiShare","type":"uint256","internalType":"uint256"},{"name":"protocolShare","type":"uint256","internalType":"uint256"},{"name":"dAppShare","type":"uint256","internalType":"uint256"}],"stateMutability":"nonpayable"},{"type":"function","name":"totalBondSlashing","inputs":[],"outputs":[{"name":"","type":"uint256","internalType":"uint256"}],"stateMutability":"view"},{"type":"function","name":"totalRedemptionFees","inputs":[],"outputs":[{"name":"","type":"uint256","internalType":"uint256"}],"stateMutability":"view"},{"type":"function","name":"totalUBIFromBonds","inputs":[],"outputs":[{"name":"","type":"uint256","internalType":"uint256"}],"stateMutability":"view"},{"type":"function","name":"totalUBIFromRedemption","inputs":[],"outputs":[{"name":"","type":"uint256","internalType":"uint256"}],"stateMutability":"view"},{"type":"function","name":"ubiBPS","inputs":[],"outputs":[{"name":"","type":"uint256","internalType":"uint256"}],"stateMutability":"view"},{"type":"event","name":"ExpertApproved","inputs":[{"name":"expert","type":"address","indexed":true,"internalType":"address"}],"anonymous":false},{"type":"event","name":"ExpertRemoved","inputs":[{"name":"expert","type":"address","indexed":true,"internalType":"address"}],"anonymous":false},{"type":"event","name":"FeeSplit","inputs":[{"name":"source","type":"address","indexed":true,"internalType":"address"},{"name":"feeType","type":"string","indexed":true,"internalType":"string"},{"name":"totalFee","type":"uint256","indexed":false,"internalType":"uint256"},{"name":"ubiShare","type":"uint256","indexed":false,"internalType":"uint256"},{"name":"protocolShare","type":"uint256","indexed":false,"internalType":"uint256"},{"name":"dAppShare","type":"uint256","indexed":false,"internalType":"uint256"}],"anonymous":false}],"bytecode":{"object":"0x60803460b357601f6110a238819003918201601f19168301916001600160401b0383118484101760b75780849260609460405283398101031260b35760428160cb565b906057604060516020840160cb565b920160cb565b60015f8190556107d060025561068360035580546001600160a01b039485166001600160a01b031991821617909155600480549385169382169390931790925560058054919093169116179055604051610fc390816100df8239f35b5f80fd5b634e487b7160e01b5f52604160045260245ffd5b51906001600160a01b038216820360b35756fe60806040526004361015610011575f80fd5b5f5f3560e01c80630bc1325414610d1a5780630f405af414610cfd578063119e5bf314610cd55780631995ad6514610cb85780632f59a5ce14610b6a57806364d6def914610877578063665218931461085957806370365be81461083b5780637ba43f31146107f45780637c393cfd146107d65780637e6335c714610759578063803db96d1461073057806380e62800146101a05780638555f285146104215780638ad9ad6e14610403578063a5a8b2be146103d8578063b2b16956146102d9578063b662cca1146102bb578063c7888a6d1461025d578063d79dbe3c146101df578063f03194ff146101a0578063f0f44260146101425763f851a44014610117575f80fd5b3461013f578060031936011261013f576005546040516001600160a01b039091168152602090f35b80fd5b503461013f57602036600319011261013f5761015c610d43565b61017160018060a01b03600554163314610da8565b6001600160a01b0316610185811515610f52565b6bffffffffffffffffffffffff60a01b600454161760045580f35b503461013f57602036600319011261013f5760209060ff906040906001600160a01b036101cb610d43565b168152600a84522054166040519015158152f35b503461013f57602036600319011261013f57600435600b5481101561022257610209602091610d6f565b905460405160039290921b1c6001600160a01b03168152f35b60405162461bcd60e51b8152602060048201526013602482015272696e646578206f7574206f6620626f756e647360681b6044820152606490fd5b503461013f57602036600319011261013f57610277610d43565b61028c60018060a01b03600554163314610da8565b6001600160a01b03166102a0811515610f52565b6bffffffffffffffffffffffff60a01b600154161760015580f35b503461013f578060031936011261013f576020600754604051908152f35b503461013f57602036600319011261013f576102f3610d43565b61030860018060a01b03600554163314610da8565b6001600160a01b0381169061031e821515610f52565b818352600a60205260ff60408420541615610337578280f35b818352600a60205260408320805460ff19166001179055600b54680100000000000000008110156103c4579061037682600161039a9401600b55610d6f565b81546001600160a01b0393841660039290921b91821b9390911b1916919091179055565b7f1e2e4f47a2429ad295cb700bd1138a366119700aaa1a35a2df97491db44eb7e48280a25f808280f35b634e487b7160e01b84526041600452602484fd5b503461013f57602036600319011261013f5760043590600b5482101561013f57602061020983610d6f565b503461013f578060031936011261013f576020600654604051908152f35b503461013f57604036600319011261013f5760043561043e610d59565b610449821515610ded565b61271061045860025484610e24565b049061271061046960035485610e24565b049261047e846104798584610de0565b610de0565b6001546040516323b872dd60e01b81523360048201523060248201526044810184905291939190602090829060649082908b906001600160a01b03165af180156106de576104d3918891610711575b50610e85565b60015486906001600160a01b0316803b1561070d578180916024604051809481936383adc2ff60e01b83528b60048401525af18015610702576106e9575b50506001546004805460405163a9059cbb60e01b81526001600160a01b0391821692810192909252602482018890529091602091839160449183918c91165af180156106de576105ad9261057086926020948b916106c1575b50610ec3565b60015460405163a9059cbb60e01b81526001600160a01b0392831660048201526024810193909352919384929091169082908a9082906044820190565b03925af19081156106b657906105cf9161068395969791610687575b50610f0f565b6105db81600754610d9b565b6007556105ea84600954610d9b565b600955604080516c626f6e645f736c617368696e6760981b90528051918252602082018590528101859052606081018290527fe28eecf7b426fd5fb11902ffb5077281e7748102d1336fe8a5d2e584fb3602729033907ff8f449ed6ff79644d8e4e873d43862bed27d3d68aca8a0b36c94de61645df71f90608090a3604051938493846040919493926060820195825260208201520152565b0390f35b6106a9915060203d6020116106af575b6106a18183610e37565b810190610e6d565b5f6105c9565b503d610697565b6040513d88823e3d90fd5b6106d89150853d87116106af576106a18183610e37565b5f61056a565b6040513d89823e3d90fd5b816106f391610e37565b6106fe57855f610511565b8580fd5b6040513d84823e3d90fd5b5080fd5b61072a915060203d6020116106af576106a18183610e37565b5f6104cd565b503461013f578060031936011261013f576004546040516001600160a01b039091168152602090f35b503461013f57604036600319011261013f576004356024359061078760018060a01b03600554163314610da8565b6127106107948383610d9b565b116107a25760025560035580f35b60405162461bcd60e51b815260206004820152600c60248201526b45786365656473203130302560a01b6044820152606490fd5b503461013f578060031936011261013f576020600354604051908152f35b503461013f578060031936011261013f5760a06006546007546008546009549061081e8282610d9b565b926040519485526020850152604084015260608301526080820152f35b503461013f578060031936011261013f576020600954604051908152f35b503461013f578060031936011261013f576020600254604051908152f35b5034610b21576040366003190112610b215760043590610895610d59565b60025f5414610b255760025f556108ad831515610ded565b6127106108bc60025485610e24565b04916127106108cd60035486610e24565b04936108dd856104798684610de0565b6001546040516323b872dd60e01b81523360048201523060248201526044810184905291949190602090829060649082905f906001600160a01b03165af18015610b1657610931915f916107115750610e85565b6001546001600160a01b0316803b15610b21575f80916024604051809481936383adc2ff60e01b83528b60048401525af18015610b1657610b01575b506001546004805460405163a9059cbb60e01b81526001600160a01b0391821692810192909252602482018990529091602091839160449183918991165af1908115610af657610a08926109cb602093889388916106c15750610ec3565b60015460405163a9059cbb60e01b81526001600160a01b039283166004820152602481019390935291938492909116908290879082906044820190565b03925af1908115610aeb5791610a2c84926001946106839796916106875750610f0f565b33610a51575b5055604051938493846040919493926060820195825260208201520152565b610a5d81600654610d9b565b600655610a6c86600854610d9b565b60085560408051693932b232b6b83a34b7b760b11b90528051918252602082018790528101879052606081018490527f847ba63e6bbb3e653c37db9bd3c246a577160e62eadcd79dc7eca0d96665213b9033907ff8f449ed6ff79644d8e4e873d43862bed27d3d68aca8a0b36c94de61645df71f90608090a35f610a32565b6040513d85823e3d90fd5b6040513d86823e3d90fd5b610b0e9193505f90610e37565b5f915f61096d565b6040513d5f823e3d90fd5b5f80fd5b60405162461bcd60e51b815260206004820152601f60248201527f5265656e7472616e637947756172643a207265656e7472616e742063616c6c006044820152606490fd5b34610b21576020366003190112610b2157610b83610d43565b610b9860018060a01b03600554163314610da8565b6001600160a01b03165f818152600a602052604090205460ff16610bb857005b5f818152600a60205260408120805460ff191690555b600b549081811015610cb15782610be482610d6f565b905460039190911b1c6001600160a01b031614610c05576001915001610bce565b5f198201918211610c9d57610376610c1f610c3793610d6f565b905460039190911b1c6001600160a01b031691610d6f565b600b548015610c89575f1901610c4c81610d6f565b81549060018060a01b039060031b1b19169055600b555b7f27a4344e9c4d07274a40fe7a3a5c3e0d8a92ad3b7ae833fc94efaa83158056ac5f80a2005b634e487b7160e01b5f52603160045260245ffd5b634e487b7160e01b5f52601160045260245ffd5b5050610c63565b34610b21575f366003190112610b21576020600854604051908152f35b34610b21575f366003190112610b21576001546040516001600160a01b039091168152602090f35b34610b21575f366003190112610b21576020600b54604051908152f35b34610b21575f366003190112610b21576020610d3b60085460095490610d9b565b604051908152f35b600435906001600160a01b0382168203610b2157565b602435906001600160a01b0382168203610b2157565b600b54811015610d8757600b5f5260205f2001905f90565b634e487b7160e01b5f52603260045260245ffd5b91908201809211610c9d57565b15610daf57565b60405162461bcd60e51b81526020600482015260096024820152682737ba1030b236b4b760b91b6044820152606490fd5b91908203918211610c9d57565b15610df457565b60405162461bcd60e51b81526020600482015260086024820152675a65726f2066656560c01b6044820152606490fd5b81810292918115918404141715610c9d57565b90601f8019910116810190811067ffffffffffffffff821117610e5957604052565b634e487b7160e01b5f52604160045260245ffd5b90816020910312610b2157518015158103610b215790565b15610e8c57565b60405162461bcd60e51b815260206004820152600f60248201526e1d1c985b9cd9995c8819985a5b1959608a1b6044820152606490fd5b15610eca57565b60405162461bcd60e51b815260206004820152601860248201527f7472656173757279207472616e73666572206661696c656400000000000000006044820152606490fd5b15610f1657565b60405162461bcd60e51b815260206004820152601460248201527319185c1c081d1c985b9cd9995c8819985a5b195960621b6044820152606490fd5b15610f5957565b60405162461bcd60e51b815260206004820152600c60248201526b7a65726f206164647265737360a01b6044820152606490fdfea2646970667358221220073d747ab1c172ec20bb7550a5e4097b7bfcaf6094b116b6cef6814f96897ef164736f6c63430008210033","linkReferences":{}},"methodIdentifiers":{"admin()":"f851a440","approveExpert(address)":"b2b16956","approvedExperts(address)":"f03194ff","expertList(uint256)":"a5a8b2be","getExpert(uint256)":"d79dbe3c","getExpertCount()":"0f405af4","getMonthlyUBIEstimate()":"0bc13254","getPredictUBIStats()":"7ba43f31","goodDollar()":"119e5bf3","isApprovedExpert(address)":"80e62800","protocolBPS()":"7c393cfd","protocolTreasury()":"803db96d","removeExpert(address)":"2f59a5ce","setFeeSplit(uint256,uint256)":"7e6335c7","setGoodDollar(address)":"c7888a6d","setTreasury(address)":"f0f44260","splitBondSlashing(uint256,address)":"8555f285","splitFee(uint256,address)":"64d6def9","totalBondSlashing()":"b662cca1","totalRedemptionFees()":"8ad9ad6e","totalUBIFromBonds()":"70365be8","totalUBIFromRedemption()":"1995ad65","ubiBPS()":"66521893"},"id":71}