{"abi":[{"type":"constructor","inputs":[{"name":"_goodDollar","type":"address","internalType":"address"},{"name":"_treasury","type":"address","internalType":"address"},{"name":"_admin","type":"address","internalType":"address"}],"stateMutability":"nonpayable"},{"type":"function","name":"admin","inputs":[],"outputs":[{"name":"","type":"address","internalType":"address"}],"stateMutability":"view"},{"type":"function","name":"approveExpert","inputs":[{"name":"expert","type":"address","internalType":"address"}],"outputs":[],"stateMutability":"nonpayable"},{"type":"function","name":"approvedExperts","inputs":[{"name":"","type":"address","internalType":"address"}],"outputs":[{"name":"","type":"bool","internalType":"bool"}],"stateMutability":"view"},{"type":"function","name":"expertList","inputs":[{"name":"","type":"uint256","internalType":"uint256"}],"outputs":[{"name":"","type":"address","internalType":"address"}],"stateMutability":"view"},{"type":"function","name":"getExpert","inputs":[{"name":"index","type":"uint256","internalType":"uint256"}],"outputs":[{"name":"","type":"address","internalType":"address"}],"stateMutability":"view"},{"type":"function","name":"getExpertCount","inputs":[],"outputs":[{"name":"","type":"uint256","internalType":"uint256"}],"stateMutability":"view"},{"type":"function","name":"getMonthlyUBIEstimate","inputs":[],"outputs":[{"name":"","type":"uint256","internalType":"uint256"}],"stateMutability":"view"},{"type":"function","name":"getPredictUBIStats","inputs":[],"outputs":[{"name":"redemptionFees","type":"uint256","internalType":"uint256"},{"name":"bondSlashing","type":"uint256","internalType":"uint256"},{"name":"ubiFromRedemption","type":"uint256","internalType":"uint256"},{"name":"ubiFromBonds","type":"uint256","internalType":"uint256"},{"name":"totalUBI","type":"uint256","internalType":"uint256"}],"stateMutability":"view"},{"type":"function","name":"goodDollar","inputs":[],"outputs":[{"name":"","type":"address","internalType":"contract IGoodDollarToken"}],"stateMutability":"view"},{"type":"function","name":"isApprovedExpert","inputs":[{"name":"expert","type":"address","internalType":"address"}],"outputs":[{"name":"","type":"bool","internalType":"bool"}],"stateMutability":"view"},{"type":"function","name":"protocolBPS","inputs":[],"outputs":[{"name":"","type":"uint256","internalType":"uint256"}],"stateMutability":"view"},{"type":"function","name":"protocolTreasury","inputs":[],"outputs":[{"name":"","type":"address","internalType":"address"}],"stateMutability":"view"},{"type":"function","name":"removeExpert","inputs":[{"name":"expert","type":"address","internalType":"address"}],"outputs":[],"stateMutability":"nonpayable"},{"type":"function","name":"setFeeSplit","inputs":[{"name":"_ubiBPS","type":"uint256","internalType":"uint256"},{"name":"_protocolBPS","type":"uint256","internalType":"uint256"}],"outputs":[],"stateMutability":"nonpayable"},{"type":"function","name":"setGoodDollar","inputs":[{"name":"_goodDollar","type":"address","internalType":"address"}],"outputs":[],"stateMutability":"nonpayable"},{"type":"function","name":"setTreasury","inputs":[{"name":"_treasury","type":"address","internalType":"address"}],"outputs":[],"stateMutability":"nonpayable"},{"type":"function","name":"splitBondSlashing","inputs":[{"name":"totalFee","type":"uint256","internalType":"uint256"},{"name":"dAppRecipient","type":"address","internalType":"address"}],"outputs":[{"name":"ubiShare","type":"uint256","internalType":"uint256"},{"name":"protocolShare","type":"uint256","internalType":"uint256"},{"name":"dAppShare","type":"uint256","internalType":"uint256"}],"stateMutability":"nonpayable"},{"type":"function","name":"splitFee","inputs":[{"name":"totalFee","type":"uint256","internalType":"uint256"},{"name":"dAppRecipient","type":"address","internalType":"address"}],"outputs":[{"name":"ubiShare","type":"uint256","internalType":"uint256"},{"name":"protocolShare","type":"uint256","internalType":"uint256"},{"name":"dAppShare","type":"uint256","internalType":"uint256"}],"stateMutability":"nonpayable"},{"type":"function","name":"totalBondSlashing","inputs":[],"outputs":[{"name":"","type":"uint256","internalType":"uint256"}],"stateMutability":"view"},{"type":"function","name":"totalRedemptionFees","inputs":[],"outputs":[{"name":"","type":"uint256","internalType":"uint256"}],"stateMutability":"view"},{"type":"function","name":"totalUBIFromBonds","inputs":[],"outputs":[{"name":"","type":"uint256","internalType":"uint256"}],"stateMutability":"view"},{"type":"function","name":"totalUBIFromRedemption","inputs":[],"outputs":[{"name":"","type":"uint256","internalType":"uint256"}],"stateMutability":"view"},{"type":"function","name":"ubiBPS","inputs":[],"outputs":[{"name":"","type":"uint256","internalType":"uint256"}],"stateMutability":"view"},{"type":"event","name":"ExpertApproved","inputs":[{"name":"expert","type":"address","indexed":true,"internalType":"address"}],"anonymous":false},{"type":"event","name":"ExpertRemoved","inputs":[{"name":"expert","type":"address","indexed":true,"internalType":"address"}],"anonymous":false},{"type":"event","name":"FeeSplit","inputs":[{"name":"source","type":"address","indexed":true,"internalType":"address"},{"name":"feeType","type":"string","indexed":true,"internalType":"string"},{"name":"totalFee","type":"uint256","indexed":false,"internalType":"uint256"},{"name":"ubiShare","type":"uint256","indexed":false,"internalType":"uint256"},{"name":"protocolShare","type":"uint256","indexed":false,"internalType":"uint256"},{"name":"dAppShare","type":"uint256","indexed":false,"internalType":"uint256"}],"anonymous":false}],"bytecode":{"object":"0x60803460ae57601f610fd938819003918201601f19168301916001600160401b0383118484101760b25780849260609460405283398101031260ae5760428160c6565b906057604060516020840160c6565b920160c6565b610d056001556106836002555f80546001600160a01b039485166001600160a01b031991821617909155600380549385169382169390931790925560048054919093169116179055604051610eff90816100da8239f35b5f80fd5b634e487b7160e01b5f52604160045260245ffd5b51906001600160a01b038216820360ae5756fe60806040526004361015610011575f80fd5b5f5f3560e01c80630bc1325414610c565780630f405af414610c39578063119e5bf314610c125780631995ad6514610bf55780632f59a5ce14610aa757806364d6def914610866578063665218931461084857806370365be81461082a5780637ba43f31146107e35780637c393cfd146107c55780637e6335c714610748578063803db96d1461071f57806380e62800146101a05780638555f285146104185780638ad9ad6e146103fa578063a5a8b2be146103cf578063b2b16956146102d0578063b662cca1146102b2578063c7888a6d1461025d578063d79dbe3c146101df578063f03194ff146101a0578063f0f44260146101425763f851a44014610117575f80fd5b3461013f578060031936011261013f576004546040516001600160a01b039091168152602090f35b80fd5b503461013f57602036600319011261013f5761015c610c7f565b61017160018060a01b03600454163314610ce4565b6001600160a01b0316610185811515610e8e565b6bffffffffffffffffffffffff60a01b600354161760035580f35b503461013f57602036600319011261013f5760209060ff906040906001600160a01b036101cb610c7f565b168152600984522054166040519015158152f35b503461013f57602036600319011261013f57600435600a5481101561022257610209602091610cab565b905460405160039290921b1c6001600160a01b03168152f35b60405162461bcd60e51b8152602060048201526013602482015272696e646578206f7574206f6620626f756e647360681b6044820152606490fd5b503461013f57602036600319011261013f57610277610c7f565b61028c60018060a01b03600454163314610ce4565b6001600160a01b03166102a0811515610e8e565b81546001600160a01b03191617815580f35b503461013f578060031936011261013f576020600654604051908152f35b503461013f57602036600319011261013f576102ea610c7f565b6102ff60018060a01b03600454163314610ce4565b6001600160a01b03811690610315821515610e8e565b818352600960205260ff6040842054161561032e578280f35b818352600960205260408320805460ff19166001179055600a54680100000000000000008110156103bb579061036d8260016103919401600a55610cab565b81546001600160a01b0393841660039290921b91821b9390911b1916919091179055565b7f1e2e4f47a2429ad295cb700bd1138a366119700aaa1a35a2df97491db44eb7e48280a25f808280f35b634e487b7160e01b84526041600452602484fd5b503461013f57602036600319011261013f5760043590600a5482101561013f57602061020983610cab565b503461013f578060031936011261013f576020600554604051908152f35b503461013f57604036600319011261013f57600435610435610c95565b610440821515610d29565b61271061044f60015484610d60565b049061271061046060025485610d60565b0492610475846104708584610d1c565b610d1c565b85546040516323b872dd60e01b81523360048201523060248201526044810184905291939190602090829060649082908b906001600160a01b03165af180156106cd576104c9918891610700575b50610dc1565b855486906001600160a01b0316803b156106fc578180916024604051809481936383adc2ff60e01b83528b60048401525af180156106f1576106d8575b5050855460035460405163a9059cbb60e01b81526001600160a01b0391821660048201526024810188905291602091839160449183918c91165af180156106cd5761059c9261056086926020948b916106b0575b50610dff565b885460405163a9059cbb60e01b81526001600160a01b0392831660048201526024810193909352919384929091169082908a9082906044820190565b03925af19081156106a557906105be9161067295969791610676575b50610e4b565b6105ca81600654610cd7565b6006556105d984600854610cd7565b600855604080516c626f6e645f736c617368696e6760981b90528051918252602082018590528101859052606081018290527fe28eecf7b426fd5fb11902ffb5077281e7748102d1336fe8a5d2e584fb3602729033907ff8f449ed6ff79644d8e4e873d43862bed27d3d68aca8a0b36c94de61645df71f90608090a3604051938493846040919493926060820195825260208201520152565b0390f35b610698915060203d60201161069e575b6106908183610d73565b810190610da9565b5f6105b8565b503d610686565b6040513d88823e3d90fd5b6106c79150853d871161069e576106908183610d73565b5f61055a565b6040513d89823e3d90fd5b816106e291610d73565b6106ed57855f610506565b8580fd5b6040513d84823e3d90fd5b5080fd5b610719915060203d60201161069e576106908183610d73565b5f6104c3565b503461013f578060031936011261013f576003546040516001600160a01b039091168152602090f35b503461013f57604036600319011261013f576004356024359061077660018060a01b03600454163314610ce4565b6127106107838383610cd7565b116107915760015560025580f35b60405162461bcd60e51b815260206004820152600c60248201526b45786365656473203130302560a01b6044820152606490fd5b503461013f578060031936011261013f576020600254604051908152f35b503461013f578060031936011261013f5760a06005546006546007546008549061080d8282610cd7565b926040519485526020850152604084015260608301526080820152f35b503461013f578060031936011261013f576020600854604051908152f35b503461013f578060031936011261013f576020600154604051908152f35b5034610aa3576040366003190112610aa357600435610883610c95565b61088e821515610d29565b61271061089d60015484610d60565b04906127106108ae60025485610d60565b04926108be846104708584610d1c565b5f80546040516323b872dd60e01b8152336004820152306024820152604481018590529294929160209183916064918391906001600160a01b03165af18015610a9857610911915f916107005750610dc1565b5f546001600160a01b0316803b15610aa3575f80916024604051809481936383adc2ff60e01b83528a60048401525af18015610a9857610a83575b50855460035460405163a9059cbb60e01b81526001600160a01b0391821660048201526024810188905291602091839160449183918c91165af180156106cd576109a49261056086926020948b916106b05750610dff565b03925af19081156106a557906109c591610672959697916106765750610e4b565b336109e9575b50604051938493846040919493926060820195825260208201520152565b6109f581600554610cd7565b600555610a0484600754610cd7565b60075560408051693932b232b6b83a34b7b760b11b90528051918252602082018590528101859052606081018290527f847ba63e6bbb3e653c37db9bd3c246a577160e62eadcd79dc7eca0d96665213b9033907ff8f449ed6ff79644d8e4e873d43862bed27d3d68aca8a0b36c94de61645df71f90608090a35f6109cb565b610a909196505f90610d73565b5f945f61094c565b6040513d5f823e3d90fd5b5f80fd5b34610aa3576020366003190112610aa357610ac0610c7f565b610ad560018060a01b03600454163314610ce4565b6001600160a01b03165f8181526009602052604090205460ff16610af557005b5f818152600960205260408120805460ff191690555b600a549081811015610bee5782610b2182610cab565b905460039190911b1c6001600160a01b031614610b42576001915001610b0b565b5f198201918211610bda5761036d610b5c610b7493610cab565b905460039190911b1c6001600160a01b031691610cab565b600a548015610bc6575f1901610b8981610cab565b81549060018060a01b039060031b1b19169055600a555b7f27a4344e9c4d07274a40fe7a3a5c3e0d8a92ad3b7ae833fc94efaa83158056ac5f80a2005b634e487b7160e01b5f52603160045260245ffd5b634e487b7160e01b5f52601160045260245ffd5b5050610ba0565b34610aa3575f366003190112610aa3576020600754604051908152f35b34610aa3575f366003190112610aa3575f546040516001600160a01b039091168152602090f35b34610aa3575f366003190112610aa3576020600a54604051908152f35b34610aa3575f366003190112610aa3576020610c7760075460085490610cd7565b604051908152f35b600435906001600160a01b0382168203610aa357565b602435906001600160a01b0382168203610aa357565b600a54811015610cc357600a5f5260205f2001905f90565b634e487b7160e01b5f52603260045260245ffd5b91908201809211610bda57565b15610ceb57565b60405162461bcd60e51b81526020600482015260096024820152682737ba1030b236b4b760b91b6044820152606490fd5b91908203918211610bda57565b15610d3057565b60405162461bcd60e51b81526020600482015260086024820152675a65726f2066656560c01b6044820152606490fd5b81810292918115918404141715610bda57565b90601f8019910116810190811067ffffffffffffffff821117610d9557604052565b634e487b7160e01b5f52604160045260245ffd5b90816020910312610aa357518015158103610aa35790565b15610dc857565b60405162461bcd60e51b815260206004820152600f60248201526e1d1c985b9cd9995c8819985a5b1959608a1b6044820152606490fd5b15610e0657565b60405162461bcd60e51b815260206004820152601860248201527f7472656173757279207472616e73666572206661696c656400000000000000006044820152606490fd5b15610e5257565b60405162461bcd60e51b815260206004820152601460248201527319185c1c081d1c985b9cd9995c8819985a5b195960621b6044820152606490fd5b15610e9557565b60405162461bcd60e51b815260206004820152600c60248201526b7a65726f206164647265737360a01b6044820152606490fdfea26469706673582212202269f82273a82e07ef7964ec307a39252288b10d5f198b473a876e326733ebcf64736f6c63430008210033","linkReferences":{}},"methodIdentifiers":{"admin()":"f851a440","approveExpert(address)":"b2b16956","approvedExperts(address)":"f03194ff","expertList(uint256)":"a5a8b2be","getExpert(uint256)":"d79dbe3c","getExpertCount()":"0f405af4","getMonthlyUBIEstimate()":"0bc13254","getPredictUBIStats()":"7ba43f31","goodDollar()":"119e5bf3","isApprovedExpert(address)":"80e62800","protocolBPS()":"7c393cfd","protocolTreasury()":"803db96d","removeExpert(address)":"2f59a5ce","setFeeSplit(uint256,uint256)":"7e6335c7","setGoodDollar(address)":"c7888a6d","setTreasury(address)":"f0f44260","splitBondSlashing(uint256,address)":"8555f285","splitFee(uint256,address)":"64d6def9","totalBondSlashing()":"b662cca1","totalRedemptionFees()":"8ad9ad6e","totalUBIFromBonds()":"70365be8","totalUBIFromRedemption()":"1995ad65","ubiBPS()":"66521893"},"id":6}