{"abi":[{"type":"constructor","inputs":[{"name":"_router","type":"address","internalType":"address"},{"name":"_owner","type":"address","internalType":"address"}],"stateMutability":"nonpayable"},{"type":"function","name":"MAX_ORDERS_PER_USER","inputs":[],"outputs":[{"name":"","type":"uint256","internalType":"uint256"}],"stateMutability":"view"},{"type":"function","name":"batchFill","inputs":[{"name":"orderIds","type":"uint256[]","internalType":"uint256[]"},{"name":"fillAmounts","type":"uint256[]","internalType":"uint256[]"}],"outputs":[],"stateMutability":"nonpayable"},{"type":"function","name":"cancelOrder","inputs":[{"name":"orderId","type":"uint256","internalType":"uint256"}],"outputs":[],"stateMutability":"nonpayable"},{"type":"function","name":"fillOrder","inputs":[{"name":"orderId","type":"uint256","internalType":"uint256"},{"name":"fillAmount","type":"uint256","internalType":"uint256"}],"outputs":[],"stateMutability":"nonpayable"},{"type":"function","name":"getActiveOrders","inputs":[{"name":"user","type":"address","internalType":"address"}],"outputs":[{"name":"activeIds","type":"uint256[]","internalType":"uint256[]"}],"stateMutability":"view"},{"type":"function","name":"getOrder","inputs":[{"name":"orderId","type":"uint256","internalType":"uint256"}],"outputs":[{"name":"orderOwner","type":"address","internalType":"address"},{"name":"tokenIn","type":"address","internalType":"address"},{"name":"tokenOut","type":"address","internalType":"address"},{"name":"amountIn","type":"uint256","internalType":"uint256"},{"name":"amountFilled","type":"uint256","internalType":"uint256"},{"name":"targetPrice","type":"uint256","internalType":"uint256"},{"name":"expiry","type":"uint256","internalType":"uint256"},{"name":"status","type":"uint8","internalType":"enum LimitOrderBook.OrderStatus"}],"stateMutability":"view"},{"type":"function","name":"getUserOrders","inputs":[{"name":"user","type":"address","internalType":"address"}],"outputs":[{"name":"","type":"uint256[]","internalType":"uint256[]"}],"stateMutability":"view"},{"type":"function","name":"isFillable","inputs":[{"name":"orderId","type":"uint256","internalType":"uint256"}],"outputs":[{"name":"","type":"bool","internalType":"bool"}],"stateMutability":"view"},{"type":"function","name":"keeperFeeBps","inputs":[],"outputs":[{"name":"","type":"uint256","internalType":"uint256"}],"stateMutability":"view"},{"type":"function","name":"nextOrderId","inputs":[],"outputs":[{"name":"","type":"uint256","internalType":"uint256"}],"stateMutability":"view"},{"type":"function","name":"orders","inputs":[{"name":"","type":"uint256","internalType":"uint256"}],"outputs":[{"name":"owner","type":"address","internalType":"address"},{"name":"tokenIn","type":"address","internalType":"address"},{"name":"tokenOut","type":"address","internalType":"address"},{"name":"amountIn","type":"uint256","internalType":"uint256"},{"name":"amountFilled","type":"uint256","internalType":"uint256"},{"name":"targetPrice","type":"uint256","internalType":"uint256"},{"name":"expiry","type":"uint256","internalType":"uint256"},{"name":"status","type":"uint8","internalType":"enum LimitOrderBook.OrderStatus"}],"stateMutability":"view"},{"type":"function","name":"owner","inputs":[],"outputs":[{"name":"","type":"address","internalType":"address"}],"stateMutability":"view"},{"type":"function","name":"placeOrder","inputs":[{"name":"tokenIn","type":"address","internalType":"address"},{"name":"tokenOut","type":"address","internalType":"address"},{"name":"amountIn","type":"uint256","internalType":"uint256"},{"name":"targetPrice","type":"uint256","internalType":"uint256"},{"name":"expiry","type":"uint256","internalType":"uint256"}],"outputs":[{"name":"orderId","type":"uint256","internalType":"uint256"}],"stateMutability":"nonpayable"},{"type":"function","name":"router","inputs":[],"outputs":[{"name":"","type":"address","internalType":"address"}],"stateMutability":"view"},{"type":"function","name":"setKeeperFeeBps","inputs":[{"name":"_bps","type":"uint256","internalType":"uint256"}],"outputs":[],"stateMutability":"nonpayable"},{"type":"function","name":"setRouter","inputs":[{"name":"_router","type":"address","internalType":"address"}],"outputs":[],"stateMutability":"nonpayable"},{"type":"function","name":"transferOwnership","inputs":[{"name":"newOwner","type":"address","internalType":"address"}],"outputs":[],"stateMutability":"nonpayable"},{"type":"function","name":"userOrders","inputs":[{"name":"","type":"address","internalType":"address"},{"name":"","type":"uint256","internalType":"uint256"}],"outputs":[{"name":"","type":"uint256","internalType":"uint256"}],"stateMutability":"view"},{"type":"event","name":"OrderCancelled","inputs":[{"name":"orderId","type":"uint256","indexed":true,"internalType":"uint256"}],"anonymous":false},{"type":"event","name":"OrderExpired","inputs":[{"name":"orderId","type":"uint256","indexed":true,"internalType":"uint256"}],"anonymous":false},{"type":"event","name":"OrderFilled","inputs":[{"name":"orderId","type":"uint256","indexed":true,"internalType":"uint256"},{"name":"keeper","type":"address","indexed":true,"internalType":"address"},{"name":"amountIn","type":"uint256","indexed":false,"internalType":"uint256"},{"name":"amountOut","type":"uint256","indexed":false,"internalType":"uint256"},{"name":"keeperReward","type":"uint256","indexed":false,"internalType":"uint256"}],"anonymous":false},{"type":"event","name":"OrderPlaced","inputs":[{"name":"orderId","type":"uint256","indexed":true,"internalType":"uint256"},{"name":"owner","type":"address","indexed":true,"internalType":"address"},{"name":"tokenIn","type":"address","indexed":false,"internalType":"address"},{"name":"tokenOut","type":"address","indexed":false,"internalType":"address"},{"name":"amountIn","type":"uint256","indexed":false,"internalType":"uint256"},{"name":"targetPrice","type":"uint256","indexed":false,"internalType":"uint256"},{"name":"expiry","type":"uint256","indexed":false,"internalType":"uint256"}],"anonymous":false},{"type":"error","name":"InvalidFee","inputs":[]},{"type":"error","name":"LengthMismatch","inputs":[]},{"type":"error","name":"NotOrderOwner","inputs":[]},{"type":"error","name":"NotOwner","inputs":[]},{"type":"error","name":"OrderExpiredErr","inputs":[]},{"type":"error","name":"OrderNotActive","inputs":[]},{"type":"error","name":"PriceNotMet","inputs":[]},{"type":"error","name":"Reentrancy","inputs":[]},{"type":"error","name":"TooManyOrders","inputs":[]},{"type":"error","name":"TransferFailed","inputs":[]},{"type":"error","name":"ZeroAddress","inputs":[]},{"type":"error","name":"ZeroAmount","inputs":[]},{"type":"error","name":"ZeroPriceNotAllowed","inputs":[]}],"bytecode":{"object":"0x60803460bd57601f61136638819003918201601f19168301916001600160401b0383118484101760c157808492604094855283398101031260bd57604b602060458360d5565b920160d5565b600580556001600655906001600160a01b03168015801560ad575b609e5760018060a01b0319600154161760015560018060a01b031660018060a01b03195f5416175f5560405161127d90816100e98239f35b63d92e233d60e01b5f5260045ffd5b506001600160a01b038216156066565b5f80fd5b634e487b7160e01b5f52604160045260245ffd5b51906001600160a01b038216820360bd5756fe6080806040526004361015610012575f80fd5b5f3560e01c9081630eab7d6314610a8e575080632a58b33014610a715780632e16451e1461099b57806332e3cff11461095957806337b09990146109315780633cedc5a51461066d578063514fcac71461051f5780635485b1581461050457806363c69f0814610486578063856652e91461042e5780638da5cb5b14610407578063a85c38ef14610177578063c0d78655146103b2578063c37dfc5b1461036e578063c53a490a146101ed578063d09ef24114610177578063f2fde38b1461010e5763f887ea40146100e2575f80fd5b3461010a575f36600319011261010a576001546040516001600160a01b039091168152602090f35b5f80fd5b3461010a57602036600319011261010a57610127610ad9565b5f54906001600160a01b0382163303610168576001600160a01b0316908115610159576001600160a01b031916175f55005b63d92e233d60e01b5f5260045ffd5b6330cd747160e01b5f5260045ffd5b3461010a57602036600319011261010a576004355f52600360205260405f2060018060a01b038154166101e960018060a01b036001840154169260018060a01b03600282015416906003810154600482015460058301549160ff60076006860154950154169460405198899889610b51565b0390f35b3461010a57602036600319011261010a576001600160a01b0361020e610ad9565b165f52600460205260405f20604051808260208294549384815201905f5260205f20925f5b81811061035557505061024892500382610bb5565b5f905f5b81518110156102b15761025f8183610d8d565b515f52600360205260ff600760405f20015416600481101561029d5715610289575b60010161024c565b91610295600191610d67565b929050610281565b634e487b7160e01b5f52602160045260245ffd5b50906102bc81610d75565b906102ca6040519283610bb5565b8082526102d9601f1991610d75565b013660208301375f905f5b8351811015610347576102f78185610d8d565b515f52600360205260ff600760405f2001541690600482101561029d5760019115610323575b016102e4565b61032d8186610d8d565b5161034161033a86610d67565b9585610d8d565b5261031d565b604051806101e98482610aef565b8454835260019485019486945060209093019201610233565b3461010a57604036600319011261010a576001600654036103a357600260065561039c602435600435610da1565b6001600655005b63558a1e0360e11b5f5260045ffd5b3461010a57602036600319011261010a576103cb610ad9565b5f546001600160a01b03163303610168576001600160a01b03168015610159576bffffffffffffffffffffffff60a01b60015416176001555f80f35b3461010a575f36600319011261010a575f546040516001600160a01b039091168152602090f35b3461010a57604036600319011261010a57610447610ad9565b6001600160a01b03165f9081526004602052604090208054602435919082101561010a5760209161047791610b28565b90549060031b1c604051908152f35b3461010a57602036600319011261010a576001600160a01b036104a7610ad9565b165f52600460205260405f206040519081602082549182815201915f5260205f20905f5b8181106104ee576101e9856104e281870382610bb5565b60405191829182610aef565b82548452602090930192600192830192016104cb565b3461010a575f36600319011261010a57602060405160648152f35b3461010a57602036600319011261010a576004355f81815260036020526040902080546001600160a01b0316330361065e576007810160ff815416600481101561029d5761064f57805460ff191660021790556003810154600482015461058591610bd7565b806105b2575b827f61b9399f2f0f32ca39ce8d7be32caed5ec22fe07a6daba3a467ed479ec6065825f80a2005b6001919091015460405163a9059cbb60e01b81523360048201526024810192909252602090829060449082905f906001600160a01b03165af1908115610644575f91610615575b501561060657818061058b565b6312171d8360e31b5f5260045ffd5b610637915060203d60201161063d575b61062f8183610bb5565b810190610d4f565b826105f9565b503d610625565b6040513d5f823e3d90fd5b631d4ecc5b60e01b5f5260045ffd5b637b2095ad60e11b5f5260045ffd5b3461010a5760a036600319011261010a57610686610ad9565b6024356001600160a01b038116919082900361010a576044359060643590608435908315610922576001600160a01b0316918215801561091a575b61015957801561090b5781151580610901575b6108f257335f526004602052606460405f205410156108e3576040516323b872dd60e01b8152336004820152306024820152604481018590526020816064815f885af1908115610644575f916108c4575b5015610606576002549361073885610d67565b600255604051610100810181811067ffffffffffffffff8211176108b057604090815233825260208083018781528383018a8152606085018681525f6080870181815260a088018a815260c089018c815260e08a018481528f855260039889905298909320985189546001600160a01b03199081166001600160a01b03928316178b55965160018b0180548916918316919091179055945160028a018054909716951694909417909455905193860193909355905160048086019190915590516005850155905160068401559051600792909201919081101561029d5760ff80198354169116179055335f52600460205260405f2095865496680100000000000000008810156108b0578761085491600160209a018155610b28565b81549060031b9088821b915f19901b191617905560405194855286850152604084015260608301526080820152817f755d2c8cac50ab8bfedf1ea6325a96e66df1b9030d4992906e0d8446dddfb3ab60a03393a3604051908152f35b634e487b7160e01b5f52604160045260245ffd5b6108dd915060203d60201161063d5761062f8183610bb5565b86610725565b633943900360e01b5f5260045ffd5b631666f4d360e21b5f5260045ffd5b50428211156106d4565b63a2b326dd60e01b5f5260045ffd5b5084156106c1565b631f2a200560e01b5f5260045ffd5b3461010a57602036600319011261010a57602061094f600435610c29565b6040519015158152f35b3461010a57602036600319011261010a575f54600435906001600160a01b03163303610168576064811161098c57600555005b6358d620b360e01b5f5260045ffd5b3461010a57604036600319011261010a5760043567ffffffffffffffff811161010a576109cc903690600401610aa8565b60243567ffffffffffffffff811161010a576109ec903690600401610aa8565b919092828203610a62575f5b828110610a0157005b610a0c818484610ba5565b3590610a19818688610ba5565b3591303b1561010a576001926040519163c37dfc5b60e01b8352600483015260248201525f8160448183305af1610a52575b50016109f8565b5f610a5c91610bb5565b86610a4b565b631fec674760e31b5f5260045ffd5b3461010a575f36600319011261010a576020600254604051908152f35b3461010a575f36600319011261010a576020906005548152f35b9181601f8401121561010a5782359167ffffffffffffffff831161010a576020808501948460051b01011161010a57565b600435906001600160a01b038216820361010a57565b60206040818301928281528451809452019201905f5b818110610b125750505090565b8251845260209384019390920191600101610b05565b8054821015610b3d575f5260205f2001905f90565b634e487b7160e01b5f52603260045260245ffd5b6001600160a01b039182168152918116602083015290911660408201526060810191909152608081019190915260a081019190915260c08101919091526101008101929190600482101561029d5760e00152565b9190811015610b3d5760051b0190565b90601f8019910116810190811067ffffffffffffffff8211176108b057604052565b91908203918211610be457565b634e487b7160e01b5f52601160045260245ffd5b81810292918115918404141715610be457565b8115610c15570490565b634e487b7160e01b5f52601260045260245ffd5b5f52600360205260405f2060ff600782015416600481101561029d57610d405760068101548015159081610d45575b50610d4057610c706003820154600483015490610bd7565b8015610d3a5760018054908301546002840154604051635e1e632560e01b8152600481018590526001600160a01b03928316602482015290821660448201529160209183916064918391165afa5f9181610d06575b50610cd1575050505f90565b670de0b6b3a7640000810290808204670de0b6b3a76400001490151715610be457600591610cfe91610c0b565b910154111590565b9091506020813d602011610d32575b81610d2260209383610bb5565b8101031261010a5751905f610cc5565b3d9150610d15565b50505f90565b505f90565b905042115f610c58565b9081602091031261010a5751801515810361010a5790565b5f198114610be45760010190565b67ffffffffffffffff81116108b05760051b60200190565b8051821015610b3d5760209160051b010190565b805f52600360205260405f206007810160ff815416600481101561029d5761064f576006820154801515908161123d575b5061117757600382015460048301805490610ded8284610bd7565b80881161116f575b50861561092257868201809211610be457819055101561115e575b5060018181018054915460405163095ea7b360e01b81526001600160a01b03918216600482015260248101879052919392602091839160449183915f91165af1908115610644575f9161113f575b50156106065760405191610e73606084610bb5565b60028352602083019060403683375483516001600160a01b039091169015610b3d578152600282019060018060a01b03825416845160011015610b3d5760408501526005830193670de0b6b3a7640000610ece865489610bf8565b0460018060a01b0360015416926040519160208301936338ed173960e01b855260c48401918b6024860152604485015260a060648501525180915260e4830191905f5b81811061112057505050915f82610f4082969483963060848301524260a483015203601f198101835282610bb5565b51925af13d15611118573d9067ffffffffffffffff82116108b05760405191610f73601f8201601f191660200184610bb5565b82523d5f602084013e5b15611109576020815191818082019384920101031261010a575192670de0b6b3a76400008402848104670de0b6b3a76400001485151715610be45786610fc291610c0b565b905411611109576110276020610fe8612710610fe060055488610bf8565b048096610bd7565b8354945460405163a9059cbb60e01b81526001600160a01b039182166004820152602481018390529195919384929091169082905f9082906044820190565b03925af1908115610644575f916110ea575b5015610606578261107e575b50604051938452602084015260408301527fa8f65fd2b9fdbcd24985d57d69c219e28bdb4d78ce4e83a5049ee8237d09310a60603393a3565b5460405163a9059cbb60e01b81523360048201526024810184905290602090829060449082905f906001600160a01b03165af1908115610644575f916110cb575b5015610606575f611045565b6110e4915060203d60201161063d5761062f8183610bb5565b5f6110bf565b611103915060203d60201161063d5761062f8183610bb5565b5f611039565b6351616ae360e11b5f5260045ffd5b606090610f7d565b82516001600160a01b0316845260209384019390920191600101610f11565b611158915060203d60201161063d5761062f8183610bb5565b5f610e5e565b805460ff191660011790555f610e10565b96505f610df5565b90919250600360ff198254161790556111996003820154600483015490610bd7565b90816111c8575b50507f1ad308dc7017610c82d08084545f7176df5e2f08f078c3c8f8926cd7e55555145f80a2565b6001810154905460405163a9059cbb60e01b81526001600160a01b0391821660048201526024810193909352602091839160449183915f91165af1908115610644575f9161121e575b5015610606575f806111a0565b611237915060203d60201161063d5761062f8183610bb5565b5f611211565b905042115f610dd256fea26469706673582212202241e7bdf9f0200b23172150b49bbd261c27d4187b6ee53af02f3e7a807bf77a64736f6c63430008210033","linkReferences":{}},"methodIdentifiers":{"MAX_ORDERS_PER_USER()":"5485b158","batchFill(uint256[],uint256[])":"2e16451e","cancelOrder(uint256)":"514fcac7","fillOrder(uint256,uint256)":"c37dfc5b","getActiveOrders(address)":"c53a490a","getOrder(uint256)":"d09ef241","getUserOrders(address)":"63c69f08","isFillable(uint256)":"37b09990","keeperFeeBps()":"0eab7d63","nextOrderId()":"2a58b330","orders(uint256)":"a85c38ef","owner()":"8da5cb5b","placeOrder(address,address,uint256,uint256,uint256)":"3cedc5a5","router()":"f887ea40","setKeeperFeeBps(uint256)":"32e3cff1","setRouter(address)":"c0d78655","transferOwnership(address)":"f2fde38b","userOrders(address,uint256)":"856652e9"},"id":49}