{"abi":[{"type":"constructor","inputs":[{"name":"_veGD","type":"address","internalType":"address"},{"name":"_guardian","type":"address","internalType":"address"}],"stateMutability":"nonpayable"},{"type":"receive","stateMutability":"payable"},{"type":"function","name":"EXECUTION_WINDOW","inputs":[],"outputs":[{"name":"","type":"uint256","internalType":"uint256"}],"stateMutability":"view"},{"type":"function","name":"PROPOSAL_THRESHOLD_BPS","inputs":[],"outputs":[{"name":"","type":"uint256","internalType":"uint256"}],"stateMutability":"view"},{"type":"function","name":"QUORUM_BPS","inputs":[],"outputs":[{"name":"","type":"uint256","internalType":"uint256"}],"stateMutability":"view"},{"type":"function","name":"TIMELOCK_DELAY","inputs":[],"outputs":[{"name":"","type":"uint256","internalType":"uint256"}],"stateMutability":"view"},{"type":"function","name":"VOTING_DELAY","inputs":[],"outputs":[{"name":"","type":"uint256","internalType":"uint256"}],"stateMutability":"view"},{"type":"function","name":"VOTING_PERIOD","inputs":[],"outputs":[{"name":"","type":"uint256","internalType":"uint256"}],"stateMutability":"view"},{"type":"function","name":"cancel","inputs":[{"name":"proposalId","type":"uint256","internalType":"uint256"}],"outputs":[],"stateMutability":"nonpayable"},{"type":"function","name":"castVote","inputs":[{"name":"proposalId","type":"uint256","internalType":"uint256"},{"name":"support","type":"uint8","internalType":"enum GoodDAO.VoteType"}],"outputs":[{"name":"","type":"uint256","internalType":"uint256"}],"stateMutability":"nonpayable"},{"type":"function","name":"execute","inputs":[{"name":"proposalId","type":"uint256","internalType":"uint256"}],"outputs":[],"stateMutability":"nonpayable"},{"type":"function","name":"getProposalCalldatas","inputs":[{"name":"proposalId","type":"uint256","internalType":"uint256"}],"outputs":[{"name":"","type":"bytes[]","internalType":"bytes[]"}],"stateMutability":"view"},{"type":"function","name":"getProposalTargets","inputs":[{"name":"proposalId","type":"uint256","internalType":"uint256"}],"outputs":[{"name":"","type":"address[]","internalType":"address[]"}],"stateMutability":"view"},{"type":"function","name":"getProposalValues","inputs":[{"name":"proposalId","type":"uint256","internalType":"uint256"}],"outputs":[{"name":"","type":"uint256[]","internalType":"uint256[]"}],"stateMutability":"view"},{"type":"function","name":"guardian","inputs":[],"outputs":[{"name":"","type":"address","internalType":"address"}],"stateMutability":"view"},{"type":"function","name":"proposalCount","inputs":[],"outputs":[{"name":"","type":"uint256","internalType":"uint256"}],"stateMutability":"view"},{"type":"function","name":"proposals","inputs":[{"name":"","type":"uint256","internalType":"uint256"}],"outputs":[{"name":"id","type":"uint256","internalType":"uint256"},{"name":"proposer","type":"address","internalType":"address"},{"name":"description","type":"string","internalType":"string"},{"name":"startTime","type":"uint256","internalType":"uint256"},{"name":"endTime","type":"uint256","internalType":"uint256"},{"name":"executionTime","type":"uint256","internalType":"uint256"},{"name":"forVotes","type":"uint256","internalType":"uint256"},{"name":"againstVotes","type":"uint256","internalType":"uint256"},{"name":"abstainVotes","type":"uint256","internalType":"uint256"},{"name":"canceled","type":"bool","internalType":"bool"},{"name":"executed","type":"bool","internalType":"bool"}],"stateMutability":"view"},{"type":"function","name":"propose","inputs":[{"name":"targets","type":"address[]","internalType":"address[]"},{"name":"values","type":"uint256[]","internalType":"uint256[]"},{"name":"calldatas","type":"bytes[]","internalType":"bytes[]"},{"name":"description","type":"string","internalType":"string"}],"outputs":[{"name":"","type":"uint256","internalType":"uint256"}],"stateMutability":"nonpayable"},{"type":"function","name":"queue","inputs":[{"name":"proposalId","type":"uint256","internalType":"uint256"}],"outputs":[],"stateMutability":"nonpayable"},{"type":"function","name":"receipts","inputs":[{"name":"","type":"uint256","internalType":"uint256"},{"name":"","type":"address","internalType":"address"}],"outputs":[{"name":"hasVoted","type":"bool","internalType":"bool"},{"name":"support","type":"uint8","internalType":"enum GoodDAO.VoteType"},{"name":"votes","type":"uint256","internalType":"uint256"}],"stateMutability":"view"},{"type":"function","name":"state","inputs":[{"name":"proposalId","type":"uint256","internalType":"uint256"}],"outputs":[{"name":"","type":"uint8","internalType":"enum GoodDAO.ProposalState"}],"stateMutability":"view"},{"type":"function","name":"transferGuardian","inputs":[{"name":"newGuardian","type":"address","internalType":"address"}],"outputs":[],"stateMutability":"nonpayable"},{"type":"function","name":"veGD","inputs":[],"outputs":[{"name":"","type":"address","internalType":"contract VoteEscrowedGD"}],"stateMutability":"view"},{"type":"event","name":"GuardianTransferred","inputs":[{"name":"oldGuardian","type":"address","indexed":true,"internalType":"address"},{"name":"newGuardian","type":"address","indexed":true,"internalType":"address"}],"anonymous":false},{"type":"event","name":"ProposalCanceled","inputs":[{"name":"id","type":"uint256","indexed":true,"internalType":"uint256"}],"anonymous":false},{"type":"event","name":"ProposalCreated","inputs":[{"name":"id","type":"uint256","indexed":true,"internalType":"uint256"},{"name":"proposer","type":"address","indexed":true,"internalType":"address"},{"name":"description","type":"string","indexed":false,"internalType":"string"}],"anonymous":false},{"type":"event","name":"ProposalExecuted","inputs":[{"name":"id","type":"uint256","indexed":true,"internalType":"uint256"}],"anonymous":false},{"type":"event","name":"ProposalQueued","inputs":[{"name":"id","type":"uint256","indexed":true,"internalType":"uint256"},{"name":"executionTime","type":"uint256","indexed":false,"internalType":"uint256"}],"anonymous":false},{"type":"event","name":"VoteCast","inputs":[{"name":"voter","type":"address","indexed":true,"internalType":"address"},{"name":"proposalId","type":"uint256","indexed":true,"internalType":"uint256"},{"name":"support","type":"uint8","indexed":false,"internalType":"enum GoodDAO.VoteType"},{"name":"votes","type":"uint256","indexed":false,"internalType":"uint256"}],"anonymous":false},{"type":"error","name":"AlreadyVoted","inputs":[]},{"type":"error","name":"BelowThreshold","inputs":[]},{"type":"error","name":"ExecutionFailed","inputs":[]},{"type":"error","name":"InvalidProposal","inputs":[]},{"type":"error","name":"NotGuardian","inputs":[]},{"type":"error","name":"NotProposer","inputs":[]},{"type":"error","name":"ProposalAlreadyFinalized","inputs":[]},{"type":"error","name":"ProposalExpiredError","inputs":[]},{"type":"error","name":"ProposalNotActive","inputs":[]},{"type":"error","name":"ProposalNotQueued","inputs":[]},{"type":"error","name":"ProposalNotSucceeded","inputs":[]},{"type":"error","name":"TimelockNotReady","inputs":[]}],"bytecode":{"object":"0x60a0346100a657601f61182a38819003918201601f19168301916001600160401b038311848410176100aa5780849260409485528339810103126100a657610052602061004b836100be565b92016100be565b60015f8190556001600160a01b0392831660805280546001600160a01b0319169190921617905560405161175790816100d3823960805181818161070901528181610d4201528181611183015261151f0152f35b5f80fd5b634e487b7160e01b5f52604160045260245ffd5b51906001600160a01b03821682036100a65756fe608080604052600436101561001c575b50361561001a575f80fd5b005b5f3560e01c908163013cf08b1461125b5750806301c17a70146111b2578063024856531461116e578063091954cd146110ee57806324ecf717146110335780633e4f49e6146110045780633e65164a14610fe757806340e58ee514610f1b5780634178b24914610ea8578063452a932014610e805780635678138814610cad5780635ba1c1a9146103cd5780637d5e81e21461058657806394a7612914610426578063a7d54d3f1461040b578063a8b21c1b146103ef578063b1610d7e146103d2578063d6159fe5146103cd578063da35c664146103b0578063ddf0b0091461031b5763fe0d94c11461010f575f61000f565b346103175760203660031901126103175760043561012b6116cd565b610134816114d1565b6008811015610303576005036102f457805f52600360205260405f2060088101548042106102e55762093a8081018091116102d15742116102c257600c8101805461ff001916610100179055600381019060048101906002015f5b8154811015610297576101a281836116a4565b905460039190911b1c6001600160a01b03166101be82866116a4565b90549060031b1c6101cf83866116a4565b5090604051915f908054906101e3826113b2565b9160018116908115610280575060011461024e575b5050915f939181859403925af13d15610249573d61021581611472565b9061022360405192836113ea565b81525f60203d92013e5b1561023a5760010161018f565b632b3f6d1160e21b5f5260045ffd5b61022d565b9091505f5260205f205f905b82821061026c575050820181836101f8565b60018160209254848801520191019061025a565b60ff191686525050801515028301905081836101f8565b847f712ae1383f79ac853f8d882153778e0260ef8f03b504e2866e0593e04d2b291f5f80a260015f55005b635038740760e01b5f5260045ffd5b634e487b7160e01b5f52601160045260245ffd5b637378c19d60e01b5f5260045ffd5b63599fb1a360e01b5f5260045ffd5b634e487b7160e01b5f52602160045260245ffd5b5f80fd5b34610317576020366003190112610317576004356103376116cd565b610340816114d1565b6008811015610303576004036103a157805f52600360205260405f20620151804201908142116102d157817f9a2e42fd6722813d69113e7d0079d3d940171428df7373df9c7f7617cfda28929260086020930155604051908152a260015f55005b63feace5cd60e01b5f5260045ffd5b34610317575f366003190112610317576020600254604051908152f35b61143d565b34610317575f3660031901126103175760206040516203f4808152f35b34610317575f3660031901126103175760206040516103e88152f35b34610317575f36600319011261031757602060405160648152f35b34610317576020366003190112610317576004355f526003602052600460405f20018054906104548261145a565b9161046260405193846113ea565b808352602083019081925f5260205f20915f905b8282106104e357848660405191829160208301906020845251809152604083019060408160051b85010192915f905b8282106104b457505050500390f35b919360019193955060206104d38192603f198a8203018652885161140c565b96019201920185949391926104a5565b6040515f85546104f2816113b2565b8084529060018116908115610563575060011461052c575b506001928261051e859460209403826113ea565b815201940191019092610476565b5f878152602081209092505b81831061054d5750508101602001600161050a565b6001816020925483868801015201920191610538565b60ff191660208581019190915291151560051b840190910191506001905061050a565b346103175760803660031901126103175760043567ffffffffffffffff811161031757366023820112156103175780600401356105c28161145a565b916105d060405193846113ea565b81835260208301906024829360051b8201019036821161031757602401915b818310610c8d5750505060243567ffffffffffffffff811161031757366023820112156103175780600401356106248161145a565b9161063260405193846113ea565b818352602083016024819360051b8301019136831161031757602401905b828210610c7d575050506044359067ffffffffffffffff82116103175736602383011215610317578160040135906106878261145a565b9261069560405194856113ea565b82845260208401906024829460051b820101903682116103175760248101925b828410610c3c575050505060643567ffffffffffffffff81116103175736602382011215610317576106f190369060248160040135910161148e565b936106fa6116cd565b60405163671b379360e01b81527f00000000000000000000000000000000000000000000000000000000000000006001600160a01b0316602082600481845afa918215610bfc575f92610c07575b506020602491604051928380926309ab24eb60e41b82523360048301525afa908115610bfc575f91610bca575b5081159182159283610ba8575b505050610b9a5786518015908115610b8e575b8115610b82575b50610b73576002545f1981146102d1576001019586600255865f52600360205260405f209787895560018901336bffffffffffffffffffffffff60a01b8254161790556002890190519167ffffffffffffffff83116109ce57600160401b83116109ce5761080f83835481855584611634565b905f5260205f205f5b838110610b5657505050506003870190519167ffffffffffffffff83116109ce57600160401b83116109ce5761085383835481855584611634565b905f5260205f205f5b838110610b42575050505060048501915190600160401b82116109ce578254828455808310610ac4575b50915f5260205f20915f905b8282106109e2575050505060058301815167ffffffffffffffff81116109ce576108c6816108c084546113b2565b84611657565b6020601f821160011461096e5790806108f3925f91610963575b508160011b915f199060031b1c19161790565b90555b6201518042018042116102d1578060068501556205460042018091116102d15760076020940155817f7585f467599d0f008985f231af99293be388626ac16ca59505c2f8f88969cd636040518581528061095433958883019061140c565b0390a360015f55604051908152f35b9050840151876108e0565b601f19821690835f52805f20915f5b8181106109b65750908360019493921061099e575b5050811b0190556108f6565b8501515f1960f88460031b161c191690558680610992565b9192602060018192868a01518155019401920161097d565b634e487b7160e01b5f52604160045260245ffd5b805180519067ffffffffffffffff82116109ce57610a0a82610a0488546113b2565b88611657565b602090601f8311600114610a5b5792610a41836001959460209487965f92610a50575b50508160011b915f199060031b1c19161790565b87555b01940191019092610892565b015190508d80610a2d565b90601f19831691875f52815f20925f5b818110610aac5750936020936001969387969383889510610a94575b505050811b018755610a44565b01515f1960f88460031b161c191690558c8080610a87565b92936020600181928786015181550195019301610a6b565b835f52828060205f20019103905f5b828110610ae1575050610886565b806001918301610af181546113b2565b9081610b00575b505001610ad3565b81601f5f93118514610b165750555b8a80610af8565b81835260208320610b3291601f0160051c841901908601611619565b8082528160208120915555610b0f565b60019060208451940193818401550161085c565b82516001600160a01b031681830155602090920191600101610818565b631dc0650160e31b5f5260045ffd5b9050845114158861079c565b82518114159150610795565b625713a160e91b5f5260045ffd5b909192506064820291820460641417156102d157612710900411888080610782565b90506020813d602011610bf4575b81610be5602093836113ea565b81010312610317575189610775565b3d9150610bd8565b6040513d5f823e3d90fd5b9091506020813d602011610c34575b81610c23602093836113ea565b810103126103175751906020610748565b3d9150610c16565b833567ffffffffffffffff81116103175782013660438201121561031757602091610c728392369060446024820135910161148e565b8152019301926106b5565b8135815260209182019101610650565b82356001600160a01b0381168103610317578152602092830192016105ef565b3461031757604036600319011261031757600435602435600381101561031757610cd56116cd565b815f52600360205260405f20916006830154918242108015610e73575b610e6457815f52600460205260405f2060018060a01b0333165f5260205260405f2093845460ff8116610e5557604051630748d63560e31b815233600482015260248101959095526020856044817f00000000000000000000000000000000000000000000000000000000000000006001600160a01b03165afa948515610bfc575f95610e1e575b50600160209681879361ff008760081b169061ffff1916171781550155600182145f14610df657600901610daf8482546114c4565b90555b610dbf6040518092611430565b82848201527f2c9deb38f462962eadbd85a9d3a4120503ee091f1582eaaa10aa8c6797651d2960403392a360015f55604051908152f35b81610e1057600a01610e098482546114c4565b9055610db2565b600b01610e098482546114c4565b9594506020863d602011610e4d575b81610e3a602093836113ea565b8101031261031757945193946001610d7a565b3d9150610e2d565b637c9a1cf960e01b5f5260045ffd5b637becc13f60e01b5f5260045ffd5b5060078401544211610cf2565b34610317575f366003190112610317576001546040516001600160a01b039091168152602090f35b34610317576040366003190112610317576024356001600160a01b0381168103610317576004355f52600460205260405f209060018060a01b03165f52602052606060405f2060018154910154610f146040519260ff81161515845260ff602085019160081c16611430565b6040820152f35b3461031757602036600319011261031757600435610f376116cd565b805f52600360205260405f20600c81019081549060ff8260081c168015610fdd575b610fce57600101546001600160a01b031633141580610fb9575b610faa5760ff191660011790557f789cf55be980739dad1d0699b93b58e806b51c9d96619bfa8fe0a28abaa7b30c5f80a260015f55005b637d1b73b960e01b5f5260045ffd5b506001546001600160a01b0316331415610f73565b639c93eb2d60e01b5f5260045ffd5b5060ff8216610f59565b34610317575f36600319011261031757602060405162093a808152f35b34610317576020366003190112610317576110206004356114d1565b6040516008821015610303576020918152f35b34610317576020366003190112610317576004355f526003602052600260405f2001604051806020835491828152019081935f5260205f20905f5b8181106110cf57505050816110849103826113ea565b604051918291602083019060208452518091526040830191905f5b8181106110ad575050500390f35b82516001600160a01b031684528594506020938401939092019160010161109f565b82546001600160a01b031684526020909301926001928301920161106e565b34610317576020366003190112610317576004356001600160a01b03811690819003610317576001546001600160a01b0381163381900361115f5782907f9fe65984b511eb7998b3cd481cfd80c807fcc7f28721a790d33c87dc9c8794855f80a36001600160a01b03191617600155005b6377b6878160e11b5f5260045ffd5b34610317575f366003190112610317576040517f00000000000000000000000000000000000000000000000000000000000000006001600160a01b03168152602090f35b34610317576020366003190112610317576004355f526003602052600360405f2001604051806020835491828152019081935f5260205f20905f5b81811061124557505050816112039103826113ea565b604051918291602083019060208452518091526040830191905f5b81811061122c575050500390f35b825184528594506020938401939092019160010161121e565b82548452602090930192600192830192016111ed565b34610317576020366003190112610317576004355f52600360205260405f2080549060018060a01b0360018201541692600582015f9080549061129d826113b2565b808552916001811690811561138b575060011461134b575b5050906112c68160ff9303826113ea565b60068301549260078101546008820154600983015490600a84015492611310600c600b870154960154966040519b8c9b8c5260208c015261016060408c01526101608b019061140c565b9760608a0152608089015260a088015260c087015260e0860152610100850152818116151561012085015260081c1615156101408301520390f35b5f90815260208120939250905b808210611371575090915081016020016112c6826112b5565b919260018160209254838588010152019101909291611358565b60ff191660208087019190915292151560051b850190920192506112c691508390506112b5565b90600182811c921680156113e0575b60208310146113cc57565b634e487b7160e01b5f52602260045260245ffd5b91607f16916113c1565b90601f8019910116810190811067ffffffffffffffff8211176109ce57604052565b805180835260209291819084018484015e5f828201840152601f01601f1916010190565b9060038210156103035752565b34610317575f366003190112610317576020604051620151808152f35b67ffffffffffffffff81116109ce5760051b60200190565b67ffffffffffffffff81116109ce57601f01601f191660200190565b92919261149a82611472565b916114a860405193846113ea565b829481845281830111610317578281602093845f960137010152565b919082018092116102d157565b5f52600360205260405f20600c81015460ff81166116125760081c60ff1661160c57600681015442106116075760078101544211156116015760405163671b379360e01b81526020816004817f00000000000000000000000000000000000000000000000000000000000000006001600160a01b03165afa908115610bfc575f916115cf575b506103e88102908082046103e814901517156102d15761271060098301549104611585600b840154836114c4565b106115c857600a82015410156115c2576008015480156115bc5762093a8081018091116102d15742116115b757600590565b600790565b50600490565b50600390565b5050600390565b90506020813d6020116115f9575b816115ea602093836113ea565b8101031261031757515f611557565b3d91506115dd565b50600190565b505f90565b50600690565b5050600290565b5f5b82811061162757505050565b5f8282015560010161161b565b9181811061164157505050565b611655925f528060205f2001910390611619565b565b91601f821161166557505050565b80821161167157505050565b611655925f5260205f20916020601f830160051c921061169c575b601f82910160051c039101611619565b5f915061168c565b80548210156116b9575f5260205f2001905f90565b634e487b7160e01b5f52603260045260245ffd5b60025f54146116dc5760025f55565b60405162461bcd60e51b815260206004820152601f60248201527f5265656e7472616e637947756172643a207265656e7472616e742063616c6c006044820152606490fdfea264697066735822122024b7d4f4a80a22fd963f1aade21a7937ba2df32f81ce7720dc95b49eda7149e664736f6c63430008210033","linkReferences":{}},"methodIdentifiers":{"EXECUTION_WINDOW()":"3e65164a","PROPOSAL_THRESHOLD_BPS()":"a7d54d3f","QUORUM_BPS()":"a8b21c1b","TIMELOCK_DELAY()":"5ba1c1a9","VOTING_DELAY()":"d6159fe5","VOTING_PERIOD()":"b1610d7e","cancel(uint256)":"40e58ee5","castVote(uint256,uint8)":"56781388","execute(uint256)":"fe0d94c1","getProposalCalldatas(uint256)":"94a76129","getProposalTargets(uint256)":"24ecf717","getProposalValues(uint256)":"01c17a70","guardian()":"452a9320","proposalCount()":"da35c664","proposals(uint256)":"013cf08b","propose(address[],uint256[],bytes[],string)":"7d5e81e2","queue(uint256)":"ddf0b009","receipts(uint256,address)":"4178b249","state(uint256)":"3e4f49e6","transferGuardian(address)":"091954cd","veGD()":"02485653"},"id":22}