{"abi":[{"type":"constructor","inputs":[{"name":"_veGD","type":"address","internalType":"address"},{"name":"_guardian","type":"address","internalType":"address"}],"stateMutability":"nonpayable"},{"type":"receive","stateMutability":"payable"},{"type":"function","name":"EXECUTION_WINDOW","inputs":[],"outputs":[{"name":"","type":"uint256","internalType":"uint256"}],"stateMutability":"view"},{"type":"function","name":"PROPOSAL_THRESHOLD_BPS","inputs":[],"outputs":[{"name":"","type":"uint256","internalType":"uint256"}],"stateMutability":"view"},{"type":"function","name":"QUORUM_BPS","inputs":[],"outputs":[{"name":"","type":"uint256","internalType":"uint256"}],"stateMutability":"view"},{"type":"function","name":"TIMELOCK_DELAY","inputs":[],"outputs":[{"name":"","type":"uint256","internalType":"uint256"}],"stateMutability":"view"},{"type":"function","name":"VOTING_DELAY","inputs":[],"outputs":[{"name":"","type":"uint256","internalType":"uint256"}],"stateMutability":"view"},{"type":"function","name":"VOTING_PERIOD","inputs":[],"outputs":[{"name":"","type":"uint256","internalType":"uint256"}],"stateMutability":"view"},{"type":"function","name":"cancel","inputs":[{"name":"proposalId","type":"uint256","internalType":"uint256"}],"outputs":[],"stateMutability":"nonpayable"},{"type":"function","name":"castVote","inputs":[{"name":"proposalId","type":"uint256","internalType":"uint256"},{"name":"support","type":"uint8","internalType":"enum GoodDAO.VoteType"}],"outputs":[{"name":"","type":"uint256","internalType":"uint256"}],"stateMutability":"nonpayable"},{"type":"function","name":"execute","inputs":[{"name":"proposalId","type":"uint256","internalType":"uint256"}],"outputs":[],"stateMutability":"nonpayable"},{"type":"function","name":"getProposalCalldatas","inputs":[{"name":"proposalId","type":"uint256","internalType":"uint256"}],"outputs":[{"name":"","type":"bytes[]","internalType":"bytes[]"}],"stateMutability":"view"},{"type":"function","name":"getProposalTargets","inputs":[{"name":"proposalId","type":"uint256","internalType":"uint256"}],"outputs":[{"name":"","type":"address[]","internalType":"address[]"}],"stateMutability":"view"},{"type":"function","name":"getProposalValues","inputs":[{"name":"proposalId","type":"uint256","internalType":"uint256"}],"outputs":[{"name":"","type":"uint256[]","internalType":"uint256[]"}],"stateMutability":"view"},{"type":"function","name":"guardian","inputs":[],"outputs":[{"name":"","type":"address","internalType":"address"}],"stateMutability":"view"},{"type":"function","name":"proposalCount","inputs":[],"outputs":[{"name":"","type":"uint256","internalType":"uint256"}],"stateMutability":"view"},{"type":"function","name":"proposals","inputs":[{"name":"","type":"uint256","internalType":"uint256"}],"outputs":[{"name":"id","type":"uint256","internalType":"uint256"},{"name":"proposer","type":"address","internalType":"address"},{"name":"description","type":"string","internalType":"string"},{"name":"startTime","type":"uint256","internalType":"uint256"},{"name":"endTime","type":"uint256","internalType":"uint256"},{"name":"executionTime","type":"uint256","internalType":"uint256"},{"name":"forVotes","type":"uint256","internalType":"uint256"},{"name":"againstVotes","type":"uint256","internalType":"uint256"},{"name":"abstainVotes","type":"uint256","internalType":"uint256"},{"name":"canceled","type":"bool","internalType":"bool"},{"name":"executed","type":"bool","internalType":"bool"}],"stateMutability":"view"},{"type":"function","name":"propose","inputs":[{"name":"targets","type":"address[]","internalType":"address[]"},{"name":"values","type":"uint256[]","internalType":"uint256[]"},{"name":"calldatas","type":"bytes[]","internalType":"bytes[]"},{"name":"description","type":"string","internalType":"string"}],"outputs":[{"name":"","type":"uint256","internalType":"uint256"}],"stateMutability":"nonpayable"},{"type":"function","name":"queue","inputs":[{"name":"proposalId","type":"uint256","internalType":"uint256"}],"outputs":[],"stateMutability":"nonpayable"},{"type":"function","name":"receipts","inputs":[{"name":"","type":"uint256","internalType":"uint256"},{"name":"","type":"address","internalType":"address"}],"outputs":[{"name":"hasVoted","type":"bool","internalType":"bool"},{"name":"support","type":"uint8","internalType":"enum GoodDAO.VoteType"},{"name":"votes","type":"uint256","internalType":"uint256"}],"stateMutability":"view"},{"type":"function","name":"state","inputs":[{"name":"proposalId","type":"uint256","internalType":"uint256"}],"outputs":[{"name":"","type":"uint8","internalType":"enum GoodDAO.ProposalState"}],"stateMutability":"view"},{"type":"function","name":"transferGuardian","inputs":[{"name":"newGuardian","type":"address","internalType":"address"}],"outputs":[],"stateMutability":"nonpayable"},{"type":"function","name":"veGD","inputs":[],"outputs":[{"name":"","type":"address","internalType":"contract VoteEscrowedGD"}],"stateMutability":"view"},{"type":"event","name":"GuardianTransferred","inputs":[{"name":"oldGuardian","type":"address","indexed":true,"internalType":"address"},{"name":"newGuardian","type":"address","indexed":true,"internalType":"address"}],"anonymous":false},{"type":"event","name":"ProposalCanceled","inputs":[{"name":"id","type":"uint256","indexed":true,"internalType":"uint256"}],"anonymous":false},{"type":"event","name":"ProposalCreated","inputs":[{"name":"id","type":"uint256","indexed":true,"internalType":"uint256"},{"name":"proposer","type":"address","indexed":true,"internalType":"address"},{"name":"description","type":"string","indexed":false,"internalType":"string"}],"anonymous":false},{"type":"event","name":"ProposalExecuted","inputs":[{"name":"id","type":"uint256","indexed":true,"internalType":"uint256"}],"anonymous":false},{"type":"event","name":"ProposalQueued","inputs":[{"name":"id","type":"uint256","indexed":true,"internalType":"uint256"},{"name":"executionTime","type":"uint256","indexed":false,"internalType":"uint256"}],"anonymous":false},{"type":"event","name":"VoteCast","inputs":[{"name":"voter","type":"address","indexed":true,"internalType":"address"},{"name":"proposalId","type":"uint256","indexed":true,"internalType":"uint256"},{"name":"support","type":"uint8","indexed":false,"internalType":"enum GoodDAO.VoteType"},{"name":"votes","type":"uint256","indexed":false,"internalType":"uint256"}],"anonymous":false},{"type":"error","name":"AlreadyVoted","inputs":[]},{"type":"error","name":"BelowThreshold","inputs":[]},{"type":"error","name":"ExecutionFailed","inputs":[]},{"type":"error","name":"InvalidProposal","inputs":[]},{"type":"error","name":"NotGuardian","inputs":[]},{"type":"error","name":"NotProposer","inputs":[]},{"type":"error","name":"ProposalAlreadyFinalized","inputs":[]},{"type":"error","name":"ProposalExpiredError","inputs":[]},{"type":"error","name":"ProposalNotActive","inputs":[]},{"type":"error","name":"ProposalNotQueued","inputs":[]},{"type":"error","name":"ProposalNotSucceeded","inputs":[]},{"type":"error","name":"TimelockNotReady","inputs":[]}],"bytecode":{"object":"0x60a0346100a157601f61179338819003918201601f19168301916001600160401b038311848410176100a55780849260409485528339810103126100a157610052602061004b836100b9565b92016100b9565b6001600160a01b039182166080525f80546001600160a01b031916919092161790556040516116c590816100ce82396080518181816106eb01528181610d180152818161114501526114e10152f35b5f80fd5b634e487b7160e01b5f52604160045260245ffd5b51906001600160a01b03821682036100a15756fe608080604052600436101561001c575b50361561001a575f80fd5b005b5f3560e01c908163013cf08b1461121d5750806301c17a70146111745780630248565314611130578063091954cd146110b257806324ecf71714610ff75780633e4f49e614610fc85780633e65164a14610fab57806340e58ee514610eec5780634178b24914610e79578063452a932014610e525780635678138814610c8b5780635ba1c1a9146103b55780637d5e81e21461056e57806394a761291461040e578063a7d54d3f146103f3578063a8b21c1b146103d7578063b1610d7e146103ba578063d6159fe5146103b5578063da35c66414610398578063ddf0b0091461030f5763fe0d94c11461010f575f61000f565b3461030b57602036600319011261030b5760043561012c81611493565b60088110156102f7576005036102e857805f52600260205260405f2060088101548042106102d95762093a8081018091116102c55742116102b657600c8101805461ff001916610100179055600381019060048101906002015f5b815481101561028f5761019a8183611666565b905460039190911b1c6001600160a01b03166101b68286611666565b90549060031b1c6101c78386611666565b5090604051915f908054906101db82611374565b91600181169081156102785750600114610246575b5050915f939181859403925af13d15610241573d61020d81611434565b9061021b60405192836113ac565b81525f60203d92013e5b1561023257600101610187565b632b3f6d1160e21b5f5260045ffd5b610225565b9091505f5260205f205f905b828210610264575050820181836101f0565b600181602092548488015201910190610252565b60ff191686525050801515028301905081836101f0565b847f712ae1383f79ac853f8d882153778e0260ef8f03b504e2866e0593e04d2b291f5f80a2005b635038740760e01b5f5260045ffd5b634e487b7160e01b5f52601160045260245ffd5b637378c19d60e01b5f5260045ffd5b63599fb1a360e01b5f5260045ffd5b634e487b7160e01b5f52602160045260245ffd5b5f80fd5b3461030b57602036600319011261030b5760043561032c81611493565b60088110156102f75760040361038957805f52600260205260405f20620151804201908142116102c557817f9a2e42fd6722813d69113e7d0079d3d940171428df7373df9c7f7617cfda28929260086020930155604051908152a2005b63feace5cd60e01b5f5260045ffd5b3461030b575f36600319011261030b576020600154604051908152f35b6113ff565b3461030b575f36600319011261030b5760206040516203f4808152f35b3461030b575f36600319011261030b5760206040516103e88152f35b3461030b575f36600319011261030b57602060405160648152f35b3461030b57602036600319011261030b576004355f526002602052600460405f200180549061043c8261141c565b9161044a60405193846113ac565b808352602083019081925f5260205f20915f905b8282106104cb57848660405191829160208301906020845251809152604083019060408160051b85010192915f905b82821061049c57505050500390f35b919360019193955060206104bb8192603f198a820301865288516113ce565b960192019201859493919261048d565b6040515f85546104da81611374565b808452906001811690811561054b5750600114610514575b5060019282610506859460209403826113ac565b81520194019101909261045e565b5f878152602081209092505b818310610535575050810160200160016104f2565b6001816020925483868801015201920191610520565b60ff191660208581019190915291151560051b84019091019150600190506104f2565b3461030b57608036600319011261030b5760043567ffffffffffffffff811161030b573660238201121561030b5780600401356105aa8161141c565b916105b860405193846113ac565b81835260208301906024829360051b8201019036821161030b57602401915b818310610c6b5750505060243567ffffffffffffffff811161030b573660238201121561030b57806004013561060c8161141c565b9161061a60405193846113ac565b818352602083016024819360051b8301019136831161030b57602401905b828210610c5b575050506044359067ffffffffffffffff821161030b573660238301121561030b5781600401359061066f8261141c565b9261067d60405194856113ac565b82845260208401906024829460051b8201019036821161030b5760248101925b828410610c1a575050505060643567ffffffffffffffff811161030b573660238201121561030b576106d9903690602481600401359101611450565b60405163671b379360e01b81529094907f00000000000000000000000000000000000000000000000000000000000000006001600160a01b0316602082600481845afa918215610bda575f92610be5575b506020602491604051928380926309ab24eb60e41b82523360048301525afa908115610bda575f91610ba8575b5081159182159283610b86575b505050610b785786518015908115610b6c575b8115610b60575b50610b51576001545f1981146102c5576001019586600155865f52600260205260405f209787895560018901336bffffffffffffffffffffffff60a01b8254161790556002890190519167ffffffffffffffff83116109ac57600160401b83116109ac576107f1838354818555846115f6565b905f5260205f205f5b838110610b3457505050506003870190519167ffffffffffffffff83116109ac57600160401b83116109ac57610835838354818555846115f6565b905f5260205f205f5b838110610b20575050505060048501915190600160401b82116109ac578254828455808310610aa2575b50915f5260205f20915f905b8282106109c0575050505060058301815167ffffffffffffffff81116109ac576108a8816108a28454611374565b84611619565b6020601f821160011461094c5790806108d5925f91610941575b508160011b915f199060031b1c19161790565b90555b6201518042018042116102c5578060068501556205460042018091116102c55760076020940155817f7585f467599d0f008985f231af99293be388626ac16ca59505c2f8f88969cd63604051858152806109363395888301906113ce565b0390a3604051908152f35b9050840151876108c2565b601f19821690835f52805f20915f5b8181106109945750908360019493921061097c575b5050811b0190556108d8565b8501515f1960f88460031b161c191690558680610970565b9192602060018192868a01518155019401920161095b565b634e487b7160e01b5f52604160045260245ffd5b805180519067ffffffffffffffff82116109ac576109e8826109e28854611374565b88611619565b602090601f8311600114610a395792610a1f836001959460209487965f92610a2e575b50508160011b915f199060031b1c19161790565b87555b01940191019092610874565b015190508d80610a0b565b90601f19831691875f52815f20925f5b818110610a8a5750936020936001969387969383889510610a72575b505050811b018755610a22565b01515f1960f88460031b161c191690558c8080610a65565b92936020600181928786015181550195019301610a49565b835f52828060205f20019103905f5b828110610abf575050610868565b806001918301610acf8154611374565b9081610ade575b505001610ab1565b81601f5f93118514610af45750555b8a80610ad6565b81835260208320610b1091601f0160051c8419019086016115db565b8082528160208120915555610aed565b60019060208451940193818401550161083e565b82516001600160a01b0316818301556020909201916001016107fa565b631dc0650160e31b5f5260045ffd5b9050845114158861077e565b82518114159150610777565b625713a160e91b5f5260045ffd5b909192506064820291820460641417156102c557612710900411888080610764565b90506020813d602011610bd2575b81610bc3602093836113ac565b8101031261030b575189610757565b3d9150610bb6565b6040513d5f823e3d90fd5b9091506020813d602011610c12575b81610c01602093836113ac565b8101031261030b575190602061072a565b3d9150610bf4565b833567ffffffffffffffff811161030b5782013660438201121561030b57602091610c5083923690604460248201359101611450565b81520193019261069d565b8135815260209182019101610638565b82356001600160a01b038116810361030b578152602092830192016105d7565b3461030b57604036600319011261030b57600435602435600381101561030b57815f52600260205260405f20916006830154918242108015610e45575b610e3657815f52600360205260405f2060018060a01b0333165f5260205260405f2093845460ff8116610e2757604051630748d63560e31b815233600482015260248101959095526020856044817f00000000000000000000000000000000000000000000000000000000000000006001600160a01b03165afa948515610bda575f95610df0575b50600160209681879361ff008760081b169061ffff1916171781550155600182145f14610dc857600901610d85848254611486565b90555b610d9560405180926113f2565b82848201527f2c9deb38f462962eadbd85a9d3a4120503ee091f1582eaaa10aa8c6797651d2960403392a3604051908152f35b81610de257600a01610ddb848254611486565b9055610d88565b600b01610ddb848254611486565b9594506020863d602011610e1f575b81610e0c602093836113ac565b8101031261030b57945193946001610d50565b3d9150610dff565b637c9a1cf960e01b5f5260045ffd5b637becc13f60e01b5f5260045ffd5b5060078401544211610cc8565b3461030b575f36600319011261030b575f546040516001600160a01b039091168152602090f35b3461030b57604036600319011261030b576024356001600160a01b038116810361030b576004355f52600360205260405f209060018060a01b03165f52602052606060405f2060018154910154610ee56040519260ff81161515845260ff602085019160081c166113f2565b6040820152f35b3461030b57602036600319011261030b57600435805f52600260205260405f20600c81019081549060ff8260081c168015610fa1575b610f9257600101546001600160a01b031633141580610f7e575b610f6f5760ff191660011790557f789cf55be980739dad1d0699b93b58e806b51c9d96619bfa8fe0a28abaa7b30c5f80a2005b637d1b73b960e01b5f5260045ffd5b505f546001600160a01b0316331415610f3c565b639c93eb2d60e01b5f5260045ffd5b5060ff8216610f22565b3461030b575f36600319011261030b57602060405162093a808152f35b3461030b57602036600319011261030b57610fe4600435611493565b60405160088210156102f7576020918152f35b3461030b57602036600319011261030b576004355f526002602052600260405f2001604051806020835491828152019081935f5260205f20905f5b81811061109357505050816110489103826113ac565b604051918291602083019060208452518091526040830191905f5b818110611071575050500390f35b82516001600160a01b0316845285945060209384019390920191600101611063565b82546001600160a01b0316845260209093019260019283019201611032565b3461030b57602036600319011261030b576004356001600160a01b0381169081900361030b575f546001600160a01b038116338190036111215782907f9fe65984b511eb7998b3cd481cfd80c807fcc7f28721a790d33c87dc9c8794855f80a36001600160a01b031916175f55005b6377b6878160e11b5f5260045ffd5b3461030b575f36600319011261030b576040517f00000000000000000000000000000000000000000000000000000000000000006001600160a01b03168152602090f35b3461030b57602036600319011261030b576004355f526002602052600360405f2001604051806020835491828152019081935f5260205f20905f5b81811061120757505050816111c59103826113ac565b604051918291602083019060208452518091526040830191905f5b8181106111ee575050500390f35b82518452859450602093840193909201916001016111e0565b82548452602090930192600192830192016111af565b3461030b57602036600319011261030b576004355f52600260205260405f2080549060018060a01b0360018201541692600582015f9080549061125f82611374565b808552916001811690811561134d575060011461130d575b5050906112888160ff9303826113ac565b60068301549260078101546008820154600983015490600a840154926112d2600c600b870154960154966040519b8c9b8c5260208c015261016060408c01526101608b01906113ce565b9760608a0152608089015260a088015260c087015260e0860152610100850152818116151561012085015260081c1615156101408301520390f35b5f90815260208120939250905b8082106113335750909150810160200161128882611277565b91926001816020925483858801015201910190929161131a565b60ff191660208087019190915292151560051b850190920192506112889150839050611277565b90600182811c921680156113a2575b602083101461138e57565b634e487b7160e01b5f52602260045260245ffd5b91607f1691611383565b90601f8019910116810190811067ffffffffffffffff8211176109ac57604052565b805180835260209291819084018484015e5f828201840152601f01601f1916010190565b9060038210156102f75752565b3461030b575f36600319011261030b576020604051620151808152f35b67ffffffffffffffff81116109ac5760051b60200190565b67ffffffffffffffff81116109ac57601f01601f191660200190565b92919261145c82611434565b9161146a60405193846113ac565b82948184528183011161030b578281602093845f960137010152565b919082018092116102c557565b5f52600260205260405f20600c81015460ff81166115d45760081c60ff166115ce57600681015442106115c95760078101544211156115c35760405163671b379360e01b81526020816004817f00000000000000000000000000000000000000000000000000000000000000006001600160a01b03165afa908115610bda575f91611591575b506103e88102908082046103e814901517156102c55761271060098301549104611547600b84015483611486565b1061158a57600a82015410156115845760080154801561157e5762093a8081018091116102c557421161157957600590565b600790565b50600490565b50600390565b5050600390565b90506020813d6020116115bb575b816115ac602093836113ac565b8101031261030b57515f611519565b3d915061159f565b50600190565b505f90565b50600690565b5050600290565b5f5b8281106115e957505050565b5f828201556001016115dd565b9181811061160357505050565b611617925f528060205f20019103906115db565b565b91601f821161162757505050565b80821161163357505050565b611617925f5260205f20916020601f830160051c921061165e575b601f82910160051c0391016115db565b5f915061164e565b805482101561167b575f5260205f2001905f90565b634e487b7160e01b5f52603260045260245ffdfea264697066735822122006c3ae58a5e9e7291fc95373f6e4b3cbf83235789ddbf3c8f98adb101154e4c364736f6c63430008210033","linkReferences":{}},"methodIdentifiers":{"EXECUTION_WINDOW()":"3e65164a","PROPOSAL_THRESHOLD_BPS()":"a7d54d3f","QUORUM_BPS()":"a8b21c1b","TIMELOCK_DELAY()":"5ba1c1a9","VOTING_DELAY()":"d6159fe5","VOTING_PERIOD()":"b1610d7e","cancel(uint256)":"40e58ee5","castVote(uint256,uint8)":"56781388","execute(uint256)":"fe0d94c1","getProposalCalldatas(uint256)":"94a76129","getProposalTargets(uint256)":"24ecf717","getProposalValues(uint256)":"01c17a70","guardian()":"452a9320","proposalCount()":"da35c664","proposals(uint256)":"013cf08b","propose(address[],uint256[],bytes[],string)":"7d5e81e2","queue(uint256)":"ddf0b009","receipts(uint256,address)":"4178b249","state(uint256)":"3e4f49e6","transferGuardian(address)":"091954cd","veGD()":"02485653"},"id":18}