{"abi":[{"type":"constructor","inputs":[{"name":"_factory","type":"address","internalType":"address"}],"stateMutability":"nonpayable"},{"type":"function","name":"balanceOf","inputs":[{"name":"","type":"address","internalType":"address"},{"name":"","type":"uint256","internalType":"uint256"}],"outputs":[{"name":"","type":"uint256","internalType":"uint256"}],"stateMutability":"view"},{"type":"function","name":"balanceOfBatch","inputs":[{"name":"owners","type":"address[]","internalType":"address[]"},{"name":"ids","type":"uint256[]","internalType":"uint256[]"}],"outputs":[{"name":"balances","type":"uint256[]","internalType":"uint256[]"}],"stateMutability":"view"},{"type":"function","name":"burn","inputs":[{"name":"from","type":"address","internalType":"address"},{"name":"tokenId","type":"uint256","internalType":"uint256"},{"name":"amount","type":"uint256","internalType":"uint256"}],"outputs":[],"stateMutability":"nonpayable"},{"type":"function","name":"factory","inputs":[],"outputs":[{"name":"","type":"address","internalType":"address"}],"stateMutability":"view"},{"type":"function","name":"isApprovedForAll","inputs":[{"name":"","type":"address","internalType":"address"},{"name":"","type":"address","internalType":"address"}],"outputs":[{"name":"","type":"bool","internalType":"bool"}],"stateMutability":"view"},{"type":"function","name":"mint","inputs":[{"name":"to","type":"address","internalType":"address"},{"name":"tokenId","type":"uint256","internalType":"uint256"},{"name":"amount","type":"uint256","internalType":"uint256"}],"outputs":[],"stateMutability":"nonpayable"},{"type":"function","name":"noTokenId","inputs":[{"name":"marketId","type":"uint256","internalType":"uint256"}],"outputs":[{"name":"","type":"uint256","internalType":"uint256"}],"stateMutability":"pure"},{"type":"function","name":"safeBatchTransferFrom","inputs":[{"name":"from","type":"address","internalType":"address"},{"name":"to","type":"address","internalType":"address"},{"name":"ids","type":"uint256[]","internalType":"uint256[]"},{"name":"amounts","type":"uint256[]","internalType":"uint256[]"},{"name":"","type":"bytes","internalType":"bytes"}],"outputs":[],"stateMutability":"nonpayable"},{"type":"function","name":"safeTransferFrom","inputs":[{"name":"from","type":"address","internalType":"address"},{"name":"to","type":"address","internalType":"address"},{"name":"id","type":"uint256","internalType":"uint256"},{"name":"amount","type":"uint256","internalType":"uint256"},{"name":"","type":"bytes","internalType":"bytes"}],"outputs":[],"stateMutability":"nonpayable"},{"type":"function","name":"setApprovalForAll","inputs":[{"name":"operator","type":"address","internalType":"address"},{"name":"approved","type":"bool","internalType":"bool"}],"outputs":[],"stateMutability":"nonpayable"},{"type":"function","name":"yesTokenId","inputs":[{"name":"marketId","type":"uint256","internalType":"uint256"}],"outputs":[{"name":"","type":"uint256","internalType":"uint256"}],"stateMutability":"pure"},{"type":"event","name":"ApprovalForAll","inputs":[{"name":"owner","type":"address","indexed":true,"internalType":"address"},{"name":"operator","type":"address","indexed":true,"internalType":"address"},{"name":"approved","type":"bool","indexed":false,"internalType":"bool"}],"anonymous":false},{"type":"event","name":"TransferBatch","inputs":[{"name":"operator","type":"address","indexed":true,"internalType":"address"},{"name":"from","type":"address","indexed":true,"internalType":"address"},{"name":"to","type":"address","indexed":true,"internalType":"address"},{"name":"ids","type":"uint256[]","indexed":false,"internalType":"uint256[]"},{"name":"values","type":"uint256[]","indexed":false,"internalType":"uint256[]"}],"anonymous":false},{"type":"event","name":"TransferSingle","inputs":[{"name":"operator","type":"address","indexed":true,"internalType":"address"},{"name":"from","type":"address","indexed":true,"internalType":"address"},{"name":"to","type":"address","indexed":true,"internalType":"address"},{"name":"id","type":"uint256","indexed":false,"internalType":"uint256"},{"name":"value","type":"uint256","indexed":false,"internalType":"uint256"}],"anonymous":false},{"type":"error","name":"InsufficientBalance","inputs":[]},{"type":"error","name":"LengthMismatch","inputs":[]},{"type":"error","name":"NotApproved","inputs":[]},{"type":"error","name":"NotFactory","inputs":[]},{"type":"error","name":"ZeroAddress","inputs":[]}],"bytecode":{"object":"0x60a03461008c57601f610a2b38819003918201601f19168301916001600160401b038311848410176100905780849260209460405283398101031261008c57516001600160a01b03811680820361008c571561007d5760805260405161098690816100a5823960805181818160a501528181610334015261079e0152f35b63d92e233d60e01b5f5260045ffd5b5f80fd5b634e487b7160e01b5f52604160045260245ffdfe6080806040526004361015610012575f80fd5b5f3560e01c908162fdd58e146107f757508063156e29f61461078c5780632eb2c2d6146105a85780633c39b3571461056b5780634e1273f4146103ec578063a22cb46514610363578063c45a01551461031f578063e729dc30146102d9578063e985e9c514610282578063f242432a146101715763f5298aca14610094575f80fd5b3461016d576100a236610861565b917f00000000000000000000000000000000000000000000000000000000000000006001600160a01b0316330361015e5760018060a01b031690815f525f60205260405f20815f526020528260405f20541061014f575f9282845283602052604084208285526020526040842061011a828254610907565b905560405191825260208201527fc3d58168c5ae7397731d063d5bbf3d657854427343f4c083240f7aacaa2d0f6260403392a4005b631e9acf1760e31b5f5260045ffd5b631966391b60e11b5f5260045ffd5b5f80fd5b3461016d5760a036600319011261016d5761018a610835565b61019261084b565b6044356064359160843567ffffffffffffffff811161016d576101b99036906004016108bc565b50506001600160a01b0316928315610273576001600160a01b0316913383141580610250575b61024157825f525f60205260405f20825f526020528060405f20541061014f57825f525f60205260405f20825f5260205260405f2061021f828254610907565b9055835f525f60205260405f20825f5260205260405f2061011a8282546108ea565b63c19f17a960e01b5f5260045ffd5b505f83815260016020908152604080832033845290915290205460ff16156101df565b63d92e233d60e01b5f5260045ffd5b3461016d57604036600319011261016d5761029b610835565b6102a361084b565b9060018060a01b03165f52600160205260405f209060018060a01b03165f52602052602060ff60405f2054166040519015158152f35b3461016d57602036600319011261016d576004358060011b908082046002149015171561030b57602090604051908152f35b634e487b7160e01b5f52601160045260245ffd5b3461016d575f36600319011261016d576040517f00000000000000000000000000000000000000000000000000000000000000006001600160a01b03168152602090f35b3461016d57604036600319011261016d5761037c610835565b6024359081151580920361016d57335f52600160205260405f2060018060a01b0382165f5260205260405f2060ff1981541660ff841617905560405191825260018060a01b0316907f17307eab39ab6107e8899845ad3d59bd9653f200f220920489ca2b5937696c3160203392a3005b3461016d57604036600319011261016d5760043567ffffffffffffffff811161016d5761041d90369060040161088b565b60243567ffffffffffffffff811161016d5761043d90369060040161088b565b929083830361055c5761044f83610938565b6040519490601f01601f1916850167ffffffffffffffff8111868210176105485760405283855261047f84610938565b602086019490601f19013686375f5b8181106104d9578587604051918291602083019060208452518091526040830191905f5b8181106104c0575050500390f35b82518452859450602093840193909201916001016104b2565b6104e48183876108f7565b356001600160a01b0381169081900361016d575f525f60205260405f2061050c8285876108f7565b355f5260205260405f20549087518110156105345760019160208260051b8a0101520161048e565b634e487b7160e01b5f52603260045260245ffd5b634e487b7160e01b5f52604160045260245ffd5b631fec674760e31b5f5260045ffd5b3461016d57602036600319011261016d576004358060011b908082046002149015171561030b576001810180911161030b57602090604051908152f35b3461016d5760a036600319011261016d576105c1610835565b6105c961084b565b60443567ffffffffffffffff811161016d576105e990369060040161088b565b919060643567ffffffffffffffff811161016d5761060b90369060040161088b565b93909260843567ffffffffffffffff811161016d5761062e9036906004016108bc565b50506001600160a01b0316948515610273576001600160a01b0316933385141580610769575b6102415780820361055c575f5b8281106106bc5750906106b77f4a39dc06d4c0dbc64b70af90fd698a233a518aa5d07e595d983b8c0526c8f7fb93926106a7604051948594604086526040860191610914565b9083820360208501523396610914565b0390a4005b855f525f60205260405f206106d28285876108f7565b355f5260205260405f20546106e88284886108f7565b351161014f57806106fc60019284886108f7565b35875f525f60205260405f206107138387896108f7565b355f5260205261072860405f20918254610907565b90556107358184886108f7565b35885f525f60205260405f2061074c8387896108f7565b355f5260205261076160405f209182546108ea565b905501610661565b505f85815260016020908152604080832033845290915290205460ff1615610654565b3461016d5761079a36610861565b91907f00000000000000000000000000000000000000000000000000000000000000006001600160a01b0316330361015e575f9160018060a01b03169283835282602052604083208284526020526040832061011a8282546108ea565b3461016d57604036600319011261016d576020906001600160a01b0361081b610835565b165f525f825260405f206024355f52825260405f20548152f35b600435906001600160a01b038216820361016d57565b602435906001600160a01b038216820361016d57565b606090600319011261016d576004356001600160a01b038116810361016d57906024359060443590565b9181601f8401121561016d5782359167ffffffffffffffff831161016d576020808501948460051b01011161016d57565b9181601f8401121561016d5782359167ffffffffffffffff831161016d576020838186019501011161016d57565b9190820180921161030b57565b91908110156105345760051b0190565b9190820391821161030b57565b81835290916001600160fb1b03831161016d5760209260051b809284830137010190565b67ffffffffffffffff81116105485760051b6020019056fea2646970667358221220df0161d8ce049e440f7fb97b535176daa57912ff32d2ec0f0f712063461015ba64736f6c63430008210033","linkReferences":{}},"methodIdentifiers":{"balanceOf(address,uint256)":"00fdd58e","balanceOfBatch(address[],uint256[])":"4e1273f4","burn(address,uint256,uint256)":"f5298aca","factory()":"c45a0155","isApprovedForAll(address,address)":"e985e9c5","mint(address,uint256,uint256)":"156e29f6","noTokenId(uint256)":"3c39b357","safeBatchTransferFrom(address,address,uint256[],uint256[],bytes)":"2eb2c2d6","safeTransferFrom(address,address,uint256,uint256,bytes)":"f242432a","setApprovalForAll(address,bool)":"a22cb465","yesTokenId(uint256)":"e729dc30"},"id":1}