{"abi":[{"type":"constructor","inputs":[{"name":"_admin","type":"address","internalType":"address"}],"stateMutability":"nonpayable"},{"type":"function","name":"FUNDING_INTERVAL","inputs":[],"outputs":[{"name":"","type":"uint256","internalType":"uint256"}],"stateMutability":"view"},{"type":"function","name":"MAX_FUNDING_RATE","inputs":[],"outputs":[{"name":"","type":"int256","internalType":"int256"}],"stateMutability":"view"},{"type":"function","name":"acceptAdmin","inputs":[],"outputs":[],"stateMutability":"nonpayable"},{"type":"function","name":"accruedFunding","inputs":[{"name":"size","type":"int256","internalType":"int256"},{"name":"entryFundingIndex","type":"int256","internalType":"int256"},{"name":"marketId","type":"uint256","internalType":"uint256"}],"outputs":[{"name":"funding","type":"int256","internalType":"int256"}],"stateMutability":"view"},{"type":"function","name":"admin","inputs":[],"outputs":[{"name":"","type":"address","internalType":"address"}],"stateMutability":"view"},{"type":"function","name":"applyFunding","inputs":[{"name":"marketId","type":"uint256","internalType":"uint256"},{"name":"markPrice","type":"uint256","internalType":"uint256"},{"name":"indexPrice","type":"uint256","internalType":"uint256"}],"outputs":[{"name":"ratePaid","type":"int256","internalType":"int256"}],"stateMutability":"nonpayable"},{"type":"function","name":"cumulativeFundingIndex","inputs":[{"name":"","type":"uint256","internalType":"uint256"}],"outputs":[{"name":"","type":"int256","internalType":"int256"}],"stateMutability":"view"},{"type":"function","name":"initMarket","inputs":[{"name":"marketId","type":"uint256","internalType":"uint256"}],"outputs":[],"stateMutability":"nonpayable"},{"type":"function","name":"lastFundingTime","inputs":[{"name":"","type":"uint256","internalType":"uint256"}],"outputs":[{"name":"","type":"uint256","internalType":"uint256"}],"stateMutability":"view"},{"type":"function","name":"pendingAdmin","inputs":[],"outputs":[{"name":"","type":"address","internalType":"address"}],"stateMutability":"view"},{"type":"function","name":"perpEngine","inputs":[],"outputs":[{"name":"","type":"address","internalType":"address"}],"stateMutability":"view"},{"type":"function","name":"setPerpEngine","inputs":[{"name":"engine","type":"address","internalType":"address"}],"outputs":[],"stateMutability":"nonpayable"},{"type":"function","name":"transferAdmin","inputs":[{"name":"newAdmin","type":"address","internalType":"address"}],"outputs":[],"stateMutability":"nonpayable"},{"type":"event","name":"AdminTransferInitiated","inputs":[{"name":"previousAdmin","type":"address","indexed":true,"internalType":"address"},{"name":"pendingAdmin","type":"address","indexed":true,"internalType":"address"}],"anonymous":false},{"type":"event","name":"AdminTransferred","inputs":[{"name":"previousAdmin","type":"address","indexed":true,"internalType":"address"},{"name":"newAdmin","type":"address","indexed":true,"internalType":"address"}],"anonymous":false},{"type":"event","name":"FundingApplied","inputs":[{"name":"marketId","type":"uint256","indexed":true,"internalType":"uint256"},{"name":"rate","type":"int256","indexed":false,"internalType":"int256"},{"name":"newIndex","type":"int256","indexed":false,"internalType":"int256"},{"name":"timestamp","type":"uint256","indexed":false,"internalType":"uint256"}],"anonymous":false},{"type":"error","name":"NotAdmin","inputs":[]},{"type":"error","name":"NotEngine","inputs":[]},{"type":"error","name":"NotPendingAdmin","inputs":[]},{"type":"error","name":"ZeroAddress","inputs":[]}],"bytecode":{"object":"0x608034608357601f61069538819003918201601f19168301916001600160401b03831184841017608757808492602094604052833981010312608357516001600160a01b0381169081900360835780156074575f80546001600160a01b0319169190911790556040516105f9908161009c8239f35b63d92e233d60e01b5f5260045ffd5b5f80fd5b634e487b7160e01b5f52604160045260245ffdfe60806040526004361015610011575f80fd5b5f3560e01c806302429b98146104075780630e18b68114610387578063267822471461035f57806326ef1b721461033557806345eab495146102be57806348ba4d2b1461029657806355efb2871461027a57806375829def14610203578063b619daf71461018c578063e03e0d8514610162578063f11db845146100f4578063f40f2a79146100d35763f851a440146100a8575f80fd5b346100cf575f3660031901126100cf575f546040516001600160a01b039091168152602090f35b5f80fd5b346100cf575f3660031901126100cf5760206040516601c6bf526340008152f35b346100cf5760203660031901126100cf5760043560018060a01b03600254163314158061014e575b61013f57805f5260046020524260405f20555f5260036020525f60408120555f80f35b63027da19960e41b5f5260045ffd5b505f546001600160a01b031633141561011c565b346100cf5760203660031901126100cf576004355f526004602052602060405f2054604051908152f35b346100cf5760203660031901126100cf576004356001600160a01b038116908190036100cf575f546001600160a01b031633036101f45780156101e5576bffffffffffffffffffffffff60a01b60025416176002555f80f35b63d92e233d60e01b5f5260045ffd5b637bfa4b9f60e01b5f5260045ffd5b346100cf5760203660031901126100cf576004356001600160a01b038116908190036100cf575f546001600160a01b0316338190036101f45781156101e557600180546001600160a01b031916831790557fb4d7bcb4d9a5d6ef6e827e3b1554e5a2578ad9ca843903d42b05d08bfa3458945f80a3005b346100cf575f3660031901126100cf5760206040516170808152f35b346100cf575f3660031901126100cf576002546040516001600160a01b039091168152602090f35b346100cf5760603660031901126100cf576004356044355f5260036020526102ec60243560405f2054610460565b81810291905f8212600160ff1b82141661032157818305149015171561032157670de0b6b3a764000060209105604051908152f35b634e487b7160e01b5f52601160045260245ffd5b346100cf5760203660031901126100cf576004355f526003602052602060405f2054604051908152f35b346100cf575f3660031901126100cf576001546040516001600160a01b039091168152602090f35b346100cf575f3660031901126100cf576001546001600160a01b03811690338290036103f8575f80546001600160a01b0319808216851783559092166001556001600160a01b03909116907ff8ccb027dfcd135e000e9d45e6cc2d662578a8825d4c45b5e32e0adf67e79ec69080a3005b63058d9a1b60e01b5f5260045ffd5b346100cf5760603660031901126100cf576002546001600160a01b03163314158061044c575b61013f576020610444604435602435600435610478565b604051908152f35b505f546001600160a01b031633141561042d565b81810392915f13801582851316918412161761032157565b929190835f52600460205260405f20544203428111610321576170801161058357835f52600460205260405f208054916170808301809311610321576104c092849255610460565b90670de0b6b3a7640000820291808305670de0b6b3a7640000149015171561032157801561056f57600160ff1b82145f1982141661032157610502910561058a565b91805f52600360205260405f20805490848201915f86841291129080158216911516176103215755805f5260036020527f5bc77c157525d548a8a52d79d0ab879a816749d39b746f1bf2489ad250335eee606060405f2054604051908682526020820152426040820152a2565b634e487b7160e01b5f52601260045260245ffd5b505f925050565b6601c6bf52633fff1981126105b6576601c6bf5263400081136105aa5790565b506601c6bf5263400090565b506601c6bf52633fff199056fea26469706673582212207b3380f7e8829b986eb79d23ed190048c8229297eb4e884d2107de5610d9386464736f6c63430008210033","linkReferences":{}},"methodIdentifiers":{"FUNDING_INTERVAL()":"55efb287","MAX_FUNDING_RATE()":"f40f2a79","acceptAdmin()":"0e18b681","accruedFunding(int256,int256,uint256)":"45eab495","admin()":"f851a440","applyFunding(uint256,uint256,uint256)":"02429b98","cumulativeFundingIndex(uint256)":"26ef1b72","initMarket(uint256)":"f11db845","lastFundingTime(uint256)":"e03e0d85","pendingAdmin()":"26782247","perpEngine()":"48ba4d2b","setPerpEngine(address)":"b619daf7","transferAdmin(address)":"75829def"},"id":30}