{"abi":[{"type":"constructor","inputs":[{"name":"_goodDollar","type":"address","internalType":"address"},{"name":"_oracle","type":"address","internalType":"address"},{"name":"_feeSplitter","type":"address","internalType":"address"},{"name":"_admin","type":"address","internalType":"address"}],"stateMutability":"nonpayable"},{"type":"function","name":"BPS","inputs":[],"outputs":[{"name":"","type":"uint256","internalType":"uint256"}],"stateMutability":"view"},{"type":"function","name":"LIQUIDATION_BONUS_BPS","inputs":[],"outputs":[{"name":"","type":"uint256","internalType":"uint256"}],"stateMutability":"view"},{"type":"function","name":"LIQUIDATION_RATIO","inputs":[],"outputs":[{"name":"","type":"uint256","internalType":"uint256"}],"stateMutability":"view"},{"type":"function","name":"MIN_COLLATERAL_RATIO","inputs":[],"outputs":[{"name":"","type":"uint256","internalType":"uint256"}],"stateMutability":"view"},{"type":"function","name":"MIN_DEPOSIT","inputs":[],"outputs":[{"name":"","type":"uint256","internalType":"uint256"}],"stateMutability":"view"},{"type":"function","name":"TRADE_FEE_BPS","inputs":[],"outputs":[{"name":"","type":"uint256","internalType":"uint256"}],"stateMutability":"view"},{"type":"function","name":"acceptAdmin","inputs":[],"outputs":[],"stateMutability":"nonpayable"},{"type":"function","name":"admin","inputs":[],"outputs":[{"name":"","type":"address","internalType":"address"}],"stateMutability":"view"},{"type":"function","name":"burn","inputs":[{"name":"ticker","type":"string","internalType":"string"},{"name":"syntheticAmount","type":"uint256","internalType":"uint256"}],"outputs":[],"stateMutability":"nonpayable"},{"type":"function","name":"collateral","inputs":[{"name":"","type":"address","internalType":"address"},{"name":"","type":"bytes32","internalType":"bytes32"}],"outputs":[{"name":"","type":"uint256","internalType":"uint256"}],"stateMutability":"view"},{"type":"function","name":"debt","inputs":[{"name":"","type":"address","internalType":"address"},{"name":"","type":"bytes32","internalType":"bytes32"}],"outputs":[{"name":"","type":"uint256","internalType":"uint256"}],"stateMutability":"view"},{"type":"function","name":"depositAndMint","inputs":[{"name":"ticker","type":"string","internalType":"string"},{"name":"collateralAmount","type":"uint256","internalType":"uint256"},{"name":"syntheticAmount","type":"uint256","internalType":"uint256"}],"outputs":[],"stateMutability":"nonpayable"},{"type":"function","name":"depositCollateral","inputs":[{"name":"ticker","type":"string","internalType":"string"},{"name":"amount","type":"uint256","internalType":"uint256"}],"outputs":[],"stateMutability":"nonpayable"},{"type":"function","name":"feeSplitter","inputs":[],"outputs":[{"name":"","type":"address","internalType":"address"}],"stateMutability":"view"},{"type":"function","name":"getCollateralRatio","inputs":[{"name":"user","type":"address","internalType":"address"},{"name":"ticker","type":"string","internalType":"string"}],"outputs":[{"name":"ratio","type":"uint256","internalType":"uint256"}],"stateMutability":"view"},{"type":"function","name":"getMintRequirements","inputs":[{"name":"user","type":"address","internalType":"address"},{"name":"ticker","type":"string","internalType":"string"},{"name":"syntheticAmount","type":"uint256","internalType":"uint256"},{"name":"additionalCollateral","type":"uint256","internalType":"uint256"}],"outputs":[{"name":"requiredCollateral","type":"uint256","internalType":"uint256"},{"name":"fee","type":"uint256","internalType":"uint256"},{"name":"available","type":"uint256","internalType":"uint256"},{"name":"canMint","type":"bool","internalType":"bool"}],"stateMutability":"view"},{"type":"function","name":"getPosition","inputs":[{"name":"user","type":"address","internalType":"address"},{"name":"ticker","type":"string","internalType":"string"}],"outputs":[{"name":"userCollateral","type":"uint256","internalType":"uint256"},{"name":"userDebt","type":"uint256","internalType":"uint256"},{"name":"ratio","type":"uint256","internalType":"uint256"}],"stateMutability":"view"},{"type":"function","name":"goodDollar","inputs":[],"outputs":[{"name":"","type":"address","internalType":"contract IGoodDollarToken"}],"stateMutability":"view"},{"type":"function","name":"liquidate","inputs":[{"name":"user","type":"address","internalType":"address"},{"name":"ticker","type":"string","internalType":"string"}],"outputs":[],"stateMutability":"nonpayable"},{"type":"function","name":"mint","inputs":[{"name":"ticker","type":"string","internalType":"string"},{"name":"syntheticAmount","type":"uint256","internalType":"uint256"}],"outputs":[],"stateMutability":"nonpayable"},{"type":"function","name":"oracle","inputs":[],"outputs":[{"name":"","type":"address","internalType":"contract PriceOracle"}],"stateMutability":"view"},{"type":"function","name":"oracleKeys","inputs":[{"name":"","type":"bytes32","internalType":"bytes32"}],"outputs":[{"name":"","type":"bytes32","internalType":"bytes32"}],"stateMutability":"view"},{"type":"function","name":"paused","inputs":[],"outputs":[{"name":"","type":"bool","internalType":"bool"}],"stateMutability":"view"},{"type":"function","name":"pendingAdmin","inputs":[],"outputs":[{"name":"","type":"address","internalType":"address"}],"stateMutability":"view"},{"type":"function","name":"registerAsset","inputs":[{"name":"ticker","type":"string","internalType":"string"},{"name":"syntheticAsset","type":"address","internalType":"address"}],"outputs":[],"stateMutability":"nonpayable"},{"type":"function","name":"setAdmin","inputs":[{"name":"newAdmin","type":"address","internalType":"address"}],"outputs":[],"stateMutability":"nonpayable"},{"type":"function","name":"setPaused","inputs":[{"name":"_paused","type":"bool","internalType":"bool"}],"outputs":[],"stateMutability":"nonpayable"},{"type":"function","name":"syntheticAssets","inputs":[{"name":"","type":"bytes32","internalType":"bytes32"}],"outputs":[{"name":"","type":"address","internalType":"address"}],"stateMutability":"view"},{"type":"function","name":"totalCollateral","inputs":[{"name":"","type":"bytes32","internalType":"bytes32"}],"outputs":[{"name":"","type":"uint256","internalType":"uint256"}],"stateMutability":"view"},{"type":"function","name":"withdrawCollateral","inputs":[{"name":"ticker","type":"string","internalType":"string"},{"name":"amount","type":"uint256","internalType":"uint256"}],"outputs":[],"stateMutability":"nonpayable"},{"type":"event","name":"AdminTransferProposed","inputs":[{"name":"currentAdmin","type":"address","indexed":true,"internalType":"address"},{"name":"pendingAdmin","type":"address","indexed":true,"internalType":"address"}],"anonymous":false},{"type":"event","name":"AdminTransferred","inputs":[{"name":"previousAdmin","type":"address","indexed":true,"internalType":"address"},{"name":"newAdmin","type":"address","indexed":true,"internalType":"address"}],"anonymous":false},{"type":"event","name":"AssetRegistered","inputs":[{"name":"key","type":"bytes32","indexed":true,"internalType":"bytes32"},{"name":"ticker","type":"string","indexed":false,"internalType":"string"},{"name":"syntheticAsset","type":"address","indexed":false,"internalType":"address"}],"anonymous":false},{"type":"event","name":"Burned","inputs":[{"name":"user","type":"address","indexed":true,"internalType":"address"},{"name":"ticker","type":"bytes32","indexed":true,"internalType":"bytes32"},{"name":"syntheticAmount","type":"uint256","indexed":false,"internalType":"uint256"},{"name":"collateralReturned","type":"uint256","indexed":false,"internalType":"uint256"},{"name":"fee","type":"uint256","indexed":false,"internalType":"uint256"}],"anonymous":false},{"type":"event","name":"CollateralDeposited","inputs":[{"name":"user","type":"address","indexed":true,"internalType":"address"},{"name":"ticker","type":"bytes32","indexed":true,"internalType":"bytes32"},{"name":"amount","type":"uint256","indexed":false,"internalType":"uint256"}],"anonymous":false},{"type":"event","name":"CollateralWithdrawn","inputs":[{"name":"user","type":"address","indexed":true,"internalType":"address"},{"name":"ticker","type":"bytes32","indexed":true,"internalType":"bytes32"},{"name":"amount","type":"uint256","indexed":false,"internalType":"uint256"}],"anonymous":false},{"type":"event","name":"Liquidated","inputs":[{"name":"liquidator","type":"address","indexed":true,"internalType":"address"},{"name":"user","type":"address","indexed":true,"internalType":"address"},{"name":"ticker","type":"bytes32","indexed":true,"internalType":"bytes32"},{"name":"syntheticRepaid","type":"uint256","indexed":false,"internalType":"uint256"},{"name":"collateralSeized","type":"uint256","indexed":false,"internalType":"uint256"},{"name":"bonus","type":"uint256","indexed":false,"internalType":"uint256"}],"anonymous":false},{"type":"event","name":"Minted","inputs":[{"name":"user","type":"address","indexed":true,"internalType":"address"},{"name":"ticker","type":"bytes32","indexed":true,"internalType":"bytes32"},{"name":"syntheticAmount","type":"uint256","indexed":false,"internalType":"uint256"},{"name":"collateralUsed","type":"uint256","indexed":false,"internalType":"uint256"},{"name":"fee","type":"uint256","indexed":false,"internalType":"uint256"}],"anonymous":false},{"type":"error","name":"AssetNotRegistered","inputs":[{"name":"key","type":"bytes32","internalType":"bytes32"}]},{"type":"error","name":"CollateralRatioTooLow","inputs":[{"name":"ratio","type":"uint256","internalType":"uint256"},{"name":"minimum","type":"uint256","internalType":"uint256"}]},{"type":"error","name":"DepositTooSmall","inputs":[{"name":"amount","type":"uint256","internalType":"uint256"},{"name":"minimum","type":"uint256","internalType":"uint256"}]},{"type":"error","name":"InsufficientCollateral","inputs":[{"name":"have","type":"uint256","internalType":"uint256"},{"name":"need","type":"uint256","internalType":"uint256"}]},{"type":"error","name":"InsufficientDebt","inputs":[{"name":"have","type":"uint256","internalType":"uint256"},{"name":"repay","type":"uint256","internalType":"uint256"}]},{"type":"error","name":"NotAdmin","inputs":[]},{"type":"error","name":"NotPendingAdmin","inputs":[]},{"type":"error","name":"Paused","inputs":[]},{"type":"error","name":"PositionHealthy","inputs":[{"name":"ratio","type":"uint256","internalType":"uint256"},{"name":"liquidationThreshold","type":"uint256","internalType":"uint256"}]},{"type":"error","name":"TransferFailed","inputs":[]},{"type":"error","name":"ZeroAddress","inputs":[]},{"type":"error","name":"ZeroAmount","inputs":[]}],"bytecode":{"object":"0x60e03461017f57601f6122d638819003918201601f19168301916001600160401b038311848410176101835780849260809460405283398101031261017f5761004781610197565b9061005460208201610197565b9161006d606061006660408501610197565b9301610197565b60015f556001600160a01b03909116928315610170576001600160a01b0316908115610170576001600160a01b03831615610170576001600160a01b03169283156101705760805260a05260c052600180546001600160a01b03191691909117905560405161212a90816101ac82396080518181816106b101528181610781015281816111600152818161128c01528181611497015281816116d601528181611c340152611dd2015260a0518181816104bf015281816109d001528181610c0d01528181610f2d0152818161155c0152818161197d01528181611ed2015261202a015260c05181818161073e01528181610d270152818161111c0152611c820152f35b63d92e233d60e01b5f5260045ffd5b5f80fd5b634e487b7160e01b5f52604160045260245ffd5b51906001600160a01b038216820361017f5756fe60806040526004361015610011575f80fd5b5f5f3560e01c8063056b01ce146117835780630e18b68114611705578063119e5bf3146116c157806316c38b3c146116635780631ce96712146113c15780631f33a88814610e7b5780631fbe11f914610e38578063249d39e914610e1b5780632678224714610df257806329a723ee14610daf5780633272569614610d7c5780635c975abb14610d565780636052970c14610d115780636dc827d914610cef578063704b6c0214610c595780637a9fffb714610c3c5780637dc0d1d014610bf75780638c2261ad14610ae25780639185f59814610ac6578063b1ad0fa014610920578063b48272cc14610421578063c4323fea14610404578063c44bac0214610377578063c63e3835146102e5578063e1e158a5146102c3578063ecd1dae6146102a6578063f32cd6301461027c578063f851a44014610253578063fbaf7210146101905763ffe3142e14610164575f80fd5b3461018d57602036600319011261018d5760406020916004358152600583522054604051908152f35b80fd5b503461018d57608036600319011261018d576101aa61181c565b60243567ffffffffffffffff811161024f57906080926101da6101d461021a9436906004016117bb565b90611ac2565b916101e760443584611ea4565b94909360018060a01b03831684526003602052604084208185526020526102146064356040862054611a61565b92611fd7565b90818111156102485761022d9250611876565b60405192828452602084015280604084015210156060820152f35b505061022d565b8280fd5b503461018d578060031936011261018d576001546040516001600160a01b039091168152602090f35b503461018d57602036600319011261018d5760406020916004358152600783522054604051908152f35b503461018d578060031936011261018d5760206040516103e88152f35b503461018d578060031936011261018d57602060405166038d7ea4c680008152f35b503461018d576102f4366117e9565b90929160ff60025460a01c166103685761030c611a6e565b81156103595766038d7ea4c68000821061033a57610333929361032e91611ac2565b611d82565b6001815580f35b63253bf97d60e11b8352600482905266038d7ea4c68000602452604483fd5b631f2a200560e01b8352600483fd5b6313d0ff5960e31b8352600483fd5b503461018d57606036600319011261018d5760043567ffffffffffffffff8111610400576103a99036906004016117bb565b6024359160ff60025460a01c166103f15761033392916103d0916103cb611a6e565b611ac2565b90806103e1575b5060443590611af0565b6103eb9082611d82565b5f6103d7565b6313d0ff5960e31b8452600484fd5b5080fd5b503461018d578060031936011261018d576020604051612ee08152f35b503461018d57610430366117e9565b9160ff60025460a01c166103f157610446611a6e565b8215610911579061045691611ac2565b808352600660205260408320549091906001600160a01b031680156108fd573384526004602052604084208385526020526040842054908183116108e65783855260076020908152604080872054905163832321bf60e01b8152600481019190915290816024817f00000000000000000000000000000000000000000000000000000000000000006001600160a01b03165afa9081156107245786916108ae575b5061050b670de0b6b3a764000091856118b9565b04670de0b6b3a7640000810290808204670de0b6b3a7640000149015171561089a576305f5e1009004601e810290808204601e149015171561089a57610576612710879204933383526003602052604083208784526020526105718660408520546118b9565b6118cc565b8381111561088e578361058891611876565b915b338252600460205260408220868352602052604082206105ab868254611876565b90556105b78484611a61565b3383526003602052604083208784526020526105d860408420918254611876565b90556105e48484611a61565b86835260056020526105fb60408420918254611876565b9055803b1561040057604051632770a7eb60e21b8152336004820152602481018690529082908290604490829084905af180156108835761086a575b50508161072f575b80610686575b60408051938452602084019190915282015233907ffbb68f61002cbf89cfd4502b79ed21c0d08c91666d4b22825cc11bf41333648e90606090a36001815580f35b60405163a9059cbb60e01b815233600482015260248101829052602081604481896001600160a01b037f0000000000000000000000000000000000000000000000000000000000000000165af19081156107245786916106f5575b50610645576312171d8360e31b8552600485fd5b610717915060203d60201161071d575b61070f8183611883565b8101906118ea565b5f6106e1565b503d610705565b6040513d88823e3d90fd5b60405163095ea7b360e01b81527f00000000000000000000000000000000000000000000000000000000000000006001600160a01b03811660048301526024820184905290602081806044810103818a7f00000000000000000000000000000000000000000000000000000000000000006001600160a01b03165af190811561085f578791610840575b5015610831576040516364d6def960e01b81526004810184905230602482015290606090829060449082908a906001600160a01b03165af1801561072457610802575b5061063f565b6108239060603d60601161082a575b61081b8183611883565b810190611902565b50506107fc565b503d610811565b6312171d8360e31b8652600486fd5b610859915060203d60201161071d5761070f8183611883565b5f6107b9565b6040513d89823e3d90fd5b8161087491611883565b61087f57845f610637565b8480fd5b6040513d84823e3d90fd5b5090915084809261058a565b634e487b7160e01b86526011600452602486fd5b90506020813d6020116108de575b816108c960209383611883565b810103126108da575161050b6104f7565b5f80fd5b3d91506108bc565b6044858484636943054d60e11b8352600452602452fd5b6326ef68cf60e01b84526004839052602484fd5b631f2a200560e01b8452600484fd5b503461018d5761093c9061093336611832565b91939190611ac2565b9160018060a01b031690818152600360205260408120838252602052604081205491815260046020526040812083825260205260408120549283155f146109a65750506109a25f195b604051938493846040919493926060820195825260208201520152565b0390f35b815260076020908152604080832054905163832321bf60e01b8152600481019190915290816024817f00000000000000000000000000000000000000000000000000000000000000006001600160a01b03165afa908115610883578291610a92575b50610a1c670de0b6b3a764000091856118b9565b04906305f5e10083028381046305f5e1001484151715610a7e57670de0b6b3a76400009004906127108202918083046127101490151715610a6a57506109a291610a65916118cc565b610985565b634e487b7160e01b81526011600452602490fd5b634e487b7160e01b82526011600452602482fd5b90506020813d602011610abe575b81610aad60209383611883565b810103126108da5751610a1c610a08565b3d9150610aa0565b503461018d578060031936011261018d576020604051601e8152f35b503461018d57604036600319011261018d5760043567ffffffffffffffff811161040057610b149036906004016117bb565b6024356001600160a01b0381169290839003610bf3576001546001600160a01b03163303610be4578215610bd5579060608282610b72817f9190ede1bbf154005e1cdc753cb24ff7912bf4412bf72342e5ab03ee770facf096611ac2565b95868852600660205260408820816bffffffffffffffffffffffff60a01b8254161790558688526007602052866040892055604051948593604085528160408601528585013782820184018890526020830152601f01601f19168101030190a280f35b63d92e233d60e01b8452600484fd5b637bfa4b9f60e01b8452600484fd5b8380fd5b503461018d578060031936011261018d576040517f00000000000000000000000000000000000000000000000000000000000000006001600160a01b03168152602090f35b503461018d578060031936011261018d576020604051613a988152f35b503461018d57602036600319011261018d57610c7361181c565b6001546001600160a01b03169033829003610ce0576001600160a01b0316908115610cd157600280546001600160a01b031916831790557fc02afc35b5d9b88807390ad5b17e685602c17339aa880db1dfe4e15cb3e2e3a18380a380f35b63d92e233d60e01b8352600483fd5b637bfa4b9f60e01b8352600483fd5b503461018d576020610d09610d0336611832565b9161191d565b604051908152f35b503461018d578060031936011261018d576040517f00000000000000000000000000000000000000000000000000000000000000006001600160a01b03168152602090f35b503461018d578060031936011261018d57602060ff60025460a01c166040519015158152f35b503461018d57602036600319011261018d57602090600435815260068252604060018060a01b0391205416604051908152f35b503461018d57604036600319011261018d576020906040906001600160a01b03610dd761181c565b16815260038352818120602435825283522054604051908152f35b503461018d578060031936011261018d576002546040516001600160a01b039091168152602090f35b503461018d578060031936011261018d5760206040516127108152f35b503461018d57604036600319011261018d576020906040906001600160a01b03610e6061181c565b16815260048352818120602435825283522054604051908152f35b50346108da57610e8a36611832565b60ff60025460a01c166113b257610ea3916103cb611a6e565b90815f52600660205260018060a01b0360405f20541690811561139f5760018060a01b031690815f52600460205260405f20835f5260205260405f205490825f52600360205260405f20845f5260205260405f2054821561138357845f52600760205260405f20546040519063832321bf60e01b8252600482015260208160248160018060a01b037f0000000000000000000000000000000000000000000000000000000000000000165afa90811561130f575f9161134f575b50610f71670de0b6b3a764000091856118b9565b046305f5e10082028281046305f5e100148315171561132357670de0b6b3a7640000900461271081029080820461271014901517156113235781610fb4916118cc565b612ee08110156113375750670de0b6b3a7640000810290808204670de0b6b3a76400001490151715611323576305f5e1009004906103e882028281046103e814831517156113235761271061100a910483611a61565b9281841161131a575b61101d8483611876565b91865f52600360205260405f20885f526020525f6040812055865f52600460205260405f20885f526020525f6040812055875f52600560205261106560405f20918254611876565b9055803b156108da57604051632770a7eb60e21b815233600482015260248101869052905f908290604490829084905af1801561130f576112fa575b5082611261575b8061110d575b507f050df5bd39b9045b183cf260962616d90dc134df2b0da18110a7c2bc6c68468a919080821115611105576110e49082611876565b905b6040805194855260208501919091528301523391606090a46001815580f35b5085906110e6565b60405163095ea7b360e01b81527f00000000000000000000000000000000000000000000000000000000000000006001600160a01b0381166004830152602482018390529190602081806044810103818c7f00000000000000000000000000000000000000000000000000000000000000006001600160a01b03165af1908115611256578991611237575b5015611228576040516364d6def960e01b81526004810191909152306024820152929190606090849060449082908b906001600160a01b03165af192831561085f577f050df5bd39b9045b183cf260962616d90dc134df2b0da18110a7c2bc6c68468a93611209575b5090916110ae565b6112219060603d60601161082a5761081b8183611883565b5050611201565b6312171d8360e31b8852600488fd5b611250915060203d60201161071d5761070f8183611883565b5f611198565b6040513d8b823e3d90fd5b60405163a9059cbb60e01b8152336004820152602481018490526020816044818b6001600160a01b037f0000000000000000000000000000000000000000000000000000000000000000165af19081156112ef5788916112d0575b506110a8576312171d8360e31b8752600487fd5b6112e9915060203d60201161071d5761070f8183611883565b5f6112bc565b6040513d8a823e3d90fd5b6113079197505f90611883565b5f955f6110a1565b6040513d5f823e3d90fd5b92508092611013565b634e487b7160e01b5f52601160045260245ffd5b6301f7d11160e21b5f52600452612ee060245260445ffd5b90506020813d60201161137b575b8161136a60209383611883565b810103126108da5751610f71610f5d565b3d915061135d565b6301f7d11160e21b5f9081525f19600452612ee0602452604490fd5b826326ef68cf60e01b5f5260045260245ffd5b6313d0ff5960e31b5f5260045ffd5b346108da576113cf366117e9565b919060ff60025460a01c166113b2576113e6611a6e565b8215611654576113f591611ac2565b90335f52600360205260405f20825f5260205260405f205481811061163f578161141e91611876565b335f52600460205260405f20835f5260205260405f20548061152d575b50335f52600360205260405f20835f5260205260405f2055815f52600560205260405f2061146a828254611876565b905560405163a9059cbb60e01b8152336004820152602481018290526020816044815f6001600160a01b037f0000000000000000000000000000000000000000000000000000000000000000165af190811561130f575f9161150e575b50156114ff576040519081527fe69cdf29a59dd324317b598bee3a9ed1fcffb99cc506db72633ed07b59dc6d0460203392a360015f55005b6312171d8360e31b5f5260045ffd5b611527915060203d60201161071d5761070f8183611883565b836114c7565b835f52600760205260405f20546040519063832321bf60e01b8252600482015260208160248160018060a01b037f0000000000000000000000000000000000000000000000000000000000000000165afa90811561130f575f91611605575b506115a090670de0b6b3a7640000926118b9565b046305f5e10082028281046305f5e100148315171561132357670de0b6b3a76400009004906127108202918083046127101490151715611323576115e3916118cc565b613a9881101561143b57636a5a2d9160e11b5f52600452613a9860245260445ffd5b90506020813d602011611637575b8161162060209383611883565b810103126108da5751670de0b6b3a764000061158c565b3d9150611613565b632c1f8ef160e21b5f5260045260245260445ffd5b631f2a200560e01b5f5260045ffd5b346108da5760203660031901126108da576004358015158091036108da576001546001600160a01b031633036116b2576002805460ff60a01b191660a09290921b60ff60a01b16919091179055005b637bfa4b9f60e01b5f5260045ffd5b346108da575f3660031901126108da576040517f00000000000000000000000000000000000000000000000000000000000000006001600160a01b03168152602090f35b346108da575f3660031901126108da576002546001600160a01b038116903382900361177457600180546001600160a01b0319808216851790925591166002556001600160a01b03167ff8ccb027dfcd135e000e9d45e6cc2d662578a8825d4c45b5e32e0adf67e79ec65f80a3005b63058d9a1b60e01b5f5260045ffd5b346108da57611791366117e9565b909160ff60025460a01c166113b2576117b5926117b0916103cb611a6e565b611af0565b60015f55005b9181601f840112156108da5782359167ffffffffffffffff83116108da57602083818601950101116108da57565b60406003198201126108da576004359067ffffffffffffffff82116108da57611814916004016117bb565b909160243590565b600435906001600160a01b03821682036108da57565b9060406003198301126108da576004356001600160a01b03811681036108da57916024359067ffffffffffffffff82116108da57611872916004016117bb565b9091565b9190820391821161132357565b90601f8019910116810190811067ffffffffffffffff8211176118a557604052565b634e487b7160e01b5f52604160045260245ffd5b8181029291811591840414171561132357565b81156118d6570490565b634e487b7160e01b5f52601260045260245ffd5b908160209103126108da575180151581036108da5790565b908160609103126108da578051916040602083015192015190565b9161192791611ac2565b9060018060a01b031690815f52600460205260405f20815f5260205260405f20548015611a5957815f52600760205260405f20546040519063832321bf60e01b8252600482015260208160248160018060a01b037f0000000000000000000000000000000000000000000000000000000000000000165afa90811561130f575f91611a1f575b506119c190670de0b6b3a7640000926118b9565b04915f52600360205260405f20905f5260205260405f20546305f5e1008102908082046305f5e100149015171561132357670de0b6b3a7640000900490612710820291808304612710149015171561132357611a1c916118cc565b90565b90506020813d602011611a51575b81611a3a60209383611883565b810103126108da5751670de0b6b3a76400006119ad565b3d9150611a2d565b5050505f1990565b9190820180921161132357565b60025f5414611a7d5760025f55565b60405162461bcd60e51b815260206004820152601f60248201527f5265656e7472616e637947756172643a207265656e7472616e742063616c6c006044820152606490fd5b90611aea602060405183819483830196873781015f838201520301601f198101835282611883565b51902090565b908015611654575f828152600660205260409020546001600160a01b0316801561139f57611b1e8284611ea4565b90335f52600360205260405f20855f5260205260405f2054611b408633611fd7565b80821115611d7a57611b5191611876565b81811061163f5750335f52600460205260405f20855f5260205260405f20611b7a858254611a61565b905581611c0a575b823b156108da576040516340c10f1960e01b815233600482015260248101859052925f908490604490829084905af192831561130f577fafa80970438fa6a8ad54574239a8d28d0cc4b50da6e4473eab194dea551c6c8793611bfa575b506040805194855260208501919091528301523391606090a3565b5f611c0491611883565b5f611bdf565b6040516323b872dd60e01b8152336004820152306024820152604481018390526001600160a01b037f000000000000000000000000000000000000000000000000000000000000000016906020816064815f865af190811561130f575f91611d5b575b50156114ff5760405163095ea7b360e01b81527f00000000000000000000000000000000000000000000000000000000000000006001600160a01b03811660048301526024820185905291602090829060449082905f905af190811561130f575f91611d3c575b50156114ff576040516364d6def960e01b81526004810184905230602482015290606090829060449082905f906001600160a01b03165af1801561130f57611d1d575b50611b82565b611d359060603d60601161082a5761081b8183611883565b5050611d17565b611d55915060203d60201161071d5761070f8183611883565b5f611cd4565b611d74915060203d60201161071d5761070f8183611883565b5f611c6d565b50505f611b51565b5f818152600660205260409020549091906001600160a01b031615611e91576040516323b872dd60e01b8152336004820152306024820152604481018290526020816064815f6001600160a01b037f0000000000000000000000000000000000000000000000000000000000000000165af190811561130f575f91611e72575b50156114ff57335f52600360205260405f20825f5260205260405f20611e29828254611a61565b9055815f52600560205260405f20611e42828254611a61565b90556040519081527f88df26d296ecbf594c8609f433503d1436d24afe03c0d9e5e29c8f6ed92ef9b460203392a3565b611e8b915060203d60201161071d5761070f8183611883565b5f611e02565b506326ef68cf60e01b5f5260045260245ffd5b5f52600760205260405f20546040519063832321bf60e01b8252600482015260208160248160018060a01b037f0000000000000000000000000000000000000000000000000000000000000000165afa90811561130f575f91611f9d575b50611f1690670de0b6b3a7640000926118b9565b0490613a98820291801592818104613a9814841715611323576127109004670de0b6b3a7640000810290808204670de0b6b3a76400001490151715611323576305f5e100900492670de0b6b3a76400008202918204670de0b6b3a7640000141715611323576305f5e1009004601e810290808204601e149015171561132357612710900490565b90506020813d602011611fcf575b81611fb860209383611883565b810103126108da5751670de0b6b3a7640000611f02565b3d9150611fab565b60018060a01b03165f52600460205260405f20815f5260205260405f20549081156120ee575f52600760205260405f20546040519063832321bf60e01b8252600482015260208160248160018060a01b037f0000000000000000000000000000000000000000000000000000000000000000165afa90811561130f575f916120b4575b5061206e90670de0b6b3a7640000926118b9565b04613a98810290808204613a981490151715611323576127109004670de0b6b3a7640000810290808204670de0b6b3a76400001490151715611323576305f5e100900490565b90506020813d6020116120e6575b816120cf60209383611883565b810103126108da5751670de0b6b3a764000061205a565b3d91506120c2565b50505f9056fea26469706673582212209799fc6b6024928f88753eb2749c2aba533f13ec785702f4c540ae4849f029f064736f6c63430008210033","linkReferences":{}},"methodIdentifiers":{"BPS()":"249d39e9","LIQUIDATION_BONUS_BPS()":"ecd1dae6","LIQUIDATION_RATIO()":"c4323fea","MIN_COLLATERAL_RATIO()":"7a9fffb7","MIN_DEPOSIT()":"e1e158a5","TRADE_FEE_BPS()":"9185f598","acceptAdmin()":"0e18b681","admin()":"f851a440","burn(string,uint256)":"b48272cc","collateral(address,bytes32)":"29a723ee","debt(address,bytes32)":"1fbe11f9","depositAndMint(string,uint256,uint256)":"c44bac02","depositCollateral(string,uint256)":"c63e3835","feeSplitter()":"6052970c","getCollateralRatio(address,string)":"6dc827d9","getMintRequirements(address,string,uint256,uint256)":"fbaf7210","getPosition(address,string)":"b1ad0fa0","goodDollar()":"119e5bf3","liquidate(address,string)":"1f33a888","mint(string,uint256)":"056b01ce","oracle()":"7dc0d1d0","oracleKeys(bytes32)":"f32cd630","paused()":"5c975abb","pendingAdmin()":"26782247","registerAsset(string,address)":"8c2261ad","setAdmin(address)":"704b6c02","setPaused(bool)":"16c38b3c","syntheticAssets(bytes32)":"32725696","totalCollateral(bytes32)":"ffe3142e","withdrawCollateral(string,uint256)":"1ce96712"},"id":79}