{"abi":[{"type":"constructor","inputs":[{"name":"_goodDollar","type":"address","internalType":"address"},{"name":"_oracle","type":"address","internalType":"address"},{"name":"_feeSplitter","type":"address","internalType":"address"},{"name":"_admin","type":"address","internalType":"address"}],"stateMutability":"nonpayable"},{"type":"function","name":"BPS","inputs":[],"outputs":[{"name":"","type":"uint256","internalType":"uint256"}],"stateMutability":"view"},{"type":"function","name":"LIQUIDATION_BONUS_BPS","inputs":[],"outputs":[{"name":"","type":"uint256","internalType":"uint256"}],"stateMutability":"view"},{"type":"function","name":"LIQUIDATION_RATIO","inputs":[],"outputs":[{"name":"","type":"uint256","internalType":"uint256"}],"stateMutability":"view"},{"type":"function","name":"MIN_COLLATERAL_RATIO","inputs":[],"outputs":[{"name":"","type":"uint256","internalType":"uint256"}],"stateMutability":"view"},{"type":"function","name":"MIN_DEPOSIT","inputs":[],"outputs":[{"name":"","type":"uint256","internalType":"uint256"}],"stateMutability":"view"},{"type":"function","name":"TRADE_FEE_BPS","inputs":[],"outputs":[{"name":"","type":"uint256","internalType":"uint256"}],"stateMutability":"view"},{"type":"function","name":"acceptAdmin","inputs":[],"outputs":[],"stateMutability":"nonpayable"},{"type":"function","name":"admin","inputs":[],"outputs":[{"name":"","type":"address","internalType":"address"}],"stateMutability":"view"},{"type":"function","name":"burn","inputs":[{"name":"ticker","type":"string","internalType":"string"},{"name":"syntheticAmount","type":"uint256","internalType":"uint256"}],"outputs":[],"stateMutability":"nonpayable"},{"type":"function","name":"collateral","inputs":[{"name":"","type":"address","internalType":"address"},{"name":"","type":"bytes32","internalType":"bytes32"}],"outputs":[{"name":"","type":"uint256","internalType":"uint256"}],"stateMutability":"view"},{"type":"function","name":"debt","inputs":[{"name":"","type":"address","internalType":"address"},{"name":"","type":"bytes32","internalType":"bytes32"}],"outputs":[{"name":"","type":"uint256","internalType":"uint256"}],"stateMutability":"view"},{"type":"function","name":"depositAndMint","inputs":[{"name":"ticker","type":"string","internalType":"string"},{"name":"collateralAmount","type":"uint256","internalType":"uint256"},{"name":"syntheticAmount","type":"uint256","internalType":"uint256"}],"outputs":[],"stateMutability":"nonpayable"},{"type":"function","name":"depositCollateral","inputs":[{"name":"ticker","type":"string","internalType":"string"},{"name":"amount","type":"uint256","internalType":"uint256"}],"outputs":[],"stateMutability":"nonpayable"},{"type":"function","name":"feeSplitter","inputs":[],"outputs":[{"name":"","type":"address","internalType":"address"}],"stateMutability":"view"},{"type":"function","name":"getCollateralRatio","inputs":[{"name":"user","type":"address","internalType":"address"},{"name":"ticker","type":"string","internalType":"string"}],"outputs":[{"name":"ratio","type":"uint256","internalType":"uint256"}],"stateMutability":"view"},{"type":"function","name":"getMintRequirements","inputs":[{"name":"user","type":"address","internalType":"address"},{"name":"ticker","type":"string","internalType":"string"},{"name":"syntheticAmount","type":"uint256","internalType":"uint256"},{"name":"additionalCollateral","type":"uint256","internalType":"uint256"}],"outputs":[{"name":"requiredCollateral","type":"uint256","internalType":"uint256"},{"name":"fee","type":"uint256","internalType":"uint256"},{"name":"available","type":"uint256","internalType":"uint256"},{"name":"canMint","type":"bool","internalType":"bool"}],"stateMutability":"view"},{"type":"function","name":"getPosition","inputs":[{"name":"user","type":"address","internalType":"address"},{"name":"ticker","type":"string","internalType":"string"}],"outputs":[{"name":"userCollateral","type":"uint256","internalType":"uint256"},{"name":"userDebt","type":"uint256","internalType":"uint256"},{"name":"ratio","type":"uint256","internalType":"uint256"}],"stateMutability":"view"},{"type":"function","name":"goodDollar","inputs":[],"outputs":[{"name":"","type":"address","internalType":"contract IGoodDollarToken"}],"stateMutability":"view"},{"type":"function","name":"liquidate","inputs":[{"name":"user","type":"address","internalType":"address"},{"name":"ticker","type":"string","internalType":"string"}],"outputs":[],"stateMutability":"nonpayable"},{"type":"function","name":"mint","inputs":[{"name":"ticker","type":"string","internalType":"string"},{"name":"syntheticAmount","type":"uint256","internalType":"uint256"}],"outputs":[],"stateMutability":"nonpayable"},{"type":"function","name":"oracle","inputs":[],"outputs":[{"name":"","type":"address","internalType":"contract PriceOracle"}],"stateMutability":"view"},{"type":"function","name":"oracleKeys","inputs":[{"name":"","type":"bytes32","internalType":"bytes32"}],"outputs":[{"name":"","type":"bytes32","internalType":"bytes32"}],"stateMutability":"view"},{"type":"function","name":"paused","inputs":[],"outputs":[{"name":"","type":"bool","internalType":"bool"}],"stateMutability":"view"},{"type":"function","name":"pendingAdmin","inputs":[],"outputs":[{"name":"","type":"address","internalType":"address"}],"stateMutability":"view"},{"type":"function","name":"registerAsset","inputs":[{"name":"ticker","type":"string","internalType":"string"},{"name":"syntheticAsset","type":"address","internalType":"address"}],"outputs":[],"stateMutability":"nonpayable"},{"type":"function","name":"setAdmin","inputs":[{"name":"newAdmin","type":"address","internalType":"address"}],"outputs":[],"stateMutability":"nonpayable"},{"type":"function","name":"setPaused","inputs":[{"name":"_paused","type":"bool","internalType":"bool"}],"outputs":[],"stateMutability":"nonpayable"},{"type":"function","name":"syntheticAssets","inputs":[{"name":"","type":"bytes32","internalType":"bytes32"}],"outputs":[{"name":"","type":"address","internalType":"address"}],"stateMutability":"view"},{"type":"function","name":"totalCollateral","inputs":[{"name":"","type":"bytes32","internalType":"bytes32"}],"outputs":[{"name":"","type":"uint256","internalType":"uint256"}],"stateMutability":"view"},{"type":"function","name":"withdrawCollateral","inputs":[{"name":"ticker","type":"string","internalType":"string"},{"name":"amount","type":"uint256","internalType":"uint256"}],"outputs":[],"stateMutability":"nonpayable"},{"type":"event","name":"AdminTransferProposed","inputs":[{"name":"currentAdmin","type":"address","indexed":true,"internalType":"address"},{"name":"pendingAdmin","type":"address","indexed":true,"internalType":"address"}],"anonymous":false},{"type":"event","name":"AdminTransferred","inputs":[{"name":"previousAdmin","type":"address","indexed":true,"internalType":"address"},{"name":"newAdmin","type":"address","indexed":true,"internalType":"address"}],"anonymous":false},{"type":"event","name":"AssetRegistered","inputs":[{"name":"key","type":"bytes32","indexed":true,"internalType":"bytes32"},{"name":"ticker","type":"string","indexed":false,"internalType":"string"},{"name":"syntheticAsset","type":"address","indexed":false,"internalType":"address"}],"anonymous":false},{"type":"event","name":"Burned","inputs":[{"name":"user","type":"address","indexed":true,"internalType":"address"},{"name":"ticker","type":"bytes32","indexed":true,"internalType":"bytes32"},{"name":"syntheticAmount","type":"uint256","indexed":false,"internalType":"uint256"},{"name":"collateralReturned","type":"uint256","indexed":false,"internalType":"uint256"},{"name":"fee","type":"uint256","indexed":false,"internalType":"uint256"}],"anonymous":false},{"type":"event","name":"CollateralDeposited","inputs":[{"name":"user","type":"address","indexed":true,"internalType":"address"},{"name":"ticker","type":"bytes32","indexed":true,"internalType":"bytes32"},{"name":"amount","type":"uint256","indexed":false,"internalType":"uint256"}],"anonymous":false},{"type":"event","name":"CollateralWithdrawn","inputs":[{"name":"user","type":"address","indexed":true,"internalType":"address"},{"name":"ticker","type":"bytes32","indexed":true,"internalType":"bytes32"},{"name":"amount","type":"uint256","indexed":false,"internalType":"uint256"}],"anonymous":false},{"type":"event","name":"Liquidated","inputs":[{"name":"liquidator","type":"address","indexed":true,"internalType":"address"},{"name":"user","type":"address","indexed":true,"internalType":"address"},{"name":"ticker","type":"bytes32","indexed":true,"internalType":"bytes32"},{"name":"syntheticRepaid","type":"uint256","indexed":false,"internalType":"uint256"},{"name":"collateralSeized","type":"uint256","indexed":false,"internalType":"uint256"},{"name":"bonus","type":"uint256","indexed":false,"internalType":"uint256"}],"anonymous":false},{"type":"event","name":"Minted","inputs":[{"name":"user","type":"address","indexed":true,"internalType":"address"},{"name":"ticker","type":"bytes32","indexed":true,"internalType":"bytes32"},{"name":"syntheticAmount","type":"uint256","indexed":false,"internalType":"uint256"},{"name":"collateralUsed","type":"uint256","indexed":false,"internalType":"uint256"},{"name":"fee","type":"uint256","indexed":false,"internalType":"uint256"}],"anonymous":false},{"type":"error","name":"AssetNotRegistered","inputs":[{"name":"key","type":"bytes32","internalType":"bytes32"}]},{"type":"error","name":"CollateralRatioTooLow","inputs":[{"name":"ratio","type":"uint256","internalType":"uint256"},{"name":"minimum","type":"uint256","internalType":"uint256"}]},{"type":"error","name":"DepositTooSmall","inputs":[{"name":"amount","type":"uint256","internalType":"uint256"},{"name":"minimum","type":"uint256","internalType":"uint256"}]},{"type":"error","name":"InsufficientCollateral","inputs":[{"name":"have","type":"uint256","internalType":"uint256"},{"name":"need","type":"uint256","internalType":"uint256"}]},{"type":"error","name":"InsufficientDebt","inputs":[{"name":"have","type":"uint256","internalType":"uint256"},{"name":"repay","type":"uint256","internalType":"uint256"}]},{"type":"error","name":"NotAdmin","inputs":[]},{"type":"error","name":"NotPendingAdmin","inputs":[]},{"type":"error","name":"Paused","inputs":[]},{"type":"error","name":"PositionHealthy","inputs":[{"name":"ratio","type":"uint256","internalType":"uint256"},{"name":"liquidationThreshold","type":"uint256","internalType":"uint256"}]},{"type":"error","name":"TransferFailed","inputs":[]},{"type":"error","name":"ZeroAddress","inputs":[]},{"type":"error","name":"ZeroAmount","inputs":[]}],"bytecode":{"object":"0x60e03461017f57601f61245038819003918201601f19168301916001600160401b038311848410176101835780849260809460405283398101031261017f5761004781610197565b9061005460208201610197565b9161006d606061006660408501610197565b9301610197565b60015f556001600160a01b03909116928315610170576001600160a01b0316908115610170576001600160a01b03831615610170576001600160a01b03169283156101705760805260a05260c052600180546001600160a01b0319169190911790556040516122a490816101ac823960805181818161066f0152818161073f015281816110430152818161116f015281816113660152818161155f01528181611a58015261200e015260a0518181816104c00152818161097d01528181610b5f01528181610e7f0152818161142b015281816117e90152818161210f01526121ec015260c0518181816106fc01528181610c7901528181610fff0152611aa60152f35b63d92e233d60e01b5f5260045ffd5b5f80fd5b634e487b7160e01b5f52604160045260245ffd5b51906001600160a01b038216820361017f5756fe60806040526004361015610011575f80fd5b5f5f3560e01c8063056b01ce1461160c5780630e18b6811461158e578063119e5bf31461154a57806316c38b3c146114ec5780631ce96712146112905780631f33a88814610dcd5780631fbe11f914610d8a578063249d39e914610d6d5780632678224714610d4457806329a723ee14610d015780633272569614610cce5780635c975abb14610ca85780636052970c14610c635780636dc827d914610c41578063704b6c0214610bab5780637a9fffb714610b8e5780637dc0d1d014610b495780638c2261ad14610a345780639185f59814610a18578063b1ad0fa0146108cd578063b48272cc14610421578063c4323fea14610404578063c44bac0214610377578063c63e3835146102e5578063e1e158a5146102c3578063ecd1dae6146102a6578063f32cd6301461027c578063f851a44014610253578063fbaf7210146101905763ffe3142e14610164575f80fd5b3461018d57602036600319011261018d5760406020916004358152600583522054604051908152f35b80fd5b503461018d57608036600319011261018d576101aa6116a5565b60243567ffffffffffffffff811161024f57906080926101da6101d461021a943690600401611644565b906118e6565b916101e7604435846120e0565b94909360018060a01b03831684526003602052604084208185526020526102146064356040862054611885565b92612198565b90818111156102485761022d92506116ff565b60405192828452602084015280604084015210156060820152f35b505061022d565b8280fd5b503461018d578060031936011261018d576001546040516001600160a01b039091168152602090f35b503461018d57602036600319011261018d5760406020916004358152600783522054604051908152f35b503461018d578060031936011261018d5760206040516103e88152f35b503461018d578060031936011261018d57602060405166038d7ea4c680008152f35b503461018d576102f436611672565b90929160ff60025460a01c166103685761030c611892565b81156103595766038d7ea4c68000821061033a57610333929361032e916118e6565b611fbe565b6001815580f35b63253bf97d60e11b8352600482905266038d7ea4c68000602452604483fd5b631f2a200560e01b8352600483fd5b6313d0ff5960e31b8352600483fd5b503461018d57606036600319011261018d5760043567ffffffffffffffff8111610400576103a9903690600401611644565b6024359160ff60025460a01c166103f15761033392916103d0916103cb611892565b6118e6565b90806103e1575b5060443590611914565b6103eb9082611fbe565b5f6103d7565b6313d0ff5960e31b8452600484fd5b5080fd5b503461018d578060031936011261018d576020604051612ee08152f35b503461018d5761043036611672565b9160ff60025460a01c166103f157610446611892565b82156108be5790610456916118e6565b808352600660205260408320549091906001600160a01b031680156108aa573384526004602052604084208385526020526040842054908183116108935783855260076020908152604080872054905163832321bf60e01b815260048101919091528691816024817f00000000000000000000000000000000000000000000000000000000000000006001600160a01b03165afa908115610841578291610858575b5061051661051161050c6105349388611ba6565b611d82565b611e74565b93338352600360205260408320878452602052856040842054611f37565b8381111561084c5783610546916116ff565b915b338252600460205260408220868352602052604082206105698682546116ff565b90556105758484611885565b338352600360205260408320878452602052610596604084209182546116ff565b90556105a28484611885565b86835260056020526105b9604084209182546116ff565b9055803b1561040057604051632770a7eb60e21b8152336004820152602481018690529082908290604490829084905af1801561084157610828575b5050816106ed575b80610644575b60408051938452602084019190915282015233907ffbb68f61002cbf89cfd4502b79ed21c0d08c91666d4b22825cc11bf41333648e90606090a36001815580f35b60405163a9059cbb60e01b815233600482015260248101829052602081604481896001600160a01b037f0000000000000000000000000000000000000000000000000000000000000000165af19081156106e25786916106b3575b50610603576312171d8360e31b8552600485fd5b6106d5915060203d6020116106db575b6106cd8183611720565b810190611756565b5f61069f565b503d6106c3565b6040513d88823e3d90fd5b60405163095ea7b360e01b81527f00000000000000000000000000000000000000000000000000000000000000006001600160a01b03811660048301526024820184905290602081806044810103818a7f00000000000000000000000000000000000000000000000000000000000000006001600160a01b03165af190811561081d5787916107fe575b50156107ef576040516364d6def960e01b81526004810184905230602482015290606090829060449082908a906001600160a01b03165af180156106e2576107c0575b506105fd565b6107e19060603d6060116107e8575b6107d98183611720565b81019061176e565b50506107ba565b503d6107cf565b6312171d8360e31b8652600486fd5b610817915060203d6020116106db576106cd8183611720565b5f610777565b6040513d89823e3d90fd5b8161083291611720565b61083d57845f6105f5565b8480fd5b6040513d84823e3d90fd5b50909150848092610548565b9150506020813d60201161088b575b8161087460209383611720565b81010312610887575185906105166104f8565b5f80fd5b3d9150610867565b6044858484636943054d60e11b8352600452602452fd5b6326ef68cf60e01b84526004839052602484fd5b631f2a200560e01b8452600484fd5b503461018d576108e9906108e0366116bb565b919391906118e6565b9160018060a01b031690818152600360205260408120838252602052604081205491815260046020526040812083825260205260408120549283155f1461095357505061094f5f195b604051938493846040919493926060820195825260208201520152565b0390f35b815260076020908152604080832054905163832321bf60e01b8152600481019190915290816024817f00000000000000000000000000000000000000000000000000000000000000006001600160a01b03165afa918215610a0c57916109d8575b506109d36109c561094f9285611ba6565b6109ce84611c5d565b611ce2565b610932565b90506020813d602011610a04575b816109f360209383611720565b8101031261088757516109d36109b4565b3d91506109e6565b604051903d90823e3d90fd5b503461018d578060031936011261018d576020604051601e8152f35b503461018d57604036600319011261018d5760043567ffffffffffffffff811161040057610a66903690600401611644565b6024356001600160a01b0381169290839003610b45576001546001600160a01b03163303610b36578215610b27579060608282610ac4817f9190ede1bbf154005e1cdc753cb24ff7912bf4412bf72342e5ab03ee770facf0966118e6565b95868852600660205260408820816bffffffffffffffffffffffff60a01b8254161790558688526007602052866040892055604051948593604085528160408601528585013782820184018890526020830152601f01601f19168101030190a280f35b63d92e233d60e01b8452600484fd5b637bfa4b9f60e01b8452600484fd5b8380fd5b503461018d578060031936011261018d576040517f00000000000000000000000000000000000000000000000000000000000000006001600160a01b03168152602090f35b503461018d578060031936011261018d576020604051613a988152f35b503461018d57602036600319011261018d57610bc56116a5565b6001546001600160a01b03169033829003610c32576001600160a01b0316908115610c2357600280546001600160a01b031916831790557fc02afc35b5d9b88807390ad5b17e685602c17339aa880db1dfe4e15cb3e2e3a18380a380f35b63d92e233d60e01b8352600483fd5b637bfa4b9f60e01b8352600483fd5b503461018d576020610c5b610c55366116bb565b91611789565b604051908152f35b503461018d578060031936011261018d576040517f00000000000000000000000000000000000000000000000000000000000000006001600160a01b03168152602090f35b503461018d578060031936011261018d57602060ff60025460a01c166040519015158152f35b503461018d57602036600319011261018d57602090600435815260068252604060018060a01b0391205416604051908152f35b503461018d57604036600319011261018d576020906040906001600160a01b03610d296116a5565b16815260038352818120602435825283522054604051908152f35b503461018d578060031936011261018d576002546040516001600160a01b039091168152602090f35b503461018d578060031936011261018d5760206040516127108152f35b503461018d57604036600319011261018d576020906040906001600160a01b03610db26116a5565b16815260048352818120602435825283522054604051908152f35b503461088757610ddc366116bb565b60ff60025460a01c1661128157610df5916103cb611892565b90815f52600660205260018060a01b0360405f20541690811561126e5760018060a01b031690815f52600460205260405f20835f5260205260405f205490825f52600360205260405f20845f5260205260405f2054821561125257845f52600760205260405f20546040519063832321bf60e01b8252600482015260208160248160018060a01b037f0000000000000000000000000000000000000000000000000000000000000000165afa80156111f2575f9061121e575b610eb9915084611ba6565b610ec6816109ce84611c5d565b612ee08110156112065750610eda90611d82565b90610eed610ee783611e07565b83611885565b928184116111fd575b610f0084836116ff565b91865f52600360205260405f20885f526020525f6040812055865f52600460205260405f20885f526020525f6040812055875f526005602052610f4860405f209182546116ff565b9055803b1561088757604051632770a7eb60e21b815233600482015260248101869052905f908290604490829084905af180156111f2576111dd575b5082611144575b80610ff0575b507f050df5bd39b9045b183cf260962616d90dc134df2b0da18110a7c2bc6c68468a919080821115610fe857610fc790826116ff565b905b6040805194855260208501919091528301523391606090a46001815580f35b508590610fc9565b60405163095ea7b360e01b81527f00000000000000000000000000000000000000000000000000000000000000006001600160a01b0381166004830152602482018390529190602081806044810103818c7f00000000000000000000000000000000000000000000000000000000000000006001600160a01b03165af190811561113957899161111a575b501561110b576040516364d6def960e01b81526004810191909152306024820152929190606090849060449082908b906001600160a01b03165af192831561081d577f050df5bd39b9045b183cf260962616d90dc134df2b0da18110a7c2bc6c68468a936110ec575b509091610f91565b6111049060603d6060116107e8576107d98183611720565b50506110e4565b6312171d8360e31b8852600488fd5b611133915060203d6020116106db576106cd8183611720565b5f61107b565b6040513d8b823e3d90fd5b60405163a9059cbb60e01b8152336004820152602481018490526020816044818b6001600160a01b037f0000000000000000000000000000000000000000000000000000000000000000165af19081156111d25788916111b3575b50610f8b576312171d8360e31b8752600487fd5b6111cc915060203d6020116106db576106cd8183611720565b5f61119f565b6040513d8a823e3d90fd5b6111ea9197505f90611720565b5f955f610f84565b6040513d5f823e3d90fd5b92508092610ef6565b6301f7d11160e21b5f52600452612ee060245260445ffd5b506020813d60201161124a575b8161123860209383611720565b8101031261088757610eb99051610eae565b3d915061122b565b6301f7d11160e21b5f9081525f19600452612ee0602452604490fd5b826326ef68cf60e01b5f5260045260245ffd5b6313d0ff5960e31b5f5260045ffd5b346108875761129e36611672565b919060ff60025460a01c16611281576112b5611892565b82156114dd576112c4916118e6565b90335f52600360205260405f20825f5260205260405f20548181106114c857816112ed916116ff565b335f52600460205260405f20835f5260205260405f2054806113fc575b50335f52600360205260405f20835f5260205260405f2055815f52600560205260405f206113398282546116ff565b905560405163a9059cbb60e01b8152336004820152602481018290526020816044815f6001600160a01b037f0000000000000000000000000000000000000000000000000000000000000000165af19081156111f2575f916113dd575b50156113ce576040519081527fe69cdf29a59dd324317b598bee3a9ed1fcffb99cc506db72633ed07b59dc6d0460203392a360015f55005b6312171d8360e31b5f5260045ffd5b6113f6915060203d6020116106db576106cd8183611720565b83611396565b835f52600760205260405f20546040519063832321bf60e01b8252600482015260208160248160018060a01b037f0000000000000000000000000000000000000000000000000000000000000000165afa9081156111f2575f91611494575b506114699061147292611ba6565b6109ce83611c5d565b613a9881101561130a57636a5a2d9160e11b5f52600452613a9860245260445ffd5b90506020813d6020116114c0575b816114af60209383611720565b81010312610887575161147261145b565b3d91506114a2565b632c1f8ef160e21b5f5260045260245260445ffd5b631f2a200560e01b5f5260045ffd5b3461088757602036600319011261088757600435801515809103610887576001546001600160a01b0316330361153b576002805460ff60a01b191660a09290921b60ff60a01b16919091179055005b637bfa4b9f60e01b5f5260045ffd5b34610887575f366003190112610887576040517f00000000000000000000000000000000000000000000000000000000000000006001600160a01b03168152602090f35b34610887575f366003190112610887576002546001600160a01b03811690338290036115fd57600180546001600160a01b0319808216851790925591166002556001600160a01b03167ff8ccb027dfcd135e000e9d45e6cc2d662578a8825d4c45b5e32e0adf67e79ec65f80a3005b63058d9a1b60e01b5f5260045ffd5b346108875761161a36611672565b909160ff60025460a01c166112815761163e92611639916103cb611892565b611914565b60015f55005b9181601f840112156108875782359167ffffffffffffffff8311610887576020838186019501011161088757565b6040600319820112610887576004359067ffffffffffffffff82116108875761169d91600401611644565b909160243590565b600435906001600160a01b038216820361088757565b906040600319830112610887576004356001600160a01b038116810361088757916024359067ffffffffffffffff8211610887576116fb91600401611644565b9091565b9190820391821161170c57565b634e487b7160e01b5f52601160045260245ffd5b90601f8019910116810190811067ffffffffffffffff82111761174257604052565b634e487b7160e01b5f52604160045260245ffd5b90816020910312610887575180151581036108875790565b90816060910312610887578051916040602083015192015190565b91611793916118e6565b9060018060a01b0316805f52600460205260405f20825f5260205260405f205491821561187d57805f52600760205260405f20546040519063832321bf60e01b8252600482015260208160248160018060a01b037f0000000000000000000000000000000000000000000000000000000000000000165afa9081156111f2575f91611849575b506118279061184694611ba6565b915f52600360205260405f20905f526020526109ce60405f2054611c5d565b90565b90506020813d602011611875575b8161186460209383611720565b810103126108875751611846611819565b3d9150611857565b5050505f1990565b9190820180921161170c57565b60025f54146118a15760025f55565b60405162461bcd60e51b815260206004820152601f60248201527f5265656e7472616e637947756172643a207265656e7472616e742063616c6c006044820152606490fd5b9061190e602060405183819483830196873781015f838201520301601f198101835282611720565b51902090565b9080156114dd575f828152600660205260409020546001600160a01b0316801561126e5761194282846120e0565b90335f52600360205260405f20855f5260205260405f20546119648633612198565b80821115611b9e57611975916116ff565b8181106114c85750335f52600460205260405f20855f5260205260405f2061199e858254611885565b905581611a2e575b823b15610887576040516340c10f1960e01b815233600482015260248101859052925f908490604490829084905af19283156111f2577fafa80970438fa6a8ad54574239a8d28d0cc4b50da6e4473eab194dea551c6c8793611a1e575b506040805194855260208501919091528301523391606090a3565b5f611a2891611720565b5f611a03565b6040516323b872dd60e01b8152336004820152306024820152604481018390526001600160a01b037f000000000000000000000000000000000000000000000000000000000000000016906020816064815f865af19081156111f2575f91611b7f575b50156113ce5760405163095ea7b360e01b81527f00000000000000000000000000000000000000000000000000000000000000006001600160a01b03811660048301526024820185905291602090829060449082905f905af19081156111f2575f91611b60575b50156113ce576040516364d6def960e01b81526004810184905230602482015290606090829060449082905f906001600160a01b03165af180156111f257611b41575b506119a6565b611b599060603d6060116107e8576107d98183611720565b5050611b3b565b611b79915060203d6020116106db576106cd8183611720565b5f611af8565b611b98915060203d6020116106db576106cd8183611720565b5f611a91565b50505f611975565b5f1982820982820291828083109203918083039214611c4c5781670de0b6b3a76400001115611c0f577faccb18165bd6fe31ae1cf318dc5b51eee0e1ba569b88cd74c1773b91fac1066993670de0b6b3a7640000910990828211900360ee1b910360121c170290565b60405162461bcd60e51b81526020600482015260156024820152744d6174683a206d756c446976206f766572666c6f7760581b6044820152606490fd5b5050670de0b6b3a764000091500490565b5f196305f5e10082096305f5e100820290818082109103908082039114611cd25780670de0b6b3a76400001115611c0f57670de0b6b3a76400006305f5e1007faccb18165bd6fe31ae1cf318dc5b51eee0e1ba569b88cd74c1773b91fac10669940990828211900360ee1b910360121c170290565b50670de0b6b3a764000091500490565b5f19612710820991612710820291828085109403938085039414611d615783821115611c0f57612710829109600182190182168092046002816003021880820260020302808202600203028082026002030280820260020302808202600203028091026002030293600183805f03040190848311900302920304170290565b5080925015611d6e570490565b634e487b7160e01b5f52601260045260245ffd5b5f19670de0b6b3a76400008209670de0b6b3a7640000820290818082109103908082039114611dfb57806305f5e1001115611c0f576305f5e100670de0b6b3a76400007facbe0e98f503f8881186e60dbb7f727bf36b7213ee9f5a78c767074b22e90e21940990828211900360f81b910360081c170290565b506305f5e10091500490565b5f196103e882096103e8820290818082109103908082039114611e6a57806127101115611c0f576127106103e87fbc01a36e2eb1c432ca57a786c226809d495182a9930be0ded288ce703afb7e91940990828211900360fc1b910360041c170290565b5061271091500490565b5f19601e8209601e820290818082109103908082039114611e6a57806127101115611c0f57612710601e7fbc01a36e2eb1c432ca57a786c226809d495182a9930be0ded288ce703afb7e91940990828211900360fc1b910360041c170290565b5f19613a988209613a98820290818082109103908082039114611e6a57806127101115611c0f57612710613a987fbc01a36e2eb1c432ca57a786c226809d495182a9930be0ded288ce703afb7e91940990828211900360fc1b910360041c170290565b915f198284099282810292838086109503948086039514611fb05784831115611c0f57829109600182190182168092046002816003021880820260020302808202600203028082026002030280820260020302808202600203028091026002030293600183805f03040190848311900302920304170290565b505080925015611d6e570490565b5f818152600660205260409020549091906001600160a01b0316156120cd576040516323b872dd60e01b8152336004820152306024820152604481018290526020816064815f6001600160a01b037f0000000000000000000000000000000000000000000000000000000000000000165af19081156111f2575f916120ae575b50156113ce57335f52600360205260405f20825f5260205260405f20612065828254611885565b9055815f52600560205260405f2061207e828254611885565b90556040519081527f88df26d296ecbf594c8609f433503d1436d24afe03c0d9e5e29c8f6ed92ef9b460203392a3565b6120c7915060203d6020116106db576106cd8183611720565b5f61203e565b506326ef68cf60e01b5f5260045260245ffd5b5f52600760205260405f2054906040519163832321bf60e01b8352600483015260208260248160018060a01b037f0000000000000000000000000000000000000000000000000000000000000000165afa9081156111f2575f91612162575b6121499250611ba6565b9061184661051161215c61050c85611ed4565b93611d82565b90506020823d602011612190575b8161217d60209383611720565b810103126108875761214991519061213f565b3d9150612170565b60018060a01b03165f52600460205260405f20815f5260205260405f2054908115612268575f52600760205260405f2054906040519163832321bf60e01b8352600483015260208260248160018060a01b037f0000000000000000000000000000000000000000000000000000000000000000165afa9182156111f2575f92612232575b5061222d6118469261050c92611ba6565b611ed4565b91506020823d602011612260575b8161224d60209383611720565b810103126108875790519061222d61221c565b3d9150612240565b50505f9056fea2646970667358221220ef1c37630c1fe57cbda0a6d0f60a412d1e6af1c396e570638fd04694ae26ec0764736f6c63430008210033","linkReferences":{}},"methodIdentifiers":{"BPS()":"249d39e9","LIQUIDATION_BONUS_BPS()":"ecd1dae6","LIQUIDATION_RATIO()":"c4323fea","MIN_COLLATERAL_RATIO()":"7a9fffb7","MIN_DEPOSIT()":"e1e158a5","TRADE_FEE_BPS()":"9185f598","acceptAdmin()":"0e18b681","admin()":"f851a440","burn(string,uint256)":"b48272cc","collateral(address,bytes32)":"29a723ee","debt(address,bytes32)":"1fbe11f9","depositAndMint(string,uint256,uint256)":"c44bac02","depositCollateral(string,uint256)":"c63e3835","feeSplitter()":"6052970c","getCollateralRatio(address,string)":"6dc827d9","getMintRequirements(address,string,uint256,uint256)":"fbaf7210","getPosition(address,string)":"b1ad0fa0","goodDollar()":"119e5bf3","liquidate(address,string)":"1f33a888","mint(string,uint256)":"056b01ce","oracle()":"7dc0d1d0","oracleKeys(bytes32)":"f32cd630","paused()":"5c975abb","pendingAdmin()":"26782247","registerAsset(string,address)":"8c2261ad","setAdmin(address)":"704b6c02","setPaused(bool)":"16c38b3c","syntheticAssets(bytes32)":"32725696","totalCollateral(bytes32)":"ffe3142e","withdrawCollateral(string,uint256)":"1ce96712"},"id":53}